{
	"OpenzepplineToken/RewardToken.sol": {
		"RewardToken": {
			"abi": [
				{
					"inputs": [
						{
							"internalType": "address",
							"name": "initialOwner",
							"type": "address"
						}
					],
					"stateMutability": "nonpayable",
					"type": "constructor"
				},
				{
					"inputs": [
						{
							"internalType": "address",
							"name": "spender",
							"type": "address"
						},
						{
							"internalType": "uint256",
							"name": "allowance",
							"type": "uint256"
						},
						{
							"internalType": "uint256",
							"name": "needed",
							"type": "uint256"
						}
					],
					"name": "ERC20InsufficientAllowance",
					"type": "error"
				},
				{
					"inputs": [
						{
							"internalType": "address",
							"name": "sender",
							"type": "address"
						},
						{
							"internalType": "uint256",
							"name": "balance",
							"type": "uint256"
						},
						{
							"internalType": "uint256",
							"name": "needed",
							"type": "uint256"
						}
					],
					"name": "ERC20InsufficientBalance",
					"type": "error"
				},
				{
					"inputs": [
						{
							"internalType": "address",
							"name": "approver",
							"type": "address"
						}
					],
					"name": "ERC20InvalidApprover",
					"type": "error"
				},
				{
					"inputs": [
						{
							"internalType": "address",
							"name": "receiver",
							"type": "address"
						}
					],
					"name": "ERC20InvalidReceiver",
					"type": "error"
				},
				{
					"inputs": [
						{
							"internalType": "address",
							"name": "sender",
							"type": "address"
						}
					],
					"name": "ERC20InvalidSender",
					"type": "error"
				},
				{
					"inputs": [
						{
							"internalType": "address",
							"name": "spender",
							"type": "address"
						}
					],
					"name": "ERC20InvalidSpender",
					"type": "error"
				},
				{
					"inputs": [
						{
							"internalType": "address",
							"name": "owner",
							"type": "address"
						}
					],
					"name": "OwnableInvalidOwner",
					"type": "error"
				},
				{
					"inputs": [
						{
							"internalType": "address",
							"name": "account",
							"type": "address"
						}
					],
					"name": "OwnableUnauthorizedAccount",
					"type": "error"
				},
				{
					"anonymous": false,
					"inputs": [
						{
							"indexed": true,
							"internalType": "address",
							"name": "owner",
							"type": "address"
						},
						{
							"indexed": true,
							"internalType": "address",
							"name": "spender",
							"type": "address"
						},
						{
							"indexed": false,
							"internalType": "uint256",
							"name": "value",
							"type": "uint256"
						}
					],
					"name": "Approval",
					"type": "event"
				},
				{
					"anonymous": false,
					"inputs": [
						{
							"indexed": true,
							"internalType": "address",
							"name": "previousOwner",
							"type": "address"
						},
						{
							"indexed": true,
							"internalType": "address",
							"name": "newOwner",
							"type": "address"
						}
					],
					"name": "OwnershipTransferred",
					"type": "event"
				},
				{
					"anonymous": false,
					"inputs": [
						{
							"indexed": true,
							"internalType": "address",
							"name": "from",
							"type": "address"
						},
						{
							"indexed": true,
							"internalType": "address",
							"name": "to",
							"type": "address"
						},
						{
							"indexed": false,
							"internalType": "uint256",
							"name": "value",
							"type": "uint256"
						}
					],
					"name": "Transfer",
					"type": "event"
				},
				{
					"inputs": [
						{
							"internalType": "address",
							"name": "owner",
							"type": "address"
						},
						{
							"internalType": "address",
							"name": "spender",
							"type": "address"
						}
					],
					"name": "allowance",
					"outputs": [
						{
							"internalType": "uint256",
							"name": "",
							"type": "uint256"
						}
					],
					"stateMutability": "view",
					"type": "function"
				},
				{
					"inputs": [
						{
							"internalType": "address",
							"name": "spender",
							"type": "address"
						},
						{
							"internalType": "uint256",
							"name": "value",
							"type": "uint256"
						}
					],
					"name": "approve",
					"outputs": [
						{
							"internalType": "bool",
							"name": "",
							"type": "bool"
						}
					],
					"stateMutability": "nonpayable",
					"type": "function"
				},
				{
					"inputs": [
						{
							"internalType": "address",
							"name": "account",
							"type": "address"
						}
					],
					"name": "balanceOf",
					"outputs": [
						{
							"internalType": "uint256",
							"name": "",
							"type": "uint256"
						}
					],
					"stateMutability": "view",
					"type": "function"
				},
				{
					"inputs": [],
					"name": "decimals",
					"outputs": [
						{
							"internalType": "uint8",
							"name": "",
							"type": "uint8"
						}
					],
					"stateMutability": "view",
					"type": "function"
				},
				{
					"inputs": [
						{
							"internalType": "uint256",
							"name": "amount",
							"type": "uint256"
						}
					],
					"name": "mint",
					"outputs": [],
					"stateMutability": "nonpayable",
					"type": "function"
				},
				{
					"inputs": [
						{
							"internalType": "address",
							"name": "to",
							"type": "address"
						},
						{
							"internalType": "uint256",
							"name": "amount",
							"type": "uint256"
						}
					],
					"name": "mintReward",
					"outputs": [],
					"stateMutability": "nonpayable",
					"type": "function"
				},
				{
					"inputs": [],
					"name": "name",
					"outputs": [
						{
							"internalType": "string",
							"name": "",
							"type": "string"
						}
					],
					"stateMutability": "view",
					"type": "function"
				},
				{
					"inputs": [],
					"name": "owner",
					"outputs": [
						{
							"internalType": "address",
							"name": "",
							"type": "address"
						}
					],
					"stateMutability": "view",
					"type": "function"
				},
				{
					"inputs": [],
					"name": "renounceOwnership",
					"outputs": [],
					"stateMutability": "nonpayable",
					"type": "function"
				},
				{
					"inputs": [],
					"name": "symbol",
					"outputs": [
						{
							"internalType": "string",
							"name": "",
							"type": "string"
						}
					],
					"stateMutability": "view",
					"type": "function"
				},
				{
					"inputs": [],
					"name": "totalSupply",
					"outputs": [
						{
							"internalType": "uint256",
							"name": "",
							"type": "uint256"
						}
					],
					"stateMutability": "view",
					"type": "function"
				},
				{
					"inputs": [
						{
							"internalType": "address",
							"name": "to",
							"type": "address"
						},
						{
							"internalType": "uint256",
							"name": "value",
							"type": "uint256"
						}
					],
					"name": "transfer",
					"outputs": [
						{
							"internalType": "bool",
							"name": "",
							"type": "bool"
						}
					],
					"stateMutability": "nonpayable",
					"type": "function"
				},
				{
					"inputs": [
						{
							"internalType": "address",
							"name": "from",
							"type": "address"
						},
						{
							"internalType": "address",
							"name": "to",
							"type": "address"
						},
						{
							"internalType": "uint256",
							"name": "value",
							"type": "uint256"
						}
					],
					"name": "transferFrom",
					"outputs": [
						{
							"internalType": "bool",
							"name": "",
							"type": "bool"
						}
					],
					"stateMutability": "nonpayable",
					"type": "function"
				},
				{
					"inputs": [
						{
							"internalType": "address",
							"name": "newOwner",
							"type": "address"
						}
					],
					"name": "transferOwnership",
					"outputs": [],
					"stateMutability": "nonpayable",
					"type": "function"
				}
			],
			"devdoc": {
				"errors": {
					"ERC20InsufficientAllowance(address,uint256,uint256)": [
						{
							"details": "Indicates a failure with the `spender`’s `allowance`. Used in transfers.",
							"params": {
								"allowance": "Amount of tokens a `spender` is allowed to operate with.",
								"needed": "Minimum amount required to perform a transfer.",
								"spender": "Address that may be allowed to operate on tokens without being their owner."
							}
						}
					],
					"ERC20InsufficientBalance(address,uint256,uint256)": [
						{
							"details": "Indicates an error related to the current `balance` of a `sender`. Used in transfers.",
							"params": {
								"balance": "Current balance for the interacting account.",
								"needed": "Minimum amount required to perform a transfer.",
								"sender": "Address whose tokens are being transferred."
							}
						}
					],
					"ERC20InvalidApprover(address)": [
						{
							"details": "Indicates a failure with the `approver` of a token to be approved. Used in approvals.",
							"params": {
								"approver": "Address initiating an approval operation."
							}
						}
					],
					"ERC20InvalidReceiver(address)": [
						{
							"details": "Indicates a failure with the token `receiver`. Used in transfers.",
							"params": {
								"receiver": "Address to which tokens are being transferred."
							}
						}
					],
					"ERC20InvalidSender(address)": [
						{
							"details": "Indicates a failure with the token `sender`. Used in transfers.",
							"params": {
								"sender": "Address whose tokens are being transferred."
							}
						}
					],
					"ERC20InvalidSpender(address)": [
						{
							"details": "Indicates a failure with the `spender` to be approved. Used in approvals.",
							"params": {
								"spender": "Address that may be allowed to operate on tokens without being their owner."
							}
						}
					],
					"OwnableInvalidOwner(address)": [
						{
							"details": "The owner is not a valid owner account. (eg. `address(0)`)"
						}
					],
					"OwnableUnauthorizedAccount(address)": [
						{
							"details": "The caller account is not authorized to perform an operation."
						}
					]
				},
				"events": {
					"Approval(address,address,uint256)": {
						"details": "Emitted when the allowance of a `spender` for an `owner` is set by a call to {approve}. `value` is the new allowance."
					},
					"Transfer(address,address,uint256)": {
						"details": "Emitted when `value` tokens are moved from one account (`from`) to another (`to`). Note that `value` may be zero."
					}
				},
				"kind": "dev",
				"methods": {
					"allowance(address,address)": {
						"details": "See {IERC20-allowance}."
					},
					"approve(address,uint256)": {
						"details": "See {IERC20-approve}. NOTE: If `value` is the maximum `uint256`, the allowance is not updated on `transferFrom`. This is semantically equivalent to an infinite approval. Requirements: - `spender` cannot be the zero address."
					},
					"balanceOf(address)": {
						"details": "See {IERC20-balanceOf}."
					},
					"decimals()": {
						"details": "Returns the number of decimals used to get its user representation. For example, if `decimals` equals `2`, a balance of `505` tokens should be displayed to a user as `5.05` (`505 / 10 ** 2`). Tokens usually opt for a value of 18, imitating the relationship between Ether and Wei. This is the default value returned by this function, unless it's overridden. NOTE: This information is only used for _display_ purposes: it in no way affects any of the arithmetic of the contract, including {IERC20-balanceOf} and {IERC20-transfer}."
					},
					"name()": {
						"details": "Returns the name of the token."
					},
					"owner()": {
						"details": "Returns the address of the current owner."
					},
					"renounceOwnership()": {
						"details": "Leaves the contract without owner. It will not be possible to call `onlyOwner` functions. Can only be called by the current owner. NOTE: Renouncing ownership will leave the contract without an owner, thereby disabling any functionality that is only available to the owner."
					},
					"symbol()": {
						"details": "Returns the symbol of the token, usually a shorter version of the name."
					},
					"totalSupply()": {
						"details": "See {IERC20-totalSupply}."
					},
					"transfer(address,uint256)": {
						"details": "See {IERC20-transfer}. Requirements: - `to` cannot be the zero address. - the caller must have a balance of at least `value`."
					},
					"transferFrom(address,address,uint256)": {
						"details": "See {IERC20-transferFrom}. Skips emitting an {Approval} event indicating an allowance update. This is not required by the ERC. See {xref-ERC20-_approve-address-address-uint256-bool-}[_approve]. NOTE: Does not update the allowance if the current allowance is the maximum `uint256`. Requirements: - `from` and `to` cannot be the zero address. - `from` must have a balance of at least `value`. - the caller must have allowance for ``from``'s tokens of at least `value`."
					},
					"transferOwnership(address)": {
						"details": "Transfers ownership of the contract to a new account (`newOwner`). Can only be called by the current owner."
					}
				},
				"version": 1
			},
			"evm": {
				"assembly": "    /* \"OpenzepplineToken/RewardToken.sol\":250:1050  contract RewardToken is ERC20, Ownable{... */\n  mstore(0x40, 0x80)\n    /* \"OpenzepplineToken/RewardToken.sol\":325:469  constructor(address initialOwner) ERC20(\"RewardToken\",\"RWT\") Ownable(initialOwner){... */\n  callvalue\n  dup1\n  iszero\n  tag_1\n  jumpi\n  0x00\n  dup1\n  revert\ntag_1:\n  pop\n  mload(0x40)\n  sub(codesize, bytecodeSize)\n  dup1\n  bytecodeSize\n  dup4\n  codecopy\n  dup2\n  dup2\n  add\n  0x40\n  mstore\n  dup2\n  add\n  swap1\n  tag_2\n  swap2\n  swap1\n  tag_3\n  jump\t// in\ntag_2:\n    /* \"OpenzepplineToken/RewardToken.sol\":394:406  initialOwner */\n  dup1\n    /* \"@openzeppelin/contracts/token/ERC20/ERC20.sol\":1582:1695  constructor(string memory name_, string memory symbol_) {... */\n  mload(0x40)\n  dup1\n  0x40\n  add\n  0x40\n  mstore\n  dup1\n  0x0b\n  dup2\n  mstore\n  0x20\n  add\n  0x526577617264546f6b656e000000000000000000000000000000000000000000\n  dup2\n  mstore\n  pop\n  mload(0x40)\n  dup1\n  0x40\n  add\n  0x40\n  mstore\n  dup1\n  0x03\n  dup2\n  mstore\n  0x20\n  add\n  0x5257540000000000000000000000000000000000000000000000000000000000\n  dup2\n  mstore\n  pop\n    /* \"@openzeppelin/contracts/token/ERC20/ERC20.sol\":1656:1661  name_ */\n  dup2\n    /* \"@openzeppelin/contracts/token/ERC20/ERC20.sol\":1648:1653  _name */\n  0x03\n    /* \"@openzeppelin/contracts/token/ERC20/ERC20.sol\":1648:1661  _name = name_ */\n  swap1\n  dup2\n  tag_8\n  swap2\n  swap1\n  tag_9\n  jump\t// in\ntag_8:\n  pop\n    /* \"@openzeppelin/contracts/token/ERC20/ERC20.sol\":1681:1688  symbol_ */\n  dup1\n    /* \"@openzeppelin/contracts/token/ERC20/ERC20.sol\":1671:1678  _symbol */\n  0x04\n    /* \"@openzeppelin/contracts/token/ERC20/ERC20.sol\":1671:1688  _symbol = symbol_ */\n  swap1\n  dup2\n  tag_10\n  swap2\n  swap1\n  tag_9\n  jump\t// in\ntag_10:\n  pop\n    /* \"@openzeppelin/contracts/token/ERC20/ERC20.sol\":1582:1695  constructor(string memory name_, string memory symbol_) {... */\n  pop\n  pop\n    /* \"@openzeppelin/contracts/access/Ownable.sol\":1297:1298  0 */\n  0x00\n    /* \"@openzeppelin/contracts/access/Ownable.sol\":1273:1299  initialOwner == address(0) */\n  0xffffffffffffffffffffffffffffffffffffffff\n  and\n    /* \"@openzeppelin/contracts/access/Ownable.sol\":1273:1285  initialOwner */\n  dup2\n    /* \"@openzeppelin/contracts/access/Ownable.sol\":1273:1299  initialOwner == address(0) */\n  0xffffffffffffffffffffffffffffffffffffffff\n  and\n  sub\n    /* \"@openzeppelin/contracts/access/Ownable.sol\":1269:1364  if (initialOwner == address(0)) {... */\n  tag_12\n  jumpi\n    /* \"@openzeppelin/contracts/access/Ownable.sol\":1350:1351  0 */\n  0x00\n    /* \"@openzeppelin/contracts/access/Ownable.sol\":1322:1353  OwnableInvalidOwner(address(0)) */\n  mload(0x40)\n  0x1e4fbdf700000000000000000000000000000000000000000000000000000000\n  dup2\n  mstore\n  0x04\n  add\n  tag_13\n  swap2\n  swap1\n  tag_14\n  jump\t// in\ntag_13:\n  mload(0x40)\n  dup1\n  swap2\n  sub\n  swap1\n  revert\n    /* \"@openzeppelin/contracts/access/Ownable.sol\":1269:1364  if (initialOwner == address(0)) {... */\ntag_12:\n    /* \"@openzeppelin/contracts/access/Ownable.sol\":1373:1405  _transferOwnership(initialOwner) */\n  tag_15\n    /* \"@openzeppelin/contracts/access/Ownable.sol\":1392:1404  initialOwner */\n  dup2\n    /* \"@openzeppelin/contracts/access/Ownable.sol\":1373:1391  _transferOwnership */\n  shl(0x20, tag_16)\n    /* \"@openzeppelin/contracts/access/Ownable.sol\":1373:1405  _transferOwnership(initialOwner) */\n  0x20\n  shr\n  jump\t// in\ntag_15:\n    /* \"@openzeppelin/contracts/access/Ownable.sol\":1225:1412  constructor(address initialOwner) {... */\n  pop\n    /* \"OpenzepplineToken/RewardToken.sol\":418:461  _mint(msg.sender, 10000 * 10 ** decimals()) */\n  tag_18\n    /* \"OpenzepplineToken/RewardToken.sol\":424:434  msg.sender */\n  caller\n    /* \"OpenzepplineToken/RewardToken.sol\":450:460  decimals() */\n  tag_19\n    /* \"OpenzepplineToken/RewardToken.sol\":450:458  decimals */\n  shl(0x20, tag_20)\n    /* \"OpenzepplineToken/RewardToken.sol\":450:460  decimals() */\n  0x20\n  shr\n  jump\t// in\ntag_19:\n    /* \"OpenzepplineToken/RewardToken.sol\":444:446  10 */\n  0x0a\n    /* \"OpenzepplineToken/RewardToken.sol\":444:460  10 ** decimals() */\n  tag_21\n  swap2\n  swap1\n  tag_22\n  jump\t// in\ntag_21:\n    /* \"OpenzepplineToken/RewardToken.sol\":436:441  10000 */\n  0x2710\n    /* \"OpenzepplineToken/RewardToken.sol\":436:460  10000 * 10 ** decimals() */\n  tag_23\n  swap2\n  swap1\n  tag_24\n  jump\t// in\ntag_23:\n    /* \"OpenzepplineToken/RewardToken.sol\":418:423  _mint */\n  shl(0x20, tag_25)\n    /* \"OpenzepplineToken/RewardToken.sol\":418:461  _mint(msg.sender, 10000 * 10 ** decimals()) */\n  0x20\n  shr\n  jump\t// in\ntag_18:\n    /* \"OpenzepplineToken/RewardToken.sol\":325:469  constructor(address initialOwner) ERC20(\"RewardToken\",\"RWT\") Ownable(initialOwner){... */\n  pop\n    /* \"OpenzepplineToken/RewardToken.sol\":250:1050  contract RewardToken is ERC20, Ownable{... */\n  jump(tag_26)\n    /* \"@openzeppelin/contracts/access/Ownable.sol\":2912:3099  function _transferOwnership(address newOwner) internal virtual {... */\ntag_16:\n    /* \"@openzeppelin/contracts/access/Ownable.sol\":2985:3001  address oldOwner */\n  0x00\n    /* \"@openzeppelin/contracts/access/Ownable.sol\":3004:3010  _owner */\n  0x05\n  0x00\n  swap1\n  sload\n  swap1\n  0x0100\n  exp\n  swap1\n  div\n  0xffffffffffffffffffffffffffffffffffffffff\n  and\n    /* \"@openzeppelin/contracts/access/Ownable.sol\":2985:3010  address oldOwner = _owner */\n  swap1\n  pop\n    /* \"@openzeppelin/contracts/access/Ownable.sol\":3029:3037  newOwner */\n  dup2\n    /* \"@openzeppelin/contracts/access/Ownable.sol\":3020:3026  _owner */\n  0x05\n  0x00\n    /* \"@openzeppelin/contracts/access/Ownable.sol\":3020:3037  _owner = newOwner */\n  0x0100\n  exp\n  dup2\n  sload\n  dup2\n  0xffffffffffffffffffffffffffffffffffffffff\n  mul\n  not\n  and\n  swap1\n  dup4\n  0xffffffffffffffffffffffffffffffffffffffff\n  and\n  mul\n  or\n  swap1\n  sstore\n  pop\n    /* \"@openzeppelin/contracts/access/Ownable.sol\":3083:3091  newOwner */\n  dup2\n    /* \"@openzeppelin/contracts/access/Ownable.sol\":3052:3092  OwnershipTransferred(oldOwner, newOwner) */\n  0xffffffffffffffffffffffffffffffffffffffff\n  and\n    /* \"@openzeppelin/contracts/access/Ownable.sol\":3073:3081  oldOwner */\n  dup2\n    /* \"@openzeppelin/contracts/access/Ownable.sol\":3052:3092  OwnershipTransferred(oldOwner, newOwner) */\n  0xffffffffffffffffffffffffffffffffffffffff\n  and\n  0x8be0079c531659141344cd1fd0a4f28419497f9722a3daafe3b4186f6b6457e0\n  mload(0x40)\n  mload(0x40)\n  dup1\n  swap2\n  sub\n  swap1\n  log3\n    /* \"@openzeppelin/contracts/access/Ownable.sol\":2975:3099  {... */\n  pop\n    /* \"@openzeppelin/contracts/access/Ownable.sol\":2912:3099  function _transferOwnership(address newOwner) internal virtual {... */\n  pop\n  jump\t// out\n    /* \"@openzeppelin/contracts/token/ERC20/ERC20.sol\":2688:2770  function decimals() public view virtual returns (uint8) {... */\ntag_20:\n    /* \"@openzeppelin/contracts/token/ERC20/ERC20.sol\":2737:2742  uint8 */\n  0x00\n    /* \"@openzeppelin/contracts/token/ERC20/ERC20.sol\":2761:2763  18 */\n  0x12\n    /* \"@openzeppelin/contracts/token/ERC20/ERC20.sol\":2754:2763  return 18 */\n  swap1\n  pop\n    /* \"@openzeppelin/contracts/token/ERC20/ERC20.sol\":2688:2770  function decimals() public view virtual returns (uint8) {... */\n  swap1\n  jump\t// out\n    /* \"@openzeppelin/contracts/token/ERC20/ERC20.sol\":7439:7647  function _mint(address account, uint256 value) internal {... */\ntag_25:\n    /* \"@openzeppelin/contracts/token/ERC20/ERC20.sol\":7528:7529  0 */\n  0x00\n    /* \"@openzeppelin/contracts/token/ERC20/ERC20.sol\":7509:7530  account == address(0) */\n  0xffffffffffffffffffffffffffffffffffffffff\n  and\n    /* \"@openzeppelin/contracts/token/ERC20/ERC20.sol\":7509:7516  account */\n  dup3\n    /* \"@openzeppelin/contracts/token/ERC20/ERC20.sol\":7509:7530  account == address(0) */\n  0xffffffffffffffffffffffffffffffffffffffff\n  and\n  sub\n    /* \"@openzeppelin/contracts/token/ERC20/ERC20.sol\":7505:7596  if (account == address(0)) {... */\n  tag_30\n  jumpi\n    /* \"@openzeppelin/contracts/token/ERC20/ERC20.sol\":7582:7583  0 */\n  0x00\n    /* \"@openzeppelin/contracts/token/ERC20/ERC20.sol\":7553:7585  ERC20InvalidReceiver(address(0)) */\n  mload(0x40)\n  0xec442f0500000000000000000000000000000000000000000000000000000000\n  dup2\n  mstore\n  0x04\n  add\n  tag_31\n  swap2\n  swap1\n  tag_14\n  jump\t// in\ntag_31:\n  mload(0x40)\n  dup1\n  swap2\n  sub\n  swap1\n  revert\n    /* \"@openzeppelin/contracts/token/ERC20/ERC20.sol\":7505:7596  if (account == address(0)) {... */\ntag_30:\n    /* \"@openzeppelin/contracts/token/ERC20/ERC20.sol\":7605:7640  _update(address(0), account, value) */\n  tag_32\n    /* \"@openzeppelin/contracts/token/ERC20/ERC20.sol\":7621:7622  0 */\n  0x00\n    /* \"@openzeppelin/contracts/token/ERC20/ERC20.sol\":7625:7632  account */\n  dup4\n    /* \"@openzeppelin/contracts/token/ERC20/ERC20.sol\":7634:7639  value */\n  dup4\n    /* \"@openzeppelin/contracts/token/ERC20/ERC20.sol\":7605:7612  _update */\n  shl(0x20, tag_33)\n    /* \"@openzeppelin/contracts/token/ERC20/ERC20.sol\":7605:7640  _update(address(0), account, value) */\n  0x20\n  shr\n  jump\t// in\ntag_32:\n    /* \"@openzeppelin/contracts/token/ERC20/ERC20.sol\":7439:7647  function _mint(address account, uint256 value) internal {... */\n  pop\n  pop\n  jump\t// out\n    /* \"@openzeppelin/contracts/token/ERC20/ERC20.sol\":5989:7096  function _update(address from, address to, uint256 value) internal virtual {... */\ntag_33:\n    /* \"@openzeppelin/contracts/token/ERC20/ERC20.sol\":6094:6095  0 */\n  0x00\n    /* \"@openzeppelin/contracts/token/ERC20/ERC20.sol\":6078:6096  from == address(0) */\n  0xffffffffffffffffffffffffffffffffffffffff\n  and\n    /* \"@openzeppelin/contracts/token/ERC20/ERC20.sol\":6078:6082  from */\n  dup4\n    /* \"@openzeppelin/contracts/token/ERC20/ERC20.sol\":6078:6096  from == address(0) */\n  0xffffffffffffffffffffffffffffffffffffffff\n  and\n  sub\n    /* \"@openzeppelin/contracts/token/ERC20/ERC20.sol\":6074:6614  if (from == address(0)) {... */\n  tag_35\n  jumpi\n    /* \"@openzeppelin/contracts/token/ERC20/ERC20.sol\":6230:6235  value */\n  dup1\n    /* \"@openzeppelin/contracts/token/ERC20/ERC20.sol\":6214:6226  _totalSupply */\n  0x02\n  0x00\n    /* \"@openzeppelin/contracts/token/ERC20/ERC20.sol\":6214:6235  _totalSupply += value */\n  dup3\n  dup3\n  sload\n  tag_36\n  swap2\n  swap1\n  tag_37\n  jump\t// in\ntag_36:\n  swap3\n  pop\n  pop\n  dup2\n  swap1\n  sstore\n  pop\n    /* \"@openzeppelin/contracts/token/ERC20/ERC20.sol\":6074:6614  if (from == address(0)) {... */\n  jump(tag_38)\ntag_35:\n    /* \"@openzeppelin/contracts/token/ERC20/ERC20.sol\":6266:6285  uint256 fromBalance */\n  0x00\n    /* \"@openzeppelin/contracts/token/ERC20/ERC20.sol\":6288:6297  _balances */\n  dup1\n    /* \"@openzeppelin/contracts/token/ERC20/ERC20.sol\":6288:6303  _balances[from] */\n  0x00\n    /* \"@openzeppelin/contracts/token/ERC20/ERC20.sol\":6298:6302  from */\n  dup6\n    /* \"@openzeppelin/contracts/token/ERC20/ERC20.sol\":6288:6303  _balances[from] */\n  0xffffffffffffffffffffffffffffffffffffffff\n  and\n  0xffffffffffffffffffffffffffffffffffffffff\n  and\n  dup2\n  mstore\n  0x20\n  add\n  swap1\n  dup2\n  mstore\n  0x20\n  add\n  0x00\n  keccak256\n  sload\n    /* \"@openzeppelin/contracts/token/ERC20/ERC20.sol\":6266:6303  uint256 fromBalance = _balances[from] */\n  swap1\n  pop\n    /* \"@openzeppelin/contracts/token/ERC20/ERC20.sol\":6335:6340  value */\n  dup2\n    /* \"@openzeppelin/contracts/token/ERC20/ERC20.sol\":6321:6332  fromBalance */\n  dup2\n    /* \"@openzeppelin/contracts/token/ERC20/ERC20.sol\":6321:6340  fromBalance < value */\n  lt\n    /* \"@openzeppelin/contracts/token/ERC20/ERC20.sol\":6317:6432  if (fromBalance < value) {... */\n  iszero\n  tag_39\n  jumpi\n    /* \"@openzeppelin/contracts/token/ERC20/ERC20.sol\":6392:6396  from */\n  dup4\n    /* \"@openzeppelin/contracts/token/ERC20/ERC20.sol\":6398:6409  fromBalance */\n  dup2\n    /* \"@openzeppelin/contracts/token/ERC20/ERC20.sol\":6411:6416  value */\n  dup4\n    /* \"@openzeppelin/contracts/token/ERC20/ERC20.sol\":6367:6417  ERC20InsufficientBalance(from, fromBalance, value) */\n  mload(0x40)\n  0xe450d38c00000000000000000000000000000000000000000000000000000000\n  dup2\n  mstore\n  0x04\n  add\n  tag_40\n  swap4\n  swap3\n  swap2\n  swap1\n  tag_41\n  jump\t// in\ntag_40:\n  mload(0x40)\n  dup1\n  swap2\n  sub\n  swap1\n  revert\n    /* \"@openzeppelin/contracts/token/ERC20/ERC20.sol\":6317:6432  if (fromBalance < value) {... */\ntag_39:\n    /* \"@openzeppelin/contracts/token/ERC20/ERC20.sol\":6584:6589  value */\n  dup2\n    /* \"@openzeppelin/contracts/token/ERC20/ERC20.sol\":6570:6581  fromBalance */\n  dup2\n    /* \"@openzeppelin/contracts/token/ERC20/ERC20.sol\":6570:6589  fromBalance - value */\n  sub\n    /* \"@openzeppelin/contracts/token/ERC20/ERC20.sol\":6552:6561  _balances */\n  0x00\n    /* \"@openzeppelin/contracts/token/ERC20/ERC20.sol\":6552:6567  _balances[from] */\n  dup1\n    /* \"@openzeppelin/contracts/token/ERC20/ERC20.sol\":6562:6566  from */\n  dup7\n    /* \"@openzeppelin/contracts/token/ERC20/ERC20.sol\":6552:6567  _balances[from] */\n  0xffffffffffffffffffffffffffffffffffffffff\n  and\n  0xffffffffffffffffffffffffffffffffffffffff\n  and\n  dup2\n  mstore\n  0x20\n  add\n  swap1\n  dup2\n  mstore\n  0x20\n  add\n  0x00\n  keccak256\n    /* \"@openzeppelin/contracts/token/ERC20/ERC20.sol\":6552:6589  _balances[from] = fromBalance - value */\n  dup2\n  swap1\n  sstore\n  pop\n    /* \"@openzeppelin/contracts/token/ERC20/ERC20.sol\":6252:6614  {... */\n  pop\n    /* \"@openzeppelin/contracts/token/ERC20/ERC20.sol\":6074:6614  if (from == address(0)) {... */\ntag_38:\n    /* \"@openzeppelin/contracts/token/ERC20/ERC20.sol\":6642:6643  0 */\n  0x00\n    /* \"@openzeppelin/contracts/token/ERC20/ERC20.sol\":6628:6644  to == address(0) */\n  0xffffffffffffffffffffffffffffffffffffffff\n  and\n    /* \"@openzeppelin/contracts/token/ERC20/ERC20.sol\":6628:6630  to */\n  dup3\n    /* \"@openzeppelin/contracts/token/ERC20/ERC20.sol\":6628:6644  to == address(0) */\n  0xffffffffffffffffffffffffffffffffffffffff\n  and\n  sub\n    /* \"@openzeppelin/contracts/token/ERC20/ERC20.sol\":6624:7049  if (to == address(0)) {... */\n  tag_42\n  jumpi\n    /* \"@openzeppelin/contracts/token/ERC20/ERC20.sol\":6807:6812  value */\n  dup1\n    /* \"@openzeppelin/contracts/token/ERC20/ERC20.sol\":6791:6803  _totalSupply */\n  0x02\n  0x00\n    /* \"@openzeppelin/contracts/token/ERC20/ERC20.sol\":6791:6812  _totalSupply -= value */\n  dup3\n  dup3\n  sload\n  sub\n  swap3\n  pop\n  pop\n  dup2\n  swap1\n  sstore\n  pop\n    /* \"@openzeppelin/contracts/token/ERC20/ERC20.sol\":6624:7049  if (to == address(0)) {... */\n  jump(tag_43)\ntag_42:\n    /* \"@openzeppelin/contracts/token/ERC20/ERC20.sol\":7019:7024  value */\n  dup1\n    /* \"@openzeppelin/contracts/token/ERC20/ERC20.sol\":7002:7011  _balances */\n  0x00\n    /* \"@openzeppelin/contracts/token/ERC20/ERC20.sol\":7002:7015  _balances[to] */\n  dup1\n    /* \"@openzeppelin/contracts/token/ERC20/ERC20.sol\":7012:7014  to */\n  dup5\n    /* \"@openzeppelin/contracts/token/ERC20/ERC20.sol\":7002:7015  _balances[to] */\n  0xffffffffffffffffffffffffffffffffffffffff\n  and\n  0xffffffffffffffffffffffffffffffffffffffff\n  and\n  dup2\n  mstore\n  0x20\n  add\n  swap1\n  dup2\n  mstore\n  0x20\n  add\n  0x00\n  keccak256\n  0x00\n    /* \"@openzeppelin/contracts/token/ERC20/ERC20.sol\":7002:7024  _balances[to] += value */\n  dup3\n  dup3\n  sload\n  add\n  swap3\n  pop\n  pop\n  dup2\n  swap1\n  sstore\n  pop\n    /* \"@openzeppelin/contracts/token/ERC20/ERC20.sol\":6624:7049  if (to == address(0)) {... */\ntag_43:\n    /* \"@openzeppelin/contracts/token/ERC20/ERC20.sol\":7079:7081  to */\n  dup2\n    /* \"@openzeppelin/contracts/token/ERC20/ERC20.sol\":7064:7089  Transfer(from, to, value) */\n  0xffffffffffffffffffffffffffffffffffffffff\n  and\n    /* \"@openzeppelin/contracts/token/ERC20/ERC20.sol\":7073:7077  from */\n  dup4\n    /* \"@openzeppelin/contracts/token/ERC20/ERC20.sol\":7064:7089  Transfer(from, to, value) */\n  0xffffffffffffffffffffffffffffffffffffffff\n  and\n  0xddf252ad1be2c89b69c2b068fc378daa952ba7f163c4a11628f55a4df523b3ef\n    /* \"@openzeppelin/contracts/token/ERC20/ERC20.sol\":7083:7088  value */\n  dup4\n    /* \"@openzeppelin/contracts/token/ERC20/ERC20.sol\":7064:7089  Transfer(from, to, value) */\n  mload(0x40)\n  tag_44\n  swap2\n  swap1\n  tag_45\n  jump\t// in\ntag_44:\n  mload(0x40)\n  dup1\n  swap2\n  sub\n  swap1\n  log3\n    /* \"@openzeppelin/contracts/token/ERC20/ERC20.sol\":5989:7096  function _update(address from, address to, uint256 value) internal virtual {... */\n  pop\n  pop\n  pop\n  jump\t// out\n    /* \"#utility.yul\":88:205   */\ntag_47:\n    /* \"#utility.yul\":197:198   */\n  0x00\n    /* \"#utility.yul\":194:195   */\n  dup1\n    /* \"#utility.yul\":187:199   */\n  revert\n    /* \"#utility.yul\":334:460   */\ntag_49:\n    /* \"#utility.yul\":371:378   */\n  0x00\n    /* \"#utility.yul\":411:453   */\n  0xffffffffffffffffffffffffffffffffffffffff\n    /* \"#utility.yul\":404:409   */\n  dup3\n    /* \"#utility.yul\":400:454   */\n  and\n    /* \"#utility.yul\":389:454   */\n  swap1\n  pop\n    /* \"#utility.yul\":334:460   */\n  swap2\n  swap1\n  pop\n  jump\t// out\n    /* \"#utility.yul\":466:562   */\ntag_50:\n    /* \"#utility.yul\":503:510   */\n  0x00\n    /* \"#utility.yul\":532:556   */\n  tag_86\n    /* \"#utility.yul\":550:555   */\n  dup3\n    /* \"#utility.yul\":532:556   */\n  tag_49\n  jump\t// in\ntag_86:\n    /* \"#utility.yul\":521:556   */\n  swap1\n  pop\n    /* \"#utility.yul\":466:562   */\n  swap2\n  swap1\n  pop\n  jump\t// out\n    /* \"#utility.yul\":568:690   */\ntag_51:\n    /* \"#utility.yul\":641:665   */\n  tag_88\n    /* \"#utility.yul\":659:664   */\n  dup2\n    /* \"#utility.yul\":641:665   */\n  tag_50\n  jump\t// in\ntag_88:\n    /* \"#utility.yul\":634:639   */\n  dup2\n    /* \"#utility.yul\":631:666   */\n  eq\n    /* \"#utility.yul\":621:684   */\n  tag_89\n  jumpi\n    /* \"#utility.yul\":680:681   */\n  0x00\n    /* \"#utility.yul\":677:678   */\n  dup1\n    /* \"#utility.yul\":670:682   */\n  revert\n    /* \"#utility.yul\":621:684   */\ntag_89:\n    /* \"#utility.yul\":568:690   */\n  pop\n  jump\t// out\n    /* \"#utility.yul\":696:839   */\ntag_52:\n    /* \"#utility.yul\":753:758   */\n  0x00\n    /* \"#utility.yul\":784:790   */\n  dup2\n    /* \"#utility.yul\":778:791   */\n  mload\n    /* \"#utility.yul\":769:791   */\n  swap1\n  pop\n    /* \"#utility.yul\":800:833   */\n  tag_91\n    /* \"#utility.yul\":827:832   */\n  dup2\n    /* \"#utility.yul\":800:833   */\n  tag_51\n  jump\t// in\ntag_91:\n    /* \"#utility.yul\":696:839   */\n  swap3\n  swap2\n  pop\n  pop\n  jump\t// out\n    /* \"#utility.yul\":845:1196   */\ntag_3:\n    /* \"#utility.yul\":915:921   */\n  0x00\n    /* \"#utility.yul\":964:966   */\n  0x20\n    /* \"#utility.yul\":952:961   */\n  dup3\n    /* \"#utility.yul\":943:950   */\n  dup5\n    /* \"#utility.yul\":939:962   */\n  sub\n    /* \"#utility.yul\":935:967   */\n  slt\n    /* \"#utility.yul\":932:1051   */\n  iszero\n  tag_93\n  jumpi\n    /* \"#utility.yul\":970:1049   */\n  tag_94\n  tag_47\n  jump\t// in\ntag_94:\n    /* \"#utility.yul\":932:1051   */\ntag_93:\n    /* \"#utility.yul\":1090:1091   */\n  0x00\n    /* \"#utility.yul\":1115:1179   */\n  tag_95\n    /* \"#utility.yul\":1171:1178   */\n  dup5\n    /* \"#utility.yul\":1162:1168   */\n  dup3\n    /* \"#utility.yul\":1151:1160   */\n  dup6\n    /* \"#utility.yul\":1147:1169   */\n  add\n    /* \"#utility.yul\":1115:1179   */\n  tag_52\n  jump\t// in\ntag_95:\n    /* \"#utility.yul\":1105:1179   */\n  swap2\n  pop\n    /* \"#utility.yul\":1061:1189   */\n  pop\n    /* \"#utility.yul\":845:1196   */\n  swap3\n  swap2\n  pop\n  pop\n  jump\t// out\n    /* \"#utility.yul\":1202:1301   */\ntag_53:\n    /* \"#utility.yul\":1254:1260   */\n  0x00\n    /* \"#utility.yul\":1288:1293   */\n  dup2\n    /* \"#utility.yul\":1282:1294   */\n  mload\n    /* \"#utility.yul\":1272:1294   */\n  swap1\n  pop\n    /* \"#utility.yul\":1202:1301   */\n  swap2\n  swap1\n  pop\n  jump\t// out\n    /* \"#utility.yul\":1307:1487   */\ntag_54:\n    /* \"#utility.yul\":1355:1432   */\n  0x4e487b7100000000000000000000000000000000000000000000000000000000\n    /* \"#utility.yul\":1352:1353   */\n  0x00\n    /* \"#utility.yul\":1345:1433   */\n  mstore\n    /* \"#utility.yul\":1452:1456   */\n  0x41\n    /* \"#utility.yul\":1449:1450   */\n  0x04\n    /* \"#utility.yul\":1442:1457   */\n  mstore\n    /* \"#utility.yul\":1476:1480   */\n  0x24\n    /* \"#utility.yul\":1473:1474   */\n  0x00\n    /* \"#utility.yul\":1466:1481   */\n  revert\n    /* \"#utility.yul\":1493:1673   */\ntag_55:\n    /* \"#utility.yul\":1541:1618   */\n  0x4e487b7100000000000000000000000000000000000000000000000000000000\n    /* \"#utility.yul\":1538:1539   */\n  0x00\n    /* \"#utility.yul\":1531:1619   */\n  mstore\n    /* \"#utility.yul\":1638:1642   */\n  0x22\n    /* \"#utility.yul\":1635:1636   */\n  0x04\n    /* \"#utility.yul\":1628:1643   */\n  mstore\n    /* \"#utility.yul\":1662:1666   */\n  0x24\n    /* \"#utility.yul\":1659:1660   */\n  0x00\n    /* \"#utility.yul\":1652:1667   */\n  revert\n    /* \"#utility.yul\":1679:1999   */\ntag_56:\n    /* \"#utility.yul\":1723:1729   */\n  0x00\n    /* \"#utility.yul\":1760:1761   */\n  0x02\n    /* \"#utility.yul\":1754:1758   */\n  dup3\n    /* \"#utility.yul\":1750:1762   */\n  div\n    /* \"#utility.yul\":1740:1762   */\n  swap1\n  pop\n    /* \"#utility.yul\":1807:1808   */\n  0x01\n    /* \"#utility.yul\":1801:1805   */\n  dup3\n    /* \"#utility.yul\":1797:1809   */\n  and\n    /* \"#utility.yul\":1828:1846   */\n  dup1\n    /* \"#utility.yul\":1818:1899   */\n  tag_100\n  jumpi\n    /* \"#utility.yul\":1884:1888   */\n  0x7f\n    /* \"#utility.yul\":1876:1882   */\n  dup3\n    /* \"#utility.yul\":1872:1889   */\n  and\n    /* \"#utility.yul\":1862:1889   */\n  swap2\n  pop\n    /* \"#utility.yul\":1818:1899   */\ntag_100:\n    /* \"#utility.yul\":1946:1948   */\n  0x20\n    /* \"#utility.yul\":1938:1944   */\n  dup3\n    /* \"#utility.yul\":1935:1949   */\n  lt\n    /* \"#utility.yul\":1915:1933   */\n  dup2\n    /* \"#utility.yul\":1912:1950   */\n  sub\n    /* \"#utility.yul\":1909:1993   */\n  tag_101\n  jumpi\n    /* \"#utility.yul\":1965:1983   */\n  tag_102\n  tag_55\n  jump\t// in\ntag_102:\n    /* \"#utility.yul\":1909:1993   */\ntag_101:\n    /* \"#utility.yul\":1730:1999   */\n  pop\n    /* \"#utility.yul\":1679:1999   */\n  swap2\n  swap1\n  pop\n  jump\t// out\n    /* \"#utility.yul\":2005:2146   */\ntag_57:\n    /* \"#utility.yul\":2054:2058   */\n  0x00\n    /* \"#utility.yul\":2077:2080   */\n  dup2\n    /* \"#utility.yul\":2069:2080   */\n  swap1\n  pop\n    /* \"#utility.yul\":2100:2103   */\n  dup2\n    /* \"#utility.yul\":2097:2098   */\n  0x00\n    /* \"#utility.yul\":2090:2104   */\n  mstore\n    /* \"#utility.yul\":2134:2138   */\n  0x20\n    /* \"#utility.yul\":2131:2132   */\n  0x00\n    /* \"#utility.yul\":2121:2139   */\n  keccak256\n    /* \"#utility.yul\":2113:2139   */\n  swap1\n  pop\n    /* \"#utility.yul\":2005:2146   */\n  swap2\n  swap1\n  pop\n  jump\t// out\n    /* \"#utility.yul\":2152:2245   */\ntag_58:\n    /* \"#utility.yul\":2189:2195   */\n  0x00\n    /* \"#utility.yul\":2236:2238   */\n  0x20\n    /* \"#utility.yul\":2231:2233   */\n  0x1f\n    /* \"#utility.yul\":2224:2229   */\n  dup4\n    /* \"#utility.yul\":2220:2234   */\n  add\n    /* \"#utility.yul\":2216:2239   */\n  div\n    /* \"#utility.yul\":2206:2239   */\n  swap1\n  pop\n    /* \"#utility.yul\":2152:2245   */\n  swap2\n  swap1\n  pop\n  jump\t// out\n    /* \"#utility.yul\":2251:2358   */\ntag_59:\n    /* \"#utility.yul\":2295:2303   */\n  0x00\n    /* \"#utility.yul\":2345:2350   */\n  dup3\n    /* \"#utility.yul\":2339:2343   */\n  dup3\n    /* \"#utility.yul\":2335:2351   */\n  shl\n    /* \"#utility.yul\":2314:2351   */\n  swap1\n  pop\n    /* \"#utility.yul\":2251:2358   */\n  swap3\n  swap2\n  pop\n  pop\n  jump\t// out\n    /* \"#utility.yul\":2364:2757   */\ntag_60:\n    /* \"#utility.yul\":2433:2439   */\n  0x00\n    /* \"#utility.yul\":2483:2484   */\n  0x08\n    /* \"#utility.yul\":2471:2481   */\n  dup4\n    /* \"#utility.yul\":2467:2485   */\n  mul\n    /* \"#utility.yul\":2506:2603   */\n  tag_107\n    /* \"#utility.yul\":2536:2602   */\n  0xffffffffffffffffffffffffffffffffffffffffffffffffffffffffffffffff\n    /* \"#utility.yul\":2525:2534   */\n  dup3\n    /* \"#utility.yul\":2506:2603   */\n  tag_59\n  jump\t// in\ntag_107:\n    /* \"#utility.yul\":2624:2663   */\n  tag_108\n    /* \"#utility.yul\":2654:2662   */\n  dup7\n    /* \"#utility.yul\":2643:2652   */\n  dup4\n    /* \"#utility.yul\":2624:2663   */\n  tag_59\n  jump\t// in\ntag_108:\n    /* \"#utility.yul\":2612:2663   */\n  swap6\n  pop\n    /* \"#utility.yul\":2696:2700   */\n  dup1\n    /* \"#utility.yul\":2692:2701   */\n  not\n    /* \"#utility.yul\":2685:2690   */\n  dup5\n    /* \"#utility.yul\":2681:2702   */\n  and\n    /* \"#utility.yul\":2672:2702   */\n  swap4\n  pop\n    /* \"#utility.yul\":2745:2749   */\n  dup1\n    /* \"#utility.yul\":2735:2743   */\n  dup7\n    /* \"#utility.yul\":2731:2750   */\n  and\n    /* \"#utility.yul\":2724:2729   */\n  dup5\n    /* \"#utility.yul\":2721:2751   */\n  or\n    /* \"#utility.yul\":2711:2751   */\n  swap3\n  pop\n    /* \"#utility.yul\":2440:2757   */\n  pop\n  pop\n    /* \"#utility.yul\":2364:2757   */\n  swap4\n  swap3\n  pop\n  pop\n  pop\n  jump\t// out\n    /* \"#utility.yul\":2763:2840   */\ntag_61:\n    /* \"#utility.yul\":2800:2807   */\n  0x00\n    /* \"#utility.yul\":2829:2834   */\n  dup2\n    /* \"#utility.yul\":2818:2834   */\n  swap1\n  pop\n    /* \"#utility.yul\":2763:2840   */\n  swap2\n  swap1\n  pop\n  jump\t// out\n    /* \"#utility.yul\":2846:2906   */\ntag_62:\n    /* \"#utility.yul\":2874:2877   */\n  0x00\n    /* \"#utility.yul\":2895:2900   */\n  dup2\n    /* \"#utility.yul\":2888:2900   */\n  swap1\n  pop\n    /* \"#utility.yul\":2846:2906   */\n  swap2\n  swap1\n  pop\n  jump\t// out\n    /* \"#utility.yul\":2912:3054   */\ntag_63:\n    /* \"#utility.yul\":2962:2971   */\n  0x00\n    /* \"#utility.yul\":2995:3048   */\n  tag_112\n    /* \"#utility.yul\":3013:3047   */\n  tag_113\n    /* \"#utility.yul\":3022:3046   */\n  tag_114\n    /* \"#utility.yul\":3040:3045   */\n  dup5\n    /* \"#utility.yul\":3022:3046   */\n  tag_61\n  jump\t// in\ntag_114:\n    /* \"#utility.yul\":3013:3047   */\n  tag_62\n  jump\t// in\ntag_113:\n    /* \"#utility.yul\":2995:3048   */\n  tag_61\n  jump\t// in\ntag_112:\n    /* \"#utility.yul\":2982:3048   */\n  swap1\n  pop\n    /* \"#utility.yul\":2912:3054   */\n  swap2\n  swap1\n  pop\n  jump\t// out\n    /* \"#utility.yul\":3060:3135   */\ntag_64:\n    /* \"#utility.yul\":3103:3106   */\n  0x00\n    /* \"#utility.yul\":3124:3129   */\n  dup2\n    /* \"#utility.yul\":3117:3129   */\n  swap1\n  pop\n    /* \"#utility.yul\":3060:3135   */\n  swap2\n  swap1\n  pop\n  jump\t// out\n    /* \"#utility.yul\":3141:3410   */\ntag_65:\n    /* \"#utility.yul\":3251:3290   */\n  tag_117\n    /* \"#utility.yul\":3282:3289   */\n  dup4\n    /* \"#utility.yul\":3251:3290   */\n  tag_63\n  jump\t// in\ntag_117:\n    /* \"#utility.yul\":3312:3403   */\n  tag_118\n    /* \"#utility.yul\":3361:3402   */\n  tag_119\n    /* \"#utility.yul\":3385:3401   */\n  dup3\n    /* \"#utility.yul\":3361:3402   */\n  tag_64\n  jump\t// in\ntag_119:\n    /* \"#utility.yul\":3353:3359   */\n  dup5\n    /* \"#utility.yul\":3346:3350   */\n  dup5\n    /* \"#utility.yul\":3340:3351   */\n  sload\n    /* \"#utility.yul\":3312:3403   */\n  tag_60\n  jump\t// in\ntag_118:\n    /* \"#utility.yul\":3306:3310   */\n  dup3\n    /* \"#utility.yul\":3299:3404   */\n  sstore\n    /* \"#utility.yul\":3217:3410   */\n  pop\n    /* \"#utility.yul\":3141:3410   */\n  pop\n  pop\n  pop\n  jump\t// out\n    /* \"#utility.yul\":3416:3489   */\ntag_66:\n    /* \"#utility.yul\":3461:3464   */\n  0x00\n    /* \"#utility.yul\":3416:3489   */\n  swap1\n  jump\t// out\n    /* \"#utility.yul\":3495:3684   */\ntag_67:\n    /* \"#utility.yul\":3572:3604   */\n  tag_122\n  tag_66\n  jump\t// in\ntag_122:\n    /* \"#utility.yul\":3613:3678   */\n  tag_123\n    /* \"#utility.yul\":3671:3677   */\n  dup2\n    /* \"#utility.yul\":3663:3669   */\n  dup5\n    /* \"#utility.yul\":3657:3661   */\n  dup5\n    /* \"#utility.yul\":3613:3678   */\n  tag_65\n  jump\t// in\ntag_123:\n    /* \"#utility.yul\":3548:3684   */\n  pop\n    /* \"#utility.yul\":3495:3684   */\n  pop\n  pop\n  jump\t// out\n    /* \"#utility.yul\":3690:3876   */\ntag_68:\n    /* \"#utility.yul\":3750:3870   */\ntag_125:\n    /* \"#utility.yul\":3767:3770   */\n  dup2\n    /* \"#utility.yul\":3760:3765   */\n  dup2\n    /* \"#utility.yul\":3757:3771   */\n  lt\n    /* \"#utility.yul\":3750:3870   */\n  iszero\n  tag_127\n  jumpi\n    /* \"#utility.yul\":3821:3860   */\n  tag_128\n    /* \"#utility.yul\":3858:3859   */\n  0x00\n    /* \"#utility.yul\":3851:3856   */\n  dup3\n    /* \"#utility.yul\":3821:3860   */\n  tag_67\n  jump\t// in\ntag_128:\n    /* \"#utility.yul\":3794:3795   */\n  0x01\n    /* \"#utility.yul\":3787:3792   */\n  dup2\n    /* \"#utility.yul\":3783:3796   */\n  add\n    /* \"#utility.yul\":3774:3796   */\n  swap1\n  pop\n    /* \"#utility.yul\":3750:3870   */\n  jump(tag_125)\ntag_127:\n    /* \"#utility.yul\":3690:3876   */\n  pop\n  pop\n  jump\t// out\n    /* \"#utility.yul\":3882:4425   */\ntag_69:\n    /* \"#utility.yul\":3983:3985   */\n  0x1f\n    /* \"#utility.yul\":3978:3981   */\n  dup3\n    /* \"#utility.yul\":3975:3986   */\n  gt\n    /* \"#utility.yul\":3972:4418   */\n  iszero\n  tag_130\n  jumpi\n    /* \"#utility.yul\":4017:4055   */\n  tag_131\n    /* \"#utility.yul\":4049:4054   */\n  dup2\n    /* \"#utility.yul\":4017:4055   */\n  tag_57\n  jump\t// in\ntag_131:\n    /* \"#utility.yul\":4101:4130   */\n  tag_132\n    /* \"#utility.yul\":4119:4129   */\n  dup5\n    /* \"#utility.yul\":4101:4130   */\n  tag_58\n  jump\t// in\ntag_132:\n    /* \"#utility.yul\":4091:4099   */\n  dup2\n    /* \"#utility.yul\":4087:4131   */\n  add\n    /* \"#utility.yul\":4284:4286   */\n  0x20\n    /* \"#utility.yul\":4272:4282   */\n  dup6\n    /* \"#utility.yul\":4269:4287   */\n  lt\n    /* \"#utility.yul\":4266:4315   */\n  iszero\n  tag_133\n  jumpi\n    /* \"#utility.yul\":4305:4313   */\n  dup2\n    /* \"#utility.yul\":4290:4313   */\n  swap1\n  pop\n    /* \"#utility.yul\":4266:4315   */\ntag_133:\n    /* \"#utility.yul\":4328:4408   */\n  tag_134\n    /* \"#utility.yul\":4384:4406   */\n  tag_135\n    /* \"#utility.yul\":4402:4405   */\n  dup6\n    /* \"#utility.yul\":4384:4406   */\n  tag_58\n  jump\t// in\ntag_135:\n    /* \"#utility.yul\":4374:4382   */\n  dup4\n    /* \"#utility.yul\":4370:4407   */\n  add\n    /* \"#utility.yul\":4357:4368   */\n  dup3\n    /* \"#utility.yul\":4328:4408   */\n  tag_68\n  jump\t// in\ntag_134:\n    /* \"#utility.yul\":3987:4418   */\n  pop\n  pop\n    /* \"#utility.yul\":3972:4418   */\ntag_130:\n    /* \"#utility.yul\":3882:4425   */\n  pop\n  pop\n  pop\n  jump\t// out\n    /* \"#utility.yul\":4431:4548   */\ntag_70:\n    /* \"#utility.yul\":4485:4493   */\n  0x00\n    /* \"#utility.yul\":4535:4540   */\n  dup3\n    /* \"#utility.yul\":4529:4533   */\n  dup3\n    /* \"#utility.yul\":4525:4541   */\n  shr\n    /* \"#utility.yul\":4504:4541   */\n  swap1\n  pop\n    /* \"#utility.yul\":4431:4548   */\n  swap3\n  swap2\n  pop\n  pop\n  jump\t// out\n    /* \"#utility.yul\":4554:4723   */\ntag_71:\n    /* \"#utility.yul\":4598:4604   */\n  0x00\n    /* \"#utility.yul\":4631:4682   */\n  tag_138\n    /* \"#utility.yul\":4679:4680   */\n  0x00\n    /* \"#utility.yul\":4675:4681   */\n  not\n    /* \"#utility.yul\":4667:4672   */\n  dup5\n    /* \"#utility.yul\":4664:4665   */\n  0x08\n    /* \"#utility.yul\":4660:4673   */\n  mul\n    /* \"#utility.yul\":4631:4682   */\n  tag_70\n  jump\t// in\ntag_138:\n    /* \"#utility.yul\":4627:4683   */\n  not\n    /* \"#utility.yul\":4712:4716   */\n  dup1\n    /* \"#utility.yul\":4706:4710   */\n  dup4\n    /* \"#utility.yul\":4702:4717   */\n  and\n    /* \"#utility.yul\":4692:4717   */\n  swap2\n  pop\n    /* \"#utility.yul\":4605:4723   */\n  pop\n    /* \"#utility.yul\":4554:4723   */\n  swap3\n  swap2\n  pop\n  pop\n  jump\t// out\n    /* \"#utility.yul\":4728:5023   */\ntag_72:\n    /* \"#utility.yul\":4804:4808   */\n  0x00\n    /* \"#utility.yul\":4950:4979   */\n  tag_140\n    /* \"#utility.yul\":4975:4978   */\n  dup4\n    /* \"#utility.yul\":4969:4973   */\n  dup4\n    /* \"#utility.yul\":4950:4979   */\n  tag_71\n  jump\t// in\ntag_140:\n    /* \"#utility.yul\":4942:4979   */\n  swap2\n  pop\n    /* \"#utility.yul\":5012:5015   */\n  dup3\n    /* \"#utility.yul\":5009:5010   */\n  0x02\n    /* \"#utility.yul\":5005:5016   */\n  mul\n    /* \"#utility.yul\":4999:5003   */\n  dup3\n    /* \"#utility.yul\":4996:5017   */\n  or\n    /* \"#utility.yul\":4988:5017   */\n  swap1\n  pop\n    /* \"#utility.yul\":4728:5023   */\n  swap3\n  swap2\n  pop\n  pop\n  jump\t// out\n    /* \"#utility.yul\":5028:6423   */\ntag_9:\n    /* \"#utility.yul\":5145:5182   */\n  tag_142\n    /* \"#utility.yul\":5178:5181   */\n  dup3\n    /* \"#utility.yul\":5145:5182   */\n  tag_53\n  jump\t// in\ntag_142:\n    /* \"#utility.yul\":5247:5265   */\n  0xffffffffffffffff\n    /* \"#utility.yul\":5239:5245   */\n  dup2\n    /* \"#utility.yul\":5236:5266   */\n  gt\n    /* \"#utility.yul\":5233:5289   */\n  iszero\n  tag_143\n  jumpi\n    /* \"#utility.yul\":5269:5287   */\n  tag_144\n  tag_54\n  jump\t// in\ntag_144:\n    /* \"#utility.yul\":5233:5289   */\ntag_143:\n    /* \"#utility.yul\":5313:5351   */\n  tag_145\n    /* \"#utility.yul\":5345:5349   */\n  dup3\n    /* \"#utility.yul\":5339:5350   */\n  sload\n    /* \"#utility.yul\":5313:5351   */\n  tag_56\n  jump\t// in\ntag_145:\n    /* \"#utility.yul\":5398:5465   */\n  tag_146\n    /* \"#utility.yul\":5458:5464   */\n  dup3\n    /* \"#utility.yul\":5450:5456   */\n  dup3\n    /* \"#utility.yul\":5444:5448   */\n  dup6\n    /* \"#utility.yul\":5398:5465   */\n  tag_69\n  jump\t// in\ntag_146:\n    /* \"#utility.yul\":5492:5493   */\n  0x00\n    /* \"#utility.yul\":5516:5520   */\n  0x20\n    /* \"#utility.yul\":5503:5520   */\n  swap1\n  pop\n    /* \"#utility.yul\":5548:5550   */\n  0x1f\n    /* \"#utility.yul\":5540:5546   */\n  dup4\n    /* \"#utility.yul\":5537:5551   */\n  gt\n    /* \"#utility.yul\":5565:5566   */\n  0x01\n    /* \"#utility.yul\":5560:6178   */\n  dup2\n  eq\n  tag_148\n  jumpi\n    /* \"#utility.yul\":6222:6223   */\n  0x00\n    /* \"#utility.yul\":6239:6245   */\n  dup5\n    /* \"#utility.yul\":6236:6313   */\n  iszero\n  tag_149\n  jumpi\n    /* \"#utility.yul\":6288:6297   */\n  dup3\n    /* \"#utility.yul\":6283:6286   */\n  dup8\n    /* \"#utility.yul\":6279:6298   */\n  add\n    /* \"#utility.yul\":6273:6299   */\n  mload\n    /* \"#utility.yul\":6264:6299   */\n  swap1\n  pop\n    /* \"#utility.yul\":6236:6313   */\ntag_149:\n    /* \"#utility.yul\":6339:6406   */\n  tag_150\n    /* \"#utility.yul\":6399:6405   */\n  dup6\n    /* \"#utility.yul\":6392:6397   */\n  dup3\n    /* \"#utility.yul\":6339:6406   */\n  tag_72\n  jump\t// in\ntag_150:\n    /* \"#utility.yul\":6333:6337   */\n  dup7\n    /* \"#utility.yul\":6326:6407   */\n  sstore\n    /* \"#utility.yul\":6195:6417   */\n  pop\n    /* \"#utility.yul\":5530:6417   */\n  jump(tag_147)\n    /* \"#utility.yul\":5560:6178   */\ntag_148:\n    /* \"#utility.yul\":5612:5616   */\n  0x1f\n    /* \"#utility.yul\":5608:5617   */\n  not\n    /* \"#utility.yul\":5600:5606   */\n  dup5\n    /* \"#utility.yul\":5596:5618   */\n  and\n    /* \"#utility.yul\":5646:5683   */\n  tag_151\n    /* \"#utility.yul\":5678:5682   */\n  dup7\n    /* \"#utility.yul\":5646:5683   */\n  tag_57\n  jump\t// in\ntag_151:\n    /* \"#utility.yul\":5705:5706   */\n  0x00\n    /* \"#utility.yul\":5719:5927   */\ntag_152:\n    /* \"#utility.yul\":5733:5740   */\n  dup3\n    /* \"#utility.yul\":5730:5731   */\n  dup2\n    /* \"#utility.yul\":5727:5741   */\n  lt\n    /* \"#utility.yul\":5719:5927   */\n  iszero\n  tag_154\n  jumpi\n    /* \"#utility.yul\":5812:5821   */\n  dup5\n    /* \"#utility.yul\":5807:5810   */\n  dup10\n    /* \"#utility.yul\":5803:5822   */\n  add\n    /* \"#utility.yul\":5797:5823   */\n  mload\n    /* \"#utility.yul\":5789:5795   */\n  dup3\n    /* \"#utility.yul\":5782:5824   */\n  sstore\n    /* \"#utility.yul\":5863:5864   */\n  0x01\n    /* \"#utility.yul\":5855:5861   */\n  dup3\n    /* \"#utility.yul\":5851:5865   */\n  add\n    /* \"#utility.yul\":5841:5865   */\n  swap2\n  pop\n    /* \"#utility.yul\":5910:5912   */\n  0x20\n    /* \"#utility.yul\":5899:5908   */\n  dup6\n    /* \"#utility.yul\":5895:5913   */\n  add\n    /* \"#utility.yul\":5882:5913   */\n  swap5\n  pop\n    /* \"#utility.yul\":5756:5760   */\n  0x20\n    /* \"#utility.yul\":5753:5754   */\n  dup2\n    /* \"#utility.yul\":5749:5761   */\n  add\n    /* \"#utility.yul\":5744:5761   */\n  swap1\n  pop\n    /* \"#utility.yul\":5719:5927   */\n  jump(tag_152)\ntag_154:\n    /* \"#utility.yul\":5955:5961   */\n  dup7\n    /* \"#utility.yul\":5946:5953   */\n  dup4\n    /* \"#utility.yul\":5943:5962   */\n  lt\n    /* \"#utility.yul\":5940:6119   */\n  iszero\n  tag_155\n  jumpi\n    /* \"#utility.yul\":6013:6022   */\n  dup5\n    /* \"#utility.yul\":6008:6011   */\n  dup10\n    /* \"#utility.yul\":6004:6023   */\n  add\n    /* \"#utility.yul\":5998:6024   */\n  mload\n    /* \"#utility.yul\":6056:6104   */\n  tag_156\n    /* \"#utility.yul\":6098:6102   */\n  0x1f\n    /* \"#utility.yul\":6090:6096   */\n  dup10\n    /* \"#utility.yul\":6086:6103   */\n  and\n    /* \"#utility.yul\":6075:6084   */\n  dup3\n    /* \"#utility.yul\":6056:6104   */\n  tag_71\n  jump\t// in\ntag_156:\n    /* \"#utility.yul\":6048:6054   */\n  dup4\n    /* \"#utility.yul\":6041:6105   */\n  sstore\n    /* \"#utility.yul\":5963:6119   */\n  pop\n    /* \"#utility.yul\":5940:6119   */\ntag_155:\n    /* \"#utility.yul\":6165:6166   */\n  0x01\n    /* \"#utility.yul\":6161:6162   */\n  0x02\n    /* \"#utility.yul\":6153:6159   */\n  dup9\n    /* \"#utility.yul\":6149:6163   */\n  mul\n    /* \"#utility.yul\":6145:6167   */\n  add\n    /* \"#utility.yul\":6139:6143   */\n  dup9\n    /* \"#utility.yul\":6132:6168   */\n  sstore\n    /* \"#utility.yul\":5567:6178   */\n  pop\n  pop\n  pop\n    /* \"#utility.yul\":5530:6417   */\ntag_147:\n  pop\n    /* \"#utility.yul\":5120:6423   */\n  pop\n  pop\n  pop\n    /* \"#utility.yul\":5028:6423   */\n  pop\n  pop\n  jump\t// out\n    /* \"#utility.yul\":6429:6547   */\ntag_73:\n    /* \"#utility.yul\":6516:6540   */\n  tag_158\n    /* \"#utility.yul\":6534:6539   */\n  dup2\n    /* \"#utility.yul\":6516:6540   */\n  tag_50\n  jump\t// in\ntag_158:\n    /* \"#utility.yul\":6511:6514   */\n  dup3\n    /* \"#utility.yul\":6504:6541   */\n  mstore\n    /* \"#utility.yul\":6429:6547   */\n  pop\n  pop\n  jump\t// out\n    /* \"#utility.yul\":6553:6775   */\ntag_14:\n    /* \"#utility.yul\":6646:6650   */\n  0x00\n    /* \"#utility.yul\":6684:6686   */\n  0x20\n    /* \"#utility.yul\":6673:6682   */\n  dup3\n    /* \"#utility.yul\":6669:6687   */\n  add\n    /* \"#utility.yul\":6661:6687   */\n  swap1\n  pop\n    /* \"#utility.yul\":6697:6768   */\n  tag_160\n    /* \"#utility.yul\":6765:6766   */\n  0x00\n    /* \"#utility.yul\":6754:6763   */\n  dup4\n    /* \"#utility.yul\":6750:6767   */\n  add\n    /* \"#utility.yul\":6741:6747   */\n  dup5\n    /* \"#utility.yul\":6697:6768   */\n  tag_73\n  jump\t// in\ntag_160:\n    /* \"#utility.yul\":6553:6775   */\n  swap3\n  swap2\n  pop\n  pop\n  jump\t// out\n    /* \"#utility.yul\":6781:6961   */\ntag_74:\n    /* \"#utility.yul\":6829:6906   */\n  0x4e487b7100000000000000000000000000000000000000000000000000000000\n    /* \"#utility.yul\":6826:6827   */\n  0x00\n    /* \"#utility.yul\":6819:6907   */\n  mstore\n    /* \"#utility.yul\":6926:6930   */\n  0x11\n    /* \"#utility.yul\":6923:6924   */\n  0x04\n    /* \"#utility.yul\":6916:6931   */\n  mstore\n    /* \"#utility.yul\":6950:6954   */\n  0x24\n    /* \"#utility.yul\":6947:6948   */\n  0x00\n    /* \"#utility.yul\":6940:6955   */\n  revert\n    /* \"#utility.yul\":6967:7069   */\ntag_75:\n    /* \"#utility.yul\":7009:7017   */\n  0x00\n    /* \"#utility.yul\":7056:7061   */\n  dup2\n    /* \"#utility.yul\":7053:7054   */\n  0x01\n    /* \"#utility.yul\":7049:7062   */\n  shr\n    /* \"#utility.yul\":7028:7062   */\n  swap1\n  pop\n    /* \"#utility.yul\":6967:7069   */\n  swap2\n  swap1\n  pop\n  jump\t// out\n    /* \"#utility.yul\":7075:7923   */\ntag_76:\n    /* \"#utility.yul\":7136:7141   */\n  0x00\n    /* \"#utility.yul\":7143:7147   */\n  dup1\n    /* \"#utility.yul\":7167:7173   */\n  dup3\n    /* \"#utility.yul\":7158:7173   */\n  swap2\n  pop\n    /* \"#utility.yul\":7191:7196   */\n  dup4\n    /* \"#utility.yul\":7182:7196   */\n  swap1\n  pop\n    /* \"#utility.yul\":7205:7917   */\ntag_164:\n    /* \"#utility.yul\":7226:7227   */\n  0x01\n    /* \"#utility.yul\":7216:7224   */\n  dup6\n    /* \"#utility.yul\":7213:7228   */\n  gt\n    /* \"#utility.yul\":7205:7917   */\n  iszero\n  tag_166\n  jumpi\n    /* \"#utility.yul\":7321:7325   */\n  dup1\n    /* \"#utility.yul\":7316:7319   */\n  dup7\n    /* \"#utility.yul\":7312:7326   */\n  div\n    /* \"#utility.yul\":7306:7310   */\n  dup2\n    /* \"#utility.yul\":7303:7327   */\n  gt\n    /* \"#utility.yul\":7300:7350   */\n  iszero\n  tag_167\n  jumpi\n    /* \"#utility.yul\":7330:7348   */\n  tag_168\n  tag_74\n  jump\t// in\ntag_168:\n    /* \"#utility.yul\":7300:7350   */\ntag_167:\n    /* \"#utility.yul\":7380:7381   */\n  0x01\n    /* \"#utility.yul\":7370:7378   */\n  dup6\n    /* \"#utility.yul\":7366:7382   */\n  and\n    /* \"#utility.yul\":7363:7814   */\n  iszero\n  tag_169\n  jumpi\n    /* \"#utility.yul\":7795:7799   */\n  dup1\n    /* \"#utility.yul\":7788:7793   */\n  dup3\n    /* \"#utility.yul\":7784:7800   */\n  mul\n    /* \"#utility.yul\":7775:7800   */\n  swap2\n  pop\n    /* \"#utility.yul\":7363:7814   */\ntag_169:\n    /* \"#utility.yul\":7845:7849   */\n  dup1\n    /* \"#utility.yul\":7839:7843   */\n  dup2\n    /* \"#utility.yul\":7835:7850   */\n  mul\n    /* \"#utility.yul\":7827:7850   */\n  swap1\n  pop\n    /* \"#utility.yul\":7875:7907   */\n  tag_170\n    /* \"#utility.yul\":7898:7906   */\n  dup6\n    /* \"#utility.yul\":7875:7907   */\n  tag_75\n  jump\t// in\ntag_170:\n    /* \"#utility.yul\":7863:7907   */\n  swap5\n  pop\n    /* \"#utility.yul\":7205:7917   */\n  jump(tag_164)\ntag_166:\n    /* \"#utility.yul\":7075:7923   */\n  swap5\n  pop\n  swap5\n  swap3\n  pop\n  pop\n  pop\n  jump\t// out\n    /* \"#utility.yul\":7929:9002   */\ntag_77:\n    /* \"#utility.yul\":7983:7988   */\n  0x00\n    /* \"#utility.yul\":8174:8182   */\n  dup3\n    /* \"#utility.yul\":8164:8204   */\n  tag_172\n  jumpi\n    /* \"#utility.yul\":8195:8196   */\n  0x01\n    /* \"#utility.yul\":8186:8196   */\n  swap1\n  pop\n    /* \"#utility.yul\":8197:8202   */\n  jump(tag_171)\n    /* \"#utility.yul\":8164:8204   */\ntag_172:\n    /* \"#utility.yul\":8223:8227   */\n  dup2\n    /* \"#utility.yul\":8213:8249   */\n  tag_173\n  jumpi\n    /* \"#utility.yul\":8240:8241   */\n  0x00\n    /* \"#utility.yul\":8231:8241   */\n  swap1\n  pop\n    /* \"#utility.yul\":8242:8247   */\n  jump(tag_171)\n    /* \"#utility.yul\":8213:8249   */\ntag_173:\n    /* \"#utility.yul\":8309:8313   */\n  dup2\n    /* \"#utility.yul\":8357:8358   */\n  0x01\n    /* \"#utility.yul\":8352:8379   */\n  dup2\n  eq\n  tag_175\n  jumpi\n    /* \"#utility.yul\":8393:8394   */\n  0x02\n    /* \"#utility.yul\":8388:8579   */\n  dup2\n  eq\n  tag_176\n  jumpi\n    /* \"#utility.yul\":8302:8579   */\n  jump(tag_174)\n    /* \"#utility.yul\":8352:8379   */\ntag_175:\n    /* \"#utility.yul\":8370:8371   */\n  0x01\n    /* \"#utility.yul\":8361:8371   */\n  swap2\n  pop\n    /* \"#utility.yul\":8372:8377   */\n  pop\n  jump(tag_171)\n    /* \"#utility.yul\":8388:8579   */\ntag_176:\n    /* \"#utility.yul\":8433:8436   */\n  0xff\n    /* \"#utility.yul\":8423:8431   */\n  dup5\n    /* \"#utility.yul\":8420:8437   */\n  gt\n    /* \"#utility.yul\":8417:8460   */\n  iszero\n  tag_177\n  jumpi\n    /* \"#utility.yul\":8440:8458   */\n  tag_178\n  tag_74\n  jump\t// in\ntag_178:\n    /* \"#utility.yul\":8417:8460   */\ntag_177:\n    /* \"#utility.yul\":8489:8497   */\n  dup4\n    /* \"#utility.yul\":8486:8487   */\n  0x02\n    /* \"#utility.yul\":8482:8498   */\n  exp\n    /* \"#utility.yul\":8473:8498   */\n  swap2\n  pop\n    /* \"#utility.yul\":8524:8527   */\n  dup5\n    /* \"#utility.yul\":8517:8522   */\n  dup3\n    /* \"#utility.yul\":8514:8528   */\n  gt\n    /* \"#utility.yul\":8511:8551   */\n  iszero\n  tag_179\n  jumpi\n    /* \"#utility.yul\":8531:8549   */\n  tag_180\n  tag_74\n  jump\t// in\ntag_180:\n    /* \"#utility.yul\":8511:8551   */\ntag_179:\n    /* \"#utility.yul\":8564:8569   */\n  pop\n  jump(tag_171)\n    /* \"#utility.yul\":8302:8579   */\ntag_174:\n  pop\n    /* \"#utility.yul\":8688:8690   */\n  0x20\n    /* \"#utility.yul\":8678:8686   */\n  dup4\n    /* \"#utility.yul\":8675:8691   */\n  lt\n    /* \"#utility.yul\":8669:8672   */\n  0x0133\n    /* \"#utility.yul\":8663:8667   */\n  dup4\n    /* \"#utility.yul\":8660:8673   */\n  lt\n    /* \"#utility.yul\":8656:8692   */\n  and\n    /* \"#utility.yul\":8638:8640   */\n  0x4e\n    /* \"#utility.yul\":8628:8636   */\n  dup5\n    /* \"#utility.yul\":8625:8641   */\n  lt\n    /* \"#utility.yul\":8620:8622   */\n  0x0b\n    /* \"#utility.yul\":8614:8618   */\n  dup5\n    /* \"#utility.yul\":8611:8623   */\n  lt\n    /* \"#utility.yul\":8607:8642   */\n  and\n    /* \"#utility.yul\":8591:8702   */\n  or\n    /* \"#utility.yul\":8588:8834   */\n  iszero\n  tag_181\n  jumpi\n    /* \"#utility.yul\":8744:8752   */\n  dup3\n    /* \"#utility.yul\":8738:8742   */\n  dup3\n    /* \"#utility.yul\":8734:8753   */\n  exp\n    /* \"#utility.yul\":8725:8753   */\n  swap1\n  pop\n    /* \"#utility.yul\":8779:8782   */\n  dup4\n    /* \"#utility.yul\":8772:8777   */\n  dup2\n    /* \"#utility.yul\":8769:8783   */\n  gt\n    /* \"#utility.yul\":8766:8806   */\n  iszero\n  tag_182\n  jumpi\n    /* \"#utility.yul\":8786:8804   */\n  tag_183\n  tag_74\n  jump\t// in\ntag_183:\n    /* \"#utility.yul\":8766:8806   */\ntag_182:\n    /* \"#utility.yul\":8819:8824   */\n  jump(tag_171)\n    /* \"#utility.yul\":8588:8834   */\ntag_181:\n    /* \"#utility.yul\":8859:8901   */\n  tag_184\n    /* \"#utility.yul\":8897:8900   */\n  dup5\n    /* \"#utility.yul\":8887:8895   */\n  dup5\n    /* \"#utility.yul\":8881:8885   */\n  dup5\n    /* \"#utility.yul\":8878:8879   */\n  0x01\n    /* \"#utility.yul\":8859:8901   */\n  tag_76\n  jump\t// in\ntag_184:\n    /* \"#utility.yul\":8844:8901   */\n  swap3\n  pop\n  swap1\n  pop\n    /* \"#utility.yul\":8933:8937   */\n  dup2\n    /* \"#utility.yul\":8928:8931   */\n  dup5\n    /* \"#utility.yul\":8924:8938   */\n  div\n    /* \"#utility.yul\":8917:8922   */\n  dup2\n    /* \"#utility.yul\":8914:8939   */\n  gt\n    /* \"#utility.yul\":8911:8962   */\n  iszero\n  tag_185\n  jumpi\n    /* \"#utility.yul\":8942:8960   */\n  tag_186\n  tag_74\n  jump\t// in\ntag_186:\n    /* \"#utility.yul\":8911:8962   */\ntag_185:\n    /* \"#utility.yul\":8991:8995   */\n  dup2\n    /* \"#utility.yul\":8984:8989   */\n  dup2\n    /* \"#utility.yul\":8980:8996   */\n  mul\n    /* \"#utility.yul\":8971:8996   */\n  swap1\n  pop\n    /* \"#utility.yul\":7929:9002   */\ntag_171:\n  swap4\n  swap3\n  pop\n  pop\n  pop\n  jump\t// out\n    /* \"#utility.yul\":9008:9094   */\ntag_78:\n    /* \"#utility.yul\":9043:9050   */\n  0x00\n    /* \"#utility.yul\":9083:9087   */\n  0xff\n    /* \"#utility.yul\":9076:9081   */\n  dup3\n    /* \"#utility.yul\":9072:9088   */\n  and\n    /* \"#utility.yul\":9061:9088   */\n  swap1\n  pop\n    /* \"#utility.yul\":9008:9094   */\n  swap2\n  swap1\n  pop\n  jump\t// out\n    /* \"#utility.yul\":9100:9381   */\ntag_22:\n    /* \"#utility.yul\":9158:9163   */\n  0x00\n    /* \"#utility.yul\":9182:9205   */\n  tag_189\n    /* \"#utility.yul\":9200:9204   */\n  dup3\n    /* \"#utility.yul\":9182:9205   */\n  tag_61\n  jump\t// in\ntag_189:\n    /* \"#utility.yul\":9174:9205   */\n  swap2\n  pop\n    /* \"#utility.yul\":9226:9251   */\n  tag_190\n    /* \"#utility.yul\":9242:9250   */\n  dup4\n    /* \"#utility.yul\":9226:9251   */\n  tag_78\n  jump\t// in\ntag_190:\n    /* \"#utility.yul\":9214:9251   */\n  swap3\n  pop\n    /* \"#utility.yul\":9270:9374   */\n  tag_191\n    /* \"#utility.yul\":9307:9373   */\n  0xffffffffffffffffffffffffffffffffffffffffffffffffffffffffffffffff\n    /* \"#utility.yul\":9297:9305   */\n  dup5\n    /* \"#utility.yul\":9291:9295   */\n  dup5\n    /* \"#utility.yul\":9270:9374   */\n  tag_77\n  jump\t// in\ntag_191:\n    /* \"#utility.yul\":9261:9374   */\n  swap1\n  pop\n    /* \"#utility.yul\":9100:9381   */\n  swap3\n  swap2\n  pop\n  pop\n  jump\t// out\n    /* \"#utility.yul\":9387:9797   */\ntag_24:\n    /* \"#utility.yul\":9427:9434   */\n  0x00\n    /* \"#utility.yul\":9450:9470   */\n  tag_193\n    /* \"#utility.yul\":9468:9469   */\n  dup3\n    /* \"#utility.yul\":9450:9470   */\n  tag_61\n  jump\t// in\ntag_193:\n    /* \"#utility.yul\":9445:9470   */\n  swap2\n  pop\n    /* \"#utility.yul\":9484:9504   */\n  tag_194\n    /* \"#utility.yul\":9502:9503   */\n  dup4\n    /* \"#utility.yul\":9484:9504   */\n  tag_61\n  jump\t// in\ntag_194:\n    /* \"#utility.yul\":9479:9504   */\n  swap3\n  pop\n    /* \"#utility.yul\":9539:9540   */\n  dup3\n    /* \"#utility.yul\":9536:9537   */\n  dup3\n    /* \"#utility.yul\":9532:9541   */\n  mul\n    /* \"#utility.yul\":9561:9591   */\n  tag_195\n    /* \"#utility.yul\":9579:9590   */\n  dup2\n    /* \"#utility.yul\":9561:9591   */\n  tag_61\n  jump\t// in\ntag_195:\n    /* \"#utility.yul\":9550:9591   */\n  swap2\n  pop\n    /* \"#utility.yul\":9740:9741   */\n  dup3\n    /* \"#utility.yul\":9731:9738   */\n  dup3\n    /* \"#utility.yul\":9727:9742   */\n  div\n    /* \"#utility.yul\":9724:9725   */\n  dup5\n    /* \"#utility.yul\":9721:9743   */\n  eq\n    /* \"#utility.yul\":9701:9702   */\n  dup4\n    /* \"#utility.yul\":9694:9703   */\n  iszero\n    /* \"#utility.yul\":9674:9757   */\n  or\n    /* \"#utility.yul\":9651:9790   */\n  tag_196\n  jumpi\n    /* \"#utility.yul\":9770:9788   */\n  tag_197\n  tag_74\n  jump\t// in\ntag_197:\n    /* \"#utility.yul\":9651:9790   */\ntag_196:\n    /* \"#utility.yul\":9435:9797   */\n  pop\n    /* \"#utility.yul\":9387:9797   */\n  swap3\n  swap2\n  pop\n  pop\n  jump\t// out\n    /* \"#utility.yul\":9803:9994   */\ntag_37:\n    /* \"#utility.yul\":9843:9846   */\n  0x00\n    /* \"#utility.yul\":9862:9882   */\n  tag_199\n    /* \"#utility.yul\":9880:9881   */\n  dup3\n    /* \"#utility.yul\":9862:9882   */\n  tag_61\n  jump\t// in\ntag_199:\n    /* \"#utility.yul\":9857:9882   */\n  swap2\n  pop\n    /* \"#utility.yul\":9896:9916   */\n  tag_200\n    /* \"#utility.yul\":9914:9915   */\n  dup4\n    /* \"#utility.yul\":9896:9916   */\n  tag_61\n  jump\t// in\ntag_200:\n    /* \"#utility.yul\":9891:9916   */\n  swap3\n  pop\n    /* \"#utility.yul\":9939:9940   */\n  dup3\n    /* \"#utility.yul\":9936:9937   */\n  dup3\n    /* \"#utility.yul\":9932:9941   */\n  add\n    /* \"#utility.yul\":9925:9941   */\n  swap1\n  pop\n    /* \"#utility.yul\":9960:9963   */\n  dup1\n    /* \"#utility.yul\":9957:9958   */\n  dup3\n    /* \"#utility.yul\":9954:9964   */\n  gt\n    /* \"#utility.yul\":9951:9987   */\n  iszero\n  tag_201\n  jumpi\n    /* \"#utility.yul\":9967:9985   */\n  tag_202\n  tag_74\n  jump\t// in\ntag_202:\n    /* \"#utility.yul\":9951:9987   */\ntag_201:\n    /* \"#utility.yul\":9803:9994   */\n  swap3\n  swap2\n  pop\n  pop\n  jump\t// out\n    /* \"#utility.yul\":10000:10118   */\ntag_79:\n    /* \"#utility.yul\":10087:10111   */\n  tag_204\n    /* \"#utility.yul\":10105:10110   */\n  dup2\n    /* \"#utility.yul\":10087:10111   */\n  tag_61\n  jump\t// in\ntag_204:\n    /* \"#utility.yul\":10082:10085   */\n  dup3\n    /* \"#utility.yul\":10075:10112   */\n  mstore\n    /* \"#utility.yul\":10000:10118   */\n  pop\n  pop\n  jump\t// out\n    /* \"#utility.yul\":10124:10566   */\ntag_41:\n    /* \"#utility.yul\":10273:10277   */\n  0x00\n    /* \"#utility.yul\":10311:10313   */\n  0x60\n    /* \"#utility.yul\":10300:10309   */\n  dup3\n    /* \"#utility.yul\":10296:10314   */\n  add\n    /* \"#utility.yul\":10288:10314   */\n  swap1\n  pop\n    /* \"#utility.yul\":10324:10395   */\n  tag_206\n    /* \"#utility.yul\":10392:10393   */\n  0x00\n    /* \"#utility.yul\":10381:10390   */\n  dup4\n    /* \"#utility.yul\":10377:10394   */\n  add\n    /* \"#utility.yul\":10368:10374   */\n  dup7\n    /* \"#utility.yul\":10324:10395   */\n  tag_73\n  jump\t// in\ntag_206:\n    /* \"#utility.yul\":10405:10477   */\n  tag_207\n    /* \"#utility.yul\":10473:10475   */\n  0x20\n    /* \"#utility.yul\":10462:10471   */\n  dup4\n    /* \"#utility.yul\":10458:10476   */\n  add\n    /* \"#utility.yul\":10449:10455   */\n  dup6\n    /* \"#utility.yul\":10405:10477   */\n  tag_79\n  jump\t// in\ntag_207:\n    /* \"#utility.yul\":10487:10559   */\n  tag_208\n    /* \"#utility.yul\":10555:10557   */\n  0x40\n    /* \"#utility.yul\":10544:10553   */\n  dup4\n    /* \"#utility.yul\":10540:10558   */\n  add\n    /* \"#utility.yul\":10531:10537   */\n  dup5\n    /* \"#utility.yul\":10487:10559   */\n  tag_79\n  jump\t// in\ntag_208:\n    /* \"#utility.yul\":10124:10566   */\n  swap5\n  swap4\n  pop\n  pop\n  pop\n  pop\n  jump\t// out\n    /* \"#utility.yul\":10572:10794   */\ntag_45:\n    /* \"#utility.yul\":10665:10669   */\n  0x00\n    /* \"#utility.yul\":10703:10705   */\n  0x20\n    /* \"#utility.yul\":10692:10701   */\n  dup3\n    /* \"#utility.yul\":10688:10706   */\n  add\n    /* \"#utility.yul\":10680:10706   */\n  swap1\n  pop\n    /* \"#utility.yul\":10716:10787   */\n  tag_210\n    /* \"#utility.yul\":10784:10785   */\n  0x00\n    /* \"#utility.yul\":10773:10782   */\n  dup4\n    /* \"#utility.yul\":10769:10786   */\n  add\n    /* \"#utility.yul\":10760:10766   */\n  dup5\n    /* \"#utility.yul\":10716:10787   */\n  tag_79\n  jump\t// in\ntag_210:\n    /* \"#utility.yul\":10572:10794   */\n  swap3\n  swap2\n  pop\n  pop\n  jump\t// out\n    /* \"OpenzepplineToken/RewardToken.sol\":250:1050  contract RewardToken is ERC20, Ownable{... */\ntag_26:\n  dataSize(sub_0)\n  dup1\n  dataOffset(sub_0)\n  0x00\n  codecopy\n  0x00\n  return\nstop\n\nsub_0: assembly {\n        /* \"OpenzepplineToken/RewardToken.sol\":250:1050  contract RewardToken is ERC20, Ownable{... */\n      mstore(0x40, 0x80)\n      callvalue\n      dup1\n      iszero\n      tag_1\n      jumpi\n      0x00\n      dup1\n      revert\n    tag_1:\n      pop\n      jumpi(tag_2, lt(calldatasize, 0x04))\n      shr(0xe0, calldataload(0x00))\n      dup1\n      0x8da5cb5b\n      gt\n      tag_17\n      jumpi\n      dup1\n      0xa0712d68\n      gt\n      tag_18\n      jumpi\n      dup1\n      0xa0712d68\n      eq\n      tag_13\n      jumpi\n      dup1\n      0xa9059cbb\n      eq\n      tag_14\n      jumpi\n      dup1\n      0xdd62ed3e\n      eq\n      tag_15\n      jumpi\n      dup1\n      0xf2fde38b\n      eq\n      tag_16\n      jumpi\n      jump(tag_2)\n    tag_18:\n      dup1\n      0x8da5cb5b\n      eq\n      tag_10\n      jumpi\n      dup1\n      0x95d89b41\n      eq\n      tag_11\n      jumpi\n      dup1\n      0x9a49090e\n      eq\n      tag_12\n      jumpi\n      jump(tag_2)\n    tag_17:\n      dup1\n      0x23b872dd\n      gt\n      tag_19\n      jumpi\n      dup1\n      0x23b872dd\n      eq\n      tag_6\n      jumpi\n      dup1\n      0x313ce567\n      eq\n      tag_7\n      jumpi\n      dup1\n      0x70a08231\n      eq\n      tag_8\n      jumpi\n      dup1\n      0x715018a6\n      eq\n      tag_9\n      jumpi\n      jump(tag_2)\n    tag_19:\n      dup1\n      0x06fdde03\n      eq\n      tag_3\n      jumpi\n      dup1\n      0x095ea7b3\n      eq\n      tag_4\n      jumpi\n      dup1\n      0x18160ddd\n      eq\n      tag_5\n      jumpi\n    tag_2:\n      0x00\n      dup1\n      revert\n        /* \"@openzeppelin/contracts/token/ERC20/ERC20.sol\":1760:1849  function name() public view virtual returns (string memory) {... */\n    tag_3:\n      tag_20\n      tag_21\n      jump\t// in\n    tag_20:\n      mload(0x40)\n      tag_22\n      swap2\n      swap1\n      tag_23\n      jump\t// in\n    tag_22:\n      mload(0x40)\n      dup1\n      swap2\n      sub\n      swap1\n      return\n        /* \"@openzeppelin/contracts/token/ERC20/ERC20.sol\":3979:4165  function approve(address spender, uint256 value) public virtual returns (bool) {... */\n    tag_4:\n      tag_24\n      0x04\n      dup1\n      calldatasize\n      sub\n      dup2\n      add\n      swap1\n      tag_25\n      swap2\n      swap1\n      tag_26\n      jump\t// in\n    tag_25:\n      tag_27\n      jump\t// in\n    tag_24:\n      mload(0x40)\n      tag_28\n      swap2\n      swap1\n      tag_29\n      jump\t// in\n    tag_28:\n      mload(0x40)\n      dup1\n      swap2\n      sub\n      swap1\n      return\n        /* \"@openzeppelin/contracts/token/ERC20/ERC20.sol\":2830:2927  function totalSupply() public view virtual returns (uint256) {... */\n    tag_5:\n      tag_30\n      tag_31\n      jump\t// in\n    tag_30:\n      mload(0x40)\n      tag_32\n      swap2\n      swap1\n      tag_33\n      jump\t// in\n    tag_32:\n      mload(0x40)\n      dup1\n      swap2\n      sub\n      swap1\n      return\n        /* \"@openzeppelin/contracts/token/ERC20/ERC20.sol\":4757:5001  function transferFrom(address from, address to, uint256 value) public virtual returns (bool) {... */\n    tag_6:\n      tag_34\n      0x04\n      dup1\n      calldatasize\n      sub\n      dup2\n      add\n      swap1\n      tag_35\n      swap2\n      swap1\n      tag_36\n      jump\t// in\n    tag_35:\n      tag_37\n      jump\t// in\n    tag_34:\n      mload(0x40)\n      tag_38\n      swap2\n      swap1\n      tag_29\n      jump\t// in\n    tag_38:\n      mload(0x40)\n      dup1\n      swap2\n      sub\n      swap1\n      return\n        /* \"@openzeppelin/contracts/token/ERC20/ERC20.sol\":2688:2770  function decimals() public view virtual returns (uint8) {... */\n    tag_7:\n      tag_39\n      tag_40\n      jump\t// in\n    tag_39:\n      mload(0x40)\n      tag_41\n      swap2\n      swap1\n      tag_42\n      jump\t// in\n    tag_41:\n      mload(0x40)\n      dup1\n      swap2\n      sub\n      swap1\n      return\n        /* \"@openzeppelin/contracts/token/ERC20/ERC20.sol\":2985:3101  function balanceOf(address account) public view virtual returns (uint256) {... */\n    tag_8:\n      tag_43\n      0x04\n      dup1\n      calldatasize\n      sub\n      dup2\n      add\n      swap1\n      tag_44\n      swap2\n      swap1\n      tag_45\n      jump\t// in\n    tag_44:\n      tag_46\n      jump\t// in\n    tag_43:\n      mload(0x40)\n      tag_47\n      swap2\n      swap1\n      tag_33\n      jump\t// in\n    tag_47:\n      mload(0x40)\n      dup1\n      swap2\n      sub\n      swap1\n      return\n        /* \"@openzeppelin/contracts/access/Ownable.sol\":2293:2394  function renounceOwnership() public virtual onlyOwner {... */\n    tag_9:\n      tag_48\n      tag_49\n      jump\t// in\n    tag_48:\n      stop\n        /* \"@openzeppelin/contracts/access/Ownable.sol\":1638:1723  function owner() public view virtual returns (address) {... */\n    tag_10:\n      tag_50\n      tag_51\n      jump\t// in\n    tag_50:\n      mload(0x40)\n      tag_52\n      swap2\n      swap1\n      tag_53\n      jump\t// in\n    tag_52:\n      mload(0x40)\n      dup1\n      swap2\n      sub\n      swap1\n      return\n        /* \"@openzeppelin/contracts/token/ERC20/ERC20.sol\":1962:2055  function symbol() public view virtual returns (string memory) {... */\n    tag_11:\n      tag_54\n      tag_55\n      jump\t// in\n    tag_54:\n      mload(0x40)\n      tag_56\n      swap2\n      swap1\n      tag_23\n      jump\t// in\n    tag_56:\n      mload(0x40)\n      dup1\n      swap2\n      sub\n      swap1\n      return\n        /* \"OpenzepplineToken/RewardToken.sol\":637:1045  function mintReward(address to,uint256 amount) public {... */\n    tag_12:\n      tag_57\n      0x04\n      dup1\n      calldatasize\n      sub\n      dup2\n      add\n      swap1\n      tag_58\n      swap2\n      swap1\n      tag_26\n      jump\t// in\n    tag_58:\n      tag_59\n      jump\t// in\n    tag_57:\n      stop\n        /* \"OpenzepplineToken/RewardToken.sol\":477:629  function mint(uint256 amount) public onlyOwner{... */\n    tag_13:\n      tag_60\n      0x04\n      dup1\n      calldatasize\n      sub\n      dup2\n      add\n      swap1\n      tag_61\n      swap2\n      swap1\n      tag_62\n      jump\t// in\n    tag_61:\n      tag_63\n      jump\t// in\n    tag_60:\n      stop\n        /* \"@openzeppelin/contracts/token/ERC20/ERC20.sol\":3296:3474  function transfer(address to, uint256 value) public virtual returns (bool) {... */\n    tag_14:\n      tag_64\n      0x04\n      dup1\n      calldatasize\n      sub\n      dup2\n      add\n      swap1\n      tag_65\n      swap2\n      swap1\n      tag_26\n      jump\t// in\n    tag_65:\n      tag_66\n      jump\t// in\n    tag_64:\n      mload(0x40)\n      tag_67\n      swap2\n      swap1\n      tag_29\n      jump\t// in\n    tag_67:\n      mload(0x40)\n      dup1\n      swap2\n      sub\n      swap1\n      return\n        /* \"@openzeppelin/contracts/token/ERC20/ERC20.sol\":3532:3672  function allowance(address owner, address spender) public view virtual returns (uint256) {... */\n    tag_15:\n      tag_68\n      0x04\n      dup1\n      calldatasize\n      sub\n      dup2\n      add\n      swap1\n      tag_69\n      swap2\n      swap1\n      tag_70\n      jump\t// in\n    tag_69:\n      tag_71\n      jump\t// in\n    tag_68:\n      mload(0x40)\n      tag_72\n      swap2\n      swap1\n      tag_33\n      jump\t// in\n    tag_72:\n      mload(0x40)\n      dup1\n      swap2\n      sub\n      swap1\n      return\n        /* \"@openzeppelin/contracts/access/Ownable.sol\":2543:2758  function transferOwnership(address newOwner) public virtual onlyOwner {... */\n    tag_16:\n      tag_73\n      0x04\n      dup1\n      calldatasize\n      sub\n      dup2\n      add\n      swap1\n      tag_74\n      swap2\n      swap1\n      tag_45\n      jump\t// in\n    tag_74:\n      tag_75\n      jump\t// in\n    tag_73:\n      stop\n        /* \"@openzeppelin/contracts/token/ERC20/ERC20.sol\":1760:1849  function name() public view virtual returns (string memory) {... */\n    tag_21:\n        /* \"@openzeppelin/contracts/token/ERC20/ERC20.sol\":1805:1818  string memory */\n      0x60\n        /* \"@openzeppelin/contracts/token/ERC20/ERC20.sol\":1837:1842  _name */\n      0x03\n        /* \"@openzeppelin/contracts/token/ERC20/ERC20.sol\":1830:1842  return _name */\n      dup1\n      sload\n      tag_77\n      swap1\n      tag_78\n      jump\t// in\n    tag_77:\n      dup1\n      0x1f\n      add\n      0x20\n      dup1\n      swap2\n      div\n      mul\n      0x20\n      add\n      mload(0x40)\n      swap1\n      dup2\n      add\n      0x40\n      mstore\n      dup1\n      swap3\n      swap2\n      swap1\n      dup2\n      dup2\n      mstore\n      0x20\n      add\n      dup3\n      dup1\n      sload\n      tag_79\n      swap1\n      tag_78\n      jump\t// in\n    tag_79:\n      dup1\n      iszero\n      tag_80\n      jumpi\n      dup1\n      0x1f\n      lt\n      tag_81\n      jumpi\n      0x0100\n      dup1\n      dup4\n      sload\n      div\n      mul\n      dup4\n      mstore\n      swap2\n      0x20\n      add\n      swap2\n      jump(tag_80)\n    tag_81:\n      dup3\n      add\n      swap2\n      swap1\n      0x00\n      mstore\n      keccak256(0x00, 0x20)\n      swap1\n    tag_82:\n      dup2\n      sload\n      dup2\n      mstore\n      swap1\n      0x01\n      add\n      swap1\n      0x20\n      add\n      dup1\n      dup4\n      gt\n      tag_82\n      jumpi\n      dup3\n      swap1\n      sub\n      0x1f\n      and\n      dup3\n      add\n      swap2\n    tag_80:\n      pop\n      pop\n      pop\n      pop\n      pop\n      swap1\n      pop\n        /* \"@openzeppelin/contracts/token/ERC20/ERC20.sol\":1760:1849  function name() public view virtual returns (string memory) {... */\n      swap1\n      jump\t// out\n        /* \"@openzeppelin/contracts/token/ERC20/ERC20.sol\":3979:4165  function approve(address spender, uint256 value) public virtual returns (bool) {... */\n    tag_27:\n        /* \"@openzeppelin/contracts/token/ERC20/ERC20.sol\":4052:4056  bool */\n      0x00\n        /* \"@openzeppelin/contracts/token/ERC20/ERC20.sol\":4068:4081  address owner */\n      dup1\n        /* \"@openzeppelin/contracts/token/ERC20/ERC20.sol\":4084:4096  _msgSender() */\n      tag_84\n        /* \"@openzeppelin/contracts/token/ERC20/ERC20.sol\":4084:4094  _msgSender */\n      tag_85\n        /* \"@openzeppelin/contracts/token/ERC20/ERC20.sol\":4084:4096  _msgSender() */\n      jump\t// in\n    tag_84:\n        /* \"@openzeppelin/contracts/token/ERC20/ERC20.sol\":4068:4096  address owner = _msgSender() */\n      swap1\n      pop\n        /* \"@openzeppelin/contracts/token/ERC20/ERC20.sol\":4106:4137  _approve(owner, spender, value) */\n      tag_86\n        /* \"@openzeppelin/contracts/token/ERC20/ERC20.sol\":4115:4120  owner */\n      dup2\n        /* \"@openzeppelin/contracts/token/ERC20/ERC20.sol\":4122:4129  spender */\n      dup6\n        /* \"@openzeppelin/contracts/token/ERC20/ERC20.sol\":4131:4136  value */\n      dup6\n        /* \"@openzeppelin/contracts/token/ERC20/ERC20.sol\":4106:4114  _approve */\n      tag_87\n        /* \"@openzeppelin/contracts/token/ERC20/ERC20.sol\":4106:4137  _approve(owner, spender, value) */\n      jump\t// in\n    tag_86:\n        /* \"@openzeppelin/contracts/token/ERC20/ERC20.sol\":4154:4158  true */\n      0x01\n        /* \"@openzeppelin/contracts/token/ERC20/ERC20.sol\":4147:4158  return true */\n      swap2\n      pop\n      pop\n        /* \"@openzeppelin/contracts/token/ERC20/ERC20.sol\":3979:4165  function approve(address spender, uint256 value) public virtual returns (bool) {... */\n      swap3\n      swap2\n      pop\n      pop\n      jump\t// out\n        /* \"@openzeppelin/contracts/token/ERC20/ERC20.sol\":2830:2927  function totalSupply() public view virtual returns (uint256) {... */\n    tag_31:\n        /* \"@openzeppelin/contracts/token/ERC20/ERC20.sol\":2882:2889  uint256 */\n      0x00\n        /* \"@openzeppelin/contracts/token/ERC20/ERC20.sol\":2908:2920  _totalSupply */\n      sload(0x02)\n        /* \"@openzeppelin/contracts/token/ERC20/ERC20.sol\":2901:2920  return _totalSupply */\n      swap1\n      pop\n        /* \"@openzeppelin/contracts/token/ERC20/ERC20.sol\":2830:2927  function totalSupply() public view virtual returns (uint256) {... */\n      swap1\n      jump\t// out\n        /* \"@openzeppelin/contracts/token/ERC20/ERC20.sol\":4757:5001  function transferFrom(address from, address to, uint256 value) public virtual returns (bool) {... */\n    tag_37:\n        /* \"@openzeppelin/contracts/token/ERC20/ERC20.sol\":4844:4848  bool */\n      0x00\n        /* \"@openzeppelin/contracts/token/ERC20/ERC20.sol\":4860:4875  address spender */\n      dup1\n        /* \"@openzeppelin/contracts/token/ERC20/ERC20.sol\":4878:4890  _msgSender() */\n      tag_90\n        /* \"@openzeppelin/contracts/token/ERC20/ERC20.sol\":4878:4888  _msgSender */\n      tag_85\n        /* \"@openzeppelin/contracts/token/ERC20/ERC20.sol\":4878:4890  _msgSender() */\n      jump\t// in\n    tag_90:\n        /* \"@openzeppelin/contracts/token/ERC20/ERC20.sol\":4860:4890  address spender = _msgSender() */\n      swap1\n      pop\n        /* \"@openzeppelin/contracts/token/ERC20/ERC20.sol\":4900:4937  _spendAllowance(from, spender, value) */\n      tag_91\n        /* \"@openzeppelin/contracts/token/ERC20/ERC20.sol\":4916:4920  from */\n      dup6\n        /* \"@openzeppelin/contracts/token/ERC20/ERC20.sol\":4922:4929  spender */\n      dup3\n        /* \"@openzeppelin/contracts/token/ERC20/ERC20.sol\":4931:4936  value */\n      dup6\n        /* \"@openzeppelin/contracts/token/ERC20/ERC20.sol\":4900:4915  _spendAllowance */\n      tag_92\n        /* \"@openzeppelin/contracts/token/ERC20/ERC20.sol\":4900:4937  _spendAllowance(from, spender, value) */\n      jump\t// in\n    tag_91:\n        /* \"@openzeppelin/contracts/token/ERC20/ERC20.sol\":4947:4973  _transfer(from, to, value) */\n      tag_93\n        /* \"@openzeppelin/contracts/token/ERC20/ERC20.sol\":4957:4961  from */\n      dup6\n        /* \"@openzeppelin/contracts/token/ERC20/ERC20.sol\":4963:4965  to */\n      dup6\n        /* \"@openzeppelin/contracts/token/ERC20/ERC20.sol\":4967:4972  value */\n      dup6\n        /* \"@openzeppelin/contracts/token/ERC20/ERC20.sol\":4947:4956  _transfer */\n      tag_94\n        /* \"@openzeppelin/contracts/token/ERC20/ERC20.sol\":4947:4973  _transfer(from, to, value) */\n      jump\t// in\n    tag_93:\n        /* \"@openzeppelin/contracts/token/ERC20/ERC20.sol\":4990:4994  true */\n      0x01\n        /* \"@openzeppelin/contracts/token/ERC20/ERC20.sol\":4983:4994  return true */\n      swap2\n      pop\n      pop\n        /* \"@openzeppelin/contracts/token/ERC20/ERC20.sol\":4757:5001  function transferFrom(address from, address to, uint256 value) public virtual returns (bool) {... */\n      swap4\n      swap3\n      pop\n      pop\n      pop\n      jump\t// out\n        /* \"@openzeppelin/contracts/token/ERC20/ERC20.sol\":2688:2770  function decimals() public view virtual returns (uint8) {... */\n    tag_40:\n        /* \"@openzeppelin/contracts/token/ERC20/ERC20.sol\":2737:2742  uint8 */\n      0x00\n        /* \"@openzeppelin/contracts/token/ERC20/ERC20.sol\":2761:2763  18 */\n      0x12\n        /* \"@openzeppelin/contracts/token/ERC20/ERC20.sol\":2754:2763  return 18 */\n      swap1\n      pop\n        /* \"@openzeppelin/contracts/token/ERC20/ERC20.sol\":2688:2770  function decimals() public view virtual returns (uint8) {... */\n      swap1\n      jump\t// out\n        /* \"@openzeppelin/contracts/token/ERC20/ERC20.sol\":2985:3101  function balanceOf(address account) public view virtual returns (uint256) {... */\n    tag_46:\n        /* \"@openzeppelin/contracts/token/ERC20/ERC20.sol\":3050:3057  uint256 */\n      0x00\n        /* \"@openzeppelin/contracts/token/ERC20/ERC20.sol\":3076:3085  _balances */\n      dup1\n        /* \"@openzeppelin/contracts/token/ERC20/ERC20.sol\":3076:3094  _balances[account] */\n      0x00\n        /* \"@openzeppelin/contracts/token/ERC20/ERC20.sol\":3086:3093  account */\n      dup4\n        /* \"@openzeppelin/contracts/token/ERC20/ERC20.sol\":3076:3094  _balances[account] */\n      0xffffffffffffffffffffffffffffffffffffffff\n      and\n      0xffffffffffffffffffffffffffffffffffffffff\n      and\n      dup2\n      mstore\n      0x20\n      add\n      swap1\n      dup2\n      mstore\n      0x20\n      add\n      0x00\n      keccak256\n      sload\n        /* \"@openzeppelin/contracts/token/ERC20/ERC20.sol\":3069:3094  return _balances[account] */\n      swap1\n      pop\n        /* \"@openzeppelin/contracts/token/ERC20/ERC20.sol\":2985:3101  function balanceOf(address account) public view virtual returns (uint256) {... */\n      swap2\n      swap1\n      pop\n      jump\t// out\n        /* \"@openzeppelin/contracts/access/Ownable.sol\":2293:2394  function renounceOwnership() public virtual onlyOwner {... */\n    tag_49:\n        /* \"@openzeppelin/contracts/access/Ownable.sol\":1531:1544  _checkOwner() */\n      tag_98\n        /* \"@openzeppelin/contracts/access/Ownable.sol\":1531:1542  _checkOwner */\n      tag_99\n        /* \"@openzeppelin/contracts/access/Ownable.sol\":1531:1544  _checkOwner() */\n      jump\t// in\n    tag_98:\n        /* \"@openzeppelin/contracts/access/Ownable.sol\":2357:2387  _transferOwnership(address(0)) */\n      tag_101\n        /* \"@openzeppelin/contracts/access/Ownable.sol\":2384:2385  0 */\n      0x00\n        /* \"@openzeppelin/contracts/access/Ownable.sol\":2357:2375  _transferOwnership */\n      tag_102\n        /* \"@openzeppelin/contracts/access/Ownable.sol\":2357:2387  _transferOwnership(address(0)) */\n      jump\t// in\n    tag_101:\n        /* \"@openzeppelin/contracts/access/Ownable.sol\":2293:2394  function renounceOwnership() public virtual onlyOwner {... */\n      jump\t// out\n        /* \"@openzeppelin/contracts/access/Ownable.sol\":1638:1723  function owner() public view virtual returns (address) {... */\n    tag_51:\n        /* \"@openzeppelin/contracts/access/Ownable.sol\":1684:1691  address */\n      0x00\n        /* \"@openzeppelin/contracts/access/Ownable.sol\":1710:1716  _owner */\n      0x05\n      0x00\n      swap1\n      sload\n      swap1\n      0x0100\n      exp\n      swap1\n      div\n      0xffffffffffffffffffffffffffffffffffffffff\n      and\n        /* \"@openzeppelin/contracts/access/Ownable.sol\":1703:1716  return _owner */\n      swap1\n      pop\n        /* \"@openzeppelin/contracts/access/Ownable.sol\":1638:1723  function owner() public view virtual returns (address) {... */\n      swap1\n      jump\t// out\n        /* \"@openzeppelin/contracts/token/ERC20/ERC20.sol\":1962:2055  function symbol() public view virtual returns (string memory) {... */\n    tag_55:\n        /* \"@openzeppelin/contracts/token/ERC20/ERC20.sol\":2009:2022  string memory */\n      0x60\n        /* \"@openzeppelin/contracts/token/ERC20/ERC20.sol\":2041:2048  _symbol */\n      0x04\n        /* \"@openzeppelin/contracts/token/ERC20/ERC20.sol\":2034:2048  return _symbol */\n      dup1\n      sload\n      tag_105\n      swap1\n      tag_78\n      jump\t// in\n    tag_105:\n      dup1\n      0x1f\n      add\n      0x20\n      dup1\n      swap2\n      div\n      mul\n      0x20\n      add\n      mload(0x40)\n      swap1\n      dup2\n      add\n      0x40\n      mstore\n      dup1\n      swap3\n      swap2\n      swap1\n      dup2\n      dup2\n      mstore\n      0x20\n      add\n      dup3\n      dup1\n      sload\n      tag_106\n      swap1\n      tag_78\n      jump\t// in\n    tag_106:\n      dup1\n      iszero\n      tag_107\n      jumpi\n      dup1\n      0x1f\n      lt\n      tag_108\n      jumpi\n      0x0100\n      dup1\n      dup4\n      sload\n      div\n      mul\n      dup4\n      mstore\n      swap2\n      0x20\n      add\n      swap2\n      jump(tag_107)\n    tag_108:\n      dup3\n      add\n      swap2\n      swap1\n      0x00\n      mstore\n      keccak256(0x00, 0x20)\n      swap1\n    tag_109:\n      dup2\n      sload\n      dup2\n      mstore\n      swap1\n      0x01\n      add\n      swap1\n      0x20\n      add\n      dup1\n      dup4\n      gt\n      tag_109\n      jumpi\n      dup3\n      swap1\n      sub\n      0x1f\n      and\n      dup3\n      add\n      swap2\n    tag_107:\n      pop\n      pop\n      pop\n      pop\n      pop\n      swap1\n      pop\n        /* \"@openzeppelin/contracts/token/ERC20/ERC20.sol\":1962:2055  function symbol() public view virtual returns (string memory) {... */\n      swap1\n      jump\t// out\n        /* \"OpenzepplineToken/RewardToken.sol\":637:1045  function mintReward(address to,uint256 amount) public {... */\n    tag_59:\n        /* \"OpenzepplineToken/RewardToken.sol\":730:745  block.timestamp */\n      timestamp\n        /* \"OpenzepplineToken/RewardToken.sol\":724:726  60 */\n      0x3c\n        /* \"OpenzepplineToken/RewardToken.sol\":710:721  currentTime */\n      sload(0x06)\n        /* \"OpenzepplineToken/RewardToken.sol\":710:726  currentTime + 60 */\n      tag_111\n      swap2\n      swap1\n      tag_112\n      jump\t// in\n    tag_111:\n        /* \"OpenzepplineToken/RewardToken.sol\":710:745  currentTime + 60 <= block.timestamp */\n      gt\n      iszero\n        /* \"OpenzepplineToken/RewardToken.sol\":702:776  require(currentTime + 60 <= block.timestamp,\"wait 1 minute for each mint\") */\n      tag_113\n      jumpi\n      mload(0x40)\n      0x08c379a000000000000000000000000000000000000000000000000000000000\n      dup2\n      mstore\n      0x04\n      add\n      tag_114\n      swap1\n      tag_115\n      jump\t// in\n    tag_114:\n      mload(0x40)\n      dup1\n      swap2\n      sub\n      swap1\n      revert\n    tag_113:\n        /* \"OpenzepplineToken/RewardToken.sol\":836:846  decimals() */\n      tag_116\n        /* \"OpenzepplineToken/RewardToken.sol\":836:844  decimals */\n      tag_40\n        /* \"OpenzepplineToken/RewardToken.sol\":836:846  decimals() */\n      jump\t// in\n    tag_116:\n        /* \"OpenzepplineToken/RewardToken.sol\":830:832  10 */\n      0x0a\n        /* \"OpenzepplineToken/RewardToken.sol\":830:846  10 ** decimals() */\n      tag_117\n      swap2\n      swap1\n      tag_118\n      jump\t// in\n    tag_117:\n        /* \"OpenzepplineToken/RewardToken.sol\":824:827  100 */\n      0x64\n        /* \"OpenzepplineToken/RewardToken.sol\":824:846  100 * 10 ** decimals() */\n      tag_119\n      swap2\n      swap1\n      tag_120\n      jump\t// in\n    tag_119:\n        /* \"OpenzepplineToken/RewardToken.sol\":810:820  decimals() */\n      tag_121\n        /* \"OpenzepplineToken/RewardToken.sol\":810:818  decimals */\n      tag_40\n        /* \"OpenzepplineToken/RewardToken.sol\":810:820  decimals() */\n      jump\t// in\n    tag_121:\n        /* \"OpenzepplineToken/RewardToken.sol\":804:806  10 */\n      0x0a\n        /* \"OpenzepplineToken/RewardToken.sol\":804:820  10 ** decimals() */\n      tag_122\n      swap2\n      swap1\n      tag_118\n      jump\t// in\n    tag_122:\n        /* \"OpenzepplineToken/RewardToken.sol\":795:801  amount */\n      dup3\n        /* \"OpenzepplineToken/RewardToken.sol\":795:820  amount * 10 ** decimals() */\n      tag_123\n      swap2\n      swap1\n      tag_120\n      jump\t// in\n    tag_123:\n        /* \"OpenzepplineToken/RewardToken.sol\":795:846  amount * 10 ** decimals() <= 100 * 10 ** decimals() */\n      gt\n      iszero\n        /* \"OpenzepplineToken/RewardToken.sol\":787:876  require(amount * 10 ** decimals() <= 100 * 10 ** decimals(),\"Maximum mint amount is 100\") */\n      tag_124\n      jumpi\n      mload(0x40)\n      0x08c379a000000000000000000000000000000000000000000000000000000000\n      dup2\n      mstore\n      0x04\n      add\n      tag_125\n      swap1\n      tag_126\n      jump\t// in\n    tag_125:\n      mload(0x40)\n      dup1\n      swap2\n      sub\n      swap1\n      revert\n    tag_124:\n        /* \"OpenzepplineToken/RewardToken.sol\":935:945  decimals() */\n      tag_127\n        /* \"OpenzepplineToken/RewardToken.sol\":935:943  decimals */\n      tag_40\n        /* \"OpenzepplineToken/RewardToken.sol\":935:945  decimals() */\n      jump\t// in\n    tag_127:\n        /* \"OpenzepplineToken/RewardToken.sol\":929:931  10 */\n      0x0a\n        /* \"OpenzepplineToken/RewardToken.sol\":929:945  10 ** decimals() */\n      tag_128\n      swap2\n      swap1\n      tag_118\n      jump\t// in\n    tag_128:\n        /* \"OpenzepplineToken/RewardToken.sol\":919:926  1000000 */\n      0x0f4240\n        /* \"OpenzepplineToken/RewardToken.sol\":919:945  1000000  *10 ** decimals() */\n      tag_129\n      swap2\n      swap1\n      tag_120\n      jump\t// in\n    tag_129:\n        /* \"OpenzepplineToken/RewardToken.sol\":909:915  amount */\n      dup2\n        /* \"OpenzepplineToken/RewardToken.sol\":895:908  totalSupply() */\n      tag_130\n        /* \"OpenzepplineToken/RewardToken.sol\":895:906  totalSupply */\n      tag_31\n        /* \"OpenzepplineToken/RewardToken.sol\":895:908  totalSupply() */\n      jump\t// in\n    tag_130:\n        /* \"OpenzepplineToken/RewardToken.sol\":895:915  totalSupply()+amount */\n      tag_131\n      swap2\n      swap1\n      tag_112\n      jump\t// in\n    tag_131:\n        /* \"OpenzepplineToken/RewardToken.sol\":895:945  totalSupply()+amount <= 1000000  *10 ** decimals() */\n      gt\n      iszero\n        /* \"OpenzepplineToken/RewardToken.sol\":887:967  require(totalSupply()+amount <= 1000000  *10 ** decimals(),\"Totalsupply exceed\") */\n      tag_132\n      jumpi\n      mload(0x40)\n      0x08c379a000000000000000000000000000000000000000000000000000000000\n      dup2\n      mstore\n      0x04\n      add\n      tag_133\n      swap1\n      tag_134\n      jump\t// in\n    tag_133:\n      mload(0x40)\n      dup1\n      swap2\n      sub\n      swap1\n      revert\n    tag_132:\n        /* \"OpenzepplineToken/RewardToken.sol\":980:997  _mint(to, amount) */\n      tag_135\n        /* \"OpenzepplineToken/RewardToken.sol\":986:988  to */\n      dup3\n        /* \"OpenzepplineToken/RewardToken.sol\":990:996  amount */\n      dup3\n        /* \"OpenzepplineToken/RewardToken.sol\":980:985  _mint */\n      tag_136\n        /* \"OpenzepplineToken/RewardToken.sol\":980:997  _mint(to, amount) */\n      jump\t// in\n    tag_135:\n        /* \"OpenzepplineToken/RewardToken.sol\":1022:1037  block.timestamp */\n      timestamp\n        /* \"OpenzepplineToken/RewardToken.sol\":1008:1019  currentTime */\n      0x06\n        /* \"OpenzepplineToken/RewardToken.sol\":1008:1037  currentTime = block.timestamp */\n      dup2\n      swap1\n      sstore\n      pop\n        /* \"OpenzepplineToken/RewardToken.sol\":637:1045  function mintReward(address to,uint256 amount) public {... */\n      pop\n      pop\n      jump\t// out\n        /* \"OpenzepplineToken/RewardToken.sol\":477:629  function mint(uint256 amount) public onlyOwner{... */\n    tag_63:\n        /* \"@openzeppelin/contracts/access/Ownable.sol\":1531:1544  _checkOwner() */\n      tag_138\n        /* \"@openzeppelin/contracts/access/Ownable.sol\":1531:1542  _checkOwner */\n      tag_99\n        /* \"@openzeppelin/contracts/access/Ownable.sol\":1531:1544  _checkOwner() */\n      jump\t// in\n    tag_138:\n        /* \"OpenzepplineToken/RewardToken.sol\":552:555  100 */\n      0x64\n        /* \"OpenzepplineToken/RewardToken.sol\":542:548  amount */\n      dup2\n        /* \"OpenzepplineToken/RewardToken.sol\":542:555  amount <= 100 */\n      gt\n      iszero\n        /* \"OpenzepplineToken/RewardToken.sol\":534:585  require(amount <= 100,\"Maximum mint amount is 100\") */\n      tag_140\n      jumpi\n      mload(0x40)\n      0x08c379a000000000000000000000000000000000000000000000000000000000\n      dup2\n      mstore\n      0x04\n      add\n      tag_141\n      swap1\n      tag_126\n      jump\t// in\n    tag_141:\n      mload(0x40)\n      dup1\n      swap2\n      sub\n      swap1\n      revert\n    tag_140:\n        /* \"OpenzepplineToken/RewardToken.sol\":596:621  _mint(msg.sender, amount) */\n      tag_142\n        /* \"OpenzepplineToken/RewardToken.sol\":602:612  msg.sender */\n      caller\n        /* \"OpenzepplineToken/RewardToken.sol\":614:620  amount */\n      dup3\n        /* \"OpenzepplineToken/RewardToken.sol\":596:601  _mint */\n      tag_136\n        /* \"OpenzepplineToken/RewardToken.sol\":596:621  _mint(msg.sender, amount) */\n      jump\t// in\n    tag_142:\n        /* \"OpenzepplineToken/RewardToken.sol\":477:629  function mint(uint256 amount) public onlyOwner{... */\n      pop\n      jump\t// out\n        /* \"@openzeppelin/contracts/token/ERC20/ERC20.sol\":3296:3474  function transfer(address to, uint256 value) public virtual returns (bool) {... */\n    tag_66:\n        /* \"@openzeppelin/contracts/token/ERC20/ERC20.sol\":3365:3369  bool */\n      0x00\n        /* \"@openzeppelin/contracts/token/ERC20/ERC20.sol\":3381:3394  address owner */\n      dup1\n        /* \"@openzeppelin/contracts/token/ERC20/ERC20.sol\":3397:3409  _msgSender() */\n      tag_144\n        /* \"@openzeppelin/contracts/token/ERC20/ERC20.sol\":3397:3407  _msgSender */\n      tag_85\n        /* \"@openzeppelin/contracts/token/ERC20/ERC20.sol\":3397:3409  _msgSender() */\n      jump\t// in\n    tag_144:\n        /* \"@openzeppelin/contracts/token/ERC20/ERC20.sol\":3381:3409  address owner = _msgSender() */\n      swap1\n      pop\n        /* \"@openzeppelin/contracts/token/ERC20/ERC20.sol\":3419:3446  _transfer(owner, to, value) */\n      tag_145\n        /* \"@openzeppelin/contracts/token/ERC20/ERC20.sol\":3429:3434  owner */\n      dup2\n        /* \"@openzeppelin/contracts/token/ERC20/ERC20.sol\":3436:3438  to */\n      dup6\n        /* \"@openzeppelin/contracts/token/ERC20/ERC20.sol\":3440:3445  value */\n      dup6\n        /* \"@openzeppelin/contracts/token/ERC20/ERC20.sol\":3419:3428  _transfer */\n      tag_94\n        /* \"@openzeppelin/contracts/token/ERC20/ERC20.sol\":3419:3446  _transfer(owner, to, value) */\n      jump\t// in\n    tag_145:\n        /* \"@openzeppelin/contracts/token/ERC20/ERC20.sol\":3463:3467  true */\n      0x01\n        /* \"@openzeppelin/contracts/token/ERC20/ERC20.sol\":3456:3467  return true */\n      swap2\n      pop\n      pop\n        /* \"@openzeppelin/contracts/token/ERC20/ERC20.sol\":3296:3474  function transfer(address to, uint256 value) public virtual returns (bool) {... */\n      swap3\n      swap2\n      pop\n      pop\n      jump\t// out\n        /* \"@openzeppelin/contracts/token/ERC20/ERC20.sol\":3532:3672  function allowance(address owner, address spender) public view virtual returns (uint256) {... */\n    tag_71:\n        /* \"@openzeppelin/contracts/token/ERC20/ERC20.sol\":3612:3619  uint256 */\n      0x00\n        /* \"@openzeppelin/contracts/token/ERC20/ERC20.sol\":3638:3649  _allowances */\n      0x01\n        /* \"@openzeppelin/contracts/token/ERC20/ERC20.sol\":3638:3656  _allowances[owner] */\n      0x00\n        /* \"@openzeppelin/contracts/token/ERC20/ERC20.sol\":3650:3655  owner */\n      dup5\n        /* \"@openzeppelin/contracts/token/ERC20/ERC20.sol\":3638:3656  _allowances[owner] */\n      0xffffffffffffffffffffffffffffffffffffffff\n      and\n      0xffffffffffffffffffffffffffffffffffffffff\n      and\n      dup2\n      mstore\n      0x20\n      add\n      swap1\n      dup2\n      mstore\n      0x20\n      add\n      0x00\n      keccak256\n        /* \"@openzeppelin/contracts/token/ERC20/ERC20.sol\":3638:3665  _allowances[owner][spender] */\n      0x00\n        /* \"@openzeppelin/contracts/token/ERC20/ERC20.sol\":3657:3664  spender */\n      dup4\n        /* \"@openzeppelin/contracts/token/ERC20/ERC20.sol\":3638:3665  _allowances[owner][spender] */\n      0xffffffffffffffffffffffffffffffffffffffff\n      and\n      0xffffffffffffffffffffffffffffffffffffffff\n      and\n      dup2\n      mstore\n      0x20\n      add\n      swap1\n      dup2\n      mstore\n      0x20\n      add\n      0x00\n      keccak256\n      sload\n        /* \"@openzeppelin/contracts/token/ERC20/ERC20.sol\":3631:3665  return _allowances[owner][spender] */\n      swap1\n      pop\n        /* \"@openzeppelin/contracts/token/ERC20/ERC20.sol\":3532:3672  function allowance(address owner, address spender) public view virtual returns (uint256) {... */\n      swap3\n      swap2\n      pop\n      pop\n      jump\t// out\n        /* \"@openzeppelin/contracts/access/Ownable.sol\":2543:2758  function transferOwnership(address newOwner) public virtual onlyOwner {... */\n    tag_75:\n        /* \"@openzeppelin/contracts/access/Ownable.sol\":1531:1544  _checkOwner() */\n      tag_148\n        /* \"@openzeppelin/contracts/access/Ownable.sol\":1531:1542  _checkOwner */\n      tag_99\n        /* \"@openzeppelin/contracts/access/Ownable.sol\":1531:1544  _checkOwner() */\n      jump\t// in\n    tag_148:\n        /* \"@openzeppelin/contracts/access/Ownable.sol\":2647:2648  0 */\n      0x00\n        /* \"@openzeppelin/contracts/access/Ownable.sol\":2627:2649  newOwner == address(0) */\n      0xffffffffffffffffffffffffffffffffffffffff\n      and\n        /* \"@openzeppelin/contracts/access/Ownable.sol\":2627:2635  newOwner */\n      dup2\n        /* \"@openzeppelin/contracts/access/Ownable.sol\":2627:2649  newOwner == address(0) */\n      0xffffffffffffffffffffffffffffffffffffffff\n      and\n      sub\n        /* \"@openzeppelin/contracts/access/Ownable.sol\":2623:2714  if (newOwner == address(0)) {... */\n      tag_150\n      jumpi\n        /* \"@openzeppelin/contracts/access/Ownable.sol\":2700:2701  0 */\n      0x00\n        /* \"@openzeppelin/contracts/access/Ownable.sol\":2672:2703  OwnableInvalidOwner(address(0)) */\n      mload(0x40)\n      0x1e4fbdf700000000000000000000000000000000000000000000000000000000\n      dup2\n      mstore\n      0x04\n      add\n      tag_151\n      swap2\n      swap1\n      tag_53\n      jump\t// in\n    tag_151:\n      mload(0x40)\n      dup1\n      swap2\n      sub\n      swap1\n      revert\n        /* \"@openzeppelin/contracts/access/Ownable.sol\":2623:2714  if (newOwner == address(0)) {... */\n    tag_150:\n        /* \"@openzeppelin/contracts/access/Ownable.sol\":2723:2751  _transferOwnership(newOwner) */\n      tag_152\n        /* \"@openzeppelin/contracts/access/Ownable.sol\":2742:2750  newOwner */\n      dup2\n        /* \"@openzeppelin/contracts/access/Ownable.sol\":2723:2741  _transferOwnership */\n      tag_102\n        /* \"@openzeppelin/contracts/access/Ownable.sol\":2723:2751  _transferOwnership(newOwner) */\n      jump\t// in\n    tag_152:\n        /* \"@openzeppelin/contracts/access/Ownable.sol\":2543:2758  function transferOwnership(address newOwner) public virtual onlyOwner {... */\n      pop\n      jump\t// out\n        /* \"@openzeppelin/contracts/utils/Context.sol\":656:752  function _msgSender() internal view virtual returns (address) {... */\n    tag_85:\n        /* \"@openzeppelin/contracts/utils/Context.sol\":709:716  address */\n      0x00\n        /* \"@openzeppelin/contracts/utils/Context.sol\":735:745  msg.sender */\n      caller\n        /* \"@openzeppelin/contracts/utils/Context.sol\":728:745  return msg.sender */\n      swap1\n      pop\n        /* \"@openzeppelin/contracts/utils/Context.sol\":656:752  function _msgSender() internal view virtual returns (address) {... */\n      swap1\n      jump\t// out\n        /* \"@openzeppelin/contracts/token/ERC20/ERC20.sol\":8707:8835  function _approve(address owner, address spender, uint256 value) internal {... */\n    tag_87:\n        /* \"@openzeppelin/contracts/token/ERC20/ERC20.sol\":8791:8828  _approve(owner, spender, value, true) */\n      tag_155\n        /* \"@openzeppelin/contracts/token/ERC20/ERC20.sol\":8800:8805  owner */\n      dup4\n        /* \"@openzeppelin/contracts/token/ERC20/ERC20.sol\":8807:8814  spender */\n      dup4\n        /* \"@openzeppelin/contracts/token/ERC20/ERC20.sol\":8816:8821  value */\n      dup4\n        /* \"@openzeppelin/contracts/token/ERC20/ERC20.sol\":8823:8827  true */\n      0x01\n        /* \"@openzeppelin/contracts/token/ERC20/ERC20.sol\":8791:8799  _approve */\n      tag_156\n        /* \"@openzeppelin/contracts/token/ERC20/ERC20.sol\":8791:8828  _approve(owner, spender, value, true) */\n      jump\t// in\n    tag_155:\n        /* \"@openzeppelin/contracts/token/ERC20/ERC20.sol\":8707:8835  function _approve(address owner, address spender, uint256 value) internal {... */\n      pop\n      pop\n      pop\n      jump\t// out\n        /* \"@openzeppelin/contracts/token/ERC20/ERC20.sol\":10396:10872  function _spendAllowance(address owner, address spender, uint256 value) internal virtual {... */\n    tag_92:\n        /* \"@openzeppelin/contracts/token/ERC20/ERC20.sol\":10495:10519  uint256 currentAllowance */\n      0x00\n        /* \"@openzeppelin/contracts/token/ERC20/ERC20.sol\":10522:10547  allowance(owner, spender) */\n      tag_158\n        /* \"@openzeppelin/contracts/token/ERC20/ERC20.sol\":10532:10537  owner */\n      dup5\n        /* \"@openzeppelin/contracts/token/ERC20/ERC20.sol\":10539:10546  spender */\n      dup5\n        /* \"@openzeppelin/contracts/token/ERC20/ERC20.sol\":10522:10531  allowance */\n      tag_71\n        /* \"@openzeppelin/contracts/token/ERC20/ERC20.sol\":10522:10547  allowance(owner, spender) */\n      jump\t// in\n    tag_158:\n        /* \"@openzeppelin/contracts/token/ERC20/ERC20.sol\":10495:10547  uint256 currentAllowance = allowance(owner, spender) */\n      swap1\n      pop\n        /* \"@openzeppelin/contracts/token/ERC20/ERC20.sol\":10580:10597  type(uint256).max */\n      0xffffffffffffffffffffffffffffffffffffffffffffffffffffffffffffffff\n        /* \"@openzeppelin/contracts/token/ERC20/ERC20.sol\":10561:10577  currentAllowance */\n      dup2\n        /* \"@openzeppelin/contracts/token/ERC20/ERC20.sol\":10561:10597  currentAllowance < type(uint256).max */\n      lt\n        /* \"@openzeppelin/contracts/token/ERC20/ERC20.sol\":10557:10866  if (currentAllowance < type(uint256).max) {... */\n      iszero\n      tag_159\n      jumpi\n        /* \"@openzeppelin/contracts/token/ERC20/ERC20.sol\":10636:10641  value */\n      dup2\n        /* \"@openzeppelin/contracts/token/ERC20/ERC20.sol\":10617:10633  currentAllowance */\n      dup2\n        /* \"@openzeppelin/contracts/token/ERC20/ERC20.sol\":10617:10641  currentAllowance < value */\n      lt\n        /* \"@openzeppelin/contracts/token/ERC20/ERC20.sol\":10613:10743  if (currentAllowance < value) {... */\n      iszero\n      tag_160\n      jumpi\n        /* \"@openzeppelin/contracts/token/ERC20/ERC20.sol\":10695:10702  spender */\n      dup3\n        /* \"@openzeppelin/contracts/token/ERC20/ERC20.sol\":10704:10720  currentAllowance */\n      dup2\n        /* \"@openzeppelin/contracts/token/ERC20/ERC20.sol\":10722:10727  value */\n      dup4\n        /* \"@openzeppelin/contracts/token/ERC20/ERC20.sol\":10668:10728  ERC20InsufficientAllowance(spender, currentAllowance, value) */\n      mload(0x40)\n      0xfb8f41b200000000000000000000000000000000000000000000000000000000\n      dup2\n      mstore\n      0x04\n      add\n      tag_161\n      swap4\n      swap3\n      swap2\n      swap1\n      tag_162\n      jump\t// in\n    tag_161:\n      mload(0x40)\n      dup1\n      swap2\n      sub\n      swap1\n      revert\n        /* \"@openzeppelin/contracts/token/ERC20/ERC20.sol\":10613:10743  if (currentAllowance < value) {... */\n    tag_160:\n        /* \"@openzeppelin/contracts/token/ERC20/ERC20.sol\":10784:10841  _approve(owner, spender, currentAllowance - value, false) */\n      tag_163\n        /* \"@openzeppelin/contracts/token/ERC20/ERC20.sol\":10793:10798  owner */\n      dup5\n        /* \"@openzeppelin/contracts/token/ERC20/ERC20.sol\":10800:10807  spender */\n      dup5\n        /* \"@openzeppelin/contracts/token/ERC20/ERC20.sol\":10828:10833  value */\n      dup5\n        /* \"@openzeppelin/contracts/token/ERC20/ERC20.sol\":10809:10825  currentAllowance */\n      dup5\n        /* \"@openzeppelin/contracts/token/ERC20/ERC20.sol\":10809:10833  currentAllowance - value */\n      sub\n        /* \"@openzeppelin/contracts/token/ERC20/ERC20.sol\":10835:10840  false */\n      0x00\n        /* \"@openzeppelin/contracts/token/ERC20/ERC20.sol\":10784:10792  _approve */\n      tag_156\n        /* \"@openzeppelin/contracts/token/ERC20/ERC20.sol\":10784:10841  _approve(owner, spender, currentAllowance - value, false) */\n      jump\t// in\n    tag_163:\n        /* \"@openzeppelin/contracts/token/ERC20/ERC20.sol\":10557:10866  if (currentAllowance < type(uint256).max) {... */\n    tag_159:\n        /* \"@openzeppelin/contracts/token/ERC20/ERC20.sol\":10485:10872  {... */\n      pop\n        /* \"@openzeppelin/contracts/token/ERC20/ERC20.sol\":10396:10872  function _spendAllowance(address owner, address spender, uint256 value) internal virtual {... */\n      pop\n      pop\n      pop\n      jump\t// out\n        /* \"@openzeppelin/contracts/token/ERC20/ERC20.sol\":5374:5674  function _transfer(address from, address to, uint256 value) internal {... */\n    tag_94:\n        /* \"@openzeppelin/contracts/token/ERC20/ERC20.sol\":5473:5474  0 */\n      0x00\n        /* \"@openzeppelin/contracts/token/ERC20/ERC20.sol\":5457:5475  from == address(0) */\n      0xffffffffffffffffffffffffffffffffffffffff\n      and\n        /* \"@openzeppelin/contracts/token/ERC20/ERC20.sol\":5457:5461  from */\n      dup4\n        /* \"@openzeppelin/contracts/token/ERC20/ERC20.sol\":5457:5475  from == address(0) */\n      0xffffffffffffffffffffffffffffffffffffffff\n      and\n      sub\n        /* \"@openzeppelin/contracts/token/ERC20/ERC20.sol\":5453:5539  if (from == address(0)) {... */\n      tag_165\n      jumpi\n        /* \"@openzeppelin/contracts/token/ERC20/ERC20.sol\":5525:5526  0 */\n      0x00\n        /* \"@openzeppelin/contracts/token/ERC20/ERC20.sol\":5498:5528  ERC20InvalidSender(address(0)) */\n      mload(0x40)\n      0x96c6fd1e00000000000000000000000000000000000000000000000000000000\n      dup2\n      mstore\n      0x04\n      add\n      tag_166\n      swap2\n      swap1\n      tag_53\n      jump\t// in\n    tag_166:\n      mload(0x40)\n      dup1\n      swap2\n      sub\n      swap1\n      revert\n        /* \"@openzeppelin/contracts/token/ERC20/ERC20.sol\":5453:5539  if (from == address(0)) {... */\n    tag_165:\n        /* \"@openzeppelin/contracts/token/ERC20/ERC20.sol\":5566:5567  0 */\n      0x00\n        /* \"@openzeppelin/contracts/token/ERC20/ERC20.sol\":5552:5568  to == address(0) */\n      0xffffffffffffffffffffffffffffffffffffffff\n      and\n        /* \"@openzeppelin/contracts/token/ERC20/ERC20.sol\":5552:5554  to */\n      dup3\n        /* \"@openzeppelin/contracts/token/ERC20/ERC20.sol\":5552:5568  to == address(0) */\n      0xffffffffffffffffffffffffffffffffffffffff\n      and\n      sub\n        /* \"@openzeppelin/contracts/token/ERC20/ERC20.sol\":5548:5634  if (to == address(0)) {... */\n      tag_167\n      jumpi\n        /* \"@openzeppelin/contracts/token/ERC20/ERC20.sol\":5620:5621  0 */\n      0x00\n        /* \"@openzeppelin/contracts/token/ERC20/ERC20.sol\":5591:5623  ERC20InvalidReceiver(address(0)) */\n      mload(0x40)\n      0xec442f0500000000000000000000000000000000000000000000000000000000\n      dup2\n      mstore\n      0x04\n      add\n      tag_168\n      swap2\n      swap1\n      tag_53\n      jump\t// in\n    tag_168:\n      mload(0x40)\n      dup1\n      swap2\n      sub\n      swap1\n      revert\n        /* \"@openzeppelin/contracts/token/ERC20/ERC20.sol\":5548:5634  if (to == address(0)) {... */\n    tag_167:\n        /* \"@openzeppelin/contracts/token/ERC20/ERC20.sol\":5643:5667  _update(from, to, value) */\n      tag_169\n        /* \"@openzeppelin/contracts/token/ERC20/ERC20.sol\":5651:5655  from */\n      dup4\n        /* \"@openzeppelin/contracts/token/ERC20/ERC20.sol\":5657:5659  to */\n      dup4\n        /* \"@openzeppelin/contracts/token/ERC20/ERC20.sol\":5661:5666  value */\n      dup4\n        /* \"@openzeppelin/contracts/token/ERC20/ERC20.sol\":5643:5650  _update */\n      tag_170\n        /* \"@openzeppelin/contracts/token/ERC20/ERC20.sol\":5643:5667  _update(from, to, value) */\n      jump\t// in\n    tag_169:\n        /* \"@openzeppelin/contracts/token/ERC20/ERC20.sol\":5374:5674  function _transfer(address from, address to, uint256 value) internal {... */\n      pop\n      pop\n      pop\n      jump\t// out\n        /* \"@openzeppelin/contracts/access/Ownable.sol\":1796:1958  function _checkOwner() internal view virtual {... */\n    tag_99:\n        /* \"@openzeppelin/contracts/access/Ownable.sol\":1866:1878  _msgSender() */\n      tag_172\n        /* \"@openzeppelin/contracts/access/Ownable.sol\":1866:1876  _msgSender */\n      tag_85\n        /* \"@openzeppelin/contracts/access/Ownable.sol\":1866:1878  _msgSender() */\n      jump\t// in\n    tag_172:\n        /* \"@openzeppelin/contracts/access/Ownable.sol\":1855:1878  owner() != _msgSender() */\n      0xffffffffffffffffffffffffffffffffffffffff\n      and\n        /* \"@openzeppelin/contracts/access/Ownable.sol\":1855:1862  owner() */\n      tag_173\n        /* \"@openzeppelin/contracts/access/Ownable.sol\":1855:1860  owner */\n      tag_51\n        /* \"@openzeppelin/contracts/access/Ownable.sol\":1855:1862  owner() */\n      jump\t// in\n    tag_173:\n        /* \"@openzeppelin/contracts/access/Ownable.sol\":1855:1878  owner() != _msgSender() */\n      0xffffffffffffffffffffffffffffffffffffffff\n      and\n      eq\n        /* \"@openzeppelin/contracts/access/Ownable.sol\":1851:1952  if (owner() != _msgSender()) {... */\n      tag_174\n      jumpi\n        /* \"@openzeppelin/contracts/access/Ownable.sol\":1928:1940  _msgSender() */\n      tag_175\n        /* \"@openzeppelin/contracts/access/Ownable.sol\":1928:1938  _msgSender */\n      tag_85\n        /* \"@openzeppelin/contracts/access/Ownable.sol\":1928:1940  _msgSender() */\n      jump\t// in\n    tag_175:\n        /* \"@openzeppelin/contracts/access/Ownable.sol\":1901:1941  OwnableUnauthorizedAccount(_msgSender()) */\n      mload(0x40)\n      0x118cdaa700000000000000000000000000000000000000000000000000000000\n      dup2\n      mstore\n      0x04\n      add\n      tag_176\n      swap2\n      swap1\n      tag_53\n      jump\t// in\n    tag_176:\n      mload(0x40)\n      dup1\n      swap2\n      sub\n      swap1\n      revert\n        /* \"@openzeppelin/contracts/access/Ownable.sol\":1851:1952  if (owner() != _msgSender()) {... */\n    tag_174:\n        /* \"@openzeppelin/contracts/access/Ownable.sol\":1796:1958  function _checkOwner() internal view virtual {... */\n      jump\t// out\n        /* \"@openzeppelin/contracts/access/Ownable.sol\":2912:3099  function _transferOwnership(address newOwner) internal virtual {... */\n    tag_102:\n        /* \"@openzeppelin/contracts/access/Ownable.sol\":2985:3001  address oldOwner */\n      0x00\n        /* \"@openzeppelin/contracts/access/Ownable.sol\":3004:3010  _owner */\n      0x05\n      0x00\n      swap1\n      sload\n      swap1\n      0x0100\n      exp\n      swap1\n      div\n      0xffffffffffffffffffffffffffffffffffffffff\n      and\n        /* \"@openzeppelin/contracts/access/Ownable.sol\":2985:3010  address oldOwner = _owner */\n      swap1\n      pop\n        /* \"@openzeppelin/contracts/access/Ownable.sol\":3029:3037  newOwner */\n      dup2\n        /* \"@openzeppelin/contracts/access/Ownable.sol\":3020:3026  _owner */\n      0x05\n      0x00\n        /* \"@openzeppelin/contracts/access/Ownable.sol\":3020:3037  _owner = newOwner */\n      0x0100\n      exp\n      dup2\n      sload\n      dup2\n      0xffffffffffffffffffffffffffffffffffffffff\n      mul\n      not\n      and\n      swap1\n      dup4\n      0xffffffffffffffffffffffffffffffffffffffff\n      and\n      mul\n      or\n      swap1\n      sstore\n      pop\n        /* \"@openzeppelin/contracts/access/Ownable.sol\":3083:3091  newOwner */\n      dup2\n        /* \"@openzeppelin/contracts/access/Ownable.sol\":3052:3092  OwnershipTransferred(oldOwner, newOwner) */\n      0xffffffffffffffffffffffffffffffffffffffff\n      and\n        /* \"@openzeppelin/contracts/access/Ownable.sol\":3073:3081  oldOwner */\n      dup2\n        /* \"@openzeppelin/contracts/access/Ownable.sol\":3052:3092  OwnershipTransferred(oldOwner, newOwner) */\n      0xffffffffffffffffffffffffffffffffffffffff\n      and\n      0x8be0079c531659141344cd1fd0a4f28419497f9722a3daafe3b4186f6b6457e0\n      mload(0x40)\n      mload(0x40)\n      dup1\n      swap2\n      sub\n      swap1\n      log3\n        /* \"@openzeppelin/contracts/access/Ownable.sol\":2975:3099  {... */\n      pop\n        /* \"@openzeppelin/contracts/access/Ownable.sol\":2912:3099  function _transferOwnership(address newOwner) internal virtual {... */\n      pop\n      jump\t// out\n        /* \"@openzeppelin/contracts/token/ERC20/ERC20.sol\":7439:7647  function _mint(address account, uint256 value) internal {... */\n    tag_136:\n        /* \"@openzeppelin/contracts/token/ERC20/ERC20.sol\":7528:7529  0 */\n      0x00\n        /* \"@openzeppelin/contracts/token/ERC20/ERC20.sol\":7509:7530  account == address(0) */\n      0xffffffffffffffffffffffffffffffffffffffff\n      and\n        /* \"@openzeppelin/contracts/token/ERC20/ERC20.sol\":7509:7516  account */\n      dup3\n        /* \"@openzeppelin/contracts/token/ERC20/ERC20.sol\":7509:7530  account == address(0) */\n      0xffffffffffffffffffffffffffffffffffffffff\n      and\n      sub\n        /* \"@openzeppelin/contracts/token/ERC20/ERC20.sol\":7505:7596  if (account == address(0)) {... */\n      tag_179\n      jumpi\n        /* \"@openzeppelin/contracts/token/ERC20/ERC20.sol\":7582:7583  0 */\n      0x00\n        /* \"@openzeppelin/contracts/token/ERC20/ERC20.sol\":7553:7585  ERC20InvalidReceiver(address(0)) */\n      mload(0x40)\n      0xec442f0500000000000000000000000000000000000000000000000000000000\n      dup2\n      mstore\n      0x04\n      add\n      tag_180\n      swap2\n      swap1\n      tag_53\n      jump\t// in\n    tag_180:\n      mload(0x40)\n      dup1\n      swap2\n      sub\n      swap1\n      revert\n        /* \"@openzeppelin/contracts/token/ERC20/ERC20.sol\":7505:7596  if (account == address(0)) {... */\n    tag_179:\n        /* \"@openzeppelin/contracts/token/ERC20/ERC20.sol\":7605:7640  _update(address(0), account, value) */\n      tag_181\n        /* \"@openzeppelin/contracts/token/ERC20/ERC20.sol\":7621:7622  0 */\n      0x00\n        /* \"@openzeppelin/contracts/token/ERC20/ERC20.sol\":7625:7632  account */\n      dup4\n        /* \"@openzeppelin/contracts/token/ERC20/ERC20.sol\":7634:7639  value */\n      dup4\n        /* \"@openzeppelin/contracts/token/ERC20/ERC20.sol\":7605:7612  _update */\n      tag_170\n        /* \"@openzeppelin/contracts/token/ERC20/ERC20.sol\":7605:7640  _update(address(0), account, value) */\n      jump\t// in\n    tag_181:\n        /* \"@openzeppelin/contracts/token/ERC20/ERC20.sol\":7439:7647  function _mint(address account, uint256 value) internal {... */\n      pop\n      pop\n      jump\t// out\n        /* \"@openzeppelin/contracts/token/ERC20/ERC20.sol\":9682:10114  function _approve(address owner, address spender, uint256 value, bool emitEvent) internal virtual {... */\n    tag_156:\n        /* \"@openzeppelin/contracts/token/ERC20/ERC20.sol\":9811:9812  0 */\n      0x00\n        /* \"@openzeppelin/contracts/token/ERC20/ERC20.sol\":9794:9813  owner == address(0) */\n      0xffffffffffffffffffffffffffffffffffffffff\n      and\n        /* \"@openzeppelin/contracts/token/ERC20/ERC20.sol\":9794:9799  owner */\n      dup5\n        /* \"@openzeppelin/contracts/token/ERC20/ERC20.sol\":9794:9813  owner == address(0) */\n      0xffffffffffffffffffffffffffffffffffffffff\n      and\n      sub\n        /* \"@openzeppelin/contracts/token/ERC20/ERC20.sol\":9790:9879  if (owner == address(0)) {... */\n      tag_183\n      jumpi\n        /* \"@openzeppelin/contracts/token/ERC20/ERC20.sol\":9865:9866  0 */\n      0x00\n        /* \"@openzeppelin/contracts/token/ERC20/ERC20.sol\":9836:9868  ERC20InvalidApprover(address(0)) */\n      mload(0x40)\n      0xe602df0500000000000000000000000000000000000000000000000000000000\n      dup2\n      mstore\n      0x04\n      add\n      tag_184\n      swap2\n      swap1\n      tag_53\n      jump\t// in\n    tag_184:\n      mload(0x40)\n      dup1\n      swap2\n      sub\n      swap1\n      revert\n        /* \"@openzeppelin/contracts/token/ERC20/ERC20.sol\":9790:9879  if (owner == address(0)) {... */\n    tag_183:\n        /* \"@openzeppelin/contracts/token/ERC20/ERC20.sol\":9911:9912  0 */\n      0x00\n        /* \"@openzeppelin/contracts/token/ERC20/ERC20.sol\":9892:9913  spender == address(0) */\n      0xffffffffffffffffffffffffffffffffffffffff\n      and\n        /* \"@openzeppelin/contracts/token/ERC20/ERC20.sol\":9892:9899  spender */\n      dup4\n        /* \"@openzeppelin/contracts/token/ERC20/ERC20.sol\":9892:9913  spender == address(0) */\n      0xffffffffffffffffffffffffffffffffffffffff\n      and\n      sub\n        /* \"@openzeppelin/contracts/token/ERC20/ERC20.sol\":9888:9978  if (spender == address(0)) {... */\n      tag_185\n      jumpi\n        /* \"@openzeppelin/contracts/token/ERC20/ERC20.sol\":9964:9965  0 */\n      0x00\n        /* \"@openzeppelin/contracts/token/ERC20/ERC20.sol\":9936:9967  ERC20InvalidSpender(address(0)) */\n      mload(0x40)\n      0x94280d6200000000000000000000000000000000000000000000000000000000\n      dup2\n      mstore\n      0x04\n      add\n      tag_186\n      swap2\n      swap1\n      tag_53\n      jump\t// in\n    tag_186:\n      mload(0x40)\n      dup1\n      swap2\n      sub\n      swap1\n      revert\n        /* \"@openzeppelin/contracts/token/ERC20/ERC20.sol\":9888:9978  if (spender == address(0)) {... */\n    tag_185:\n        /* \"@openzeppelin/contracts/token/ERC20/ERC20.sol\":10017:10022  value */\n      dup2\n        /* \"@openzeppelin/contracts/token/ERC20/ERC20.sol\":9987:9998  _allowances */\n      0x01\n        /* \"@openzeppelin/contracts/token/ERC20/ERC20.sol\":9987:10005  _allowances[owner] */\n      0x00\n        /* \"@openzeppelin/contracts/token/ERC20/ERC20.sol\":9999:10004  owner */\n      dup7\n        /* \"@openzeppelin/contracts/token/ERC20/ERC20.sol\":9987:10005  _allowances[owner] */\n      0xffffffffffffffffffffffffffffffffffffffff\n      and\n      0xffffffffffffffffffffffffffffffffffffffff\n      and\n      dup2\n      mstore\n      0x20\n      add\n      swap1\n      dup2\n      mstore\n      0x20\n      add\n      0x00\n      keccak256\n        /* \"@openzeppelin/contracts/token/ERC20/ERC20.sol\":9987:10014  _allowances[owner][spender] */\n      0x00\n        /* \"@openzeppelin/contracts/token/ERC20/ERC20.sol\":10006:10013  spender */\n      dup6\n        /* \"@openzeppelin/contracts/token/ERC20/ERC20.sol\":9987:10014  _allowances[owner][spender] */\n      0xffffffffffffffffffffffffffffffffffffffff\n      and\n      0xffffffffffffffffffffffffffffffffffffffff\n      and\n      dup2\n      mstore\n      0x20\n      add\n      swap1\n      dup2\n      mstore\n      0x20\n      add\n      0x00\n      keccak256\n        /* \"@openzeppelin/contracts/token/ERC20/ERC20.sol\":9987:10022  _allowances[owner][spender] = value */\n      dup2\n      swap1\n      sstore\n      pop\n        /* \"@openzeppelin/contracts/token/ERC20/ERC20.sol\":10036:10045  emitEvent */\n      dup1\n        /* \"@openzeppelin/contracts/token/ERC20/ERC20.sol\":10032:10108  if (emitEvent) {... */\n      iszero\n      tag_187\n      jumpi\n        /* \"@openzeppelin/contracts/token/ERC20/ERC20.sol\":10082:10089  spender */\n      dup3\n        /* \"@openzeppelin/contracts/token/ERC20/ERC20.sol\":10066:10097  Approval(owner, spender, value) */\n      0xffffffffffffffffffffffffffffffffffffffff\n      and\n        /* \"@openzeppelin/contracts/token/ERC20/ERC20.sol\":10075:10080  owner */\n      dup5\n        /* \"@openzeppelin/contracts/token/ERC20/ERC20.sol\":10066:10097  Approval(owner, spender, value) */\n      0xffffffffffffffffffffffffffffffffffffffff\n      and\n      0x8c5be1e5ebec7d5bd14f71427d1e84f3dd0314c0f7b2291e5b200ac8c7c3b925\n        /* \"@openzeppelin/contracts/token/ERC20/ERC20.sol\":10091:10096  value */\n      dup5\n        /* \"@openzeppelin/contracts/token/ERC20/ERC20.sol\":10066:10097  Approval(owner, spender, value) */\n      mload(0x40)\n      tag_188\n      swap2\n      swap1\n      tag_33\n      jump\t// in\n    tag_188:\n      mload(0x40)\n      dup1\n      swap2\n      sub\n      swap1\n      log3\n        /* \"@openzeppelin/contracts/token/ERC20/ERC20.sol\":10032:10108  if (emitEvent) {... */\n    tag_187:\n        /* \"@openzeppelin/contracts/token/ERC20/ERC20.sol\":9682:10114  function _approve(address owner, address spender, uint256 value, bool emitEvent) internal virtual {... */\n      pop\n      pop\n      pop\n      pop\n      jump\t// out\n        /* \"@openzeppelin/contracts/token/ERC20/ERC20.sol\":5989:7096  function _update(address from, address to, uint256 value) internal virtual {... */\n    tag_170:\n        /* \"@openzeppelin/contracts/token/ERC20/ERC20.sol\":6094:6095  0 */\n      0x00\n        /* \"@openzeppelin/contracts/token/ERC20/ERC20.sol\":6078:6096  from == address(0) */\n      0xffffffffffffffffffffffffffffffffffffffff\n      and\n        /* \"@openzeppelin/contracts/token/ERC20/ERC20.sol\":6078:6082  from */\n      dup4\n        /* \"@openzeppelin/contracts/token/ERC20/ERC20.sol\":6078:6096  from == address(0) */\n      0xffffffffffffffffffffffffffffffffffffffff\n      and\n      sub\n        /* \"@openzeppelin/contracts/token/ERC20/ERC20.sol\":6074:6614  if (from == address(0)) {... */\n      tag_190\n      jumpi\n        /* \"@openzeppelin/contracts/token/ERC20/ERC20.sol\":6230:6235  value */\n      dup1\n        /* \"@openzeppelin/contracts/token/ERC20/ERC20.sol\":6214:6226  _totalSupply */\n      0x02\n      0x00\n        /* \"@openzeppelin/contracts/token/ERC20/ERC20.sol\":6214:6235  _totalSupply += value */\n      dup3\n      dup3\n      sload\n      tag_191\n      swap2\n      swap1\n      tag_112\n      jump\t// in\n    tag_191:\n      swap3\n      pop\n      pop\n      dup2\n      swap1\n      sstore\n      pop\n        /* \"@openzeppelin/contracts/token/ERC20/ERC20.sol\":6074:6614  if (from == address(0)) {... */\n      jump(tag_192)\n    tag_190:\n        /* \"@openzeppelin/contracts/token/ERC20/ERC20.sol\":6266:6285  uint256 fromBalance */\n      0x00\n        /* \"@openzeppelin/contracts/token/ERC20/ERC20.sol\":6288:6297  _balances */\n      dup1\n        /* \"@openzeppelin/contracts/token/ERC20/ERC20.sol\":6288:6303  _balances[from] */\n      0x00\n        /* \"@openzeppelin/contracts/token/ERC20/ERC20.sol\":6298:6302  from */\n      dup6\n        /* \"@openzeppelin/contracts/token/ERC20/ERC20.sol\":6288:6303  _balances[from] */\n      0xffffffffffffffffffffffffffffffffffffffff\n      and\n      0xffffffffffffffffffffffffffffffffffffffff\n      and\n      dup2\n      mstore\n      0x20\n      add\n      swap1\n      dup2\n      mstore\n      0x20\n      add\n      0x00\n      keccak256\n      sload\n        /* \"@openzeppelin/contracts/token/ERC20/ERC20.sol\":6266:6303  uint256 fromBalance = _balances[from] */\n      swap1\n      pop\n        /* \"@openzeppelin/contracts/token/ERC20/ERC20.sol\":6335:6340  value */\n      dup2\n        /* \"@openzeppelin/contracts/token/ERC20/ERC20.sol\":6321:6332  fromBalance */\n      dup2\n        /* \"@openzeppelin/contracts/token/ERC20/ERC20.sol\":6321:6340  fromBalance < value */\n      lt\n        /* \"@openzeppelin/contracts/token/ERC20/ERC20.sol\":6317:6432  if (fromBalance < value) {... */\n      iszero\n      tag_193\n      jumpi\n        /* \"@openzeppelin/contracts/token/ERC20/ERC20.sol\":6392:6396  from */\n      dup4\n        /* \"@openzeppelin/contracts/token/ERC20/ERC20.sol\":6398:6409  fromBalance */\n      dup2\n        /* \"@openzeppelin/contracts/token/ERC20/ERC20.sol\":6411:6416  value */\n      dup4\n        /* \"@openzeppelin/contracts/token/ERC20/ERC20.sol\":6367:6417  ERC20InsufficientBalance(from, fromBalance, value) */\n      mload(0x40)\n      0xe450d38c00000000000000000000000000000000000000000000000000000000\n      dup2\n      mstore\n      0x04\n      add\n      tag_194\n      swap4\n      swap3\n      swap2\n      swap1\n      tag_162\n      jump\t// in\n    tag_194:\n      mload(0x40)\n      dup1\n      swap2\n      sub\n      swap1\n      revert\n        /* \"@openzeppelin/contracts/token/ERC20/ERC20.sol\":6317:6432  if (fromBalance < value) {... */\n    tag_193:\n        /* \"@openzeppelin/contracts/token/ERC20/ERC20.sol\":6584:6589  value */\n      dup2\n        /* \"@openzeppelin/contracts/token/ERC20/ERC20.sol\":6570:6581  fromBalance */\n      dup2\n        /* \"@openzeppelin/contracts/token/ERC20/ERC20.sol\":6570:6589  fromBalance - value */\n      sub\n        /* \"@openzeppelin/contracts/token/ERC20/ERC20.sol\":6552:6561  _balances */\n      0x00\n        /* \"@openzeppelin/contracts/token/ERC20/ERC20.sol\":6552:6567  _balances[from] */\n      dup1\n        /* \"@openzeppelin/contracts/token/ERC20/ERC20.sol\":6562:6566  from */\n      dup7\n        /* \"@openzeppelin/contracts/token/ERC20/ERC20.sol\":6552:6567  _balances[from] */\n      0xffffffffffffffffffffffffffffffffffffffff\n      and\n      0xffffffffffffffffffffffffffffffffffffffff\n      and\n      dup2\n      mstore\n      0x20\n      add\n      swap1\n      dup2\n      mstore\n      0x20\n      add\n      0x00\n      keccak256\n        /* \"@openzeppelin/contracts/token/ERC20/ERC20.sol\":6552:6589  _balances[from] = fromBalance - value */\n      dup2\n      swap1\n      sstore\n      pop\n        /* \"@openzeppelin/contracts/token/ERC20/ERC20.sol\":6252:6614  {... */\n      pop\n        /* \"@openzeppelin/contracts/token/ERC20/ERC20.sol\":6074:6614  if (from == address(0)) {... */\n    tag_192:\n        /* \"@openzeppelin/contracts/token/ERC20/ERC20.sol\":6642:6643  0 */\n      0x00\n        /* \"@openzeppelin/contracts/token/ERC20/ERC20.sol\":6628:6644  to == address(0) */\n      0xffffffffffffffffffffffffffffffffffffffff\n      and\n        /* \"@openzeppelin/contracts/token/ERC20/ERC20.sol\":6628:6630  to */\n      dup3\n        /* \"@openzeppelin/contracts/token/ERC20/ERC20.sol\":6628:6644  to == address(0) */\n      0xffffffffffffffffffffffffffffffffffffffff\n      and\n      sub\n        /* \"@openzeppelin/contracts/token/ERC20/ERC20.sol\":6624:7049  if (to == address(0)) {... */\n      tag_195\n      jumpi\n        /* \"@openzeppelin/contracts/token/ERC20/ERC20.sol\":6807:6812  value */\n      dup1\n        /* \"@openzeppelin/contracts/token/ERC20/ERC20.sol\":6791:6803  _totalSupply */\n      0x02\n      0x00\n        /* \"@openzeppelin/contracts/token/ERC20/ERC20.sol\":6791:6812  _totalSupply -= value */\n      dup3\n      dup3\n      sload\n      sub\n      swap3\n      pop\n      pop\n      dup2\n      swap1\n      sstore\n      pop\n        /* \"@openzeppelin/contracts/token/ERC20/ERC20.sol\":6624:7049  if (to == address(0)) {... */\n      jump(tag_196)\n    tag_195:\n        /* \"@openzeppelin/contracts/token/ERC20/ERC20.sol\":7019:7024  value */\n      dup1\n        /* \"@openzeppelin/contracts/token/ERC20/ERC20.sol\":7002:7011  _balances */\n      0x00\n        /* \"@openzeppelin/contracts/token/ERC20/ERC20.sol\":7002:7015  _balances[to] */\n      dup1\n        /* \"@openzeppelin/contracts/token/ERC20/ERC20.sol\":7012:7014  to */\n      dup5\n        /* \"@openzeppelin/contracts/token/ERC20/ERC20.sol\":7002:7015  _balances[to] */\n      0xffffffffffffffffffffffffffffffffffffffff\n      and\n      0xffffffffffffffffffffffffffffffffffffffff\n      and\n      dup2\n      mstore\n      0x20\n      add\n      swap1\n      dup2\n      mstore\n      0x20\n      add\n      0x00\n      keccak256\n      0x00\n        /* \"@openzeppelin/contracts/token/ERC20/ERC20.sol\":7002:7024  _balances[to] += value */\n      dup3\n      dup3\n      sload\n      add\n      swap3\n      pop\n      pop\n      dup2\n      swap1\n      sstore\n      pop\n        /* \"@openzeppelin/contracts/token/ERC20/ERC20.sol\":6624:7049  if (to == address(0)) {... */\n    tag_196:\n        /* \"@openzeppelin/contracts/token/ERC20/ERC20.sol\":7079:7081  to */\n      dup2\n        /* \"@openzeppelin/contracts/token/ERC20/ERC20.sol\":7064:7089  Transfer(from, to, value) */\n      0xffffffffffffffffffffffffffffffffffffffff\n      and\n        /* \"@openzeppelin/contracts/token/ERC20/ERC20.sol\":7073:7077  from */\n      dup4\n        /* \"@openzeppelin/contracts/token/ERC20/ERC20.sol\":7064:7089  Transfer(from, to, value) */\n      0xffffffffffffffffffffffffffffffffffffffff\n      and\n      0xddf252ad1be2c89b69c2b068fc378daa952ba7f163c4a11628f55a4df523b3ef\n        /* \"@openzeppelin/contracts/token/ERC20/ERC20.sol\":7083:7088  value */\n      dup4\n        /* \"@openzeppelin/contracts/token/ERC20/ERC20.sol\":7064:7089  Transfer(from, to, value) */\n      mload(0x40)\n      tag_197\n      swap2\n      swap1\n      tag_33\n      jump\t// in\n    tag_197:\n      mload(0x40)\n      dup1\n      swap2\n      sub\n      swap1\n      log3\n        /* \"@openzeppelin/contracts/token/ERC20/ERC20.sol\":5989:7096  function _update(address from, address to, uint256 value) internal virtual {... */\n      pop\n      pop\n      pop\n      jump\t// out\n        /* \"#utility.yul\":7:106   */\n    tag_198:\n        /* \"#utility.yul\":59:65   */\n      0x00\n        /* \"#utility.yul\":93:98   */\n      dup2\n        /* \"#utility.yul\":87:99   */\n      mload\n        /* \"#utility.yul\":77:99   */\n      swap1\n      pop\n        /* \"#utility.yul\":7:106   */\n      swap2\n      swap1\n      pop\n      jump\t// out\n        /* \"#utility.yul\":112:281   */\n    tag_199:\n        /* \"#utility.yul\":196:207   */\n      0x00\n        /* \"#utility.yul\":230:236   */\n      dup3\n        /* \"#utility.yul\":225:228   */\n      dup3\n        /* \"#utility.yul\":218:237   */\n      mstore\n        /* \"#utility.yul\":270:274   */\n      0x20\n        /* \"#utility.yul\":265:268   */\n      dup3\n        /* \"#utility.yul\":261:275   */\n      add\n        /* \"#utility.yul\":246:275   */\n      swap1\n      pop\n        /* \"#utility.yul\":112:281   */\n      swap3\n      swap2\n      pop\n      pop\n      jump\t// out\n        /* \"#utility.yul\":287:426   */\n    tag_200:\n        /* \"#utility.yul\":376:382   */\n      dup3\n        /* \"#utility.yul\":371:374   */\n      dup2\n        /* \"#utility.yul\":366:369   */\n      dup4\n        /* \"#utility.yul\":360:383   */\n      mcopy\n        /* \"#utility.yul\":417:418   */\n      0x00\n        /* \"#utility.yul\":408:414   */\n      dup4\n        /* \"#utility.yul\":403:406   */\n      dup4\n        /* \"#utility.yul\":399:415   */\n      add\n        /* \"#utility.yul\":392:419   */\n      mstore\n        /* \"#utility.yul\":287:426   */\n      pop\n      pop\n      pop\n      jump\t// out\n        /* \"#utility.yul\":432:534   */\n    tag_201:\n        /* \"#utility.yul\":473:479   */\n      0x00\n        /* \"#utility.yul\":524:526   */\n      0x1f\n        /* \"#utility.yul\":520:527   */\n      not\n        /* \"#utility.yul\":515:517   */\n      0x1f\n        /* \"#utility.yul\":508:513   */\n      dup4\n        /* \"#utility.yul\":504:518   */\n      add\n        /* \"#utility.yul\":500:528   */\n      and\n        /* \"#utility.yul\":490:528   */\n      swap1\n      pop\n        /* \"#utility.yul\":432:534   */\n      swap2\n      swap1\n      pop\n      jump\t// out\n        /* \"#utility.yul\":540:917   */\n    tag_202:\n        /* \"#utility.yul\":628:631   */\n      0x00\n        /* \"#utility.yul\":656:695   */\n      tag_236\n        /* \"#utility.yul\":689:694   */\n      dup3\n        /* \"#utility.yul\":656:695   */\n      tag_198\n      jump\t// in\n    tag_236:\n        /* \"#utility.yul\":711:782   */\n      tag_237\n        /* \"#utility.yul\":775:781   */\n      dup2\n        /* \"#utility.yul\":770:773   */\n      dup6\n        /* \"#utility.yul\":711:782   */\n      tag_199\n      jump\t// in\n    tag_237:\n        /* \"#utility.yul\":704:782   */\n      swap4\n      pop\n        /* \"#utility.yul\":791:856   */\n      tag_238\n        /* \"#utility.yul\":849:855   */\n      dup2\n        /* \"#utility.yul\":844:847   */\n      dup6\n        /* \"#utility.yul\":837:841   */\n      0x20\n        /* \"#utility.yul\":830:835   */\n      dup7\n        /* \"#utility.yul\":826:842   */\n      add\n        /* \"#utility.yul\":791:856   */\n      tag_200\n      jump\t// in\n    tag_238:\n        /* \"#utility.yul\":881:910   */\n      tag_239\n        /* \"#utility.yul\":903:909   */\n      dup2\n        /* \"#utility.yul\":881:910   */\n      tag_201\n      jump\t// in\n    tag_239:\n        /* \"#utility.yul\":876:879   */\n      dup5\n        /* \"#utility.yul\":872:911   */\n      add\n        /* \"#utility.yul\":865:911   */\n      swap2\n      pop\n        /* \"#utility.yul\":632:917   */\n      pop\n        /* \"#utility.yul\":540:917   */\n      swap3\n      swap2\n      pop\n      pop\n      jump\t// out\n        /* \"#utility.yul\":923:1236   */\n    tag_23:\n        /* \"#utility.yul\":1036:1040   */\n      0x00\n        /* \"#utility.yul\":1074:1076   */\n      0x20\n        /* \"#utility.yul\":1063:1072   */\n      dup3\n        /* \"#utility.yul\":1059:1077   */\n      add\n        /* \"#utility.yul\":1051:1077   */\n      swap1\n      pop\n        /* \"#utility.yul\":1123:1132   */\n      dup2\n        /* \"#utility.yul\":1117:1121   */\n      dup2\n        /* \"#utility.yul\":1113:1133   */\n      sub\n        /* \"#utility.yul\":1109:1110   */\n      0x00\n        /* \"#utility.yul\":1098:1107   */\n      dup4\n        /* \"#utility.yul\":1094:1111   */\n      add\n        /* \"#utility.yul\":1087:1134   */\n      mstore\n        /* \"#utility.yul\":1151:1229   */\n      tag_241\n        /* \"#utility.yul\":1224:1228   */\n      dup2\n        /* \"#utility.yul\":1215:1221   */\n      dup5\n        /* \"#utility.yul\":1151:1229   */\n      tag_202\n      jump\t// in\n    tag_241:\n        /* \"#utility.yul\":1143:1229   */\n      swap1\n      pop\n        /* \"#utility.yul\":923:1236   */\n      swap3\n      swap2\n      pop\n      pop\n      jump\t// out\n        /* \"#utility.yul\":1323:1440   */\n    tag_204:\n        /* \"#utility.yul\":1432:1433   */\n      0x00\n        /* \"#utility.yul\":1429:1430   */\n      dup1\n        /* \"#utility.yul\":1422:1434   */\n      revert\n        /* \"#utility.yul\":1569:1695   */\n    tag_206:\n        /* \"#utility.yul\":1606:1613   */\n      0x00\n        /* \"#utility.yul\":1646:1688   */\n      0xffffffffffffffffffffffffffffffffffffffff\n        /* \"#utility.yul\":1639:1644   */\n      dup3\n        /* \"#utility.yul\":1635:1689   */\n      and\n        /* \"#utility.yul\":1624:1689   */\n      swap1\n      pop\n        /* \"#utility.yul\":1569:1695   */\n      swap2\n      swap1\n      pop\n      jump\t// out\n        /* \"#utility.yul\":1701:1797   */\n    tag_207:\n        /* \"#utility.yul\":1738:1745   */\n      0x00\n        /* \"#utility.yul\":1767:1791   */\n      tag_247\n        /* \"#utility.yul\":1785:1790   */\n      dup3\n        /* \"#utility.yul\":1767:1791   */\n      tag_206\n      jump\t// in\n    tag_247:\n        /* \"#utility.yul\":1756:1791   */\n      swap1\n      pop\n        /* \"#utility.yul\":1701:1797   */\n      swap2\n      swap1\n      pop\n      jump\t// out\n        /* \"#utility.yul\":1803:1925   */\n    tag_208:\n        /* \"#utility.yul\":1876:1900   */\n      tag_249\n        /* \"#utility.yul\":1894:1899   */\n      dup2\n        /* \"#utility.yul\":1876:1900   */\n      tag_207\n      jump\t// in\n    tag_249:\n        /* \"#utility.yul\":1869:1874   */\n      dup2\n        /* \"#utility.yul\":1866:1901   */\n      eq\n        /* \"#utility.yul\":1856:1919   */\n      tag_250\n      jumpi\n        /* \"#utility.yul\":1915:1916   */\n      0x00\n        /* \"#utility.yul\":1912:1913   */\n      dup1\n        /* \"#utility.yul\":1905:1917   */\n      revert\n        /* \"#utility.yul\":1856:1919   */\n    tag_250:\n        /* \"#utility.yul\":1803:1925   */\n      pop\n      jump\t// out\n        /* \"#utility.yul\":1931:2070   */\n    tag_209:\n        /* \"#utility.yul\":1977:1982   */\n      0x00\n        /* \"#utility.yul\":2015:2021   */\n      dup2\n        /* \"#utility.yul\":2002:2022   */\n      calldataload\n        /* \"#utility.yul\":1993:2022   */\n      swap1\n      pop\n        /* \"#utility.yul\":2031:2064   */\n      tag_252\n        /* \"#utility.yul\":2058:2063   */\n      dup2\n        /* \"#utility.yul\":2031:2064   */\n      tag_208\n      jump\t// in\n    tag_252:\n        /* \"#utility.yul\":1931:2070   */\n      swap3\n      swap2\n      pop\n      pop\n      jump\t// out\n        /* \"#utility.yul\":2076:2153   */\n    tag_210:\n        /* \"#utility.yul\":2113:2120   */\n      0x00\n        /* \"#utility.yul\":2142:2147   */\n      dup2\n        /* \"#utility.yul\":2131:2147   */\n      swap1\n      pop\n        /* \"#utility.yul\":2076:2153   */\n      swap2\n      swap1\n      pop\n      jump\t// out\n        /* \"#utility.yul\":2159:2281   */\n    tag_211:\n        /* \"#utility.yul\":2232:2256   */\n      tag_255\n        /* \"#utility.yul\":2250:2255   */\n      dup2\n        /* \"#utility.yul\":2232:2256   */\n      tag_210\n      jump\t// in\n    tag_255:\n        /* \"#utility.yul\":2225:2230   */\n      dup2\n        /* \"#utility.yul\":2222:2257   */\n      eq\n        /* \"#utility.yul\":2212:2275   */\n      tag_256\n      jumpi\n        /* \"#utility.yul\":2271:2272   */\n      0x00\n        /* \"#utility.yul\":2268:2269   */\n      dup1\n        /* \"#utility.yul\":2261:2273   */\n      revert\n        /* \"#utility.yul\":2212:2275   */\n    tag_256:\n        /* \"#utility.yul\":2159:2281   */\n      pop\n      jump\t// out\n        /* \"#utility.yul\":2287:2426   */\n    tag_212:\n        /* \"#utility.yul\":2333:2338   */\n      0x00\n        /* \"#utility.yul\":2371:2377   */\n      dup2\n        /* \"#utility.yul\":2358:2378   */\n      calldataload\n        /* \"#utility.yul\":2349:2378   */\n      swap1\n      pop\n        /* \"#utility.yul\":2387:2420   */\n      tag_258\n        /* \"#utility.yul\":2414:2419   */\n      dup2\n        /* \"#utility.yul\":2387:2420   */\n      tag_211\n      jump\t// in\n    tag_258:\n        /* \"#utility.yul\":2287:2426   */\n      swap3\n      swap2\n      pop\n      pop\n      jump\t// out\n        /* \"#utility.yul\":2432:2906   */\n    tag_26:\n        /* \"#utility.yul\":2500:2506   */\n      0x00\n        /* \"#utility.yul\":2508:2514   */\n      dup1\n        /* \"#utility.yul\":2557:2559   */\n      0x40\n        /* \"#utility.yul\":2545:2554   */\n      dup4\n        /* \"#utility.yul\":2536:2543   */\n      dup6\n        /* \"#utility.yul\":2532:2555   */\n      sub\n        /* \"#utility.yul\":2528:2560   */\n      slt\n        /* \"#utility.yul\":2525:2644   */\n      iszero\n      tag_260\n      jumpi\n        /* \"#utility.yul\":2563:2642   */\n      tag_261\n      tag_204\n      jump\t// in\n    tag_261:\n        /* \"#utility.yul\":2525:2644   */\n    tag_260:\n        /* \"#utility.yul\":2683:2684   */\n      0x00\n        /* \"#utility.yul\":2708:2761   */\n      tag_262\n        /* \"#utility.yul\":2753:2760   */\n      dup6\n        /* \"#utility.yul\":2744:2750   */\n      dup3\n        /* \"#utility.yul\":2733:2742   */\n      dup7\n        /* \"#utility.yul\":2729:2751   */\n      add\n        /* \"#utility.yul\":2708:2761   */\n      tag_209\n      jump\t// in\n    tag_262:\n        /* \"#utility.yul\":2698:2761   */\n      swap3\n      pop\n        /* \"#utility.yul\":2654:2771   */\n      pop\n        /* \"#utility.yul\":2810:2812   */\n      0x20\n        /* \"#utility.yul\":2836:2889   */\n      tag_263\n        /* \"#utility.yul\":2881:2888   */\n      dup6\n        /* \"#utility.yul\":2872:2878   */\n      dup3\n        /* \"#utility.yul\":2861:2870   */\n      dup7\n        /* \"#utility.yul\":2857:2879   */\n      add\n        /* \"#utility.yul\":2836:2889   */\n      tag_212\n      jump\t// in\n    tag_263:\n        /* \"#utility.yul\":2826:2889   */\n      swap2\n      pop\n        /* \"#utility.yul\":2781:2899   */\n      pop\n        /* \"#utility.yul\":2432:2906   */\n      swap3\n      pop\n      swap3\n      swap1\n      pop\n      jump\t// out\n        /* \"#utility.yul\":2912:3002   */\n    tag_213:\n        /* \"#utility.yul\":2946:2953   */\n      0x00\n        /* \"#utility.yul\":2989:2994   */\n      dup2\n        /* \"#utility.yul\":2982:2995   */\n      iszero\n        /* \"#utility.yul\":2975:2996   */\n      iszero\n        /* \"#utility.yul\":2964:2996   */\n      swap1\n      pop\n        /* \"#utility.yul\":2912:3002   */\n      swap2\n      swap1\n      pop\n      jump\t// out\n        /* \"#utility.yul\":3008:3117   */\n    tag_214:\n        /* \"#utility.yul\":3089:3110   */\n      tag_266\n        /* \"#utility.yul\":3104:3109   */\n      dup2\n        /* \"#utility.yul\":3089:3110   */\n      tag_213\n      jump\t// in\n    tag_266:\n        /* \"#utility.yul\":3084:3087   */\n      dup3\n        /* \"#utility.yul\":3077:3111   */\n      mstore\n        /* \"#utility.yul\":3008:3117   */\n      pop\n      pop\n      jump\t// out\n        /* \"#utility.yul\":3123:3333   */\n    tag_29:\n        /* \"#utility.yul\":3210:3214   */\n      0x00\n        /* \"#utility.yul\":3248:3250   */\n      0x20\n        /* \"#utility.yul\":3237:3246   */\n      dup3\n        /* \"#utility.yul\":3233:3251   */\n      add\n        /* \"#utility.yul\":3225:3251   */\n      swap1\n      pop\n        /* \"#utility.yul\":3261:3326   */\n      tag_268\n        /* \"#utility.yul\":3323:3324   */\n      0x00\n        /* \"#utility.yul\":3312:3321   */\n      dup4\n        /* \"#utility.yul\":3308:3325   */\n      add\n        /* \"#utility.yul\":3299:3305   */\n      dup5\n        /* \"#utility.yul\":3261:3326   */\n      tag_214\n      jump\t// in\n    tag_268:\n        /* \"#utility.yul\":3123:3333   */\n      swap3\n      swap2\n      pop\n      pop\n      jump\t// out\n        /* \"#utility.yul\":3339:3457   */\n    tag_215:\n        /* \"#utility.yul\":3426:3450   */\n      tag_270\n        /* \"#utility.yul\":3444:3449   */\n      dup2\n        /* \"#utility.yul\":3426:3450   */\n      tag_210\n      jump\t// in\n    tag_270:\n        /* \"#utility.yul\":3421:3424   */\n      dup3\n        /* \"#utility.yul\":3414:3451   */\n      mstore\n        /* \"#utility.yul\":3339:3457   */\n      pop\n      pop\n      jump\t// out\n        /* \"#utility.yul\":3463:3685   */\n    tag_33:\n        /* \"#utility.yul\":3556:3560   */\n      0x00\n        /* \"#utility.yul\":3594:3596   */\n      0x20\n        /* \"#utility.yul\":3583:3592   */\n      dup3\n        /* \"#utility.yul\":3579:3597   */\n      add\n        /* \"#utility.yul\":3571:3597   */\n      swap1\n      pop\n        /* \"#utility.yul\":3607:3678   */\n      tag_272\n        /* \"#utility.yul\":3675:3676   */\n      0x00\n        /* \"#utility.yul\":3664:3673   */\n      dup4\n        /* \"#utility.yul\":3660:3677   */\n      add\n        /* \"#utility.yul\":3651:3657   */\n      dup5\n        /* \"#utility.yul\":3607:3678   */\n      tag_215\n      jump\t// in\n    tag_272:\n        /* \"#utility.yul\":3463:3685   */\n      swap3\n      swap2\n      pop\n      pop\n      jump\t// out\n        /* \"#utility.yul\":3691:4310   */\n    tag_36:\n        /* \"#utility.yul\":3768:3774   */\n      0x00\n        /* \"#utility.yul\":3776:3782   */\n      dup1\n        /* \"#utility.yul\":3784:3790   */\n      0x00\n        /* \"#utility.yul\":3833:3835   */\n      0x60\n        /* \"#utility.yul\":3821:3830   */\n      dup5\n        /* \"#utility.yul\":3812:3819   */\n      dup7\n        /* \"#utility.yul\":3808:3831   */\n      sub\n        /* \"#utility.yul\":3804:3836   */\n      slt\n        /* \"#utility.yul\":3801:3920   */\n      iszero\n      tag_274\n      jumpi\n        /* \"#utility.yul\":3839:3918   */\n      tag_275\n      tag_204\n      jump\t// in\n    tag_275:\n        /* \"#utility.yul\":3801:3920   */\n    tag_274:\n        /* \"#utility.yul\":3959:3960   */\n      0x00\n        /* \"#utility.yul\":3984:4037   */\n      tag_276\n        /* \"#utility.yul\":4029:4036   */\n      dup7\n        /* \"#utility.yul\":4020:4026   */\n      dup3\n        /* \"#utility.yul\":4009:4018   */\n      dup8\n        /* \"#utility.yul\":4005:4027   */\n      add\n        /* \"#utility.yul\":3984:4037   */\n      tag_209\n      jump\t// in\n    tag_276:\n        /* \"#utility.yul\":3974:4037   */\n      swap4\n      pop\n        /* \"#utility.yul\":3930:4047   */\n      pop\n        /* \"#utility.yul\":4086:4088   */\n      0x20\n        /* \"#utility.yul\":4112:4165   */\n      tag_277\n        /* \"#utility.yul\":4157:4164   */\n      dup7\n        /* \"#utility.yul\":4148:4154   */\n      dup3\n        /* \"#utility.yul\":4137:4146   */\n      dup8\n        /* \"#utility.yul\":4133:4155   */\n      add\n        /* \"#utility.yul\":4112:4165   */\n      tag_209\n      jump\t// in\n    tag_277:\n        /* \"#utility.yul\":4102:4165   */\n      swap3\n      pop\n        /* \"#utility.yul\":4057:4175   */\n      pop\n        /* \"#utility.yul\":4214:4216   */\n      0x40\n        /* \"#utility.yul\":4240:4293   */\n      tag_278\n        /* \"#utility.yul\":4285:4292   */\n      dup7\n        /* \"#utility.yul\":4276:4282   */\n      dup3\n        /* \"#utility.yul\":4265:4274   */\n      dup8\n        /* \"#utility.yul\":4261:4283   */\n      add\n        /* \"#utility.yul\":4240:4293   */\n      tag_212\n      jump\t// in\n    tag_278:\n        /* \"#utility.yul\":4230:4293   */\n      swap2\n      pop\n        /* \"#utility.yul\":4185:4303   */\n      pop\n        /* \"#utility.yul\":3691:4310   */\n      swap3\n      pop\n      swap3\n      pop\n      swap3\n      jump\t// out\n        /* \"#utility.yul\":4316:4402   */\n    tag_216:\n        /* \"#utility.yul\":4351:4358   */\n      0x00\n        /* \"#utility.yul\":4391:4395   */\n      0xff\n        /* \"#utility.yul\":4384:4389   */\n      dup3\n        /* \"#utility.yul\":4380:4396   */\n      and\n        /* \"#utility.yul\":4369:4396   */\n      swap1\n      pop\n        /* \"#utility.yul\":4316:4402   */\n      swap2\n      swap1\n      pop\n      jump\t// out\n        /* \"#utility.yul\":4408:4520   */\n    tag_217:\n        /* \"#utility.yul\":4491:4513   */\n      tag_281\n        /* \"#utility.yul\":4507:4512   */\n      dup2\n        /* \"#utility.yul\":4491:4513   */\n      tag_216\n      jump\t// in\n    tag_281:\n        /* \"#utility.yul\":4486:4489   */\n      dup3\n        /* \"#utility.yul\":4479:4514   */\n      mstore\n        /* \"#utility.yul\":4408:4520   */\n      pop\n      pop\n      jump\t// out\n        /* \"#utility.yul\":4526:4740   */\n    tag_42:\n        /* \"#utility.yul\":4615:4619   */\n      0x00\n        /* \"#utility.yul\":4653:4655   */\n      0x20\n        /* \"#utility.yul\":4642:4651   */\n      dup3\n        /* \"#utility.yul\":4638:4656   */\n      add\n        /* \"#utility.yul\":4630:4656   */\n      swap1\n      pop\n        /* \"#utility.yul\":4666:4733   */\n      tag_283\n        /* \"#utility.yul\":4730:4731   */\n      0x00\n        /* \"#utility.yul\":4719:4728   */\n      dup4\n        /* \"#utility.yul\":4715:4732   */\n      add\n        /* \"#utility.yul\":4706:4712   */\n      dup5\n        /* \"#utility.yul\":4666:4733   */\n      tag_217\n      jump\t// in\n    tag_283:\n        /* \"#utility.yul\":4526:4740   */\n      swap3\n      swap2\n      pop\n      pop\n      jump\t// out\n        /* \"#utility.yul\":4746:5075   */\n    tag_45:\n        /* \"#utility.yul\":4805:4811   */\n      0x00\n        /* \"#utility.yul\":4854:4856   */\n      0x20\n        /* \"#utility.yul\":4842:4851   */\n      dup3\n        /* \"#utility.yul\":4833:4840   */\n      dup5\n        /* \"#utility.yul\":4829:4852   */\n      sub\n        /* \"#utility.yul\":4825:4857   */\n      slt\n        /* \"#utility.yul\":4822:4941   */\n      iszero\n      tag_285\n      jumpi\n        /* \"#utility.yul\":4860:4939   */\n      tag_286\n      tag_204\n      jump\t// in\n    tag_286:\n        /* \"#utility.yul\":4822:4941   */\n    tag_285:\n        /* \"#utility.yul\":4980:4981   */\n      0x00\n        /* \"#utility.yul\":5005:5058   */\n      tag_287\n        /* \"#utility.yul\":5050:5057   */\n      dup5\n        /* \"#utility.yul\":5041:5047   */\n      dup3\n        /* \"#utility.yul\":5030:5039   */\n      dup6\n        /* \"#utility.yul\":5026:5048   */\n      add\n        /* \"#utility.yul\":5005:5058   */\n      tag_209\n      jump\t// in\n    tag_287:\n        /* \"#utility.yul\":4995:5058   */\n      swap2\n      pop\n        /* \"#utility.yul\":4951:5068   */\n      pop\n        /* \"#utility.yul\":4746:5075   */\n      swap3\n      swap2\n      pop\n      pop\n      jump\t// out\n        /* \"#utility.yul\":5081:5199   */\n    tag_218:\n        /* \"#utility.yul\":5168:5192   */\n      tag_289\n        /* \"#utility.yul\":5186:5191   */\n      dup2\n        /* \"#utility.yul\":5168:5192   */\n      tag_207\n      jump\t// in\n    tag_289:\n        /* \"#utility.yul\":5163:5166   */\n      dup3\n        /* \"#utility.yul\":5156:5193   */\n      mstore\n        /* \"#utility.yul\":5081:5199   */\n      pop\n      pop\n      jump\t// out\n        /* \"#utility.yul\":5205:5427   */\n    tag_53:\n        /* \"#utility.yul\":5298:5302   */\n      0x00\n        /* \"#utility.yul\":5336:5338   */\n      0x20\n        /* \"#utility.yul\":5325:5334   */\n      dup3\n        /* \"#utility.yul\":5321:5339   */\n      add\n        /* \"#utility.yul\":5313:5339   */\n      swap1\n      pop\n        /* \"#utility.yul\":5349:5420   */\n      tag_291\n        /* \"#utility.yul\":5417:5418   */\n      0x00\n        /* \"#utility.yul\":5406:5415   */\n      dup4\n        /* \"#utility.yul\":5402:5419   */\n      add\n        /* \"#utility.yul\":5393:5399   */\n      dup5\n        /* \"#utility.yul\":5349:5420   */\n      tag_218\n      jump\t// in\n    tag_291:\n        /* \"#utility.yul\":5205:5427   */\n      swap3\n      swap2\n      pop\n      pop\n      jump\t// out\n        /* \"#utility.yul\":5433:5762   */\n    tag_62:\n        /* \"#utility.yul\":5492:5498   */\n      0x00\n        /* \"#utility.yul\":5541:5543   */\n      0x20\n        /* \"#utility.yul\":5529:5538   */\n      dup3\n        /* \"#utility.yul\":5520:5527   */\n      dup5\n        /* \"#utility.yul\":5516:5539   */\n      sub\n        /* \"#utility.yul\":5512:5544   */\n      slt\n        /* \"#utility.yul\":5509:5628   */\n      iszero\n      tag_293\n      jumpi\n        /* \"#utility.yul\":5547:5626   */\n      tag_294\n      tag_204\n      jump\t// in\n    tag_294:\n        /* \"#utility.yul\":5509:5628   */\n    tag_293:\n        /* \"#utility.yul\":5667:5668   */\n      0x00\n        /* \"#utility.yul\":5692:5745   */\n      tag_295\n        /* \"#utility.yul\":5737:5744   */\n      dup5\n        /* \"#utility.yul\":5728:5734   */\n      dup3\n        /* \"#utility.yul\":5717:5726   */\n      dup6\n        /* \"#utility.yul\":5713:5735   */\n      add\n        /* \"#utility.yul\":5692:5745   */\n      tag_212\n      jump\t// in\n    tag_295:\n        /* \"#utility.yul\":5682:5745   */\n      swap2\n      pop\n        /* \"#utility.yul\":5638:5755   */\n      pop\n        /* \"#utility.yul\":5433:5762   */\n      swap3\n      swap2\n      pop\n      pop\n      jump\t// out\n        /* \"#utility.yul\":5768:6242   */\n    tag_70:\n        /* \"#utility.yul\":5836:5842   */\n      0x00\n        /* \"#utility.yul\":5844:5850   */\n      dup1\n        /* \"#utility.yul\":5893:5895   */\n      0x40\n        /* \"#utility.yul\":5881:5890   */\n      dup4\n        /* \"#utility.yul\":5872:5879   */\n      dup6\n        /* \"#utility.yul\":5868:5891   */\n      sub\n        /* \"#utility.yul\":5864:5896   */\n      slt\n        /* \"#utility.yul\":5861:5980   */\n      iszero\n      tag_297\n      jumpi\n        /* \"#utility.yul\":5899:5978   */\n      tag_298\n      tag_204\n      jump\t// in\n    tag_298:\n        /* \"#utility.yul\":5861:5980   */\n    tag_297:\n        /* \"#utility.yul\":6019:6020   */\n      0x00\n        /* \"#utility.yul\":6044:6097   */\n      tag_299\n        /* \"#utility.yul\":6089:6096   */\n      dup6\n        /* \"#utility.yul\":6080:6086   */\n      dup3\n        /* \"#utility.yul\":6069:6078   */\n      dup7\n        /* \"#utility.yul\":6065:6087   */\n      add\n        /* \"#utility.yul\":6044:6097   */\n      tag_209\n      jump\t// in\n    tag_299:\n        /* \"#utility.yul\":6034:6097   */\n      swap3\n      pop\n        /* \"#utility.yul\":5990:6107   */\n      pop\n        /* \"#utility.yul\":6146:6148   */\n      0x20\n        /* \"#utility.yul\":6172:6225   */\n      tag_300\n        /* \"#utility.yul\":6217:6224   */\n      dup6\n        /* \"#utility.yul\":6208:6214   */\n      dup3\n        /* \"#utility.yul\":6197:6206   */\n      dup7\n        /* \"#utility.yul\":6193:6215   */\n      add\n        /* \"#utility.yul\":6172:6225   */\n      tag_209\n      jump\t// in\n    tag_300:\n        /* \"#utility.yul\":6162:6225   */\n      swap2\n      pop\n        /* \"#utility.yul\":6117:6235   */\n      pop\n        /* \"#utility.yul\":5768:6242   */\n      swap3\n      pop\n      swap3\n      swap1\n      pop\n      jump\t// out\n        /* \"#utility.yul\":6248:6428   */\n    tag_219:\n        /* \"#utility.yul\":6296:6373   */\n      0x4e487b7100000000000000000000000000000000000000000000000000000000\n        /* \"#utility.yul\":6293:6294   */\n      0x00\n        /* \"#utility.yul\":6286:6374   */\n      mstore\n        /* \"#utility.yul\":6393:6397   */\n      0x22\n        /* \"#utility.yul\":6390:6391   */\n      0x04\n        /* \"#utility.yul\":6383:6398   */\n      mstore\n        /* \"#utility.yul\":6417:6421   */\n      0x24\n        /* \"#utility.yul\":6414:6415   */\n      0x00\n        /* \"#utility.yul\":6407:6422   */\n      revert\n        /* \"#utility.yul\":6434:6754   */\n    tag_78:\n        /* \"#utility.yul\":6478:6484   */\n      0x00\n        /* \"#utility.yul\":6515:6516   */\n      0x02\n        /* \"#utility.yul\":6509:6513   */\n      dup3\n        /* \"#utility.yul\":6505:6517   */\n      div\n        /* \"#utility.yul\":6495:6517   */\n      swap1\n      pop\n        /* \"#utility.yul\":6562:6563   */\n      0x01\n        /* \"#utility.yul\":6556:6560   */\n      dup3\n        /* \"#utility.yul\":6552:6564   */\n      and\n        /* \"#utility.yul\":6583:6601   */\n      dup1\n        /* \"#utility.yul\":6573:6654   */\n      tag_303\n      jumpi\n        /* \"#utility.yul\":6639:6643   */\n      0x7f\n        /* \"#utility.yul\":6631:6637   */\n      dup3\n        /* \"#utility.yul\":6627:6644   */\n      and\n        /* \"#utility.yul\":6617:6644   */\n      swap2\n      pop\n        /* \"#utility.yul\":6573:6654   */\n    tag_303:\n        /* \"#utility.yul\":6701:6703   */\n      0x20\n        /* \"#utility.yul\":6693:6699   */\n      dup3\n        /* \"#utility.yul\":6690:6704   */\n      lt\n        /* \"#utility.yul\":6670:6688   */\n      dup2\n        /* \"#utility.yul\":6667:6705   */\n      sub\n        /* \"#utility.yul\":6664:6748   */\n      tag_304\n      jumpi\n        /* \"#utility.yul\":6720:6738   */\n      tag_305\n      tag_219\n      jump\t// in\n    tag_305:\n        /* \"#utility.yul\":6664:6748   */\n    tag_304:\n        /* \"#utility.yul\":6485:6754   */\n      pop\n        /* \"#utility.yul\":6434:6754   */\n      swap2\n      swap1\n      pop\n      jump\t// out\n        /* \"#utility.yul\":6760:6940   */\n    tag_220:\n        /* \"#utility.yul\":6808:6885   */\n      0x4e487b7100000000000000000000000000000000000000000000000000000000\n        /* \"#utility.yul\":6805:6806   */\n      0x00\n        /* \"#utility.yul\":6798:6886   */\n      mstore\n        /* \"#utility.yul\":6905:6909   */\n      0x11\n        /* \"#utility.yul\":6902:6903   */\n      0x04\n        /* \"#utility.yul\":6895:6910   */\n      mstore\n        /* \"#utility.yul\":6929:6933   */\n      0x24\n        /* \"#utility.yul\":6926:6927   */\n      0x00\n        /* \"#utility.yul\":6919:6934   */\n      revert\n        /* \"#utility.yul\":6946:7137   */\n    tag_112:\n        /* \"#utility.yul\":6986:6989   */\n      0x00\n        /* \"#utility.yul\":7005:7025   */\n      tag_308\n        /* \"#utility.yul\":7023:7024   */\n      dup3\n        /* \"#utility.yul\":7005:7025   */\n      tag_210\n      jump\t// in\n    tag_308:\n        /* \"#utility.yul\":7000:7025   */\n      swap2\n      pop\n        /* \"#utility.yul\":7039:7059   */\n      tag_309\n        /* \"#utility.yul\":7057:7058   */\n      dup4\n        /* \"#utility.yul\":7039:7059   */\n      tag_210\n      jump\t// in\n    tag_309:\n        /* \"#utility.yul\":7034:7059   */\n      swap3\n      pop\n        /* \"#utility.yul\":7082:7083   */\n      dup3\n        /* \"#utility.yul\":7079:7080   */\n      dup3\n        /* \"#utility.yul\":7075:7084   */\n      add\n        /* \"#utility.yul\":7068:7084   */\n      swap1\n      pop\n        /* \"#utility.yul\":7103:7106   */\n      dup1\n        /* \"#utility.yul\":7100:7101   */\n      dup3\n        /* \"#utility.yul\":7097:7107   */\n      gt\n        /* \"#utility.yul\":7094:7130   */\n      iszero\n      tag_310\n      jumpi\n        /* \"#utility.yul\":7110:7128   */\n      tag_311\n      tag_220\n      jump\t// in\n    tag_311:\n        /* \"#utility.yul\":7094:7130   */\n    tag_310:\n        /* \"#utility.yul\":6946:7137   */\n      swap3\n      swap2\n      pop\n      pop\n      jump\t// out\n        /* \"#utility.yul\":7143:7320   */\n    tag_221:\n        /* \"#utility.yul\":7283:7312   */\n      0x776169742031206d696e75746520666f722065616368206d696e740000000000\n        /* \"#utility.yul\":7279:7280   */\n      0x00\n        /* \"#utility.yul\":7271:7277   */\n      dup3\n        /* \"#utility.yul\":7267:7281   */\n      add\n        /* \"#utility.yul\":7260:7313   */\n      mstore\n        /* \"#utility.yul\":7143:7320   */\n      pop\n      jump\t// out\n        /* \"#utility.yul\":7326:7692   */\n    tag_222:\n        /* \"#utility.yul\":7468:7471   */\n      0x00\n        /* \"#utility.yul\":7489:7556   */\n      tag_314\n        /* \"#utility.yul\":7553:7555   */\n      0x1b\n        /* \"#utility.yul\":7548:7551   */\n      dup4\n        /* \"#utility.yul\":7489:7556   */\n      tag_199\n      jump\t// in\n    tag_314:\n        /* \"#utility.yul\":7482:7556   */\n      swap2\n      pop\n        /* \"#utility.yul\":7565:7658   */\n      tag_315\n        /* \"#utility.yul\":7654:7657   */\n      dup3\n        /* \"#utility.yul\":7565:7658   */\n      tag_221\n      jump\t// in\n    tag_315:\n        /* \"#utility.yul\":7683:7685   */\n      0x20\n        /* \"#utility.yul\":7678:7681   */\n      dup3\n        /* \"#utility.yul\":7674:7686   */\n      add\n        /* \"#utility.yul\":7667:7686   */\n      swap1\n      pop\n        /* \"#utility.yul\":7326:7692   */\n      swap2\n      swap1\n      pop\n      jump\t// out\n        /* \"#utility.yul\":7698:8117   */\n    tag_115:\n        /* \"#utility.yul\":7864:7868   */\n      0x00\n        /* \"#utility.yul\":7902:7904   */\n      0x20\n        /* \"#utility.yul\":7891:7900   */\n      dup3\n        /* \"#utility.yul\":7887:7905   */\n      add\n        /* \"#utility.yul\":7879:7905   */\n      swap1\n      pop\n        /* \"#utility.yul\":7951:7960   */\n      dup2\n        /* \"#utility.yul\":7945:7949   */\n      dup2\n        /* \"#utility.yul\":7941:7961   */\n      sub\n        /* \"#utility.yul\":7937:7938   */\n      0x00\n        /* \"#utility.yul\":7926:7935   */\n      dup4\n        /* \"#utility.yul\":7922:7939   */\n      add\n        /* \"#utility.yul\":7915:7962   */\n      mstore\n        /* \"#utility.yul\":7979:8110   */\n      tag_317\n        /* \"#utility.yul\":8105:8109   */\n      dup2\n        /* \"#utility.yul\":7979:8110   */\n      tag_222\n      jump\t// in\n    tag_317:\n        /* \"#utility.yul\":7971:8110   */\n      swap1\n      pop\n        /* \"#utility.yul\":7698:8117   */\n      swap2\n      swap1\n      pop\n      jump\t// out\n        /* \"#utility.yul\":8123:8225   */\n    tag_223:\n        /* \"#utility.yul\":8165:8173   */\n      0x00\n        /* \"#utility.yul\":8212:8217   */\n      dup2\n        /* \"#utility.yul\":8209:8210   */\n      0x01\n        /* \"#utility.yul\":8205:8218   */\n      shr\n        /* \"#utility.yul\":8184:8218   */\n      swap1\n      pop\n        /* \"#utility.yul\":8123:8225   */\n      swap2\n      swap1\n      pop\n      jump\t// out\n        /* \"#utility.yul\":8231:9079   */\n    tag_224:\n        /* \"#utility.yul\":8292:8297   */\n      0x00\n        /* \"#utility.yul\":8299:8303   */\n      dup1\n        /* \"#utility.yul\":8323:8329   */\n      dup3\n        /* \"#utility.yul\":8314:8329   */\n      swap2\n      pop\n        /* \"#utility.yul\":8347:8352   */\n      dup4\n        /* \"#utility.yul\":8338:8352   */\n      swap1\n      pop\n        /* \"#utility.yul\":8361:9073   */\n    tag_320:\n        /* \"#utility.yul\":8382:8383   */\n      0x01\n        /* \"#utility.yul\":8372:8380   */\n      dup6\n        /* \"#utility.yul\":8369:8384   */\n      gt\n        /* \"#utility.yul\":8361:9073   */\n      iszero\n      tag_322\n      jumpi\n        /* \"#utility.yul\":8477:8481   */\n      dup1\n        /* \"#utility.yul\":8472:8475   */\n      dup7\n        /* \"#utility.yul\":8468:8482   */\n      div\n        /* \"#utility.yul\":8462:8466   */\n      dup2\n        /* \"#utility.yul\":8459:8483   */\n      gt\n        /* \"#utility.yul\":8456:8506   */\n      iszero\n      tag_323\n      jumpi\n        /* \"#utility.yul\":8486:8504   */\n      tag_324\n      tag_220\n      jump\t// in\n    tag_324:\n        /* \"#utility.yul\":8456:8506   */\n    tag_323:\n        /* \"#utility.yul\":8536:8537   */\n      0x01\n        /* \"#utility.yul\":8526:8534   */\n      dup6\n        /* \"#utility.yul\":8522:8538   */\n      and\n        /* \"#utility.yul\":8519:8970   */\n      iszero\n      tag_325\n      jumpi\n        /* \"#utility.yul\":8951:8955   */\n      dup1\n        /* \"#utility.yul\":8944:8949   */\n      dup3\n        /* \"#utility.yul\":8940:8956   */\n      mul\n        /* \"#utility.yul\":8931:8956   */\n      swap2\n      pop\n        /* \"#utility.yul\":8519:8970   */\n    tag_325:\n        /* \"#utility.yul\":9001:9005   */\n      dup1\n        /* \"#utility.yul\":8995:8999   */\n      dup2\n        /* \"#utility.yul\":8991:9006   */\n      mul\n        /* \"#utility.yul\":8983:9006   */\n      swap1\n      pop\n        /* \"#utility.yul\":9031:9063   */\n      tag_326\n        /* \"#utility.yul\":9054:9062   */\n      dup6\n        /* \"#utility.yul\":9031:9063   */\n      tag_223\n      jump\t// in\n    tag_326:\n        /* \"#utility.yul\":9019:9063   */\n      swap5\n      pop\n        /* \"#utility.yul\":8361:9073   */\n      jump(tag_320)\n    tag_322:\n        /* \"#utility.yul\":8231:9079   */\n      swap5\n      pop\n      swap5\n      swap3\n      pop\n      pop\n      pop\n      jump\t// out\n        /* \"#utility.yul\":9085:10158   */\n    tag_225:\n        /* \"#utility.yul\":9139:9144   */\n      0x00\n        /* \"#utility.yul\":9330:9338   */\n      dup3\n        /* \"#utility.yul\":9320:9360   */\n      tag_328\n      jumpi\n        /* \"#utility.yul\":9351:9352   */\n      0x01\n        /* \"#utility.yul\":9342:9352   */\n      swap1\n      pop\n        /* \"#utility.yul\":9353:9358   */\n      jump(tag_327)\n        /* \"#utility.yul\":9320:9360   */\n    tag_328:\n        /* \"#utility.yul\":9379:9383   */\n      dup2\n        /* \"#utility.yul\":9369:9405   */\n      tag_329\n      jumpi\n        /* \"#utility.yul\":9396:9397   */\n      0x00\n        /* \"#utility.yul\":9387:9397   */\n      swap1\n      pop\n        /* \"#utility.yul\":9398:9403   */\n      jump(tag_327)\n        /* \"#utility.yul\":9369:9405   */\n    tag_329:\n        /* \"#utility.yul\":9465:9469   */\n      dup2\n        /* \"#utility.yul\":9513:9514   */\n      0x01\n        /* \"#utility.yul\":9508:9535   */\n      dup2\n      eq\n      tag_331\n      jumpi\n        /* \"#utility.yul\":9549:9550   */\n      0x02\n        /* \"#utility.yul\":9544:9735   */\n      dup2\n      eq\n      tag_332\n      jumpi\n        /* \"#utility.yul\":9458:9735   */\n      jump(tag_330)\n        /* \"#utility.yul\":9508:9535   */\n    tag_331:\n        /* \"#utility.yul\":9526:9527   */\n      0x01\n        /* \"#utility.yul\":9517:9527   */\n      swap2\n      pop\n        /* \"#utility.yul\":9528:9533   */\n      pop\n      jump(tag_327)\n        /* \"#utility.yul\":9544:9735   */\n    tag_332:\n        /* \"#utility.yul\":9589:9592   */\n      0xff\n        /* \"#utility.yul\":9579:9587   */\n      dup5\n        /* \"#utility.yul\":9576:9593   */\n      gt\n        /* \"#utility.yul\":9573:9616   */\n      iszero\n      tag_333\n      jumpi\n        /* \"#utility.yul\":9596:9614   */\n      tag_334\n      tag_220\n      jump\t// in\n    tag_334:\n        /* \"#utility.yul\":9573:9616   */\n    tag_333:\n        /* \"#utility.yul\":9645:9653   */\n      dup4\n        /* \"#utility.yul\":9642:9643   */\n      0x02\n        /* \"#utility.yul\":9638:9654   */\n      exp\n        /* \"#utility.yul\":9629:9654   */\n      swap2\n      pop\n        /* \"#utility.yul\":9680:9683   */\n      dup5\n        /* \"#utility.yul\":9673:9678   */\n      dup3\n        /* \"#utility.yul\":9670:9684   */\n      gt\n        /* \"#utility.yul\":9667:9707   */\n      iszero\n      tag_335\n      jumpi\n        /* \"#utility.yul\":9687:9705   */\n      tag_336\n      tag_220\n      jump\t// in\n    tag_336:\n        /* \"#utility.yul\":9667:9707   */\n    tag_335:\n        /* \"#utility.yul\":9720:9725   */\n      pop\n      jump(tag_327)\n        /* \"#utility.yul\":9458:9735   */\n    tag_330:\n      pop\n        /* \"#utility.yul\":9844:9846   */\n      0x20\n        /* \"#utility.yul\":9834:9842   */\n      dup4\n        /* \"#utility.yul\":9831:9847   */\n      lt\n        /* \"#utility.yul\":9825:9828   */\n      0x0133\n        /* \"#utility.yul\":9819:9823   */\n      dup4\n        /* \"#utility.yul\":9816:9829   */\n      lt\n        /* \"#utility.yul\":9812:9848   */\n      and\n        /* \"#utility.yul\":9794:9796   */\n      0x4e\n        /* \"#utility.yul\":9784:9792   */\n      dup5\n        /* \"#utility.yul\":9781:9797   */\n      lt\n        /* \"#utility.yul\":9776:9778   */\n      0x0b\n        /* \"#utility.yul\":9770:9774   */\n      dup5\n        /* \"#utility.yul\":9767:9779   */\n      lt\n        /* \"#utility.yul\":9763:9798   */\n      and\n        /* \"#utility.yul\":9747:9858   */\n      or\n        /* \"#utility.yul\":9744:9990   */\n      iszero\n      tag_337\n      jumpi\n        /* \"#utility.yul\":9900:9908   */\n      dup3\n        /* \"#utility.yul\":9894:9898   */\n      dup3\n        /* \"#utility.yul\":9890:9909   */\n      exp\n        /* \"#utility.yul\":9881:9909   */\n      swap1\n      pop\n        /* \"#utility.yul\":9935:9938   */\n      dup4\n        /* \"#utility.yul\":9928:9933   */\n      dup2\n        /* \"#utility.yul\":9925:9939   */\n      gt\n        /* \"#utility.yul\":9922:9962   */\n      iszero\n      tag_338\n      jumpi\n        /* \"#utility.yul\":9942:9960   */\n      tag_339\n      tag_220\n      jump\t// in\n    tag_339:\n        /* \"#utility.yul\":9922:9962   */\n    tag_338:\n        /* \"#utility.yul\":9975:9980   */\n      jump(tag_327)\n        /* \"#utility.yul\":9744:9990   */\n    tag_337:\n        /* \"#utility.yul\":10015:10057   */\n      tag_340\n        /* \"#utility.yul\":10053:10056   */\n      dup5\n        /* \"#utility.yul\":10043:10051   */\n      dup5\n        /* \"#utility.yul\":10037:10041   */\n      dup5\n        /* \"#utility.yul\":10034:10035   */\n      0x01\n        /* \"#utility.yul\":10015:10057   */\n      tag_224\n      jump\t// in\n    tag_340:\n        /* \"#utility.yul\":10000:10057   */\n      swap3\n      pop\n      swap1\n      pop\n        /* \"#utility.yul\":10089:10093   */\n      dup2\n        /* \"#utility.yul\":10084:10087   */\n      dup5\n        /* \"#utility.yul\":10080:10094   */\n      div\n        /* \"#utility.yul\":10073:10078   */\n      dup2\n        /* \"#utility.yul\":10070:10095   */\n      gt\n        /* \"#utility.yul\":10067:10118   */\n      iszero\n      tag_341\n      jumpi\n        /* \"#utility.yul\":10098:10116   */\n      tag_342\n      tag_220\n      jump\t// in\n    tag_342:\n        /* \"#utility.yul\":10067:10118   */\n    tag_341:\n        /* \"#utility.yul\":10147:10151   */\n      dup2\n        /* \"#utility.yul\":10140:10145   */\n      dup2\n        /* \"#utility.yul\":10136:10152   */\n      mul\n        /* \"#utility.yul\":10127:10152   */\n      swap1\n      pop\n        /* \"#utility.yul\":9085:10158   */\n    tag_327:\n      swap4\n      swap3\n      pop\n      pop\n      pop\n      jump\t// out\n        /* \"#utility.yul\":10164:10445   */\n    tag_118:\n        /* \"#utility.yul\":10222:10227   */\n      0x00\n        /* \"#utility.yul\":10246:10269   */\n      tag_344\n        /* \"#utility.yul\":10264:10268   */\n      dup3\n        /* \"#utility.yul\":10246:10269   */\n      tag_210\n      jump\t// in\n    tag_344:\n        /* \"#utility.yul\":10238:10269   */\n      swap2\n      pop\n        /* \"#utility.yul\":10290:10315   */\n      tag_345\n        /* \"#utility.yul\":10306:10314   */\n      dup4\n        /* \"#utility.yul\":10290:10315   */\n      tag_216\n      jump\t// in\n    tag_345:\n        /* \"#utility.yul\":10278:10315   */\n      swap3\n      pop\n        /* \"#utility.yul\":10334:10438   */\n      tag_346\n        /* \"#utility.yul\":10371:10437   */\n      0xffffffffffffffffffffffffffffffffffffffffffffffffffffffffffffffff\n        /* \"#utility.yul\":10361:10369   */\n      dup5\n        /* \"#utility.yul\":10355:10359   */\n      dup5\n        /* \"#utility.yul\":10334:10438   */\n      tag_225\n      jump\t// in\n    tag_346:\n        /* \"#utility.yul\":10325:10438   */\n      swap1\n      pop\n        /* \"#utility.yul\":10164:10445   */\n      swap3\n      swap2\n      pop\n      pop\n      jump\t// out\n        /* \"#utility.yul\":10451:10861   */\n    tag_120:\n        /* \"#utility.yul\":10491:10498   */\n      0x00\n        /* \"#utility.yul\":10514:10534   */\n      tag_348\n        /* \"#utility.yul\":10532:10533   */\n      dup3\n        /* \"#utility.yul\":10514:10534   */\n      tag_210\n      jump\t// in\n    tag_348:\n        /* \"#utility.yul\":10509:10534   */\n      swap2\n      pop\n        /* \"#utility.yul\":10548:10568   */\n      tag_349\n        /* \"#utility.yul\":10566:10567   */\n      dup4\n        /* \"#utility.yul\":10548:10568   */\n      tag_210\n      jump\t// in\n    tag_349:\n        /* \"#utility.yul\":10543:10568   */\n      swap3\n      pop\n        /* \"#utility.yul\":10603:10604   */\n      dup3\n        /* \"#utility.yul\":10600:10601   */\n      dup3\n        /* \"#utility.yul\":10596:10605   */\n      mul\n        /* \"#utility.yul\":10625:10655   */\n      tag_350\n        /* \"#utility.yul\":10643:10654   */\n      dup2\n        /* \"#utility.yul\":10625:10655   */\n      tag_210\n      jump\t// in\n    tag_350:\n        /* \"#utility.yul\":10614:10655   */\n      swap2\n      pop\n        /* \"#utility.yul\":10804:10805   */\n      dup3\n        /* \"#utility.yul\":10795:10802   */\n      dup3\n        /* \"#utility.yul\":10791:10806   */\n      div\n        /* \"#utility.yul\":10788:10789   */\n      dup5\n        /* \"#utility.yul\":10785:10807   */\n      eq\n        /* \"#utility.yul\":10765:10766   */\n      dup4\n        /* \"#utility.yul\":10758:10767   */\n      iszero\n        /* \"#utility.yul\":10738:10821   */\n      or\n        /* \"#utility.yul\":10715:10854   */\n      tag_351\n      jumpi\n        /* \"#utility.yul\":10834:10852   */\n      tag_352\n      tag_220\n      jump\t// in\n    tag_352:\n        /* \"#utility.yul\":10715:10854   */\n    tag_351:\n        /* \"#utility.yul\":10499:10861   */\n      pop\n        /* \"#utility.yul\":10451:10861   */\n      swap3\n      swap2\n      pop\n      pop\n      jump\t// out\n        /* \"#utility.yul\":10867:11043   */\n    tag_226:\n        /* \"#utility.yul\":11007:11035   */\n      0x4d6178696d756d206d696e7420616d6f756e7420697320313030000000000000\n        /* \"#utility.yul\":11003:11004   */\n      0x00\n        /* \"#utility.yul\":10995:11001   */\n      dup3\n        /* \"#utility.yul\":10991:11005   */\n      add\n        /* \"#utility.yul\":10984:11036   */\n      mstore\n        /* \"#utility.yul\":10867:11043   */\n      pop\n      jump\t// out\n        /* \"#utility.yul\":11049:11415   */\n    tag_227:\n        /* \"#utility.yul\":11191:11194   */\n      0x00\n        /* \"#utility.yul\":11212:11279   */\n      tag_355\n        /* \"#utility.yul\":11276:11278   */\n      0x1a\n        /* \"#utility.yul\":11271:11274   */\n      dup4\n        /* \"#utility.yul\":11212:11279   */\n      tag_199\n      jump\t// in\n    tag_355:\n        /* \"#utility.yul\":11205:11279   */\n      swap2\n      pop\n        /* \"#utility.yul\":11288:11381   */\n      tag_356\n        /* \"#utility.yul\":11377:11380   */\n      dup3\n        /* \"#utility.yul\":11288:11381   */\n      tag_226\n      jump\t// in\n    tag_356:\n        /* \"#utility.yul\":11406:11408   */\n      0x20\n        /* \"#utility.yul\":11401:11404   */\n      dup3\n        /* \"#utility.yul\":11397:11409   */\n      add\n        /* \"#utility.yul\":11390:11409   */\n      swap1\n      pop\n        /* \"#utility.yul\":11049:11415   */\n      swap2\n      swap1\n      pop\n      jump\t// out\n        /* \"#utility.yul\":11421:11840   */\n    tag_126:\n        /* \"#utility.yul\":11587:11591   */\n      0x00\n        /* \"#utility.yul\":11625:11627   */\n      0x20\n        /* \"#utility.yul\":11614:11623   */\n      dup3\n        /* \"#utility.yul\":11610:11628   */\n      add\n        /* \"#utility.yul\":11602:11628   */\n      swap1\n      pop\n        /* \"#utility.yul\":11674:11683   */\n      dup2\n        /* \"#utility.yul\":11668:11672   */\n      dup2\n        /* \"#utility.yul\":11664:11684   */\n      sub\n        /* \"#utility.yul\":11660:11661   */\n      0x00\n        /* \"#utility.yul\":11649:11658   */\n      dup4\n        /* \"#utility.yul\":11645:11662   */\n      add\n        /* \"#utility.yul\":11638:11685   */\n      mstore\n        /* \"#utility.yul\":11702:11833   */\n      tag_358\n        /* \"#utility.yul\":11828:11832   */\n      dup2\n        /* \"#utility.yul\":11702:11833   */\n      tag_227\n      jump\t// in\n    tag_358:\n        /* \"#utility.yul\":11694:11833   */\n      swap1\n      pop\n        /* \"#utility.yul\":11421:11840   */\n      swap2\n      swap1\n      pop\n      jump\t// out\n        /* \"#utility.yul\":11846:12014   */\n    tag_228:\n        /* \"#utility.yul\":11986:12006   */\n      0x546f74616c737570706c79206578636565640000000000000000000000000000\n        /* \"#utility.yul\":11982:11983   */\n      0x00\n        /* \"#utility.yul\":11974:11980   */\n      dup3\n        /* \"#utility.yul\":11970:11984   */\n      add\n        /* \"#utility.yul\":11963:12007   */\n      mstore\n        /* \"#utility.yul\":11846:12014   */\n      pop\n      jump\t// out\n        /* \"#utility.yul\":12020:12386   */\n    tag_229:\n        /* \"#utility.yul\":12162:12165   */\n      0x00\n        /* \"#utility.yul\":12183:12250   */\n      tag_361\n        /* \"#utility.yul\":12247:12249   */\n      0x12\n        /* \"#utility.yul\":12242:12245   */\n      dup4\n        /* \"#utility.yul\":12183:12250   */\n      tag_199\n      jump\t// in\n    tag_361:\n        /* \"#utility.yul\":12176:12250   */\n      swap2\n      pop\n        /* \"#utility.yul\":12259:12352   */\n      tag_362\n        /* \"#utility.yul\":12348:12351   */\n      dup3\n        /* \"#utility.yul\":12259:12352   */\n      tag_228\n      jump\t// in\n    tag_362:\n        /* \"#utility.yul\":12377:12379   */\n      0x20\n        /* \"#utility.yul\":12372:12375   */\n      dup3\n        /* \"#utility.yul\":12368:12380   */\n      add\n        /* \"#utility.yul\":12361:12380   */\n      swap1\n      pop\n        /* \"#utility.yul\":12020:12386   */\n      swap2\n      swap1\n      pop\n      jump\t// out\n        /* \"#utility.yul\":12392:12811   */\n    tag_134:\n        /* \"#utility.yul\":12558:12562   */\n      0x00\n        /* \"#utility.yul\":12596:12598   */\n      0x20\n        /* \"#utility.yul\":12585:12594   */\n      dup3\n        /* \"#utility.yul\":12581:12599   */\n      add\n        /* \"#utility.yul\":12573:12599   */\n      swap1\n      pop\n        /* \"#utility.yul\":12645:12654   */\n      dup2\n        /* \"#utility.yul\":12639:12643   */\n      dup2\n        /* \"#utility.yul\":12635:12655   */\n      sub\n        /* \"#utility.yul\":12631:12632   */\n      0x00\n        /* \"#utility.yul\":12620:12629   */\n      dup4\n        /* \"#utility.yul\":12616:12633   */\n      add\n        /* \"#utility.yul\":12609:12656   */\n      mstore\n        /* \"#utility.yul\":12673:12804   */\n      tag_364\n        /* \"#utility.yul\":12799:12803   */\n      dup2\n        /* \"#utility.yul\":12673:12804   */\n      tag_229\n      jump\t// in\n    tag_364:\n        /* \"#utility.yul\":12665:12804   */\n      swap1\n      pop\n        /* \"#utility.yul\":12392:12811   */\n      swap2\n      swap1\n      pop\n      jump\t// out\n        /* \"#utility.yul\":12817:13259   */\n    tag_162:\n        /* \"#utility.yul\":12966:12970   */\n      0x00\n        /* \"#utility.yul\":13004:13006   */\n      0x60\n        /* \"#utility.yul\":12993:13002   */\n      dup3\n        /* \"#utility.yul\":12989:13007   */\n      add\n        /* \"#utility.yul\":12981:13007   */\n      swap1\n      pop\n        /* \"#utility.yul\":13017:13088   */\n      tag_366\n        /* \"#utility.yul\":13085:13086   */\n      0x00\n        /* \"#utility.yul\":13074:13083   */\n      dup4\n        /* \"#utility.yul\":13070:13087   */\n      add\n        /* \"#utility.yul\":13061:13067   */\n      dup7\n        /* \"#utility.yul\":13017:13088   */\n      tag_218\n      jump\t// in\n    tag_366:\n        /* \"#utility.yul\":13098:13170   */\n      tag_367\n        /* \"#utility.yul\":13166:13168   */\n      0x20\n        /* \"#utility.yul\":13155:13164   */\n      dup4\n        /* \"#utility.yul\":13151:13169   */\n      add\n        /* \"#utility.yul\":13142:13148   */\n      dup6\n        /* \"#utility.yul\":13098:13170   */\n      tag_215\n      jump\t// in\n    tag_367:\n        /* \"#utility.yul\":13180:13252   */\n      tag_368\n        /* \"#utility.yul\":13248:13250   */\n      0x40\n        /* \"#utility.yul\":13237:13246   */\n      dup4\n        /* \"#utility.yul\":13233:13251   */\n      add\n        /* \"#utility.yul\":13224:13230   */\n      dup5\n        /* \"#utility.yul\":13180:13252   */\n      tag_215\n      jump\t// in\n    tag_368:\n        /* \"#utility.yul\":12817:13259   */\n      swap5\n      swap4\n      pop\n      pop\n      pop\n      pop\n      jump\t// out\n\n    auxdata: 0xa264697066735822122095fb092d7fd56e535a3367c094f92e59725c515f1b6de35f2a7c7dc4bbe4f85164736f6c634300081a0033\n}\n",
				"bytecode": {
					"linkReferences": {},
					"object": "608060405234801561000f575f80fd5b5060405161213e38038061213e83398181016040528101906100319190610543565b806040518060400160405280600b81526020017f526577617264546f6b656e0000000000000000000000000000000000000000008152506040518060400160405280600381526020017f525754000000000000000000000000000000000000000000000000000000000081525081600390816100ad91906107a8565b5080600490816100bd91906107a8565b5050505f73ffffffffffffffffffffffffffffffffffffffff168173ffffffffffffffffffffffffffffffffffffffff1603610130575f6040517f1e4fbdf70000000000000000000000000000000000000000000000000000000081526004016101279190610886565b60405180910390fd5b61013f8161017c60201b60201c565b506101763361015261023f60201b60201c565b600a61015e9190610a07565b61271061016b9190610a51565b61024760201b60201c565b50610b22565b5f60055f9054906101000a900473ffffffffffffffffffffffffffffffffffffffff1690508160055f6101000a81548173ffffffffffffffffffffffffffffffffffffffff021916908373ffffffffffffffffffffffffffffffffffffffff1602179055508173ffffffffffffffffffffffffffffffffffffffff168173ffffffffffffffffffffffffffffffffffffffff167f8be0079c531659141344cd1fd0a4f28419497f9722a3daafe3b4186f6b6457e060405160405180910390a35050565b5f6012905090565b5f73ffffffffffffffffffffffffffffffffffffffff168273ffffffffffffffffffffffffffffffffffffffff16036102b7575f6040517fec442f050000000000000000000000000000000000000000000000000000000081526004016102ae9190610886565b60405180910390fd5b6102c85f83836102cc60201b60201c565b5050565b5f73ffffffffffffffffffffffffffffffffffffffff168373ffffffffffffffffffffffffffffffffffffffff160361031c578060025f8282546103109190610a92565b925050819055506103ea565b5f805f8573ffffffffffffffffffffffffffffffffffffffff1673ffffffffffffffffffffffffffffffffffffffff1681526020019081526020015f20549050818110156103a5578381836040517fe450d38c00000000000000000000000000000000000000000000000000000000815260040161039c93929190610ad4565b60405180910390fd5b8181035f808673ffffffffffffffffffffffffffffffffffffffff1673ffffffffffffffffffffffffffffffffffffffff1681526020019081526020015f2081905550505b5f73ffffffffffffffffffffffffffffffffffffffff168273ffffffffffffffffffffffffffffffffffffffff1603610431578060025f828254039250508190555061047b565b805f808473ffffffffffffffffffffffffffffffffffffffff1673ffffffffffffffffffffffffffffffffffffffff1681526020019081526020015f205f82825401925050819055505b8173ffffffffffffffffffffffffffffffffffffffff168373ffffffffffffffffffffffffffffffffffffffff167fddf252ad1be2c89b69c2b068fc378daa952ba7f163c4a11628f55a4df523b3ef836040516104d89190610b09565b60405180910390a3505050565b5f80fd5b5f73ffffffffffffffffffffffffffffffffffffffff82169050919050565b5f610512826104e9565b9050919050565b61052281610508565b811461052c575f80fd5b50565b5f8151905061053d81610519565b92915050565b5f60208284031215610558576105576104e5565b5b5f6105658482850161052f565b91505092915050565b5f81519050919050565b7f4e487b71000000000000000000000000000000000000000000000000000000005f52604160045260245ffd5b7f4e487b71000000000000000000000000000000000000000000000000000000005f52602260045260245ffd5b5f60028204905060018216806105e957607f821691505b6020821081036105fc576105fb6105a5565b5b50919050565b5f819050815f5260205f209050919050565b5f6020601f8301049050919050565b5f82821b905092915050565b5f6008830261065e7fffffffffffffffffffffffffffffffffffffffffffffffffffffffffffffffff82610623565b6106688683610623565b95508019841693508086168417925050509392505050565b5f819050919050565b5f819050919050565b5f6106ac6106a76106a284610680565b610689565b610680565b9050919050565b5f819050919050565b6106c583610692565b6106d96106d1826106b3565b84845461062f565b825550505050565b5f90565b6106ed6106e1565b6106f88184846106bc565b505050565b5b8181101561071b576107105f826106e5565b6001810190506106fe565b5050565b601f8211156107605761073181610602565b61073a84610614565b81016020851015610749578190505b61075d61075585610614565b8301826106fd565b50505b505050565b5f82821c905092915050565b5f6107805f1984600802610765565b1980831691505092915050565b5f6107988383610771565b9150826002028217905092915050565b6107b18261056e565b67ffffffffffffffff8111156107ca576107c9610578565b5b6107d482546105d2565b6107df82828561071f565b5f60209050601f831160018114610810575f84156107fe578287015190505b610808858261078d565b86555061086f565b601f19841661081e86610602565b5f5b8281101561084557848901518255600182019150602085019450602081019050610820565b86831015610862578489015161085e601f891682610771565b8355505b6001600288020188555050505b505050505050565b61088081610508565b82525050565b5f6020820190506108995f830184610877565b92915050565b7f4e487b71000000000000000000000000000000000000000000000000000000005f52601160045260245ffd5b5f8160011c9050919050565b5f808291508390505b6001851115610921578086048111156108fd576108fc61089f565b5b600185161561090c5780820291505b808102905061091a856108cc565b94506108e1565b94509492505050565b5f8261093957600190506109f4565b81610946575f90506109f4565b816001811461095c576002811461096657610995565b60019150506109f4565b60ff8411156109785761097761089f565b5b8360020a91508482111561098f5761098e61089f565b5b506109f4565b5060208310610133831016604e8410600b84101617156109ca5782820a9050838111156109c5576109c461089f565b5b6109f4565b6109d784848460016108d8565b925090508184048111156109ee576109ed61089f565b5b81810290505b9392505050565b5f60ff82169050919050565b5f610a1182610680565b9150610a1c836109fb565b9250610a497fffffffffffffffffffffffffffffffffffffffffffffffffffffffffffffffff848461092a565b905092915050565b5f610a5b82610680565b9150610a6683610680565b9250828202610a7481610680565b91508282048414831517610a8b57610a8a61089f565b5b5092915050565b5f610a9c82610680565b9150610aa783610680565b9250828201905080821115610abf57610abe61089f565b5b92915050565b610ace81610680565b82525050565b5f606082019050610ae75f830186610877565b610af46020830185610ac5565b610b016040830184610ac5565b949350505050565b5f602082019050610b1c5f830184610ac5565b92915050565b61160f80610b2f5f395ff3fe608060405234801561000f575f80fd5b50600436106100e8575f3560e01c80638da5cb5b1161008a578063a0712d6811610064578063a0712d6814610238578063a9059cbb14610254578063dd62ed3e14610284578063f2fde38b146102b4576100e8565b80638da5cb5b146101e057806395d89b41146101fe5780639a49090e1461021c576100e8565b806323b872dd116100c657806323b872dd14610158578063313ce5671461018857806370a08231146101a6578063715018a6146101d6576100e8565b806306fdde03146100ec578063095ea7b31461010a57806318160ddd1461013a575b5f80fd5b6100f46102d0565b6040516101019190610f6b565b60405180910390f35b610124600480360381019061011f919061101c565b610360565b6040516101319190611074565b60405180910390f35b610142610382565b60405161014f919061109c565b60405180910390f35b610172600480360381019061016d91906110b5565b61038b565b60405161017f9190611074565b60405180910390f35b6101906103b9565b60405161019d9190611120565b60405180910390f35b6101c060048036038101906101bb9190611139565b6103c1565b6040516101cd919061109c565b60405180910390f35b6101de610406565b005b6101e8610419565b6040516101f59190611173565b60405180910390f35b610206610441565b6040516102139190610f6b565b60405180910390f35b6102366004803603810190610231919061101c565b6104d1565b005b610252600480360381019061024d919061118c565b61062d565b005b61026e6004803603810190610269919061101c565b610686565b60405161027b9190611074565b60405180910390f35b61029e600480360381019061029991906111b7565b6106a8565b6040516102ab919061109c565b60405180910390f35b6102ce60048036038101906102c99190611139565b61072a565b005b6060600380546102df90611222565b80601f016020809104026020016040519081016040528092919081815260200182805461030b90611222565b80156103565780601f1061032d57610100808354040283529160200191610356565b820191905f5260205f20905b81548152906001019060200180831161033957829003601f168201915b5050505050905090565b5f8061036a6107ae565b90506103778185856107b5565b600191505092915050565b5f600254905090565b5f806103956107ae565b90506103a28582856107c7565b6103ad85858561085a565b60019150509392505050565b5f6012905090565b5f805f8373ffffffffffffffffffffffffffffffffffffffff1673ffffffffffffffffffffffffffffffffffffffff1681526020019081526020015f20549050919050565b61040e61094a565b6104175f6109d1565b565b5f60055f9054906101000a900473ffffffffffffffffffffffffffffffffffffffff16905090565b60606004805461045090611222565b80601f016020809104026020016040519081016040528092919081815260200182805461047c90611222565b80156104c75780601f1061049e576101008083540402835291602001916104c7565b820191905f5260205f20905b8154815290600101906020018083116104aa57829003601f168201915b5050505050905090565b42603c6006546104e1919061127f565b1115610522576040517f08c379a0000000000000000000000000000000000000000000000000000000008152600401610519906112fc565b60405180910390fd5b61052a6103b9565b600a6105369190611449565b60646105429190611493565b61054a6103b9565b600a6105569190611449565b826105619190611493565b11156105a2576040517f08c379a00000000000000000000000000000000000000000000000000000000081526004016105999061151e565b60405180910390fd5b6105aa6103b9565b600a6105b69190611449565b620f42406105c49190611493565b816105cd610382565b6105d7919061127f565b1115610618576040517f08c379a000000000000000000000000000000000000000000000000000000000815260040161060f90611586565b60405180910390fd5b6106228282610a94565b426006819055505050565b61063561094a565b6064811115610679576040517f08c379a00000000000000000000000000000000000000000000000000000000081526004016106709061151e565b60405180910390fd5b6106833382610a94565b50565b5f806106906107ae565b905061069d81858561085a565b600191505092915050565b5f60015f8473ffffffffffffffffffffffffffffffffffffffff1673ffffffffffffffffffffffffffffffffffffffff1681526020019081526020015f205f8373ffffffffffffffffffffffffffffffffffffffff1673ffffffffffffffffffffffffffffffffffffffff1681526020019081526020015f2054905092915050565b61073261094a565b5f73ffffffffffffffffffffffffffffffffffffffff168173ffffffffffffffffffffffffffffffffffffffff16036107a2575f6040517f1e4fbdf70000000000000000000000000000000000000000000000000000000081526004016107999190611173565b60405180910390fd5b6107ab816109d1565b50565b5f33905090565b6107c28383836001610b13565b505050565b5f6107d284846106a8565b90507fffffffffffffffffffffffffffffffffffffffffffffffffffffffffffffffff8110156108545781811015610845578281836040517ffb8f41b200000000000000000000000000000000000000000000000000000000815260040161083c939291906115a4565b60405180910390fd5b61085384848484035f610b13565b5b50505050565b5f73ffffffffffffffffffffffffffffffffffffffff168373ffffffffffffffffffffffffffffffffffffffff16036108ca575f6040517f96c6fd1e0000000000000000000000000000000000000000000000000000000081526004016108c19190611173565b60405180910390fd5b5f73ffffffffffffffffffffffffffffffffffffffff168273ffffffffffffffffffffffffffffffffffffffff160361093a575f6040517fec442f050000000000000000000000000000000000000000000000000000000081526004016109319190611173565b60405180910390fd5b610945838383610ce2565b505050565b6109526107ae565b73ffffffffffffffffffffffffffffffffffffffff16610970610419565b73ffffffffffffffffffffffffffffffffffffffff16146109cf576109936107ae565b6040517f118cdaa70000000000000000000000000000000000000000000000000000000081526004016109c69190611173565b60405180910390fd5b565b5f60055f9054906101000a900473ffffffffffffffffffffffffffffffffffffffff1690508160055f6101000a81548173ffffffffffffffffffffffffffffffffffffffff021916908373ffffffffffffffffffffffffffffffffffffffff1602179055508173ffffffffffffffffffffffffffffffffffffffff168173ffffffffffffffffffffffffffffffffffffffff167f8be0079c531659141344cd1fd0a4f28419497f9722a3daafe3b4186f6b6457e060405160405180910390a35050565b5f73ffffffffffffffffffffffffffffffffffffffff168273ffffffffffffffffffffffffffffffffffffffff1603610b04575f6040517fec442f05000000000000000000000000000000000000000000000000000000008152600401610afb9190611173565b60405180910390fd5b610b0f5f8383610ce2565b5050565b5f73ffffffffffffffffffffffffffffffffffffffff168473ffffffffffffffffffffffffffffffffffffffff1603610b83575f6040517fe602df05000000000000000000000000000000000000000000000000000000008152600401610b7a9190611173565b60405180910390fd5b5f73ffffffffffffffffffffffffffffffffffffffff168373ffffffffffffffffffffffffffffffffffffffff1603610bf3575f6040517f94280d62000000000000000000000000000000000000000000000000000000008152600401610bea9190611173565b60405180910390fd5b8160015f8673ffffffffffffffffffffffffffffffffffffffff1673ffffffffffffffffffffffffffffffffffffffff1681526020019081526020015f205f8573ffffffffffffffffffffffffffffffffffffffff1673ffffffffffffffffffffffffffffffffffffffff1681526020019081526020015f20819055508015610cdc578273ffffffffffffffffffffffffffffffffffffffff168473ffffffffffffffffffffffffffffffffffffffff167f8c5be1e5ebec7d5bd14f71427d1e84f3dd0314c0f7b2291e5b200ac8c7c3b92584604051610cd3919061109c565b60405180910390a35b50505050565b5f73ffffffffffffffffffffffffffffffffffffffff168373ffffffffffffffffffffffffffffffffffffffff1603610d32578060025f828254610d26919061127f565b92505081905550610e00565b5f805f8573ffffffffffffffffffffffffffffffffffffffff1673ffffffffffffffffffffffffffffffffffffffff1681526020019081526020015f2054905081811015610dbb578381836040517fe450d38c000000000000000000000000000000000000000000000000000000008152600401610db2939291906115a4565b60405180910390fd5b8181035f808673ffffffffffffffffffffffffffffffffffffffff1673ffffffffffffffffffffffffffffffffffffffff1681526020019081526020015f2081905550505b5f73ffffffffffffffffffffffffffffffffffffffff168273ffffffffffffffffffffffffffffffffffffffff1603610e47578060025f8282540392505081905550610e91565b805f808473ffffffffffffffffffffffffffffffffffffffff1673ffffffffffffffffffffffffffffffffffffffff1681526020019081526020015f205f82825401925050819055505b8173ffffffffffffffffffffffffffffffffffffffff168373ffffffffffffffffffffffffffffffffffffffff167fddf252ad1be2c89b69c2b068fc378daa952ba7f163c4a11628f55a4df523b3ef83604051610eee919061109c565b60405180910390a3505050565b5f81519050919050565b5f82825260208201905092915050565b8281835e5f83830152505050565b5f601f19601f8301169050919050565b5f610f3d82610efb565b610f478185610f05565b9350610f57818560208601610f15565b610f6081610f23565b840191505092915050565b5f6020820190508181035f830152610f838184610f33565b905092915050565b5f80fd5b5f73ffffffffffffffffffffffffffffffffffffffff82169050919050565b5f610fb882610f8f565b9050919050565b610fc881610fae565b8114610fd2575f80fd5b50565b5f81359050610fe381610fbf565b92915050565b5f819050919050565b610ffb81610fe9565b8114611005575f80fd5b50565b5f8135905061101681610ff2565b92915050565b5f806040838503121561103257611031610f8b565b5b5f61103f85828601610fd5565b925050602061105085828601611008565b9150509250929050565b5f8115159050919050565b61106e8161105a565b82525050565b5f6020820190506110875f830184611065565b92915050565b61109681610fe9565b82525050565b5f6020820190506110af5f83018461108d565b92915050565b5f805f606084860312156110cc576110cb610f8b565b5b5f6110d986828701610fd5565b93505060206110ea86828701610fd5565b92505060406110fb86828701611008565b9150509250925092565b5f60ff82169050919050565b61111a81611105565b82525050565b5f6020820190506111335f830184611111565b92915050565b5f6020828403121561114e5761114d610f8b565b5b5f61115b84828501610fd5565b91505092915050565b61116d81610fae565b82525050565b5f6020820190506111865f830184611164565b92915050565b5f602082840312156111a1576111a0610f8b565b5b5f6111ae84828501611008565b91505092915050565b5f80604083850312156111cd576111cc610f8b565b5b5f6111da85828601610fd5565b92505060206111eb85828601610fd5565b9150509250929050565b7f4e487b71000000000000000000000000000000000000000000000000000000005f52602260045260245ffd5b5f600282049050600182168061123957607f821691505b60208210810361124c5761124b6111f5565b5b50919050565b7f4e487b71000000000000000000000000000000000000000000000000000000005f52601160045260245ffd5b5f61128982610fe9565b915061129483610fe9565b92508282019050808211156112ac576112ab611252565b5b92915050565b7f776169742031206d696e75746520666f722065616368206d696e7400000000005f82015250565b5f6112e6601b83610f05565b91506112f1826112b2565b602082019050919050565b5f6020820190508181035f830152611313816112da565b9050919050565b5f8160011c9050919050565b5f808291508390505b600185111561136f5780860481111561134b5761134a611252565b5b600185161561135a5780820291505b80810290506113688561131a565b945061132f565b94509492505050565b5f826113875760019050611442565b81611394575f9050611442565b81600181146113aa57600281146113b4576113e3565b6001915050611442565b60ff8411156113c6576113c5611252565b5b8360020a9150848211156113dd576113dc611252565b5b50611442565b5060208310610133831016604e8410600b84101617156114185782820a90508381111561141357611412611252565b5b611442565b6114258484846001611326565b9250905081840481111561143c5761143b611252565b5b81810290505b9392505050565b5f61145382610fe9565b915061145e83611105565b925061148b7fffffffffffffffffffffffffffffffffffffffffffffffffffffffffffffffff8484611378565b905092915050565b5f61149d82610fe9565b91506114a883610fe9565b92508282026114b681610fe9565b915082820484148315176114cd576114cc611252565b5b5092915050565b7f4d6178696d756d206d696e7420616d6f756e74206973203130300000000000005f82015250565b5f611508601a83610f05565b9150611513826114d4565b602082019050919050565b5f6020820190508181035f830152611535816114fc565b9050919050565b7f546f74616c737570706c792065786365656400000000000000000000000000005f82015250565b5f611570601283610f05565b915061157b8261153c565b602082019050919050565b5f6020820190508181035f83015261159d81611564565b9050919050565b5f6060820190506115b75f830186611164565b6115c4602083018561108d565b6115d1604083018461108d565b94935050505056fea264697066735822122095fb092d7fd56e535a3367c094f92e59725c515f1b6de35f2a7c7dc4bbe4f85164736f6c634300081a0033",
					"opcodes": "PUSH1 0x80 PUSH1 0x40 MSTORE CALLVALUE DUP1 ISZERO PUSH2 0xF JUMPI PUSH0 DUP1 REVERT JUMPDEST POP PUSH1 0x40 MLOAD PUSH2 0x213E CODESIZE SUB DUP1 PUSH2 0x213E DUP4 CODECOPY DUP2 DUP2 ADD PUSH1 0x40 MSTORE DUP2 ADD SWAP1 PUSH2 0x31 SWAP2 SWAP1 PUSH2 0x543 JUMP JUMPDEST DUP1 PUSH1 0x40 MLOAD DUP1 PUSH1 0x40 ADD PUSH1 0x40 MSTORE DUP1 PUSH1 0xB DUP2 MSTORE PUSH1 0x20 ADD PUSH32 0x526577617264546F6B656E000000000000000000000000000000000000000000 DUP2 MSTORE POP PUSH1 0x40 MLOAD DUP1 PUSH1 0x40 ADD PUSH1 0x40 MSTORE DUP1 PUSH1 0x3 DUP2 MSTORE PUSH1 0x20 ADD PUSH32 0x5257540000000000000000000000000000000000000000000000000000000000 DUP2 MSTORE POP DUP2 PUSH1 0x3 SWAP1 DUP2 PUSH2 0xAD SWAP2 SWAP1 PUSH2 0x7A8 JUMP JUMPDEST POP DUP1 PUSH1 0x4 SWAP1 DUP2 PUSH2 0xBD SWAP2 SWAP1 PUSH2 0x7A8 JUMP JUMPDEST POP POP POP PUSH0 PUSH20 0xFFFFFFFFFFFFFFFFFFFFFFFFFFFFFFFFFFFFFFFF AND DUP2 PUSH20 0xFFFFFFFFFFFFFFFFFFFFFFFFFFFFFFFFFFFFFFFF AND SUB PUSH2 0x130 JUMPI PUSH0 PUSH1 0x40 MLOAD PUSH32 0x1E4FBDF700000000000000000000000000000000000000000000000000000000 DUP2 MSTORE PUSH1 0x4 ADD PUSH2 0x127 SWAP2 SWAP1 PUSH2 0x886 JUMP JUMPDEST PUSH1 0x40 MLOAD DUP1 SWAP2 SUB SWAP1 REVERT JUMPDEST PUSH2 0x13F DUP2 PUSH2 0x17C PUSH1 0x20 SHL PUSH1 0x20 SHR JUMP JUMPDEST POP PUSH2 0x176 CALLER PUSH2 0x152 PUSH2 0x23F PUSH1 0x20 SHL PUSH1 0x20 SHR JUMP JUMPDEST PUSH1 0xA PUSH2 0x15E SWAP2 SWAP1 PUSH2 0xA07 JUMP JUMPDEST PUSH2 0x2710 PUSH2 0x16B SWAP2 SWAP1 PUSH2 0xA51 JUMP JUMPDEST PUSH2 0x247 PUSH1 0x20 SHL PUSH1 0x20 SHR JUMP JUMPDEST POP PUSH2 0xB22 JUMP JUMPDEST PUSH0 PUSH1 0x5 PUSH0 SWAP1 SLOAD SWAP1 PUSH2 0x100 EXP SWAP1 DIV PUSH20 0xFFFFFFFFFFFFFFFFFFFFFFFFFFFFFFFFFFFFFFFF AND SWAP1 POP DUP2 PUSH1 0x5 PUSH0 PUSH2 0x100 EXP DUP2 SLOAD DUP2 PUSH20 0xFFFFFFFFFFFFFFFFFFFFFFFFFFFFFFFFFFFFFFFF MUL NOT AND SWAP1 DUP4 PUSH20 0xFFFFFFFFFFFFFFFFFFFFFFFFFFFFFFFFFFFFFFFF AND MUL OR SWAP1 SSTORE POP DUP2 PUSH20 0xFFFFFFFFFFFFFFFFFFFFFFFFFFFFFFFFFFFFFFFF AND DUP2 PUSH20 0xFFFFFFFFFFFFFFFFFFFFFFFFFFFFFFFFFFFFFFFF AND PUSH32 0x8BE0079C531659141344CD1FD0A4F28419497F9722A3DAAFE3B4186F6B6457E0 PUSH1 0x40 MLOAD PUSH1 0x40 MLOAD DUP1 SWAP2 SUB SWAP1 LOG3 POP POP JUMP JUMPDEST PUSH0 PUSH1 0x12 SWAP1 POP SWAP1 JUMP JUMPDEST PUSH0 PUSH20 0xFFFFFFFFFFFFFFFFFFFFFFFFFFFFFFFFFFFFFFFF AND DUP3 PUSH20 0xFFFFFFFFFFFFFFFFFFFFFFFFFFFFFFFFFFFFFFFF AND SUB PUSH2 0x2B7 JUMPI PUSH0 PUSH1 0x40 MLOAD PUSH32 0xEC442F0500000000000000000000000000000000000000000000000000000000 DUP2 MSTORE PUSH1 0x4 ADD PUSH2 0x2AE SWAP2 SWAP1 PUSH2 0x886 JUMP JUMPDEST PUSH1 0x40 MLOAD DUP1 SWAP2 SUB SWAP1 REVERT JUMPDEST PUSH2 0x2C8 PUSH0 DUP4 DUP4 PUSH2 0x2CC PUSH1 0x20 SHL PUSH1 0x20 SHR JUMP JUMPDEST POP POP JUMP JUMPDEST PUSH0 PUSH20 0xFFFFFFFFFFFFFFFFFFFFFFFFFFFFFFFFFFFFFFFF AND DUP4 PUSH20 0xFFFFFFFFFFFFFFFFFFFFFFFFFFFFFFFFFFFFFFFF AND SUB PUSH2 0x31C JUMPI DUP1 PUSH1 0x2 PUSH0 DUP3 DUP3 SLOAD PUSH2 0x310 SWAP2 SWAP1 PUSH2 0xA92 JUMP JUMPDEST SWAP3 POP POP DUP2 SWAP1 SSTORE POP PUSH2 0x3EA JUMP JUMPDEST PUSH0 DUP1 PUSH0 DUP6 PUSH20 0xFFFFFFFFFFFFFFFFFFFFFFFFFFFFFFFFFFFFFFFF AND PUSH20 0xFFFFFFFFFFFFFFFFFFFFFFFFFFFFFFFFFFFFFFFF AND DUP2 MSTORE PUSH1 0x20 ADD SWAP1 DUP2 MSTORE PUSH1 0x20 ADD PUSH0 KECCAK256 SLOAD SWAP1 POP DUP2 DUP2 LT ISZERO PUSH2 0x3A5 JUMPI DUP4 DUP2 DUP4 PUSH1 0x40 MLOAD PUSH32 0xE450D38C00000000000000000000000000000000000000000000000000000000 DUP2 MSTORE PUSH1 0x4 ADD PUSH2 0x39C SWAP4 SWAP3 SWAP2 SWAP1 PUSH2 0xAD4 JUMP JUMPDEST PUSH1 0x40 MLOAD DUP1 SWAP2 SUB SWAP1 REVERT JUMPDEST DUP2 DUP2 SUB PUSH0 DUP1 DUP7 PUSH20 0xFFFFFFFFFFFFFFFFFFFFFFFFFFFFFFFFFFFFFFFF AND PUSH20 0xFFFFFFFFFFFFFFFFFFFFFFFFFFFFFFFFFFFFFFFF AND DUP2 MSTORE PUSH1 0x20 ADD SWAP1 DUP2 MSTORE PUSH1 0x20 ADD PUSH0 KECCAK256 DUP2 SWAP1 SSTORE POP POP JUMPDEST PUSH0 PUSH20 0xFFFFFFFFFFFFFFFFFFFFFFFFFFFFFFFFFFFFFFFF AND DUP3 PUSH20 0xFFFFFFFFFFFFFFFFFFFFFFFFFFFFFFFFFFFFFFFF AND SUB PUSH2 0x431 JUMPI DUP1 PUSH1 0x2 PUSH0 DUP3 DUP3 SLOAD SUB SWAP3 POP POP DUP2 SWAP1 SSTORE POP PUSH2 0x47B JUMP JUMPDEST DUP1 PUSH0 DUP1 DUP5 PUSH20 0xFFFFFFFFFFFFFFFFFFFFFFFFFFFFFFFFFFFFFFFF AND PUSH20 0xFFFFFFFFFFFFFFFFFFFFFFFFFFFFFFFFFFFFFFFF AND DUP2 MSTORE PUSH1 0x20 ADD SWAP1 DUP2 MSTORE PUSH1 0x20 ADD PUSH0 KECCAK256 PUSH0 DUP3 DUP3 SLOAD ADD SWAP3 POP POP DUP2 SWAP1 SSTORE POP JUMPDEST DUP2 PUSH20 0xFFFFFFFFFFFFFFFFFFFFFFFFFFFFFFFFFFFFFFFF AND DUP4 PUSH20 0xFFFFFFFFFFFFFFFFFFFFFFFFFFFFFFFFFFFFFFFF AND PUSH32 0xDDF252AD1BE2C89B69C2B068FC378DAA952BA7F163C4A11628F55A4DF523B3EF DUP4 PUSH1 0x40 MLOAD PUSH2 0x4D8 SWAP2 SWAP1 PUSH2 0xB09 JUMP JUMPDEST PUSH1 0x40 MLOAD DUP1 SWAP2 SUB SWAP1 LOG3 POP POP POP JUMP JUMPDEST PUSH0 DUP1 REVERT JUMPDEST PUSH0 PUSH20 0xFFFFFFFFFFFFFFFFFFFFFFFFFFFFFFFFFFFFFFFF DUP3 AND SWAP1 POP SWAP2 SWAP1 POP JUMP JUMPDEST PUSH0 PUSH2 0x512 DUP3 PUSH2 0x4E9 JUMP JUMPDEST SWAP1 POP SWAP2 SWAP1 POP JUMP JUMPDEST PUSH2 0x522 DUP2 PUSH2 0x508 JUMP JUMPDEST DUP2 EQ PUSH2 0x52C JUMPI PUSH0 DUP1 REVERT JUMPDEST POP JUMP JUMPDEST PUSH0 DUP2 MLOAD SWAP1 POP PUSH2 0x53D DUP2 PUSH2 0x519 JUMP JUMPDEST SWAP3 SWAP2 POP POP JUMP JUMPDEST PUSH0 PUSH1 0x20 DUP3 DUP5 SUB SLT ISZERO PUSH2 0x558 JUMPI PUSH2 0x557 PUSH2 0x4E5 JUMP JUMPDEST JUMPDEST PUSH0 PUSH2 0x565 DUP5 DUP3 DUP6 ADD PUSH2 0x52F JUMP JUMPDEST SWAP2 POP POP SWAP3 SWAP2 POP POP JUMP JUMPDEST PUSH0 DUP2 MLOAD SWAP1 POP SWAP2 SWAP1 POP JUMP JUMPDEST PUSH32 0x4E487B7100000000000000000000000000000000000000000000000000000000 PUSH0 MSTORE PUSH1 0x41 PUSH1 0x4 MSTORE PUSH1 0x24 PUSH0 REVERT JUMPDEST PUSH32 0x4E487B7100000000000000000000000000000000000000000000000000000000 PUSH0 MSTORE PUSH1 0x22 PUSH1 0x4 MSTORE PUSH1 0x24 PUSH0 REVERT JUMPDEST PUSH0 PUSH1 0x2 DUP3 DIV SWAP1 POP PUSH1 0x1 DUP3 AND DUP1 PUSH2 0x5E9 JUMPI PUSH1 0x7F DUP3 AND SWAP2 POP JUMPDEST PUSH1 0x20 DUP3 LT DUP2 SUB PUSH2 0x5FC JUMPI PUSH2 0x5FB PUSH2 0x5A5 JUMP JUMPDEST JUMPDEST POP SWAP2 SWAP1 POP JUMP JUMPDEST PUSH0 DUP2 SWAP1 POP DUP2 PUSH0 MSTORE PUSH1 0x20 PUSH0 KECCAK256 SWAP1 POP SWAP2 SWAP1 POP JUMP JUMPDEST PUSH0 PUSH1 0x20 PUSH1 0x1F DUP4 ADD DIV SWAP1 POP SWAP2 SWAP1 POP JUMP JUMPDEST PUSH0 DUP3 DUP3 SHL SWAP1 POP SWAP3 SWAP2 POP POP JUMP JUMPDEST PUSH0 PUSH1 0x8 DUP4 MUL PUSH2 0x65E PUSH32 0xFFFFFFFFFFFFFFFFFFFFFFFFFFFFFFFFFFFFFFFFFFFFFFFFFFFFFFFFFFFFFFFF DUP3 PUSH2 0x623 JUMP JUMPDEST PUSH2 0x668 DUP7 DUP4 PUSH2 0x623 JUMP JUMPDEST SWAP6 POP DUP1 NOT DUP5 AND SWAP4 POP DUP1 DUP7 AND DUP5 OR SWAP3 POP POP POP SWAP4 SWAP3 POP POP POP JUMP JUMPDEST PUSH0 DUP2 SWAP1 POP SWAP2 SWAP1 POP JUMP JUMPDEST PUSH0 DUP2 SWAP1 POP SWAP2 SWAP1 POP JUMP JUMPDEST PUSH0 PUSH2 0x6AC PUSH2 0x6A7 PUSH2 0x6A2 DUP5 PUSH2 0x680 JUMP JUMPDEST PUSH2 0x689 JUMP JUMPDEST PUSH2 0x680 JUMP JUMPDEST SWAP1 POP SWAP2 SWAP1 POP JUMP JUMPDEST PUSH0 DUP2 SWAP1 POP SWAP2 SWAP1 POP JUMP JUMPDEST PUSH2 0x6C5 DUP4 PUSH2 0x692 JUMP JUMPDEST PUSH2 0x6D9 PUSH2 0x6D1 DUP3 PUSH2 0x6B3 JUMP JUMPDEST DUP5 DUP5 SLOAD PUSH2 0x62F JUMP JUMPDEST DUP3 SSTORE POP POP POP POP JUMP JUMPDEST PUSH0 SWAP1 JUMP JUMPDEST PUSH2 0x6ED PUSH2 0x6E1 JUMP JUMPDEST PUSH2 0x6F8 DUP2 DUP5 DUP5 PUSH2 0x6BC JUMP JUMPDEST POP POP POP JUMP JUMPDEST JUMPDEST DUP2 DUP2 LT ISZERO PUSH2 0x71B JUMPI PUSH2 0x710 PUSH0 DUP3 PUSH2 0x6E5 JUMP JUMPDEST PUSH1 0x1 DUP2 ADD SWAP1 POP PUSH2 0x6FE JUMP JUMPDEST POP POP JUMP JUMPDEST PUSH1 0x1F DUP3 GT ISZERO PUSH2 0x760 JUMPI PUSH2 0x731 DUP2 PUSH2 0x602 JUMP JUMPDEST PUSH2 0x73A DUP5 PUSH2 0x614 JUMP JUMPDEST DUP2 ADD PUSH1 0x20 DUP6 LT ISZERO PUSH2 0x749 JUMPI DUP2 SWAP1 POP JUMPDEST PUSH2 0x75D PUSH2 0x755 DUP6 PUSH2 0x614 JUMP JUMPDEST DUP4 ADD DUP3 PUSH2 0x6FD JUMP JUMPDEST POP POP JUMPDEST POP POP POP JUMP JUMPDEST PUSH0 DUP3 DUP3 SHR SWAP1 POP SWAP3 SWAP2 POP POP JUMP JUMPDEST PUSH0 PUSH2 0x780 PUSH0 NOT DUP5 PUSH1 0x8 MUL PUSH2 0x765 JUMP JUMPDEST NOT DUP1 DUP4 AND SWAP2 POP POP SWAP3 SWAP2 POP POP JUMP JUMPDEST PUSH0 PUSH2 0x798 DUP4 DUP4 PUSH2 0x771 JUMP JUMPDEST SWAP2 POP DUP3 PUSH1 0x2 MUL DUP3 OR SWAP1 POP SWAP3 SWAP2 POP POP JUMP JUMPDEST PUSH2 0x7B1 DUP3 PUSH2 0x56E JUMP JUMPDEST PUSH8 0xFFFFFFFFFFFFFFFF DUP2 GT ISZERO PUSH2 0x7CA JUMPI PUSH2 0x7C9 PUSH2 0x578 JUMP JUMPDEST JUMPDEST PUSH2 0x7D4 DUP3 SLOAD PUSH2 0x5D2 JUMP JUMPDEST PUSH2 0x7DF DUP3 DUP3 DUP6 PUSH2 0x71F JUMP JUMPDEST PUSH0 PUSH1 0x20 SWAP1 POP PUSH1 0x1F DUP4 GT PUSH1 0x1 DUP2 EQ PUSH2 0x810 JUMPI PUSH0 DUP5 ISZERO PUSH2 0x7FE JUMPI DUP3 DUP8 ADD MLOAD SWAP1 POP JUMPDEST PUSH2 0x808 DUP6 DUP3 PUSH2 0x78D JUMP JUMPDEST DUP7 SSTORE POP PUSH2 0x86F JUMP JUMPDEST PUSH1 0x1F NOT DUP5 AND PUSH2 0x81E DUP7 PUSH2 0x602 JUMP JUMPDEST PUSH0 JUMPDEST DUP3 DUP2 LT ISZERO PUSH2 0x845 JUMPI DUP5 DUP10 ADD MLOAD DUP3 SSTORE PUSH1 0x1 DUP3 ADD SWAP2 POP PUSH1 0x20 DUP6 ADD SWAP5 POP PUSH1 0x20 DUP2 ADD SWAP1 POP PUSH2 0x820 JUMP JUMPDEST DUP7 DUP4 LT ISZERO PUSH2 0x862 JUMPI DUP5 DUP10 ADD MLOAD PUSH2 0x85E PUSH1 0x1F DUP10 AND DUP3 PUSH2 0x771 JUMP JUMPDEST DUP4 SSTORE POP JUMPDEST PUSH1 0x1 PUSH1 0x2 DUP9 MUL ADD DUP9 SSTORE POP POP POP JUMPDEST POP POP POP POP POP POP JUMP JUMPDEST PUSH2 0x880 DUP2 PUSH2 0x508 JUMP JUMPDEST DUP3 MSTORE POP POP JUMP JUMPDEST PUSH0 PUSH1 0x20 DUP3 ADD SWAP1 POP PUSH2 0x899 PUSH0 DUP4 ADD DUP5 PUSH2 0x877 JUMP JUMPDEST SWAP3 SWAP2 POP POP JUMP JUMPDEST PUSH32 0x4E487B7100000000000000000000000000000000000000000000000000000000 PUSH0 MSTORE PUSH1 0x11 PUSH1 0x4 MSTORE PUSH1 0x24 PUSH0 REVERT JUMPDEST PUSH0 DUP2 PUSH1 0x1 SHR SWAP1 POP SWAP2 SWAP1 POP JUMP JUMPDEST PUSH0 DUP1 DUP3 SWAP2 POP DUP4 SWAP1 POP JUMPDEST PUSH1 0x1 DUP6 GT ISZERO PUSH2 0x921 JUMPI DUP1 DUP7 DIV DUP2 GT ISZERO PUSH2 0x8FD JUMPI PUSH2 0x8FC PUSH2 0x89F JUMP JUMPDEST JUMPDEST PUSH1 0x1 DUP6 AND ISZERO PUSH2 0x90C JUMPI DUP1 DUP3 MUL SWAP2 POP JUMPDEST DUP1 DUP2 MUL SWAP1 POP PUSH2 0x91A DUP6 PUSH2 0x8CC JUMP JUMPDEST SWAP5 POP PUSH2 0x8E1 JUMP JUMPDEST SWAP5 POP SWAP5 SWAP3 POP POP POP JUMP JUMPDEST PUSH0 DUP3 PUSH2 0x939 JUMPI PUSH1 0x1 SWAP1 POP PUSH2 0x9F4 JUMP JUMPDEST DUP2 PUSH2 0x946 JUMPI PUSH0 SWAP1 POP PUSH2 0x9F4 JUMP JUMPDEST DUP2 PUSH1 0x1 DUP2 EQ PUSH2 0x95C JUMPI PUSH1 0x2 DUP2 EQ PUSH2 0x966 JUMPI PUSH2 0x995 JUMP JUMPDEST PUSH1 0x1 SWAP2 POP POP PUSH2 0x9F4 JUMP JUMPDEST PUSH1 0xFF DUP5 GT ISZERO PUSH2 0x978 JUMPI PUSH2 0x977 PUSH2 0x89F JUMP JUMPDEST JUMPDEST DUP4 PUSH1 0x2 EXP SWAP2 POP DUP5 DUP3 GT ISZERO PUSH2 0x98F JUMPI PUSH2 0x98E PUSH2 0x89F JUMP JUMPDEST JUMPDEST POP PUSH2 0x9F4 JUMP JUMPDEST POP PUSH1 0x20 DUP4 LT PUSH2 0x133 DUP4 LT AND PUSH1 0x4E DUP5 LT PUSH1 0xB DUP5 LT AND OR ISZERO PUSH2 0x9CA JUMPI DUP3 DUP3 EXP SWAP1 POP DUP4 DUP2 GT ISZERO PUSH2 0x9C5 JUMPI PUSH2 0x9C4 PUSH2 0x89F JUMP JUMPDEST JUMPDEST PUSH2 0x9F4 JUMP JUMPDEST PUSH2 0x9D7 DUP5 DUP5 DUP5 PUSH1 0x1 PUSH2 0x8D8 JUMP JUMPDEST SWAP3 POP SWAP1 POP DUP2 DUP5 DIV DUP2 GT ISZERO PUSH2 0x9EE JUMPI PUSH2 0x9ED PUSH2 0x89F JUMP JUMPDEST JUMPDEST DUP2 DUP2 MUL SWAP1 POP JUMPDEST SWAP4 SWAP3 POP POP POP JUMP JUMPDEST PUSH0 PUSH1 0xFF DUP3 AND SWAP1 POP SWAP2 SWAP1 POP JUMP JUMPDEST PUSH0 PUSH2 0xA11 DUP3 PUSH2 0x680 JUMP JUMPDEST SWAP2 POP PUSH2 0xA1C DUP4 PUSH2 0x9FB JUMP JUMPDEST SWAP3 POP PUSH2 0xA49 PUSH32 0xFFFFFFFFFFFFFFFFFFFFFFFFFFFFFFFFFFFFFFFFFFFFFFFFFFFFFFFFFFFFFFFF DUP5 DUP5 PUSH2 0x92A JUMP JUMPDEST SWAP1 POP SWAP3 SWAP2 POP POP JUMP JUMPDEST PUSH0 PUSH2 0xA5B DUP3 PUSH2 0x680 JUMP JUMPDEST SWAP2 POP PUSH2 0xA66 DUP4 PUSH2 0x680 JUMP JUMPDEST SWAP3 POP DUP3 DUP3 MUL PUSH2 0xA74 DUP2 PUSH2 0x680 JUMP JUMPDEST SWAP2 POP DUP3 DUP3 DIV DUP5 EQ DUP4 ISZERO OR PUSH2 0xA8B JUMPI PUSH2 0xA8A PUSH2 0x89F JUMP JUMPDEST JUMPDEST POP SWAP3 SWAP2 POP POP JUMP JUMPDEST PUSH0 PUSH2 0xA9C DUP3 PUSH2 0x680 JUMP JUMPDEST SWAP2 POP PUSH2 0xAA7 DUP4 PUSH2 0x680 JUMP JUMPDEST SWAP3 POP DUP3 DUP3 ADD SWAP1 POP DUP1 DUP3 GT ISZERO PUSH2 0xABF JUMPI PUSH2 0xABE PUSH2 0x89F JUMP JUMPDEST JUMPDEST SWAP3 SWAP2 POP POP JUMP JUMPDEST PUSH2 0xACE DUP2 PUSH2 0x680 JUMP JUMPDEST DUP3 MSTORE POP POP JUMP JUMPDEST PUSH0 PUSH1 0x60 DUP3 ADD SWAP1 POP PUSH2 0xAE7 PUSH0 DUP4 ADD DUP7 PUSH2 0x877 JUMP JUMPDEST PUSH2 0xAF4 PUSH1 0x20 DUP4 ADD DUP6 PUSH2 0xAC5 JUMP JUMPDEST PUSH2 0xB01 PUSH1 0x40 DUP4 ADD DUP5 PUSH2 0xAC5 JUMP JUMPDEST SWAP5 SWAP4 POP POP POP POP JUMP JUMPDEST PUSH0 PUSH1 0x20 DUP3 ADD SWAP1 POP PUSH2 0xB1C PUSH0 DUP4 ADD DUP5 PUSH2 0xAC5 JUMP JUMPDEST SWAP3 SWAP2 POP POP JUMP JUMPDEST PUSH2 0x160F DUP1 PUSH2 0xB2F PUSH0 CODECOPY PUSH0 RETURN INVALID PUSH1 0x80 PUSH1 0x40 MSTORE CALLVALUE DUP1 ISZERO PUSH2 0xF JUMPI PUSH0 DUP1 REVERT JUMPDEST POP PUSH1 0x4 CALLDATASIZE LT PUSH2 0xE8 JUMPI PUSH0 CALLDATALOAD PUSH1 0xE0 SHR DUP1 PUSH4 0x8DA5CB5B GT PUSH2 0x8A JUMPI DUP1 PUSH4 0xA0712D68 GT PUSH2 0x64 JUMPI DUP1 PUSH4 0xA0712D68 EQ PUSH2 0x238 JUMPI DUP1 PUSH4 0xA9059CBB EQ PUSH2 0x254 JUMPI DUP1 PUSH4 0xDD62ED3E EQ PUSH2 0x284 JUMPI DUP1 PUSH4 0xF2FDE38B EQ PUSH2 0x2B4 JUMPI PUSH2 0xE8 JUMP JUMPDEST DUP1 PUSH4 0x8DA5CB5B EQ PUSH2 0x1E0 JUMPI DUP1 PUSH4 0x95D89B41 EQ PUSH2 0x1FE JUMPI DUP1 PUSH4 0x9A49090E EQ PUSH2 0x21C JUMPI PUSH2 0xE8 JUMP JUMPDEST DUP1 PUSH4 0x23B872DD GT PUSH2 0xC6 JUMPI DUP1 PUSH4 0x23B872DD EQ PUSH2 0x158 JUMPI DUP1 PUSH4 0x313CE567 EQ PUSH2 0x188 JUMPI DUP1 PUSH4 0x70A08231 EQ PUSH2 0x1A6 JUMPI DUP1 PUSH4 0x715018A6 EQ PUSH2 0x1D6 JUMPI PUSH2 0xE8 JUMP JUMPDEST DUP1 PUSH4 0x6FDDE03 EQ PUSH2 0xEC JUMPI DUP1 PUSH4 0x95EA7B3 EQ PUSH2 0x10A JUMPI DUP1 PUSH4 0x18160DDD EQ PUSH2 0x13A JUMPI JUMPDEST PUSH0 DUP1 REVERT JUMPDEST PUSH2 0xF4 PUSH2 0x2D0 JUMP JUMPDEST PUSH1 0x40 MLOAD PUSH2 0x101 SWAP2 SWAP1 PUSH2 0xF6B JUMP JUMPDEST PUSH1 0x40 MLOAD DUP1 SWAP2 SUB SWAP1 RETURN JUMPDEST PUSH2 0x124 PUSH1 0x4 DUP1 CALLDATASIZE SUB DUP2 ADD SWAP1 PUSH2 0x11F SWAP2 SWAP1 PUSH2 0x101C JUMP JUMPDEST PUSH2 0x360 JUMP JUMPDEST PUSH1 0x40 MLOAD PUSH2 0x131 SWAP2 SWAP1 PUSH2 0x1074 JUMP JUMPDEST PUSH1 0x40 MLOAD DUP1 SWAP2 SUB SWAP1 RETURN JUMPDEST PUSH2 0x142 PUSH2 0x382 JUMP JUMPDEST PUSH1 0x40 MLOAD PUSH2 0x14F SWAP2 SWAP1 PUSH2 0x109C JUMP JUMPDEST PUSH1 0x40 MLOAD DUP1 SWAP2 SUB SWAP1 RETURN JUMPDEST PUSH2 0x172 PUSH1 0x4 DUP1 CALLDATASIZE SUB DUP2 ADD SWAP1 PUSH2 0x16D SWAP2 SWAP1 PUSH2 0x10B5 JUMP JUMPDEST PUSH2 0x38B JUMP JUMPDEST PUSH1 0x40 MLOAD PUSH2 0x17F SWAP2 SWAP1 PUSH2 0x1074 JUMP JUMPDEST PUSH1 0x40 MLOAD DUP1 SWAP2 SUB SWAP1 RETURN JUMPDEST PUSH2 0x190 PUSH2 0x3B9 JUMP JUMPDEST PUSH1 0x40 MLOAD PUSH2 0x19D SWAP2 SWAP1 PUSH2 0x1120 JUMP JUMPDEST PUSH1 0x40 MLOAD DUP1 SWAP2 SUB SWAP1 RETURN JUMPDEST PUSH2 0x1C0 PUSH1 0x4 DUP1 CALLDATASIZE SUB DUP2 ADD SWAP1 PUSH2 0x1BB SWAP2 SWAP1 PUSH2 0x1139 JUMP JUMPDEST PUSH2 0x3C1 JUMP JUMPDEST PUSH1 0x40 MLOAD PUSH2 0x1CD SWAP2 SWAP1 PUSH2 0x109C JUMP JUMPDEST PUSH1 0x40 MLOAD DUP1 SWAP2 SUB SWAP1 RETURN JUMPDEST PUSH2 0x1DE PUSH2 0x406 JUMP JUMPDEST STOP JUMPDEST PUSH2 0x1E8 PUSH2 0x419 JUMP JUMPDEST PUSH1 0x40 MLOAD PUSH2 0x1F5 SWAP2 SWAP1 PUSH2 0x1173 JUMP JUMPDEST PUSH1 0x40 MLOAD DUP1 SWAP2 SUB SWAP1 RETURN JUMPDEST PUSH2 0x206 PUSH2 0x441 JUMP JUMPDEST PUSH1 0x40 MLOAD PUSH2 0x213 SWAP2 SWAP1 PUSH2 0xF6B JUMP JUMPDEST PUSH1 0x40 MLOAD DUP1 SWAP2 SUB SWAP1 RETURN JUMPDEST PUSH2 0x236 PUSH1 0x4 DUP1 CALLDATASIZE SUB DUP2 ADD SWAP1 PUSH2 0x231 SWAP2 SWAP1 PUSH2 0x101C JUMP JUMPDEST PUSH2 0x4D1 JUMP JUMPDEST STOP JUMPDEST PUSH2 0x252 PUSH1 0x4 DUP1 CALLDATASIZE SUB DUP2 ADD SWAP1 PUSH2 0x24D SWAP2 SWAP1 PUSH2 0x118C JUMP JUMPDEST PUSH2 0x62D JUMP JUMPDEST STOP JUMPDEST PUSH2 0x26E PUSH1 0x4 DUP1 CALLDATASIZE SUB DUP2 ADD SWAP1 PUSH2 0x269 SWAP2 SWAP1 PUSH2 0x101C JUMP JUMPDEST PUSH2 0x686 JUMP JUMPDEST PUSH1 0x40 MLOAD PUSH2 0x27B SWAP2 SWAP1 PUSH2 0x1074 JUMP JUMPDEST PUSH1 0x40 MLOAD DUP1 SWAP2 SUB SWAP1 RETURN JUMPDEST PUSH2 0x29E PUSH1 0x4 DUP1 CALLDATASIZE SUB DUP2 ADD SWAP1 PUSH2 0x299 SWAP2 SWAP1 PUSH2 0x11B7 JUMP JUMPDEST PUSH2 0x6A8 JUMP JUMPDEST PUSH1 0x40 MLOAD PUSH2 0x2AB SWAP2 SWAP1 PUSH2 0x109C JUMP JUMPDEST PUSH1 0x40 MLOAD DUP1 SWAP2 SUB SWAP1 RETURN JUMPDEST PUSH2 0x2CE PUSH1 0x4 DUP1 CALLDATASIZE SUB DUP2 ADD SWAP1 PUSH2 0x2C9 SWAP2 SWAP1 PUSH2 0x1139 JUMP JUMPDEST PUSH2 0x72A JUMP JUMPDEST STOP JUMPDEST PUSH1 0x60 PUSH1 0x3 DUP1 SLOAD PUSH2 0x2DF SWAP1 PUSH2 0x1222 JUMP JUMPDEST DUP1 PUSH1 0x1F ADD PUSH1 0x20 DUP1 SWAP2 DIV MUL PUSH1 0x20 ADD PUSH1 0x40 MLOAD SWAP1 DUP2 ADD PUSH1 0x40 MSTORE DUP1 SWAP3 SWAP2 SWAP1 DUP2 DUP2 MSTORE PUSH1 0x20 ADD DUP3 DUP1 SLOAD PUSH2 0x30B SWAP1 PUSH2 0x1222 JUMP JUMPDEST DUP1 ISZERO PUSH2 0x356 JUMPI DUP1 PUSH1 0x1F LT PUSH2 0x32D JUMPI PUSH2 0x100 DUP1 DUP4 SLOAD DIV MUL DUP4 MSTORE SWAP2 PUSH1 0x20 ADD SWAP2 PUSH2 0x356 JUMP JUMPDEST DUP3 ADD SWAP2 SWAP1 PUSH0 MSTORE PUSH1 0x20 PUSH0 KECCAK256 SWAP1 JUMPDEST DUP2 SLOAD DUP2 MSTORE SWAP1 PUSH1 0x1 ADD SWAP1 PUSH1 0x20 ADD DUP1 DUP4 GT PUSH2 0x339 JUMPI DUP3 SWAP1 SUB PUSH1 0x1F AND DUP3 ADD SWAP2 JUMPDEST POP POP POP POP POP SWAP1 POP SWAP1 JUMP JUMPDEST PUSH0 DUP1 PUSH2 0x36A PUSH2 0x7AE JUMP JUMPDEST SWAP1 POP PUSH2 0x377 DUP2 DUP6 DUP6 PUSH2 0x7B5 JUMP JUMPDEST PUSH1 0x1 SWAP2 POP POP SWAP3 SWAP2 POP POP JUMP JUMPDEST PUSH0 PUSH1 0x2 SLOAD SWAP1 POP SWAP1 JUMP JUMPDEST PUSH0 DUP1 PUSH2 0x395 PUSH2 0x7AE JUMP JUMPDEST SWAP1 POP PUSH2 0x3A2 DUP6 DUP3 DUP6 PUSH2 0x7C7 JUMP JUMPDEST PUSH2 0x3AD DUP6 DUP6 DUP6 PUSH2 0x85A JUMP JUMPDEST PUSH1 0x1 SWAP2 POP POP SWAP4 SWAP3 POP POP POP JUMP JUMPDEST PUSH0 PUSH1 0x12 SWAP1 POP SWAP1 JUMP JUMPDEST PUSH0 DUP1 PUSH0 DUP4 PUSH20 0xFFFFFFFFFFFFFFFFFFFFFFFFFFFFFFFFFFFFFFFF AND PUSH20 0xFFFFFFFFFFFFFFFFFFFFFFFFFFFFFFFFFFFFFFFF AND DUP2 MSTORE PUSH1 0x20 ADD SWAP1 DUP2 MSTORE PUSH1 0x20 ADD PUSH0 KECCAK256 SLOAD SWAP1 POP SWAP2 SWAP1 POP JUMP JUMPDEST PUSH2 0x40E PUSH2 0x94A JUMP JUMPDEST PUSH2 0x417 PUSH0 PUSH2 0x9D1 JUMP JUMPDEST JUMP JUMPDEST PUSH0 PUSH1 0x5 PUSH0 SWAP1 SLOAD SWAP1 PUSH2 0x100 EXP SWAP1 DIV PUSH20 0xFFFFFFFFFFFFFFFFFFFFFFFFFFFFFFFFFFFFFFFF AND SWAP1 POP SWAP1 JUMP JUMPDEST PUSH1 0x60 PUSH1 0x4 DUP1 SLOAD PUSH2 0x450 SWAP1 PUSH2 0x1222 JUMP JUMPDEST DUP1 PUSH1 0x1F ADD PUSH1 0x20 DUP1 SWAP2 DIV MUL PUSH1 0x20 ADD PUSH1 0x40 MLOAD SWAP1 DUP2 ADD PUSH1 0x40 MSTORE DUP1 SWAP3 SWAP2 SWAP1 DUP2 DUP2 MSTORE PUSH1 0x20 ADD DUP3 DUP1 SLOAD PUSH2 0x47C SWAP1 PUSH2 0x1222 JUMP JUMPDEST DUP1 ISZERO PUSH2 0x4C7 JUMPI DUP1 PUSH1 0x1F LT PUSH2 0x49E JUMPI PUSH2 0x100 DUP1 DUP4 SLOAD DIV MUL DUP4 MSTORE SWAP2 PUSH1 0x20 ADD SWAP2 PUSH2 0x4C7 JUMP JUMPDEST DUP3 ADD SWAP2 SWAP1 PUSH0 MSTORE PUSH1 0x20 PUSH0 KECCAK256 SWAP1 JUMPDEST DUP2 SLOAD DUP2 MSTORE SWAP1 PUSH1 0x1 ADD SWAP1 PUSH1 0x20 ADD DUP1 DUP4 GT PUSH2 0x4AA JUMPI DUP3 SWAP1 SUB PUSH1 0x1F AND DUP3 ADD SWAP2 JUMPDEST POP POP POP POP POP SWAP1 POP SWAP1 JUMP JUMPDEST TIMESTAMP PUSH1 0x3C PUSH1 0x6 SLOAD PUSH2 0x4E1 SWAP2 SWAP1 PUSH2 0x127F JUMP JUMPDEST GT ISZERO PUSH2 0x522 JUMPI PUSH1 0x40 MLOAD PUSH32 0x8C379A000000000000000000000000000000000000000000000000000000000 DUP2 MSTORE PUSH1 0x4 ADD PUSH2 0x519 SWAP1 PUSH2 0x12FC JUMP JUMPDEST PUSH1 0x40 MLOAD DUP1 SWAP2 SUB SWAP1 REVERT JUMPDEST PUSH2 0x52A PUSH2 0x3B9 JUMP JUMPDEST PUSH1 0xA PUSH2 0x536 SWAP2 SWAP1 PUSH2 0x1449 JUMP JUMPDEST PUSH1 0x64 PUSH2 0x542 SWAP2 SWAP1 PUSH2 0x1493 JUMP JUMPDEST PUSH2 0x54A PUSH2 0x3B9 JUMP JUMPDEST PUSH1 0xA PUSH2 0x556 SWAP2 SWAP1 PUSH2 0x1449 JUMP JUMPDEST DUP3 PUSH2 0x561 SWAP2 SWAP1 PUSH2 0x1493 JUMP JUMPDEST GT ISZERO PUSH2 0x5A2 JUMPI PUSH1 0x40 MLOAD PUSH32 0x8C379A000000000000000000000000000000000000000000000000000000000 DUP2 MSTORE PUSH1 0x4 ADD PUSH2 0x599 SWAP1 PUSH2 0x151E JUMP JUMPDEST PUSH1 0x40 MLOAD DUP1 SWAP2 SUB SWAP1 REVERT JUMPDEST PUSH2 0x5AA PUSH2 0x3B9 JUMP JUMPDEST PUSH1 0xA PUSH2 0x5B6 SWAP2 SWAP1 PUSH2 0x1449 JUMP JUMPDEST PUSH3 0xF4240 PUSH2 0x5C4 SWAP2 SWAP1 PUSH2 0x1493 JUMP JUMPDEST DUP2 PUSH2 0x5CD PUSH2 0x382 JUMP JUMPDEST PUSH2 0x5D7 SWAP2 SWAP1 PUSH2 0x127F JUMP JUMPDEST GT ISZERO PUSH2 0x618 JUMPI PUSH1 0x40 MLOAD PUSH32 0x8C379A000000000000000000000000000000000000000000000000000000000 DUP2 MSTORE PUSH1 0x4 ADD PUSH2 0x60F SWAP1 PUSH2 0x1586 JUMP JUMPDEST PUSH1 0x40 MLOAD DUP1 SWAP2 SUB SWAP1 REVERT JUMPDEST PUSH2 0x622 DUP3 DUP3 PUSH2 0xA94 JUMP JUMPDEST TIMESTAMP PUSH1 0x6 DUP2 SWAP1 SSTORE POP POP POP JUMP JUMPDEST PUSH2 0x635 PUSH2 0x94A JUMP JUMPDEST PUSH1 0x64 DUP2 GT ISZERO PUSH2 0x679 JUMPI PUSH1 0x40 MLOAD PUSH32 0x8C379A000000000000000000000000000000000000000000000000000000000 DUP2 MSTORE PUSH1 0x4 ADD PUSH2 0x670 SWAP1 PUSH2 0x151E JUMP JUMPDEST PUSH1 0x40 MLOAD DUP1 SWAP2 SUB SWAP1 REVERT JUMPDEST PUSH2 0x683 CALLER DUP3 PUSH2 0xA94 JUMP JUMPDEST POP JUMP JUMPDEST PUSH0 DUP1 PUSH2 0x690 PUSH2 0x7AE JUMP JUMPDEST SWAP1 POP PUSH2 0x69D DUP2 DUP6 DUP6 PUSH2 0x85A JUMP JUMPDEST PUSH1 0x1 SWAP2 POP POP SWAP3 SWAP2 POP POP JUMP JUMPDEST PUSH0 PUSH1 0x1 PUSH0 DUP5 PUSH20 0xFFFFFFFFFFFFFFFFFFFFFFFFFFFFFFFFFFFFFFFF AND PUSH20 0xFFFFFFFFFFFFFFFFFFFFFFFFFFFFFFFFFFFFFFFF AND DUP2 MSTORE PUSH1 0x20 ADD SWAP1 DUP2 MSTORE PUSH1 0x20 ADD PUSH0 KECCAK256 PUSH0 DUP4 PUSH20 0xFFFFFFFFFFFFFFFFFFFFFFFFFFFFFFFFFFFFFFFF AND PUSH20 0xFFFFFFFFFFFFFFFFFFFFFFFFFFFFFFFFFFFFFFFF AND DUP2 MSTORE PUSH1 0x20 ADD SWAP1 DUP2 MSTORE PUSH1 0x20 ADD PUSH0 KECCAK256 SLOAD SWAP1 POP SWAP3 SWAP2 POP POP JUMP JUMPDEST PUSH2 0x732 PUSH2 0x94A JUMP JUMPDEST PUSH0 PUSH20 0xFFFFFFFFFFFFFFFFFFFFFFFFFFFFFFFFFFFFFFFF AND DUP2 PUSH20 0xFFFFFFFFFFFFFFFFFFFFFFFFFFFFFFFFFFFFFFFF AND SUB PUSH2 0x7A2 JUMPI PUSH0 PUSH1 0x40 MLOAD PUSH32 0x1E4FBDF700000000000000000000000000000000000000000000000000000000 DUP2 MSTORE PUSH1 0x4 ADD PUSH2 0x799 SWAP2 SWAP1 PUSH2 0x1173 JUMP JUMPDEST PUSH1 0x40 MLOAD DUP1 SWAP2 SUB SWAP1 REVERT JUMPDEST PUSH2 0x7AB DUP2 PUSH2 0x9D1 JUMP JUMPDEST POP JUMP JUMPDEST PUSH0 CALLER SWAP1 POP SWAP1 JUMP JUMPDEST PUSH2 0x7C2 DUP4 DUP4 DUP4 PUSH1 0x1 PUSH2 0xB13 JUMP JUMPDEST POP POP POP JUMP JUMPDEST PUSH0 PUSH2 0x7D2 DUP5 DUP5 PUSH2 0x6A8 JUMP JUMPDEST SWAP1 POP PUSH32 0xFFFFFFFFFFFFFFFFFFFFFFFFFFFFFFFFFFFFFFFFFFFFFFFFFFFFFFFFFFFFFFFF DUP2 LT ISZERO PUSH2 0x854 JUMPI DUP2 DUP2 LT ISZERO PUSH2 0x845 JUMPI DUP3 DUP2 DUP4 PUSH1 0x40 MLOAD PUSH32 0xFB8F41B200000000000000000000000000000000000000000000000000000000 DUP2 MSTORE PUSH1 0x4 ADD PUSH2 0x83C SWAP4 SWAP3 SWAP2 SWAP1 PUSH2 0x15A4 JUMP JUMPDEST PUSH1 0x40 MLOAD DUP1 SWAP2 SUB SWAP1 REVERT JUMPDEST PUSH2 0x853 DUP5 DUP5 DUP5 DUP5 SUB PUSH0 PUSH2 0xB13 JUMP JUMPDEST JUMPDEST POP POP POP POP JUMP JUMPDEST PUSH0 PUSH20 0xFFFFFFFFFFFFFFFFFFFFFFFFFFFFFFFFFFFFFFFF AND DUP4 PUSH20 0xFFFFFFFFFFFFFFFFFFFFFFFFFFFFFFFFFFFFFFFF AND SUB PUSH2 0x8CA JUMPI PUSH0 PUSH1 0x40 MLOAD PUSH32 0x96C6FD1E00000000000000000000000000000000000000000000000000000000 DUP2 MSTORE PUSH1 0x4 ADD PUSH2 0x8C1 SWAP2 SWAP1 PUSH2 0x1173 JUMP JUMPDEST PUSH1 0x40 MLOAD DUP1 SWAP2 SUB SWAP1 REVERT JUMPDEST PUSH0 PUSH20 0xFFFFFFFFFFFFFFFFFFFFFFFFFFFFFFFFFFFFFFFF AND DUP3 PUSH20 0xFFFFFFFFFFFFFFFFFFFFFFFFFFFFFFFFFFFFFFFF AND SUB PUSH2 0x93A JUMPI PUSH0 PUSH1 0x40 MLOAD PUSH32 0xEC442F0500000000000000000000000000000000000000000000000000000000 DUP2 MSTORE PUSH1 0x4 ADD PUSH2 0x931 SWAP2 SWAP1 PUSH2 0x1173 JUMP JUMPDEST PUSH1 0x40 MLOAD DUP1 SWAP2 SUB SWAP1 REVERT JUMPDEST PUSH2 0x945 DUP4 DUP4 DUP4 PUSH2 0xCE2 JUMP JUMPDEST POP POP POP JUMP JUMPDEST PUSH2 0x952 PUSH2 0x7AE JUMP JUMPDEST PUSH20 0xFFFFFFFFFFFFFFFFFFFFFFFFFFFFFFFFFFFFFFFF AND PUSH2 0x970 PUSH2 0x419 JUMP JUMPDEST PUSH20 0xFFFFFFFFFFFFFFFFFFFFFFFFFFFFFFFFFFFFFFFF AND EQ PUSH2 0x9CF JUMPI PUSH2 0x993 PUSH2 0x7AE JUMP JUMPDEST PUSH1 0x40 MLOAD PUSH32 0x118CDAA700000000000000000000000000000000000000000000000000000000 DUP2 MSTORE PUSH1 0x4 ADD PUSH2 0x9C6 SWAP2 SWAP1 PUSH2 0x1173 JUMP JUMPDEST PUSH1 0x40 MLOAD DUP1 SWAP2 SUB SWAP1 REVERT JUMPDEST JUMP JUMPDEST PUSH0 PUSH1 0x5 PUSH0 SWAP1 SLOAD SWAP1 PUSH2 0x100 EXP SWAP1 DIV PUSH20 0xFFFFFFFFFFFFFFFFFFFFFFFFFFFFFFFFFFFFFFFF AND SWAP1 POP DUP2 PUSH1 0x5 PUSH0 PUSH2 0x100 EXP DUP2 SLOAD DUP2 PUSH20 0xFFFFFFFFFFFFFFFFFFFFFFFFFFFFFFFFFFFFFFFF MUL NOT AND SWAP1 DUP4 PUSH20 0xFFFFFFFFFFFFFFFFFFFFFFFFFFFFFFFFFFFFFFFF AND MUL OR SWAP1 SSTORE POP DUP2 PUSH20 0xFFFFFFFFFFFFFFFFFFFFFFFFFFFFFFFFFFFFFFFF AND DUP2 PUSH20 0xFFFFFFFFFFFFFFFFFFFFFFFFFFFFFFFFFFFFFFFF AND PUSH32 0x8BE0079C531659141344CD1FD0A4F28419497F9722A3DAAFE3B4186F6B6457E0 PUSH1 0x40 MLOAD PUSH1 0x40 MLOAD DUP1 SWAP2 SUB SWAP1 LOG3 POP POP JUMP JUMPDEST PUSH0 PUSH20 0xFFFFFFFFFFFFFFFFFFFFFFFFFFFFFFFFFFFFFFFF AND DUP3 PUSH20 0xFFFFFFFFFFFFFFFFFFFFFFFFFFFFFFFFFFFFFFFF AND SUB PUSH2 0xB04 JUMPI PUSH0 PUSH1 0x40 MLOAD PUSH32 0xEC442F0500000000000000000000000000000000000000000000000000000000 DUP2 MSTORE PUSH1 0x4 ADD PUSH2 0xAFB SWAP2 SWAP1 PUSH2 0x1173 JUMP JUMPDEST PUSH1 0x40 MLOAD DUP1 SWAP2 SUB SWAP1 REVERT JUMPDEST PUSH2 0xB0F PUSH0 DUP4 DUP4 PUSH2 0xCE2 JUMP JUMPDEST POP POP JUMP JUMPDEST PUSH0 PUSH20 0xFFFFFFFFFFFFFFFFFFFFFFFFFFFFFFFFFFFFFFFF AND DUP5 PUSH20 0xFFFFFFFFFFFFFFFFFFFFFFFFFFFFFFFFFFFFFFFF AND SUB PUSH2 0xB83 JUMPI PUSH0 PUSH1 0x40 MLOAD PUSH32 0xE602DF0500000000000000000000000000000000000000000000000000000000 DUP2 MSTORE PUSH1 0x4 ADD PUSH2 0xB7A SWAP2 SWAP1 PUSH2 0x1173 JUMP JUMPDEST PUSH1 0x40 MLOAD DUP1 SWAP2 SUB SWAP1 REVERT JUMPDEST PUSH0 PUSH20 0xFFFFFFFFFFFFFFFFFFFFFFFFFFFFFFFFFFFFFFFF AND DUP4 PUSH20 0xFFFFFFFFFFFFFFFFFFFFFFFFFFFFFFFFFFFFFFFF AND SUB PUSH2 0xBF3 JUMPI PUSH0 PUSH1 0x40 MLOAD PUSH32 0x94280D6200000000000000000000000000000000000000000000000000000000 DUP2 MSTORE PUSH1 0x4 ADD PUSH2 0xBEA SWAP2 SWAP1 PUSH2 0x1173 JUMP JUMPDEST PUSH1 0x40 MLOAD DUP1 SWAP2 SUB SWAP1 REVERT JUMPDEST DUP2 PUSH1 0x1 PUSH0 DUP7 PUSH20 0xFFFFFFFFFFFFFFFFFFFFFFFFFFFFFFFFFFFFFFFF AND PUSH20 0xFFFFFFFFFFFFFFFFFFFFFFFFFFFFFFFFFFFFFFFF AND DUP2 MSTORE PUSH1 0x20 ADD SWAP1 DUP2 MSTORE PUSH1 0x20 ADD PUSH0 KECCAK256 PUSH0 DUP6 PUSH20 0xFFFFFFFFFFFFFFFFFFFFFFFFFFFFFFFFFFFFFFFF AND PUSH20 0xFFFFFFFFFFFFFFFFFFFFFFFFFFFFFFFFFFFFFFFF AND DUP2 MSTORE PUSH1 0x20 ADD SWAP1 DUP2 MSTORE PUSH1 0x20 ADD PUSH0 KECCAK256 DUP2 SWAP1 SSTORE POP DUP1 ISZERO PUSH2 0xCDC JUMPI DUP3 PUSH20 0xFFFFFFFFFFFFFFFFFFFFFFFFFFFFFFFFFFFFFFFF AND DUP5 PUSH20 0xFFFFFFFFFFFFFFFFFFFFFFFFFFFFFFFFFFFFFFFF AND PUSH32 0x8C5BE1E5EBEC7D5BD14F71427D1E84F3DD0314C0F7B2291E5B200AC8C7C3B925 DUP5 PUSH1 0x40 MLOAD PUSH2 0xCD3 SWAP2 SWAP1 PUSH2 0x109C JUMP JUMPDEST PUSH1 0x40 MLOAD DUP1 SWAP2 SUB SWAP1 LOG3 JUMPDEST POP POP POP POP JUMP JUMPDEST PUSH0 PUSH20 0xFFFFFFFFFFFFFFFFFFFFFFFFFFFFFFFFFFFFFFFF AND DUP4 PUSH20 0xFFFFFFFFFFFFFFFFFFFFFFFFFFFFFFFFFFFFFFFF AND SUB PUSH2 0xD32 JUMPI DUP1 PUSH1 0x2 PUSH0 DUP3 DUP3 SLOAD PUSH2 0xD26 SWAP2 SWAP1 PUSH2 0x127F JUMP JUMPDEST SWAP3 POP POP DUP2 SWAP1 SSTORE POP PUSH2 0xE00 JUMP JUMPDEST PUSH0 DUP1 PUSH0 DUP6 PUSH20 0xFFFFFFFFFFFFFFFFFFFFFFFFFFFFFFFFFFFFFFFF AND PUSH20 0xFFFFFFFFFFFFFFFFFFFFFFFFFFFFFFFFFFFFFFFF AND DUP2 MSTORE PUSH1 0x20 ADD SWAP1 DUP2 MSTORE PUSH1 0x20 ADD PUSH0 KECCAK256 SLOAD SWAP1 POP DUP2 DUP2 LT ISZERO PUSH2 0xDBB JUMPI DUP4 DUP2 DUP4 PUSH1 0x40 MLOAD PUSH32 0xE450D38C00000000000000000000000000000000000000000000000000000000 DUP2 MSTORE PUSH1 0x4 ADD PUSH2 0xDB2 SWAP4 SWAP3 SWAP2 SWAP1 PUSH2 0x15A4 JUMP JUMPDEST PUSH1 0x40 MLOAD DUP1 SWAP2 SUB SWAP1 REVERT JUMPDEST DUP2 DUP2 SUB PUSH0 DUP1 DUP7 PUSH20 0xFFFFFFFFFFFFFFFFFFFFFFFFFFFFFFFFFFFFFFFF AND PUSH20 0xFFFFFFFFFFFFFFFFFFFFFFFFFFFFFFFFFFFFFFFF AND DUP2 MSTORE PUSH1 0x20 ADD SWAP1 DUP2 MSTORE PUSH1 0x20 ADD PUSH0 KECCAK256 DUP2 SWAP1 SSTORE POP POP JUMPDEST PUSH0 PUSH20 0xFFFFFFFFFFFFFFFFFFFFFFFFFFFFFFFFFFFFFFFF AND DUP3 PUSH20 0xFFFFFFFFFFFFFFFFFFFFFFFFFFFFFFFFFFFFFFFF AND SUB PUSH2 0xE47 JUMPI DUP1 PUSH1 0x2 PUSH0 DUP3 DUP3 SLOAD SUB SWAP3 POP POP DUP2 SWAP1 SSTORE POP PUSH2 0xE91 JUMP JUMPDEST DUP1 PUSH0 DUP1 DUP5 PUSH20 0xFFFFFFFFFFFFFFFFFFFFFFFFFFFFFFFFFFFFFFFF AND PUSH20 0xFFFFFFFFFFFFFFFFFFFFFFFFFFFFFFFFFFFFFFFF AND DUP2 MSTORE PUSH1 0x20 ADD SWAP1 DUP2 MSTORE PUSH1 0x20 ADD PUSH0 KECCAK256 PUSH0 DUP3 DUP3 SLOAD ADD SWAP3 POP POP DUP2 SWAP1 SSTORE POP JUMPDEST DUP2 PUSH20 0xFFFFFFFFFFFFFFFFFFFFFFFFFFFFFFFFFFFFFFFF AND DUP4 PUSH20 0xFFFFFFFFFFFFFFFFFFFFFFFFFFFFFFFFFFFFFFFF AND PUSH32 0xDDF252AD1BE2C89B69C2B068FC378DAA952BA7F163C4A11628F55A4DF523B3EF DUP4 PUSH1 0x40 MLOAD PUSH2 0xEEE SWAP2 SWAP1 PUSH2 0x109C JUMP JUMPDEST PUSH1 0x40 MLOAD DUP1 SWAP2 SUB SWAP1 LOG3 POP POP POP JUMP JUMPDEST PUSH0 DUP2 MLOAD SWAP1 POP SWAP2 SWAP1 POP JUMP JUMPDEST PUSH0 DUP3 DUP3 MSTORE PUSH1 0x20 DUP3 ADD SWAP1 POP SWAP3 SWAP2 POP POP JUMP JUMPDEST DUP3 DUP2 DUP4 MCOPY PUSH0 DUP4 DUP4 ADD MSTORE POP POP POP JUMP JUMPDEST PUSH0 PUSH1 0x1F NOT PUSH1 0x1F DUP4 ADD AND SWAP1 POP SWAP2 SWAP1 POP JUMP JUMPDEST PUSH0 PUSH2 0xF3D DUP3 PUSH2 0xEFB JUMP JUMPDEST PUSH2 0xF47 DUP2 DUP6 PUSH2 0xF05 JUMP JUMPDEST SWAP4 POP PUSH2 0xF57 DUP2 DUP6 PUSH1 0x20 DUP7 ADD PUSH2 0xF15 JUMP JUMPDEST PUSH2 0xF60 DUP2 PUSH2 0xF23 JUMP JUMPDEST DUP5 ADD SWAP2 POP POP SWAP3 SWAP2 POP POP JUMP JUMPDEST PUSH0 PUSH1 0x20 DUP3 ADD SWAP1 POP DUP2 DUP2 SUB PUSH0 DUP4 ADD MSTORE PUSH2 0xF83 DUP2 DUP5 PUSH2 0xF33 JUMP JUMPDEST SWAP1 POP SWAP3 SWAP2 POP POP JUMP JUMPDEST PUSH0 DUP1 REVERT JUMPDEST PUSH0 PUSH20 0xFFFFFFFFFFFFFFFFFFFFFFFFFFFFFFFFFFFFFFFF DUP3 AND SWAP1 POP SWAP2 SWAP1 POP JUMP JUMPDEST PUSH0 PUSH2 0xFB8 DUP3 PUSH2 0xF8F JUMP JUMPDEST SWAP1 POP SWAP2 SWAP1 POP JUMP JUMPDEST PUSH2 0xFC8 DUP2 PUSH2 0xFAE JUMP JUMPDEST DUP2 EQ PUSH2 0xFD2 JUMPI PUSH0 DUP1 REVERT JUMPDEST POP JUMP JUMPDEST PUSH0 DUP2 CALLDATALOAD SWAP1 POP PUSH2 0xFE3 DUP2 PUSH2 0xFBF JUMP JUMPDEST SWAP3 SWAP2 POP POP JUMP JUMPDEST PUSH0 DUP2 SWAP1 POP SWAP2 SWAP1 POP JUMP JUMPDEST PUSH2 0xFFB DUP2 PUSH2 0xFE9 JUMP JUMPDEST DUP2 EQ PUSH2 0x1005 JUMPI PUSH0 DUP1 REVERT JUMPDEST POP JUMP JUMPDEST PUSH0 DUP2 CALLDATALOAD SWAP1 POP PUSH2 0x1016 DUP2 PUSH2 0xFF2 JUMP JUMPDEST SWAP3 SWAP2 POP POP JUMP JUMPDEST PUSH0 DUP1 PUSH1 0x40 DUP4 DUP6 SUB SLT ISZERO PUSH2 0x1032 JUMPI PUSH2 0x1031 PUSH2 0xF8B JUMP JUMPDEST JUMPDEST PUSH0 PUSH2 0x103F DUP6 DUP3 DUP7 ADD PUSH2 0xFD5 JUMP JUMPDEST SWAP3 POP POP PUSH1 0x20 PUSH2 0x1050 DUP6 DUP3 DUP7 ADD PUSH2 0x1008 JUMP JUMPDEST SWAP2 POP POP SWAP3 POP SWAP3 SWAP1 POP JUMP JUMPDEST PUSH0 DUP2 ISZERO ISZERO SWAP1 POP SWAP2 SWAP1 POP JUMP JUMPDEST PUSH2 0x106E DUP2 PUSH2 0x105A JUMP JUMPDEST DUP3 MSTORE POP POP JUMP JUMPDEST PUSH0 PUSH1 0x20 DUP3 ADD SWAP1 POP PUSH2 0x1087 PUSH0 DUP4 ADD DUP5 PUSH2 0x1065 JUMP JUMPDEST SWAP3 SWAP2 POP POP JUMP JUMPDEST PUSH2 0x1096 DUP2 PUSH2 0xFE9 JUMP JUMPDEST DUP3 MSTORE POP POP JUMP JUMPDEST PUSH0 PUSH1 0x20 DUP3 ADD SWAP1 POP PUSH2 0x10AF PUSH0 DUP4 ADD DUP5 PUSH2 0x108D JUMP JUMPDEST SWAP3 SWAP2 POP POP JUMP JUMPDEST PUSH0 DUP1 PUSH0 PUSH1 0x60 DUP5 DUP7 SUB SLT ISZERO PUSH2 0x10CC JUMPI PUSH2 0x10CB PUSH2 0xF8B JUMP JUMPDEST JUMPDEST PUSH0 PUSH2 0x10D9 DUP7 DUP3 DUP8 ADD PUSH2 0xFD5 JUMP JUMPDEST SWAP4 POP POP PUSH1 0x20 PUSH2 0x10EA DUP7 DUP3 DUP8 ADD PUSH2 0xFD5 JUMP JUMPDEST SWAP3 POP POP PUSH1 0x40 PUSH2 0x10FB DUP7 DUP3 DUP8 ADD PUSH2 0x1008 JUMP JUMPDEST SWAP2 POP POP SWAP3 POP SWAP3 POP SWAP3 JUMP JUMPDEST PUSH0 PUSH1 0xFF DUP3 AND SWAP1 POP SWAP2 SWAP1 POP JUMP JUMPDEST PUSH2 0x111A DUP2 PUSH2 0x1105 JUMP JUMPDEST DUP3 MSTORE POP POP JUMP JUMPDEST PUSH0 PUSH1 0x20 DUP3 ADD SWAP1 POP PUSH2 0x1133 PUSH0 DUP4 ADD DUP5 PUSH2 0x1111 JUMP JUMPDEST SWAP3 SWAP2 POP POP JUMP JUMPDEST PUSH0 PUSH1 0x20 DUP3 DUP5 SUB SLT ISZERO PUSH2 0x114E JUMPI PUSH2 0x114D PUSH2 0xF8B JUMP JUMPDEST JUMPDEST PUSH0 PUSH2 0x115B DUP5 DUP3 DUP6 ADD PUSH2 0xFD5 JUMP JUMPDEST SWAP2 POP POP SWAP3 SWAP2 POP POP JUMP JUMPDEST PUSH2 0x116D DUP2 PUSH2 0xFAE JUMP JUMPDEST DUP3 MSTORE POP POP JUMP JUMPDEST PUSH0 PUSH1 0x20 DUP3 ADD SWAP1 POP PUSH2 0x1186 PUSH0 DUP4 ADD DUP5 PUSH2 0x1164 JUMP JUMPDEST SWAP3 SWAP2 POP POP JUMP JUMPDEST PUSH0 PUSH1 0x20 DUP3 DUP5 SUB SLT ISZERO PUSH2 0x11A1 JUMPI PUSH2 0x11A0 PUSH2 0xF8B JUMP JUMPDEST JUMPDEST PUSH0 PUSH2 0x11AE DUP5 DUP3 DUP6 ADD PUSH2 0x1008 JUMP JUMPDEST SWAP2 POP POP SWAP3 SWAP2 POP POP JUMP JUMPDEST PUSH0 DUP1 PUSH1 0x40 DUP4 DUP6 SUB SLT ISZERO PUSH2 0x11CD JUMPI PUSH2 0x11CC PUSH2 0xF8B JUMP JUMPDEST JUMPDEST PUSH0 PUSH2 0x11DA DUP6 DUP3 DUP7 ADD PUSH2 0xFD5 JUMP JUMPDEST SWAP3 POP POP PUSH1 0x20 PUSH2 0x11EB DUP6 DUP3 DUP7 ADD PUSH2 0xFD5 JUMP JUMPDEST SWAP2 POP POP SWAP3 POP SWAP3 SWAP1 POP JUMP JUMPDEST PUSH32 0x4E487B7100000000000000000000000000000000000000000000000000000000 PUSH0 MSTORE PUSH1 0x22 PUSH1 0x4 MSTORE PUSH1 0x24 PUSH0 REVERT JUMPDEST PUSH0 PUSH1 0x2 DUP3 DIV SWAP1 POP PUSH1 0x1 DUP3 AND DUP1 PUSH2 0x1239 JUMPI PUSH1 0x7F DUP3 AND SWAP2 POP JUMPDEST PUSH1 0x20 DUP3 LT DUP2 SUB PUSH2 0x124C JUMPI PUSH2 0x124B PUSH2 0x11F5 JUMP JUMPDEST JUMPDEST POP SWAP2 SWAP1 POP JUMP JUMPDEST PUSH32 0x4E487B7100000000000000000000000000000000000000000000000000000000 PUSH0 MSTORE PUSH1 0x11 PUSH1 0x4 MSTORE PUSH1 0x24 PUSH0 REVERT JUMPDEST PUSH0 PUSH2 0x1289 DUP3 PUSH2 0xFE9 JUMP JUMPDEST SWAP2 POP PUSH2 0x1294 DUP4 PUSH2 0xFE9 JUMP JUMPDEST SWAP3 POP DUP3 DUP3 ADD SWAP1 POP DUP1 DUP3 GT ISZERO PUSH2 0x12AC JUMPI PUSH2 0x12AB PUSH2 0x1252 JUMP JUMPDEST JUMPDEST SWAP3 SWAP2 POP POP JUMP JUMPDEST PUSH32 0x776169742031206D696E75746520666F722065616368206D696E740000000000 PUSH0 DUP3 ADD MSTORE POP JUMP JUMPDEST PUSH0 PUSH2 0x12E6 PUSH1 0x1B DUP4 PUSH2 0xF05 JUMP JUMPDEST SWAP2 POP PUSH2 0x12F1 DUP3 PUSH2 0x12B2 JUMP JUMPDEST PUSH1 0x20 DUP3 ADD SWAP1 POP SWAP2 SWAP1 POP JUMP JUMPDEST PUSH0 PUSH1 0x20 DUP3 ADD SWAP1 POP DUP2 DUP2 SUB PUSH0 DUP4 ADD MSTORE PUSH2 0x1313 DUP2 PUSH2 0x12DA JUMP JUMPDEST SWAP1 POP SWAP2 SWAP1 POP JUMP JUMPDEST PUSH0 DUP2 PUSH1 0x1 SHR SWAP1 POP SWAP2 SWAP1 POP JUMP JUMPDEST PUSH0 DUP1 DUP3 SWAP2 POP DUP4 SWAP1 POP JUMPDEST PUSH1 0x1 DUP6 GT ISZERO PUSH2 0x136F JUMPI DUP1 DUP7 DIV DUP2 GT ISZERO PUSH2 0x134B JUMPI PUSH2 0x134A PUSH2 0x1252 JUMP JUMPDEST JUMPDEST PUSH1 0x1 DUP6 AND ISZERO PUSH2 0x135A JUMPI DUP1 DUP3 MUL SWAP2 POP JUMPDEST DUP1 DUP2 MUL SWAP1 POP PUSH2 0x1368 DUP6 PUSH2 0x131A JUMP JUMPDEST SWAP5 POP PUSH2 0x132F JUMP JUMPDEST SWAP5 POP SWAP5 SWAP3 POP POP POP JUMP JUMPDEST PUSH0 DUP3 PUSH2 0x1387 JUMPI PUSH1 0x1 SWAP1 POP PUSH2 0x1442 JUMP JUMPDEST DUP2 PUSH2 0x1394 JUMPI PUSH0 SWAP1 POP PUSH2 0x1442 JUMP JUMPDEST DUP2 PUSH1 0x1 DUP2 EQ PUSH2 0x13AA JUMPI PUSH1 0x2 DUP2 EQ PUSH2 0x13B4 JUMPI PUSH2 0x13E3 JUMP JUMPDEST PUSH1 0x1 SWAP2 POP POP PUSH2 0x1442 JUMP JUMPDEST PUSH1 0xFF DUP5 GT ISZERO PUSH2 0x13C6 JUMPI PUSH2 0x13C5 PUSH2 0x1252 JUMP JUMPDEST JUMPDEST DUP4 PUSH1 0x2 EXP SWAP2 POP DUP5 DUP3 GT ISZERO PUSH2 0x13DD JUMPI PUSH2 0x13DC PUSH2 0x1252 JUMP JUMPDEST JUMPDEST POP PUSH2 0x1442 JUMP JUMPDEST POP PUSH1 0x20 DUP4 LT PUSH2 0x133 DUP4 LT AND PUSH1 0x4E DUP5 LT PUSH1 0xB DUP5 LT AND OR ISZERO PUSH2 0x1418 JUMPI DUP3 DUP3 EXP SWAP1 POP DUP4 DUP2 GT ISZERO PUSH2 0x1413 JUMPI PUSH2 0x1412 PUSH2 0x1252 JUMP JUMPDEST JUMPDEST PUSH2 0x1442 JUMP JUMPDEST PUSH2 0x1425 DUP5 DUP5 DUP5 PUSH1 0x1 PUSH2 0x1326 JUMP JUMPDEST SWAP3 POP SWAP1 POP DUP2 DUP5 DIV DUP2 GT ISZERO PUSH2 0x143C JUMPI PUSH2 0x143B PUSH2 0x1252 JUMP JUMPDEST JUMPDEST DUP2 DUP2 MUL SWAP1 POP JUMPDEST SWAP4 SWAP3 POP POP POP JUMP JUMPDEST PUSH0 PUSH2 0x1453 DUP3 PUSH2 0xFE9 JUMP JUMPDEST SWAP2 POP PUSH2 0x145E DUP4 PUSH2 0x1105 JUMP JUMPDEST SWAP3 POP PUSH2 0x148B PUSH32 0xFFFFFFFFFFFFFFFFFFFFFFFFFFFFFFFFFFFFFFFFFFFFFFFFFFFFFFFFFFFFFFFF DUP5 DUP5 PUSH2 0x1378 JUMP JUMPDEST SWAP1 POP SWAP3 SWAP2 POP POP JUMP JUMPDEST PUSH0 PUSH2 0x149D DUP3 PUSH2 0xFE9 JUMP JUMPDEST SWAP2 POP PUSH2 0x14A8 DUP4 PUSH2 0xFE9 JUMP JUMPDEST SWAP3 POP DUP3 DUP3 MUL PUSH2 0x14B6 DUP2 PUSH2 0xFE9 JUMP JUMPDEST SWAP2 POP DUP3 DUP3 DIV DUP5 EQ DUP4 ISZERO OR PUSH2 0x14CD JUMPI PUSH2 0x14CC PUSH2 0x1252 JUMP JUMPDEST JUMPDEST POP SWAP3 SWAP2 POP POP JUMP JUMPDEST PUSH32 0x4D6178696D756D206D696E7420616D6F756E7420697320313030000000000000 PUSH0 DUP3 ADD MSTORE POP JUMP JUMPDEST PUSH0 PUSH2 0x1508 PUSH1 0x1A DUP4 PUSH2 0xF05 JUMP JUMPDEST SWAP2 POP PUSH2 0x1513 DUP3 PUSH2 0x14D4 JUMP JUMPDEST PUSH1 0x20 DUP3 ADD SWAP1 POP SWAP2 SWAP1 POP JUMP JUMPDEST PUSH0 PUSH1 0x20 DUP3 ADD SWAP1 POP DUP2 DUP2 SUB PUSH0 DUP4 ADD MSTORE PUSH2 0x1535 DUP2 PUSH2 0x14FC JUMP JUMPDEST SWAP1 POP SWAP2 SWAP1 POP JUMP JUMPDEST PUSH32 0x546F74616C737570706C79206578636565640000000000000000000000000000 PUSH0 DUP3 ADD MSTORE POP JUMP JUMPDEST PUSH0 PUSH2 0x1570 PUSH1 0x12 DUP4 PUSH2 0xF05 JUMP JUMPDEST SWAP2 POP PUSH2 0x157B DUP3 PUSH2 0x153C JUMP JUMPDEST PUSH1 0x20 DUP3 ADD SWAP1 POP SWAP2 SWAP1 POP JUMP JUMPDEST PUSH0 PUSH1 0x20 DUP3 ADD SWAP1 POP DUP2 DUP2 SUB PUSH0 DUP4 ADD MSTORE PUSH2 0x159D DUP2 PUSH2 0x1564 JUMP JUMPDEST SWAP1 POP SWAP2 SWAP1 POP JUMP JUMPDEST PUSH0 PUSH1 0x60 DUP3 ADD SWAP1 POP PUSH2 0x15B7 PUSH0 DUP4 ADD DUP7 PUSH2 0x1164 JUMP JUMPDEST PUSH2 0x15C4 PUSH1 0x20 DUP4 ADD DUP6 PUSH2 0x108D JUMP JUMPDEST PUSH2 0x15D1 PUSH1 0x40 DUP4 ADD DUP5 PUSH2 0x108D JUMP JUMPDEST SWAP5 SWAP4 POP POP POP POP JUMP INVALID LOG2 PUSH5 0x6970667358 0x22 SLT KECCAK256 SWAP6 0xFB MULMOD 0x2D PUSH32 0xD56E535A3367C094F92E59725C515F1B6DE35F2A7C7DC4BBE4F85164736F6C63 NUMBER STOP ADDMOD BYTE STOP CALLER "
				},
				"gasEstimates": {
					"creation": {
						"codeDepositCost": "1129400",
						"executionCost": "infinite",
						"totalCost": "infinite"
					},
					"external": {
						"allowance(address,address)": "infinite",
						"approve(address,uint256)": "infinite",
						"balanceOf(address)": "2896",
						"decimals()": "383",
						"mint(uint256)": "infinite",
						"mintReward(address,uint256)": "infinite",
						"name()": "infinite",
						"owner()": "2538",
						"renounceOwnership()": "infinite",
						"symbol()": "infinite",
						"totalSupply()": "2500",
						"transfer(address,uint256)": "infinite",
						"transferFrom(address,address,uint256)": "infinite",
						"transferOwnership(address)": "infinite"
					}
				},
				"methodIdentifiers": {
					"allowance(address,address)": "dd62ed3e",
					"approve(address,uint256)": "095ea7b3",
					"balanceOf(address)": "70a08231",
					"decimals()": "313ce567",
					"mint(uint256)": "a0712d68",
					"mintReward(address,uint256)": "9a49090e",
					"name()": "06fdde03",
					"owner()": "8da5cb5b",
					"renounceOwnership()": "715018a6",
					"symbol()": "95d89b41",
					"totalSupply()": "18160ddd",
					"transfer(address,uint256)": "a9059cbb",
					"transferFrom(address,address,uint256)": "23b872dd",
					"transferOwnership(address)": "f2fde38b"
				}
			},
			"storageLayout": {
				"storage": [
					{
						"astId": 307,
						"contract": "OpenzepplineToken/RewardToken.sol:RewardToken",
						"label": "_balances",
						"offset": 0,
						"slot": "0",
						"type": "t_mapping(t_address,t_uint256)"
					},
					{
						"astId": 313,
						"contract": "OpenzepplineToken/RewardToken.sol:RewardToken",
						"label": "_allowances",
						"offset": 0,
						"slot": "1",
						"type": "t_mapping(t_address,t_mapping(t_address,t_uint256))"
					},
					{
						"astId": 315,
						"contract": "OpenzepplineToken/RewardToken.sol:RewardToken",
						"label": "_totalSupply",
						"offset": 0,
						"slot": "2",
						"type": "t_uint256"
					},
					{
						"astId": 317,
						"contract": "OpenzepplineToken/RewardToken.sol:RewardToken",
						"label": "_name",
						"offset": 0,
						"slot": "3",
						"type": "t_string_storage"
					},
					{
						"astId": 319,
						"contract": "OpenzepplineToken/RewardToken.sol:RewardToken",
						"label": "_symbol",
						"offset": 0,
						"slot": "4",
						"type": "t_string_storage"
					},
					{
						"astId": 8,
						"contract": "OpenzepplineToken/RewardToken.sol:RewardToken",
						"label": "_owner",
						"offset": 0,
						"slot": "5",
						"type": "t_address"
					},
					{
						"astId": 1086,
						"contract": "OpenzepplineToken/RewardToken.sol:RewardToken",
						"label": "currentTime",
						"offset": 0,
						"slot": "6",
						"type": "t_uint256"
					}
				],
				"types": {
					"t_address": {
						"encoding": "inplace",
						"label": "address",
						"numberOfBytes": "20"
					},
					"t_mapping(t_address,t_mapping(t_address,t_uint256))": {
						"encoding": "mapping",
						"key": "t_address",
						"label": "mapping(address => mapping(address => uint256))",
						"numberOfBytes": "32",
						"value": "t_mapping(t_address,t_uint256)"
					},
					"t_mapping(t_address,t_uint256)": {
						"encoding": "mapping",
						"key": "t_address",
						"label": "mapping(address => uint256)",
						"numberOfBytes": "32",
						"value": "t_uint256"
					},
					"t_string_storage": {
						"encoding": "bytes",
						"label": "string",
						"numberOfBytes": "32"
					},
					"t_uint256": {
						"encoding": "inplace",
						"label": "uint256",
						"numberOfBytes": "32"
					}
				}
			},
			"userdoc": {
				"kind": "user",
				"methods": {},
				"version": 1
			}
		}
	}
}