{
	"CompressedHistoryLedger/CompressedHistoryLedger.sol": {
		"CompressedHistoryLedger": {
			"abi": [
				{
					"anonymous": false,
					"inputs": [
						{
							"indexed": true,
							"internalType": "address",
							"name": "user",
							"type": "address"
						},
						{
							"indexed": false,
							"internalType": "string",
							"name": "fileHash",
							"type": "string"
						}
					],
					"name": "fileDeleted",
					"type": "event"
				},
				{
					"anonymous": false,
					"inputs": [
						{
							"indexed": true,
							"internalType": "address",
							"name": "user",
							"type": "address"
						},
						{
							"indexed": false,
							"internalType": "string",
							"name": "fileHash",
							"type": "string"
						},
						{
							"indexed": false,
							"internalType": "uint256",
							"name": "timestamp",
							"type": "uint256"
						}
					],
					"name": "fileUploaded",
					"type": "event"
				},
				{
					"inputs": [
						{
							"internalType": "string",
							"name": "fileHash",
							"type": "string"
						}
					],
					"name": "deleteFile",
					"outputs": [],
					"stateMutability": "nonpayable",
					"type": "function"
				},
				{
					"inputs": [
						{
							"internalType": "string",
							"name": "fileHash",
							"type": "string"
						}
					],
					"name": "fileUpload",
					"outputs": [],
					"stateMutability": "nonpayable",
					"type": "function"
				},
				{
					"inputs": [
						{
							"internalType": "address",
							"name": "user",
							"type": "address"
						}
					],
					"name": "getActiveFile",
					"outputs": [
						{
							"internalType": "string[]",
							"name": "",
							"type": "string[]"
						}
					],
					"stateMutability": "view",
					"type": "function"
				}
			],
			"devdoc": {
				"kind": "dev",
				"methods": {},
				"version": 1
			},
			"evm": {
				"assembly": "    /* \"CompressedHistoryLedger/CompressedHistoryLedger.sol\":61:2280  contract CompressedHistoryLedger{... */\n  mstore(0x40, 0x80)\n  callvalue\n  dup1\n  iszero\n  tag_1\n  jumpi\n  revert(0x00, 0x00)\ntag_1:\n  pop\n  dataSize(sub_0)\n  dup1\n  dataOffset(sub_0)\n  0x00\n  codecopy\n  0x00\n  return\nstop\n\nsub_0: assembly {\n        /* \"CompressedHistoryLedger/CompressedHistoryLedger.sol\":61:2280  contract CompressedHistoryLedger{... */\n      mstore(0x40, 0x80)\n      callvalue\n      dup1\n      iszero\n      tag_1\n      jumpi\n      revert(0x00, 0x00)\n    tag_1:\n      pop\n      jumpi(tag_2, lt(calldatasize, 0x04))\n      shr(0xe0, calldataload(0x00))\n      dup1\n      0x8b22d0fd\n      eq\n      tag_3\n      jumpi\n      dup1\n      0xa9910054\n      eq\n      tag_4\n      jumpi\n      dup1\n      0xca4a2192\n      eq\n      tag_5\n      jumpi\n    tag_2:\n      revert(0x00, 0x00)\n        /* \"CompressedHistoryLedger/CompressedHistoryLedger.sol\":1657:2277  function getActiveFile(address user) external view returns(string[] memory){... */\n    tag_3:\n      tag_6\n      0x04\n      dup1\n      calldatasize\n      sub\n      dup2\n      add\n      swap1\n      tag_7\n      swap2\n      swap1\n      tag_8\n      jump\t// in\n    tag_7:\n      tag_9\n      jump\t// in\n    tag_6:\n      mload(0x40)\n      tag_10\n      swap2\n      swap1\n      tag_11\n      jump\t// in\n    tag_10:\n      mload(0x40)\n      dup1\n      swap2\n      sub\n      swap1\n      return\n        /* \"CompressedHistoryLedger/CompressedHistoryLedger.sol\":1160:1649  function deleteFile(string calldata fileHash) external {... */\n    tag_4:\n      tag_12\n      0x04\n      dup1\n      calldatasize\n      sub\n      dup2\n      add\n      swap1\n      tag_13\n      swap2\n      swap1\n      tag_14\n      jump\t// in\n    tag_13:\n      tag_15\n      jump\t// in\n    tag_12:\n      stop\n        /* \"CompressedHistoryLedger/CompressedHistoryLedger.sol\":799:1152  function fileUpload(string calldata fileHash) external uniqueFile(fileHash) maxFileLimite{... */\n    tag_5:\n      tag_16\n      0x04\n      dup1\n      calldatasize\n      sub\n      dup2\n      add\n      swap1\n      tag_17\n      swap2\n      swap1\n      tag_14\n      jump\t// in\n    tag_17:\n      tag_18\n      jump\t// in\n    tag_16:\n      stop\n        /* \"CompressedHistoryLedger/CompressedHistoryLedger.sol\":1657:2277  function getActiveFile(address user) external view returns(string[] memory){... */\n    tag_9:\n        /* \"CompressedHistoryLedger/CompressedHistoryLedger.sol\":1716:1731  string[] memory */\n      0x60\n        /* \"CompressedHistoryLedger/CompressedHistoryLedger.sol\":1743:1769  fileRecord[] storage files */\n      0x00\n        /* \"CompressedHistoryLedger/CompressedHistoryLedger.sol\":1772:1780  userFile */\n      0x00\n        /* \"CompressedHistoryLedger/CompressedHistoryLedger.sol\":1772:1786  userFile[user] */\n      0x00\n        /* \"CompressedHistoryLedger/CompressedHistoryLedger.sol\":1781:1785  user */\n      dup5\n        /* \"CompressedHistoryLedger/CompressedHistoryLedger.sol\":1772:1786  userFile[user] */\n      0xffffffffffffffffffffffffffffffffffffffff\n      and\n      0xffffffffffffffffffffffffffffffffffffffff\n      and\n      dup2\n      mstore\n      0x20\n      add\n      swap1\n      dup2\n      mstore\n      0x20\n      add\n      0x00\n      keccak256\n        /* \"CompressedHistoryLedger/CompressedHistoryLedger.sol\":1743:1786  fileRecord[] storage files = userFile[user] */\n      swap1\n      pop\n        /* \"CompressedHistoryLedger/CompressedHistoryLedger.sol\":1799:1812  uint256 count */\n      0x00\n        /* \"CompressedHistoryLedger/CompressedHistoryLedger.sol\":1815:1816  0 */\n      0x00\n        /* \"CompressedHistoryLedger/CompressedHistoryLedger.sol\":1799:1816  uint256 count = 0 */\n      swap1\n      pop\n        /* \"CompressedHistoryLedger/CompressedHistoryLedger.sol\":1833:1842  uint256 i */\n      0x00\n        /* \"CompressedHistoryLedger/CompressedHistoryLedger.sol\":1845:1846  0 */\n      0x00\n        /* \"CompressedHistoryLedger/CompressedHistoryLedger.sol\":1833:1846  uint256 i = 0 */\n      swap1\n      pop\n        /* \"CompressedHistoryLedger/CompressedHistoryLedger.sol\":1829:1959  for(uint256 i = 0; i < files.length; i++){... */\n    tag_20:\n        /* \"CompressedHistoryLedger/CompressedHistoryLedger.sol\":1852:1857  files */\n      dup3\n        /* \"CompressedHistoryLedger/CompressedHistoryLedger.sol\":1852:1864  files.length */\n      dup1\n      sload\n      swap1\n      pop\n        /* \"CompressedHistoryLedger/CompressedHistoryLedger.sol\":1848:1849  i */\n      dup2\n        /* \"CompressedHistoryLedger/CompressedHistoryLedger.sol\":1848:1864  i < files.length */\n      lt\n        /* \"CompressedHistoryLedger/CompressedHistoryLedger.sol\":1829:1959  for(uint256 i = 0; i < files.length; i++){... */\n      iszero\n      tag_21\n      jumpi\n        /* \"CompressedHistoryLedger/CompressedHistoryLedger.sol\":1888:1893  files */\n      dup3\n        /* \"CompressedHistoryLedger/CompressedHistoryLedger.sol\":1894:1895  i */\n      dup2\n        /* \"CompressedHistoryLedger/CompressedHistoryLedger.sol\":1888:1896  files[i] */\n      dup2\n      sload\n      dup2\n      lt\n      tag_23\n      jumpi\n      tag_24\n      tag_25\n      jump\t// in\n    tag_24:\n    tag_23:\n      swap1\n      0x00\n      mstore\n      keccak256(0x00, 0x20)\n      swap1\n      0x03\n      mul\n      add\n        /* \"CompressedHistoryLedger/CompressedHistoryLedger.sol\":1888:1905  files[i].isActive */\n      0x02\n      add\n      0x00\n      swap1\n      sload\n      swap1\n      0x0100\n      exp\n      swap1\n      div\n      0xff\n      and\n        /* \"CompressedHistoryLedger/CompressedHistoryLedger.sol\":1885:1948  if(files[i].isActive){... */\n      iszero\n      tag_27\n      jumpi\n        /* \"CompressedHistoryLedger/CompressedHistoryLedger.sol\":1925:1932  count++ */\n      dup2\n      dup1\n      tag_28\n      swap1\n      tag_29\n      jump\t// in\n    tag_28:\n      swap3\n      pop\n      pop\n        /* \"CompressedHistoryLedger/CompressedHistoryLedger.sol\":1885:1948  if(files[i].isActive){... */\n    tag_27:\n        /* \"CompressedHistoryLedger/CompressedHistoryLedger.sol\":1866:1869  i++ */\n      dup1\n      dup1\n      0x01\n      add\n      swap2\n      pop\n      pop\n        /* \"CompressedHistoryLedger/CompressedHistoryLedger.sol\":1829:1959  for(uint256 i = 0; i < files.length; i++){... */\n      jump(tag_20)\n    tag_21:\n      pop\n        /* \"CompressedHistoryLedger/CompressedHistoryLedger.sol\":1971:1998  string[] memory activeFiles */\n      0x00\n        /* \"CompressedHistoryLedger/CompressedHistoryLedger.sol\":2014:2019  count */\n      dup2\n        /* \"CompressedHistoryLedger/CompressedHistoryLedger.sol\":2001:2020  new string[](count) */\n      0xffffffffffffffff\n      dup2\n      gt\n      iszero\n      tag_30\n      jumpi\n      tag_31\n      tag_32\n      jump\t// in\n    tag_31:\n    tag_30:\n      mload(0x40)\n      swap1\n      dup1\n      dup3\n      mstore\n      dup1\n      0x20\n      mul\n      0x20\n      add\n      dup3\n      add\n      0x40\n      mstore\n      dup1\n      iszero\n      tag_33\n      jumpi\n      dup2\n      0x20\n      add\n    tag_34:\n      0x60\n      dup2\n      mstore\n      0x20\n      add\n      swap1\n      0x01\n      swap1\n      sub\n      swap1\n      dup2\n      tag_34\n      jumpi\n      swap1\n      pop\n    tag_33:\n      pop\n        /* \"CompressedHistoryLedger/CompressedHistoryLedger.sol\":1971:2020  string[] memory activeFiles = new string[](count) */\n      swap1\n      pop\n        /* \"CompressedHistoryLedger/CompressedHistoryLedger.sol\":2031:2041  uint index */\n      0x00\n        /* \"CompressedHistoryLedger/CompressedHistoryLedger.sol\":2044:2045  0 */\n      0x00\n        /* \"CompressedHistoryLedger/CompressedHistoryLedger.sol\":2031:2045  uint index = 0 */\n      swap1\n      pop\n        /* \"CompressedHistoryLedger/CompressedHistoryLedger.sol\":2060:2066  uint i */\n      0x00\n        /* \"CompressedHistoryLedger/CompressedHistoryLedger.sol\":2069:2070  0 */\n      0x00\n        /* \"CompressedHistoryLedger/CompressedHistoryLedger.sol\":2060:2070  uint i = 0 */\n      swap1\n      pop\n        /* \"CompressedHistoryLedger/CompressedHistoryLedger.sol\":2056:2239  for(uint i = 0; i< files.length; i++){... */\n    tag_35:\n        /* \"CompressedHistoryLedger/CompressedHistoryLedger.sol\":2075:2080  files */\n      dup5\n        /* \"CompressedHistoryLedger/CompressedHistoryLedger.sol\":2075:2087  files.length */\n      dup1\n      sload\n      swap1\n      pop\n        /* \"CompressedHistoryLedger/CompressedHistoryLedger.sol\":2072:2073  i */\n      dup2\n        /* \"CompressedHistoryLedger/CompressedHistoryLedger.sol\":2072:2087  i< files.length */\n      lt\n        /* \"CompressedHistoryLedger/CompressedHistoryLedger.sol\":2056:2239  for(uint i = 0; i< files.length; i++){... */\n      iszero\n      tag_36\n      jumpi\n        /* \"CompressedHistoryLedger/CompressedHistoryLedger.sol\":2111:2116  files */\n      dup5\n        /* \"CompressedHistoryLedger/CompressedHistoryLedger.sol\":2117:2118  i */\n      dup2\n        /* \"CompressedHistoryLedger/CompressedHistoryLedger.sol\":2111:2119  files[i] */\n      dup2\n      sload\n      dup2\n      lt\n      tag_38\n      jumpi\n      tag_39\n      tag_25\n      jump\t// in\n    tag_39:\n    tag_38:\n      swap1\n      0x00\n      mstore\n      keccak256(0x00, 0x20)\n      swap1\n      0x03\n      mul\n      add\n        /* \"CompressedHistoryLedger/CompressedHistoryLedger.sol\":2111:2128  files[i].isActive */\n      0x02\n      add\n      0x00\n      swap1\n      sload\n      swap1\n      0x0100\n      exp\n      swap1\n      div\n      0xff\n      and\n        /* \"CompressedHistoryLedger/CompressedHistoryLedger.sol\":2108:2228  if(files[i].isActive){... */\n      iszero\n      tag_41\n      jumpi\n        /* \"CompressedHistoryLedger/CompressedHistoryLedger.sol\":2169:2174  files */\n      dup5\n        /* \"CompressedHistoryLedger/CompressedHistoryLedger.sol\":2175:2176  i */\n      dup2\n        /* \"CompressedHistoryLedger/CompressedHistoryLedger.sol\":2169:2177  files[i] */\n      dup2\n      sload\n      dup2\n      lt\n      tag_42\n      jumpi\n      tag_43\n      tag_25\n      jump\t// in\n    tag_43:\n    tag_42:\n      swap1\n      0x00\n      mstore\n      keccak256(0x00, 0x20)\n      swap1\n      0x03\n      mul\n      add\n        /* \"CompressedHistoryLedger/CompressedHistoryLedger.sol\":2169:2186  files[i].fileHash */\n      0x00\n      add\n        /* \"CompressedHistoryLedger/CompressedHistoryLedger.sol\":2148:2186  activeFiles[index] = files[i].fileHash */\n      dup1\n      sload\n      tag_45\n      swap1\n      tag_46\n      jump\t// in\n    tag_45:\n      dup1\n      0x1f\n      add\n      0x20\n      dup1\n      swap2\n      div\n      mul\n      0x20\n      add\n      mload(0x40)\n      swap1\n      dup2\n      add\n      0x40\n      mstore\n      dup1\n      swap3\n      swap2\n      swap1\n      dup2\n      dup2\n      mstore\n      0x20\n      add\n      dup3\n      dup1\n      sload\n      tag_47\n      swap1\n      tag_46\n      jump\t// in\n    tag_47:\n      dup1\n      iszero\n      tag_48\n      jumpi\n      dup1\n      0x1f\n      lt\n      tag_49\n      jumpi\n      0x0100\n      dup1\n      dup4\n      sload\n      div\n      mul\n      dup4\n      mstore\n      swap2\n      0x20\n      add\n      swap2\n      jump(tag_48)\n    tag_49:\n      dup3\n      add\n      swap2\n      swap1\n      0x00\n      mstore\n      keccak256(0x00, 0x20)\n      swap1\n    tag_50:\n      dup2\n      sload\n      dup2\n      mstore\n      swap1\n      0x01\n      add\n      swap1\n      0x20\n      add\n      dup1\n      dup4\n      gt\n      tag_50\n      jumpi\n      dup3\n      swap1\n      sub\n      0x1f\n      and\n      dup3\n      add\n      swap2\n    tag_48:\n      pop\n      pop\n      pop\n      pop\n      pop\n        /* \"CompressedHistoryLedger/CompressedHistoryLedger.sol\":2148:2159  activeFiles */\n      dup4\n        /* \"CompressedHistoryLedger/CompressedHistoryLedger.sol\":2160:2165  index */\n      dup4\n        /* \"CompressedHistoryLedger/CompressedHistoryLedger.sol\":2148:2166  activeFiles[index] */\n      dup2\n      mload\n      dup2\n      lt\n      tag_51\n      jumpi\n      tag_52\n      tag_25\n      jump\t// in\n    tag_52:\n    tag_51:\n      0x20\n      mul\n      0x20\n      add\n      add\n        /* \"CompressedHistoryLedger/CompressedHistoryLedger.sol\":2148:2186  activeFiles[index] = files[i].fileHash */\n      dup2\n      swap1\n      mstore\n      pop\n        /* \"CompressedHistoryLedger/CompressedHistoryLedger.sol\":2205:2212  index++ */\n      dup2\n      dup1\n      tag_53\n      swap1\n      tag_29\n      jump\t// in\n    tag_53:\n      swap3\n      pop\n      pop\n        /* \"CompressedHistoryLedger/CompressedHistoryLedger.sol\":2108:2228  if(files[i].isActive){... */\n    tag_41:\n        /* \"CompressedHistoryLedger/CompressedHistoryLedger.sol\":2089:2092  i++ */\n      dup1\n      dup1\n      0x01\n      add\n      swap2\n      pop\n      pop\n        /* \"CompressedHistoryLedger/CompressedHistoryLedger.sol\":2056:2239  for(uint i = 0; i< files.length; i++){... */\n      jump(tag_35)\n    tag_36:\n      pop\n        /* \"CompressedHistoryLedger/CompressedHistoryLedger.sol\":2258:2269  activeFiles */\n      dup2\n        /* \"CompressedHistoryLedger/CompressedHistoryLedger.sol\":2251:2269  return activeFiles */\n      swap5\n      pop\n      pop\n      pop\n      pop\n      pop\n        /* \"CompressedHistoryLedger/CompressedHistoryLedger.sol\":1657:2277  function getActiveFile(address user) external view returns(string[] memory){... */\n      swap2\n      swap1\n      pop\n      jump\t// out\n        /* \"CompressedHistoryLedger/CompressedHistoryLedger.sol\":1160:1649  function deleteFile(string calldata fileHash) external {... */\n    tag_15:\n        /* \"CompressedHistoryLedger/CompressedHistoryLedger.sol\":1226:1252  fileRecord[] storage files */\n      0x00\n        /* \"CompressedHistoryLedger/CompressedHistoryLedger.sol\":1255:1263  userFile */\n      0x00\n        /* \"CompressedHistoryLedger/CompressedHistoryLedger.sol\":1255:1275  userFile[msg.sender] */\n      0x00\n        /* \"CompressedHistoryLedger/CompressedHistoryLedger.sol\":1264:1274  msg.sender */\n      caller\n        /* \"CompressedHistoryLedger/CompressedHistoryLedger.sol\":1255:1275  userFile[msg.sender] */\n      0xffffffffffffffffffffffffffffffffffffffff\n      and\n      0xffffffffffffffffffffffffffffffffffffffff\n      and\n      dup2\n      mstore\n      0x20\n      add\n      swap1\n      dup2\n      mstore\n      0x20\n      add\n      0x00\n      keccak256\n        /* \"CompressedHistoryLedger/CompressedHistoryLedger.sol\":1226:1275  fileRecord[] storage files = userFile[msg.sender] */\n      swap1\n      pop\n        /* \"CompressedHistoryLedger/CompressedHistoryLedger.sol\":1290:1299  uint256 i */\n      0x00\n        /* \"CompressedHistoryLedger/CompressedHistoryLedger.sol\":1302:1303  0 */\n      0x00\n        /* \"CompressedHistoryLedger/CompressedHistoryLedger.sol\":1290:1303  uint256 i = 0 */\n      swap1\n      pop\n        /* \"CompressedHistoryLedger/CompressedHistoryLedger.sol\":1286:1585  for(uint256 i = 0; i < files.length; i++){... */\n    tag_55:\n        /* \"CompressedHistoryLedger/CompressedHistoryLedger.sol\":1309:1314  files */\n      dup2\n        /* \"CompressedHistoryLedger/CompressedHistoryLedger.sol\":1309:1321  files.length */\n      dup1\n      sload\n      swap1\n      pop\n        /* \"CompressedHistoryLedger/CompressedHistoryLedger.sol\":1305:1306  i */\n      dup2\n        /* \"CompressedHistoryLedger/CompressedHistoryLedger.sol\":1305:1321  i < files.length */\n      lt\n        /* \"CompressedHistoryLedger/CompressedHistoryLedger.sol\":1286:1585  for(uint256 i = 0; i < files.length; i++){... */\n      iszero\n      tag_56\n      jumpi\n        /* \"CompressedHistoryLedger/CompressedHistoryLedger.sol\":1400:1408  fileHash */\n      dup4\n      dup4\n        /* \"CompressedHistoryLedger/CompressedHistoryLedger.sol\":1384:1410  keccak256(bytes(fileHash)) */\n      mload(0x40)\n      tag_58\n      swap3\n      swap2\n      swap1\n      tag_59\n      jump\t// in\n    tag_58:\n      mload(0x40)\n      dup1\n      swap2\n      sub\n      swap1\n      keccak256\n        /* \"CompressedHistoryLedger/CompressedHistoryLedger.sol\":1361:1366  files */\n      dup3\n        /* \"CompressedHistoryLedger/CompressedHistoryLedger.sol\":1367:1368  i */\n      dup3\n        /* \"CompressedHistoryLedger/CompressedHistoryLedger.sol\":1361:1369  files[i] */\n      dup2\n      sload\n      dup2\n      lt\n      tag_60\n      jumpi\n      tag_61\n      tag_25\n      jump\t// in\n    tag_61:\n    tag_60:\n      swap1\n      0x00\n      mstore\n      keccak256(0x00, 0x20)\n      swap1\n      0x03\n      mul\n      add\n        /* \"CompressedHistoryLedger/CompressedHistoryLedger.sol\":1361:1378  files[i].fileHash */\n      0x00\n      add\n        /* \"CompressedHistoryLedger/CompressedHistoryLedger.sol\":1345:1380  keccak256(bytes(files[i].fileHash)) */\n      mload(0x40)\n      tag_63\n      swap2\n      swap1\n      tag_64\n      jump\t// in\n    tag_63:\n      mload(0x40)\n      dup1\n      swap2\n      sub\n      swap1\n      keccak256\n        /* \"CompressedHistoryLedger/CompressedHistoryLedger.sol\":1345:1410  keccak256(bytes(files[i].fileHash)) == keccak256(bytes(fileHash)) */\n      eq\n        /* \"CompressedHistoryLedger/CompressedHistoryLedger.sol\":1345:1431  keccak256(bytes(files[i].fileHash)) == keccak256(bytes(fileHash)) && files[i].isActive */\n      dup1\n      iszero\n      tag_65\n      jumpi\n      pop\n        /* \"CompressedHistoryLedger/CompressedHistoryLedger.sol\":1414:1419  files */\n      dup2\n        /* \"CompressedHistoryLedger/CompressedHistoryLedger.sol\":1420:1421  i */\n      dup2\n        /* \"CompressedHistoryLedger/CompressedHistoryLedger.sol\":1414:1422  files[i] */\n      dup2\n      sload\n      dup2\n      lt\n      tag_66\n      jumpi\n      tag_67\n      tag_25\n      jump\t// in\n    tag_67:\n    tag_66:\n      swap1\n      0x00\n      mstore\n      keccak256(0x00, 0x20)\n      swap1\n      0x03\n      mul\n      add\n        /* \"CompressedHistoryLedger/CompressedHistoryLedger.sol\":1414:1431  files[i].isActive */\n      0x02\n      add\n      0x00\n      swap1\n      sload\n      swap1\n      0x0100\n      exp\n      swap1\n      div\n      0xff\n      and\n        /* \"CompressedHistoryLedger/CompressedHistoryLedger.sol\":1345:1431  keccak256(bytes(files[i].fileHash)) == keccak256(bytes(fileHash)) && files[i].isActive */\n    tag_65:\n        /* \"CompressedHistoryLedger/CompressedHistoryLedger.sol\":1342:1574  if(keccak256(bytes(files[i].fileHash)) == keccak256(bytes(fileHash)) && files[i].isActive){... */\n      iszero\n      tag_69\n      jumpi\n        /* \"CompressedHistoryLedger/CompressedHistoryLedger.sol\":1471:1476  false */\n      0x00\n        /* \"CompressedHistoryLedger/CompressedHistoryLedger.sol\":1451:1456  files */\n      dup3\n        /* \"CompressedHistoryLedger/CompressedHistoryLedger.sol\":1457:1458  i */\n      dup3\n        /* \"CompressedHistoryLedger/CompressedHistoryLedger.sol\":1451:1459  files[i] */\n      dup2\n      sload\n      dup2\n      lt\n      tag_70\n      jumpi\n      tag_71\n      tag_25\n      jump\t// in\n    tag_71:\n    tag_70:\n      swap1\n      0x00\n      mstore\n      keccak256(0x00, 0x20)\n      swap1\n      0x03\n      mul\n      add\n        /* \"CompressedHistoryLedger/CompressedHistoryLedger.sol\":1451:1468  files[i].isActive */\n      0x02\n      add\n      0x00\n        /* \"CompressedHistoryLedger/CompressedHistoryLedger.sol\":1451:1476  files[i].isActive = false */\n      0x0100\n      exp\n      dup2\n      sload\n      dup2\n      0xff\n      mul\n      not\n      and\n      swap1\n      dup4\n      iszero\n      iszero\n      mul\n      or\n      swap1\n      sstore\n      pop\n        /* \"CompressedHistoryLedger/CompressedHistoryLedger.sol\":1512:1522  msg.sender */\n      caller\n        /* \"CompressedHistoryLedger/CompressedHistoryLedger.sol\":1500:1533  fileDeleted(msg.sender, fileHash) */\n      0xffffffffffffffffffffffffffffffffffffffff\n      and\n      0xf7b065c2c42af209ea28b725ee7f4038691a1b8c8d1a6a58d533ccdaf79af57c\n        /* \"CompressedHistoryLedger/CompressedHistoryLedger.sol\":1524:1532  fileHash */\n      dup6\n      dup6\n        /* \"CompressedHistoryLedger/CompressedHistoryLedger.sol\":1500:1533  fileDeleted(msg.sender, fileHash) */\n      mload(0x40)\n      tag_73\n      swap3\n      swap2\n      swap1\n      tag_74\n      jump\t// in\n    tag_73:\n      mload(0x40)\n      dup1\n      swap2\n      sub\n      swap1\n      log2\n        /* \"CompressedHistoryLedger/CompressedHistoryLedger.sol\":1552:1559  return; */\n      pop\n      pop\n      jump(tag_54)\n        /* \"CompressedHistoryLedger/CompressedHistoryLedger.sol\":1342:1574  if(keccak256(bytes(files[i].fileHash)) == keccak256(bytes(fileHash)) && files[i].isActive){... */\n    tag_69:\n        /* \"CompressedHistoryLedger/CompressedHistoryLedger.sol\":1323:1326  i++ */\n      dup1\n      dup1\n      0x01\n      add\n      swap2\n      pop\n      pop\n        /* \"CompressedHistoryLedger/CompressedHistoryLedger.sol\":1286:1585  for(uint256 i = 0; i < files.length; i++){... */\n      jump(tag_55)\n    tag_56:\n      pop\n        /* \"CompressedHistoryLedger/CompressedHistoryLedger.sol\":1595:1641  revert(\"File is already deleted or not found\") */\n      mload(0x40)\n      0x08c379a000000000000000000000000000000000000000000000000000000000\n      dup2\n      mstore\n      0x04\n      add\n      tag_75\n      swap1\n      tag_76\n      jump\t// in\n    tag_75:\n      mload(0x40)\n      dup1\n      swap2\n      sub\n      swap1\n      revert\n        /* \"CompressedHistoryLedger/CompressedHistoryLedger.sol\":1160:1649  function deleteFile(string calldata fileHash) external {... */\n    tag_54:\n      pop\n      pop\n      jump\t// out\n        /* \"CompressedHistoryLedger/CompressedHistoryLedger.sol\":799:1152  function fileUpload(string calldata fileHash) external uniqueFile(fileHash) maxFileLimite{... */\n    tag_18:\n        /* \"CompressedHistoryLedger/CompressedHistoryLedger.sol\":865:873  fileHash */\n      dup2\n      dup2\n        /* \"CompressedHistoryLedger/CompressedHistoryLedger.sol\":556:568  hashUploaded */\n      0x01\n        /* \"CompressedHistoryLedger/CompressedHistoryLedger.sol\":556:580  hashUploaded[msg.sender] */\n      0x00\n        /* \"CompressedHistoryLedger/CompressedHistoryLedger.sol\":569:579  msg.sender */\n      caller\n        /* \"CompressedHistoryLedger/CompressedHistoryLedger.sol\":556:580  hashUploaded[msg.sender] */\n      0xffffffffffffffffffffffffffffffffffffffff\n      and\n      0xffffffffffffffffffffffffffffffffffffffff\n      and\n      dup2\n      mstore\n      0x20\n      add\n      swap1\n      dup2\n      mstore\n      0x20\n      add\n      0x00\n      keccak256\n        /* \"CompressedHistoryLedger/CompressedHistoryLedger.sol\":581:589  filehash */\n      dup3\n      dup3\n        /* \"CompressedHistoryLedger/CompressedHistoryLedger.sol\":556:590  hashUploaded[msg.sender][filehash] */\n      mload(0x40)\n      tag_78\n      swap3\n      swap2\n      swap1\n      tag_79\n      jump\t// in\n    tag_78:\n      swap1\n      dup2\n      mstore\n      0x20\n      add\n      mload(0x40)\n      dup1\n      swap2\n      sub\n      swap1\n      keccak256\n      0x00\n      swap1\n      sload\n      swap1\n      0x0100\n      exp\n      swap1\n      div\n      0xff\n      and\n        /* \"CompressedHistoryLedger/CompressedHistoryLedger.sol\":555:590  !hashUploaded[msg.sender][filehash] */\n      iszero\n        /* \"CompressedHistoryLedger/CompressedHistoryLedger.sol\":547:620  require(!hashUploaded[msg.sender][filehash],\"This file already uploaded\") */\n      tag_80\n      jumpi\n      mload(0x40)\n      0x08c379a000000000000000000000000000000000000000000000000000000000\n      dup2\n      mstore\n      0x04\n      add\n      tag_81\n      swap1\n      tag_82\n      jump\t// in\n    tag_81:\n      mload(0x40)\n      dup1\n      swap2\n      sub\n      swap1\n      revert\n    tag_80:\n        /* \"CompressedHistoryLedger/CompressedHistoryLedger.sol\":721:724  100 */\n      0x64\n        /* \"CompressedHistoryLedger/CompressedHistoryLedger.sol\":691:699  userFile */\n      0x00\n        /* \"CompressedHistoryLedger/CompressedHistoryLedger.sol\":691:711  userFile[msg.sender] */\n      0x00\n        /* \"CompressedHistoryLedger/CompressedHistoryLedger.sol\":700:710  msg.sender */\n      caller\n        /* \"CompressedHistoryLedger/CompressedHistoryLedger.sol\":691:711  userFile[msg.sender] */\n      0xffffffffffffffffffffffffffffffffffffffff\n      and\n      0xffffffffffffffffffffffffffffffffffffffff\n      and\n      dup2\n      mstore\n      0x20\n      add\n      swap1\n      dup2\n      mstore\n      0x20\n      add\n      0x00\n      keccak256\n        /* \"CompressedHistoryLedger/CompressedHistoryLedger.sol\":691:718  userFile[msg.sender].length */\n      dup1\n      sload\n      swap1\n      pop\n        /* \"CompressedHistoryLedger/CompressedHistoryLedger.sol\":691:724  userFile[msg.sender].length < 100 */\n      lt\n        /* \"CompressedHistoryLedger/CompressedHistoryLedger.sol\":683:769  require(userFile[msg.sender].length < 100,\"You have reached your file upload limited\") */\n      tag_84\n      jumpi\n      mload(0x40)\n      0x08c379a000000000000000000000000000000000000000000000000000000000\n      dup2\n      mstore\n      0x04\n      add\n      tag_85\n      swap1\n      tag_86\n      jump\t// in\n    tag_85:\n      mload(0x40)\n      dup1\n      swap2\n      sub\n      swap1\n      revert\n    tag_84:\n        /* \"CompressedHistoryLedger/CompressedHistoryLedger.sol\":899:924  fileRecord memory newFile */\n      0x00\n        /* \"CompressedHistoryLedger/CompressedHistoryLedger.sol\":927:968  fileRecord(fileHash,block.timestamp,true) */\n      mload(0x40)\n      dup1\n      0x60\n      add\n      0x40\n      mstore\n      dup1\n        /* \"CompressedHistoryLedger/CompressedHistoryLedger.sol\":938:946  fileHash */\n      dup7\n      dup7\n        /* \"CompressedHistoryLedger/CompressedHistoryLedger.sol\":927:968  fileRecord(fileHash,block.timestamp,true) */\n      dup1\n      dup1\n      0x1f\n      add\n      0x20\n      dup1\n      swap2\n      div\n      mul\n      0x20\n      add\n      mload(0x40)\n      swap1\n      dup2\n      add\n      0x40\n      mstore\n      dup1\n      swap4\n      swap3\n      swap2\n      swap1\n      dup2\n      dup2\n      mstore\n      0x20\n      add\n      dup4\n      dup4\n      dup1\n      dup3\n      dup5\n      calldatacopy\n      0x00\n      dup2\n      dup5\n      add\n      mstore\n      not(0x1f)\n      0x1f\n      dup3\n      add\n      and\n      swap1\n      pop\n      dup1\n      dup4\n      add\n      swap3\n      pop\n      pop\n      pop\n      pop\n      pop\n      pop\n      pop\n      dup2\n      mstore\n      0x20\n      add\n        /* \"CompressedHistoryLedger/CompressedHistoryLedger.sol\":947:962  block.timestamp */\n      timestamp\n        /* \"CompressedHistoryLedger/CompressedHistoryLedger.sol\":927:968  fileRecord(fileHash,block.timestamp,true) */\n      dup2\n      mstore\n      0x20\n      add\n        /* \"CompressedHistoryLedger/CompressedHistoryLedger.sol\":963:967  true */\n      0x01\n        /* \"CompressedHistoryLedger/CompressedHistoryLedger.sol\":927:968  fileRecord(fileHash,block.timestamp,true) */\n      iszero\n      iszero\n      dup2\n      mstore\n      pop\n        /* \"CompressedHistoryLedger/CompressedHistoryLedger.sol\":899:968  fileRecord memory newFile = fileRecord(fileHash,block.timestamp,true) */\n      swap1\n      pop\n        /* \"CompressedHistoryLedger/CompressedHistoryLedger.sol\":981:989  userFile */\n      0x00\n        /* \"CompressedHistoryLedger/CompressedHistoryLedger.sol\":981:1001  userFile[msg.sender] */\n      0x00\n        /* \"CompressedHistoryLedger/CompressedHistoryLedger.sol\":990:1000  msg.sender */\n      caller\n        /* \"CompressedHistoryLedger/CompressedHistoryLedger.sol\":981:1001  userFile[msg.sender] */\n      0xffffffffffffffffffffffffffffffffffffffff\n      and\n      0xffffffffffffffffffffffffffffffffffffffff\n      and\n      dup2\n      mstore\n      0x20\n      add\n      swap1\n      dup2\n      mstore\n      0x20\n      add\n      0x00\n      keccak256\n        /* \"CompressedHistoryLedger/CompressedHistoryLedger.sol\":1007:1014  newFile */\n      dup2\n        /* \"CompressedHistoryLedger/CompressedHistoryLedger.sol\":981:1015  userFile[msg.sender].push(newFile) */\n      swap1\n      dup1\n      0x01\n      dup2\n      sload\n      add\n      dup1\n      dup3\n      sstore\n      dup1\n      swap2\n      pop\n      pop\n      0x01\n      swap1\n      sub\n      swap1\n      0x00\n      mstore\n      keccak256(0x00, 0x20)\n      swap1\n      0x03\n      mul\n      add\n      0x00\n      swap1\n      swap2\n      swap1\n      swap2\n      swap1\n      swap2\n      pop\n      0x00\n      dup3\n      add\n      mload\n      dup2\n      0x00\n      add\n      swap1\n      dup2\n      tag_89\n      swap2\n      swap1\n      tag_90\n      jump\t// in\n    tag_89:\n      pop\n      0x20\n      dup3\n      add\n      mload\n      dup2\n      0x01\n      add\n      sstore\n      0x40\n      dup3\n      add\n      mload\n      dup2\n      0x02\n      add\n      exp(0x0100, 0x00)\n      dup2\n      sload\n      dup2\n      0xff\n      mul\n      not\n      and\n      swap1\n      dup4\n      iszero\n      iszero\n      mul\n      or\n      swap1\n      sstore\n      pop\n      pop\n      pop\n        /* \"CompressedHistoryLedger/CompressedHistoryLedger.sol\":1063:1067  true */\n      0x01\n        /* \"CompressedHistoryLedger/CompressedHistoryLedger.sol\":1026:1038  hashUploaded */\n      dup1\n        /* \"CompressedHistoryLedger/CompressedHistoryLedger.sol\":1026:1050  hashUploaded[msg.sender] */\n      0x00\n        /* \"CompressedHistoryLedger/CompressedHistoryLedger.sol\":1039:1049  msg.sender */\n      caller\n        /* \"CompressedHistoryLedger/CompressedHistoryLedger.sol\":1026:1050  hashUploaded[msg.sender] */\n      0xffffffffffffffffffffffffffffffffffffffff\n      and\n      0xffffffffffffffffffffffffffffffffffffffff\n      and\n      dup2\n      mstore\n      0x20\n      add\n      swap1\n      dup2\n      mstore\n      0x20\n      add\n      0x00\n      keccak256\n        /* \"CompressedHistoryLedger/CompressedHistoryLedger.sol\":1051:1059  fileHash */\n      dup7\n      dup7\n        /* \"CompressedHistoryLedger/CompressedHistoryLedger.sol\":1026:1060  hashUploaded[msg.sender][fileHash] */\n      mload(0x40)\n      tag_91\n      swap3\n      swap2\n      swap1\n      tag_79\n      jump\t// in\n    tag_91:\n      swap1\n      dup2\n      mstore\n      0x20\n      add\n      mload(0x40)\n      dup1\n      swap2\n      sub\n      swap1\n      keccak256\n      0x00\n        /* \"CompressedHistoryLedger/CompressedHistoryLedger.sol\":1026:1067  hashUploaded[msg.sender][fileHash] = true */\n      0x0100\n      exp\n      dup2\n      sload\n      dup2\n      0xff\n      mul\n      not\n      and\n      swap1\n      dup4\n      iszero\n      iszero\n      mul\n      or\n      swap1\n      sstore\n      pop\n        /* \"CompressedHistoryLedger/CompressedHistoryLedger.sol\":1106:1116  msg.sender */\n      caller\n        /* \"CompressedHistoryLedger/CompressedHistoryLedger.sol\":1093:1144  fileUploaded(msg.sender, fileHash, block.timestamp) */\n      0xffffffffffffffffffffffffffffffffffffffff\n      and\n      0xc4471a766acd930aa96463e1fdda8f8fd429055933a7d8644bc8d2abb3912d66\n        /* \"CompressedHistoryLedger/CompressedHistoryLedger.sol\":1118:1126  fileHash */\n      dup7\n      dup7\n        /* \"CompressedHistoryLedger/CompressedHistoryLedger.sol\":1128:1143  block.timestamp */\n      timestamp\n        /* \"CompressedHistoryLedger/CompressedHistoryLedger.sol\":1093:1144  fileUploaded(msg.sender, fileHash, block.timestamp) */\n      mload(0x40)\n      tag_92\n      swap4\n      swap3\n      swap2\n      swap1\n      tag_93\n      jump\t// in\n    tag_92:\n      mload(0x40)\n      dup1\n      swap2\n      sub\n      swap1\n      log2\n        /* \"CompressedHistoryLedger/CompressedHistoryLedger.sol\":888:1152  {... */\n      pop\n        /* \"CompressedHistoryLedger/CompressedHistoryLedger.sol\":799:1152  function fileUpload(string calldata fileHash) external uniqueFile(fileHash) maxFileLimite{... */\n      pop\n      pop\n      pop\n      pop\n      jump\t// out\n        /* \"#utility.yul\":88:205   */\n    tag_95:\n        /* \"#utility.yul\":197:198   */\n      0x00\n        /* \"#utility.yul\":194:195   */\n      0x00\n        /* \"#utility.yul\":187:199   */\n      revert\n        /* \"#utility.yul\":211:328   */\n    tag_96:\n        /* \"#utility.yul\":320:321   */\n      0x00\n        /* \"#utility.yul\":317:318   */\n      0x00\n        /* \"#utility.yul\":310:322   */\n      revert\n        /* \"#utility.yul\":334:460   */\n    tag_97:\n        /* \"#utility.yul\":371:378   */\n      0x00\n        /* \"#utility.yul\":411:453   */\n      0xffffffffffffffffffffffffffffffffffffffff\n        /* \"#utility.yul\":404:409   */\n      dup3\n        /* \"#utility.yul\":400:454   */\n      and\n        /* \"#utility.yul\":389:454   */\n      swap1\n      pop\n        /* \"#utility.yul\":334:460   */\n      swap2\n      swap1\n      pop\n      jump\t// out\n        /* \"#utility.yul\":466:562   */\n    tag_98:\n        /* \"#utility.yul\":503:510   */\n      0x00\n        /* \"#utility.yul\":532:556   */\n      tag_156\n        /* \"#utility.yul\":550:555   */\n      dup3\n        /* \"#utility.yul\":532:556   */\n      tag_97\n      jump\t// in\n    tag_156:\n        /* \"#utility.yul\":521:556   */\n      swap1\n      pop\n        /* \"#utility.yul\":466:562   */\n      swap2\n      swap1\n      pop\n      jump\t// out\n        /* \"#utility.yul\":568:690   */\n    tag_99:\n        /* \"#utility.yul\":641:665   */\n      tag_158\n        /* \"#utility.yul\":659:664   */\n      dup2\n        /* \"#utility.yul\":641:665   */\n      tag_98\n      jump\t// in\n    tag_158:\n        /* \"#utility.yul\":634:639   */\n      dup2\n        /* \"#utility.yul\":631:666   */\n      eq\n        /* \"#utility.yul\":621:684   */\n      tag_159\n      jumpi\n        /* \"#utility.yul\":680:681   */\n      0x00\n        /* \"#utility.yul\":677:678   */\n      0x00\n        /* \"#utility.yul\":670:682   */\n      revert\n        /* \"#utility.yul\":621:684   */\n    tag_159:\n        /* \"#utility.yul\":568:690   */\n      pop\n      jump\t// out\n        /* \"#utility.yul\":696:835   */\n    tag_100:\n        /* \"#utility.yul\":742:747   */\n      0x00\n        /* \"#utility.yul\":780:786   */\n      dup2\n        /* \"#utility.yul\":767:787   */\n      calldataload\n        /* \"#utility.yul\":758:787   */\n      swap1\n      pop\n        /* \"#utility.yul\":796:829   */\n      tag_161\n        /* \"#utility.yul\":823:828   */\n      dup2\n        /* \"#utility.yul\":796:829   */\n      tag_99\n      jump\t// in\n    tag_161:\n        /* \"#utility.yul\":696:835   */\n      swap3\n      swap2\n      pop\n      pop\n      jump\t// out\n        /* \"#utility.yul\":841:1170   */\n    tag_8:\n        /* \"#utility.yul\":900:906   */\n      0x00\n        /* \"#utility.yul\":949:951   */\n      0x20\n        /* \"#utility.yul\":937:946   */\n      dup3\n        /* \"#utility.yul\":928:935   */\n      dup5\n        /* \"#utility.yul\":924:947   */\n      sub\n        /* \"#utility.yul\":920:952   */\n      slt\n        /* \"#utility.yul\":917:1036   */\n      iszero\n      tag_163\n      jumpi\n        /* \"#utility.yul\":955:1034   */\n      tag_164\n      tag_95\n      jump\t// in\n    tag_164:\n        /* \"#utility.yul\":917:1036   */\n    tag_163:\n        /* \"#utility.yul\":1075:1076   */\n      0x00\n        /* \"#utility.yul\":1100:1153   */\n      tag_165\n        /* \"#utility.yul\":1145:1152   */\n      dup5\n        /* \"#utility.yul\":1136:1142   */\n      dup3\n        /* \"#utility.yul\":1125:1134   */\n      dup6\n        /* \"#utility.yul\":1121:1143   */\n      add\n        /* \"#utility.yul\":1100:1153   */\n      tag_100\n      jump\t// in\n    tag_165:\n        /* \"#utility.yul\":1090:1153   */\n      swap2\n      pop\n        /* \"#utility.yul\":1046:1163   */\n      pop\n        /* \"#utility.yul\":841:1170   */\n      swap3\n      swap2\n      pop\n      pop\n      jump\t// out\n        /* \"#utility.yul\":1176:1300   */\n    tag_101:\n        /* \"#utility.yul\":1253:1259   */\n      0x00\n        /* \"#utility.yul\":1287:1292   */\n      dup2\n        /* \"#utility.yul\":1281:1293   */\n      mload\n        /* \"#utility.yul\":1271:1293   */\n      swap1\n      pop\n        /* \"#utility.yul\":1176:1300   */\n      swap2\n      swap1\n      pop\n      jump\t// out\n        /* \"#utility.yul\":1306:1500   */\n    tag_102:\n        /* \"#utility.yul\":1415:1426   */\n      0x00\n        /* \"#utility.yul\":1449:1455   */\n      dup3\n        /* \"#utility.yul\":1444:1447   */\n      dup3\n        /* \"#utility.yul\":1437:1456   */\n      mstore\n        /* \"#utility.yul\":1489:1493   */\n      0x20\n        /* \"#utility.yul\":1484:1487   */\n      dup3\n        /* \"#utility.yul\":1480:1494   */\n      add\n        /* \"#utility.yul\":1465:1494   */\n      swap1\n      pop\n        /* \"#utility.yul\":1306:1500   */\n      swap3\n      swap2\n      pop\n      pop\n      jump\t// out\n        /* \"#utility.yul\":1506:1648   */\n    tag_103:\n        /* \"#utility.yul\":1583:1587   */\n      0x00\n        /* \"#utility.yul\":1606:1609   */\n      dup2\n        /* \"#utility.yul\":1598:1609   */\n      swap1\n      pop\n        /* \"#utility.yul\":1636:1640   */\n      0x20\n        /* \"#utility.yul\":1631:1634   */\n      dup3\n        /* \"#utility.yul\":1627:1641   */\n      add\n        /* \"#utility.yul\":1619:1641   */\n      swap1\n      pop\n        /* \"#utility.yul\":1506:1648   */\n      swap2\n      swap1\n      pop\n      jump\t// out\n        /* \"#utility.yul\":1654:1753   */\n    tag_104:\n        /* \"#utility.yul\":1706:1712   */\n      0x00\n        /* \"#utility.yul\":1740:1745   */\n      dup2\n        /* \"#utility.yul\":1734:1746   */\n      mload\n        /* \"#utility.yul\":1724:1746   */\n      swap1\n      pop\n        /* \"#utility.yul\":1654:1753   */\n      swap2\n      swap1\n      pop\n      jump\t// out\n        /* \"#utility.yul\":1759:1918   */\n    tag_105:\n        /* \"#utility.yul\":1833:1844   */\n      0x00\n        /* \"#utility.yul\":1867:1873   */\n      dup3\n        /* \"#utility.yul\":1862:1865   */\n      dup3\n        /* \"#utility.yul\":1855:1874   */\n      mstore\n        /* \"#utility.yul\":1907:1911   */\n      0x20\n        /* \"#utility.yul\":1902:1905   */\n      dup3\n        /* \"#utility.yul\":1898:1912   */\n      add\n        /* \"#utility.yul\":1883:1912   */\n      swap1\n      pop\n        /* \"#utility.yul\":1759:1918   */\n      swap3\n      swap2\n      pop\n      pop\n      jump\t// out\n        /* \"#utility.yul\":1924:2063   */\n    tag_106:\n        /* \"#utility.yul\":2013:2019   */\n      dup3\n        /* \"#utility.yul\":2008:2011   */\n      dup2\n        /* \"#utility.yul\":2003:2006   */\n      dup4\n        /* \"#utility.yul\":1997:2020   */\n      mcopy\n        /* \"#utility.yul\":2054:2055   */\n      0x00\n        /* \"#utility.yul\":2045:2051   */\n      dup4\n        /* \"#utility.yul\":2040:2043   */\n      dup4\n        /* \"#utility.yul\":2036:2052   */\n      add\n        /* \"#utility.yul\":2029:2056   */\n      mstore\n        /* \"#utility.yul\":1924:2063   */\n      pop\n      pop\n      pop\n      jump\t// out\n        /* \"#utility.yul\":2069:2171   */\n    tag_107:\n        /* \"#utility.yul\":2110:2116   */\n      0x00\n        /* \"#utility.yul\":2161:2163   */\n      0x1f\n        /* \"#utility.yul\":2157:2164   */\n      not\n        /* \"#utility.yul\":2152:2154   */\n      0x1f\n        /* \"#utility.yul\":2145:2150   */\n      dup4\n        /* \"#utility.yul\":2141:2155   */\n      add\n        /* \"#utility.yul\":2137:2165   */\n      and\n        /* \"#utility.yul\":2127:2165   */\n      swap1\n      pop\n        /* \"#utility.yul\":2069:2171   */\n      swap2\n      swap1\n      pop\n      jump\t// out\n        /* \"#utility.yul\":2177:2534   */\n    tag_108:\n        /* \"#utility.yul\":2255:2258   */\n      0x00\n        /* \"#utility.yul\":2283:2322   */\n      tag_174\n        /* \"#utility.yul\":2316:2321   */\n      dup3\n        /* \"#utility.yul\":2283:2322   */\n      tag_104\n      jump\t// in\n    tag_174:\n        /* \"#utility.yul\":2338:2399   */\n      tag_175\n        /* \"#utility.yul\":2392:2398   */\n      dup2\n        /* \"#utility.yul\":2387:2390   */\n      dup6\n        /* \"#utility.yul\":2338:2399   */\n      tag_105\n      jump\t// in\n    tag_175:\n        /* \"#utility.yul\":2331:2399   */\n      swap4\n      pop\n        /* \"#utility.yul\":2408:2473   */\n      tag_176\n        /* \"#utility.yul\":2466:2472   */\n      dup2\n        /* \"#utility.yul\":2461:2464   */\n      dup6\n        /* \"#utility.yul\":2454:2458   */\n      0x20\n        /* \"#utility.yul\":2447:2452   */\n      dup7\n        /* \"#utility.yul\":2443:2459   */\n      add\n        /* \"#utility.yul\":2408:2473   */\n      tag_106\n      jump\t// in\n    tag_176:\n        /* \"#utility.yul\":2498:2527   */\n      tag_177\n        /* \"#utility.yul\":2520:2526   */\n      dup2\n        /* \"#utility.yul\":2498:2527   */\n      tag_107\n      jump\t// in\n    tag_177:\n        /* \"#utility.yul\":2493:2496   */\n      dup5\n        /* \"#utility.yul\":2489:2528   */\n      add\n        /* \"#utility.yul\":2482:2528   */\n      swap2\n      pop\n        /* \"#utility.yul\":2259:2534   */\n      pop\n        /* \"#utility.yul\":2177:2534   */\n      swap3\n      swap2\n      pop\n      pop\n      jump\t// out\n        /* \"#utility.yul\":2540:2736   */\n    tag_109:\n        /* \"#utility.yul\":2629:2639   */\n      0x00\n        /* \"#utility.yul\":2664:2730   */\n      tag_179\n        /* \"#utility.yul\":2726:2729   */\n      dup4\n        /* \"#utility.yul\":2718:2724   */\n      dup4\n        /* \"#utility.yul\":2664:2730   */\n      tag_108\n      jump\t// in\n    tag_179:\n        /* \"#utility.yul\":2650:2730   */\n      swap1\n      pop\n        /* \"#utility.yul\":2540:2736   */\n      swap3\n      swap2\n      pop\n      pop\n      jump\t// out\n        /* \"#utility.yul\":2742:2865   */\n    tag_110:\n        /* \"#utility.yul\":2822:2826   */\n      0x00\n        /* \"#utility.yul\":2854:2858   */\n      0x20\n        /* \"#utility.yul\":2849:2852   */\n      dup3\n        /* \"#utility.yul\":2845:2859   */\n      add\n        /* \"#utility.yul\":2837:2859   */\n      swap1\n      pop\n        /* \"#utility.yul\":2742:2865   */\n      swap2\n      swap1\n      pop\n      jump\t// out\n        /* \"#utility.yul\":2899:3890   */\n    tag_111:\n        /* \"#utility.yul\":3038:3041   */\n      0x00\n        /* \"#utility.yul\":3067:3131   */\n      tag_182\n        /* \"#utility.yul\":3125:3130   */\n      dup3\n        /* \"#utility.yul\":3067:3131   */\n      tag_101\n      jump\t// in\n    tag_182:\n        /* \"#utility.yul\":3147:3243   */\n      tag_183\n        /* \"#utility.yul\":3236:3242   */\n      dup2\n        /* \"#utility.yul\":3231:3234   */\n      dup6\n        /* \"#utility.yul\":3147:3243   */\n      tag_102\n      jump\t// in\n    tag_183:\n        /* \"#utility.yul\":3140:3243   */\n      swap4\n      pop\n        /* \"#utility.yul\":3269:3272   */\n      dup4\n        /* \"#utility.yul\":3314:3318   */\n      0x20\n        /* \"#utility.yul\":3306:3312   */\n      dup3\n        /* \"#utility.yul\":3302:3319   */\n      mul\n        /* \"#utility.yul\":3297:3300   */\n      dup6\n        /* \"#utility.yul\":3293:3320   */\n      add\n        /* \"#utility.yul\":3344:3410   */\n      tag_184\n        /* \"#utility.yul\":3404:3409   */\n      dup6\n        /* \"#utility.yul\":3344:3410   */\n      tag_103\n      jump\t// in\n    tag_184:\n        /* \"#utility.yul\":3433:3440   */\n      dup1\n        /* \"#utility.yul\":3464:3465   */\n      0x00\n        /* \"#utility.yul\":3449:3845   */\n    tag_185:\n        /* \"#utility.yul\":3474:3480   */\n      dup6\n        /* \"#utility.yul\":3471:3472   */\n      dup2\n        /* \"#utility.yul\":3468:3481   */\n      lt\n        /* \"#utility.yul\":3449:3845   */\n      iszero\n      tag_187\n      jumpi\n        /* \"#utility.yul\":3545:3554   */\n      dup5\n        /* \"#utility.yul\":3539:3543   */\n      dup5\n        /* \"#utility.yul\":3535:3555   */\n      sub\n        /* \"#utility.yul\":3530:3533   */\n      dup10\n        /* \"#utility.yul\":3523:3556   */\n      mstore\n        /* \"#utility.yul\":3596:3602   */\n      dup2\n        /* \"#utility.yul\":3590:3603   */\n      mload\n        /* \"#utility.yul\":3624:3708   */\n      tag_188\n        /* \"#utility.yul\":3703:3707   */\n      dup6\n        /* \"#utility.yul\":3688:3701   */\n      dup3\n        /* \"#utility.yul\":3624:3708   */\n      tag_109\n      jump\t// in\n    tag_188:\n        /* \"#utility.yul\":3616:3708   */\n      swap5\n      pop\n        /* \"#utility.yul\":3731:3801   */\n      tag_189\n        /* \"#utility.yul\":3794:3800   */\n      dup4\n        /* \"#utility.yul\":3731:3801   */\n      tag_110\n      jump\t// in\n    tag_189:\n        /* \"#utility.yul\":3721:3801   */\n      swap3\n      pop\n        /* \"#utility.yul\":3830:3834   */\n      0x20\n        /* \"#utility.yul\":3825:3828   */\n      dup11\n        /* \"#utility.yul\":3821:3835   */\n      add\n        /* \"#utility.yul\":3814:3835   */\n      swap10\n      pop\n        /* \"#utility.yul\":3509:3845   */\n      pop\n        /* \"#utility.yul\":3496:3497   */\n      0x01\n        /* \"#utility.yul\":3493:3494   */\n      dup2\n        /* \"#utility.yul\":3489:3498   */\n      add\n        /* \"#utility.yul\":3484:3498   */\n      swap1\n      pop\n        /* \"#utility.yul\":3449:3845   */\n      jump(tag_185)\n    tag_187:\n        /* \"#utility.yul\":3453:3467   */\n      pop\n        /* \"#utility.yul\":3861:3865   */\n      dup3\n        /* \"#utility.yul\":3854:3865   */\n      swap8\n      pop\n        /* \"#utility.yul\":3881:3884   */\n      dup8\n        /* \"#utility.yul\":3874:3884   */\n      swap6\n      pop\n        /* \"#utility.yul\":3043:3890   */\n      pop\n      pop\n      pop\n      pop\n      pop\n        /* \"#utility.yul\":2899:3890   */\n      swap3\n      swap2\n      pop\n      pop\n      jump\t// out\n        /* \"#utility.yul\":3896:4309   */\n    tag_11:\n        /* \"#utility.yul\":4059:4063   */\n      0x00\n        /* \"#utility.yul\":4097:4099   */\n      0x20\n        /* \"#utility.yul\":4086:4095   */\n      dup3\n        /* \"#utility.yul\":4082:4100   */\n      add\n        /* \"#utility.yul\":4074:4100   */\n      swap1\n      pop\n        /* \"#utility.yul\":4146:4155   */\n      dup2\n        /* \"#utility.yul\":4140:4144   */\n      dup2\n        /* \"#utility.yul\":4136:4156   */\n      sub\n        /* \"#utility.yul\":4132:4133   */\n      0x00\n        /* \"#utility.yul\":4121:4130   */\n      dup4\n        /* \"#utility.yul\":4117:4134   */\n      add\n        /* \"#utility.yul\":4110:4157   */\n      mstore\n        /* \"#utility.yul\":4174:4302   */\n      tag_191\n        /* \"#utility.yul\":4297:4301   */\n      dup2\n        /* \"#utility.yul\":4288:4294   */\n      dup5\n        /* \"#utility.yul\":4174:4302   */\n      tag_111\n      jump\t// in\n    tag_191:\n        /* \"#utility.yul\":4166:4302   */\n      swap1\n      pop\n        /* \"#utility.yul\":3896:4309   */\n      swap3\n      swap2\n      pop\n      pop\n      jump\t// out\n        /* \"#utility.yul\":4315:4432   */\n    tag_112:\n        /* \"#utility.yul\":4424:4425   */\n      0x00\n        /* \"#utility.yul\":4421:4422   */\n      0x00\n        /* \"#utility.yul\":4414:4426   */\n      revert\n        /* \"#utility.yul\":4438:4555   */\n    tag_113:\n        /* \"#utility.yul\":4547:4548   */\n      0x00\n        /* \"#utility.yul\":4544:4545   */\n      0x00\n        /* \"#utility.yul\":4537:4549   */\n      revert\n        /* \"#utility.yul\":4561:4678   */\n    tag_114:\n        /* \"#utility.yul\":4670:4671   */\n      0x00\n        /* \"#utility.yul\":4667:4668   */\n      0x00\n        /* \"#utility.yul\":4660:4672   */\n      revert\n        /* \"#utility.yul\":4698:5251   */\n    tag_115:\n        /* \"#utility.yul\":4756:4764   */\n      0x00\n        /* \"#utility.yul\":4766:4772   */\n      0x00\n        /* \"#utility.yul\":4816:4819   */\n      dup4\n        /* \"#utility.yul\":4809:4813   */\n      0x1f\n        /* \"#utility.yul\":4801:4807   */\n      dup5\n        /* \"#utility.yul\":4797:4814   */\n      add\n        /* \"#utility.yul\":4793:4820   */\n      slt\n        /* \"#utility.yul\":4783:4905   */\n      tag_196\n      jumpi\n        /* \"#utility.yul\":4824:4903   */\n      tag_197\n      tag_112\n      jump\t// in\n    tag_197:\n        /* \"#utility.yul\":4783:4905   */\n    tag_196:\n        /* \"#utility.yul\":4937:4943   */\n      dup3\n        /* \"#utility.yul\":4924:4944   */\n      calldataload\n        /* \"#utility.yul\":4914:4944   */\n      swap1\n      pop\n        /* \"#utility.yul\":4967:4985   */\n      0xffffffffffffffff\n        /* \"#utility.yul\":4959:4965   */\n      dup2\n        /* \"#utility.yul\":4956:4986   */\n      gt\n        /* \"#utility.yul\":4953:5070   */\n      iszero\n      tag_198\n      jumpi\n        /* \"#utility.yul\":4989:5068   */\n      tag_199\n      tag_113\n      jump\t// in\n    tag_199:\n        /* \"#utility.yul\":4953:5070   */\n    tag_198:\n        /* \"#utility.yul\":5103:5107   */\n      0x20\n        /* \"#utility.yul\":5095:5101   */\n      dup4\n        /* \"#utility.yul\":5091:5108   */\n      add\n        /* \"#utility.yul\":5079:5108   */\n      swap2\n      pop\n        /* \"#utility.yul\":5157:5160   */\n      dup4\n        /* \"#utility.yul\":5149:5153   */\n      0x01\n        /* \"#utility.yul\":5141:5147   */\n      dup3\n        /* \"#utility.yul\":5137:5154   */\n      mul\n        /* \"#utility.yul\":5127:5135   */\n      dup4\n        /* \"#utility.yul\":5123:5155   */\n      add\n        /* \"#utility.yul\":5120:5161   */\n      gt\n        /* \"#utility.yul\":5117:5245   */\n      iszero\n      tag_200\n      jumpi\n        /* \"#utility.yul\":5164:5243   */\n      tag_201\n      tag_114\n      jump\t// in\n    tag_201:\n        /* \"#utility.yul\":5117:5245   */\n    tag_200:\n        /* \"#utility.yul\":4698:5251   */\n      swap3\n      pop\n      swap3\n      swap1\n      pop\n      jump\t// out\n        /* \"#utility.yul\":5257:5786   */\n    tag_14:\n        /* \"#utility.yul\":5328:5334   */\n      0x00\n        /* \"#utility.yul\":5336:5342   */\n      0x00\n        /* \"#utility.yul\":5385:5387   */\n      0x20\n        /* \"#utility.yul\":5373:5382   */\n      dup4\n        /* \"#utility.yul\":5364:5371   */\n      dup6\n        /* \"#utility.yul\":5360:5383   */\n      sub\n        /* \"#utility.yul\":5356:5388   */\n      slt\n        /* \"#utility.yul\":5353:5472   */\n      iszero\n      tag_203\n      jumpi\n        /* \"#utility.yul\":5391:5470   */\n      tag_204\n      tag_95\n      jump\t// in\n    tag_204:\n        /* \"#utility.yul\":5353:5472   */\n    tag_203:\n        /* \"#utility.yul\":5539:5540   */\n      0x00\n        /* \"#utility.yul\":5528:5537   */\n      dup4\n        /* \"#utility.yul\":5524:5541   */\n      add\n        /* \"#utility.yul\":5511:5542   */\n      calldataload\n        /* \"#utility.yul\":5569:5587   */\n      0xffffffffffffffff\n        /* \"#utility.yul\":5561:5567   */\n      dup2\n        /* \"#utility.yul\":5558:5588   */\n      gt\n        /* \"#utility.yul\":5555:5672   */\n      iszero\n      tag_205\n      jumpi\n        /* \"#utility.yul\":5591:5670   */\n      tag_206\n      tag_96\n      jump\t// in\n    tag_206:\n        /* \"#utility.yul\":5555:5672   */\n    tag_205:\n        /* \"#utility.yul\":5704:5769   */\n      tag_207\n        /* \"#utility.yul\":5761:5768   */\n      dup6\n        /* \"#utility.yul\":5752:5758   */\n      dup3\n        /* \"#utility.yul\":5741:5750   */\n      dup7\n        /* \"#utility.yul\":5737:5759   */\n      add\n        /* \"#utility.yul\":5704:5769   */\n      tag_115\n      jump\t// in\n    tag_207:\n        /* \"#utility.yul\":5686:5769   */\n      swap3\n      pop\n      swap3\n      pop\n        /* \"#utility.yul\":5482:5779   */\n      pop\n        /* \"#utility.yul\":5257:5786   */\n      swap3\n      pop\n      swap3\n      swap1\n      pop\n      jump\t// out\n        /* \"#utility.yul\":5792:5972   */\n    tag_25:\n        /* \"#utility.yul\":5840:5917   */\n      0x4e487b7100000000000000000000000000000000000000000000000000000000\n        /* \"#utility.yul\":5837:5838   */\n      0x00\n        /* \"#utility.yul\":5830:5918   */\n      mstore\n        /* \"#utility.yul\":5937:5941   */\n      0x32\n        /* \"#utility.yul\":5934:5935   */\n      0x04\n        /* \"#utility.yul\":5927:5942   */\n      mstore\n        /* \"#utility.yul\":5961:5965   */\n      0x24\n        /* \"#utility.yul\":5958:5959   */\n      0x00\n        /* \"#utility.yul\":5951:5966   */\n      revert\n        /* \"#utility.yul\":5978:6158   */\n    tag_116:\n        /* \"#utility.yul\":6026:6103   */\n      0x4e487b7100000000000000000000000000000000000000000000000000000000\n        /* \"#utility.yul\":6023:6024   */\n      0x00\n        /* \"#utility.yul\":6016:6104   */\n      mstore\n        /* \"#utility.yul\":6123:6127   */\n      0x11\n        /* \"#utility.yul\":6120:6121   */\n      0x04\n        /* \"#utility.yul\":6113:6128   */\n      mstore\n        /* \"#utility.yul\":6147:6151   */\n      0x24\n        /* \"#utility.yul\":6144:6145   */\n      0x00\n        /* \"#utility.yul\":6137:6152   */\n      revert\n        /* \"#utility.yul\":6164:6241   */\n    tag_117:\n        /* \"#utility.yul\":6201:6208   */\n      0x00\n        /* \"#utility.yul\":6230:6235   */\n      dup2\n        /* \"#utility.yul\":6219:6235   */\n      swap1\n      pop\n        /* \"#utility.yul\":6164:6241   */\n      swap2\n      swap1\n      pop\n      jump\t// out\n        /* \"#utility.yul\":6247:6480   */\n    tag_29:\n        /* \"#utility.yul\":6286:6289   */\n      0x00\n        /* \"#utility.yul\":6309:6333   */\n      tag_212\n        /* \"#utility.yul\":6327:6332   */\n      dup3\n        /* \"#utility.yul\":6309:6333   */\n      tag_117\n      jump\t// in\n    tag_212:\n        /* \"#utility.yul\":6300:6333   */\n      swap2\n      pop\n        /* \"#utility.yul\":6355:6421   */\n      0xffffffffffffffffffffffffffffffffffffffffffffffffffffffffffffffff\n        /* \"#utility.yul\":6348:6353   */\n      dup3\n        /* \"#utility.yul\":6345:6422   */\n      sub\n        /* \"#utility.yul\":6342:6445   */\n      tag_213\n      jumpi\n        /* \"#utility.yul\":6425:6443   */\n      tag_214\n      tag_116\n      jump\t// in\n    tag_214:\n        /* \"#utility.yul\":6342:6445   */\n    tag_213:\n        /* \"#utility.yul\":6472:6473   */\n      0x01\n        /* \"#utility.yul\":6465:6470   */\n      dup3\n        /* \"#utility.yul\":6461:6474   */\n      add\n        /* \"#utility.yul\":6454:6474   */\n      swap1\n      pop\n        /* \"#utility.yul\":6247:6480   */\n      swap2\n      swap1\n      pop\n      jump\t// out\n        /* \"#utility.yul\":6486:6666   */\n    tag_32:\n        /* \"#utility.yul\":6534:6611   */\n      0x4e487b7100000000000000000000000000000000000000000000000000000000\n        /* \"#utility.yul\":6531:6532   */\n      0x00\n        /* \"#utility.yul\":6524:6612   */\n      mstore\n        /* \"#utility.yul\":6631:6635   */\n      0x41\n        /* \"#utility.yul\":6628:6629   */\n      0x04\n        /* \"#utility.yul\":6621:6636   */\n      mstore\n        /* \"#utility.yul\":6655:6659   */\n      0x24\n        /* \"#utility.yul\":6652:6653   */\n      0x00\n        /* \"#utility.yul\":6645:6660   */\n      revert\n        /* \"#utility.yul\":6672:6852   */\n    tag_118:\n        /* \"#utility.yul\":6720:6797   */\n      0x4e487b7100000000000000000000000000000000000000000000000000000000\n        /* \"#utility.yul\":6717:6718   */\n      0x00\n        /* \"#utility.yul\":6710:6798   */\n      mstore\n        /* \"#utility.yul\":6817:6821   */\n      0x22\n        /* \"#utility.yul\":6814:6815   */\n      0x04\n        /* \"#utility.yul\":6807:6822   */\n      mstore\n        /* \"#utility.yul\":6841:6845   */\n      0x24\n        /* \"#utility.yul\":6838:6839   */\n      0x00\n        /* \"#utility.yul\":6831:6846   */\n      revert\n        /* \"#utility.yul\":6858:7178   */\n    tag_46:\n        /* \"#utility.yul\":6902:6908   */\n      0x00\n        /* \"#utility.yul\":6939:6940   */\n      0x02\n        /* \"#utility.yul\":6933:6937   */\n      dup3\n        /* \"#utility.yul\":6929:6941   */\n      div\n        /* \"#utility.yul\":6919:6941   */\n      swap1\n      pop\n        /* \"#utility.yul\":6986:6987   */\n      0x01\n        /* \"#utility.yul\":6980:6984   */\n      dup3\n        /* \"#utility.yul\":6976:6988   */\n      and\n        /* \"#utility.yul\":7007:7025   */\n      dup1\n        /* \"#utility.yul\":6997:7078   */\n      tag_218\n      jumpi\n        /* \"#utility.yul\":7063:7067   */\n      0x7f\n        /* \"#utility.yul\":7055:7061   */\n      dup3\n        /* \"#utility.yul\":7051:7068   */\n      and\n        /* \"#utility.yul\":7041:7068   */\n      swap2\n      pop\n        /* \"#utility.yul\":6997:7078   */\n    tag_218:\n        /* \"#utility.yul\":7125:7127   */\n      0x20\n        /* \"#utility.yul\":7117:7123   */\n      dup3\n        /* \"#utility.yul\":7114:7128   */\n      lt\n        /* \"#utility.yul\":7094:7112   */\n      dup2\n        /* \"#utility.yul\":7091:7129   */\n      sub\n        /* \"#utility.yul\":7088:7172   */\n      tag_219\n      jumpi\n        /* \"#utility.yul\":7144:7162   */\n      tag_220\n      tag_118\n      jump\t// in\n    tag_220:\n        /* \"#utility.yul\":7088:7172   */\n    tag_219:\n        /* \"#utility.yul\":6909:7178   */\n      pop\n        /* \"#utility.yul\":6858:7178   */\n      swap2\n      swap1\n      pop\n      jump\t// out\n        /* \"#utility.yul\":7184:7331   */\n    tag_119:\n        /* \"#utility.yul\":7285:7296   */\n      0x00\n        /* \"#utility.yul\":7322:7325   */\n      dup2\n        /* \"#utility.yul\":7307:7325   */\n      swap1\n      pop\n        /* \"#utility.yul\":7184:7331   */\n      swap3\n      swap2\n      pop\n      pop\n      jump\t// out\n        /* \"#utility.yul\":7337:7485   */\n    tag_120:\n        /* \"#utility.yul\":7435:7441   */\n      dup3\n        /* \"#utility.yul\":7430:7433   */\n      dup2\n        /* \"#utility.yul\":7425:7428   */\n      dup4\n        /* \"#utility.yul\":7412:7442   */\n      calldatacopy\n        /* \"#utility.yul\":7476:7477   */\n      0x00\n        /* \"#utility.yul\":7467:7473   */\n      dup4\n        /* \"#utility.yul\":7462:7465   */\n      dup4\n        /* \"#utility.yul\":7458:7474   */\n      add\n        /* \"#utility.yul\":7451:7478   */\n      mstore\n        /* \"#utility.yul\":7337:7485   */\n      pop\n      pop\n      pop\n      jump\t// out\n        /* \"#utility.yul\":7513:7840   */\n    tag_121:\n        /* \"#utility.yul\":7627:7630   */\n      0x00\n        /* \"#utility.yul\":7648:7736   */\n      tag_224\n        /* \"#utility.yul\":7729:7735   */\n      dup4\n        /* \"#utility.yul\":7724:7727   */\n      dup6\n        /* \"#utility.yul\":7648:7736   */\n      tag_119\n      jump\t// in\n    tag_224:\n        /* \"#utility.yul\":7641:7736   */\n      swap4\n      pop\n        /* \"#utility.yul\":7746:7802   */\n      tag_225\n        /* \"#utility.yul\":7795:7801   */\n      dup4\n        /* \"#utility.yul\":7790:7793   */\n      dup6\n        /* \"#utility.yul\":7783:7788   */\n      dup5\n        /* \"#utility.yul\":7746:7802   */\n      tag_120\n      jump\t// in\n    tag_225:\n        /* \"#utility.yul\":7827:7833   */\n      dup3\n        /* \"#utility.yul\":7822:7825   */\n      dup5\n        /* \"#utility.yul\":7818:7834   */\n      add\n        /* \"#utility.yul\":7811:7834   */\n      swap1\n      pop\n        /* \"#utility.yul\":7513:7840   */\n      swap4\n      swap3\n      pop\n      pop\n      pop\n      jump\t// out\n        /* \"#utility.yul\":7846:8137   */\n    tag_59:\n        /* \"#utility.yul\":7986:7989   */\n      0x00\n        /* \"#utility.yul\":8008:8111   */\n      tag_227\n        /* \"#utility.yul\":8107:8110   */\n      dup3\n        /* \"#utility.yul\":8098:8104   */\n      dup5\n        /* \"#utility.yul\":8090:8096   */\n      dup7\n        /* \"#utility.yul\":8008:8111   */\n      tag_121\n      jump\t// in\n    tag_227:\n        /* \"#utility.yul\":8001:8111   */\n      swap2\n      pop\n        /* \"#utility.yul\":8128:8131   */\n      dup2\n        /* \"#utility.yul\":8121:8131   */\n      swap1\n      pop\n        /* \"#utility.yul\":7846:8137   */\n      swap4\n      swap3\n      pop\n      pop\n      pop\n      jump\t// out\n        /* \"#utility.yul\":8143:8287   */\n    tag_122:\n        /* \"#utility.yul\":8195:8199   */\n      0x00\n        /* \"#utility.yul\":8218:8221   */\n      dup2\n        /* \"#utility.yul\":8210:8221   */\n      swap1\n      pop\n        /* \"#utility.yul\":8241:8244   */\n      dup2\n        /* \"#utility.yul\":8238:8239   */\n      0x00\n        /* \"#utility.yul\":8231:8245   */\n      mstore\n        /* \"#utility.yul\":8275:8279   */\n      0x20\n        /* \"#utility.yul\":8272:8273   */\n      0x00\n        /* \"#utility.yul\":8262:8280   */\n      keccak256\n        /* \"#utility.yul\":8254:8280   */\n      swap1\n      pop\n        /* \"#utility.yul\":8143:8287   */\n      swap2\n      swap1\n      pop\n      jump\t// out\n        /* \"#utility.yul\":8315:9193   */\n    tag_123:\n        /* \"#utility.yul\":8420:8423   */\n      0x00\n        /* \"#utility.yul\":8457:8462   */\n      dup2\n        /* \"#utility.yul\":8451:8463   */\n      sload\n        /* \"#utility.yul\":8486:8522   */\n      tag_230\n        /* \"#utility.yul\":8512:8521   */\n      dup2\n        /* \"#utility.yul\":8486:8522   */\n      tag_46\n      jump\t// in\n    tag_230:\n        /* \"#utility.yul\":8538:8626   */\n      tag_231\n        /* \"#utility.yul\":8619:8625   */\n      dup2\n        /* \"#utility.yul\":8614:8617   */\n      dup7\n        /* \"#utility.yul\":8538:8626   */\n      tag_119\n      jump\t// in\n    tag_231:\n        /* \"#utility.yul\":8531:8626   */\n      swap5\n      pop\n        /* \"#utility.yul\":8657:8658   */\n      0x01\n        /* \"#utility.yul\":8646:8655   */\n      dup3\n        /* \"#utility.yul\":8642:8659   */\n      and\n        /* \"#utility.yul\":8673:8674   */\n      0x00\n        /* \"#utility.yul\":8668:8834   */\n      dup2\n      eq\n      tag_233\n      jumpi\n        /* \"#utility.yul\":8848:8849   */\n      0x01\n        /* \"#utility.yul\":8843:9187   */\n      dup2\n      eq\n      tag_234\n      jumpi\n        /* \"#utility.yul\":8635:9187   */\n      jump(tag_232)\n        /* \"#utility.yul\":8668:8834   */\n    tag_233:\n        /* \"#utility.yul\":8752:8756   */\n      0xff\n        /* \"#utility.yul\":8748:8757   */\n      not\n        /* \"#utility.yul\":8737:8746   */\n      dup4\n        /* \"#utility.yul\":8733:8758   */\n      and\n        /* \"#utility.yul\":8728:8731   */\n      dup7\n        /* \"#utility.yul\":8721:8759   */\n      mstore\n        /* \"#utility.yul\":8814:8820   */\n      dup2\n        /* \"#utility.yul\":8807:8821   */\n      iszero\n        /* \"#utility.yul\":8800:8822   */\n      iszero\n        /* \"#utility.yul\":8792:8798   */\n      dup3\n        /* \"#utility.yul\":8788:8823   */\n      mul\n        /* \"#utility.yul\":8783:8786   */\n      dup7\n        /* \"#utility.yul\":8779:8824   */\n      add\n        /* \"#utility.yul\":8772:8824   */\n      swap4\n      pop\n        /* \"#utility.yul\":8668:8834   */\n      jump(tag_232)\n        /* \"#utility.yul\":8843:9187   */\n    tag_234:\n        /* \"#utility.yul\":8910:8951   */\n      tag_235\n        /* \"#utility.yul\":8945:8950   */\n      dup6\n        /* \"#utility.yul\":8910:8951   */\n      tag_122\n      jump\t// in\n    tag_235:\n        /* \"#utility.yul\":8973:8974   */\n      0x00\n        /* \"#utility.yul\":8987:9141   */\n    tag_236:\n        /* \"#utility.yul\":9001:9007   */\n      dup4\n        /* \"#utility.yul\":8998:8999   */\n      dup2\n        /* \"#utility.yul\":8995:9008   */\n      lt\n        /* \"#utility.yul\":8987:9141   */\n      iszero\n      tag_238\n      jumpi\n        /* \"#utility.yul\":9075:9082   */\n      dup2\n        /* \"#utility.yul\":9069:9083   */\n      sload\n        /* \"#utility.yul\":9065:9066   */\n      dup2\n        /* \"#utility.yul\":9060:9063   */\n      dup10\n        /* \"#utility.yul\":9056:9067   */\n      add\n        /* \"#utility.yul\":9049:9084   */\n      mstore\n        /* \"#utility.yul\":9125:9126   */\n      0x01\n        /* \"#utility.yul\":9116:9123   */\n      dup3\n        /* \"#utility.yul\":9112:9127   */\n      add\n        /* \"#utility.yul\":9101:9127   */\n      swap2\n      pop\n        /* \"#utility.yul\":9023:9027   */\n      0x20\n        /* \"#utility.yul\":9020:9021   */\n      dup2\n        /* \"#utility.yul\":9016:9028   */\n      add\n        /* \"#utility.yul\":9011:9028   */\n      swap1\n      pop\n        /* \"#utility.yul\":8987:9141   */\n      jump(tag_236)\n    tag_238:\n        /* \"#utility.yul\":9170:9176   */\n      dup4\n        /* \"#utility.yul\":9165:9168   */\n      dup9\n        /* \"#utility.yul\":9161:9177   */\n      add\n        /* \"#utility.yul\":9154:9177   */\n      swap6\n      pop\n        /* \"#utility.yul\":8850:9187   */\n      pop\n      pop\n        /* \"#utility.yul\":8635:9187   */\n    tag_232:\n      pop\n        /* \"#utility.yul\":8424:9193   */\n      pop\n      pop\n        /* \"#utility.yul\":8315:9193   */\n      swap3\n      swap2\n      pop\n      pop\n      jump\t// out\n        /* \"#utility.yul\":9199:9472   */\n    tag_64:\n        /* \"#utility.yul\":9330:9333   */\n      0x00\n        /* \"#utility.yul\":9352:9446   */\n      tag_240\n        /* \"#utility.yul\":9442:9445   */\n      dup3\n        /* \"#utility.yul\":9433:9439   */\n      dup5\n        /* \"#utility.yul\":9352:9446   */\n      tag_123\n      jump\t// in\n    tag_240:\n        /* \"#utility.yul\":9345:9446   */\n      swap2\n      pop\n        /* \"#utility.yul\":9463:9466   */\n      dup2\n        /* \"#utility.yul\":9456:9466   */\n      swap1\n      pop\n        /* \"#utility.yul\":9199:9472   */\n      swap3\n      swap2\n      pop\n      pop\n      jump\t// out\n        /* \"#utility.yul\":9478:9647   */\n    tag_124:\n        /* \"#utility.yul\":9562:9573   */\n      0x00\n        /* \"#utility.yul\":9596:9602   */\n      dup3\n        /* \"#utility.yul\":9591:9594   */\n      dup3\n        /* \"#utility.yul\":9584:9603   */\n      mstore\n        /* \"#utility.yul\":9636:9640   */\n      0x20\n        /* \"#utility.yul\":9631:9634   */\n      dup3\n        /* \"#utility.yul\":9627:9641   */\n      add\n        /* \"#utility.yul\":9612:9641   */\n      swap1\n      pop\n        /* \"#utility.yul\":9478:9647   */\n      swap3\n      swap2\n      pop\n      pop\n      jump\t// out\n        /* \"#utility.yul\":9677:9994   */\n    tag_125:\n        /* \"#utility.yul\":9775:9778   */\n      0x00\n        /* \"#utility.yul\":9796:9867   */\n      tag_243\n        /* \"#utility.yul\":9860:9866   */\n      dup4\n        /* \"#utility.yul\":9855:9858   */\n      dup6\n        /* \"#utility.yul\":9796:9867   */\n      tag_124\n      jump\t// in\n    tag_243:\n        /* \"#utility.yul\":9789:9867   */\n      swap4\n      pop\n        /* \"#utility.yul\":9877:9933   */\n      tag_244\n        /* \"#utility.yul\":9926:9932   */\n      dup4\n        /* \"#utility.yul\":9921:9924   */\n      dup6\n        /* \"#utility.yul\":9914:9919   */\n      dup5\n        /* \"#utility.yul\":9877:9933   */\n      tag_120\n      jump\t// in\n    tag_244:\n        /* \"#utility.yul\":9958:9987   */\n      tag_245\n        /* \"#utility.yul\":9980:9986   */\n      dup4\n        /* \"#utility.yul\":9958:9987   */\n      tag_107\n      jump\t// in\n    tag_245:\n        /* \"#utility.yul\":9953:9956   */\n      dup5\n        /* \"#utility.yul\":9949:9988   */\n      add\n        /* \"#utility.yul\":9942:9988   */\n      swap1\n      pop\n        /* \"#utility.yul\":9677:9994   */\n      swap4\n      swap3\n      pop\n      pop\n      pop\n      jump\t// out\n        /* \"#utility.yul\":10000:10333   */\n    tag_74:\n        /* \"#utility.yul\":10123:10127   */\n      0x00\n        /* \"#utility.yul\":10161:10163   */\n      0x20\n        /* \"#utility.yul\":10150:10159   */\n      dup3\n        /* \"#utility.yul\":10146:10164   */\n      add\n        /* \"#utility.yul\":10138:10164   */\n      swap1\n      pop\n        /* \"#utility.yul\":10210:10219   */\n      dup2\n        /* \"#utility.yul\":10204:10208   */\n      dup2\n        /* \"#utility.yul\":10200:10220   */\n      sub\n        /* \"#utility.yul\":10196:10197   */\n      0x00\n        /* \"#utility.yul\":10185:10194   */\n      dup4\n        /* \"#utility.yul\":10181:10198   */\n      add\n        /* \"#utility.yul\":10174:10221   */\n      mstore\n        /* \"#utility.yul\":10238:10326   */\n      tag_247\n        /* \"#utility.yul\":10321:10325   */\n      dup2\n        /* \"#utility.yul\":10312:10318   */\n      dup5\n        /* \"#utility.yul\":10304:10310   */\n      dup7\n        /* \"#utility.yul\":10238:10326   */\n      tag_125\n      jump\t// in\n    tag_247:\n        /* \"#utility.yul\":10230:10326   */\n      swap1\n      pop\n        /* \"#utility.yul\":10000:10333   */\n      swap4\n      swap3\n      pop\n      pop\n      pop\n      jump\t// out\n        /* \"#utility.yul\":10339:10562   */\n    tag_126:\n        /* \"#utility.yul\":10479:10513   */\n      0x46696c6520697320616c72656164792064656c65746564206f72206e6f742066\n        /* \"#utility.yul\":10475:10476   */\n      0x00\n        /* \"#utility.yul\":10467:10473   */\n      dup3\n        /* \"#utility.yul\":10463:10477   */\n      add\n        /* \"#utility.yul\":10456:10514   */\n      mstore\n        /* \"#utility.yul\":10548:10554   */\n      0x6f756e6400000000000000000000000000000000000000000000000000000000\n        /* \"#utility.yul\":10543:10545   */\n      0x20\n        /* \"#utility.yul\":10535:10541   */\n      dup3\n        /* \"#utility.yul\":10531:10546   */\n      add\n        /* \"#utility.yul\":10524:10555   */\n      mstore\n        /* \"#utility.yul\":10339:10562   */\n      pop\n      jump\t// out\n        /* \"#utility.yul\":10568:10934   */\n    tag_127:\n        /* \"#utility.yul\":10710:10713   */\n      0x00\n        /* \"#utility.yul\":10731:10798   */\n      tag_250\n        /* \"#utility.yul\":10795:10797   */\n      0x24\n        /* \"#utility.yul\":10790:10793   */\n      dup4\n        /* \"#utility.yul\":10731:10798   */\n      tag_124\n      jump\t// in\n    tag_250:\n        /* \"#utility.yul\":10724:10798   */\n      swap2\n      pop\n        /* \"#utility.yul\":10807:10900   */\n      tag_251\n        /* \"#utility.yul\":10896:10899   */\n      dup3\n        /* \"#utility.yul\":10807:10900   */\n      tag_126\n      jump\t// in\n    tag_251:\n        /* \"#utility.yul\":10925:10927   */\n      0x40\n        /* \"#utility.yul\":10920:10923   */\n      dup3\n        /* \"#utility.yul\":10916:10928   */\n      add\n        /* \"#utility.yul\":10909:10928   */\n      swap1\n      pop\n        /* \"#utility.yul\":10568:10934   */\n      swap2\n      swap1\n      pop\n      jump\t// out\n        /* \"#utility.yul\":10940:11359   */\n    tag_76:\n        /* \"#utility.yul\":11106:11110   */\n      0x00\n        /* \"#utility.yul\":11144:11146   */\n      0x20\n        /* \"#utility.yul\":11133:11142   */\n      dup3\n        /* \"#utility.yul\":11129:11147   */\n      add\n        /* \"#utility.yul\":11121:11147   */\n      swap1\n      pop\n        /* \"#utility.yul\":11193:11202   */\n      dup2\n        /* \"#utility.yul\":11187:11191   */\n      dup2\n        /* \"#utility.yul\":11183:11203   */\n      sub\n        /* \"#utility.yul\":11179:11180   */\n      0x00\n        /* \"#utility.yul\":11168:11177   */\n      dup4\n        /* \"#utility.yul\":11164:11181   */\n      add\n        /* \"#utility.yul\":11157:11204   */\n      mstore\n        /* \"#utility.yul\":11221:11352   */\n      tag_253\n        /* \"#utility.yul\":11347:11351   */\n      dup2\n        /* \"#utility.yul\":11221:11352   */\n      tag_127\n      jump\t// in\n    tag_253:\n        /* \"#utility.yul\":11213:11352   */\n      swap1\n      pop\n        /* \"#utility.yul\":10940:11359   */\n      swap2\n      swap1\n      pop\n      jump\t// out\n        /* \"#utility.yul\":11365:11513   */\n    tag_128:\n        /* \"#utility.yul\":11467:11478   */\n      0x00\n        /* \"#utility.yul\":11504:11507   */\n      dup2\n        /* \"#utility.yul\":11489:11507   */\n      swap1\n      pop\n        /* \"#utility.yul\":11365:11513   */\n      swap3\n      swap2\n      pop\n      pop\n      jump\t// out\n        /* \"#utility.yul\":11543:11873   */\n    tag_129:\n        /* \"#utility.yul\":11659:11662   */\n      0x00\n        /* \"#utility.yul\":11680:11769   */\n      tag_256\n        /* \"#utility.yul\":11762:11768   */\n      dup4\n        /* \"#utility.yul\":11757:11760   */\n      dup6\n        /* \"#utility.yul\":11680:11769   */\n      tag_128\n      jump\t// in\n    tag_256:\n        /* \"#utility.yul\":11673:11769   */\n      swap4\n      pop\n        /* \"#utility.yul\":11779:11835   */\n      tag_257\n        /* \"#utility.yul\":11828:11834   */\n      dup4\n        /* \"#utility.yul\":11823:11826   */\n      dup6\n        /* \"#utility.yul\":11816:11821   */\n      dup5\n        /* \"#utility.yul\":11779:11835   */\n      tag_120\n      jump\t// in\n    tag_257:\n        /* \"#utility.yul\":11860:11866   */\n      dup3\n        /* \"#utility.yul\":11855:11858   */\n      dup5\n        /* \"#utility.yul\":11851:11867   */\n      add\n        /* \"#utility.yul\":11844:11867   */\n      swap1\n      pop\n        /* \"#utility.yul\":11543:11873   */\n      swap4\n      swap3\n      pop\n      pop\n      pop\n      jump\t// out\n        /* \"#utility.yul\":11879:12174   */\n    tag_79:\n        /* \"#utility.yul\":12021:12024   */\n      0x00\n        /* \"#utility.yul\":12043:12148   */\n      tag_259\n        /* \"#utility.yul\":12144:12147   */\n      dup3\n        /* \"#utility.yul\":12135:12141   */\n      dup5\n        /* \"#utility.yul\":12127:12133   */\n      dup7\n        /* \"#utility.yul\":12043:12148   */\n      tag_129\n      jump\t// in\n    tag_259:\n        /* \"#utility.yul\":12036:12148   */\n      swap2\n      pop\n        /* \"#utility.yul\":12165:12168   */\n      dup2\n        /* \"#utility.yul\":12158:12168   */\n      swap1\n      pop\n        /* \"#utility.yul\":11879:12174   */\n      swap4\n      swap3\n      pop\n      pop\n      pop\n      jump\t// out\n        /* \"#utility.yul\":12180:12356   */\n    tag_130:\n        /* \"#utility.yul\":12320:12348   */\n      0x546869732066696c6520616c72656164792075706c6f61646564000000000000\n        /* \"#utility.yul\":12316:12317   */\n      0x00\n        /* \"#utility.yul\":12308:12314   */\n      dup3\n        /* \"#utility.yul\":12304:12318   */\n      add\n        /* \"#utility.yul\":12297:12349   */\n      mstore\n        /* \"#utility.yul\":12180:12356   */\n      pop\n      jump\t// out\n        /* \"#utility.yul\":12362:12728   */\n    tag_131:\n        /* \"#utility.yul\":12504:12507   */\n      0x00\n        /* \"#utility.yul\":12525:12592   */\n      tag_262\n        /* \"#utility.yul\":12589:12591   */\n      0x1a\n        /* \"#utility.yul\":12584:12587   */\n      dup4\n        /* \"#utility.yul\":12525:12592   */\n      tag_124\n      jump\t// in\n    tag_262:\n        /* \"#utility.yul\":12518:12592   */\n      swap2\n      pop\n        /* \"#utility.yul\":12601:12694   */\n      tag_263\n        /* \"#utility.yul\":12690:12693   */\n      dup3\n        /* \"#utility.yul\":12601:12694   */\n      tag_130\n      jump\t// in\n    tag_263:\n        /* \"#utility.yul\":12719:12721   */\n      0x20\n        /* \"#utility.yul\":12714:12717   */\n      dup3\n        /* \"#utility.yul\":12710:12722   */\n      add\n        /* \"#utility.yul\":12703:12722   */\n      swap1\n      pop\n        /* \"#utility.yul\":12362:12728   */\n      swap2\n      swap1\n      pop\n      jump\t// out\n        /* \"#utility.yul\":12734:13153   */\n    tag_82:\n        /* \"#utility.yul\":12900:12904   */\n      0x00\n        /* \"#utility.yul\":12938:12940   */\n      0x20\n        /* \"#utility.yul\":12927:12936   */\n      dup3\n        /* \"#utility.yul\":12923:12941   */\n      add\n        /* \"#utility.yul\":12915:12941   */\n      swap1\n      pop\n        /* \"#utility.yul\":12987:12996   */\n      dup2\n        /* \"#utility.yul\":12981:12985   */\n      dup2\n        /* \"#utility.yul\":12977:12997   */\n      sub\n        /* \"#utility.yul\":12973:12974   */\n      0x00\n        /* \"#utility.yul\":12962:12971   */\n      dup4\n        /* \"#utility.yul\":12958:12975   */\n      add\n        /* \"#utility.yul\":12951:12998   */\n      mstore\n        /* \"#utility.yul\":13015:13146   */\n      tag_265\n        /* \"#utility.yul\":13141:13145   */\n      dup2\n        /* \"#utility.yul\":13015:13146   */\n      tag_131\n      jump\t// in\n    tag_265:\n        /* \"#utility.yul\":13007:13146   */\n      swap1\n      pop\n        /* \"#utility.yul\":12734:13153   */\n      swap2\n      swap1\n      pop\n      jump\t// out\n        /* \"#utility.yul\":13159:13387   */\n    tag_132:\n        /* \"#utility.yul\":13299:13333   */\n      0x596f752068617665207265616368656420796f75722066696c652075706c6f61\n        /* \"#utility.yul\":13295:13296   */\n      0x00\n        /* \"#utility.yul\":13287:13293   */\n      dup3\n        /* \"#utility.yul\":13283:13297   */\n      add\n        /* \"#utility.yul\":13276:13334   */\n      mstore\n        /* \"#utility.yul\":13368:13379   */\n      0x64206c696d697465640000000000000000000000000000000000000000000000\n        /* \"#utility.yul\":13363:13365   */\n      0x20\n        /* \"#utility.yul\":13355:13361   */\n      dup3\n        /* \"#utility.yul\":13351:13366   */\n      add\n        /* \"#utility.yul\":13344:13380   */\n      mstore\n        /* \"#utility.yul\":13159:13387   */\n      pop\n      jump\t// out\n        /* \"#utility.yul\":13393:13759   */\n    tag_133:\n        /* \"#utility.yul\":13535:13538   */\n      0x00\n        /* \"#utility.yul\":13556:13623   */\n      tag_268\n        /* \"#utility.yul\":13620:13622   */\n      0x29\n        /* \"#utility.yul\":13615:13618   */\n      dup4\n        /* \"#utility.yul\":13556:13623   */\n      tag_124\n      jump\t// in\n    tag_268:\n        /* \"#utility.yul\":13549:13623   */\n      swap2\n      pop\n        /* \"#utility.yul\":13632:13725   */\n      tag_269\n        /* \"#utility.yul\":13721:13724   */\n      dup3\n        /* \"#utility.yul\":13632:13725   */\n      tag_132\n      jump\t// in\n    tag_269:\n        /* \"#utility.yul\":13750:13752   */\n      0x40\n        /* \"#utility.yul\":13745:13748   */\n      dup3\n        /* \"#utility.yul\":13741:13753   */\n      add\n        /* \"#utility.yul\":13734:13753   */\n      swap1\n      pop\n        /* \"#utility.yul\":13393:13759   */\n      swap2\n      swap1\n      pop\n      jump\t// out\n        /* \"#utility.yul\":13765:14184   */\n    tag_86:\n        /* \"#utility.yul\":13931:13935   */\n      0x00\n        /* \"#utility.yul\":13969:13971   */\n      0x20\n        /* \"#utility.yul\":13958:13967   */\n      dup3\n        /* \"#utility.yul\":13954:13972   */\n      add\n        /* \"#utility.yul\":13946:13972   */\n      swap1\n      pop\n        /* \"#utility.yul\":14018:14027   */\n      dup2\n        /* \"#utility.yul\":14012:14016   */\n      dup2\n        /* \"#utility.yul\":14008:14028   */\n      sub\n        /* \"#utility.yul\":14004:14005   */\n      0x00\n        /* \"#utility.yul\":13993:14002   */\n      dup4\n        /* \"#utility.yul\":13989:14006   */\n      add\n        /* \"#utility.yul\":13982:14029   */\n      mstore\n        /* \"#utility.yul\":14046:14177   */\n      tag_271\n        /* \"#utility.yul\":14172:14176   */\n      dup2\n        /* \"#utility.yul\":14046:14177   */\n      tag_133\n      jump\t// in\n    tag_271:\n        /* \"#utility.yul\":14038:14177   */\n      swap1\n      pop\n        /* \"#utility.yul\":13765:14184   */\n      swap2\n      swap1\n      pop\n      jump\t// out\n        /* \"#utility.yul\":14190:14331   */\n    tag_134:\n        /* \"#utility.yul\":14239:14243   */\n      0x00\n        /* \"#utility.yul\":14262:14265   */\n      dup2\n        /* \"#utility.yul\":14254:14265   */\n      swap1\n      pop\n        /* \"#utility.yul\":14285:14288   */\n      dup2\n        /* \"#utility.yul\":14282:14283   */\n      0x00\n        /* \"#utility.yul\":14275:14289   */\n      mstore\n        /* \"#utility.yul\":14319:14323   */\n      0x20\n        /* \"#utility.yul\":14316:14317   */\n      0x00\n        /* \"#utility.yul\":14306:14324   */\n      keccak256\n        /* \"#utility.yul\":14298:14324   */\n      swap1\n      pop\n        /* \"#utility.yul\":14190:14331   */\n      swap2\n      swap1\n      pop\n      jump\t// out\n        /* \"#utility.yul\":14337:14430   */\n    tag_135:\n        /* \"#utility.yul\":14374:14380   */\n      0x00\n        /* \"#utility.yul\":14421:14423   */\n      0x20\n        /* \"#utility.yul\":14416:14418   */\n      0x1f\n        /* \"#utility.yul\":14409:14414   */\n      dup4\n        /* \"#utility.yul\":14405:14419   */\n      add\n        /* \"#utility.yul\":14401:14424   */\n      div\n        /* \"#utility.yul\":14391:14424   */\n      swap1\n      pop\n        /* \"#utility.yul\":14337:14430   */\n      swap2\n      swap1\n      pop\n      jump\t// out\n        /* \"#utility.yul\":14436:14543   */\n    tag_136:\n        /* \"#utility.yul\":14480:14488   */\n      0x00\n        /* \"#utility.yul\":14530:14535   */\n      dup3\n        /* \"#utility.yul\":14524:14528   */\n      dup3\n        /* \"#utility.yul\":14520:14536   */\n      shl\n        /* \"#utility.yul\":14499:14536   */\n      swap1\n      pop\n        /* \"#utility.yul\":14436:14543   */\n      swap3\n      swap2\n      pop\n      pop\n      jump\t// out\n        /* \"#utility.yul\":14549:14942   */\n    tag_137:\n        /* \"#utility.yul\":14618:14624   */\n      0x00\n        /* \"#utility.yul\":14668:14669   */\n      0x08\n        /* \"#utility.yul\":14656:14666   */\n      dup4\n        /* \"#utility.yul\":14652:14670   */\n      mul\n        /* \"#utility.yul\":14691:14788   */\n      tag_276\n        /* \"#utility.yul\":14721:14787   */\n      0xffffffffffffffffffffffffffffffffffffffffffffffffffffffffffffffff\n        /* \"#utility.yul\":14710:14719   */\n      dup3\n        /* \"#utility.yul\":14691:14788   */\n      tag_136\n      jump\t// in\n    tag_276:\n        /* \"#utility.yul\":14809:14848   */\n      tag_277\n        /* \"#utility.yul\":14839:14847   */\n      dup7\n        /* \"#utility.yul\":14828:14837   */\n      dup4\n        /* \"#utility.yul\":14809:14848   */\n      tag_136\n      jump\t// in\n    tag_277:\n        /* \"#utility.yul\":14797:14848   */\n      swap6\n      pop\n        /* \"#utility.yul\":14881:14885   */\n      dup1\n        /* \"#utility.yul\":14877:14886   */\n      not\n        /* \"#utility.yul\":14870:14875   */\n      dup5\n        /* \"#utility.yul\":14866:14887   */\n      and\n        /* \"#utility.yul\":14857:14887   */\n      swap4\n      pop\n        /* \"#utility.yul\":14930:14934   */\n      dup1\n        /* \"#utility.yul\":14920:14928   */\n      dup7\n        /* \"#utility.yul\":14916:14935   */\n      and\n        /* \"#utility.yul\":14909:14914   */\n      dup5\n        /* \"#utility.yul\":14906:14936   */\n      or\n        /* \"#utility.yul\":14896:14936   */\n      swap3\n      pop\n        /* \"#utility.yul\":14625:14942   */\n      pop\n      pop\n        /* \"#utility.yul\":14549:14942   */\n      swap4\n      swap3\n      pop\n      pop\n      pop\n      jump\t// out\n        /* \"#utility.yul\":14948:15008   */\n    tag_138:\n        /* \"#utility.yul\":14976:14979   */\n      0x00\n        /* \"#utility.yul\":14997:15002   */\n      dup2\n        /* \"#utility.yul\":14990:15002   */\n      swap1\n      pop\n        /* \"#utility.yul\":14948:15008   */\n      swap2\n      swap1\n      pop\n      jump\t// out\n        /* \"#utility.yul\":15014:15156   */\n    tag_139:\n        /* \"#utility.yul\":15064:15073   */\n      0x00\n        /* \"#utility.yul\":15097:15150   */\n      tag_280\n        /* \"#utility.yul\":15115:15149   */\n      tag_281\n        /* \"#utility.yul\":15124:15148   */\n      tag_282\n        /* \"#utility.yul\":15142:15147   */\n      dup5\n        /* \"#utility.yul\":15124:15148   */\n      tag_117\n      jump\t// in\n    tag_282:\n        /* \"#utility.yul\":15115:15149   */\n      tag_138\n      jump\t// in\n    tag_281:\n        /* \"#utility.yul\":15097:15150   */\n      tag_117\n      jump\t// in\n    tag_280:\n        /* \"#utility.yul\":15084:15150   */\n      swap1\n      pop\n        /* \"#utility.yul\":15014:15156   */\n      swap2\n      swap1\n      pop\n      jump\t// out\n        /* \"#utility.yul\":15162:15237   */\n    tag_140:\n        /* \"#utility.yul\":15205:15208   */\n      0x00\n        /* \"#utility.yul\":15226:15231   */\n      dup2\n        /* \"#utility.yul\":15219:15231   */\n      swap1\n      pop\n        /* \"#utility.yul\":15162:15237   */\n      swap2\n      swap1\n      pop\n      jump\t// out\n        /* \"#utility.yul\":15243:15512   */\n    tag_141:\n        /* \"#utility.yul\":15353:15392   */\n      tag_285\n        /* \"#utility.yul\":15384:15391   */\n      dup4\n        /* \"#utility.yul\":15353:15392   */\n      tag_139\n      jump\t// in\n    tag_285:\n        /* \"#utility.yul\":15414:15505   */\n      tag_286\n        /* \"#utility.yul\":15463:15504   */\n      tag_287\n        /* \"#utility.yul\":15487:15503   */\n      dup3\n        /* \"#utility.yul\":15463:15504   */\n      tag_140\n      jump\t// in\n    tag_287:\n        /* \"#utility.yul\":15455:15461   */\n      dup5\n        /* \"#utility.yul\":15448:15452   */\n      dup5\n        /* \"#utility.yul\":15442:15453   */\n      sload\n        /* \"#utility.yul\":15414:15505   */\n      tag_137\n      jump\t// in\n    tag_286:\n        /* \"#utility.yul\":15408:15412   */\n      dup3\n        /* \"#utility.yul\":15401:15506   */\n      sstore\n        /* \"#utility.yul\":15319:15512   */\n      pop\n        /* \"#utility.yul\":15243:15512   */\n      pop\n      pop\n      pop\n      jump\t// out\n        /* \"#utility.yul\":15518:15591   */\n    tag_142:\n        /* \"#utility.yul\":15563:15566   */\n      0x00\n        /* \"#utility.yul\":15584:15585   */\n      0x00\n        /* \"#utility.yul\":15577:15585   */\n      swap1\n      pop\n        /* \"#utility.yul\":15518:15591   */\n      swap1\n      jump\t// out\n        /* \"#utility.yul\":15597:15786   */\n    tag_143:\n        /* \"#utility.yul\":15674:15706   */\n      tag_290\n      tag_142\n      jump\t// in\n    tag_290:\n        /* \"#utility.yul\":15715:15780   */\n      tag_291\n        /* \"#utility.yul\":15773:15779   */\n      dup2\n        /* \"#utility.yul\":15765:15771   */\n      dup5\n        /* \"#utility.yul\":15759:15763   */\n      dup5\n        /* \"#utility.yul\":15715:15780   */\n      tag_141\n      jump\t// in\n    tag_291:\n        /* \"#utility.yul\":15650:15786   */\n      pop\n        /* \"#utility.yul\":15597:15786   */\n      pop\n      pop\n      jump\t// out\n        /* \"#utility.yul\":15792:15978   */\n    tag_144:\n        /* \"#utility.yul\":15852:15972   */\n    tag_293:\n        /* \"#utility.yul\":15869:15872   */\n      dup2\n        /* \"#utility.yul\":15862:15867   */\n      dup2\n        /* \"#utility.yul\":15859:15873   */\n      lt\n        /* \"#utility.yul\":15852:15972   */\n      iszero\n      tag_295\n      jumpi\n        /* \"#utility.yul\":15923:15962   */\n      tag_296\n        /* \"#utility.yul\":15960:15961   */\n      0x00\n        /* \"#utility.yul\":15953:15958   */\n      dup3\n        /* \"#utility.yul\":15923:15962   */\n      tag_143\n      jump\t// in\n    tag_296:\n        /* \"#utility.yul\":15896:15897   */\n      0x01\n        /* \"#utility.yul\":15889:15894   */\n      dup2\n        /* \"#utility.yul\":15885:15898   */\n      add\n        /* \"#utility.yul\":15876:15898   */\n      swap1\n      pop\n        /* \"#utility.yul\":15852:15972   */\n      jump(tag_293)\n    tag_295:\n        /* \"#utility.yul\":15792:15978   */\n      pop\n      pop\n      jump\t// out\n        /* \"#utility.yul\":15984:16527   */\n    tag_145:\n        /* \"#utility.yul\":16085:16087   */\n      0x1f\n        /* \"#utility.yul\":16080:16083   */\n      dup3\n        /* \"#utility.yul\":16077:16088   */\n      gt\n        /* \"#utility.yul\":16074:16520   */\n      iszero\n      tag_298\n      jumpi\n        /* \"#utility.yul\":16119:16157   */\n      tag_299\n        /* \"#utility.yul\":16151:16156   */\n      dup2\n        /* \"#utility.yul\":16119:16157   */\n      tag_134\n      jump\t// in\n    tag_299:\n        /* \"#utility.yul\":16203:16232   */\n      tag_300\n        /* \"#utility.yul\":16221:16231   */\n      dup5\n        /* \"#utility.yul\":16203:16232   */\n      tag_135\n      jump\t// in\n    tag_300:\n        /* \"#utility.yul\":16193:16201   */\n      dup2\n        /* \"#utility.yul\":16189:16233   */\n      add\n        /* \"#utility.yul\":16386:16388   */\n      0x20\n        /* \"#utility.yul\":16374:16384   */\n      dup6\n        /* \"#utility.yul\":16371:16389   */\n      lt\n        /* \"#utility.yul\":16368:16417   */\n      iszero\n      tag_301\n      jumpi\n        /* \"#utility.yul\":16407:16415   */\n      dup2\n        /* \"#utility.yul\":16392:16415   */\n      swap1\n      pop\n        /* \"#utility.yul\":16368:16417   */\n    tag_301:\n        /* \"#utility.yul\":16430:16510   */\n      tag_302\n        /* \"#utility.yul\":16486:16508   */\n      tag_303\n        /* \"#utility.yul\":16504:16507   */\n      dup6\n        /* \"#utility.yul\":16486:16508   */\n      tag_135\n      jump\t// in\n    tag_303:\n        /* \"#utility.yul\":16476:16484   */\n      dup4\n        /* \"#utility.yul\":16472:16509   */\n      add\n        /* \"#utility.yul\":16459:16470   */\n      dup3\n        /* \"#utility.yul\":16430:16510   */\n      tag_144\n      jump\t// in\n    tag_302:\n        /* \"#utility.yul\":16089:16520   */\n      pop\n      pop\n        /* \"#utility.yul\":16074:16520   */\n    tag_298:\n        /* \"#utility.yul\":15984:16527   */\n      pop\n      pop\n      pop\n      jump\t// out\n        /* \"#utility.yul\":16533:16650   */\n    tag_146:\n        /* \"#utility.yul\":16587:16595   */\n      0x00\n        /* \"#utility.yul\":16637:16642   */\n      dup3\n        /* \"#utility.yul\":16631:16635   */\n      dup3\n        /* \"#utility.yul\":16627:16643   */\n      shr\n        /* \"#utility.yul\":16606:16643   */\n      swap1\n      pop\n        /* \"#utility.yul\":16533:16650   */\n      swap3\n      swap2\n      pop\n      pop\n      jump\t// out\n        /* \"#utility.yul\":16656:16825   */\n    tag_147:\n        /* \"#utility.yul\":16700:16706   */\n      0x00\n        /* \"#utility.yul\":16733:16784   */\n      tag_306\n        /* \"#utility.yul\":16781:16782   */\n      0x00\n        /* \"#utility.yul\":16777:16783   */\n      not\n        /* \"#utility.yul\":16769:16774   */\n      dup5\n        /* \"#utility.yul\":16766:16767   */\n      0x08\n        /* \"#utility.yul\":16762:16775   */\n      mul\n        /* \"#utility.yul\":16733:16784   */\n      tag_146\n      jump\t// in\n    tag_306:\n        /* \"#utility.yul\":16729:16785   */\n      not\n        /* \"#utility.yul\":16814:16818   */\n      dup1\n        /* \"#utility.yul\":16808:16812   */\n      dup4\n        /* \"#utility.yul\":16804:16819   */\n      and\n        /* \"#utility.yul\":16794:16819   */\n      swap2\n      pop\n        /* \"#utility.yul\":16707:16825   */\n      pop\n        /* \"#utility.yul\":16656:16825   */\n      swap3\n      swap2\n      pop\n      pop\n      jump\t// out\n        /* \"#utility.yul\":16830:17125   */\n    tag_148:\n        /* \"#utility.yul\":16906:16910   */\n      0x00\n        /* \"#utility.yul\":17052:17081   */\n      tag_308\n        /* \"#utility.yul\":17077:17080   */\n      dup4\n        /* \"#utility.yul\":17071:17075   */\n      dup4\n        /* \"#utility.yul\":17052:17081   */\n      tag_147\n      jump\t// in\n    tag_308:\n        /* \"#utility.yul\":17044:17081   */\n      swap2\n      pop\n        /* \"#utility.yul\":17114:17117   */\n      dup3\n        /* \"#utility.yul\":17111:17112   */\n      0x02\n        /* \"#utility.yul\":17107:17118   */\n      mul\n        /* \"#utility.yul\":17101:17105   */\n      dup3\n        /* \"#utility.yul\":17098:17119   */\n      or\n        /* \"#utility.yul\":17090:17119   */\n      swap1\n      pop\n        /* \"#utility.yul\":16830:17125   */\n      swap3\n      swap2\n      pop\n      pop\n      jump\t// out\n        /* \"#utility.yul\":17130:18525   */\n    tag_90:\n        /* \"#utility.yul\":17247:17284   */\n      tag_310\n        /* \"#utility.yul\":17280:17283   */\n      dup3\n        /* \"#utility.yul\":17247:17284   */\n      tag_104\n      jump\t// in\n    tag_310:\n        /* \"#utility.yul\":17349:17367   */\n      0xffffffffffffffff\n        /* \"#utility.yul\":17341:17347   */\n      dup2\n        /* \"#utility.yul\":17338:17368   */\n      gt\n        /* \"#utility.yul\":17335:17391   */\n      iszero\n      tag_311\n      jumpi\n        /* \"#utility.yul\":17371:17389   */\n      tag_312\n      tag_32\n      jump\t// in\n    tag_312:\n        /* \"#utility.yul\":17335:17391   */\n    tag_311:\n        /* \"#utility.yul\":17415:17453   */\n      tag_313\n        /* \"#utility.yul\":17447:17451   */\n      dup3\n        /* \"#utility.yul\":17441:17452   */\n      sload\n        /* \"#utility.yul\":17415:17453   */\n      tag_46\n      jump\t// in\n    tag_313:\n        /* \"#utility.yul\":17500:17567   */\n      tag_314\n        /* \"#utility.yul\":17560:17566   */\n      dup3\n        /* \"#utility.yul\":17552:17558   */\n      dup3\n        /* \"#utility.yul\":17546:17550   */\n      dup6\n        /* \"#utility.yul\":17500:17567   */\n      tag_145\n      jump\t// in\n    tag_314:\n        /* \"#utility.yul\":17594:17595   */\n      0x00\n        /* \"#utility.yul\":17618:17622   */\n      0x20\n        /* \"#utility.yul\":17605:17622   */\n      swap1\n      pop\n        /* \"#utility.yul\":17650:17652   */\n      0x1f\n        /* \"#utility.yul\":17642:17648   */\n      dup4\n        /* \"#utility.yul\":17639:17653   */\n      gt\n        /* \"#utility.yul\":17667:17668   */\n      0x01\n        /* \"#utility.yul\":17662:18280   */\n      dup2\n      eq\n      tag_316\n      jumpi\n        /* \"#utility.yul\":18324:18325   */\n      0x00\n        /* \"#utility.yul\":18341:18347   */\n      dup5\n        /* \"#utility.yul\":18338:18415   */\n      iszero\n      tag_317\n      jumpi\n        /* \"#utility.yul\":18390:18399   */\n      dup3\n        /* \"#utility.yul\":18385:18388   */\n      dup8\n        /* \"#utility.yul\":18381:18400   */\n      add\n        /* \"#utility.yul\":18375:18401   */\n      mload\n        /* \"#utility.yul\":18366:18401   */\n      swap1\n      pop\n        /* \"#utility.yul\":18338:18415   */\n    tag_317:\n        /* \"#utility.yul\":18441:18508   */\n      tag_318\n        /* \"#utility.yul\":18501:18507   */\n      dup6\n        /* \"#utility.yul\":18494:18499   */\n      dup3\n        /* \"#utility.yul\":18441:18508   */\n      tag_148\n      jump\t// in\n    tag_318:\n        /* \"#utility.yul\":18435:18439   */\n      dup7\n        /* \"#utility.yul\":18428:18509   */\n      sstore\n        /* \"#utility.yul\":18297:18519   */\n      pop\n        /* \"#utility.yul\":17632:18519   */\n      jump(tag_315)\n        /* \"#utility.yul\":17662:18280   */\n    tag_316:\n        /* \"#utility.yul\":17714:17718   */\n      0x1f\n        /* \"#utility.yul\":17710:17719   */\n      not\n        /* \"#utility.yul\":17702:17708   */\n      dup5\n        /* \"#utility.yul\":17698:17720   */\n      and\n        /* \"#utility.yul\":17748:17785   */\n      tag_319\n        /* \"#utility.yul\":17780:17784   */\n      dup7\n        /* \"#utility.yul\":17748:17785   */\n      tag_134\n      jump\t// in\n    tag_319:\n        /* \"#utility.yul\":17807:17808   */\n      0x00\n        /* \"#utility.yul\":17821:18029   */\n    tag_320:\n        /* \"#utility.yul\":17835:17842   */\n      dup3\n        /* \"#utility.yul\":17832:17833   */\n      dup2\n        /* \"#utility.yul\":17829:17843   */\n      lt\n        /* \"#utility.yul\":17821:18029   */\n      iszero\n      tag_322\n      jumpi\n        /* \"#utility.yul\":17914:17923   */\n      dup5\n        /* \"#utility.yul\":17909:17912   */\n      dup10\n        /* \"#utility.yul\":17905:17924   */\n      add\n        /* \"#utility.yul\":17899:17925   */\n      mload\n        /* \"#utility.yul\":17891:17897   */\n      dup3\n        /* \"#utility.yul\":17884:17926   */\n      sstore\n        /* \"#utility.yul\":17965:17966   */\n      0x01\n        /* \"#utility.yul\":17957:17963   */\n      dup3\n        /* \"#utility.yul\":17953:17967   */\n      add\n        /* \"#utility.yul\":17943:17967   */\n      swap2\n      pop\n        /* \"#utility.yul\":18012:18014   */\n      0x20\n        /* \"#utility.yul\":18001:18010   */\n      dup6\n        /* \"#utility.yul\":17997:18015   */\n      add\n        /* \"#utility.yul\":17984:18015   */\n      swap5\n      pop\n        /* \"#utility.yul\":17858:17862   */\n      0x20\n        /* \"#utility.yul\":17855:17856   */\n      dup2\n        /* \"#utility.yul\":17851:17863   */\n      add\n        /* \"#utility.yul\":17846:17863   */\n      swap1\n      pop\n        /* \"#utility.yul\":17821:18029   */\n      jump(tag_320)\n    tag_322:\n        /* \"#utility.yul\":18057:18063   */\n      dup7\n        /* \"#utility.yul\":18048:18055   */\n      dup4\n        /* \"#utility.yul\":18045:18064   */\n      lt\n        /* \"#utility.yul\":18042:18221   */\n      iszero\n      tag_323\n      jumpi\n        /* \"#utility.yul\":18115:18124   */\n      dup5\n        /* \"#utility.yul\":18110:18113   */\n      dup10\n        /* \"#utility.yul\":18106:18125   */\n      add\n        /* \"#utility.yul\":18100:18126   */\n      mload\n        /* \"#utility.yul\":18158:18206   */\n      tag_324\n        /* \"#utility.yul\":18200:18204   */\n      0x1f\n        /* \"#utility.yul\":18192:18198   */\n      dup10\n        /* \"#utility.yul\":18188:18205   */\n      and\n        /* \"#utility.yul\":18177:18186   */\n      dup3\n        /* \"#utility.yul\":18158:18206   */\n      tag_147\n      jump\t// in\n    tag_324:\n        /* \"#utility.yul\":18150:18156   */\n      dup4\n        /* \"#utility.yul\":18143:18207   */\n      sstore\n        /* \"#utility.yul\":18065:18221   */\n      pop\n        /* \"#utility.yul\":18042:18221   */\n    tag_323:\n        /* \"#utility.yul\":18267:18268   */\n      0x01\n        /* \"#utility.yul\":18263:18264   */\n      0x02\n        /* \"#utility.yul\":18255:18261   */\n      dup9\n        /* \"#utility.yul\":18251:18265   */\n      mul\n        /* \"#utility.yul\":18247:18269   */\n      add\n        /* \"#utility.yul\":18241:18245   */\n      dup9\n        /* \"#utility.yul\":18234:18270   */\n      sstore\n        /* \"#utility.yul\":17669:18280   */\n      pop\n      pop\n      pop\n        /* \"#utility.yul\":17632:18519   */\n    tag_315:\n      pop\n        /* \"#utility.yul\":17222:18525   */\n      pop\n      pop\n      pop\n        /* \"#utility.yul\":17130:18525   */\n      pop\n      pop\n      jump\t// out\n        /* \"#utility.yul\":18531:18649   */\n    tag_149:\n        /* \"#utility.yul\":18618:18642   */\n      tag_326\n        /* \"#utility.yul\":18636:18641   */\n      dup2\n        /* \"#utility.yul\":18618:18642   */\n      tag_117\n      jump\t// in\n    tag_326:\n        /* \"#utility.yul\":18613:18616   */\n      dup3\n        /* \"#utility.yul\":18606:18643   */\n      mstore\n        /* \"#utility.yul\":18531:18649   */\n      pop\n      pop\n      jump\t// out\n        /* \"#utility.yul\":18655:19098   */\n    tag_93:\n        /* \"#utility.yul\":18806:18810   */\n      0x00\n        /* \"#utility.yul\":18844:18846   */\n      0x40\n        /* \"#utility.yul\":18833:18842   */\n      dup3\n        /* \"#utility.yul\":18829:18847   */\n      add\n        /* \"#utility.yul\":18821:18847   */\n      swap1\n      pop\n        /* \"#utility.yul\":18893:18902   */\n      dup2\n        /* \"#utility.yul\":18887:18891   */\n      dup2\n        /* \"#utility.yul\":18883:18903   */\n      sub\n        /* \"#utility.yul\":18879:18880   */\n      0x00\n        /* \"#utility.yul\":18868:18877   */\n      dup4\n        /* \"#utility.yul\":18864:18881   */\n      add\n        /* \"#utility.yul\":18857:18904   */\n      mstore\n        /* \"#utility.yul\":18921:19009   */\n      tag_328\n        /* \"#utility.yul\":19004:19008   */\n      dup2\n        /* \"#utility.yul\":18995:19001   */\n      dup6\n        /* \"#utility.yul\":18987:18993   */\n      dup8\n        /* \"#utility.yul\":18921:19009   */\n      tag_125\n      jump\t// in\n    tag_328:\n        /* \"#utility.yul\":18913:19009   */\n      swap1\n      pop\n        /* \"#utility.yul\":19019:19091   */\n      tag_329\n        /* \"#utility.yul\":19087:19089   */\n      0x20\n        /* \"#utility.yul\":19076:19085   */\n      dup4\n        /* \"#utility.yul\":19072:19090   */\n      add\n        /* \"#utility.yul\":19063:19069   */\n      dup5\n        /* \"#utility.yul\":19019:19091   */\n      tag_149\n      jump\t// in\n    tag_329:\n        /* \"#utility.yul\":18655:19098   */\n      swap5\n      swap4\n      pop\n      pop\n      pop\n      pop\n      jump\t// out\n\n    auxdata: 0xa26469706673582212203f9149606f7c91380991594b9e81da904c3159fd64e92b6ba2d587198527a96064736f6c634300081d0033\n}\n",
				"bytecode": {
					"linkReferences": {},
					"object": "6080604052348015600e575f5ffd5b506111508061001c5f395ff3fe608060405234801561000f575f5ffd5b506004361061003f575f3560e01c80638b22d0fd14610043578063a991005414610073578063ca4a21921461008f575b5f5ffd5b61005d600480360381019061005891906107f2565b6100ab565b60405161006a9190610948565b60405180910390f35b61008d600480360381019061008891906109c9565b6102db565b005b6100a960048036038101906100a491906109c9565b610493565b005b60605f5f5f8473ffffffffffffffffffffffffffffffffffffffff1673ffffffffffffffffffffffffffffffffffffffff1681526020019081526020015f2090505f5f90505f5f90505b82805490508110156101515782818154811061011457610113610a14565b5b905f5260205f2090600302016002015f9054906101000a900460ff161561014457818061014090610a77565b9250505b80806001019150506100f5565b505f8167ffffffffffffffff81111561016d5761016c610abe565b5b6040519080825280602002602001820160405280156101a057816020015b606081526020019060019003908161018b5790505b5090505f5f90505f5f90505b84805490508110156102ce578481815481106101cb576101ca610a14565b5b905f5260205f2090600302016002015f9054906101000a900460ff16156102c1578481815481106101ff576101fe610a14565b5b905f5260205f2090600302015f01805461021890610b18565b80601f016020809104026020016040519081016040528092919081815260200182805461024490610b18565b801561028f5780601f106102665761010080835404028352916020019161028f565b820191905f5260205f20905b81548152906001019060200180831161027257829003601f168201915b50505050508383815181106102a7576102a6610a14565b5b602002602001018190525081806102bd90610a77565b9250505b80806001019150506101ac565b5081945050505050919050565b5f5f5f3373ffffffffffffffffffffffffffffffffffffffff1673ffffffffffffffffffffffffffffffffffffffff1681526020019081526020015f2090505f5f90505b818054905081101561045357838360405161033b929190610b84565b604051809103902082828154811061035657610355610a14565b5b905f5260205f2090600302015f016040516103719190610c2e565b60405180910390201480156103b1575081818154811061039457610393610a14565b5b905f5260205f2090600302016002015f9054906101000a900460ff165b15610446575f8282815481106103ca576103c9610a14565b5b905f5260205f2090600302016002015f6101000a81548160ff0219169083151502179055503373ffffffffffffffffffffffffffffffffffffffff167ff7b065c2c42af209ea28b725ee7f4038691a1b8c8d1a6a58d533ccdaf79af57c8585604051610437929190610c80565b60405180910390a2505061048f565b808060010191505061031f565b506040517f08c379a000000000000000000000000000000000000000000000000000000000815260040161048690610d12565b60405180910390fd5b5050565b818160015f3373ffffffffffffffffffffffffffffffffffffffff1673ffffffffffffffffffffffffffffffffffffffff1681526020019081526020015f2082826040516104e2929190610d5e565b90815260200160405180910390205f9054906101000a900460ff161561053d576040517f08c379a000000000000000000000000000000000000000000000000000000000815260040161053490610dc0565b60405180910390fd5b60645f5f3373ffffffffffffffffffffffffffffffffffffffff1673ffffffffffffffffffffffffffffffffffffffff1681526020019081526020015f2080549050106105bf576040517f08c379a00000000000000000000000000000000000000000000000000000000081526004016105b690610e4e565b60405180910390fd5b5f604051806060016040528086868080601f0160208091040260200160405190810160405280939291908181526020018383808284375f81840152601f19601f8201169050808301925050505050505081526020014281526020016001151581525090505f5f3373ffffffffffffffffffffffffffffffffffffffff1673ffffffffffffffffffffffffffffffffffffffff1681526020019081526020015f2081908060018154018082558091505060019003905f5260205f2090600302015f909190919091505f820151815f019081610699919061100c565b50602082015181600101556040820151816002015f6101000a81548160ff02191690831515021790555050506001805f3373ffffffffffffffffffffffffffffffffffffffff1673ffffffffffffffffffffffffffffffffffffffff1681526020019081526020015f208686604051610713929190610d5e565b90815260200160405180910390205f6101000a81548160ff0219169083151502179055503373ffffffffffffffffffffffffffffffffffffffff167fc4471a766acd930aa96463e1fdda8f8fd429055933a7d8644bc8d2abb3912d66868642604051610781939291906110ea565b60405180910390a25050505050565b5f5ffd5b5f5ffd5b5f73ffffffffffffffffffffffffffffffffffffffff82169050919050565b5f6107c182610798565b9050919050565b6107d1816107b7565b81146107db575f5ffd5b50565b5f813590506107ec816107c8565b92915050565b5f6020828403121561080757610806610790565b5b5f610814848285016107de565b91505092915050565b5f81519050919050565b5f82825260208201905092915050565b5f819050602082019050919050565b5f81519050919050565b5f82825260208201905092915050565b8281835e5f83830152505050565b5f601f19601f8301169050919050565b5f61088882610846565b6108928185610850565b93506108a2818560208601610860565b6108ab8161086e565b840191505092915050565b5f6108c1838361087e565b905092915050565b5f602082019050919050565b5f6108df8261081d565b6108e98185610827565b9350836020820285016108fb85610837565b805f5b85811015610936578484038952815161091785826108b6565b9450610922836108c9565b925060208a019950506001810190506108fe565b50829750879550505050505092915050565b5f6020820190508181035f83015261096081846108d5565b905092915050565b5f5ffd5b5f5ffd5b5f5ffd5b5f5f83601f84011261098957610988610968565b5b8235905067ffffffffffffffff8111156109a6576109a561096c565b5b6020830191508360018202830111156109c2576109c1610970565b5b9250929050565b5f5f602083850312156109df576109de610790565b5b5f83013567ffffffffffffffff8111156109fc576109fb610794565b5b610a0885828601610974565b92509250509250929050565b7f4e487b71000000000000000000000000000000000000000000000000000000005f52603260045260245ffd5b7f4e487b71000000000000000000000000000000000000000000000000000000005f52601160045260245ffd5b5f819050919050565b5f610a8182610a6e565b91507fffffffffffffffffffffffffffffffffffffffffffffffffffffffffffffffff8203610ab357610ab2610a41565b5b600182019050919050565b7f4e487b71000000000000000000000000000000000000000000000000000000005f52604160045260245ffd5b7f4e487b71000000000000000000000000000000000000000000000000000000005f52602260045260245ffd5b5f6002820490506001821680610b2f57607f821691505b602082108103610b4257610b41610aeb565b5b50919050565b5f81905092915050565b828183375f83830152505050565b5f610b6b8385610b48565b9350610b78838584610b52565b82840190509392505050565b5f610b90828486610b60565b91508190509392505050565b5f819050815f5260205f209050919050565b5f8154610bba81610b18565b610bc48186610b48565b9450600182165f8114610bde5760018114610bf357610c25565b60ff1983168652811515820286019350610c25565b610bfc85610b9c565b5f5b83811015610c1d57815481890152600182019150602081019050610bfe565b838801955050505b50505092915050565b5f610c398284610bae565b915081905092915050565b5f82825260208201905092915050565b5f610c5f8385610c44565b9350610c6c838584610b52565b610c758361086e565b840190509392505050565b5f6020820190508181035f830152610c99818486610c54565b90509392505050565b7f46696c6520697320616c72656164792064656c65746564206f72206e6f7420665f8201527f6f756e6400000000000000000000000000000000000000000000000000000000602082015250565b5f610cfc602483610c44565b9150610d0782610ca2565b604082019050919050565b5f6020820190508181035f830152610d2981610cf0565b9050919050565b5f81905092915050565b5f610d458385610d30565b9350610d52838584610b52565b82840190509392505050565b5f610d6a828486610d3a565b91508190509392505050565b7f546869732066696c6520616c72656164792075706c6f616465640000000000005f82015250565b5f610daa601a83610c44565b9150610db582610d76565b602082019050919050565b5f6020820190508181035f830152610dd781610d9e565b9050919050565b7f596f752068617665207265616368656420796f75722066696c652075706c6f615f8201527f64206c696d697465640000000000000000000000000000000000000000000000602082015250565b5f610e38602983610c44565b9150610e4382610dde565b604082019050919050565b5f6020820190508181035f830152610e6581610e2c565b9050919050565b5f819050815f5260205f209050919050565b5f6020601f8301049050919050565b5f82821b905092915050565b5f60088302610ec87fffffffffffffffffffffffffffffffffffffffffffffffffffffffffffffffff82610e8d565b610ed28683610e8d565b95508019841693508086168417925050509392505050565b5f819050919050565b5f610f0d610f08610f0384610a6e565b610eea565b610a6e565b9050919050565b5f819050919050565b610f2683610ef3565b610f3a610f3282610f14565b848454610e99565b825550505050565b5f5f905090565b610f51610f42565b610f5c818484610f1d565b505050565b5b81811015610f7f57610f745f82610f49565b600181019050610f62565b5050565b601f821115610fc457610f9581610e6c565b610f9e84610e7e565b81016020851015610fad578190505b610fc1610fb985610e7e565b830182610f61565b50505b505050565b5f82821c905092915050565b5f610fe45f1984600802610fc9565b1980831691505092915050565b5f610ffc8383610fd5565b9150826002028217905092915050565b61101582610846565b67ffffffffffffffff81111561102e5761102d610abe565b5b6110388254610b18565b611043828285610f83565b5f60209050601f831160018114611074575f8415611062578287015190505b61106c8582610ff1565b8655506110d3565b601f19841661108286610e6c565b5f5b828110156110a957848901518255600182019150602085019450602081019050611084565b868310156110c657848901516110c2601f891682610fd5565b8355505b6001600288020188555050505b505050505050565b6110e481610a6e565b82525050565b5f6040820190508181035f830152611103818587610c54565b905061111260208301846110db565b94935050505056fea26469706673582212203f9149606f7c91380991594b9e81da904c3159fd64e92b6ba2d587198527a96064736f6c634300081d0033",
					"opcodes": "PUSH1 0x80 PUSH1 0x40 MSTORE CALLVALUE DUP1 ISZERO PUSH1 0xE JUMPI PUSH0 PUSH0 REVERT JUMPDEST POP PUSH2 0x1150 DUP1 PUSH2 0x1C PUSH0 CODECOPY PUSH0 RETURN INVALID PUSH1 0x80 PUSH1 0x40 MSTORE CALLVALUE DUP1 ISZERO PUSH2 0xF JUMPI PUSH0 PUSH0 REVERT JUMPDEST POP PUSH1 0x4 CALLDATASIZE LT PUSH2 0x3F JUMPI PUSH0 CALLDATALOAD PUSH1 0xE0 SHR DUP1 PUSH4 0x8B22D0FD EQ PUSH2 0x43 JUMPI DUP1 PUSH4 0xA9910054 EQ PUSH2 0x73 JUMPI DUP1 PUSH4 0xCA4A2192 EQ PUSH2 0x8F JUMPI JUMPDEST PUSH0 PUSH0 REVERT JUMPDEST PUSH2 0x5D PUSH1 0x4 DUP1 CALLDATASIZE SUB DUP2 ADD SWAP1 PUSH2 0x58 SWAP2 SWAP1 PUSH2 0x7F2 JUMP JUMPDEST PUSH2 0xAB JUMP JUMPDEST PUSH1 0x40 MLOAD PUSH2 0x6A SWAP2 SWAP1 PUSH2 0x948 JUMP JUMPDEST PUSH1 0x40 MLOAD DUP1 SWAP2 SUB SWAP1 RETURN JUMPDEST PUSH2 0x8D PUSH1 0x4 DUP1 CALLDATASIZE SUB DUP2 ADD SWAP1 PUSH2 0x88 SWAP2 SWAP1 PUSH2 0x9C9 JUMP JUMPDEST PUSH2 0x2DB JUMP JUMPDEST STOP JUMPDEST PUSH2 0xA9 PUSH1 0x4 DUP1 CALLDATASIZE SUB DUP2 ADD SWAP1 PUSH2 0xA4 SWAP2 SWAP1 PUSH2 0x9C9 JUMP JUMPDEST PUSH2 0x493 JUMP JUMPDEST STOP JUMPDEST PUSH1 0x60 PUSH0 PUSH0 PUSH0 DUP5 PUSH20 0xFFFFFFFFFFFFFFFFFFFFFFFFFFFFFFFFFFFFFFFF AND PUSH20 0xFFFFFFFFFFFFFFFFFFFFFFFFFFFFFFFFFFFFFFFF AND DUP2 MSTORE PUSH1 0x20 ADD SWAP1 DUP2 MSTORE PUSH1 0x20 ADD PUSH0 KECCAK256 SWAP1 POP PUSH0 PUSH0 SWAP1 POP PUSH0 PUSH0 SWAP1 POP JUMPDEST DUP3 DUP1 SLOAD SWAP1 POP DUP2 LT ISZERO PUSH2 0x151 JUMPI DUP3 DUP2 DUP2 SLOAD DUP2 LT PUSH2 0x114 JUMPI PUSH2 0x113 PUSH2 0xA14 JUMP JUMPDEST JUMPDEST SWAP1 PUSH0 MSTORE PUSH1 0x20 PUSH0 KECCAK256 SWAP1 PUSH1 0x3 MUL ADD PUSH1 0x2 ADD PUSH0 SWAP1 SLOAD SWAP1 PUSH2 0x100 EXP SWAP1 DIV PUSH1 0xFF AND ISZERO PUSH2 0x144 JUMPI DUP2 DUP1 PUSH2 0x140 SWAP1 PUSH2 0xA77 JUMP JUMPDEST SWAP3 POP POP JUMPDEST DUP1 DUP1 PUSH1 0x1 ADD SWAP2 POP POP PUSH2 0xF5 JUMP JUMPDEST POP PUSH0 DUP2 PUSH8 0xFFFFFFFFFFFFFFFF DUP2 GT ISZERO PUSH2 0x16D JUMPI PUSH2 0x16C PUSH2 0xABE JUMP JUMPDEST JUMPDEST PUSH1 0x40 MLOAD SWAP1 DUP1 DUP3 MSTORE DUP1 PUSH1 0x20 MUL PUSH1 0x20 ADD DUP3 ADD PUSH1 0x40 MSTORE DUP1 ISZERO PUSH2 0x1A0 JUMPI DUP2 PUSH1 0x20 ADD JUMPDEST PUSH1 0x60 DUP2 MSTORE PUSH1 0x20 ADD SWAP1 PUSH1 0x1 SWAP1 SUB SWAP1 DUP2 PUSH2 0x18B JUMPI SWAP1 POP JUMPDEST POP SWAP1 POP PUSH0 PUSH0 SWAP1 POP PUSH0 PUSH0 SWAP1 POP JUMPDEST DUP5 DUP1 SLOAD SWAP1 POP DUP2 LT ISZERO PUSH2 0x2CE JUMPI DUP5 DUP2 DUP2 SLOAD DUP2 LT PUSH2 0x1CB JUMPI PUSH2 0x1CA PUSH2 0xA14 JUMP JUMPDEST JUMPDEST SWAP1 PUSH0 MSTORE PUSH1 0x20 PUSH0 KECCAK256 SWAP1 PUSH1 0x3 MUL ADD PUSH1 0x2 ADD PUSH0 SWAP1 SLOAD SWAP1 PUSH2 0x100 EXP SWAP1 DIV PUSH1 0xFF AND ISZERO PUSH2 0x2C1 JUMPI DUP5 DUP2 DUP2 SLOAD DUP2 LT PUSH2 0x1FF JUMPI PUSH2 0x1FE PUSH2 0xA14 JUMP JUMPDEST JUMPDEST SWAP1 PUSH0 MSTORE PUSH1 0x20 PUSH0 KECCAK256 SWAP1 PUSH1 0x3 MUL ADD PUSH0 ADD DUP1 SLOAD PUSH2 0x218 SWAP1 PUSH2 0xB18 JUMP JUMPDEST DUP1 PUSH1 0x1F ADD PUSH1 0x20 DUP1 SWAP2 DIV MUL PUSH1 0x20 ADD PUSH1 0x40 MLOAD SWAP1 DUP2 ADD PUSH1 0x40 MSTORE DUP1 SWAP3 SWAP2 SWAP1 DUP2 DUP2 MSTORE PUSH1 0x20 ADD DUP3 DUP1 SLOAD PUSH2 0x244 SWAP1 PUSH2 0xB18 JUMP JUMPDEST DUP1 ISZERO PUSH2 0x28F JUMPI DUP1 PUSH1 0x1F LT PUSH2 0x266 JUMPI PUSH2 0x100 DUP1 DUP4 SLOAD DIV MUL DUP4 MSTORE SWAP2 PUSH1 0x20 ADD SWAP2 PUSH2 0x28F JUMP JUMPDEST DUP3 ADD SWAP2 SWAP1 PUSH0 MSTORE PUSH1 0x20 PUSH0 KECCAK256 SWAP1 JUMPDEST DUP2 SLOAD DUP2 MSTORE SWAP1 PUSH1 0x1 ADD SWAP1 PUSH1 0x20 ADD DUP1 DUP4 GT PUSH2 0x272 JUMPI DUP3 SWAP1 SUB PUSH1 0x1F AND DUP3 ADD SWAP2 JUMPDEST POP POP POP POP POP DUP4 DUP4 DUP2 MLOAD DUP2 LT PUSH2 0x2A7 JUMPI PUSH2 0x2A6 PUSH2 0xA14 JUMP JUMPDEST JUMPDEST PUSH1 0x20 MUL PUSH1 0x20 ADD ADD DUP2 SWAP1 MSTORE POP DUP2 DUP1 PUSH2 0x2BD SWAP1 PUSH2 0xA77 JUMP JUMPDEST SWAP3 POP POP JUMPDEST DUP1 DUP1 PUSH1 0x1 ADD SWAP2 POP POP PUSH2 0x1AC JUMP JUMPDEST POP DUP2 SWAP5 POP POP POP POP POP SWAP2 SWAP1 POP JUMP JUMPDEST PUSH0 PUSH0 PUSH0 CALLER PUSH20 0xFFFFFFFFFFFFFFFFFFFFFFFFFFFFFFFFFFFFFFFF AND PUSH20 0xFFFFFFFFFFFFFFFFFFFFFFFFFFFFFFFFFFFFFFFF AND DUP2 MSTORE PUSH1 0x20 ADD SWAP1 DUP2 MSTORE PUSH1 0x20 ADD PUSH0 KECCAK256 SWAP1 POP PUSH0 PUSH0 SWAP1 POP JUMPDEST DUP2 DUP1 SLOAD SWAP1 POP DUP2 LT ISZERO PUSH2 0x453 JUMPI DUP4 DUP4 PUSH1 0x40 MLOAD PUSH2 0x33B SWAP3 SWAP2 SWAP1 PUSH2 0xB84 JUMP JUMPDEST PUSH1 0x40 MLOAD DUP1 SWAP2 SUB SWAP1 KECCAK256 DUP3 DUP3 DUP2 SLOAD DUP2 LT PUSH2 0x356 JUMPI PUSH2 0x355 PUSH2 0xA14 JUMP JUMPDEST JUMPDEST SWAP1 PUSH0 MSTORE PUSH1 0x20 PUSH0 KECCAK256 SWAP1 PUSH1 0x3 MUL ADD PUSH0 ADD PUSH1 0x40 MLOAD PUSH2 0x371 SWAP2 SWAP1 PUSH2 0xC2E JUMP JUMPDEST PUSH1 0x40 MLOAD DUP1 SWAP2 SUB SWAP1 KECCAK256 EQ DUP1 ISZERO PUSH2 0x3B1 JUMPI POP DUP2 DUP2 DUP2 SLOAD DUP2 LT PUSH2 0x394 JUMPI PUSH2 0x393 PUSH2 0xA14 JUMP JUMPDEST JUMPDEST SWAP1 PUSH0 MSTORE PUSH1 0x20 PUSH0 KECCAK256 SWAP1 PUSH1 0x3 MUL ADD PUSH1 0x2 ADD PUSH0 SWAP1 SLOAD SWAP1 PUSH2 0x100 EXP SWAP1 DIV PUSH1 0xFF AND JUMPDEST ISZERO PUSH2 0x446 JUMPI PUSH0 DUP3 DUP3 DUP2 SLOAD DUP2 LT PUSH2 0x3CA JUMPI PUSH2 0x3C9 PUSH2 0xA14 JUMP JUMPDEST JUMPDEST SWAP1 PUSH0 MSTORE PUSH1 0x20 PUSH0 KECCAK256 SWAP1 PUSH1 0x3 MUL ADD PUSH1 0x2 ADD PUSH0 PUSH2 0x100 EXP DUP2 SLOAD DUP2 PUSH1 0xFF MUL NOT AND SWAP1 DUP4 ISZERO ISZERO MUL OR SWAP1 SSTORE POP CALLER PUSH20 0xFFFFFFFFFFFFFFFFFFFFFFFFFFFFFFFFFFFFFFFF AND PUSH32 0xF7B065C2C42AF209EA28B725EE7F4038691A1B8C8D1A6A58D533CCDAF79AF57C DUP6 DUP6 PUSH1 0x40 MLOAD PUSH2 0x437 SWAP3 SWAP2 SWAP1 PUSH2 0xC80 JUMP JUMPDEST PUSH1 0x40 MLOAD DUP1 SWAP2 SUB SWAP1 LOG2 POP POP PUSH2 0x48F JUMP JUMPDEST DUP1 DUP1 PUSH1 0x1 ADD SWAP2 POP POP PUSH2 0x31F JUMP JUMPDEST POP PUSH1 0x40 MLOAD PUSH32 0x8C379A000000000000000000000000000000000000000000000000000000000 DUP2 MSTORE PUSH1 0x4 ADD PUSH2 0x486 SWAP1 PUSH2 0xD12 JUMP JUMPDEST PUSH1 0x40 MLOAD DUP1 SWAP2 SUB SWAP1 REVERT JUMPDEST POP POP JUMP JUMPDEST DUP2 DUP2 PUSH1 0x1 PUSH0 CALLER PUSH20 0xFFFFFFFFFFFFFFFFFFFFFFFFFFFFFFFFFFFFFFFF AND PUSH20 0xFFFFFFFFFFFFFFFFFFFFFFFFFFFFFFFFFFFFFFFF AND DUP2 MSTORE PUSH1 0x20 ADD SWAP1 DUP2 MSTORE PUSH1 0x20 ADD PUSH0 KECCAK256 DUP3 DUP3 PUSH1 0x40 MLOAD PUSH2 0x4E2 SWAP3 SWAP2 SWAP1 PUSH2 0xD5E JUMP JUMPDEST SWAP1 DUP2 MSTORE PUSH1 0x20 ADD PUSH1 0x40 MLOAD DUP1 SWAP2 SUB SWAP1 KECCAK256 PUSH0 SWAP1 SLOAD SWAP1 PUSH2 0x100 EXP SWAP1 DIV PUSH1 0xFF AND ISZERO PUSH2 0x53D JUMPI PUSH1 0x40 MLOAD PUSH32 0x8C379A000000000000000000000000000000000000000000000000000000000 DUP2 MSTORE PUSH1 0x4 ADD PUSH2 0x534 SWAP1 PUSH2 0xDC0 JUMP JUMPDEST PUSH1 0x40 MLOAD DUP1 SWAP2 SUB SWAP1 REVERT JUMPDEST PUSH1 0x64 PUSH0 PUSH0 CALLER PUSH20 0xFFFFFFFFFFFFFFFFFFFFFFFFFFFFFFFFFFFFFFFF AND PUSH20 0xFFFFFFFFFFFFFFFFFFFFFFFFFFFFFFFFFFFFFFFF AND DUP2 MSTORE PUSH1 0x20 ADD SWAP1 DUP2 MSTORE PUSH1 0x20 ADD PUSH0 KECCAK256 DUP1 SLOAD SWAP1 POP LT PUSH2 0x5BF JUMPI PUSH1 0x40 MLOAD PUSH32 0x8C379A000000000000000000000000000000000000000000000000000000000 DUP2 MSTORE PUSH1 0x4 ADD PUSH2 0x5B6 SWAP1 PUSH2 0xE4E JUMP JUMPDEST PUSH1 0x40 MLOAD DUP1 SWAP2 SUB SWAP1 REVERT JUMPDEST PUSH0 PUSH1 0x40 MLOAD DUP1 PUSH1 0x60 ADD PUSH1 0x40 MSTORE DUP1 DUP7 DUP7 DUP1 DUP1 PUSH1 0x1F ADD PUSH1 0x20 DUP1 SWAP2 DIV MUL PUSH1 0x20 ADD PUSH1 0x40 MLOAD SWAP1 DUP2 ADD PUSH1 0x40 MSTORE DUP1 SWAP4 SWAP3 SWAP2 SWAP1 DUP2 DUP2 MSTORE PUSH1 0x20 ADD DUP4 DUP4 DUP1 DUP3 DUP5 CALLDATACOPY PUSH0 DUP2 DUP5 ADD MSTORE PUSH1 0x1F NOT PUSH1 0x1F DUP3 ADD AND SWAP1 POP DUP1 DUP4 ADD SWAP3 POP POP POP POP POP POP POP DUP2 MSTORE PUSH1 0x20 ADD TIMESTAMP DUP2 MSTORE PUSH1 0x20 ADD PUSH1 0x1 ISZERO ISZERO DUP2 MSTORE POP SWAP1 POP PUSH0 PUSH0 CALLER PUSH20 0xFFFFFFFFFFFFFFFFFFFFFFFFFFFFFFFFFFFFFFFF AND PUSH20 0xFFFFFFFFFFFFFFFFFFFFFFFFFFFFFFFFFFFFFFFF AND DUP2 MSTORE PUSH1 0x20 ADD SWAP1 DUP2 MSTORE PUSH1 0x20 ADD PUSH0 KECCAK256 DUP2 SWAP1 DUP1 PUSH1 0x1 DUP2 SLOAD ADD DUP1 DUP3 SSTORE DUP1 SWAP2 POP POP PUSH1 0x1 SWAP1 SUB SWAP1 PUSH0 MSTORE PUSH1 0x20 PUSH0 KECCAK256 SWAP1 PUSH1 0x3 MUL ADD PUSH0 SWAP1 SWAP2 SWAP1 SWAP2 SWAP1 SWAP2 POP PUSH0 DUP3 ADD MLOAD DUP2 PUSH0 ADD SWAP1 DUP2 PUSH2 0x699 SWAP2 SWAP1 PUSH2 0x100C JUMP JUMPDEST POP PUSH1 0x20 DUP3 ADD MLOAD DUP2 PUSH1 0x1 ADD SSTORE PUSH1 0x40 DUP3 ADD MLOAD DUP2 PUSH1 0x2 ADD PUSH0 PUSH2 0x100 EXP DUP2 SLOAD DUP2 PUSH1 0xFF MUL NOT AND SWAP1 DUP4 ISZERO ISZERO MUL OR SWAP1 SSTORE POP POP POP PUSH1 0x1 DUP1 PUSH0 CALLER PUSH20 0xFFFFFFFFFFFFFFFFFFFFFFFFFFFFFFFFFFFFFFFF AND PUSH20 0xFFFFFFFFFFFFFFFFFFFFFFFFFFFFFFFFFFFFFFFF AND DUP2 MSTORE PUSH1 0x20 ADD SWAP1 DUP2 MSTORE PUSH1 0x20 ADD PUSH0 KECCAK256 DUP7 DUP7 PUSH1 0x40 MLOAD PUSH2 0x713 SWAP3 SWAP2 SWAP1 PUSH2 0xD5E JUMP JUMPDEST SWAP1 DUP2 MSTORE PUSH1 0x20 ADD PUSH1 0x40 MLOAD DUP1 SWAP2 SUB SWAP1 KECCAK256 PUSH0 PUSH2 0x100 EXP DUP2 SLOAD DUP2 PUSH1 0xFF MUL NOT AND SWAP1 DUP4 ISZERO ISZERO MUL OR SWAP1 SSTORE POP CALLER PUSH20 0xFFFFFFFFFFFFFFFFFFFFFFFFFFFFFFFFFFFFFFFF AND PUSH32 0xC4471A766ACD930AA96463E1FDDA8F8FD429055933A7D8644BC8D2ABB3912D66 DUP7 DUP7 TIMESTAMP PUSH1 0x40 MLOAD PUSH2 0x781 SWAP4 SWAP3 SWAP2 SWAP1 PUSH2 0x10EA JUMP JUMPDEST PUSH1 0x40 MLOAD DUP1 SWAP2 SUB SWAP1 LOG2 POP POP POP POP POP JUMP JUMPDEST PUSH0 PUSH0 REVERT JUMPDEST PUSH0 PUSH0 REVERT JUMPDEST PUSH0 PUSH20 0xFFFFFFFFFFFFFFFFFFFFFFFFFFFFFFFFFFFFFFFF DUP3 AND SWAP1 POP SWAP2 SWAP1 POP JUMP JUMPDEST PUSH0 PUSH2 0x7C1 DUP3 PUSH2 0x798 JUMP JUMPDEST SWAP1 POP SWAP2 SWAP1 POP JUMP JUMPDEST PUSH2 0x7D1 DUP2 PUSH2 0x7B7 JUMP JUMPDEST DUP2 EQ PUSH2 0x7DB JUMPI PUSH0 PUSH0 REVERT JUMPDEST POP JUMP JUMPDEST PUSH0 DUP2 CALLDATALOAD SWAP1 POP PUSH2 0x7EC DUP2 PUSH2 0x7C8 JUMP JUMPDEST SWAP3 SWAP2 POP POP JUMP JUMPDEST PUSH0 PUSH1 0x20 DUP3 DUP5 SUB SLT ISZERO PUSH2 0x807 JUMPI PUSH2 0x806 PUSH2 0x790 JUMP JUMPDEST JUMPDEST PUSH0 PUSH2 0x814 DUP5 DUP3 DUP6 ADD PUSH2 0x7DE JUMP JUMPDEST SWAP2 POP POP SWAP3 SWAP2 POP POP JUMP JUMPDEST PUSH0 DUP2 MLOAD SWAP1 POP SWAP2 SWAP1 POP JUMP JUMPDEST PUSH0 DUP3 DUP3 MSTORE PUSH1 0x20 DUP3 ADD SWAP1 POP SWAP3 SWAP2 POP POP JUMP JUMPDEST PUSH0 DUP2 SWAP1 POP PUSH1 0x20 DUP3 ADD SWAP1 POP SWAP2 SWAP1 POP JUMP JUMPDEST PUSH0 DUP2 MLOAD SWAP1 POP SWAP2 SWAP1 POP JUMP JUMPDEST PUSH0 DUP3 DUP3 MSTORE PUSH1 0x20 DUP3 ADD SWAP1 POP SWAP3 SWAP2 POP POP JUMP JUMPDEST DUP3 DUP2 DUP4 MCOPY PUSH0 DUP4 DUP4 ADD MSTORE POP POP POP JUMP JUMPDEST PUSH0 PUSH1 0x1F NOT PUSH1 0x1F DUP4 ADD AND SWAP1 POP SWAP2 SWAP1 POP JUMP JUMPDEST PUSH0 PUSH2 0x888 DUP3 PUSH2 0x846 JUMP JUMPDEST PUSH2 0x892 DUP2 DUP6 PUSH2 0x850 JUMP JUMPDEST SWAP4 POP PUSH2 0x8A2 DUP2 DUP6 PUSH1 0x20 DUP7 ADD PUSH2 0x860 JUMP JUMPDEST PUSH2 0x8AB DUP2 PUSH2 0x86E JUMP JUMPDEST DUP5 ADD SWAP2 POP POP SWAP3 SWAP2 POP POP JUMP JUMPDEST PUSH0 PUSH2 0x8C1 DUP4 DUP4 PUSH2 0x87E JUMP JUMPDEST SWAP1 POP SWAP3 SWAP2 POP POP JUMP JUMPDEST PUSH0 PUSH1 0x20 DUP3 ADD SWAP1 POP SWAP2 SWAP1 POP JUMP JUMPDEST PUSH0 PUSH2 0x8DF DUP3 PUSH2 0x81D JUMP JUMPDEST PUSH2 0x8E9 DUP2 DUP6 PUSH2 0x827 JUMP JUMPDEST SWAP4 POP DUP4 PUSH1 0x20 DUP3 MUL DUP6 ADD PUSH2 0x8FB DUP6 PUSH2 0x837 JUMP JUMPDEST DUP1 PUSH0 JUMPDEST DUP6 DUP2 LT ISZERO PUSH2 0x936 JUMPI DUP5 DUP5 SUB DUP10 MSTORE DUP2 MLOAD PUSH2 0x917 DUP6 DUP3 PUSH2 0x8B6 JUMP JUMPDEST SWAP5 POP PUSH2 0x922 DUP4 PUSH2 0x8C9 JUMP JUMPDEST SWAP3 POP PUSH1 0x20 DUP11 ADD SWAP10 POP POP PUSH1 0x1 DUP2 ADD SWAP1 POP PUSH2 0x8FE JUMP JUMPDEST POP DUP3 SWAP8 POP DUP8 SWAP6 POP POP POP POP POP POP SWAP3 SWAP2 POP POP JUMP JUMPDEST PUSH0 PUSH1 0x20 DUP3 ADD SWAP1 POP DUP2 DUP2 SUB PUSH0 DUP4 ADD MSTORE PUSH2 0x960 DUP2 DUP5 PUSH2 0x8D5 JUMP JUMPDEST SWAP1 POP SWAP3 SWAP2 POP POP JUMP JUMPDEST PUSH0 PUSH0 REVERT JUMPDEST PUSH0 PUSH0 REVERT JUMPDEST PUSH0 PUSH0 REVERT JUMPDEST PUSH0 PUSH0 DUP4 PUSH1 0x1F DUP5 ADD SLT PUSH2 0x989 JUMPI PUSH2 0x988 PUSH2 0x968 JUMP JUMPDEST JUMPDEST DUP3 CALLDATALOAD SWAP1 POP PUSH8 0xFFFFFFFFFFFFFFFF DUP2 GT ISZERO PUSH2 0x9A6 JUMPI PUSH2 0x9A5 PUSH2 0x96C JUMP JUMPDEST JUMPDEST PUSH1 0x20 DUP4 ADD SWAP2 POP DUP4 PUSH1 0x1 DUP3 MUL DUP4 ADD GT ISZERO PUSH2 0x9C2 JUMPI PUSH2 0x9C1 PUSH2 0x970 JUMP JUMPDEST JUMPDEST SWAP3 POP SWAP3 SWAP1 POP JUMP JUMPDEST PUSH0 PUSH0 PUSH1 0x20 DUP4 DUP6 SUB SLT ISZERO PUSH2 0x9DF JUMPI PUSH2 0x9DE PUSH2 0x790 JUMP JUMPDEST JUMPDEST PUSH0 DUP4 ADD CALLDATALOAD PUSH8 0xFFFFFFFFFFFFFFFF DUP2 GT ISZERO PUSH2 0x9FC JUMPI PUSH2 0x9FB PUSH2 0x794 JUMP JUMPDEST JUMPDEST PUSH2 0xA08 DUP6 DUP3 DUP7 ADD PUSH2 0x974 JUMP JUMPDEST SWAP3 POP SWAP3 POP POP SWAP3 POP SWAP3 SWAP1 POP JUMP JUMPDEST PUSH32 0x4E487B7100000000000000000000000000000000000000000000000000000000 PUSH0 MSTORE PUSH1 0x32 PUSH1 0x4 MSTORE PUSH1 0x24 PUSH0 REVERT JUMPDEST PUSH32 0x4E487B7100000000000000000000000000000000000000000000000000000000 PUSH0 MSTORE PUSH1 0x11 PUSH1 0x4 MSTORE PUSH1 0x24 PUSH0 REVERT JUMPDEST PUSH0 DUP2 SWAP1 POP SWAP2 SWAP1 POP JUMP JUMPDEST PUSH0 PUSH2 0xA81 DUP3 PUSH2 0xA6E JUMP JUMPDEST SWAP2 POP PUSH32 0xFFFFFFFFFFFFFFFFFFFFFFFFFFFFFFFFFFFFFFFFFFFFFFFFFFFFFFFFFFFFFFFF DUP3 SUB PUSH2 0xAB3 JUMPI PUSH2 0xAB2 PUSH2 0xA41 JUMP JUMPDEST JUMPDEST PUSH1 0x1 DUP3 ADD SWAP1 POP SWAP2 SWAP1 POP JUMP JUMPDEST PUSH32 0x4E487B7100000000000000000000000000000000000000000000000000000000 PUSH0 MSTORE PUSH1 0x41 PUSH1 0x4 MSTORE PUSH1 0x24 PUSH0 REVERT JUMPDEST PUSH32 0x4E487B7100000000000000000000000000000000000000000000000000000000 PUSH0 MSTORE PUSH1 0x22 PUSH1 0x4 MSTORE PUSH1 0x24 PUSH0 REVERT JUMPDEST PUSH0 PUSH1 0x2 DUP3 DIV SWAP1 POP PUSH1 0x1 DUP3 AND DUP1 PUSH2 0xB2F JUMPI PUSH1 0x7F DUP3 AND SWAP2 POP JUMPDEST PUSH1 0x20 DUP3 LT DUP2 SUB PUSH2 0xB42 JUMPI PUSH2 0xB41 PUSH2 0xAEB JUMP JUMPDEST JUMPDEST POP SWAP2 SWAP1 POP JUMP JUMPDEST PUSH0 DUP2 SWAP1 POP SWAP3 SWAP2 POP POP JUMP JUMPDEST DUP3 DUP2 DUP4 CALLDATACOPY PUSH0 DUP4 DUP4 ADD MSTORE POP POP POP JUMP JUMPDEST PUSH0 PUSH2 0xB6B DUP4 DUP6 PUSH2 0xB48 JUMP JUMPDEST SWAP4 POP PUSH2 0xB78 DUP4 DUP6 DUP5 PUSH2 0xB52 JUMP JUMPDEST DUP3 DUP5 ADD SWAP1 POP SWAP4 SWAP3 POP POP POP JUMP JUMPDEST PUSH0 PUSH2 0xB90 DUP3 DUP5 DUP7 PUSH2 0xB60 JUMP JUMPDEST SWAP2 POP DUP2 SWAP1 POP SWAP4 SWAP3 POP POP POP JUMP JUMPDEST PUSH0 DUP2 SWAP1 POP DUP2 PUSH0 MSTORE PUSH1 0x20 PUSH0 KECCAK256 SWAP1 POP SWAP2 SWAP1 POP JUMP JUMPDEST PUSH0 DUP2 SLOAD PUSH2 0xBBA DUP2 PUSH2 0xB18 JUMP JUMPDEST PUSH2 0xBC4 DUP2 DUP7 PUSH2 0xB48 JUMP JUMPDEST SWAP5 POP PUSH1 0x1 DUP3 AND PUSH0 DUP2 EQ PUSH2 0xBDE JUMPI PUSH1 0x1 DUP2 EQ PUSH2 0xBF3 JUMPI PUSH2 0xC25 JUMP JUMPDEST PUSH1 0xFF NOT DUP4 AND DUP7 MSTORE DUP2 ISZERO ISZERO DUP3 MUL DUP7 ADD SWAP4 POP PUSH2 0xC25 JUMP JUMPDEST PUSH2 0xBFC DUP6 PUSH2 0xB9C JUMP JUMPDEST PUSH0 JUMPDEST DUP4 DUP2 LT ISZERO PUSH2 0xC1D JUMPI DUP2 SLOAD DUP2 DUP10 ADD MSTORE PUSH1 0x1 DUP3 ADD SWAP2 POP PUSH1 0x20 DUP2 ADD SWAP1 POP PUSH2 0xBFE JUMP JUMPDEST DUP4 DUP9 ADD SWAP6 POP POP POP JUMPDEST POP POP POP SWAP3 SWAP2 POP POP JUMP JUMPDEST PUSH0 PUSH2 0xC39 DUP3 DUP5 PUSH2 0xBAE JUMP JUMPDEST SWAP2 POP DUP2 SWAP1 POP SWAP3 SWAP2 POP POP JUMP JUMPDEST PUSH0 DUP3 DUP3 MSTORE PUSH1 0x20 DUP3 ADD SWAP1 POP SWAP3 SWAP2 POP POP JUMP JUMPDEST PUSH0 PUSH2 0xC5F DUP4 DUP6 PUSH2 0xC44 JUMP JUMPDEST SWAP4 POP PUSH2 0xC6C DUP4 DUP6 DUP5 PUSH2 0xB52 JUMP JUMPDEST PUSH2 0xC75 DUP4 PUSH2 0x86E JUMP JUMPDEST DUP5 ADD SWAP1 POP SWAP4 SWAP3 POP POP POP JUMP JUMPDEST PUSH0 PUSH1 0x20 DUP3 ADD SWAP1 POP DUP2 DUP2 SUB PUSH0 DUP4 ADD MSTORE PUSH2 0xC99 DUP2 DUP5 DUP7 PUSH2 0xC54 JUMP JUMPDEST SWAP1 POP SWAP4 SWAP3 POP POP POP JUMP JUMPDEST PUSH32 0x46696C6520697320616C72656164792064656C65746564206F72206E6F742066 PUSH0 DUP3 ADD MSTORE PUSH32 0x6F756E6400000000000000000000000000000000000000000000000000000000 PUSH1 0x20 DUP3 ADD MSTORE POP JUMP JUMPDEST PUSH0 PUSH2 0xCFC PUSH1 0x24 DUP4 PUSH2 0xC44 JUMP JUMPDEST SWAP2 POP PUSH2 0xD07 DUP3 PUSH2 0xCA2 JUMP JUMPDEST PUSH1 0x40 DUP3 ADD SWAP1 POP SWAP2 SWAP1 POP JUMP JUMPDEST PUSH0 PUSH1 0x20 DUP3 ADD SWAP1 POP DUP2 DUP2 SUB PUSH0 DUP4 ADD MSTORE PUSH2 0xD29 DUP2 PUSH2 0xCF0 JUMP JUMPDEST SWAP1 POP SWAP2 SWAP1 POP JUMP JUMPDEST PUSH0 DUP2 SWAP1 POP SWAP3 SWAP2 POP POP JUMP JUMPDEST PUSH0 PUSH2 0xD45 DUP4 DUP6 PUSH2 0xD30 JUMP JUMPDEST SWAP4 POP PUSH2 0xD52 DUP4 DUP6 DUP5 PUSH2 0xB52 JUMP JUMPDEST DUP3 DUP5 ADD SWAP1 POP SWAP4 SWAP3 POP POP POP JUMP JUMPDEST PUSH0 PUSH2 0xD6A DUP3 DUP5 DUP7 PUSH2 0xD3A JUMP JUMPDEST SWAP2 POP DUP2 SWAP1 POP SWAP4 SWAP3 POP POP POP JUMP JUMPDEST PUSH32 0x546869732066696C6520616C72656164792075706C6F61646564000000000000 PUSH0 DUP3 ADD MSTORE POP JUMP JUMPDEST PUSH0 PUSH2 0xDAA PUSH1 0x1A DUP4 PUSH2 0xC44 JUMP JUMPDEST SWAP2 POP PUSH2 0xDB5 DUP3 PUSH2 0xD76 JUMP JUMPDEST PUSH1 0x20 DUP3 ADD SWAP1 POP SWAP2 SWAP1 POP JUMP JUMPDEST PUSH0 PUSH1 0x20 DUP3 ADD SWAP1 POP DUP2 DUP2 SUB PUSH0 DUP4 ADD MSTORE PUSH2 0xDD7 DUP2 PUSH2 0xD9E JUMP JUMPDEST SWAP1 POP SWAP2 SWAP1 POP JUMP JUMPDEST PUSH32 0x596F752068617665207265616368656420796F75722066696C652075706C6F61 PUSH0 DUP3 ADD MSTORE PUSH32 0x64206C696D697465640000000000000000000000000000000000000000000000 PUSH1 0x20 DUP3 ADD MSTORE POP JUMP JUMPDEST PUSH0 PUSH2 0xE38 PUSH1 0x29 DUP4 PUSH2 0xC44 JUMP JUMPDEST SWAP2 POP PUSH2 0xE43 DUP3 PUSH2 0xDDE JUMP JUMPDEST PUSH1 0x40 DUP3 ADD SWAP1 POP SWAP2 SWAP1 POP JUMP JUMPDEST PUSH0 PUSH1 0x20 DUP3 ADD SWAP1 POP DUP2 DUP2 SUB PUSH0 DUP4 ADD MSTORE PUSH2 0xE65 DUP2 PUSH2 0xE2C JUMP JUMPDEST SWAP1 POP SWAP2 SWAP1 POP JUMP JUMPDEST PUSH0 DUP2 SWAP1 POP DUP2 PUSH0 MSTORE PUSH1 0x20 PUSH0 KECCAK256 SWAP1 POP SWAP2 SWAP1 POP JUMP JUMPDEST PUSH0 PUSH1 0x20 PUSH1 0x1F DUP4 ADD DIV SWAP1 POP SWAP2 SWAP1 POP JUMP JUMPDEST PUSH0 DUP3 DUP3 SHL SWAP1 POP SWAP3 SWAP2 POP POP JUMP JUMPDEST PUSH0 PUSH1 0x8 DUP4 MUL PUSH2 0xEC8 PUSH32 0xFFFFFFFFFFFFFFFFFFFFFFFFFFFFFFFFFFFFFFFFFFFFFFFFFFFFFFFFFFFFFFFF DUP3 PUSH2 0xE8D JUMP JUMPDEST PUSH2 0xED2 DUP7 DUP4 PUSH2 0xE8D JUMP JUMPDEST SWAP6 POP DUP1 NOT DUP5 AND SWAP4 POP DUP1 DUP7 AND DUP5 OR SWAP3 POP POP POP SWAP4 SWAP3 POP POP POP JUMP JUMPDEST PUSH0 DUP2 SWAP1 POP SWAP2 SWAP1 POP JUMP JUMPDEST PUSH0 PUSH2 0xF0D PUSH2 0xF08 PUSH2 0xF03 DUP5 PUSH2 0xA6E JUMP JUMPDEST PUSH2 0xEEA JUMP JUMPDEST PUSH2 0xA6E JUMP JUMPDEST SWAP1 POP SWAP2 SWAP1 POP JUMP JUMPDEST PUSH0 DUP2 SWAP1 POP SWAP2 SWAP1 POP JUMP JUMPDEST PUSH2 0xF26 DUP4 PUSH2 0xEF3 JUMP JUMPDEST PUSH2 0xF3A PUSH2 0xF32 DUP3 PUSH2 0xF14 JUMP JUMPDEST DUP5 DUP5 SLOAD PUSH2 0xE99 JUMP JUMPDEST DUP3 SSTORE POP POP POP POP JUMP JUMPDEST PUSH0 PUSH0 SWAP1 POP SWAP1 JUMP JUMPDEST PUSH2 0xF51 PUSH2 0xF42 JUMP JUMPDEST PUSH2 0xF5C DUP2 DUP5 DUP5 PUSH2 0xF1D JUMP JUMPDEST POP POP POP JUMP JUMPDEST JUMPDEST DUP2 DUP2 LT ISZERO PUSH2 0xF7F JUMPI PUSH2 0xF74 PUSH0 DUP3 PUSH2 0xF49 JUMP JUMPDEST PUSH1 0x1 DUP2 ADD SWAP1 POP PUSH2 0xF62 JUMP JUMPDEST POP POP JUMP JUMPDEST PUSH1 0x1F DUP3 GT ISZERO PUSH2 0xFC4 JUMPI PUSH2 0xF95 DUP2 PUSH2 0xE6C JUMP JUMPDEST PUSH2 0xF9E DUP5 PUSH2 0xE7E JUMP JUMPDEST DUP2 ADD PUSH1 0x20 DUP6 LT ISZERO PUSH2 0xFAD JUMPI DUP2 SWAP1 POP JUMPDEST PUSH2 0xFC1 PUSH2 0xFB9 DUP6 PUSH2 0xE7E JUMP JUMPDEST DUP4 ADD DUP3 PUSH2 0xF61 JUMP JUMPDEST POP POP JUMPDEST POP POP POP JUMP JUMPDEST PUSH0 DUP3 DUP3 SHR SWAP1 POP SWAP3 SWAP2 POP POP JUMP JUMPDEST PUSH0 PUSH2 0xFE4 PUSH0 NOT DUP5 PUSH1 0x8 MUL PUSH2 0xFC9 JUMP JUMPDEST NOT DUP1 DUP4 AND SWAP2 POP POP SWAP3 SWAP2 POP POP JUMP JUMPDEST PUSH0 PUSH2 0xFFC DUP4 DUP4 PUSH2 0xFD5 JUMP JUMPDEST SWAP2 POP DUP3 PUSH1 0x2 MUL DUP3 OR SWAP1 POP SWAP3 SWAP2 POP POP JUMP JUMPDEST PUSH2 0x1015 DUP3 PUSH2 0x846 JUMP JUMPDEST PUSH8 0xFFFFFFFFFFFFFFFF DUP2 GT ISZERO PUSH2 0x102E JUMPI PUSH2 0x102D PUSH2 0xABE JUMP JUMPDEST JUMPDEST PUSH2 0x1038 DUP3 SLOAD PUSH2 0xB18 JUMP JUMPDEST PUSH2 0x1043 DUP3 DUP3 DUP6 PUSH2 0xF83 JUMP JUMPDEST PUSH0 PUSH1 0x20 SWAP1 POP PUSH1 0x1F DUP4 GT PUSH1 0x1 DUP2 EQ PUSH2 0x1074 JUMPI PUSH0 DUP5 ISZERO PUSH2 0x1062 JUMPI DUP3 DUP8 ADD MLOAD SWAP1 POP JUMPDEST PUSH2 0x106C DUP6 DUP3 PUSH2 0xFF1 JUMP JUMPDEST DUP7 SSTORE POP PUSH2 0x10D3 JUMP JUMPDEST PUSH1 0x1F NOT DUP5 AND PUSH2 0x1082 DUP7 PUSH2 0xE6C JUMP JUMPDEST PUSH0 JUMPDEST DUP3 DUP2 LT ISZERO PUSH2 0x10A9 JUMPI DUP5 DUP10 ADD MLOAD DUP3 SSTORE PUSH1 0x1 DUP3 ADD SWAP2 POP PUSH1 0x20 DUP6 ADD SWAP5 POP PUSH1 0x20 DUP2 ADD SWAP1 POP PUSH2 0x1084 JUMP JUMPDEST DUP7 DUP4 LT ISZERO PUSH2 0x10C6 JUMPI DUP5 DUP10 ADD MLOAD PUSH2 0x10C2 PUSH1 0x1F DUP10 AND DUP3 PUSH2 0xFD5 JUMP JUMPDEST DUP4 SSTORE POP JUMPDEST PUSH1 0x1 PUSH1 0x2 DUP9 MUL ADD DUP9 SSTORE POP POP POP JUMPDEST POP POP POP POP POP POP JUMP JUMPDEST PUSH2 0x10E4 DUP2 PUSH2 0xA6E JUMP JUMPDEST DUP3 MSTORE POP POP JUMP JUMPDEST PUSH0 PUSH1 0x40 DUP3 ADD SWAP1 POP DUP2 DUP2 SUB PUSH0 DUP4 ADD MSTORE PUSH2 0x1103 DUP2 DUP6 DUP8 PUSH2 0xC54 JUMP JUMPDEST SWAP1 POP PUSH2 0x1112 PUSH1 0x20 DUP4 ADD DUP5 PUSH2 0x10DB JUMP JUMPDEST SWAP5 SWAP4 POP POP POP POP JUMP INVALID LOG2 PUSH5 0x6970667358 0x22 SLT KECCAK256 EXTCODEHASH SWAP2 BLOBHASH PUSH1 0x6F PUSH29 0x91380991594B9E81DA904C3159FD64E92B6BA2D587198527A96064736F PUSH13 0x634300081D0033000000000000 "
				},
				"gasEstimates": {
					"creation": {
						"codeDepositCost": "886400",
						"executionCost": "920",
						"totalCost": "887320"
					},
					"external": {
						"deleteFile(string)": "infinite",
						"fileUpload(string)": "infinite",
						"getActiveFile(address)": "infinite"
					}
				},
				"methodIdentifiers": {
					"deleteFile(string)": "a9910054",
					"fileUpload(string)": "ca4a2192",
					"getActiveFile(address)": "8b22d0fd"
				}
			},
			"storageLayout": {
				"storage": [
					{
						"astId": 14,
						"contract": "CompressedHistoryLedger/CompressedHistoryLedger.sol:CompressedHistoryLedger",
						"label": "userFile",
						"offset": 0,
						"slot": "0",
						"type": "t_mapping(t_address,t_array(t_struct(fileRecord)8_storage)dyn_storage)"
					},
					{
						"astId": 20,
						"contract": "CompressedHistoryLedger/CompressedHistoryLedger.sol:CompressedHistoryLedger",
						"label": "hashUploaded",
						"offset": 0,
						"slot": "1",
						"type": "t_mapping(t_address,t_mapping(t_string_memory_ptr,t_bool))"
					}
				],
				"types": {
					"t_address": {
						"encoding": "inplace",
						"label": "address",
						"numberOfBytes": "20"
					},
					"t_array(t_struct(fileRecord)8_storage)dyn_storage": {
						"base": "t_struct(fileRecord)8_storage",
						"encoding": "dynamic_array",
						"label": "struct CompressedHistoryLedger.fileRecord[]",
						"numberOfBytes": "32"
					},
					"t_bool": {
						"encoding": "inplace",
						"label": "bool",
						"numberOfBytes": "1"
					},
					"t_mapping(t_address,t_array(t_struct(fileRecord)8_storage)dyn_storage)": {
						"encoding": "mapping",
						"key": "t_address",
						"label": "mapping(address => struct CompressedHistoryLedger.fileRecord[])",
						"numberOfBytes": "32",
						"value": "t_array(t_struct(fileRecord)8_storage)dyn_storage"
					},
					"t_mapping(t_address,t_mapping(t_string_memory_ptr,t_bool))": {
						"encoding": "mapping",
						"key": "t_address",
						"label": "mapping(address => mapping(string => bool))",
						"numberOfBytes": "32",
						"value": "t_mapping(t_string_memory_ptr,t_bool)"
					},
					"t_mapping(t_string_memory_ptr,t_bool)": {
						"encoding": "mapping",
						"key": "t_string_memory_ptr",
						"label": "mapping(string => bool)",
						"numberOfBytes": "32",
						"value": "t_bool"
					},
					"t_string_memory_ptr": {
						"encoding": "bytes",
						"label": "string",
						"numberOfBytes": "32"
					},
					"t_string_storage": {
						"encoding": "bytes",
						"label": "string",
						"numberOfBytes": "32"
					},
					"t_struct(fileRecord)8_storage": {
						"encoding": "inplace",
						"label": "struct CompressedHistoryLedger.fileRecord",
						"members": [
							{
								"astId": 3,
								"contract": "CompressedHistoryLedger/CompressedHistoryLedger.sol:CompressedHistoryLedger",
								"label": "fileHash",
								"offset": 0,
								"slot": "0",
								"type": "t_string_storage"
							},
							{
								"astId": 5,
								"contract": "CompressedHistoryLedger/CompressedHistoryLedger.sol:CompressedHistoryLedger",
								"label": "timeStamp",
								"offset": 0,
								"slot": "1",
								"type": "t_uint256"
							},
							{
								"astId": 7,
								"contract": "CompressedHistoryLedger/CompressedHistoryLedger.sol:CompressedHistoryLedger",
								"label": "isActive",
								"offset": 0,
								"slot": "2",
								"type": "t_bool"
							}
						],
						"numberOfBytes": "96"
					},
					"t_uint256": {
						"encoding": "inplace",
						"label": "uint256",
						"numberOfBytes": "32"
					}
				}
			},
			"userdoc": {
				"kind": "user",
				"methods": {},
				"version": 1
			}
		}
	}
}