{
	"interface/TokenWithEvents.sol": {
		"EventListener": {
			"abi": [
				{
					"anonymous": false,
					"inputs": [
						{
							"indexed": false,
							"internalType": "address",
							"name": "from",
							"type": "address"
						},
						{
							"indexed": false,
							"internalType": "address",
							"name": "to",
							"type": "address"
						},
						{
							"indexed": false,
							"internalType": "uint256",
							"name": "amount",
							"type": "uint256"
						},
						{
							"indexed": false,
							"internalType": "uint256",
							"name": "timestamp",
							"type": "uint256"
						}
					],
					"name": "TransferMade",
					"type": "event"
				},
				{
					"inputs": [
						{
							"internalType": "address",
							"name": "tokenAddress",
							"type": "address"
						},
						{
							"internalType": "address",
							"name": "to",
							"type": "address"
						},
						{
							"internalType": "uint256",
							"name": "amount",
							"type": "uint256"
						}
					],
					"name": "makeTransfer",
					"outputs": [],
					"stateMutability": "nonpayable",
					"type": "function"
				},
				{
					"inputs": [
						{
							"internalType": "uint256",
							"name": "",
							"type": "uint256"
						}
					],
					"name": "transfers",
					"outputs": [
						{
							"internalType": "address",
							"name": "from",
							"type": "address"
						},
						{
							"internalType": "address",
							"name": "to",
							"type": "address"
						},
						{
							"internalType": "uint256",
							"name": "amount",
							"type": "uint256"
						},
						{
							"internalType": "uint256",
							"name": "timestamp",
							"type": "uint256"
						}
					],
					"stateMutability": "view",
					"type": "function"
				}
			],
			"devdoc": {
				"kind": "dev",
				"methods": {},
				"version": 1
			},
			"evm": {
				"assembly": "    /* \"interface/TokenWithEvents.sol\":247:997  contract EventListener{... */\n  mstore(0x40, 0x80)\n  callvalue\n  dup1\n  iszero\n  tag_1\n  jumpi\n  0x00\n  dup1\n  revert\ntag_1:\n  pop\n  dataSize(sub_0)\n  dup1\n  dataOffset(sub_0)\n  0x00\n  codecopy\n  0x00\n  return\nstop\n\nsub_0: assembly {\n        /* \"interface/TokenWithEvents.sol\":247:997  contract EventListener{... */\n      mstore(0x40, 0x80)\n      callvalue\n      dup1\n      iszero\n      tag_1\n      jumpi\n      0x00\n      dup1\n      revert\n    tag_1:\n      pop\n      jumpi(tag_2, lt(calldatasize, 0x04))\n      shr(0xe0, calldataload(0x00))\n      dup1\n      0x9377d711\n      eq\n      tag_3\n      jumpi\n      dup1\n      0xa6e49154\n      eq\n      tag_4\n      jumpi\n    tag_2:\n      0x00\n      dup1\n      revert\n        /* \"interface/TokenWithEvents.sol\":404:431  Transfer[] public transfers */\n    tag_3:\n      tag_5\n      0x04\n      dup1\n      calldatasize\n      sub\n      dup2\n      add\n      swap1\n      tag_6\n      swap2\n      swap1\n      tag_7\n      jump\t// in\n    tag_6:\n      tag_8\n      jump\t// in\n    tag_5:\n      mload(0x40)\n      tag_9\n      swap5\n      swap4\n      swap3\n      swap2\n      swap1\n      tag_10\n      jump\t// in\n    tag_9:\n      mload(0x40)\n      dup1\n      swap2\n      sub\n      swap1\n      return\n        /* \"interface/TokenWithEvents.sol\":528:994  function makeTransfer(address tokenAddress, address to , uint256 amount) external {... */\n    tag_4:\n      tag_11\n      0x04\n      dup1\n      calldatasize\n      sub\n      dup2\n      add\n      swap1\n      tag_12\n      swap2\n      swap1\n      tag_13\n      jump\t// in\n    tag_12:\n      tag_14\n      jump\t// in\n    tag_11:\n      stop\n        /* \"interface/TokenWithEvents.sol\":404:431  Transfer[] public transfers */\n    tag_8:\n      0x00\n      dup2\n      dup2\n      sload\n      dup2\n      lt\n      tag_15\n      jumpi\n      0x00\n      dup1\n      revert\n    tag_15:\n      swap1\n      0x00\n      mstore\n      keccak256(0x00, 0x20)\n      swap1\n      0x04\n      mul\n      add\n      0x00\n      swap2\n      pop\n      swap1\n      pop\n      dup1\n      0x00\n      add\n      0x00\n      swap1\n      sload\n      swap1\n      0x0100\n      exp\n      swap1\n      div\n      0xffffffffffffffffffffffffffffffffffffffff\n      and\n      swap1\n      dup1\n      0x01\n      add\n      0x00\n      swap1\n      sload\n      swap1\n      0x0100\n      exp\n      swap1\n      div\n      0xffffffffffffffffffffffffffffffffffffffff\n      and\n      swap1\n      dup1\n      0x02\n      add\n      sload\n      swap1\n      dup1\n      0x03\n      add\n      sload\n      swap1\n      pop\n      dup5\n      jump\t// out\n        /* \"interface/TokenWithEvents.sol\":528:994  function makeTransfer(address tokenAddress, address to , uint256 amount) external {... */\n    tag_14:\n        /* \"interface/TokenWithEvents.sol\":621:643  ITokenWithEvents token */\n      0x00\n        /* \"interface/TokenWithEvents.sol\":663:675  tokenAddress */\n      dup4\n        /* \"interface/TokenWithEvents.sol\":621:676  ITokenWithEvents token = ITokenWithEvents(tokenAddress) */\n      swap1\n      pop\n        /* \"interface/TokenWithEvents.sol\":695:700  token */\n      dup1\n        /* \"interface/TokenWithEvents.sol\":695:709  token.transfer */\n      0xffffffffffffffffffffffffffffffffffffffff\n      and\n      0xa9059cbb\n        /* \"interface/TokenWithEvents.sol\":710:712  to */\n      dup5\n        /* \"interface/TokenWithEvents.sol\":714:720  amount */\n      dup5\n        /* \"interface/TokenWithEvents.sol\":695:721  token.transfer(to, amount) */\n      mload(0x40)\n      dup4\n      0xffffffff\n      and\n      0xe0\n      shl\n      dup2\n      mstore\n      0x04\n      add\n      tag_18\n      swap3\n      swap2\n      swap1\n      tag_19\n      jump\t// in\n    tag_18:\n      0x20\n      mload(0x40)\n      dup1\n      dup4\n      sub\n      dup2\n      0x00\n      dup8\n      gas\n      call\n      iszero\n      dup1\n      iszero\n      tag_21\n      jumpi\n      returndatasize\n      0x00\n      dup1\n      returndatacopy\n      revert(0x00, returndatasize)\n    tag_21:\n      pop\n      pop\n      pop\n      pop\n      mload(0x40)\n      returndatasize\n      not(0x1f)\n      0x1f\n      dup3\n      add\n      and\n      dup3\n      add\n      dup1\n      0x40\n      mstore\n      pop\n      dup2\n      add\n      swap1\n      tag_22\n      swap2\n      swap1\n      tag_23\n      jump\t// in\n    tag_22:\n        /* \"interface/TokenWithEvents.sol\":687:739  require(token.transfer(to, amount),\"Transfer Faild\") */\n      tag_24\n      jumpi\n      mload(0x40)\n      0x08c379a000000000000000000000000000000000000000000000000000000000\n      dup2\n      mstore\n      0x04\n      add\n      tag_25\n      swap1\n      tag_26\n      jump\t// in\n    tag_25:\n      mload(0x40)\n      dup1\n      swap2\n      sub\n      swap1\n      revert\n    tag_24:\n        /* \"interface/TokenWithEvents.sol\":787:796  transfers */\n      0x00\n        /* \"interface/TokenWithEvents.sol\":802:914  Transfer(... */\n      mload(0x40)\n      dup1\n      0x80\n      add\n      0x40\n      mstore\n      dup1\n        /* \"interface/TokenWithEvents.sol\":825:835  msg.sender */\n      caller\n        /* \"interface/TokenWithEvents.sol\":802:914  Transfer(... */\n      0xffffffffffffffffffffffffffffffffffffffff\n      and\n      dup2\n      mstore\n      0x20\n      add\n        /* \"interface/TokenWithEvents.sol\":850:852  to */\n      dup6\n        /* \"interface/TokenWithEvents.sol\":802:914  Transfer(... */\n      0xffffffffffffffffffffffffffffffffffffffff\n      and\n      dup2\n      mstore\n      0x20\n      add\n        /* \"interface/TokenWithEvents.sol\":867:873  amount */\n      dup5\n        /* \"interface/TokenWithEvents.sol\":802:914  Transfer(... */\n      dup2\n      mstore\n      0x20\n      add\n        /* \"interface/TokenWithEvents.sol\":888:903  block.timestamp */\n      timestamp\n        /* \"interface/TokenWithEvents.sol\":802:914  Transfer(... */\n      dup2\n      mstore\n      pop\n        /* \"interface/TokenWithEvents.sol\":787:915  transfers.push(Transfer(... */\n      swap1\n      dup1\n      0x01\n      dup2\n      sload\n      add\n      dup1\n      dup3\n      sstore\n      dup1\n      swap2\n      pop\n      pop\n      0x01\n      swap1\n      sub\n      swap1\n      0x00\n      mstore\n      keccak256(0x00, 0x20)\n      swap1\n      0x04\n      mul\n      add\n      0x00\n      swap1\n      swap2\n      swap1\n      swap2\n      swap1\n      swap2\n      pop\n      0x00\n      dup3\n      add\n      mload\n      dup2\n      0x00\n      add\n      exp(0x0100, 0x00)\n      dup2\n      sload\n      dup2\n      0xffffffffffffffffffffffffffffffffffffffff\n      mul\n      not\n      and\n      swap1\n      dup4\n      0xffffffffffffffffffffffffffffffffffffffff\n      and\n      mul\n      or\n      swap1\n      sstore\n      pop\n      0x20\n      dup3\n      add\n      mload\n      dup2\n      0x01\n      add\n      exp(0x0100, 0x00)\n      dup2\n      sload\n      dup2\n      0xffffffffffffffffffffffffffffffffffffffff\n      mul\n      not\n      and\n      swap1\n      dup4\n      0xffffffffffffffffffffffffffffffffffffffff\n      and\n      mul\n      or\n      swap1\n      sstore\n      pop\n      0x40\n      dup3\n      add\n      mload\n      dup2\n      0x02\n      add\n      sstore\n      0x60\n      dup3\n      add\n      mload\n      dup2\n      0x03\n      add\n      sstore\n      pop\n      pop\n        /* \"interface/TokenWithEvents.sol\":933:986  TransferMade(msg.sender, to, amount, block.timestamp) */\n      0xf53dd3be3bceee510e25e5357bab0a7d8a4ba03044a6e6bd626643a6aeeb502a\n        /* \"interface/TokenWithEvents.sol\":946:956  msg.sender */\n      caller\n        /* \"interface/TokenWithEvents.sol\":958:960  to */\n      dup5\n        /* \"interface/TokenWithEvents.sol\":962:968  amount */\n      dup5\n        /* \"interface/TokenWithEvents.sol\":970:985  block.timestamp */\n      timestamp\n        /* \"interface/TokenWithEvents.sol\":933:986  TransferMade(msg.sender, to, amount, block.timestamp) */\n      mload(0x40)\n      tag_28\n      swap5\n      swap4\n      swap3\n      swap2\n      swap1\n      tag_10\n      jump\t// in\n    tag_28:\n      mload(0x40)\n      dup1\n      swap2\n      sub\n      swap1\n      log1\n        /* \"interface/TokenWithEvents.sol\":610:994  {... */\n      pop\n        /* \"interface/TokenWithEvents.sol\":528:994  function makeTransfer(address tokenAddress, address to , uint256 amount) external {... */\n      pop\n      pop\n      pop\n      jump\t// out\n        /* \"#utility.yul\":88:205   */\n    tag_30:\n        /* \"#utility.yul\":197:198   */\n      0x00\n        /* \"#utility.yul\":194:195   */\n      dup1\n        /* \"#utility.yul\":187:199   */\n      revert\n        /* \"#utility.yul\":334:411   */\n    tag_32:\n        /* \"#utility.yul\":371:378   */\n      0x00\n        /* \"#utility.yul\":400:405   */\n      dup2\n        /* \"#utility.yul\":389:405   */\n      swap1\n      pop\n        /* \"#utility.yul\":334:411   */\n      swap2\n      swap1\n      pop\n      jump\t// out\n        /* \"#utility.yul\":417:539   */\n    tag_33:\n        /* \"#utility.yul\":490:514   */\n      tag_53\n        /* \"#utility.yul\":508:513   */\n      dup2\n        /* \"#utility.yul\":490:514   */\n      tag_32\n      jump\t// in\n    tag_53:\n        /* \"#utility.yul\":483:488   */\n      dup2\n        /* \"#utility.yul\":480:515   */\n      eq\n        /* \"#utility.yul\":470:533   */\n      tag_54\n      jumpi\n        /* \"#utility.yul\":529:530   */\n      0x00\n        /* \"#utility.yul\":526:527   */\n      dup1\n        /* \"#utility.yul\":519:531   */\n      revert\n        /* \"#utility.yul\":470:533   */\n    tag_54:\n        /* \"#utility.yul\":417:539   */\n      pop\n      jump\t// out\n        /* \"#utility.yul\":545:684   */\n    tag_34:\n        /* \"#utility.yul\":591:596   */\n      0x00\n        /* \"#utility.yul\":629:635   */\n      dup2\n        /* \"#utility.yul\":616:636   */\n      calldataload\n        /* \"#utility.yul\":607:636   */\n      swap1\n      pop\n        /* \"#utility.yul\":645:678   */\n      tag_56\n        /* \"#utility.yul\":672:677   */\n      dup2\n        /* \"#utility.yul\":645:678   */\n      tag_33\n      jump\t// in\n    tag_56:\n        /* \"#utility.yul\":545:684   */\n      swap3\n      swap2\n      pop\n      pop\n      jump\t// out\n        /* \"#utility.yul\":690:1019   */\n    tag_7:\n        /* \"#utility.yul\":749:755   */\n      0x00\n        /* \"#utility.yul\":798:800   */\n      0x20\n        /* \"#utility.yul\":786:795   */\n      dup3\n        /* \"#utility.yul\":777:784   */\n      dup5\n        /* \"#utility.yul\":773:796   */\n      sub\n        /* \"#utility.yul\":769:801   */\n      slt\n        /* \"#utility.yul\":766:885   */\n      iszero\n      tag_58\n      jumpi\n        /* \"#utility.yul\":804:883   */\n      tag_59\n      tag_30\n      jump\t// in\n    tag_59:\n        /* \"#utility.yul\":766:885   */\n    tag_58:\n        /* \"#utility.yul\":924:925   */\n      0x00\n        /* \"#utility.yul\":949:1002   */\n      tag_60\n        /* \"#utility.yul\":994:1001   */\n      dup5\n        /* \"#utility.yul\":985:991   */\n      dup3\n        /* \"#utility.yul\":974:983   */\n      dup6\n        /* \"#utility.yul\":970:992   */\n      add\n        /* \"#utility.yul\":949:1002   */\n      tag_34\n      jump\t// in\n    tag_60:\n        /* \"#utility.yul\":939:1002   */\n      swap2\n      pop\n        /* \"#utility.yul\":895:1012   */\n      pop\n        /* \"#utility.yul\":690:1019   */\n      swap3\n      swap2\n      pop\n      pop\n      jump\t// out\n        /* \"#utility.yul\":1025:1151   */\n    tag_35:\n        /* \"#utility.yul\":1062:1069   */\n      0x00\n        /* \"#utility.yul\":1102:1144   */\n      0xffffffffffffffffffffffffffffffffffffffff\n        /* \"#utility.yul\":1095:1100   */\n      dup3\n        /* \"#utility.yul\":1091:1145   */\n      and\n        /* \"#utility.yul\":1080:1145   */\n      swap1\n      pop\n        /* \"#utility.yul\":1025:1151   */\n      swap2\n      swap1\n      pop\n      jump\t// out\n        /* \"#utility.yul\":1157:1253   */\n    tag_36:\n        /* \"#utility.yul\":1194:1201   */\n      0x00\n        /* \"#utility.yul\":1223:1247   */\n      tag_63\n        /* \"#utility.yul\":1241:1246   */\n      dup3\n        /* \"#utility.yul\":1223:1247   */\n      tag_35\n      jump\t// in\n    tag_63:\n        /* \"#utility.yul\":1212:1247   */\n      swap1\n      pop\n        /* \"#utility.yul\":1157:1253   */\n      swap2\n      swap1\n      pop\n      jump\t// out\n        /* \"#utility.yul\":1259:1377   */\n    tag_37:\n        /* \"#utility.yul\":1346:1370   */\n      tag_65\n        /* \"#utility.yul\":1364:1369   */\n      dup2\n        /* \"#utility.yul\":1346:1370   */\n      tag_36\n      jump\t// in\n    tag_65:\n        /* \"#utility.yul\":1341:1344   */\n      dup3\n        /* \"#utility.yul\":1334:1371   */\n      mstore\n        /* \"#utility.yul\":1259:1377   */\n      pop\n      pop\n      jump\t// out\n        /* \"#utility.yul\":1383:1501   */\n    tag_38:\n        /* \"#utility.yul\":1470:1494   */\n      tag_67\n        /* \"#utility.yul\":1488:1493   */\n      dup2\n        /* \"#utility.yul\":1470:1494   */\n      tag_32\n      jump\t// in\n    tag_67:\n        /* \"#utility.yul\":1465:1468   */\n      dup3\n        /* \"#utility.yul\":1458:1495   */\n      mstore\n        /* \"#utility.yul\":1383:1501   */\n      pop\n      pop\n      jump\t// out\n        /* \"#utility.yul\":1507:2060   */\n    tag_10:\n        /* \"#utility.yul\":1684:1688   */\n      0x00\n        /* \"#utility.yul\":1722:1725   */\n      0x80\n        /* \"#utility.yul\":1711:1720   */\n      dup3\n        /* \"#utility.yul\":1707:1726   */\n      add\n        /* \"#utility.yul\":1699:1726   */\n      swap1\n      pop\n        /* \"#utility.yul\":1736:1807   */\n      tag_69\n        /* \"#utility.yul\":1804:1805   */\n      0x00\n        /* \"#utility.yul\":1793:1802   */\n      dup4\n        /* \"#utility.yul\":1789:1806   */\n      add\n        /* \"#utility.yul\":1780:1786   */\n      dup8\n        /* \"#utility.yul\":1736:1807   */\n      tag_37\n      jump\t// in\n    tag_69:\n        /* \"#utility.yul\":1817:1889   */\n      tag_70\n        /* \"#utility.yul\":1885:1887   */\n      0x20\n        /* \"#utility.yul\":1874:1883   */\n      dup4\n        /* \"#utility.yul\":1870:1888   */\n      add\n        /* \"#utility.yul\":1861:1867   */\n      dup7\n        /* \"#utility.yul\":1817:1889   */\n      tag_37\n      jump\t// in\n    tag_70:\n        /* \"#utility.yul\":1899:1971   */\n      tag_71\n        /* \"#utility.yul\":1967:1969   */\n      0x40\n        /* \"#utility.yul\":1956:1965   */\n      dup4\n        /* \"#utility.yul\":1952:1970   */\n      add\n        /* \"#utility.yul\":1943:1949   */\n      dup6\n        /* \"#utility.yul\":1899:1971   */\n      tag_38\n      jump\t// in\n    tag_71:\n        /* \"#utility.yul\":1981:2053   */\n      tag_72\n        /* \"#utility.yul\":2049:2051   */\n      0x60\n        /* \"#utility.yul\":2038:2047   */\n      dup4\n        /* \"#utility.yul\":2034:2052   */\n      add\n        /* \"#utility.yul\":2025:2031   */\n      dup5\n        /* \"#utility.yul\":1981:2053   */\n      tag_38\n      jump\t// in\n    tag_72:\n        /* \"#utility.yul\":1507:2060   */\n      swap6\n      swap5\n      pop\n      pop\n      pop\n      pop\n      pop\n      jump\t// out\n        /* \"#utility.yul\":2066:2188   */\n    tag_39:\n        /* \"#utility.yul\":2139:2163   */\n      tag_74\n        /* \"#utility.yul\":2157:2162   */\n      dup2\n        /* \"#utility.yul\":2139:2163   */\n      tag_36\n      jump\t// in\n    tag_74:\n        /* \"#utility.yul\":2132:2137   */\n      dup2\n        /* \"#utility.yul\":2129:2164   */\n      eq\n        /* \"#utility.yul\":2119:2182   */\n      tag_75\n      jumpi\n        /* \"#utility.yul\":2178:2179   */\n      0x00\n        /* \"#utility.yul\":2175:2176   */\n      dup1\n        /* \"#utility.yul\":2168:2180   */\n      revert\n        /* \"#utility.yul\":2119:2182   */\n    tag_75:\n        /* \"#utility.yul\":2066:2188   */\n      pop\n      jump\t// out\n        /* \"#utility.yul\":2194:2333   */\n    tag_40:\n        /* \"#utility.yul\":2240:2245   */\n      0x00\n        /* \"#utility.yul\":2278:2284   */\n      dup2\n        /* \"#utility.yul\":2265:2285   */\n      calldataload\n        /* \"#utility.yul\":2256:2285   */\n      swap1\n      pop\n        /* \"#utility.yul\":2294:2327   */\n      tag_77\n        /* \"#utility.yul\":2321:2326   */\n      dup2\n        /* \"#utility.yul\":2294:2327   */\n      tag_39\n      jump\t// in\n    tag_77:\n        /* \"#utility.yul\":2194:2333   */\n      swap3\n      swap2\n      pop\n      pop\n      jump\t// out\n        /* \"#utility.yul\":2339:2958   */\n    tag_13:\n        /* \"#utility.yul\":2416:2422   */\n      0x00\n        /* \"#utility.yul\":2424:2430   */\n      dup1\n        /* \"#utility.yul\":2432:2438   */\n      0x00\n        /* \"#utility.yul\":2481:2483   */\n      0x60\n        /* \"#utility.yul\":2469:2478   */\n      dup5\n        /* \"#utility.yul\":2460:2467   */\n      dup7\n        /* \"#utility.yul\":2456:2479   */\n      sub\n        /* \"#utility.yul\":2452:2484   */\n      slt\n        /* \"#utility.yul\":2449:2568   */\n      iszero\n      tag_79\n      jumpi\n        /* \"#utility.yul\":2487:2566   */\n      tag_80\n      tag_30\n      jump\t// in\n    tag_80:\n        /* \"#utility.yul\":2449:2568   */\n    tag_79:\n        /* \"#utility.yul\":2607:2608   */\n      0x00\n        /* \"#utility.yul\":2632:2685   */\n      tag_81\n        /* \"#utility.yul\":2677:2684   */\n      dup7\n        /* \"#utility.yul\":2668:2674   */\n      dup3\n        /* \"#utility.yul\":2657:2666   */\n      dup8\n        /* \"#utility.yul\":2653:2675   */\n      add\n        /* \"#utility.yul\":2632:2685   */\n      tag_40\n      jump\t// in\n    tag_81:\n        /* \"#utility.yul\":2622:2685   */\n      swap4\n      pop\n        /* \"#utility.yul\":2578:2695   */\n      pop\n        /* \"#utility.yul\":2734:2736   */\n      0x20\n        /* \"#utility.yul\":2760:2813   */\n      tag_82\n        /* \"#utility.yul\":2805:2812   */\n      dup7\n        /* \"#utility.yul\":2796:2802   */\n      dup3\n        /* \"#utility.yul\":2785:2794   */\n      dup8\n        /* \"#utility.yul\":2781:2803   */\n      add\n        /* \"#utility.yul\":2760:2813   */\n      tag_40\n      jump\t// in\n    tag_82:\n        /* \"#utility.yul\":2750:2813   */\n      swap3\n      pop\n        /* \"#utility.yul\":2705:2823   */\n      pop\n        /* \"#utility.yul\":2862:2864   */\n      0x40\n        /* \"#utility.yul\":2888:2941   */\n      tag_83\n        /* \"#utility.yul\":2933:2940   */\n      dup7\n        /* \"#utility.yul\":2924:2930   */\n      dup3\n        /* \"#utility.yul\":2913:2922   */\n      dup8\n        /* \"#utility.yul\":2909:2931   */\n      add\n        /* \"#utility.yul\":2888:2941   */\n      tag_34\n      jump\t// in\n    tag_83:\n        /* \"#utility.yul\":2878:2941   */\n      swap2\n      pop\n        /* \"#utility.yul\":2833:2951   */\n      pop\n        /* \"#utility.yul\":2339:2958   */\n      swap3\n      pop\n      swap3\n      pop\n      swap3\n      jump\t// out\n        /* \"#utility.yul\":2964:3296   */\n    tag_19:\n        /* \"#utility.yul\":3085:3089   */\n      0x00\n        /* \"#utility.yul\":3123:3125   */\n      0x40\n        /* \"#utility.yul\":3112:3121   */\n      dup3\n        /* \"#utility.yul\":3108:3126   */\n      add\n        /* \"#utility.yul\":3100:3126   */\n      swap1\n      pop\n        /* \"#utility.yul\":3136:3207   */\n      tag_85\n        /* \"#utility.yul\":3204:3205   */\n      0x00\n        /* \"#utility.yul\":3193:3202   */\n      dup4\n        /* \"#utility.yul\":3189:3206   */\n      add\n        /* \"#utility.yul\":3180:3186   */\n      dup6\n        /* \"#utility.yul\":3136:3207   */\n      tag_37\n      jump\t// in\n    tag_85:\n        /* \"#utility.yul\":3217:3289   */\n      tag_86\n        /* \"#utility.yul\":3285:3287   */\n      0x20\n        /* \"#utility.yul\":3274:3283   */\n      dup4\n        /* \"#utility.yul\":3270:3288   */\n      add\n        /* \"#utility.yul\":3261:3267   */\n      dup5\n        /* \"#utility.yul\":3217:3289   */\n      tag_38\n      jump\t// in\n    tag_86:\n        /* \"#utility.yul\":2964:3296   */\n      swap4\n      swap3\n      pop\n      pop\n      pop\n      jump\t// out\n        /* \"#utility.yul\":3302:3392   */\n    tag_41:\n        /* \"#utility.yul\":3336:3343   */\n      0x00\n        /* \"#utility.yul\":3379:3384   */\n      dup2\n        /* \"#utility.yul\":3372:3385   */\n      iszero\n        /* \"#utility.yul\":3365:3386   */\n      iszero\n        /* \"#utility.yul\":3354:3386   */\n      swap1\n      pop\n        /* \"#utility.yul\":3302:3392   */\n      swap2\n      swap1\n      pop\n      jump\t// out\n        /* \"#utility.yul\":3398:3514   */\n    tag_42:\n        /* \"#utility.yul\":3468:3489   */\n      tag_89\n        /* \"#utility.yul\":3483:3488   */\n      dup2\n        /* \"#utility.yul\":3468:3489   */\n      tag_41\n      jump\t// in\n    tag_89:\n        /* \"#utility.yul\":3461:3466   */\n      dup2\n        /* \"#utility.yul\":3458:3490   */\n      eq\n        /* \"#utility.yul\":3448:3508   */\n      tag_90\n      jumpi\n        /* \"#utility.yul\":3504:3505   */\n      0x00\n        /* \"#utility.yul\":3501:3502   */\n      dup1\n        /* \"#utility.yul\":3494:3506   */\n      revert\n        /* \"#utility.yul\":3448:3508   */\n    tag_90:\n        /* \"#utility.yul\":3398:3514   */\n      pop\n      jump\t// out\n        /* \"#utility.yul\":3520:3657   */\n    tag_43:\n        /* \"#utility.yul\":3574:3579   */\n      0x00\n        /* \"#utility.yul\":3605:3611   */\n      dup2\n        /* \"#utility.yul\":3599:3612   */\n      mload\n        /* \"#utility.yul\":3590:3612   */\n      swap1\n      pop\n        /* \"#utility.yul\":3621:3651   */\n      tag_92\n        /* \"#utility.yul\":3645:3650   */\n      dup2\n        /* \"#utility.yul\":3621:3651   */\n      tag_42\n      jump\t// in\n    tag_92:\n        /* \"#utility.yul\":3520:3657   */\n      swap3\n      swap2\n      pop\n      pop\n      jump\t// out\n        /* \"#utility.yul\":3663:4008   */\n    tag_23:\n        /* \"#utility.yul\":3730:3736   */\n      0x00\n        /* \"#utility.yul\":3779:3781   */\n      0x20\n        /* \"#utility.yul\":3767:3776   */\n      dup3\n        /* \"#utility.yul\":3758:3765   */\n      dup5\n        /* \"#utility.yul\":3754:3777   */\n      sub\n        /* \"#utility.yul\":3750:3782   */\n      slt\n        /* \"#utility.yul\":3747:3866   */\n      iszero\n      tag_94\n      jumpi\n        /* \"#utility.yul\":3785:3864   */\n      tag_95\n      tag_30\n      jump\t// in\n    tag_95:\n        /* \"#utility.yul\":3747:3866   */\n    tag_94:\n        /* \"#utility.yul\":3905:3906   */\n      0x00\n        /* \"#utility.yul\":3930:3991   */\n      tag_96\n        /* \"#utility.yul\":3983:3990   */\n      dup5\n        /* \"#utility.yul\":3974:3980   */\n      dup3\n        /* \"#utility.yul\":3963:3972   */\n      dup6\n        /* \"#utility.yul\":3959:3981   */\n      add\n        /* \"#utility.yul\":3930:3991   */\n      tag_43\n      jump\t// in\n    tag_96:\n        /* \"#utility.yul\":3920:3991   */\n      swap2\n      pop\n        /* \"#utility.yul\":3876:4001   */\n      pop\n        /* \"#utility.yul\":3663:4008   */\n      swap3\n      swap2\n      pop\n      pop\n      jump\t// out\n        /* \"#utility.yul\":4014:4183   */\n    tag_44:\n        /* \"#utility.yul\":4098:4109   */\n      0x00\n        /* \"#utility.yul\":4132:4138   */\n      dup3\n        /* \"#utility.yul\":4127:4130   */\n      dup3\n        /* \"#utility.yul\":4120:4139   */\n      mstore\n        /* \"#utility.yul\":4172:4176   */\n      0x20\n        /* \"#utility.yul\":4167:4170   */\n      dup3\n        /* \"#utility.yul\":4163:4177   */\n      add\n        /* \"#utility.yul\":4148:4177   */\n      swap1\n      pop\n        /* \"#utility.yul\":4014:4183   */\n      swap3\n      swap2\n      pop\n      pop\n      jump\t// out\n        /* \"#utility.yul\":4189:4353   */\n    tag_45:\n        /* \"#utility.yul\":4329:4345   */\n      0x5472616e73666572204661696c64000000000000000000000000000000000000\n        /* \"#utility.yul\":4325:4326   */\n      0x00\n        /* \"#utility.yul\":4317:4323   */\n      dup3\n        /* \"#utility.yul\":4313:4327   */\n      add\n        /* \"#utility.yul\":4306:4346   */\n      mstore\n        /* \"#utility.yul\":4189:4353   */\n      pop\n      jump\t// out\n        /* \"#utility.yul\":4359:4725   */\n    tag_46:\n        /* \"#utility.yul\":4501:4504   */\n      0x00\n        /* \"#utility.yul\":4522:4589   */\n      tag_100\n        /* \"#utility.yul\":4586:4588   */\n      0x0e\n        /* \"#utility.yul\":4581:4584   */\n      dup4\n        /* \"#utility.yul\":4522:4589   */\n      tag_44\n      jump\t// in\n    tag_100:\n        /* \"#utility.yul\":4515:4589   */\n      swap2\n      pop\n        /* \"#utility.yul\":4598:4691   */\n      tag_101\n        /* \"#utility.yul\":4687:4690   */\n      dup3\n        /* \"#utility.yul\":4598:4691   */\n      tag_45\n      jump\t// in\n    tag_101:\n        /* \"#utility.yul\":4716:4718   */\n      0x20\n        /* \"#utility.yul\":4711:4714   */\n      dup3\n        /* \"#utility.yul\":4707:4719   */\n      add\n        /* \"#utility.yul\":4700:4719   */\n      swap1\n      pop\n        /* \"#utility.yul\":4359:4725   */\n      swap2\n      swap1\n      pop\n      jump\t// out\n        /* \"#utility.yul\":4731:5150   */\n    tag_26:\n        /* \"#utility.yul\":4897:4901   */\n      0x00\n        /* \"#utility.yul\":4935:4937   */\n      0x20\n        /* \"#utility.yul\":4924:4933   */\n      dup3\n        /* \"#utility.yul\":4920:4938   */\n      add\n        /* \"#utility.yul\":4912:4938   */\n      swap1\n      pop\n        /* \"#utility.yul\":4984:4993   */\n      dup2\n        /* \"#utility.yul\":4978:4982   */\n      dup2\n        /* \"#utility.yul\":4974:4994   */\n      sub\n        /* \"#utility.yul\":4970:4971   */\n      0x00\n        /* \"#utility.yul\":4959:4968   */\n      dup4\n        /* \"#utility.yul\":4955:4972   */\n      add\n        /* \"#utility.yul\":4948:4995   */\n      mstore\n        /* \"#utility.yul\":5012:5143   */\n      tag_103\n        /* \"#utility.yul\":5138:5142   */\n      dup2\n        /* \"#utility.yul\":5012:5143   */\n      tag_46\n      jump\t// in\n    tag_103:\n        /* \"#utility.yul\":5004:5143   */\n      swap1\n      pop\n        /* \"#utility.yul\":4731:5150   */\n      swap2\n      swap1\n      pop\n      jump\t// out\n\n    auxdata: 0xa26469706673582212204ee27a7982511dcd875468d73a80edb6ba9b5bb926a0d1ef5d9ec36e842bdb2964736f6c634300081a0033\n}\n",
				"bytecode": {
					"linkReferences": {},
					"object": "6080604052348015600e575f80fd5b506105b68061001c5f395ff3fe608060405234801561000f575f80fd5b5060043610610034575f3560e01c80639377d71114610038578063a6e491541461006b575b5f80fd5b610052600480360381019061004d919061034b565b610087565b60405161006294939291906103c4565b60405180910390f35b61008560048036038101906100809190610431565b6100ff565b005b5f8181548110610095575f80fd5b905f5260205f2090600402015f91509050805f015f9054906101000a900473ffffffffffffffffffffffffffffffffffffffff1690806001015f9054906101000a900473ffffffffffffffffffffffffffffffffffffffff16908060020154908060030154905084565b5f8390508073ffffffffffffffffffffffffffffffffffffffff1663a9059cbb84846040518363ffffffff1660e01b815260040161013e929190610481565b6020604051808303815f875af115801561015a573d5f803e3d5ffd5b505050506040513d601f19601f8201168201806040525081019061017e91906104dd565b6101bd576040517f08c379a00000000000000000000000000000000000000000000000000000000081526004016101b490610562565b60405180910390fd5b5f60405180608001604052803373ffffffffffffffffffffffffffffffffffffffff1681526020018573ffffffffffffffffffffffffffffffffffffffff16815260200184815260200142815250908060018154018082558091505060019003905f5260205f2090600402015f909190919091505f820151815f015f6101000a81548173ffffffffffffffffffffffffffffffffffffffff021916908373ffffffffffffffffffffffffffffffffffffffff1602179055506020820151816001015f6101000a81548173ffffffffffffffffffffffffffffffffffffffff021916908373ffffffffffffffffffffffffffffffffffffffff160217905550604082015181600201556060820151816003015550507ff53dd3be3bceee510e25e5357bab0a7d8a4ba03044a6e6bd626643a6aeeb502a3384844260405161030694939291906103c4565b60405180910390a150505050565b5f80fd5b5f819050919050565b61032a81610318565b8114610334575f80fd5b50565b5f8135905061034581610321565b92915050565b5f602082840312156103605761035f610314565b5b5f61036d84828501610337565b91505092915050565b5f73ffffffffffffffffffffffffffffffffffffffff82169050919050565b5f61039f82610376565b9050919050565b6103af81610395565b82525050565b6103be81610318565b82525050565b5f6080820190506103d75f8301876103a6565b6103e460208301866103a6565b6103f160408301856103b5565b6103fe60608301846103b5565b95945050505050565b61041081610395565b811461041a575f80fd5b50565b5f8135905061042b81610407565b92915050565b5f805f6060848603121561044857610447610314565b5b5f6104558682870161041d565b93505060206104668682870161041d565b925050604061047786828701610337565b9150509250925092565b5f6040820190506104945f8301856103a6565b6104a160208301846103b5565b9392505050565b5f8115159050919050565b6104bc816104a8565b81146104c6575f80fd5b50565b5f815190506104d7816104b3565b92915050565b5f602082840312156104f2576104f1610314565b5b5f6104ff848285016104c9565b91505092915050565b5f82825260208201905092915050565b7f5472616e73666572204661696c640000000000000000000000000000000000005f82015250565b5f61054c600e83610508565b915061055782610518565b602082019050919050565b5f6020820190508181035f83015261057981610540565b905091905056fea26469706673582212204ee27a7982511dcd875468d73a80edb6ba9b5bb926a0d1ef5d9ec36e842bdb2964736f6c634300081a0033",
					"opcodes": "PUSH1 0x80 PUSH1 0x40 MSTORE CALLVALUE DUP1 ISZERO PUSH1 0xE JUMPI PUSH0 DUP1 REVERT JUMPDEST POP PUSH2 0x5B6 DUP1 PUSH2 0x1C PUSH0 CODECOPY PUSH0 RETURN INVALID PUSH1 0x80 PUSH1 0x40 MSTORE CALLVALUE DUP1 ISZERO PUSH2 0xF JUMPI PUSH0 DUP1 REVERT JUMPDEST POP PUSH1 0x4 CALLDATASIZE LT PUSH2 0x34 JUMPI PUSH0 CALLDATALOAD PUSH1 0xE0 SHR DUP1 PUSH4 0x9377D711 EQ PUSH2 0x38 JUMPI DUP1 PUSH4 0xA6E49154 EQ PUSH2 0x6B JUMPI JUMPDEST PUSH0 DUP1 REVERT JUMPDEST PUSH2 0x52 PUSH1 0x4 DUP1 CALLDATASIZE SUB DUP2 ADD SWAP1 PUSH2 0x4D SWAP2 SWAP1 PUSH2 0x34B JUMP JUMPDEST PUSH2 0x87 JUMP JUMPDEST PUSH1 0x40 MLOAD PUSH2 0x62 SWAP5 SWAP4 SWAP3 SWAP2 SWAP1 PUSH2 0x3C4 JUMP JUMPDEST PUSH1 0x40 MLOAD DUP1 SWAP2 SUB SWAP1 RETURN JUMPDEST PUSH2 0x85 PUSH1 0x4 DUP1 CALLDATASIZE SUB DUP2 ADD SWAP1 PUSH2 0x80 SWAP2 SWAP1 PUSH2 0x431 JUMP JUMPDEST PUSH2 0xFF JUMP JUMPDEST STOP JUMPDEST PUSH0 DUP2 DUP2 SLOAD DUP2 LT PUSH2 0x95 JUMPI PUSH0 DUP1 REVERT JUMPDEST SWAP1 PUSH0 MSTORE PUSH1 0x20 PUSH0 KECCAK256 SWAP1 PUSH1 0x4 MUL ADD PUSH0 SWAP2 POP SWAP1 POP DUP1 PUSH0 ADD PUSH0 SWAP1 SLOAD SWAP1 PUSH2 0x100 EXP SWAP1 DIV PUSH20 0xFFFFFFFFFFFFFFFFFFFFFFFFFFFFFFFFFFFFFFFF AND SWAP1 DUP1 PUSH1 0x1 ADD PUSH0 SWAP1 SLOAD SWAP1 PUSH2 0x100 EXP SWAP1 DIV PUSH20 0xFFFFFFFFFFFFFFFFFFFFFFFFFFFFFFFFFFFFFFFF AND SWAP1 DUP1 PUSH1 0x2 ADD SLOAD SWAP1 DUP1 PUSH1 0x3 ADD SLOAD SWAP1 POP DUP5 JUMP JUMPDEST PUSH0 DUP4 SWAP1 POP DUP1 PUSH20 0xFFFFFFFFFFFFFFFFFFFFFFFFFFFFFFFFFFFFFFFF AND PUSH4 0xA9059CBB DUP5 DUP5 PUSH1 0x40 MLOAD DUP4 PUSH4 0xFFFFFFFF AND PUSH1 0xE0 SHL DUP2 MSTORE PUSH1 0x4 ADD PUSH2 0x13E SWAP3 SWAP2 SWAP1 PUSH2 0x481 JUMP JUMPDEST PUSH1 0x20 PUSH1 0x40 MLOAD DUP1 DUP4 SUB DUP2 PUSH0 DUP8 GAS CALL ISZERO DUP1 ISZERO PUSH2 0x15A JUMPI RETURNDATASIZE PUSH0 DUP1 RETURNDATACOPY RETURNDATASIZE PUSH0 REVERT JUMPDEST POP POP POP POP PUSH1 0x40 MLOAD RETURNDATASIZE PUSH1 0x1F NOT PUSH1 0x1F DUP3 ADD AND DUP3 ADD DUP1 PUSH1 0x40 MSTORE POP DUP2 ADD SWAP1 PUSH2 0x17E SWAP2 SWAP1 PUSH2 0x4DD JUMP JUMPDEST PUSH2 0x1BD JUMPI PUSH1 0x40 MLOAD PUSH32 0x8C379A000000000000000000000000000000000000000000000000000000000 DUP2 MSTORE PUSH1 0x4 ADD PUSH2 0x1B4 SWAP1 PUSH2 0x562 JUMP JUMPDEST PUSH1 0x40 MLOAD DUP1 SWAP2 SUB SWAP1 REVERT JUMPDEST PUSH0 PUSH1 0x40 MLOAD DUP1 PUSH1 0x80 ADD PUSH1 0x40 MSTORE DUP1 CALLER PUSH20 0xFFFFFFFFFFFFFFFFFFFFFFFFFFFFFFFFFFFFFFFF AND DUP2 MSTORE PUSH1 0x20 ADD DUP6 PUSH20 0xFFFFFFFFFFFFFFFFFFFFFFFFFFFFFFFFFFFFFFFF AND DUP2 MSTORE PUSH1 0x20 ADD DUP5 DUP2 MSTORE PUSH1 0x20 ADD TIMESTAMP DUP2 MSTORE POP SWAP1 DUP1 PUSH1 0x1 DUP2 SLOAD ADD DUP1 DUP3 SSTORE DUP1 SWAP2 POP POP PUSH1 0x1 SWAP1 SUB SWAP1 PUSH0 MSTORE PUSH1 0x20 PUSH0 KECCAK256 SWAP1 PUSH1 0x4 MUL ADD PUSH0 SWAP1 SWAP2 SWAP1 SWAP2 SWAP1 SWAP2 POP PUSH0 DUP3 ADD MLOAD DUP2 PUSH0 ADD PUSH0 PUSH2 0x100 EXP DUP2 SLOAD DUP2 PUSH20 0xFFFFFFFFFFFFFFFFFFFFFFFFFFFFFFFFFFFFFFFF MUL NOT AND SWAP1 DUP4 PUSH20 0xFFFFFFFFFFFFFFFFFFFFFFFFFFFFFFFFFFFFFFFF AND MUL OR SWAP1 SSTORE POP PUSH1 0x20 DUP3 ADD MLOAD DUP2 PUSH1 0x1 ADD PUSH0 PUSH2 0x100 EXP DUP2 SLOAD DUP2 PUSH20 0xFFFFFFFFFFFFFFFFFFFFFFFFFFFFFFFFFFFFFFFF MUL NOT AND SWAP1 DUP4 PUSH20 0xFFFFFFFFFFFFFFFFFFFFFFFFFFFFFFFFFFFFFFFF AND MUL OR SWAP1 SSTORE POP PUSH1 0x40 DUP3 ADD MLOAD DUP2 PUSH1 0x2 ADD SSTORE PUSH1 0x60 DUP3 ADD MLOAD DUP2 PUSH1 0x3 ADD SSTORE POP POP PUSH32 0xF53DD3BE3BCEEE510E25E5357BAB0A7D8A4BA03044A6E6BD626643A6AEEB502A CALLER DUP5 DUP5 TIMESTAMP PUSH1 0x40 MLOAD PUSH2 0x306 SWAP5 SWAP4 SWAP3 SWAP2 SWAP1 PUSH2 0x3C4 JUMP JUMPDEST PUSH1 0x40 MLOAD DUP1 SWAP2 SUB SWAP1 LOG1 POP POP POP POP JUMP JUMPDEST PUSH0 DUP1 REVERT JUMPDEST PUSH0 DUP2 SWAP1 POP SWAP2 SWAP1 POP JUMP JUMPDEST PUSH2 0x32A DUP2 PUSH2 0x318 JUMP JUMPDEST DUP2 EQ PUSH2 0x334 JUMPI PUSH0 DUP1 REVERT JUMPDEST POP JUMP JUMPDEST PUSH0 DUP2 CALLDATALOAD SWAP1 POP PUSH2 0x345 DUP2 PUSH2 0x321 JUMP JUMPDEST SWAP3 SWAP2 POP POP JUMP JUMPDEST PUSH0 PUSH1 0x20 DUP3 DUP5 SUB SLT ISZERO PUSH2 0x360 JUMPI PUSH2 0x35F PUSH2 0x314 JUMP JUMPDEST JUMPDEST PUSH0 PUSH2 0x36D DUP5 DUP3 DUP6 ADD PUSH2 0x337 JUMP JUMPDEST SWAP2 POP POP SWAP3 SWAP2 POP POP JUMP JUMPDEST PUSH0 PUSH20 0xFFFFFFFFFFFFFFFFFFFFFFFFFFFFFFFFFFFFFFFF DUP3 AND SWAP1 POP SWAP2 SWAP1 POP JUMP JUMPDEST PUSH0 PUSH2 0x39F DUP3 PUSH2 0x376 JUMP JUMPDEST SWAP1 POP SWAP2 SWAP1 POP JUMP JUMPDEST PUSH2 0x3AF DUP2 PUSH2 0x395 JUMP JUMPDEST DUP3 MSTORE POP POP JUMP JUMPDEST PUSH2 0x3BE DUP2 PUSH2 0x318 JUMP JUMPDEST DUP3 MSTORE POP POP JUMP JUMPDEST PUSH0 PUSH1 0x80 DUP3 ADD SWAP1 POP PUSH2 0x3D7 PUSH0 DUP4 ADD DUP8 PUSH2 0x3A6 JUMP JUMPDEST PUSH2 0x3E4 PUSH1 0x20 DUP4 ADD DUP7 PUSH2 0x3A6 JUMP JUMPDEST PUSH2 0x3F1 PUSH1 0x40 DUP4 ADD DUP6 PUSH2 0x3B5 JUMP JUMPDEST PUSH2 0x3FE PUSH1 0x60 DUP4 ADD DUP5 PUSH2 0x3B5 JUMP JUMPDEST SWAP6 SWAP5 POP POP POP POP POP JUMP JUMPDEST PUSH2 0x410 DUP2 PUSH2 0x395 JUMP JUMPDEST DUP2 EQ PUSH2 0x41A JUMPI PUSH0 DUP1 REVERT JUMPDEST POP JUMP JUMPDEST PUSH0 DUP2 CALLDATALOAD SWAP1 POP PUSH2 0x42B DUP2 PUSH2 0x407 JUMP JUMPDEST SWAP3 SWAP2 POP POP JUMP JUMPDEST PUSH0 DUP1 PUSH0 PUSH1 0x60 DUP5 DUP7 SUB SLT ISZERO PUSH2 0x448 JUMPI PUSH2 0x447 PUSH2 0x314 JUMP JUMPDEST JUMPDEST PUSH0 PUSH2 0x455 DUP7 DUP3 DUP8 ADD PUSH2 0x41D JUMP JUMPDEST SWAP4 POP POP PUSH1 0x20 PUSH2 0x466 DUP7 DUP3 DUP8 ADD PUSH2 0x41D JUMP JUMPDEST SWAP3 POP POP PUSH1 0x40 PUSH2 0x477 DUP7 DUP3 DUP8 ADD PUSH2 0x337 JUMP JUMPDEST SWAP2 POP POP SWAP3 POP SWAP3 POP SWAP3 JUMP JUMPDEST PUSH0 PUSH1 0x40 DUP3 ADD SWAP1 POP PUSH2 0x494 PUSH0 DUP4 ADD DUP6 PUSH2 0x3A6 JUMP JUMPDEST PUSH2 0x4A1 PUSH1 0x20 DUP4 ADD DUP5 PUSH2 0x3B5 JUMP JUMPDEST SWAP4 SWAP3 POP POP POP JUMP JUMPDEST PUSH0 DUP2 ISZERO ISZERO SWAP1 POP SWAP2 SWAP1 POP JUMP JUMPDEST PUSH2 0x4BC DUP2 PUSH2 0x4A8 JUMP JUMPDEST DUP2 EQ PUSH2 0x4C6 JUMPI PUSH0 DUP1 REVERT JUMPDEST POP JUMP JUMPDEST PUSH0 DUP2 MLOAD SWAP1 POP PUSH2 0x4D7 DUP2 PUSH2 0x4B3 JUMP JUMPDEST SWAP3 SWAP2 POP POP JUMP JUMPDEST PUSH0 PUSH1 0x20 DUP3 DUP5 SUB SLT ISZERO PUSH2 0x4F2 JUMPI PUSH2 0x4F1 PUSH2 0x314 JUMP JUMPDEST JUMPDEST PUSH0 PUSH2 0x4FF DUP5 DUP3 DUP6 ADD PUSH2 0x4C9 JUMP JUMPDEST SWAP2 POP POP SWAP3 SWAP2 POP POP JUMP JUMPDEST PUSH0 DUP3 DUP3 MSTORE PUSH1 0x20 DUP3 ADD SWAP1 POP SWAP3 SWAP2 POP POP JUMP JUMPDEST PUSH32 0x5472616E73666572204661696C64000000000000000000000000000000000000 PUSH0 DUP3 ADD MSTORE POP JUMP JUMPDEST PUSH0 PUSH2 0x54C PUSH1 0xE DUP4 PUSH2 0x508 JUMP JUMPDEST SWAP2 POP PUSH2 0x557 DUP3 PUSH2 0x518 JUMP JUMPDEST PUSH1 0x20 DUP3 ADD SWAP1 POP SWAP2 SWAP1 POP JUMP JUMPDEST PUSH0 PUSH1 0x20 DUP3 ADD SWAP1 POP DUP2 DUP2 SUB PUSH0 DUP4 ADD MSTORE PUSH2 0x579 DUP2 PUSH2 0x540 JUMP JUMPDEST SWAP1 POP SWAP2 SWAP1 POP JUMP INVALID LOG2 PUSH5 0x6970667358 0x22 SLT KECCAK256 0x4E 0xE2 PUSH27 0x7982511DCD875468D73A80EDB6BA9B5BB926A0D1EF5D9EC36E842B 0xDB 0x29 PUSH5 0x736F6C6343 STOP ADDMOD BYTE STOP CALLER "
				},
				"gasEstimates": {
					"creation": {
						"codeDepositCost": "292400",
						"executionCost": "329",
						"totalCost": "292729"
					},
					"external": {
						"makeTransfer(address,address,uint256)": "infinite",
						"transfers(uint256)": "infinite"
					}
				},
				"methodIdentifiers": {
					"makeTransfer(address,address,uint256)": "a6e49154",
					"transfers(uint256)": "9377d711"
				}
			},
			"storageLayout": {
				"storage": [
					{
						"astId": 32,
						"contract": "interface/TokenWithEvents.sol:EventListener",
						"label": "transfers",
						"offset": 0,
						"slot": "0",
						"type": "t_array(t_struct(Transfer)28_storage)dyn_storage"
					}
				],
				"types": {
					"t_address": {
						"encoding": "inplace",
						"label": "address",
						"numberOfBytes": "20"
					},
					"t_array(t_struct(Transfer)28_storage)dyn_storage": {
						"base": "t_struct(Transfer)28_storage",
						"encoding": "dynamic_array",
						"label": "struct EventListener.Transfer[]",
						"numberOfBytes": "32"
					},
					"t_struct(Transfer)28_storage": {
						"encoding": "inplace",
						"label": "struct EventListener.Transfer",
						"members": [
							{
								"astId": 21,
								"contract": "interface/TokenWithEvents.sol:EventListener",
								"label": "from",
								"offset": 0,
								"slot": "0",
								"type": "t_address"
							},
							{
								"astId": 23,
								"contract": "interface/TokenWithEvents.sol:EventListener",
								"label": "to",
								"offset": 0,
								"slot": "1",
								"type": "t_address"
							},
							{
								"astId": 25,
								"contract": "interface/TokenWithEvents.sol:EventListener",
								"label": "amount",
								"offset": 0,
								"slot": "2",
								"type": "t_uint256"
							},
							{
								"astId": 27,
								"contract": "interface/TokenWithEvents.sol:EventListener",
								"label": "timestamp",
								"offset": 0,
								"slot": "3",
								"type": "t_uint256"
							}
						],
						"numberOfBytes": "128"
					},
					"t_uint256": {
						"encoding": "inplace",
						"label": "uint256",
						"numberOfBytes": "32"
					}
				}
			},
			"userdoc": {
				"kind": "user",
				"methods": {},
				"version": 1
			}
		}
	}
}