{
	"interface/Interface.sol": {
		"TokenExchange": {
			"abi": [
				{
					"inputs": [
						{
							"internalType": "address",
							"name": "_token1",
							"type": "address"
						},
						{
							"internalType": "address",
							"name": "_token2",
							"type": "address"
						},
						{
							"internalType": "uint256",
							"name": "_rate",
							"type": "uint256"
						}
					],
					"stateMutability": "nonpayable",
					"type": "constructor"
				},
				{
					"inputs": [
						{
							"internalType": "uint256",
							"name": "amount",
							"type": "uint256"
						}
					],
					"name": "SwapToken",
					"outputs": [],
					"stateMutability": "nonpayable",
					"type": "function"
				},
				{
					"inputs": [],
					"name": "rate",
					"outputs": [
						{
							"internalType": "uint256",
							"name": "",
							"type": "uint256"
						}
					],
					"stateMutability": "view",
					"type": "function"
				},
				{
					"inputs": [],
					"name": "token1",
					"outputs": [
						{
							"internalType": "contract IToken",
							"name": "",
							"type": "address"
						}
					],
					"stateMutability": "view",
					"type": "function"
				},
				{
					"inputs": [],
					"name": "token2",
					"outputs": [
						{
							"internalType": "contract IToken",
							"name": "",
							"type": "address"
						}
					],
					"stateMutability": "view",
					"type": "function"
				}
			],
			"devdoc": {
				"kind": "dev",
				"methods": {},
				"version": 1
			},
			"evm": {
				"assembly": "    /* \"interface/Interface.sol\":1473:2064  contract TokenExchange{... */\n  mstore(0x40, 0x80)\n    /* \"interface/Interface.sol\":1577:1731  constructor(address _token1, address _token2, uint _rate){... */\n  callvalue\n  dup1\n  iszero\n  tag_1\n  jumpi\n  revert(0x00, 0x00)\ntag_1:\n  pop\n  mload(0x40)\n  sub(codesize, bytecodeSize)\n  dup1\n  bytecodeSize\n  dup4\n  codecopy\n  dup2\n  dup2\n  add\n  0x40\n  mstore\n  dup2\n  add\n  swap1\n  tag_2\n  swap2\n  swap1\n  tag_3\n  jump\t// in\ntag_2:\n    /* \"interface/Interface.sol\":1660:1667  _token1 */\n  dup3\n    /* \"interface/Interface.sol\":1644:1650  token1 */\n  0x00\n  0x00\n    /* \"interface/Interface.sol\":1644:1668  token1 = IToken(_token1) */\n  0x0100\n  exp\n  dup2\n  sload\n  dup2\n  0xffffffffffffffffffffffffffffffffffffffff\n  mul\n  not\n  and\n  swap1\n  dup4\n  0xffffffffffffffffffffffffffffffffffffffff\n  and\n  mul\n  or\n  swap1\n  sstore\n  pop\n    /* \"interface/Interface.sol\":1694:1701  _token2 */\n  dup2\n    /* \"interface/Interface.sol\":1678:1684  token2 */\n  0x01\n  0x00\n    /* \"interface/Interface.sol\":1678:1702  token2 = IToken(_token2) */\n  0x0100\n  exp\n  dup2\n  sload\n  dup2\n  0xffffffffffffffffffffffffffffffffffffffff\n  mul\n  not\n  and\n  swap1\n  dup4\n  0xffffffffffffffffffffffffffffffffffffffff\n  and\n  mul\n  or\n  swap1\n  sstore\n  pop\n    /* \"interface/Interface.sol\":1719:1724  _rate */\n  dup1\n    /* \"interface/Interface.sol\":1712:1716  rate */\n  0x02\n    /* \"interface/Interface.sol\":1712:1724  rate = _rate */\n  dup2\n  swap1\n  sstore\n  pop\n    /* \"interface/Interface.sol\":1577:1731  constructor(address _token1, address _token2, uint _rate){... */\n  pop\n  pop\n  pop\n    /* \"interface/Interface.sol\":1473:2064  contract TokenExchange{... */\n  jump(tag_6)\n    /* \"#utility.yul\":88:205   */\ntag_8:\n    /* \"#utility.yul\":197:198   */\n  0x00\n    /* \"#utility.yul\":194:195   */\n  0x00\n    /* \"#utility.yul\":187:199   */\n  revert\n    /* \"#utility.yul\":334:460   */\ntag_10:\n    /* \"#utility.yul\":371:378   */\n  0x00\n    /* \"#utility.yul\":411:453   */\n  0xffffffffffffffffffffffffffffffffffffffff\n    /* \"#utility.yul\":404:409   */\n  dup3\n    /* \"#utility.yul\":400:454   */\n  and\n    /* \"#utility.yul\":389:454   */\n  swap1\n  pop\n    /* \"#utility.yul\":334:460   */\n  swap2\n  swap1\n  pop\n  jump\t// out\n    /* \"#utility.yul\":466:562   */\ntag_11:\n    /* \"#utility.yul\":503:510   */\n  0x00\n    /* \"#utility.yul\":532:556   */\n  tag_23\n    /* \"#utility.yul\":550:555   */\n  dup3\n    /* \"#utility.yul\":532:556   */\n  tag_10\n  jump\t// in\ntag_23:\n    /* \"#utility.yul\":521:556   */\n  swap1\n  pop\n    /* \"#utility.yul\":466:562   */\n  swap2\n  swap1\n  pop\n  jump\t// out\n    /* \"#utility.yul\":568:690   */\ntag_12:\n    /* \"#utility.yul\":641:665   */\n  tag_25\n    /* \"#utility.yul\":659:664   */\n  dup2\n    /* \"#utility.yul\":641:665   */\n  tag_11\n  jump\t// in\ntag_25:\n    /* \"#utility.yul\":634:639   */\n  dup2\n    /* \"#utility.yul\":631:666   */\n  eq\n    /* \"#utility.yul\":621:684   */\n  tag_26\n  jumpi\n    /* \"#utility.yul\":680:681   */\n  0x00\n    /* \"#utility.yul\":677:678   */\n  0x00\n    /* \"#utility.yul\":670:682   */\n  revert\n    /* \"#utility.yul\":621:684   */\ntag_26:\n    /* \"#utility.yul\":568:690   */\n  pop\n  jump\t// out\n    /* \"#utility.yul\":696:839   */\ntag_13:\n    /* \"#utility.yul\":753:758   */\n  0x00\n    /* \"#utility.yul\":784:790   */\n  dup2\n    /* \"#utility.yul\":778:791   */\n  mload\n    /* \"#utility.yul\":769:791   */\n  swap1\n  pop\n    /* \"#utility.yul\":800:833   */\n  tag_28\n    /* \"#utility.yul\":827:832   */\n  dup2\n    /* \"#utility.yul\":800:833   */\n  tag_12\n  jump\t// in\ntag_28:\n    /* \"#utility.yul\":696:839   */\n  swap3\n  swap2\n  pop\n  pop\n  jump\t// out\n    /* \"#utility.yul\":845:922   */\ntag_14:\n    /* \"#utility.yul\":882:889   */\n  0x00\n    /* \"#utility.yul\":911:916   */\n  dup2\n    /* \"#utility.yul\":900:916   */\n  swap1\n  pop\n    /* \"#utility.yul\":845:922   */\n  swap2\n  swap1\n  pop\n  jump\t// out\n    /* \"#utility.yul\":928:1050   */\ntag_15:\n    /* \"#utility.yul\":1001:1025   */\n  tag_31\n    /* \"#utility.yul\":1019:1024   */\n  dup2\n    /* \"#utility.yul\":1001:1025   */\n  tag_14\n  jump\t// in\ntag_31:\n    /* \"#utility.yul\":994:999   */\n  dup2\n    /* \"#utility.yul\":991:1026   */\n  eq\n    /* \"#utility.yul\":981:1044   */\n  tag_32\n  jumpi\n    /* \"#utility.yul\":1040:1041   */\n  0x00\n    /* \"#utility.yul\":1037:1038   */\n  0x00\n    /* \"#utility.yul\":1030:1042   */\n  revert\n    /* \"#utility.yul\":981:1044   */\ntag_32:\n    /* \"#utility.yul\":928:1050   */\n  pop\n  jump\t// out\n    /* \"#utility.yul\":1056:1199   */\ntag_16:\n    /* \"#utility.yul\":1113:1118   */\n  0x00\n    /* \"#utility.yul\":1144:1150   */\n  dup2\n    /* \"#utility.yul\":1138:1151   */\n  mload\n    /* \"#utility.yul\":1129:1151   */\n  swap1\n  pop\n    /* \"#utility.yul\":1160:1193   */\n  tag_34\n    /* \"#utility.yul\":1187:1192   */\n  dup2\n    /* \"#utility.yul\":1160:1193   */\n  tag_15\n  jump\t// in\ntag_34:\n    /* \"#utility.yul\":1056:1199   */\n  swap3\n  swap2\n  pop\n  pop\n  jump\t// out\n    /* \"#utility.yul\":1205:1868   */\ntag_3:\n    /* \"#utility.yul\":1293:1299   */\n  0x00\n    /* \"#utility.yul\":1301:1307   */\n  0x00\n    /* \"#utility.yul\":1309:1315   */\n  0x00\n    /* \"#utility.yul\":1358:1360   */\n  0x60\n    /* \"#utility.yul\":1346:1355   */\n  dup5\n    /* \"#utility.yul\":1337:1344   */\n  dup7\n    /* \"#utility.yul\":1333:1356   */\n  sub\n    /* \"#utility.yul\":1329:1361   */\n  slt\n    /* \"#utility.yul\":1326:1445   */\n  iszero\n  tag_36\n  jumpi\n    /* \"#utility.yul\":1364:1443   */\n  tag_37\n  tag_8\n  jump\t// in\ntag_37:\n    /* \"#utility.yul\":1326:1445   */\ntag_36:\n    /* \"#utility.yul\":1484:1485   */\n  0x00\n    /* \"#utility.yul\":1509:1573   */\n  tag_38\n    /* \"#utility.yul\":1565:1572   */\n  dup7\n    /* \"#utility.yul\":1556:1562   */\n  dup3\n    /* \"#utility.yul\":1545:1554   */\n  dup8\n    /* \"#utility.yul\":1541:1563   */\n  add\n    /* \"#utility.yul\":1509:1573   */\n  tag_13\n  jump\t// in\ntag_38:\n    /* \"#utility.yul\":1499:1573   */\n  swap4\n  pop\n    /* \"#utility.yul\":1455:1583   */\n  pop\n    /* \"#utility.yul\":1622:1624   */\n  0x20\n    /* \"#utility.yul\":1648:1712   */\n  tag_39\n    /* \"#utility.yul\":1704:1711   */\n  dup7\n    /* \"#utility.yul\":1695:1701   */\n  dup3\n    /* \"#utility.yul\":1684:1693   */\n  dup8\n    /* \"#utility.yul\":1680:1702   */\n  add\n    /* \"#utility.yul\":1648:1712   */\n  tag_13\n  jump\t// in\ntag_39:\n    /* \"#utility.yul\":1638:1712   */\n  swap3\n  pop\n    /* \"#utility.yul\":1593:1722   */\n  pop\n    /* \"#utility.yul\":1761:1763   */\n  0x40\n    /* \"#utility.yul\":1787:1851   */\n  tag_40\n    /* \"#utility.yul\":1843:1850   */\n  dup7\n    /* \"#utility.yul\":1834:1840   */\n  dup3\n    /* \"#utility.yul\":1823:1832   */\n  dup8\n    /* \"#utility.yul\":1819:1841   */\n  add\n    /* \"#utility.yul\":1787:1851   */\n  tag_16\n  jump\t// in\ntag_40:\n    /* \"#utility.yul\":1777:1851   */\n  swap2\n  pop\n    /* \"#utility.yul\":1732:1861   */\n  pop\n    /* \"#utility.yul\":1205:1868   */\n  swap3\n  pop\n  swap3\n  pop\n  swap3\n  jump\t// out\n    /* \"interface/Interface.sol\":1473:2064  contract TokenExchange{... */\ntag_6:\n  dataSize(sub_0)\n  dup1\n  dataOffset(sub_0)\n  0x00\n  codecopy\n  0x00\n  return\nstop\n\nsub_0: assembly {\n        /* \"interface/Interface.sol\":1473:2064  contract TokenExchange{... */\n      mstore(0x40, 0x80)\n      callvalue\n      dup1\n      iszero\n      tag_1\n      jumpi\n      revert(0x00, 0x00)\n    tag_1:\n      pop\n      jumpi(tag_2, lt(calldatasize, 0x04))\n      shr(0xe0, calldataload(0x00))\n      dup1\n      0x25be124e\n      eq\n      tag_3\n      jumpi\n      dup1\n      0x2c4e722e\n      eq\n      tag_4\n      jumpi\n      dup1\n      0xb0e01b2e\n      eq\n      tag_5\n      jumpi\n      dup1\n      0xd21220a7\n      eq\n      tag_6\n      jumpi\n    tag_2:\n      revert(0x00, 0x00)\n        /* \"interface/Interface.sol\":1527:1547  IToken public token2 */\n    tag_3:\n      tag_7\n      tag_8\n      jump\t// in\n    tag_7:\n      mload(0x40)\n      tag_9\n      swap2\n      swap1\n      tag_10\n      jump\t// in\n    tag_9:\n      mload(0x40)\n      dup1\n      swap2\n      sub\n      swap1\n      return\n        /* \"interface/Interface.sol\":1554:1570  uint public rate */\n    tag_4:\n      tag_11\n      tag_12\n      jump\t// in\n    tag_11:\n      mload(0x40)\n      tag_13\n      swap2\n      swap1\n      tag_14\n      jump\t// in\n    tag_13:\n      mload(0x40)\n      dup1\n      swap2\n      sub\n      swap1\n      return\n        /* \"interface/Interface.sol\":1737:2062  function SwapToken(uint amount) external {... */\n    tag_5:\n      tag_15\n      0x04\n      dup1\n      calldatasize\n      sub\n      dup2\n      add\n      swap1\n      tag_16\n      swap2\n      swap1\n      tag_17\n      jump\t// in\n    tag_16:\n      tag_18\n      jump\t// in\n    tag_15:\n      stop\n        /* \"interface/Interface.sol\":1501:1521  IToken public token1 */\n    tag_6:\n      tag_19\n      tag_20\n      jump\t// in\n    tag_19:\n      mload(0x40)\n      tag_21\n      swap2\n      swap1\n      tag_10\n      jump\t// in\n    tag_21:\n      mload(0x40)\n      dup1\n      swap2\n      sub\n      swap1\n      return\n        /* \"interface/Interface.sol\":1527:1547  IToken public token2 */\n    tag_8:\n      0x01\n      0x00\n      swap1\n      sload\n      swap1\n      0x0100\n      exp\n      swap1\n      div\n      0xffffffffffffffffffffffffffffffffffffffff\n      and\n      dup2\n      jump\t// out\n        /* \"interface/Interface.sol\":1554:1570  uint public rate */\n    tag_12:\n      sload(0x02)\n      dup2\n      jump\t// out\n        /* \"interface/Interface.sol\":1737:2062  function SwapToken(uint amount) external {... */\n    tag_18:\n        /* \"interface/Interface.sol\":1829:1835  amount */\n      dup1\n        /* \"interface/Interface.sol\":1796:1802  token1 */\n      0x00\n      0x00\n      swap1\n      sload\n      swap1\n      0x0100\n      exp\n      swap1\n      div\n      0xffffffffffffffffffffffffffffffffffffffff\n      and\n        /* \"interface/Interface.sol\":1796:1813  token1.getBalance */\n      0xffffffffffffffffffffffffffffffffffffffff\n      and\n      0xf8b2cb4f\n        /* \"interface/Interface.sol\":1814:1824  msg.sender */\n      caller\n        /* \"interface/Interface.sol\":1796:1825  token1.getBalance(msg.sender) */\n      mload(0x40)\n      dup3\n      0xffffffff\n      and\n      0xe0\n      shl\n      dup2\n      mstore\n      0x04\n      add\n      tag_23\n      swap2\n      swap1\n      tag_24\n      jump\t// in\n    tag_23:\n      0x20\n      mload(0x40)\n      dup1\n      dup4\n      sub\n      dup2\n      dup7\n      gas\n      staticcall\n      iszero\n      dup1\n      iszero\n      tag_26\n      jumpi\n      returndatacopy(0x00, 0x00, returndatasize)\n      revert(0x00, returndatasize)\n    tag_26:\n      pop\n      pop\n      pop\n      pop\n      mload(0x40)\n      returndatasize\n      not(0x1f)\n      0x1f\n      dup3\n      add\n      and\n      dup3\n      add\n      dup1\n      0x40\n      mstore\n      pop\n      dup2\n      add\n      swap1\n      tag_27\n      swap2\n      swap1\n      tag_28\n      jump\t// in\n    tag_27:\n        /* \"interface/Interface.sol\":1796:1835  token1.getBalance(msg.sender) >= amount */\n      lt\n      iszero\n        /* \"interface/Interface.sol\":1788:1859  require(token1.getBalance(msg.sender) >= amount,\"Insufficient Balance\") */\n      tag_29\n      jumpi\n      mload(0x40)\n      0x08c379a000000000000000000000000000000000000000000000000000000000\n      dup2\n      mstore\n      0x04\n      add\n      tag_30\n      swap1\n      tag_31\n      jump\t// in\n    tag_30:\n      mload(0x40)\n      dup1\n      swap2\n      sub\n      swap1\n      revert\n    tag_29:\n        /* \"interface/Interface.sol\":1869:1886  uint token2Amount */\n      0x00\n        /* \"interface/Interface.sol\":1898:1902  rate */\n      sload(0x02)\n        /* \"interface/Interface.sol\":1889:1895  amount */\n      dup3\n        /* \"interface/Interface.sol\":1889:1902  amount * rate */\n      tag_32\n      swap2\n      swap1\n      tag_33\n      jump\t// in\n    tag_32:\n        /* \"interface/Interface.sol\":1869:1902  uint token2Amount = amount * rate */\n      swap1\n      pop\n        /* \"interface/Interface.sol\":1921:1927  token1 */\n      0x00\n      0x00\n      swap1\n      sload\n      swap1\n      0x0100\n      exp\n      swap1\n      div\n      0xffffffffffffffffffffffffffffffffffffffff\n      and\n        /* \"interface/Interface.sol\":1921:1936  token1.transfer */\n      0xffffffffffffffffffffffffffffffffffffffff\n      and\n      0xa9059cbb\n        /* \"interface/Interface.sol\":1945:1949  this */\n      address\n        /* \"interface/Interface.sol\":1952:1958  amount */\n      dup5\n        /* \"interface/Interface.sol\":1921:1959  token1.transfer(address(this), amount) */\n      mload(0x40)\n      dup4\n      0xffffffff\n      and\n      0xe0\n      shl\n      dup2\n      mstore\n      0x04\n      add\n      tag_34\n      swap3\n      swap2\n      swap1\n      tag_35\n      jump\t// in\n    tag_34:\n      0x20\n      mload(0x40)\n      dup1\n      dup4\n      sub\n      dup2\n      0x00\n      dup8\n      gas\n      call\n      iszero\n      dup1\n      iszero\n      tag_37\n      jumpi\n      returndatacopy(0x00, 0x00, returndatasize)\n      revert(0x00, returndatasize)\n    tag_37:\n      pop\n      pop\n      pop\n      pop\n      mload(0x40)\n      returndatasize\n      not(0x1f)\n      0x1f\n      dup3\n      add\n      and\n      dup3\n      add\n      dup1\n      0x40\n      mstore\n      pop\n      dup2\n      add\n      swap1\n      tag_38\n      swap2\n      swap1\n      tag_39\n      jump\t// in\n    tag_38:\n        /* \"interface/Interface.sol\":1913:1977  require(token1.transfer(address(this), amount),\"Transfer Faild\") */\n      tag_40\n      jumpi\n      mload(0x40)\n      0x08c379a000000000000000000000000000000000000000000000000000000000\n      dup2\n      mstore\n      0x04\n      add\n      tag_41\n      swap1\n      tag_42\n      jump\t// in\n    tag_41:\n      mload(0x40)\n      dup1\n      swap2\n      sub\n      swap1\n      revert\n    tag_40:\n        /* \"interface/Interface.sol\":1996:2002  token2 */\n      0x01\n      0x00\n      swap1\n      sload\n      swap1\n      0x0100\n      exp\n      swap1\n      div\n      0xffffffffffffffffffffffffffffffffffffffff\n      and\n        /* \"interface/Interface.sol\":1996:2011  token2.transfer */\n      0xffffffffffffffffffffffffffffffffffffffff\n      and\n      0xa9059cbb\n        /* \"interface/Interface.sol\":2012:2022  msg.sender */\n      caller\n        /* \"interface/Interface.sol\":2024:2036  token2Amount */\n      dup4\n        /* \"interface/Interface.sol\":1996:2037  token2.transfer(msg.sender, token2Amount) */\n      mload(0x40)\n      dup4\n      0xffffffff\n      and\n      0xe0\n      shl\n      dup2\n      mstore\n      0x04\n      add\n      tag_43\n      swap3\n      swap2\n      swap1\n      tag_35\n      jump\t// in\n    tag_43:\n      0x20\n      mload(0x40)\n      dup1\n      dup4\n      sub\n      dup2\n      0x00\n      dup8\n      gas\n      call\n      iszero\n      dup1\n      iszero\n      tag_45\n      jumpi\n      returndatacopy(0x00, 0x00, returndatasize)\n      revert(0x00, returndatasize)\n    tag_45:\n      pop\n      pop\n      pop\n      pop\n      mload(0x40)\n      returndatasize\n      not(0x1f)\n      0x1f\n      dup3\n      add\n      and\n      dup3\n      add\n      dup1\n      0x40\n      mstore\n      pop\n      dup2\n      add\n      swap1\n      tag_46\n      swap2\n      swap1\n      tag_39\n      jump\t// in\n    tag_46:\n        /* \"interface/Interface.sol\":1988:2055  require(token2.transfer(msg.sender, token2Amount),\"Transfer Faild\") */\n      tag_47\n      jumpi\n      mload(0x40)\n      0x08c379a000000000000000000000000000000000000000000000000000000000\n      dup2\n      mstore\n      0x04\n      add\n      tag_48\n      swap1\n      tag_42\n      jump\t// in\n    tag_48:\n      mload(0x40)\n      dup1\n      swap2\n      sub\n      swap1\n      revert\n    tag_47:\n        /* \"interface/Interface.sol\":1778:2062  {... */\n      pop\n        /* \"interface/Interface.sol\":1737:2062  function SwapToken(uint amount) external {... */\n      pop\n      jump\t// out\n        /* \"interface/Interface.sol\":1501:1521  IToken public token1 */\n    tag_20:\n      0x00\n      0x00\n      swap1\n      sload\n      swap1\n      0x0100\n      exp\n      swap1\n      div\n      0xffffffffffffffffffffffffffffffffffffffff\n      and\n      dup2\n      jump\t// out\n        /* \"#utility.yul\":7:133   */\n    tag_49:\n        /* \"#utility.yul\":44:51   */\n      0x00\n        /* \"#utility.yul\":84:126   */\n      0xffffffffffffffffffffffffffffffffffffffff\n        /* \"#utility.yul\":77:82   */\n      dup3\n        /* \"#utility.yul\":73:127   */\n      and\n        /* \"#utility.yul\":62:127   */\n      swap1\n      pop\n        /* \"#utility.yul\":7:133   */\n      swap2\n      swap1\n      pop\n      jump\t// out\n        /* \"#utility.yul\":139:199   */\n    tag_50:\n        /* \"#utility.yul\":167:170   */\n      0x00\n        /* \"#utility.yul\":188:193   */\n      dup2\n        /* \"#utility.yul\":181:193   */\n      swap1\n      pop\n        /* \"#utility.yul\":139:199   */\n      swap2\n      swap1\n      pop\n      jump\t// out\n        /* \"#utility.yul\":205:347   */\n    tag_51:\n        /* \"#utility.yul\":255:264   */\n      0x00\n        /* \"#utility.yul\":288:341   */\n      tag_78\n        /* \"#utility.yul\":306:340   */\n      tag_79\n        /* \"#utility.yul\":315:339   */\n      tag_80\n        /* \"#utility.yul\":333:338   */\n      dup5\n        /* \"#utility.yul\":315:339   */\n      tag_49\n      jump\t// in\n    tag_80:\n        /* \"#utility.yul\":306:340   */\n      tag_50\n      jump\t// in\n    tag_79:\n        /* \"#utility.yul\":288:341   */\n      tag_49\n      jump\t// in\n    tag_78:\n        /* \"#utility.yul\":275:341   */\n      swap1\n      pop\n        /* \"#utility.yul\":205:347   */\n      swap2\n      swap1\n      pop\n      jump\t// out\n        /* \"#utility.yul\":353:479   */\n    tag_52:\n        /* \"#utility.yul\":403:412   */\n      0x00\n        /* \"#utility.yul\":436:473   */\n      tag_82\n        /* \"#utility.yul\":467:472   */\n      dup3\n        /* \"#utility.yul\":436:473   */\n      tag_51\n      jump\t// in\n    tag_82:\n        /* \"#utility.yul\":423:473   */\n      swap1\n      pop\n        /* \"#utility.yul\":353:479   */\n      swap2\n      swap1\n      pop\n      jump\t// out\n        /* \"#utility.yul\":485:624   */\n    tag_53:\n        /* \"#utility.yul\":548:557   */\n      0x00\n        /* \"#utility.yul\":581:618   */\n      tag_84\n        /* \"#utility.yul\":612:617   */\n      dup3\n        /* \"#utility.yul\":581:618   */\n      tag_52\n      jump\t// in\n    tag_84:\n        /* \"#utility.yul\":568:618   */\n      swap1\n      pop\n        /* \"#utility.yul\":485:624   */\n      swap2\n      swap1\n      pop\n      jump\t// out\n        /* \"#utility.yul\":630:787   */\n    tag_54:\n        /* \"#utility.yul\":730:780   */\n      tag_86\n        /* \"#utility.yul\":774:779   */\n      dup2\n        /* \"#utility.yul\":730:780   */\n      tag_53\n      jump\t// in\n    tag_86:\n        /* \"#utility.yul\":725:728   */\n      dup3\n        /* \"#utility.yul\":718:781   */\n      mstore\n        /* \"#utility.yul\":630:787   */\n      pop\n      pop\n      jump\t// out\n        /* \"#utility.yul\":793:1041   */\n    tag_10:\n        /* \"#utility.yul\":899:903   */\n      0x00\n        /* \"#utility.yul\":937:939   */\n      0x20\n        /* \"#utility.yul\":926:935   */\n      dup3\n        /* \"#utility.yul\":922:940   */\n      add\n        /* \"#utility.yul\":914:940   */\n      swap1\n      pop\n        /* \"#utility.yul\":950:1034   */\n      tag_88\n        /* \"#utility.yul\":1031:1032   */\n      0x00\n        /* \"#utility.yul\":1020:1029   */\n      dup4\n        /* \"#utility.yul\":1016:1033   */\n      add\n        /* \"#utility.yul\":1007:1013   */\n      dup5\n        /* \"#utility.yul\":950:1034   */\n      tag_54\n      jump\t// in\n    tag_88:\n        /* \"#utility.yul\":793:1041   */\n      swap3\n      swap2\n      pop\n      pop\n      jump\t// out\n        /* \"#utility.yul\":1047:1124   */\n    tag_55:\n        /* \"#utility.yul\":1084:1091   */\n      0x00\n        /* \"#utility.yul\":1113:1118   */\n      dup2\n        /* \"#utility.yul\":1102:1118   */\n      swap1\n      pop\n        /* \"#utility.yul\":1047:1124   */\n      swap2\n      swap1\n      pop\n      jump\t// out\n        /* \"#utility.yul\":1130:1248   */\n    tag_56:\n        /* \"#utility.yul\":1217:1241   */\n      tag_91\n        /* \"#utility.yul\":1235:1240   */\n      dup2\n        /* \"#utility.yul\":1217:1241   */\n      tag_55\n      jump\t// in\n    tag_91:\n        /* \"#utility.yul\":1212:1215   */\n      dup3\n        /* \"#utility.yul\":1205:1242   */\n      mstore\n        /* \"#utility.yul\":1130:1248   */\n      pop\n      pop\n      jump\t// out\n        /* \"#utility.yul\":1254:1476   */\n    tag_14:\n        /* \"#utility.yul\":1347:1351   */\n      0x00\n        /* \"#utility.yul\":1385:1387   */\n      0x20\n        /* \"#utility.yul\":1374:1383   */\n      dup3\n        /* \"#utility.yul\":1370:1388   */\n      add\n        /* \"#utility.yul\":1362:1388   */\n      swap1\n      pop\n        /* \"#utility.yul\":1398:1469   */\n      tag_93\n        /* \"#utility.yul\":1466:1467   */\n      0x00\n        /* \"#utility.yul\":1455:1464   */\n      dup4\n        /* \"#utility.yul\":1451:1468   */\n      add\n        /* \"#utility.yul\":1442:1448   */\n      dup5\n        /* \"#utility.yul\":1398:1469   */\n      tag_56\n      jump\t// in\n    tag_93:\n        /* \"#utility.yul\":1254:1476   */\n      swap3\n      swap2\n      pop\n      pop\n      jump\t// out\n        /* \"#utility.yul\":1563:1680   */\n    tag_58:\n        /* \"#utility.yul\":1672:1673   */\n      0x00\n        /* \"#utility.yul\":1669:1670   */\n      0x00\n        /* \"#utility.yul\":1662:1674   */\n      revert\n        /* \"#utility.yul\":1809:1931   */\n    tag_60:\n        /* \"#utility.yul\":1882:1906   */\n      tag_98\n        /* \"#utility.yul\":1900:1905   */\n      dup2\n        /* \"#utility.yul\":1882:1906   */\n      tag_55\n      jump\t// in\n    tag_98:\n        /* \"#utility.yul\":1875:1880   */\n      dup2\n        /* \"#utility.yul\":1872:1907   */\n      eq\n        /* \"#utility.yul\":1862:1925   */\n      tag_99\n      jumpi\n        /* \"#utility.yul\":1921:1922   */\n      0x00\n        /* \"#utility.yul\":1918:1919   */\n      0x00\n        /* \"#utility.yul\":1911:1923   */\n      revert\n        /* \"#utility.yul\":1862:1925   */\n    tag_99:\n        /* \"#utility.yul\":1809:1931   */\n      pop\n      jump\t// out\n        /* \"#utility.yul\":1937:2076   */\n    tag_61:\n        /* \"#utility.yul\":1983:1988   */\n      0x00\n        /* \"#utility.yul\":2021:2027   */\n      dup2\n        /* \"#utility.yul\":2008:2028   */\n      calldataload\n        /* \"#utility.yul\":1999:2028   */\n      swap1\n      pop\n        /* \"#utility.yul\":2037:2070   */\n      tag_101\n        /* \"#utility.yul\":2064:2069   */\n      dup2\n        /* \"#utility.yul\":2037:2070   */\n      tag_60\n      jump\t// in\n    tag_101:\n        /* \"#utility.yul\":1937:2076   */\n      swap3\n      swap2\n      pop\n      pop\n      jump\t// out\n        /* \"#utility.yul\":2082:2411   */\n    tag_17:\n        /* \"#utility.yul\":2141:2147   */\n      0x00\n        /* \"#utility.yul\":2190:2192   */\n      0x20\n        /* \"#utility.yul\":2178:2187   */\n      dup3\n        /* \"#utility.yul\":2169:2176   */\n      dup5\n        /* \"#utility.yul\":2165:2188   */\n      sub\n        /* \"#utility.yul\":2161:2193   */\n      slt\n        /* \"#utility.yul\":2158:2277   */\n      iszero\n      tag_103\n      jumpi\n        /* \"#utility.yul\":2196:2275   */\n      tag_104\n      tag_58\n      jump\t// in\n    tag_104:\n        /* \"#utility.yul\":2158:2277   */\n    tag_103:\n        /* \"#utility.yul\":2316:2317   */\n      0x00\n        /* \"#utility.yul\":2341:2394   */\n      tag_105\n        /* \"#utility.yul\":2386:2393   */\n      dup5\n        /* \"#utility.yul\":2377:2383   */\n      dup3\n        /* \"#utility.yul\":2366:2375   */\n      dup6\n        /* \"#utility.yul\":2362:2384   */\n      add\n        /* \"#utility.yul\":2341:2394   */\n      tag_61\n      jump\t// in\n    tag_105:\n        /* \"#utility.yul\":2331:2394   */\n      swap2\n      pop\n        /* \"#utility.yul\":2287:2404   */\n      pop\n        /* \"#utility.yul\":2082:2411   */\n      swap3\n      swap2\n      pop\n      pop\n      jump\t// out\n        /* \"#utility.yul\":2417:2513   */\n    tag_62:\n        /* \"#utility.yul\":2454:2461   */\n      0x00\n        /* \"#utility.yul\":2483:2507   */\n      tag_107\n        /* \"#utility.yul\":2501:2506   */\n      dup3\n        /* \"#utility.yul\":2483:2507   */\n      tag_49\n      jump\t// in\n    tag_107:\n        /* \"#utility.yul\":2472:2507   */\n      swap1\n      pop\n        /* \"#utility.yul\":2417:2513   */\n      swap2\n      swap1\n      pop\n      jump\t// out\n        /* \"#utility.yul\":2519:2637   */\n    tag_63:\n        /* \"#utility.yul\":2606:2630   */\n      tag_109\n        /* \"#utility.yul\":2624:2629   */\n      dup2\n        /* \"#utility.yul\":2606:2630   */\n      tag_62\n      jump\t// in\n    tag_109:\n        /* \"#utility.yul\":2601:2604   */\n      dup3\n        /* \"#utility.yul\":2594:2631   */\n      mstore\n        /* \"#utility.yul\":2519:2637   */\n      pop\n      pop\n      jump\t// out\n        /* \"#utility.yul\":2643:2865   */\n    tag_24:\n        /* \"#utility.yul\":2736:2740   */\n      0x00\n        /* \"#utility.yul\":2774:2776   */\n      0x20\n        /* \"#utility.yul\":2763:2772   */\n      dup3\n        /* \"#utility.yul\":2759:2777   */\n      add\n        /* \"#utility.yul\":2751:2777   */\n      swap1\n      pop\n        /* \"#utility.yul\":2787:2858   */\n      tag_111\n        /* \"#utility.yul\":2855:2856   */\n      0x00\n        /* \"#utility.yul\":2844:2853   */\n      dup4\n        /* \"#utility.yul\":2840:2857   */\n      add\n        /* \"#utility.yul\":2831:2837   */\n      dup5\n        /* \"#utility.yul\":2787:2858   */\n      tag_63\n      jump\t// in\n    tag_111:\n        /* \"#utility.yul\":2643:2865   */\n      swap3\n      swap2\n      pop\n      pop\n      jump\t// out\n        /* \"#utility.yul\":2871:3014   */\n    tag_64:\n        /* \"#utility.yul\":2928:2933   */\n      0x00\n        /* \"#utility.yul\":2959:2965   */\n      dup2\n        /* \"#utility.yul\":2953:2966   */\n      mload\n        /* \"#utility.yul\":2944:2966   */\n      swap1\n      pop\n        /* \"#utility.yul\":2975:3008   */\n      tag_113\n        /* \"#utility.yul\":3002:3007   */\n      dup2\n        /* \"#utility.yul\":2975:3008   */\n      tag_60\n      jump\t// in\n    tag_113:\n        /* \"#utility.yul\":2871:3014   */\n      swap3\n      swap2\n      pop\n      pop\n      jump\t// out\n        /* \"#utility.yul\":3020:3371   */\n    tag_28:\n        /* \"#utility.yul\":3090:3096   */\n      0x00\n        /* \"#utility.yul\":3139:3141   */\n      0x20\n        /* \"#utility.yul\":3127:3136   */\n      dup3\n        /* \"#utility.yul\":3118:3125   */\n      dup5\n        /* \"#utility.yul\":3114:3137   */\n      sub\n        /* \"#utility.yul\":3110:3142   */\n      slt\n        /* \"#utility.yul\":3107:3226   */\n      iszero\n      tag_115\n      jumpi\n        /* \"#utility.yul\":3145:3224   */\n      tag_116\n      tag_58\n      jump\t// in\n    tag_116:\n        /* \"#utility.yul\":3107:3226   */\n    tag_115:\n        /* \"#utility.yul\":3265:3266   */\n      0x00\n        /* \"#utility.yul\":3290:3354   */\n      tag_117\n        /* \"#utility.yul\":3346:3353   */\n      dup5\n        /* \"#utility.yul\":3337:3343   */\n      dup3\n        /* \"#utility.yul\":3326:3335   */\n      dup6\n        /* \"#utility.yul\":3322:3344   */\n      add\n        /* \"#utility.yul\":3290:3354   */\n      tag_64\n      jump\t// in\n    tag_117:\n        /* \"#utility.yul\":3280:3354   */\n      swap2\n      pop\n        /* \"#utility.yul\":3236:3364   */\n      pop\n        /* \"#utility.yul\":3020:3371   */\n      swap3\n      swap2\n      pop\n      pop\n      jump\t// out\n        /* \"#utility.yul\":3377:3546   */\n    tag_65:\n        /* \"#utility.yul\":3461:3472   */\n      0x00\n        /* \"#utility.yul\":3495:3501   */\n      dup3\n        /* \"#utility.yul\":3490:3493   */\n      dup3\n        /* \"#utility.yul\":3483:3502   */\n      mstore\n        /* \"#utility.yul\":3535:3539   */\n      0x20\n        /* \"#utility.yul\":3530:3533   */\n      dup3\n        /* \"#utility.yul\":3526:3540   */\n      add\n        /* \"#utility.yul\":3511:3540   */\n      swap1\n      pop\n        /* \"#utility.yul\":3377:3546   */\n      swap3\n      swap2\n      pop\n      pop\n      jump\t// out\n        /* \"#utility.yul\":3552:3722   */\n    tag_66:\n        /* \"#utility.yul\":3692:3714   */\n      0x496e73756666696369656e742042616c616e6365000000000000000000000000\n        /* \"#utility.yul\":3688:3689   */\n      0x00\n        /* \"#utility.yul\":3680:3686   */\n      dup3\n        /* \"#utility.yul\":3676:3690   */\n      add\n        /* \"#utility.yul\":3669:3715   */\n      mstore\n        /* \"#utility.yul\":3552:3722   */\n      pop\n      jump\t// out\n        /* \"#utility.yul\":3728:4094   */\n    tag_67:\n        /* \"#utility.yul\":3870:3873   */\n      0x00\n        /* \"#utility.yul\":3891:3958   */\n      tag_121\n        /* \"#utility.yul\":3955:3957   */\n      0x14\n        /* \"#utility.yul\":3950:3953   */\n      dup4\n        /* \"#utility.yul\":3891:3958   */\n      tag_65\n      jump\t// in\n    tag_121:\n        /* \"#utility.yul\":3884:3958   */\n      swap2\n      pop\n        /* \"#utility.yul\":3967:4060   */\n      tag_122\n        /* \"#utility.yul\":4056:4059   */\n      dup3\n        /* \"#utility.yul\":3967:4060   */\n      tag_66\n      jump\t// in\n    tag_122:\n        /* \"#utility.yul\":4085:4087   */\n      0x20\n        /* \"#utility.yul\":4080:4083   */\n      dup3\n        /* \"#utility.yul\":4076:4088   */\n      add\n        /* \"#utility.yul\":4069:4088   */\n      swap1\n      pop\n        /* \"#utility.yul\":3728:4094   */\n      swap2\n      swap1\n      pop\n      jump\t// out\n        /* \"#utility.yul\":4100:4519   */\n    tag_31:\n        /* \"#utility.yul\":4266:4270   */\n      0x00\n        /* \"#utility.yul\":4304:4306   */\n      0x20\n        /* \"#utility.yul\":4293:4302   */\n      dup3\n        /* \"#utility.yul\":4289:4307   */\n      add\n        /* \"#utility.yul\":4281:4307   */\n      swap1\n      pop\n        /* \"#utility.yul\":4353:4362   */\n      dup2\n        /* \"#utility.yul\":4347:4351   */\n      dup2\n        /* \"#utility.yul\":4343:4363   */\n      sub\n        /* \"#utility.yul\":4339:4340   */\n      0x00\n        /* \"#utility.yul\":4328:4337   */\n      dup4\n        /* \"#utility.yul\":4324:4341   */\n      add\n        /* \"#utility.yul\":4317:4364   */\n      mstore\n        /* \"#utility.yul\":4381:4512   */\n      tag_124\n        /* \"#utility.yul\":4507:4511   */\n      dup2\n        /* \"#utility.yul\":4381:4512   */\n      tag_67\n      jump\t// in\n    tag_124:\n        /* \"#utility.yul\":4373:4512   */\n      swap1\n      pop\n        /* \"#utility.yul\":4100:4519   */\n      swap2\n      swap1\n      pop\n      jump\t// out\n        /* \"#utility.yul\":4525:4705   */\n    tag_68:\n        /* \"#utility.yul\":4573:4650   */\n      0x4e487b7100000000000000000000000000000000000000000000000000000000\n        /* \"#utility.yul\":4570:4571   */\n      0x00\n        /* \"#utility.yul\":4563:4651   */\n      mstore\n        /* \"#utility.yul\":4670:4674   */\n      0x11\n        /* \"#utility.yul\":4667:4668   */\n      0x04\n        /* \"#utility.yul\":4660:4675   */\n      mstore\n        /* \"#utility.yul\":4694:4698   */\n      0x24\n        /* \"#utility.yul\":4691:4692   */\n      0x00\n        /* \"#utility.yul\":4684:4699   */\n      revert\n        /* \"#utility.yul\":4711:5121   */\n    tag_33:\n        /* \"#utility.yul\":4751:4758   */\n      0x00\n        /* \"#utility.yul\":4774:4794   */\n      tag_127\n        /* \"#utility.yul\":4792:4793   */\n      dup3\n        /* \"#utility.yul\":4774:4794   */\n      tag_55\n      jump\t// in\n    tag_127:\n        /* \"#utility.yul\":4769:4794   */\n      swap2\n      pop\n        /* \"#utility.yul\":4808:4828   */\n      tag_128\n        /* \"#utility.yul\":4826:4827   */\n      dup4\n        /* \"#utility.yul\":4808:4828   */\n      tag_55\n      jump\t// in\n    tag_128:\n        /* \"#utility.yul\":4803:4828   */\n      swap3\n      pop\n        /* \"#utility.yul\":4863:4864   */\n      dup3\n        /* \"#utility.yul\":4860:4861   */\n      dup3\n        /* \"#utility.yul\":4856:4865   */\n      mul\n        /* \"#utility.yul\":4885:4915   */\n      tag_129\n        /* \"#utility.yul\":4903:4914   */\n      dup2\n        /* \"#utility.yul\":4885:4915   */\n      tag_55\n      jump\t// in\n    tag_129:\n        /* \"#utility.yul\":4874:4915   */\n      swap2\n      pop\n        /* \"#utility.yul\":5064:5065   */\n      dup3\n        /* \"#utility.yul\":5055:5062   */\n      dup3\n        /* \"#utility.yul\":5051:5066   */\n      div\n        /* \"#utility.yul\":5048:5049   */\n      dup5\n        /* \"#utility.yul\":5045:5067   */\n      eq\n        /* \"#utility.yul\":5025:5026   */\n      dup4\n        /* \"#utility.yul\":5018:5027   */\n      iszero\n        /* \"#utility.yul\":4998:5081   */\n      or\n        /* \"#utility.yul\":4975:5114   */\n      tag_130\n      jumpi\n        /* \"#utility.yul\":5094:5112   */\n      tag_131\n      tag_68\n      jump\t// in\n    tag_131:\n        /* \"#utility.yul\":4975:5114   */\n    tag_130:\n        /* \"#utility.yul\":4759:5121   */\n      pop\n        /* \"#utility.yul\":4711:5121   */\n      swap3\n      swap2\n      pop\n      pop\n      jump\t// out\n        /* \"#utility.yul\":5127:5459   */\n    tag_35:\n        /* \"#utility.yul\":5248:5252   */\n      0x00\n        /* \"#utility.yul\":5286:5288   */\n      0x40\n        /* \"#utility.yul\":5275:5284   */\n      dup3\n        /* \"#utility.yul\":5271:5289   */\n      add\n        /* \"#utility.yul\":5263:5289   */\n      swap1\n      pop\n        /* \"#utility.yul\":5299:5370   */\n      tag_133\n        /* \"#utility.yul\":5367:5368   */\n      0x00\n        /* \"#utility.yul\":5356:5365   */\n      dup4\n        /* \"#utility.yul\":5352:5369   */\n      add\n        /* \"#utility.yul\":5343:5349   */\n      dup6\n        /* \"#utility.yul\":5299:5370   */\n      tag_63\n      jump\t// in\n    tag_133:\n        /* \"#utility.yul\":5380:5452   */\n      tag_134\n        /* \"#utility.yul\":5448:5450   */\n      0x20\n        /* \"#utility.yul\":5437:5446   */\n      dup4\n        /* \"#utility.yul\":5433:5451   */\n      add\n        /* \"#utility.yul\":5424:5430   */\n      dup5\n        /* \"#utility.yul\":5380:5452   */\n      tag_56\n      jump\t// in\n    tag_134:\n        /* \"#utility.yul\":5127:5459   */\n      swap4\n      swap3\n      pop\n      pop\n      pop\n      jump\t// out\n        /* \"#utility.yul\":5465:5555   */\n    tag_69:\n        /* \"#utility.yul\":5499:5506   */\n      0x00\n        /* \"#utility.yul\":5542:5547   */\n      dup2\n        /* \"#utility.yul\":5535:5548   */\n      iszero\n        /* \"#utility.yul\":5528:5549   */\n      iszero\n        /* \"#utility.yul\":5517:5549   */\n      swap1\n      pop\n        /* \"#utility.yul\":5465:5555   */\n      swap2\n      swap1\n      pop\n      jump\t// out\n        /* \"#utility.yul\":5561:5677   */\n    tag_70:\n        /* \"#utility.yul\":5631:5652   */\n      tag_137\n        /* \"#utility.yul\":5646:5651   */\n      dup2\n        /* \"#utility.yul\":5631:5652   */\n      tag_69\n      jump\t// in\n    tag_137:\n        /* \"#utility.yul\":5624:5629   */\n      dup2\n        /* \"#utility.yul\":5621:5653   */\n      eq\n        /* \"#utility.yul\":5611:5671   */\n      tag_138\n      jumpi\n        /* \"#utility.yul\":5667:5668   */\n      0x00\n        /* \"#utility.yul\":5664:5665   */\n      0x00\n        /* \"#utility.yul\":5657:5669   */\n      revert\n        /* \"#utility.yul\":5611:5671   */\n    tag_138:\n        /* \"#utility.yul\":5561:5677   */\n      pop\n      jump\t// out\n        /* \"#utility.yul\":5683:5820   */\n    tag_71:\n        /* \"#utility.yul\":5737:5742   */\n      0x00\n        /* \"#utility.yul\":5768:5774   */\n      dup2\n        /* \"#utility.yul\":5762:5775   */\n      mload\n        /* \"#utility.yul\":5753:5775   */\n      swap1\n      pop\n        /* \"#utility.yul\":5784:5814   */\n      tag_140\n        /* \"#utility.yul\":5808:5813   */\n      dup2\n        /* \"#utility.yul\":5784:5814   */\n      tag_70\n      jump\t// in\n    tag_140:\n        /* \"#utility.yul\":5683:5820   */\n      swap3\n      swap2\n      pop\n      pop\n      jump\t// out\n        /* \"#utility.yul\":5826:6171   */\n    tag_39:\n        /* \"#utility.yul\":5893:5899   */\n      0x00\n        /* \"#utility.yul\":5942:5944   */\n      0x20\n        /* \"#utility.yul\":5930:5939   */\n      dup3\n        /* \"#utility.yul\":5921:5928   */\n      dup5\n        /* \"#utility.yul\":5917:5940   */\n      sub\n        /* \"#utility.yul\":5913:5945   */\n      slt\n        /* \"#utility.yul\":5910:6029   */\n      iszero\n      tag_142\n      jumpi\n        /* \"#utility.yul\":5948:6027   */\n      tag_143\n      tag_58\n      jump\t// in\n    tag_143:\n        /* \"#utility.yul\":5910:6029   */\n    tag_142:\n        /* \"#utility.yul\":6068:6069   */\n      0x00\n        /* \"#utility.yul\":6093:6154   */\n      tag_144\n        /* \"#utility.yul\":6146:6153   */\n      dup5\n        /* \"#utility.yul\":6137:6143   */\n      dup3\n        /* \"#utility.yul\":6126:6135   */\n      dup6\n        /* \"#utility.yul\":6122:6144   */\n      add\n        /* \"#utility.yul\":6093:6154   */\n      tag_71\n      jump\t// in\n    tag_144:\n        /* \"#utility.yul\":6083:6154   */\n      swap2\n      pop\n        /* \"#utility.yul\":6039:6164   */\n      pop\n        /* \"#utility.yul\":5826:6171   */\n      swap3\n      swap2\n      pop\n      pop\n      jump\t// out\n        /* \"#utility.yul\":6177:6341   */\n    tag_72:\n        /* \"#utility.yul\":6317:6333   */\n      0x5472616e73666572204661696c64000000000000000000000000000000000000\n        /* \"#utility.yul\":6313:6314   */\n      0x00\n        /* \"#utility.yul\":6305:6311   */\n      dup3\n        /* \"#utility.yul\":6301:6315   */\n      add\n        /* \"#utility.yul\":6294:6334   */\n      mstore\n        /* \"#utility.yul\":6177:6341   */\n      pop\n      jump\t// out\n        /* \"#utility.yul\":6347:6713   */\n    tag_73:\n        /* \"#utility.yul\":6489:6492   */\n      0x00\n        /* \"#utility.yul\":6510:6577   */\n      tag_147\n        /* \"#utility.yul\":6574:6576   */\n      0x0e\n        /* \"#utility.yul\":6569:6572   */\n      dup4\n        /* \"#utility.yul\":6510:6577   */\n      tag_65\n      jump\t// in\n    tag_147:\n        /* \"#utility.yul\":6503:6577   */\n      swap2\n      pop\n        /* \"#utility.yul\":6586:6679   */\n      tag_148\n        /* \"#utility.yul\":6675:6678   */\n      dup3\n        /* \"#utility.yul\":6586:6679   */\n      tag_72\n      jump\t// in\n    tag_148:\n        /* \"#utility.yul\":6704:6706   */\n      0x20\n        /* \"#utility.yul\":6699:6702   */\n      dup3\n        /* \"#utility.yul\":6695:6707   */\n      add\n        /* \"#utility.yul\":6688:6707   */\n      swap1\n      pop\n        /* \"#utility.yul\":6347:6713   */\n      swap2\n      swap1\n      pop\n      jump\t// out\n        /* \"#utility.yul\":6719:7138   */\n    tag_42:\n        /* \"#utility.yul\":6885:6889   */\n      0x00\n        /* \"#utility.yul\":6923:6925   */\n      0x20\n        /* \"#utility.yul\":6912:6921   */\n      dup3\n        /* \"#utility.yul\":6908:6926   */\n      add\n        /* \"#utility.yul\":6900:6926   */\n      swap1\n      pop\n        /* \"#utility.yul\":6972:6981   */\n      dup2\n        /* \"#utility.yul\":6966:6970   */\n      dup2\n        /* \"#utility.yul\":6962:6982   */\n      sub\n        /* \"#utility.yul\":6958:6959   */\n      0x00\n        /* \"#utility.yul\":6947:6956   */\n      dup4\n        /* \"#utility.yul\":6943:6960   */\n      add\n        /* \"#utility.yul\":6936:6983   */\n      mstore\n        /* \"#utility.yul\":7000:7131   */\n      tag_150\n        /* \"#utility.yul\":7126:7130   */\n      dup2\n        /* \"#utility.yul\":7000:7131   */\n      tag_73\n      jump\t// in\n    tag_150:\n        /* \"#utility.yul\":6992:7131   */\n      swap1\n      pop\n        /* \"#utility.yul\":6719:7138   */\n      swap2\n      swap1\n      pop\n      jump\t// out\n\n    auxdata: 0xa26469706673582212200329ca161ec7b0d7025d02e8e81be7dd699bf436c28e9c2f1c5fc96bdf7677de64736f6c634300081d0033\n}\n",
				"bytecode": {
					"linkReferences": {},
					"object": "608060405234801561000f575f5ffd5b5060405161090438038061090483398181016040528101906100319190610150565b825f5f6101000a81548173ffffffffffffffffffffffffffffffffffffffff021916908373ffffffffffffffffffffffffffffffffffffffff1602179055508160015f6101000a81548173ffffffffffffffffffffffffffffffffffffffff021916908373ffffffffffffffffffffffffffffffffffffffff160217905550806002819055505050506101a0565b5f5ffd5b5f73ffffffffffffffffffffffffffffffffffffffff82169050919050565b5f6100ec826100c3565b9050919050565b6100fc816100e2565b8114610106575f5ffd5b50565b5f81519050610117816100f3565b92915050565b5f819050919050565b61012f8161011d565b8114610139575f5ffd5b50565b5f8151905061014a81610126565b92915050565b5f5f5f60608486031215610167576101666100bf565b5b5f61017486828701610109565b935050602061018586828701610109565b92505060406101968682870161013c565b9150509250925092565b610757806101ad5f395ff3fe608060405234801561000f575f5ffd5b506004361061004a575f3560e01c806325be124e1461004e5780632c4e722e1461006c578063b0e01b2e1461008a578063d21220a7146100a6575b5f5ffd5b6100566100c4565b6040516100639190610431565b60405180910390f35b6100746100e9565b6040516100819190610462565b60405180910390f35b6100a4600480360381019061009f91906104a9565b6100ef565b005b6100ae610393565b6040516100bb9190610431565b60405180910390f35b60015f9054906101000a900473ffffffffffffffffffffffffffffffffffffffff1681565b60025481565b805f5f9054906101000a900473ffffffffffffffffffffffffffffffffffffffff1673ffffffffffffffffffffffffffffffffffffffff1663f8b2cb4f336040518263ffffffff1660e01b815260040161014991906104f4565b602060405180830381865afa158015610164573d5f5f3e3d5ffd5b505050506040513d601f19601f820116820180604052508101906101889190610521565b10156101c9576040517f08c379a00000000000000000000000000000000000000000000000000000000081526004016101c0906105a6565b60405180910390fd5b5f600254826101d891906105f1565b90505f5f9054906101000a900473ffffffffffffffffffffffffffffffffffffffff1673ffffffffffffffffffffffffffffffffffffffff1663a9059cbb30846040518363ffffffff1660e01b8152600401610235929190610632565b6020604051808303815f875af1158015610251573d5f5f3e3d5ffd5b505050506040513d601f19601f82011682018060405250810190610275919061068e565b6102b4576040517f08c379a00000000000000000000000000000000000000000000000000000000081526004016102ab90610703565b60405180910390fd5b60015f9054906101000a900473ffffffffffffffffffffffffffffffffffffffff1673ffffffffffffffffffffffffffffffffffffffff1663a9059cbb33836040518363ffffffff1660e01b8152600401610310929190610632565b6020604051808303815f875af115801561032c573d5f5f3e3d5ffd5b505050506040513d601f19601f82011682018060405250810190610350919061068e565b61038f576040517f08c379a000000000000000000000000000000000000000000000000000000000815260040161038690610703565b60405180910390fd5b5050565b5f5f9054906101000a900473ffffffffffffffffffffffffffffffffffffffff1681565b5f73ffffffffffffffffffffffffffffffffffffffff82169050919050565b5f819050919050565b5f6103f96103f46103ef846103b7565b6103d6565b6103b7565b9050919050565b5f61040a826103df565b9050919050565b5f61041b82610400565b9050919050565b61042b81610411565b82525050565b5f6020820190506104445f830184610422565b92915050565b5f819050919050565b61045c8161044a565b82525050565b5f6020820190506104755f830184610453565b92915050565b5f5ffd5b6104888161044a565b8114610492575f5ffd5b50565b5f813590506104a38161047f565b92915050565b5f602082840312156104be576104bd61047b565b5b5f6104cb84828501610495565b91505092915050565b5f6104de826103b7565b9050919050565b6104ee816104d4565b82525050565b5f6020820190506105075f8301846104e5565b92915050565b5f8151905061051b8161047f565b92915050565b5f602082840312156105365761053561047b565b5b5f6105438482850161050d565b91505092915050565b5f82825260208201905092915050565b7f496e73756666696369656e742042616c616e63650000000000000000000000005f82015250565b5f61059060148361054c565b915061059b8261055c565b602082019050919050565b5f6020820190508181035f8301526105bd81610584565b9050919050565b7f4e487b71000000000000000000000000000000000000000000000000000000005f52601160045260245ffd5b5f6105fb8261044a565b91506106068361044a565b92508282026106148161044a565b9150828204841483151761062b5761062a6105c4565b5b5092915050565b5f6040820190506106455f8301856104e5565b6106526020830184610453565b9392505050565b5f8115159050919050565b61066d81610659565b8114610677575f5ffd5b50565b5f8151905061068881610664565b92915050565b5f602082840312156106a3576106a261047b565b5b5f6106b08482850161067a565b91505092915050565b7f5472616e73666572204661696c640000000000000000000000000000000000005f82015250565b5f6106ed600e8361054c565b91506106f8826106b9565b602082019050919050565b5f6020820190508181035f83015261071a816106e1565b905091905056fea26469706673582212200329ca161ec7b0d7025d02e8e81be7dd699bf436c28e9c2f1c5fc96bdf7677de64736f6c634300081d0033",
					"opcodes": "PUSH1 0x80 PUSH1 0x40 MSTORE CALLVALUE DUP1 ISZERO PUSH2 0xF JUMPI PUSH0 PUSH0 REVERT JUMPDEST POP PUSH1 0x40 MLOAD PUSH2 0x904 CODESIZE SUB DUP1 PUSH2 0x904 DUP4 CODECOPY DUP2 DUP2 ADD PUSH1 0x40 MSTORE DUP2 ADD SWAP1 PUSH2 0x31 SWAP2 SWAP1 PUSH2 0x150 JUMP JUMPDEST DUP3 PUSH0 PUSH0 PUSH2 0x100 EXP DUP2 SLOAD DUP2 PUSH20 0xFFFFFFFFFFFFFFFFFFFFFFFFFFFFFFFFFFFFFFFF MUL NOT AND SWAP1 DUP4 PUSH20 0xFFFFFFFFFFFFFFFFFFFFFFFFFFFFFFFFFFFFFFFF AND MUL OR SWAP1 SSTORE POP DUP2 PUSH1 0x1 PUSH0 PUSH2 0x100 EXP DUP2 SLOAD DUP2 PUSH20 0xFFFFFFFFFFFFFFFFFFFFFFFFFFFFFFFFFFFFFFFF MUL NOT AND SWAP1 DUP4 PUSH20 0xFFFFFFFFFFFFFFFFFFFFFFFFFFFFFFFFFFFFFFFF AND MUL OR SWAP1 SSTORE POP DUP1 PUSH1 0x2 DUP2 SWAP1 SSTORE POP POP POP POP PUSH2 0x1A0 JUMP JUMPDEST PUSH0 PUSH0 REVERT JUMPDEST PUSH0 PUSH20 0xFFFFFFFFFFFFFFFFFFFFFFFFFFFFFFFFFFFFFFFF DUP3 AND SWAP1 POP SWAP2 SWAP1 POP JUMP JUMPDEST PUSH0 PUSH2 0xEC DUP3 PUSH2 0xC3 JUMP JUMPDEST SWAP1 POP SWAP2 SWAP1 POP JUMP JUMPDEST PUSH2 0xFC DUP2 PUSH2 0xE2 JUMP JUMPDEST DUP2 EQ PUSH2 0x106 JUMPI PUSH0 PUSH0 REVERT JUMPDEST POP JUMP JUMPDEST PUSH0 DUP2 MLOAD SWAP1 POP PUSH2 0x117 DUP2 PUSH2 0xF3 JUMP JUMPDEST SWAP3 SWAP2 POP POP JUMP JUMPDEST PUSH0 DUP2 SWAP1 POP SWAP2 SWAP1 POP JUMP JUMPDEST PUSH2 0x12F DUP2 PUSH2 0x11D JUMP JUMPDEST DUP2 EQ PUSH2 0x139 JUMPI PUSH0 PUSH0 REVERT JUMPDEST POP JUMP JUMPDEST PUSH0 DUP2 MLOAD SWAP1 POP PUSH2 0x14A DUP2 PUSH2 0x126 JUMP JUMPDEST SWAP3 SWAP2 POP POP JUMP JUMPDEST PUSH0 PUSH0 PUSH0 PUSH1 0x60 DUP5 DUP7 SUB SLT ISZERO PUSH2 0x167 JUMPI PUSH2 0x166 PUSH2 0xBF JUMP JUMPDEST JUMPDEST PUSH0 PUSH2 0x174 DUP7 DUP3 DUP8 ADD PUSH2 0x109 JUMP JUMPDEST SWAP4 POP POP PUSH1 0x20 PUSH2 0x185 DUP7 DUP3 DUP8 ADD PUSH2 0x109 JUMP JUMPDEST SWAP3 POP POP PUSH1 0x40 PUSH2 0x196 DUP7 DUP3 DUP8 ADD PUSH2 0x13C JUMP JUMPDEST SWAP2 POP POP SWAP3 POP SWAP3 POP SWAP3 JUMP JUMPDEST PUSH2 0x757 DUP1 PUSH2 0x1AD PUSH0 CODECOPY PUSH0 RETURN INVALID PUSH1 0x80 PUSH1 0x40 MSTORE CALLVALUE DUP1 ISZERO PUSH2 0xF JUMPI PUSH0 PUSH0 REVERT JUMPDEST POP PUSH1 0x4 CALLDATASIZE LT PUSH2 0x4A JUMPI PUSH0 CALLDATALOAD PUSH1 0xE0 SHR DUP1 PUSH4 0x25BE124E EQ PUSH2 0x4E JUMPI DUP1 PUSH4 0x2C4E722E EQ PUSH2 0x6C JUMPI DUP1 PUSH4 0xB0E01B2E EQ PUSH2 0x8A JUMPI DUP1 PUSH4 0xD21220A7 EQ PUSH2 0xA6 JUMPI JUMPDEST PUSH0 PUSH0 REVERT JUMPDEST PUSH2 0x56 PUSH2 0xC4 JUMP JUMPDEST PUSH1 0x40 MLOAD PUSH2 0x63 SWAP2 SWAP1 PUSH2 0x431 JUMP JUMPDEST PUSH1 0x40 MLOAD DUP1 SWAP2 SUB SWAP1 RETURN JUMPDEST PUSH2 0x74 PUSH2 0xE9 JUMP JUMPDEST PUSH1 0x40 MLOAD PUSH2 0x81 SWAP2 SWAP1 PUSH2 0x462 JUMP JUMPDEST PUSH1 0x40 MLOAD DUP1 SWAP2 SUB SWAP1 RETURN JUMPDEST PUSH2 0xA4 PUSH1 0x4 DUP1 CALLDATASIZE SUB DUP2 ADD SWAP1 PUSH2 0x9F SWAP2 SWAP1 PUSH2 0x4A9 JUMP JUMPDEST PUSH2 0xEF JUMP JUMPDEST STOP JUMPDEST PUSH2 0xAE PUSH2 0x393 JUMP JUMPDEST PUSH1 0x40 MLOAD PUSH2 0xBB SWAP2 SWAP1 PUSH2 0x431 JUMP JUMPDEST PUSH1 0x40 MLOAD DUP1 SWAP2 SUB SWAP1 RETURN JUMPDEST PUSH1 0x1 PUSH0 SWAP1 SLOAD SWAP1 PUSH2 0x100 EXP SWAP1 DIV PUSH20 0xFFFFFFFFFFFFFFFFFFFFFFFFFFFFFFFFFFFFFFFF AND DUP2 JUMP JUMPDEST PUSH1 0x2 SLOAD DUP2 JUMP JUMPDEST DUP1 PUSH0 PUSH0 SWAP1 SLOAD SWAP1 PUSH2 0x100 EXP SWAP1 DIV PUSH20 0xFFFFFFFFFFFFFFFFFFFFFFFFFFFFFFFFFFFFFFFF AND PUSH20 0xFFFFFFFFFFFFFFFFFFFFFFFFFFFFFFFFFFFFFFFF AND PUSH4 0xF8B2CB4F CALLER PUSH1 0x40 MLOAD DUP3 PUSH4 0xFFFFFFFF AND PUSH1 0xE0 SHL DUP2 MSTORE PUSH1 0x4 ADD PUSH2 0x149 SWAP2 SWAP1 PUSH2 0x4F4 JUMP JUMPDEST PUSH1 0x20 PUSH1 0x40 MLOAD DUP1 DUP4 SUB DUP2 DUP7 GAS STATICCALL ISZERO DUP1 ISZERO PUSH2 0x164 JUMPI RETURNDATASIZE PUSH0 PUSH0 RETURNDATACOPY RETURNDATASIZE PUSH0 REVERT JUMPDEST POP POP POP POP PUSH1 0x40 MLOAD RETURNDATASIZE PUSH1 0x1F NOT PUSH1 0x1F DUP3 ADD AND DUP3 ADD DUP1 PUSH1 0x40 MSTORE POP DUP2 ADD SWAP1 PUSH2 0x188 SWAP2 SWAP1 PUSH2 0x521 JUMP JUMPDEST LT ISZERO PUSH2 0x1C9 JUMPI PUSH1 0x40 MLOAD PUSH32 0x8C379A000000000000000000000000000000000000000000000000000000000 DUP2 MSTORE PUSH1 0x4 ADD PUSH2 0x1C0 SWAP1 PUSH2 0x5A6 JUMP JUMPDEST PUSH1 0x40 MLOAD DUP1 SWAP2 SUB SWAP1 REVERT JUMPDEST PUSH0 PUSH1 0x2 SLOAD DUP3 PUSH2 0x1D8 SWAP2 SWAP1 PUSH2 0x5F1 JUMP JUMPDEST SWAP1 POP PUSH0 PUSH0 SWAP1 SLOAD SWAP1 PUSH2 0x100 EXP SWAP1 DIV PUSH20 0xFFFFFFFFFFFFFFFFFFFFFFFFFFFFFFFFFFFFFFFF AND PUSH20 0xFFFFFFFFFFFFFFFFFFFFFFFFFFFFFFFFFFFFFFFF AND PUSH4 0xA9059CBB ADDRESS DUP5 PUSH1 0x40 MLOAD DUP4 PUSH4 0xFFFFFFFF AND PUSH1 0xE0 SHL DUP2 MSTORE PUSH1 0x4 ADD PUSH2 0x235 SWAP3 SWAP2 SWAP1 PUSH2 0x632 JUMP JUMPDEST PUSH1 0x20 PUSH1 0x40 MLOAD DUP1 DUP4 SUB DUP2 PUSH0 DUP8 GAS CALL ISZERO DUP1 ISZERO PUSH2 0x251 JUMPI RETURNDATASIZE PUSH0 PUSH0 RETURNDATACOPY RETURNDATASIZE PUSH0 REVERT JUMPDEST POP POP POP POP PUSH1 0x40 MLOAD RETURNDATASIZE PUSH1 0x1F NOT PUSH1 0x1F DUP3 ADD AND DUP3 ADD DUP1 PUSH1 0x40 MSTORE POP DUP2 ADD SWAP1 PUSH2 0x275 SWAP2 SWAP1 PUSH2 0x68E JUMP JUMPDEST PUSH2 0x2B4 JUMPI PUSH1 0x40 MLOAD PUSH32 0x8C379A000000000000000000000000000000000000000000000000000000000 DUP2 MSTORE PUSH1 0x4 ADD PUSH2 0x2AB SWAP1 PUSH2 0x703 JUMP JUMPDEST PUSH1 0x40 MLOAD DUP1 SWAP2 SUB SWAP1 REVERT JUMPDEST PUSH1 0x1 PUSH0 SWAP1 SLOAD SWAP1 PUSH2 0x100 EXP SWAP1 DIV PUSH20 0xFFFFFFFFFFFFFFFFFFFFFFFFFFFFFFFFFFFFFFFF AND PUSH20 0xFFFFFFFFFFFFFFFFFFFFFFFFFFFFFFFFFFFFFFFF AND PUSH4 0xA9059CBB CALLER DUP4 PUSH1 0x40 MLOAD DUP4 PUSH4 0xFFFFFFFF AND PUSH1 0xE0 SHL DUP2 MSTORE PUSH1 0x4 ADD PUSH2 0x310 SWAP3 SWAP2 SWAP1 PUSH2 0x632 JUMP JUMPDEST PUSH1 0x20 PUSH1 0x40 MLOAD DUP1 DUP4 SUB DUP2 PUSH0 DUP8 GAS CALL ISZERO DUP1 ISZERO PUSH2 0x32C JUMPI RETURNDATASIZE PUSH0 PUSH0 RETURNDATACOPY RETURNDATASIZE PUSH0 REVERT JUMPDEST POP POP POP POP PUSH1 0x40 MLOAD RETURNDATASIZE PUSH1 0x1F NOT PUSH1 0x1F DUP3 ADD AND DUP3 ADD DUP1 PUSH1 0x40 MSTORE POP DUP2 ADD SWAP1 PUSH2 0x350 SWAP2 SWAP1 PUSH2 0x68E JUMP JUMPDEST PUSH2 0x38F JUMPI PUSH1 0x40 MLOAD PUSH32 0x8C379A000000000000000000000000000000000000000000000000000000000 DUP2 MSTORE PUSH1 0x4 ADD PUSH2 0x386 SWAP1 PUSH2 0x703 JUMP JUMPDEST PUSH1 0x40 MLOAD DUP1 SWAP2 SUB SWAP1 REVERT JUMPDEST POP POP JUMP JUMPDEST PUSH0 PUSH0 SWAP1 SLOAD SWAP1 PUSH2 0x100 EXP SWAP1 DIV PUSH20 0xFFFFFFFFFFFFFFFFFFFFFFFFFFFFFFFFFFFFFFFF AND DUP2 JUMP JUMPDEST PUSH0 PUSH20 0xFFFFFFFFFFFFFFFFFFFFFFFFFFFFFFFFFFFFFFFF DUP3 AND SWAP1 POP SWAP2 SWAP1 POP JUMP JUMPDEST PUSH0 DUP2 SWAP1 POP SWAP2 SWAP1 POP JUMP JUMPDEST PUSH0 PUSH2 0x3F9 PUSH2 0x3F4 PUSH2 0x3EF DUP5 PUSH2 0x3B7 JUMP JUMPDEST PUSH2 0x3D6 JUMP JUMPDEST PUSH2 0x3B7 JUMP JUMPDEST SWAP1 POP SWAP2 SWAP1 POP JUMP JUMPDEST PUSH0 PUSH2 0x40A DUP3 PUSH2 0x3DF JUMP JUMPDEST SWAP1 POP SWAP2 SWAP1 POP JUMP JUMPDEST PUSH0 PUSH2 0x41B DUP3 PUSH2 0x400 JUMP JUMPDEST SWAP1 POP SWAP2 SWAP1 POP JUMP JUMPDEST PUSH2 0x42B DUP2 PUSH2 0x411 JUMP JUMPDEST DUP3 MSTORE POP POP JUMP JUMPDEST PUSH0 PUSH1 0x20 DUP3 ADD SWAP1 POP PUSH2 0x444 PUSH0 DUP4 ADD DUP5 PUSH2 0x422 JUMP JUMPDEST SWAP3 SWAP2 POP POP JUMP JUMPDEST PUSH0 DUP2 SWAP1 POP SWAP2 SWAP1 POP JUMP JUMPDEST PUSH2 0x45C DUP2 PUSH2 0x44A JUMP JUMPDEST DUP3 MSTORE POP POP JUMP JUMPDEST PUSH0 PUSH1 0x20 DUP3 ADD SWAP1 POP PUSH2 0x475 PUSH0 DUP4 ADD DUP5 PUSH2 0x453 JUMP JUMPDEST SWAP3 SWAP2 POP POP JUMP JUMPDEST PUSH0 PUSH0 REVERT JUMPDEST PUSH2 0x488 DUP2 PUSH2 0x44A JUMP JUMPDEST DUP2 EQ PUSH2 0x492 JUMPI PUSH0 PUSH0 REVERT JUMPDEST POP JUMP JUMPDEST PUSH0 DUP2 CALLDATALOAD SWAP1 POP PUSH2 0x4A3 DUP2 PUSH2 0x47F JUMP JUMPDEST SWAP3 SWAP2 POP POP JUMP JUMPDEST PUSH0 PUSH1 0x20 DUP3 DUP5 SUB SLT ISZERO PUSH2 0x4BE JUMPI PUSH2 0x4BD PUSH2 0x47B JUMP JUMPDEST JUMPDEST PUSH0 PUSH2 0x4CB DUP5 DUP3 DUP6 ADD PUSH2 0x495 JUMP JUMPDEST SWAP2 POP POP SWAP3 SWAP2 POP POP JUMP JUMPDEST PUSH0 PUSH2 0x4DE DUP3 PUSH2 0x3B7 JUMP JUMPDEST SWAP1 POP SWAP2 SWAP1 POP JUMP JUMPDEST PUSH2 0x4EE DUP2 PUSH2 0x4D4 JUMP JUMPDEST DUP3 MSTORE POP POP JUMP JUMPDEST PUSH0 PUSH1 0x20 DUP3 ADD SWAP1 POP PUSH2 0x507 PUSH0 DUP4 ADD DUP5 PUSH2 0x4E5 JUMP JUMPDEST SWAP3 SWAP2 POP POP JUMP JUMPDEST PUSH0 DUP2 MLOAD SWAP1 POP PUSH2 0x51B DUP2 PUSH2 0x47F JUMP JUMPDEST SWAP3 SWAP2 POP POP JUMP JUMPDEST PUSH0 PUSH1 0x20 DUP3 DUP5 SUB SLT ISZERO PUSH2 0x536 JUMPI PUSH2 0x535 PUSH2 0x47B JUMP JUMPDEST JUMPDEST PUSH0 PUSH2 0x543 DUP5 DUP3 DUP6 ADD PUSH2 0x50D JUMP JUMPDEST SWAP2 POP POP SWAP3 SWAP2 POP POP JUMP JUMPDEST PUSH0 DUP3 DUP3 MSTORE PUSH1 0x20 DUP3 ADD SWAP1 POP SWAP3 SWAP2 POP POP JUMP JUMPDEST PUSH32 0x496E73756666696369656E742042616C616E6365000000000000000000000000 PUSH0 DUP3 ADD MSTORE POP JUMP JUMPDEST PUSH0 PUSH2 0x590 PUSH1 0x14 DUP4 PUSH2 0x54C JUMP JUMPDEST SWAP2 POP PUSH2 0x59B DUP3 PUSH2 0x55C JUMP JUMPDEST PUSH1 0x20 DUP3 ADD SWAP1 POP SWAP2 SWAP1 POP JUMP JUMPDEST PUSH0 PUSH1 0x20 DUP3 ADD SWAP1 POP DUP2 DUP2 SUB PUSH0 DUP4 ADD MSTORE PUSH2 0x5BD DUP2 PUSH2 0x584 JUMP JUMPDEST SWAP1 POP SWAP2 SWAP1 POP JUMP JUMPDEST PUSH32 0x4E487B7100000000000000000000000000000000000000000000000000000000 PUSH0 MSTORE PUSH1 0x11 PUSH1 0x4 MSTORE PUSH1 0x24 PUSH0 REVERT JUMPDEST PUSH0 PUSH2 0x5FB DUP3 PUSH2 0x44A JUMP JUMPDEST SWAP2 POP PUSH2 0x606 DUP4 PUSH2 0x44A JUMP JUMPDEST SWAP3 POP DUP3 DUP3 MUL PUSH2 0x614 DUP2 PUSH2 0x44A JUMP JUMPDEST SWAP2 POP DUP3 DUP3 DIV DUP5 EQ DUP4 ISZERO OR PUSH2 0x62B JUMPI PUSH2 0x62A PUSH2 0x5C4 JUMP JUMPDEST JUMPDEST POP SWAP3 SWAP2 POP POP JUMP JUMPDEST PUSH0 PUSH1 0x40 DUP3 ADD SWAP1 POP PUSH2 0x645 PUSH0 DUP4 ADD DUP6 PUSH2 0x4E5 JUMP JUMPDEST PUSH2 0x652 PUSH1 0x20 DUP4 ADD DUP5 PUSH2 0x453 JUMP JUMPDEST SWAP4 SWAP3 POP POP POP JUMP JUMPDEST PUSH0 DUP2 ISZERO ISZERO SWAP1 POP SWAP2 SWAP1 POP JUMP JUMPDEST PUSH2 0x66D DUP2 PUSH2 0x659 JUMP JUMPDEST DUP2 EQ PUSH2 0x677 JUMPI PUSH0 PUSH0 REVERT JUMPDEST POP JUMP JUMPDEST PUSH0 DUP2 MLOAD SWAP1 POP PUSH2 0x688 DUP2 PUSH2 0x664 JUMP JUMPDEST SWAP3 SWAP2 POP POP JUMP JUMPDEST PUSH0 PUSH1 0x20 DUP3 DUP5 SUB SLT ISZERO PUSH2 0x6A3 JUMPI PUSH2 0x6A2 PUSH2 0x47B JUMP JUMPDEST JUMPDEST PUSH0 PUSH2 0x6B0 DUP5 DUP3 DUP6 ADD PUSH2 0x67A JUMP JUMPDEST SWAP2 POP POP SWAP3 SWAP2 POP POP JUMP JUMPDEST PUSH32 0x5472616E73666572204661696C64000000000000000000000000000000000000 PUSH0 DUP3 ADD MSTORE POP JUMP JUMPDEST PUSH0 PUSH2 0x6ED PUSH1 0xE DUP4 PUSH2 0x54C JUMP JUMPDEST SWAP2 POP PUSH2 0x6F8 DUP3 PUSH2 0x6B9 JUMP JUMPDEST PUSH1 0x20 DUP3 ADD SWAP1 POP SWAP2 SWAP1 POP JUMP JUMPDEST PUSH0 PUSH1 0x20 DUP3 ADD SWAP1 POP DUP2 DUP2 SUB PUSH0 DUP4 ADD MSTORE PUSH2 0x71A DUP2 PUSH2 0x6E1 JUMP JUMPDEST SWAP1 POP SWAP2 SWAP1 POP JUMP INVALID LOG2 PUSH5 0x6970667358 0x22 SLT KECCAK256 SUB 0x29 0xCA AND 0x1E 0xC7 0xB0 0xD7 MUL TSTORE MUL 0xE8 0xE8 SHL SWAPN 0xDD PUSH10 0x9BF436C28E9C2F1C5FC9 PUSH12 0xDF7677DE64736F6C63430008 SAR STOP CALLER "
				},
				"gasEstimates": {
					"creation": {
						"codeDepositCost": "375800",
						"executionCost": "infinite",
						"totalCost": "infinite"
					},
					"external": {
						"SwapToken(uint256)": "infinite",
						"rate()": "2425",
						"token1()": "infinite",
						"token2()": "infinite"
					}
				},
				"methodIdentifiers": {
					"SwapToken(uint256)": "b0e01b2e",
					"rate()": "2c4e722e",
					"token1()": "d21220a7",
					"token2()": "25be124e"
				}
			},
			"storageLayout": {
				"storage": [
					{
						"astId": 163,
						"contract": "interface/Interface.sol:TokenExchange",
						"label": "token1",
						"offset": 0,
						"slot": "0",
						"type": "t_contract(IToken)25"
					},
					{
						"astId": 166,
						"contract": "interface/Interface.sol:TokenExchange",
						"label": "token2",
						"offset": 0,
						"slot": "1",
						"type": "t_contract(IToken)25"
					},
					{
						"astId": 168,
						"contract": "interface/Interface.sol:TokenExchange",
						"label": "rate",
						"offset": 0,
						"slot": "2",
						"type": "t_uint256"
					}
				],
				"types": {
					"t_contract(IToken)25": {
						"encoding": "inplace",
						"label": "contract IToken",
						"numberOfBytes": "20"
					},
					"t_uint256": {
						"encoding": "inplace",
						"label": "uint256",
						"numberOfBytes": "32"
					}
				}
			},
			"userdoc": {
				"kind": "user",
				"methods": {},
				"version": 1
			}
		}
	}
}