{
	"Problem-Hard/AccessControlledBank.sol": {
		"AccessControlledBank": {
			"abi": [
				{
					"inputs": [],
					"stateMutability": "nonpayable",
					"type": "constructor"
				},
				{
					"inputs": [
						{
							"internalType": "uint256",
							"name": "amount",
							"type": "uint256"
						},
						{
							"internalType": "string",
							"name": "message",
							"type": "string"
						}
					],
					"name": "insufficientBalance",
					"type": "error"
				},
				{
					"inputs": [
						{
							"internalType": "address",
							"name": "_account",
							"type": "address"
						},
						{
							"internalType": "uint256",
							"name": "amount",
							"type": "uint256"
						}
					],
					"name": "Deposit",
					"outputs": [
						{
							"internalType": "bool",
							"name": "",
							"type": "bool"
						}
					],
					"stateMutability": "nonpayable",
					"type": "function"
				},
				{
					"inputs": [
						{
							"internalType": "uint256",
							"name": "amount",
							"type": "uint256"
						}
					],
					"name": "createAccount",
					"outputs": [
						{
							"internalType": "bool",
							"name": "",
							"type": "bool"
						}
					],
					"stateMutability": "nonpayable",
					"type": "function"
				},
				{
					"inputs": [],
					"name": "getBal",
					"outputs": [
						{
							"internalType": "uint256",
							"name": "",
							"type": "uint256"
						}
					],
					"stateMutability": "view",
					"type": "function"
				},
				{
					"inputs": [
						{
							"internalType": "uint256",
							"name": "amount",
							"type": "uint256"
						}
					],
					"name": "withdraw",
					"outputs": [
						{
							"internalType": "bool",
							"name": "",
							"type": "bool"
						}
					],
					"stateMutability": "nonpayable",
					"type": "function"
				}
			],
			"devdoc": {
				"kind": "dev",
				"methods": {},
				"version": 1
			},
			"evm": {
				"assembly": "    /* \"Problem-Hard/AccessControlledBank.sol\":58:1565  contract AccessControlledBank {... */\n  mstore(0x40, 0x80)\n    /* \"Problem-Hard/AccessControlledBank.sol\":353:414  constructor() {... */\n  callvalue\n  dup1\n  iszero\n  tag_1\n  jumpi\n  0x00\n  dup1\n  revert\ntag_1:\n  pop\n    /* \"Problem-Hard/AccessControlledBank.sol\":397:407  Role.Admin */\n  0x00\n    /* \"Problem-Hard/AccessControlledBank.sol\":377:382  roles */\n  dup1\n    /* \"Problem-Hard/AccessControlledBank.sol\":377:394  roles[msg.sender] */\n  0x00\n    /* \"Problem-Hard/AccessControlledBank.sol\":383:393  msg.sender */\n  caller\n    /* \"Problem-Hard/AccessControlledBank.sol\":377:394  roles[msg.sender] */\n  0xffffffffffffffffffffffffffffffffffffffff\n  and\n  0xffffffffffffffffffffffffffffffffffffffff\n  and\n  dup2\n  mstore\n  0x20\n  add\n  swap1\n  dup2\n  mstore\n  0x20\n  add\n  0x00\n  keccak256\n  0x00\n    /* \"Problem-Hard/AccessControlledBank.sol\":377:407  roles[msg.sender] = Role.Admin */\n  0x0100\n  exp\n  dup2\n  sload\n  dup2\n  0xff\n  mul\n  not\n  and\n  swap1\n  dup4\n  0x01\n  dup2\n  gt\n  iszero\n  tag_4\n  jumpi\n  tag_5\n  tag_6\n  jump\t// in\ntag_5:\ntag_4:\n  mul\n  or\n  swap1\n  sstore\n  pop\n    /* \"Problem-Hard/AccessControlledBank.sol\":58:1565  contract AccessControlledBank {... */\n  jump(tag_7)\n    /* \"#utility.yul\":7:187   */\ntag_6:\n    /* \"#utility.yul\":55:132   */\n  0x4e487b7100000000000000000000000000000000000000000000000000000000\n    /* \"#utility.yul\":52:53   */\n  0x00\n    /* \"#utility.yul\":45:133   */\n  mstore\n    /* \"#utility.yul\":152:156   */\n  0x21\n    /* \"#utility.yul\":149:150   */\n  0x04\n    /* \"#utility.yul\":142:157   */\n  mstore\n    /* \"#utility.yul\":176:180   */\n  0x24\n    /* \"#utility.yul\":173:174   */\n  0x00\n    /* \"#utility.yul\":166:181   */\n  revert\n    /* \"Problem-Hard/AccessControlledBank.sol\":58:1565  contract AccessControlledBank {... */\ntag_7:\n  dataSize(sub_0)\n  dup1\n  dataOffset(sub_0)\n  0x00\n  codecopy\n  0x00\n  return\nstop\n\nsub_0: assembly {\n        /* \"Problem-Hard/AccessControlledBank.sol\":58:1565  contract AccessControlledBank {... */\n      mstore(0x40, 0x80)\n      callvalue\n      dup1\n      iszero\n      tag_1\n      jumpi\n      0x00\n      dup1\n      revert\n    tag_1:\n      pop\n      jumpi(tag_2, lt(calldatasize, 0x04))\n      shr(0xe0, calldataload(0x00))\n      dup1\n      0x25caa262\n      eq\n      tag_3\n      jumpi\n      dup1\n      0x2e1a7d4d\n      eq\n      tag_4\n      jumpi\n      dup1\n      0xcab13915\n      eq\n      tag_5\n      jumpi\n      dup1\n      0xe1fffcc4\n      eq\n      tag_6\n      jumpi\n    tag_2:\n      0x00\n      dup1\n      revert\n        /* \"Problem-Hard/AccessControlledBank.sol\":1473:1563  function getBal() public view returns(uint256){... */\n    tag_3:\n      tag_7\n      tag_8\n      jump\t// in\n    tag_7:\n      mload(0x40)\n      tag_9\n      swap2\n      swap1\n      tag_10\n      jump\t// in\n    tag_9:\n      mload(0x40)\n      dup1\n      swap2\n      sub\n      swap1\n      return\n        /* \"Problem-Hard/AccessControlledBank.sol\":1212:1467  function withdraw(uint256 amount) public returns (bool) {... */\n    tag_4:\n      tag_11\n      0x04\n      dup1\n      calldatasize\n      sub\n      dup2\n      add\n      swap1\n      tag_12\n      swap2\n      swap1\n      tag_13\n      jump\t// in\n    tag_12:\n      tag_14\n      jump\t// in\n    tag_11:\n      mload(0x40)\n      tag_15\n      swap2\n      swap1\n      tag_16\n      jump\t// in\n    tag_15:\n      mload(0x40)\n      dup1\n      swap2\n      sub\n      swap1\n      return\n        /* \"Problem-Hard/AccessControlledBank.sol\":546:886  function createAccount(uint256 amount) public returns (bool) {... */\n    tag_5:\n      tag_17\n      0x04\n      dup1\n      calldatasize\n      sub\n      dup2\n      add\n      swap1\n      tag_18\n      swap2\n      swap1\n      tag_13\n      jump\t// in\n    tag_18:\n      tag_19\n      jump\t// in\n    tag_17:\n      mload(0x40)\n      tag_20\n      swap2\n      swap1\n      tag_16\n      jump\t// in\n    tag_20:\n      mload(0x40)\n      dup1\n      swap2\n      sub\n      swap1\n      return\n        /* \"Problem-Hard/AccessControlledBank.sol\":892:1206  function Deposit(address _account, uint256 amount)... */\n    tag_6:\n      tag_21\n      0x04\n      dup1\n      calldatasize\n      sub\n      dup2\n      add\n      swap1\n      tag_22\n      swap2\n      swap1\n      tag_23\n      jump\t// in\n    tag_22:\n      tag_24\n      jump\t// in\n    tag_21:\n      mload(0x40)\n      tag_25\n      swap2\n      swap1\n      tag_16\n      jump\t// in\n    tag_25:\n      mload(0x40)\n      dup1\n      swap2\n      sub\n      swap1\n      return\n        /* \"Problem-Hard/AccessControlledBank.sol\":1473:1563  function getBal() public view returns(uint256){... */\n    tag_8:\n        /* \"Problem-Hard/AccessControlledBank.sol\":1511:1518  uint256 */\n      0x00\n        /* \"Problem-Hard/AccessControlledBank.sol\":1536:1544  balances */\n      0x01\n        /* \"Problem-Hard/AccessControlledBank.sol\":1536:1556  balances[msg.sender] */\n      0x00\n        /* \"Problem-Hard/AccessControlledBank.sol\":1545:1555  msg.sender */\n      caller\n        /* \"Problem-Hard/AccessControlledBank.sol\":1536:1556  balances[msg.sender] */\n      0xffffffffffffffffffffffffffffffffffffffff\n      and\n      0xffffffffffffffffffffffffffffffffffffffff\n      and\n      dup2\n      mstore\n      0x20\n      add\n      swap1\n      dup2\n      mstore\n      0x20\n      add\n      0x00\n      keccak256\n      sload\n        /* \"Problem-Hard/AccessControlledBank.sol\":1529:1556  return balances[msg.sender] */\n      swap1\n      pop\n        /* \"Problem-Hard/AccessControlledBank.sol\":1473:1563  function getBal() public view returns(uint256){... */\n      swap1\n      jump\t// out\n        /* \"Problem-Hard/AccessControlledBank.sol\":1212:1467  function withdraw(uint256 amount) public returns (bool) {... */\n    tag_14:\n        /* \"Problem-Hard/AccessControlledBank.sol\":1262:1266  bool */\n      0x00\n        /* \"Problem-Hard/AccessControlledBank.sol\":1305:1311  amount */\n      dup2\n        /* \"Problem-Hard/AccessControlledBank.sol\":1282:1290  balances */\n      0x01\n        /* \"Problem-Hard/AccessControlledBank.sol\":1282:1302  balances[msg.sender] */\n      0x00\n        /* \"Problem-Hard/AccessControlledBank.sol\":1291:1301  msg.sender */\n      caller\n        /* \"Problem-Hard/AccessControlledBank.sol\":1282:1302  balances[msg.sender] */\n      0xffffffffffffffffffffffffffffffffffffffff\n      and\n      0xffffffffffffffffffffffffffffffffffffffff\n      and\n      dup2\n      mstore\n      0x20\n      add\n      swap1\n      dup2\n      mstore\n      0x20\n      add\n      0x00\n      keccak256\n      sload\n        /* \"Problem-Hard/AccessControlledBank.sol\":1282:1311  balances[msg.sender] > amount */\n      gt\n        /* \"Problem-Hard/AccessControlledBank.sol\":1278:1393  if (balances[msg.sender] > amount) {... */\n      iszero\n      tag_28\n      jumpi\n        /* \"Problem-Hard/AccessControlledBank.sol\":1351:1357  amount */\n      dup2\n        /* \"Problem-Hard/AccessControlledBank.sol\":1327:1335  balances */\n      0x01\n        /* \"Problem-Hard/AccessControlledBank.sol\":1327:1347  balances[msg.sender] */\n      0x00\n        /* \"Problem-Hard/AccessControlledBank.sol\":1336:1346  msg.sender */\n      caller\n        /* \"Problem-Hard/AccessControlledBank.sol\":1327:1347  balances[msg.sender] */\n      0xffffffffffffffffffffffffffffffffffffffff\n      and\n      0xffffffffffffffffffffffffffffffffffffffff\n      and\n      dup2\n      mstore\n      0x20\n      add\n      swap1\n      dup2\n      mstore\n      0x20\n      add\n      0x00\n      keccak256\n      0x00\n        /* \"Problem-Hard/AccessControlledBank.sol\":1327:1357  balances[msg.sender] -= amount */\n      dup3\n      dup3\n      sload\n      tag_29\n      swap2\n      swap1\n      tag_30\n      jump\t// in\n    tag_29:\n      swap3\n      pop\n      pop\n      dup2\n      swap1\n      sstore\n      pop\n        /* \"Problem-Hard/AccessControlledBank.sol\":1378:1382  true */\n      0x01\n        /* \"Problem-Hard/AccessControlledBank.sol\":1371:1382  return true */\n      swap1\n      pop\n      jump(tag_27)\n        /* \"Problem-Hard/AccessControlledBank.sol\":1278:1393  if (balances[msg.sender] > amount) {... */\n    tag_28:\n        /* \"Problem-Hard/AccessControlledBank.sol\":1429:1435  amount */\n      dup2\n        /* \"Problem-Hard/AccessControlledBank.sol\":1409:1460  insufficientBalance(amount, \"insufficient Balance\") */\n      mload(0x40)\n      0x873e5c7800000000000000000000000000000000000000000000000000000000\n      dup2\n      mstore\n      0x04\n      add\n      tag_31\n      swap2\n      swap1\n      tag_32\n      jump\t// in\n    tag_31:\n      mload(0x40)\n      dup1\n      swap2\n      sub\n      swap1\n      revert\n        /* \"Problem-Hard/AccessControlledBank.sol\":1212:1467  function withdraw(uint256 amount) public returns (bool) {... */\n    tag_27:\n      swap2\n      swap1\n      pop\n      jump\t// out\n        /* \"Problem-Hard/AccessControlledBank.sol\":546:886  function createAccount(uint256 amount) public returns (bool) {... */\n    tag_19:\n        /* \"Problem-Hard/AccessControlledBank.sol\":601:605  bool */\n      0x00\n        /* \"Problem-Hard/AccessControlledBank.sol\":626:636  alreadyAcc */\n      0x02\n        /* \"Problem-Hard/AccessControlledBank.sol\":626:648  alreadyAcc[msg.sender] */\n      0x00\n        /* \"Problem-Hard/AccessControlledBank.sol\":637:647  msg.sender */\n      caller\n        /* \"Problem-Hard/AccessControlledBank.sol\":626:648  alreadyAcc[msg.sender] */\n      0xffffffffffffffffffffffffffffffffffffffff\n      and\n      0xffffffffffffffffffffffffffffffffffffffff\n      and\n      dup2\n      mstore\n      0x20\n      add\n      swap1\n      dup2\n      mstore\n      0x20\n      add\n      0x00\n      keccak256\n      0x00\n      swap1\n      sload\n      swap1\n      0x0100\n      exp\n      swap1\n      div\n      0xff\n      and\n        /* \"Problem-Hard/AccessControlledBank.sol\":625:648  !alreadyAcc[msg.sender] */\n      iszero\n        /* \"Problem-Hard/AccessControlledBank.sol\":617:679  require(!alreadyAcc[msg.sender], \"You have already a account\") */\n      tag_34\n      jumpi\n      mload(0x40)\n      0x08c379a000000000000000000000000000000000000000000000000000000000\n      dup2\n      mstore\n      0x04\n      add\n      tag_35\n      swap1\n      tag_36\n      jump\t// in\n    tag_35:\n      mload(0x40)\n      dup1\n      swap2\n      sub\n      swap1\n      revert\n    tag_34:\n        /* \"Problem-Hard/AccessControlledBank.sol\":706:707  0 */\n      0x00\n        /* \"Problem-Hard/AccessControlledBank.sol\":697:703  amount */\n      dup3\n        /* \"Problem-Hard/AccessControlledBank.sol\":697:707  amount > 0 */\n      gt\n        /* \"Problem-Hard/AccessControlledBank.sol\":689:741  require(amount > 0, \"Amount must be greater then 0\") */\n      tag_37\n      jumpi\n      mload(0x40)\n      0x08c379a000000000000000000000000000000000000000000000000000000000\n      dup2\n      mstore\n      0x04\n      add\n      tag_38\n      swap1\n      tag_39\n      jump\t// in\n    tag_38:\n      mload(0x40)\n      dup1\n      swap2\n      sub\n      swap1\n      revert\n    tag_37:\n        /* \"Problem-Hard/AccessControlledBank.sol\":774:780  amount */\n      dup2\n        /* \"Problem-Hard/AccessControlledBank.sol\":751:759  balances */\n      0x01\n        /* \"Problem-Hard/AccessControlledBank.sol\":751:771  balances[msg.sender] */\n      0x00\n        /* \"Problem-Hard/AccessControlledBank.sol\":760:770  msg.sender */\n      caller\n        /* \"Problem-Hard/AccessControlledBank.sol\":751:771  balances[msg.sender] */\n      0xffffffffffffffffffffffffffffffffffffffff\n      and\n      0xffffffffffffffffffffffffffffffffffffffff\n      and\n      dup2\n      mstore\n      0x20\n      add\n      swap1\n      dup2\n      mstore\n      0x20\n      add\n      0x00\n      keccak256\n        /* \"Problem-Hard/AccessControlledBank.sol\":751:780  balances[msg.sender] = amount */\n      dup2\n      swap1\n      sstore\n      pop\n        /* \"Problem-Hard/AccessControlledBank.sol\":810:819  Role.User */\n      0x01\n        /* \"Problem-Hard/AccessControlledBank.sol\":790:795  roles */\n      0x00\n        /* \"Problem-Hard/AccessControlledBank.sol\":790:807  roles[msg.sender] */\n      dup1\n        /* \"Problem-Hard/AccessControlledBank.sol\":796:806  msg.sender */\n      caller\n        /* \"Problem-Hard/AccessControlledBank.sol\":790:807  roles[msg.sender] */\n      0xffffffffffffffffffffffffffffffffffffffff\n      and\n      0xffffffffffffffffffffffffffffffffffffffff\n      and\n      dup2\n      mstore\n      0x20\n      add\n      swap1\n      dup2\n      mstore\n      0x20\n      add\n      0x00\n      keccak256\n      0x00\n        /* \"Problem-Hard/AccessControlledBank.sol\":790:819  roles[msg.sender] = Role.User */\n      0x0100\n      exp\n      dup2\n      sload\n      dup2\n      0xff\n      mul\n      not\n      and\n      swap1\n      dup4\n      0x01\n      dup2\n      gt\n      iszero\n      tag_40\n      jumpi\n      tag_41\n      tag_42\n      jump\t// in\n    tag_41:\n    tag_40:\n      mul\n      or\n      swap1\n      sstore\n      pop\n        /* \"Problem-Hard/AccessControlledBank.sol\":854:858  true */\n      0x01\n        /* \"Problem-Hard/AccessControlledBank.sol\":829:839  alreadyAcc */\n      0x02\n        /* \"Problem-Hard/AccessControlledBank.sol\":829:851  alreadyAcc[msg.sender] */\n      0x00\n        /* \"Problem-Hard/AccessControlledBank.sol\":840:850  msg.sender */\n      caller\n        /* \"Problem-Hard/AccessControlledBank.sol\":829:851  alreadyAcc[msg.sender] */\n      0xffffffffffffffffffffffffffffffffffffffff\n      and\n      0xffffffffffffffffffffffffffffffffffffffff\n      and\n      dup2\n      mstore\n      0x20\n      add\n      swap1\n      dup2\n      mstore\n      0x20\n      add\n      0x00\n      keccak256\n      0x00\n        /* \"Problem-Hard/AccessControlledBank.sol\":829:858  alreadyAcc[msg.sender] = true */\n      0x0100\n      exp\n      dup2\n      sload\n      dup2\n      0xff\n      mul\n      not\n      and\n      swap1\n      dup4\n      iszero\n      iszero\n      mul\n      or\n      swap1\n      sstore\n      pop\n        /* \"Problem-Hard/AccessControlledBank.sol\":875:879  true */\n      0x01\n        /* \"Problem-Hard/AccessControlledBank.sol\":868:879  return true */\n      swap1\n      pop\n        /* \"Problem-Hard/AccessControlledBank.sol\":546:886  function createAccount(uint256 amount) public returns (bool) {... */\n      swap2\n      swap1\n      pop\n      jump\t// out\n        /* \"Problem-Hard/AccessControlledBank.sol\":892:1206  function Deposit(address _account, uint256 amount)... */\n    tag_24:\n        /* \"Problem-Hard/AccessControlledBank.sol\":993:997  bool */\n      0x00\n        /* \"Problem-Hard/AccessControlledBank.sol\":480:490  Role.Admin */\n      dup1\n        /* \"Problem-Hard/AccessControlledBank.sol\":459:490  roles[msg.sender] == Role.Admin */\n      0x01\n      dup2\n      gt\n      iszero\n      tag_44\n      jumpi\n      tag_45\n      tag_42\n      jump\t// in\n    tag_45:\n    tag_44:\n        /* \"Problem-Hard/AccessControlledBank.sol\":459:464  roles */\n      0x00\n        /* \"Problem-Hard/AccessControlledBank.sol\":459:476  roles[msg.sender] */\n      dup1\n        /* \"Problem-Hard/AccessControlledBank.sol\":465:475  msg.sender */\n      caller\n        /* \"Problem-Hard/AccessControlledBank.sol\":459:476  roles[msg.sender] */\n      0xffffffffffffffffffffffffffffffffffffffff\n      and\n      0xffffffffffffffffffffffffffffffffffffffff\n      and\n      dup2\n      mstore\n      0x20\n      add\n      swap1\n      dup2\n      mstore\n      0x20\n      add\n      0x00\n      keccak256\n      0x00\n      swap1\n      sload\n      swap1\n      0x0100\n      exp\n      swap1\n      div\n      0xff\n      and\n        /* \"Problem-Hard/AccessControlledBank.sol\":459:490  roles[msg.sender] == Role.Admin */\n      0x01\n      dup2\n      gt\n      iszero\n      tag_46\n      jumpi\n      tag_47\n      tag_42\n      jump\t// in\n    tag_47:\n    tag_46:\n      eq\n        /* \"Problem-Hard/AccessControlledBank.sol\":451:522  require(roles[msg.sender] == Role.Admin, \"Only Admin can do This Task\") */\n      tag_48\n      jumpi\n      mload(0x40)\n      0x08c379a000000000000000000000000000000000000000000000000000000000\n      dup2\n      mstore\n      0x04\n      add\n      tag_49\n      swap1\n      tag_50\n      jump\t// in\n    tag_49:\n      mload(0x40)\n      dup1\n      swap2\n      sub\n      swap1\n      revert\n    tag_48:\n        /* \"Problem-Hard/AccessControlledBank.sol\":1030:1031  0 */\n      0x00\n        /* \"Problem-Hard/AccessControlledBank.sol\":1021:1027  amount */\n      dup3\n        /* \"Problem-Hard/AccessControlledBank.sol\":1021:1031  amount > 0 */\n      gt\n        /* \"Problem-Hard/AccessControlledBank.sol\":1013:1072  require(amount > 0, \"Deposit amount should be more then 0\") */\n      tag_52\n      jumpi\n      mload(0x40)\n      0x08c379a000000000000000000000000000000000000000000000000000000000\n      dup2\n      mstore\n      0x04\n      add\n      tag_53\n      swap1\n      tag_54\n      jump\t// in\n    tag_53:\n      mload(0x40)\n      dup1\n      swap2\n      sub\n      swap1\n      revert\n    tag_52:\n        /* \"Problem-Hard/AccessControlledBank.sol\":1090:1100  alreadyAcc */\n      0x02\n        /* \"Problem-Hard/AccessControlledBank.sol\":1090:1110  alreadyAcc[_account] */\n      0x00\n        /* \"Problem-Hard/AccessControlledBank.sol\":1101:1109  _account */\n      dup5\n        /* \"Problem-Hard/AccessControlledBank.sol\":1090:1110  alreadyAcc[_account] */\n      0xffffffffffffffffffffffffffffffffffffffff\n      and\n      0xffffffffffffffffffffffffffffffffffffffff\n      and\n      dup2\n      mstore\n      0x20\n      add\n      swap1\n      dup2\n      mstore\n      0x20\n      add\n      0x00\n      keccak256\n      0x00\n      swap1\n      sload\n      swap1\n      0x0100\n      exp\n      swap1\n      div\n      0xff\n      and\n        /* \"Problem-Hard/AccessControlledBank.sol\":1082:1138  require(alreadyAcc[_account], \"First create an account\") */\n      tag_55\n      jumpi\n      mload(0x40)\n      0x08c379a000000000000000000000000000000000000000000000000000000000\n      dup2\n      mstore\n      0x04\n      add\n      tag_56\n      swap1\n      tag_57\n      jump\t// in\n    tag_56:\n      mload(0x40)\n      dup1\n      swap2\n      sub\n      swap1\n      revert\n    tag_55:\n        /* \"Problem-Hard/AccessControlledBank.sol\":1171:1177  amount */\n      dup2\n        /* \"Problem-Hard/AccessControlledBank.sol\":1149:1157  balances */\n      0x01\n        /* \"Problem-Hard/AccessControlledBank.sol\":1149:1167  balances[_account] */\n      0x00\n        /* \"Problem-Hard/AccessControlledBank.sol\":1158:1166  _account */\n      dup6\n        /* \"Problem-Hard/AccessControlledBank.sol\":1149:1167  balances[_account] */\n      0xffffffffffffffffffffffffffffffffffffffff\n      and\n      0xffffffffffffffffffffffffffffffffffffffff\n      and\n      dup2\n      mstore\n      0x20\n      add\n      swap1\n      dup2\n      mstore\n      0x20\n      add\n      0x00\n      keccak256\n      0x00\n        /* \"Problem-Hard/AccessControlledBank.sol\":1149:1177  balances[_account] += amount */\n      dup3\n      dup3\n      sload\n      tag_58\n      swap2\n      swap1\n      tag_59\n      jump\t// in\n    tag_58:\n      swap3\n      pop\n      pop\n      dup2\n      swap1\n      sstore\n      pop\n        /* \"Problem-Hard/AccessControlledBank.sol\":1195:1199  true */\n      0x01\n        /* \"Problem-Hard/AccessControlledBank.sol\":1188:1199  return true */\n      swap1\n      pop\n        /* \"Problem-Hard/AccessControlledBank.sol\":892:1206  function Deposit(address _account, uint256 amount)... */\n      swap3\n      swap2\n      pop\n      pop\n      jump\t// out\n        /* \"#utility.yul\":7:84   */\n    tag_60:\n        /* \"#utility.yul\":44:51   */\n      0x00\n        /* \"#utility.yul\":73:78   */\n      dup2\n        /* \"#utility.yul\":62:78   */\n      swap1\n      pop\n        /* \"#utility.yul\":7:84   */\n      swap2\n      swap1\n      pop\n      jump\t// out\n        /* \"#utility.yul\":90:208   */\n    tag_61:\n        /* \"#utility.yul\":177:201   */\n      tag_90\n        /* \"#utility.yul\":195:200   */\n      dup2\n        /* \"#utility.yul\":177:201   */\n      tag_60\n      jump\t// in\n    tag_90:\n        /* \"#utility.yul\":172:175   */\n      dup3\n        /* \"#utility.yul\":165:202   */\n      mstore\n        /* \"#utility.yul\":90:208   */\n      pop\n      pop\n      jump\t// out\n        /* \"#utility.yul\":214:436   */\n    tag_10:\n        /* \"#utility.yul\":307:311   */\n      0x00\n        /* \"#utility.yul\":345:347   */\n      0x20\n        /* \"#utility.yul\":334:343   */\n      dup3\n        /* \"#utility.yul\":330:348   */\n      add\n        /* \"#utility.yul\":322:348   */\n      swap1\n      pop\n        /* \"#utility.yul\":358:429   */\n      tag_92\n        /* \"#utility.yul\":426:427   */\n      0x00\n        /* \"#utility.yul\":415:424   */\n      dup4\n        /* \"#utility.yul\":411:428   */\n      add\n        /* \"#utility.yul\":402:408   */\n      dup5\n        /* \"#utility.yul\":358:429   */\n      tag_61\n      jump\t// in\n    tag_92:\n        /* \"#utility.yul\":214:436   */\n      swap3\n      swap2\n      pop\n      pop\n      jump\t// out\n        /* \"#utility.yul\":523:640   */\n    tag_63:\n        /* \"#utility.yul\":632:633   */\n      0x00\n        /* \"#utility.yul\":629:630   */\n      dup1\n        /* \"#utility.yul\":622:634   */\n      revert\n        /* \"#utility.yul\":769:891   */\n    tag_65:\n        /* \"#utility.yul\":842:866   */\n      tag_97\n        /* \"#utility.yul\":860:865   */\n      dup2\n        /* \"#utility.yul\":842:866   */\n      tag_60\n      jump\t// in\n    tag_97:\n        /* \"#utility.yul\":835:840   */\n      dup2\n        /* \"#utility.yul\":832:867   */\n      eq\n        /* \"#utility.yul\":822:885   */\n      tag_98\n      jumpi\n        /* \"#utility.yul\":881:882   */\n      0x00\n        /* \"#utility.yul\":878:879   */\n      dup1\n        /* \"#utility.yul\":871:883   */\n      revert\n        /* \"#utility.yul\":822:885   */\n    tag_98:\n        /* \"#utility.yul\":769:891   */\n      pop\n      jump\t// out\n        /* \"#utility.yul\":897:1036   */\n    tag_66:\n        /* \"#utility.yul\":943:948   */\n      0x00\n        /* \"#utility.yul\":981:987   */\n      dup2\n        /* \"#utility.yul\":968:988   */\n      calldataload\n        /* \"#utility.yul\":959:988   */\n      swap1\n      pop\n        /* \"#utility.yul\":997:1030   */\n      tag_100\n        /* \"#utility.yul\":1024:1029   */\n      dup2\n        /* \"#utility.yul\":997:1030   */\n      tag_65\n      jump\t// in\n    tag_100:\n        /* \"#utility.yul\":897:1036   */\n      swap3\n      swap2\n      pop\n      pop\n      jump\t// out\n        /* \"#utility.yul\":1042:1371   */\n    tag_13:\n        /* \"#utility.yul\":1101:1107   */\n      0x00\n        /* \"#utility.yul\":1150:1152   */\n      0x20\n        /* \"#utility.yul\":1138:1147   */\n      dup3\n        /* \"#utility.yul\":1129:1136   */\n      dup5\n        /* \"#utility.yul\":1125:1148   */\n      sub\n        /* \"#utility.yul\":1121:1153   */\n      slt\n        /* \"#utility.yul\":1118:1237   */\n      iszero\n      tag_102\n      jumpi\n        /* \"#utility.yul\":1156:1235   */\n      tag_103\n      tag_63\n      jump\t// in\n    tag_103:\n        /* \"#utility.yul\":1118:1237   */\n    tag_102:\n        /* \"#utility.yul\":1276:1277   */\n      0x00\n        /* \"#utility.yul\":1301:1354   */\n      tag_104\n        /* \"#utility.yul\":1346:1353   */\n      dup5\n        /* \"#utility.yul\":1337:1343   */\n      dup3\n        /* \"#utility.yul\":1326:1335   */\n      dup6\n        /* \"#utility.yul\":1322:1344   */\n      add\n        /* \"#utility.yul\":1301:1354   */\n      tag_66\n      jump\t// in\n    tag_104:\n        /* \"#utility.yul\":1291:1354   */\n      swap2\n      pop\n        /* \"#utility.yul\":1247:1364   */\n      pop\n        /* \"#utility.yul\":1042:1371   */\n      swap3\n      swap2\n      pop\n      pop\n      jump\t// out\n        /* \"#utility.yul\":1377:1467   */\n    tag_67:\n        /* \"#utility.yul\":1411:1418   */\n      0x00\n        /* \"#utility.yul\":1454:1459   */\n      dup2\n        /* \"#utility.yul\":1447:1460   */\n      iszero\n        /* \"#utility.yul\":1440:1461   */\n      iszero\n        /* \"#utility.yul\":1429:1461   */\n      swap1\n      pop\n        /* \"#utility.yul\":1377:1467   */\n      swap2\n      swap1\n      pop\n      jump\t// out\n        /* \"#utility.yul\":1473:1582   */\n    tag_68:\n        /* \"#utility.yul\":1554:1575   */\n      tag_107\n        /* \"#utility.yul\":1569:1574   */\n      dup2\n        /* \"#utility.yul\":1554:1575   */\n      tag_67\n      jump\t// in\n    tag_107:\n        /* \"#utility.yul\":1549:1552   */\n      dup3\n        /* \"#utility.yul\":1542:1576   */\n      mstore\n        /* \"#utility.yul\":1473:1582   */\n      pop\n      pop\n      jump\t// out\n        /* \"#utility.yul\":1588:1798   */\n    tag_16:\n        /* \"#utility.yul\":1675:1679   */\n      0x00\n        /* \"#utility.yul\":1713:1715   */\n      0x20\n        /* \"#utility.yul\":1702:1711   */\n      dup3\n        /* \"#utility.yul\":1698:1716   */\n      add\n        /* \"#utility.yul\":1690:1716   */\n      swap1\n      pop\n        /* \"#utility.yul\":1726:1791   */\n      tag_109\n        /* \"#utility.yul\":1788:1789   */\n      0x00\n        /* \"#utility.yul\":1777:1786   */\n      dup4\n        /* \"#utility.yul\":1773:1790   */\n      add\n        /* \"#utility.yul\":1764:1770   */\n      dup5\n        /* \"#utility.yul\":1726:1791   */\n      tag_68\n      jump\t// in\n    tag_109:\n        /* \"#utility.yul\":1588:1798   */\n      swap3\n      swap2\n      pop\n      pop\n      jump\t// out\n        /* \"#utility.yul\":1804:1930   */\n    tag_69:\n        /* \"#utility.yul\":1841:1848   */\n      0x00\n        /* \"#utility.yul\":1881:1923   */\n      0xffffffffffffffffffffffffffffffffffffffff\n        /* \"#utility.yul\":1874:1879   */\n      dup3\n        /* \"#utility.yul\":1870:1924   */\n      and\n        /* \"#utility.yul\":1859:1924   */\n      swap1\n      pop\n        /* \"#utility.yul\":1804:1930   */\n      swap2\n      swap1\n      pop\n      jump\t// out\n        /* \"#utility.yul\":1936:2032   */\n    tag_70:\n        /* \"#utility.yul\":1973:1980   */\n      0x00\n        /* \"#utility.yul\":2002:2026   */\n      tag_112\n        /* \"#utility.yul\":2020:2025   */\n      dup3\n        /* \"#utility.yul\":2002:2026   */\n      tag_69\n      jump\t// in\n    tag_112:\n        /* \"#utility.yul\":1991:2026   */\n      swap1\n      pop\n        /* \"#utility.yul\":1936:2032   */\n      swap2\n      swap1\n      pop\n      jump\t// out\n        /* \"#utility.yul\":2038:2160   */\n    tag_71:\n        /* \"#utility.yul\":2111:2135   */\n      tag_114\n        /* \"#utility.yul\":2129:2134   */\n      dup2\n        /* \"#utility.yul\":2111:2135   */\n      tag_70\n      jump\t// in\n    tag_114:\n        /* \"#utility.yul\":2104:2109   */\n      dup2\n        /* \"#utility.yul\":2101:2136   */\n      eq\n        /* \"#utility.yul\":2091:2154   */\n      tag_115\n      jumpi\n        /* \"#utility.yul\":2150:2151   */\n      0x00\n        /* \"#utility.yul\":2147:2148   */\n      dup1\n        /* \"#utility.yul\":2140:2152   */\n      revert\n        /* \"#utility.yul\":2091:2154   */\n    tag_115:\n        /* \"#utility.yul\":2038:2160   */\n      pop\n      jump\t// out\n        /* \"#utility.yul\":2166:2305   */\n    tag_72:\n        /* \"#utility.yul\":2212:2217   */\n      0x00\n        /* \"#utility.yul\":2250:2256   */\n      dup2\n        /* \"#utility.yul\":2237:2257   */\n      calldataload\n        /* \"#utility.yul\":2228:2257   */\n      swap1\n      pop\n        /* \"#utility.yul\":2266:2299   */\n      tag_117\n        /* \"#utility.yul\":2293:2298   */\n      dup2\n        /* \"#utility.yul\":2266:2299   */\n      tag_71\n      jump\t// in\n    tag_117:\n        /* \"#utility.yul\":2166:2305   */\n      swap3\n      swap2\n      pop\n      pop\n      jump\t// out\n        /* \"#utility.yul\":2311:2785   */\n    tag_23:\n        /* \"#utility.yul\":2379:2385   */\n      0x00\n        /* \"#utility.yul\":2387:2393   */\n      dup1\n        /* \"#utility.yul\":2436:2438   */\n      0x40\n        /* \"#utility.yul\":2424:2433   */\n      dup4\n        /* \"#utility.yul\":2415:2422   */\n      dup6\n        /* \"#utility.yul\":2411:2434   */\n      sub\n        /* \"#utility.yul\":2407:2439   */\n      slt\n        /* \"#utility.yul\":2404:2523   */\n      iszero\n      tag_119\n      jumpi\n        /* \"#utility.yul\":2442:2521   */\n      tag_120\n      tag_63\n      jump\t// in\n    tag_120:\n        /* \"#utility.yul\":2404:2523   */\n    tag_119:\n        /* \"#utility.yul\":2562:2563   */\n      0x00\n        /* \"#utility.yul\":2587:2640   */\n      tag_121\n        /* \"#utility.yul\":2632:2639   */\n      dup6\n        /* \"#utility.yul\":2623:2629   */\n      dup3\n        /* \"#utility.yul\":2612:2621   */\n      dup7\n        /* \"#utility.yul\":2608:2630   */\n      add\n        /* \"#utility.yul\":2587:2640   */\n      tag_72\n      jump\t// in\n    tag_121:\n        /* \"#utility.yul\":2577:2640   */\n      swap3\n      pop\n        /* \"#utility.yul\":2533:2650   */\n      pop\n        /* \"#utility.yul\":2689:2691   */\n      0x20\n        /* \"#utility.yul\":2715:2768   */\n      tag_122\n        /* \"#utility.yul\":2760:2767   */\n      dup6\n        /* \"#utility.yul\":2751:2757   */\n      dup3\n        /* \"#utility.yul\":2740:2749   */\n      dup7\n        /* \"#utility.yul\":2736:2758   */\n      add\n        /* \"#utility.yul\":2715:2768   */\n      tag_66\n      jump\t// in\n    tag_122:\n        /* \"#utility.yul\":2705:2768   */\n      swap2\n      pop\n        /* \"#utility.yul\":2660:2778   */\n      pop\n        /* \"#utility.yul\":2311:2785   */\n      swap3\n      pop\n      swap3\n      swap1\n      pop\n      jump\t// out\n        /* \"#utility.yul\":2791:2971   */\n    tag_73:\n        /* \"#utility.yul\":2839:2916   */\n      0x4e487b7100000000000000000000000000000000000000000000000000000000\n        /* \"#utility.yul\":2836:2837   */\n      0x00\n        /* \"#utility.yul\":2829:2917   */\n      mstore\n        /* \"#utility.yul\":2936:2940   */\n      0x11\n        /* \"#utility.yul\":2933:2934   */\n      0x04\n        /* \"#utility.yul\":2926:2941   */\n      mstore\n        /* \"#utility.yul\":2960:2964   */\n      0x24\n        /* \"#utility.yul\":2957:2958   */\n      0x00\n        /* \"#utility.yul\":2950:2965   */\n      revert\n        /* \"#utility.yul\":2977:3171   */\n    tag_30:\n        /* \"#utility.yul\":3017:3021   */\n      0x00\n        /* \"#utility.yul\":3037:3057   */\n      tag_125\n        /* \"#utility.yul\":3055:3056   */\n      dup3\n        /* \"#utility.yul\":3037:3057   */\n      tag_60\n      jump\t// in\n    tag_125:\n        /* \"#utility.yul\":3032:3057   */\n      swap2\n      pop\n        /* \"#utility.yul\":3071:3091   */\n      tag_126\n        /* \"#utility.yul\":3089:3090   */\n      dup4\n        /* \"#utility.yul\":3071:3091   */\n      tag_60\n      jump\t// in\n    tag_126:\n        /* \"#utility.yul\":3066:3091   */\n      swap3\n      pop\n        /* \"#utility.yul\":3115:3116   */\n      dup3\n        /* \"#utility.yul\":3112:3113   */\n      dup3\n        /* \"#utility.yul\":3108:3117   */\n      sub\n        /* \"#utility.yul\":3100:3117   */\n      swap1\n      pop\n        /* \"#utility.yul\":3139:3140   */\n      dup2\n        /* \"#utility.yul\":3133:3137   */\n      dup2\n        /* \"#utility.yul\":3130:3141   */\n      gt\n        /* \"#utility.yul\":3127:3164   */\n      iszero\n      tag_127\n      jumpi\n        /* \"#utility.yul\":3144:3162   */\n      tag_128\n      tag_73\n      jump\t// in\n    tag_128:\n        /* \"#utility.yul\":3127:3164   */\n    tag_127:\n        /* \"#utility.yul\":2977:3171   */\n      swap3\n      swap2\n      pop\n      pop\n      jump\t// out\n        /* \"#utility.yul\":3177:3346   */\n    tag_74:\n        /* \"#utility.yul\":3261:3272   */\n      0x00\n        /* \"#utility.yul\":3295:3301   */\n      dup3\n        /* \"#utility.yul\":3290:3293   */\n      dup3\n        /* \"#utility.yul\":3283:3302   */\n      mstore\n        /* \"#utility.yul\":3335:3339   */\n      0x20\n        /* \"#utility.yul\":3330:3333   */\n      dup3\n        /* \"#utility.yul\":3326:3340   */\n      add\n        /* \"#utility.yul\":3311:3340   */\n      swap1\n      pop\n        /* \"#utility.yul\":3177:3346   */\n      swap3\n      swap2\n      pop\n      pop\n      jump\t// out\n        /* \"#utility.yul\":3352:3522   */\n    tag_75:\n        /* \"#utility.yul\":3492:3514   */\n      0x696e73756666696369656e742042616c616e6365000000000000000000000000\n        /* \"#utility.yul\":3488:3489   */\n      0x00\n        /* \"#utility.yul\":3480:3486   */\n      dup3\n        /* \"#utility.yul\":3476:3490   */\n      add\n        /* \"#utility.yul\":3469:3515   */\n      mstore\n        /* \"#utility.yul\":3352:3522   */\n      pop\n      jump\t// out\n        /* \"#utility.yul\":3528:3894   */\n    tag_76:\n        /* \"#utility.yul\":3670:3673   */\n      0x00\n        /* \"#utility.yul\":3691:3758   */\n      tag_132\n        /* \"#utility.yul\":3755:3757   */\n      0x14\n        /* \"#utility.yul\":3750:3753   */\n      dup4\n        /* \"#utility.yul\":3691:3758   */\n      tag_74\n      jump\t// in\n    tag_132:\n        /* \"#utility.yul\":3684:3758   */\n      swap2\n      pop\n        /* \"#utility.yul\":3767:3860   */\n      tag_133\n        /* \"#utility.yul\":3856:3859   */\n      dup3\n        /* \"#utility.yul\":3767:3860   */\n      tag_75\n      jump\t// in\n    tag_133:\n        /* \"#utility.yul\":3885:3887   */\n      0x20\n        /* \"#utility.yul\":3880:3883   */\n      dup3\n        /* \"#utility.yul\":3876:3888   */\n      add\n        /* \"#utility.yul\":3869:3888   */\n      swap1\n      pop\n        /* \"#utility.yul\":3528:3894   */\n      swap2\n      swap1\n      pop\n      jump\t// out\n        /* \"#utility.yul\":3900:4429   */\n    tag_32:\n        /* \"#utility.yul\":4094:4098   */\n      0x00\n        /* \"#utility.yul\":4132:4134   */\n      0x40\n        /* \"#utility.yul\":4121:4130   */\n      dup3\n        /* \"#utility.yul\":4117:4135   */\n      add\n        /* \"#utility.yul\":4109:4135   */\n      swap1\n      pop\n        /* \"#utility.yul\":4145:4216   */\n      tag_135\n        /* \"#utility.yul\":4213:4214   */\n      0x00\n        /* \"#utility.yul\":4202:4211   */\n      dup4\n        /* \"#utility.yul\":4198:4215   */\n      add\n        /* \"#utility.yul\":4189:4195   */\n      dup5\n        /* \"#utility.yul\":4145:4216   */\n      tag_61\n      jump\t// in\n    tag_135:\n        /* \"#utility.yul\":4263:4272   */\n      dup2\n        /* \"#utility.yul\":4257:4261   */\n      dup2\n        /* \"#utility.yul\":4253:4273   */\n      sub\n        /* \"#utility.yul\":4248:4250   */\n      0x20\n        /* \"#utility.yul\":4237:4246   */\n      dup4\n        /* \"#utility.yul\":4233:4251   */\n      add\n        /* \"#utility.yul\":4226:4274   */\n      mstore\n        /* \"#utility.yul\":4291:4422   */\n      tag_136\n        /* \"#utility.yul\":4417:4421   */\n      dup2\n        /* \"#utility.yul\":4291:4422   */\n      tag_76\n      jump\t// in\n    tag_136:\n        /* \"#utility.yul\":4283:4422   */\n      swap1\n      pop\n        /* \"#utility.yul\":3900:4429   */\n      swap3\n      swap2\n      pop\n      pop\n      jump\t// out\n        /* \"#utility.yul\":4435:4611   */\n    tag_77:\n        /* \"#utility.yul\":4575:4603   */\n      0x596f75206861766520616c72656164792061206163636f756e74000000000000\n        /* \"#utility.yul\":4571:4572   */\n      0x00\n        /* \"#utility.yul\":4563:4569   */\n      dup3\n        /* \"#utility.yul\":4559:4573   */\n      add\n        /* \"#utility.yul\":4552:4604   */\n      mstore\n        /* \"#utility.yul\":4435:4611   */\n      pop\n      jump\t// out\n        /* \"#utility.yul\":4617:4983   */\n    tag_78:\n        /* \"#utility.yul\":4759:4762   */\n      0x00\n        /* \"#utility.yul\":4780:4847   */\n      tag_139\n        /* \"#utility.yul\":4844:4846   */\n      0x1a\n        /* \"#utility.yul\":4839:4842   */\n      dup4\n        /* \"#utility.yul\":4780:4847   */\n      tag_74\n      jump\t// in\n    tag_139:\n        /* \"#utility.yul\":4773:4847   */\n      swap2\n      pop\n        /* \"#utility.yul\":4856:4949   */\n      tag_140\n        /* \"#utility.yul\":4945:4948   */\n      dup3\n        /* \"#utility.yul\":4856:4949   */\n      tag_77\n      jump\t// in\n    tag_140:\n        /* \"#utility.yul\":4974:4976   */\n      0x20\n        /* \"#utility.yul\":4969:4972   */\n      dup3\n        /* \"#utility.yul\":4965:4977   */\n      add\n        /* \"#utility.yul\":4958:4977   */\n      swap1\n      pop\n        /* \"#utility.yul\":4617:4983   */\n      swap2\n      swap1\n      pop\n      jump\t// out\n        /* \"#utility.yul\":4989:5408   */\n    tag_36:\n        /* \"#utility.yul\":5155:5159   */\n      0x00\n        /* \"#utility.yul\":5193:5195   */\n      0x20\n        /* \"#utility.yul\":5182:5191   */\n      dup3\n        /* \"#utility.yul\":5178:5196   */\n      add\n        /* \"#utility.yul\":5170:5196   */\n      swap1\n      pop\n        /* \"#utility.yul\":5242:5251   */\n      dup2\n        /* \"#utility.yul\":5236:5240   */\n      dup2\n        /* \"#utility.yul\":5232:5252   */\n      sub\n        /* \"#utility.yul\":5228:5229   */\n      0x00\n        /* \"#utility.yul\":5217:5226   */\n      dup4\n        /* \"#utility.yul\":5213:5230   */\n      add\n        /* \"#utility.yul\":5206:5253   */\n      mstore\n        /* \"#utility.yul\":5270:5401   */\n      tag_142\n        /* \"#utility.yul\":5396:5400   */\n      dup2\n        /* \"#utility.yul\":5270:5401   */\n      tag_78\n      jump\t// in\n    tag_142:\n        /* \"#utility.yul\":5262:5401   */\n      swap1\n      pop\n        /* \"#utility.yul\":4989:5408   */\n      swap2\n      swap1\n      pop\n      jump\t// out\n        /* \"#utility.yul\":5414:5593   */\n    tag_79:\n        /* \"#utility.yul\":5554:5585   */\n      0x416d6f756e74206d7573742062652067726561746572207468656e2030000000\n        /* \"#utility.yul\":5550:5551   */\n      0x00\n        /* \"#utility.yul\":5542:5548   */\n      dup3\n        /* \"#utility.yul\":5538:5552   */\n      add\n        /* \"#utility.yul\":5531:5586   */\n      mstore\n        /* \"#utility.yul\":5414:5593   */\n      pop\n      jump\t// out\n        /* \"#utility.yul\":5599:5965   */\n    tag_80:\n        /* \"#utility.yul\":5741:5744   */\n      0x00\n        /* \"#utility.yul\":5762:5829   */\n      tag_145\n        /* \"#utility.yul\":5826:5828   */\n      0x1d\n        /* \"#utility.yul\":5821:5824   */\n      dup4\n        /* \"#utility.yul\":5762:5829   */\n      tag_74\n      jump\t// in\n    tag_145:\n        /* \"#utility.yul\":5755:5829   */\n      swap2\n      pop\n        /* \"#utility.yul\":5838:5931   */\n      tag_146\n        /* \"#utility.yul\":5927:5930   */\n      dup3\n        /* \"#utility.yul\":5838:5931   */\n      tag_79\n      jump\t// in\n    tag_146:\n        /* \"#utility.yul\":5956:5958   */\n      0x20\n        /* \"#utility.yul\":5951:5954   */\n      dup3\n        /* \"#utility.yul\":5947:5959   */\n      add\n        /* \"#utility.yul\":5940:5959   */\n      swap1\n      pop\n        /* \"#utility.yul\":5599:5965   */\n      swap2\n      swap1\n      pop\n      jump\t// out\n        /* \"#utility.yul\":5971:6390   */\n    tag_39:\n        /* \"#utility.yul\":6137:6141   */\n      0x00\n        /* \"#utility.yul\":6175:6177   */\n      0x20\n        /* \"#utility.yul\":6164:6173   */\n      dup3\n        /* \"#utility.yul\":6160:6178   */\n      add\n        /* \"#utility.yul\":6152:6178   */\n      swap1\n      pop\n        /* \"#utility.yul\":6224:6233   */\n      dup2\n        /* \"#utility.yul\":6218:6222   */\n      dup2\n        /* \"#utility.yul\":6214:6234   */\n      sub\n        /* \"#utility.yul\":6210:6211   */\n      0x00\n        /* \"#utility.yul\":6199:6208   */\n      dup4\n        /* \"#utility.yul\":6195:6212   */\n      add\n        /* \"#utility.yul\":6188:6235   */\n      mstore\n        /* \"#utility.yul\":6252:6383   */\n      tag_148\n        /* \"#utility.yul\":6378:6382   */\n      dup2\n        /* \"#utility.yul\":6252:6383   */\n      tag_80\n      jump\t// in\n    tag_148:\n        /* \"#utility.yul\":6244:6383   */\n      swap1\n      pop\n        /* \"#utility.yul\":5971:6390   */\n      swap2\n      swap1\n      pop\n      jump\t// out\n        /* \"#utility.yul\":6396:6576   */\n    tag_42:\n        /* \"#utility.yul\":6444:6521   */\n      0x4e487b7100000000000000000000000000000000000000000000000000000000\n        /* \"#utility.yul\":6441:6442   */\n      0x00\n        /* \"#utility.yul\":6434:6522   */\n      mstore\n        /* \"#utility.yul\":6541:6545   */\n      0x21\n        /* \"#utility.yul\":6538:6539   */\n      0x04\n        /* \"#utility.yul\":6531:6546   */\n      mstore\n        /* \"#utility.yul\":6565:6569   */\n      0x24\n        /* \"#utility.yul\":6562:6563   */\n      0x00\n        /* \"#utility.yul\":6555:6570   */\n      revert\n        /* \"#utility.yul\":6582:6759   */\n    tag_81:\n        /* \"#utility.yul\":6722:6751   */\n      0x4f6e6c792041646d696e2063616e20646f2054686973205461736b0000000000\n        /* \"#utility.yul\":6718:6719   */\n      0x00\n        /* \"#utility.yul\":6710:6716   */\n      dup3\n        /* \"#utility.yul\":6706:6720   */\n      add\n        /* \"#utility.yul\":6699:6752   */\n      mstore\n        /* \"#utility.yul\":6582:6759   */\n      pop\n      jump\t// out\n        /* \"#utility.yul\":6765:7131   */\n    tag_82:\n        /* \"#utility.yul\":6907:6910   */\n      0x00\n        /* \"#utility.yul\":6928:6995   */\n      tag_152\n        /* \"#utility.yul\":6992:6994   */\n      0x1b\n        /* \"#utility.yul\":6987:6990   */\n      dup4\n        /* \"#utility.yul\":6928:6995   */\n      tag_74\n      jump\t// in\n    tag_152:\n        /* \"#utility.yul\":6921:6995   */\n      swap2\n      pop\n        /* \"#utility.yul\":7004:7097   */\n      tag_153\n        /* \"#utility.yul\":7093:7096   */\n      dup3\n        /* \"#utility.yul\":7004:7097   */\n      tag_81\n      jump\t// in\n    tag_153:\n        /* \"#utility.yul\":7122:7124   */\n      0x20\n        /* \"#utility.yul\":7117:7120   */\n      dup3\n        /* \"#utility.yul\":7113:7125   */\n      add\n        /* \"#utility.yul\":7106:7125   */\n      swap1\n      pop\n        /* \"#utility.yul\":6765:7131   */\n      swap2\n      swap1\n      pop\n      jump\t// out\n        /* \"#utility.yul\":7137:7556   */\n    tag_50:\n        /* \"#utility.yul\":7303:7307   */\n      0x00\n        /* \"#utility.yul\":7341:7343   */\n      0x20\n        /* \"#utility.yul\":7330:7339   */\n      dup3\n        /* \"#utility.yul\":7326:7344   */\n      add\n        /* \"#utility.yul\":7318:7344   */\n      swap1\n      pop\n        /* \"#utility.yul\":7390:7399   */\n      dup2\n        /* \"#utility.yul\":7384:7388   */\n      dup2\n        /* \"#utility.yul\":7380:7400   */\n      sub\n        /* \"#utility.yul\":7376:7377   */\n      0x00\n        /* \"#utility.yul\":7365:7374   */\n      dup4\n        /* \"#utility.yul\":7361:7378   */\n      add\n        /* \"#utility.yul\":7354:7401   */\n      mstore\n        /* \"#utility.yul\":7418:7549   */\n      tag_155\n        /* \"#utility.yul\":7544:7548   */\n      dup2\n        /* \"#utility.yul\":7418:7549   */\n      tag_82\n      jump\t// in\n    tag_155:\n        /* \"#utility.yul\":7410:7549   */\n      swap1\n      pop\n        /* \"#utility.yul\":7137:7556   */\n      swap2\n      swap1\n      pop\n      jump\t// out\n        /* \"#utility.yul\":7562:7785   */\n    tag_83:\n        /* \"#utility.yul\":7702:7736   */\n      0x4465706f73697420616d6f756e742073686f756c64206265206d6f7265207468\n        /* \"#utility.yul\":7698:7699   */\n      0x00\n        /* \"#utility.yul\":7690:7696   */\n      dup3\n        /* \"#utility.yul\":7686:7700   */\n      add\n        /* \"#utility.yul\":7679:7737   */\n      mstore\n        /* \"#utility.yul\":7771:7777   */\n      0x656e203000000000000000000000000000000000000000000000000000000000\n        /* \"#utility.yul\":7766:7768   */\n      0x20\n        /* \"#utility.yul\":7758:7764   */\n      dup3\n        /* \"#utility.yul\":7754:7769   */\n      add\n        /* \"#utility.yul\":7747:7778   */\n      mstore\n        /* \"#utility.yul\":7562:7785   */\n      pop\n      jump\t// out\n        /* \"#utility.yul\":7791:8157   */\n    tag_84:\n        /* \"#utility.yul\":7933:7936   */\n      0x00\n        /* \"#utility.yul\":7954:8021   */\n      tag_158\n        /* \"#utility.yul\":8018:8020   */\n      0x24\n        /* \"#utility.yul\":8013:8016   */\n      dup4\n        /* \"#utility.yul\":7954:8021   */\n      tag_74\n      jump\t// in\n    tag_158:\n        /* \"#utility.yul\":7947:8021   */\n      swap2\n      pop\n        /* \"#utility.yul\":8030:8123   */\n      tag_159\n        /* \"#utility.yul\":8119:8122   */\n      dup3\n        /* \"#utility.yul\":8030:8123   */\n      tag_83\n      jump\t// in\n    tag_159:\n        /* \"#utility.yul\":8148:8150   */\n      0x40\n        /* \"#utility.yul\":8143:8146   */\n      dup3\n        /* \"#utility.yul\":8139:8151   */\n      add\n        /* \"#utility.yul\":8132:8151   */\n      swap1\n      pop\n        /* \"#utility.yul\":7791:8157   */\n      swap2\n      swap1\n      pop\n      jump\t// out\n        /* \"#utility.yul\":8163:8582   */\n    tag_54:\n        /* \"#utility.yul\":8329:8333   */\n      0x00\n        /* \"#utility.yul\":8367:8369   */\n      0x20\n        /* \"#utility.yul\":8356:8365   */\n      dup3\n        /* \"#utility.yul\":8352:8370   */\n      add\n        /* \"#utility.yul\":8344:8370   */\n      swap1\n      pop\n        /* \"#utility.yul\":8416:8425   */\n      dup2\n        /* \"#utility.yul\":8410:8414   */\n      dup2\n        /* \"#utility.yul\":8406:8426   */\n      sub\n        /* \"#utility.yul\":8402:8403   */\n      0x00\n        /* \"#utility.yul\":8391:8400   */\n      dup4\n        /* \"#utility.yul\":8387:8404   */\n      add\n        /* \"#utility.yul\":8380:8427   */\n      mstore\n        /* \"#utility.yul\":8444:8575   */\n      tag_161\n        /* \"#utility.yul\":8570:8574   */\n      dup2\n        /* \"#utility.yul\":8444:8575   */\n      tag_84\n      jump\t// in\n    tag_161:\n        /* \"#utility.yul\":8436:8575   */\n      swap1\n      pop\n        /* \"#utility.yul\":8163:8582   */\n      swap2\n      swap1\n      pop\n      jump\t// out\n        /* \"#utility.yul\":8588:8761   */\n    tag_85:\n        /* \"#utility.yul\":8728:8753   */\n      0x46697273742063726561746520616e206163636f756e74000000000000000000\n        /* \"#utility.yul\":8724:8725   */\n      0x00\n        /* \"#utility.yul\":8716:8722   */\n      dup3\n        /* \"#utility.yul\":8712:8726   */\n      add\n        /* \"#utility.yul\":8705:8754   */\n      mstore\n        /* \"#utility.yul\":8588:8761   */\n      pop\n      jump\t// out\n        /* \"#utility.yul\":8767:9133   */\n    tag_86:\n        /* \"#utility.yul\":8909:8912   */\n      0x00\n        /* \"#utility.yul\":8930:8997   */\n      tag_164\n        /* \"#utility.yul\":8994:8996   */\n      0x17\n        /* \"#utility.yul\":8989:8992   */\n      dup4\n        /* \"#utility.yul\":8930:8997   */\n      tag_74\n      jump\t// in\n    tag_164:\n        /* \"#utility.yul\":8923:8997   */\n      swap2\n      pop\n        /* \"#utility.yul\":9006:9099   */\n      tag_165\n        /* \"#utility.yul\":9095:9098   */\n      dup3\n        /* \"#utility.yul\":9006:9099   */\n      tag_85\n      jump\t// in\n    tag_165:\n        /* \"#utility.yul\":9124:9126   */\n      0x20\n        /* \"#utility.yul\":9119:9122   */\n      dup3\n        /* \"#utility.yul\":9115:9127   */\n      add\n        /* \"#utility.yul\":9108:9127   */\n      swap1\n      pop\n        /* \"#utility.yul\":8767:9133   */\n      swap2\n      swap1\n      pop\n      jump\t// out\n        /* \"#utility.yul\":9139:9558   */\n    tag_57:\n        /* \"#utility.yul\":9305:9309   */\n      0x00\n        /* \"#utility.yul\":9343:9345   */\n      0x20\n        /* \"#utility.yul\":9332:9341   */\n      dup3\n        /* \"#utility.yul\":9328:9346   */\n      add\n        /* \"#utility.yul\":9320:9346   */\n      swap1\n      pop\n        /* \"#utility.yul\":9392:9401   */\n      dup2\n        /* \"#utility.yul\":9386:9390   */\n      dup2\n        /* \"#utility.yul\":9382:9402   */\n      sub\n        /* \"#utility.yul\":9378:9379   */\n      0x00\n        /* \"#utility.yul\":9367:9376   */\n      dup4\n        /* \"#utility.yul\":9363:9380   */\n      add\n        /* \"#utility.yul\":9356:9403   */\n      mstore\n        /* \"#utility.yul\":9420:9551   */\n      tag_167\n        /* \"#utility.yul\":9546:9550   */\n      dup2\n        /* \"#utility.yul\":9420:9551   */\n      tag_86\n      jump\t// in\n    tag_167:\n        /* \"#utility.yul\":9412:9551   */\n      swap1\n      pop\n        /* \"#utility.yul\":9139:9558   */\n      swap2\n      swap1\n      pop\n      jump\t// out\n        /* \"#utility.yul\":9564:9755   */\n    tag_59:\n        /* \"#utility.yul\":9604:9607   */\n      0x00\n        /* \"#utility.yul\":9623:9643   */\n      tag_169\n        /* \"#utility.yul\":9641:9642   */\n      dup3\n        /* \"#utility.yul\":9623:9643   */\n      tag_60\n      jump\t// in\n    tag_169:\n        /* \"#utility.yul\":9618:9643   */\n      swap2\n      pop\n        /* \"#utility.yul\":9657:9677   */\n      tag_170\n        /* \"#utility.yul\":9675:9676   */\n      dup4\n        /* \"#utility.yul\":9657:9677   */\n      tag_60\n      jump\t// in\n    tag_170:\n        /* \"#utility.yul\":9652:9677   */\n      swap3\n      pop\n        /* \"#utility.yul\":9700:9701   */\n      dup3\n        /* \"#utility.yul\":9697:9698   */\n      dup3\n        /* \"#utility.yul\":9693:9702   */\n      add\n        /* \"#utility.yul\":9686:9702   */\n      swap1\n      pop\n        /* \"#utility.yul\":9721:9724   */\n      dup1\n        /* \"#utility.yul\":9718:9719   */\n      dup3\n        /* \"#utility.yul\":9715:9725   */\n      gt\n        /* \"#utility.yul\":9712:9748   */\n      iszero\n      tag_171\n      jumpi\n        /* \"#utility.yul\":9728:9746   */\n      tag_172\n      tag_73\n      jump\t// in\n    tag_172:\n        /* \"#utility.yul\":9712:9748   */\n    tag_171:\n        /* \"#utility.yul\":9564:9755   */\n      swap3\n      swap2\n      pop\n      pop\n      jump\t// out\n\n    auxdata: 0xa264697066735822122091be868c33cf4b2162d86eb246e3aa524c94fc92b3da53d300fcefd6c6c7ce3164736f6c634300081a0033\n}\n",
				"bytecode": {
					"linkReferences": {},
					"object": "6080604052348015600e575f80fd5b505f805f3373ffffffffffffffffffffffffffffffffffffffff1673ffffffffffffffffffffffffffffffffffffffff1681526020019081526020015f205f6101000a81548160ff02191690836001811115606a5760696073565b5b021790555060a0565b7f4e487b71000000000000000000000000000000000000000000000000000000005f52602160045260245ffd5b610acb806100ad5f395ff3fe608060405234801561000f575f80fd5b506004361061004a575f3560e01c806325caa2621461004e5780632e1a7d4d1461006c578063cab139151461009c578063e1fffcc4146100cc575b5f80fd5b6100566100fc565b60405161006391906105e4565b60405180910390f35b6100866004803603810190610081919061062b565b610140565b6040516100939190610670565b60405180910390f35b6100b660048036038101906100b1919061062b565b610224565b6040516100c39190610670565b60405180910390f35b6100e660048036038101906100e191906106e3565b6103f5565b6040516100f39190610670565b60405180910390f35b5f60015f3373ffffffffffffffffffffffffffffffffffffffff1673ffffffffffffffffffffffffffffffffffffffff1681526020019081526020015f2054905090565b5f8160015f3373ffffffffffffffffffffffffffffffffffffffff1673ffffffffffffffffffffffffffffffffffffffff1681526020019081526020015f205411156101e2578160015f3373ffffffffffffffffffffffffffffffffffffffff1673ffffffffffffffffffffffffffffffffffffffff1681526020019081526020015f205f8282546101d2919061074e565b925050819055506001905061021f565b816040517f873e5c7800000000000000000000000000000000000000000000000000000000815260040161021691906107db565b60405180910390fd5b919050565b5f60025f3373ffffffffffffffffffffffffffffffffffffffff1673ffffffffffffffffffffffffffffffffffffffff1681526020019081526020015f205f9054906101000a900460ff16156102af576040517f08c379a00000000000000000000000000000000000000000000000000000000081526004016102a690610851565b60405180910390fd5b5f82116102f1576040517f08c379a00000000000000000000000000000000000000000000000000000000081526004016102e8906108b9565b60405180910390fd5b8160015f3373ffffffffffffffffffffffffffffffffffffffff1673ffffffffffffffffffffffffffffffffffffffff1681526020019081526020015f208190555060015f803373ffffffffffffffffffffffffffffffffffffffff1673ffffffffffffffffffffffffffffffffffffffff1681526020019081526020015f205f6101000a81548160ff02191690836001811115610392576103916108d7565b5b0217905550600160025f3373ffffffffffffffffffffffffffffffffffffffff1673ffffffffffffffffffffffffffffffffffffffff1681526020019081526020015f205f6101000a81548160ff02191690831515021790555060019050919050565b5f806001811115610409576104086108d7565b5b5f803373ffffffffffffffffffffffffffffffffffffffff1673ffffffffffffffffffffffffffffffffffffffff1681526020019081526020015f205f9054906101000a900460ff166001811115610464576104636108d7565b5b146104a4576040517f08c379a000000000000000000000000000000000000000000000000000000000815260040161049b9061094e565b60405180910390fd5b5f82116104e6576040517f08c379a00000000000000000000000000000000000000000000000000000000081526004016104dd906109dc565b60405180910390fd5b60025f8473ffffffffffffffffffffffffffffffffffffffff1673ffffffffffffffffffffffffffffffffffffffff1681526020019081526020015f205f9054906101000a900460ff1661056f576040517f08c379a000000000000000000000000000000000000000000000000000000000815260040161056690610a44565b60405180910390fd5b8160015f8573ffffffffffffffffffffffffffffffffffffffff1673ffffffffffffffffffffffffffffffffffffffff1681526020019081526020015f205f8282546105bb9190610a62565b925050819055506001905092915050565b5f819050919050565b6105de816105cc565b82525050565b5f6020820190506105f75f8301846105d5565b92915050565b5f80fd5b61060a816105cc565b8114610614575f80fd5b50565b5f8135905061062581610601565b92915050565b5f602082840312156106405761063f6105fd565b5b5f61064d84828501610617565b91505092915050565b5f8115159050919050565b61066a81610656565b82525050565b5f6020820190506106835f830184610661565b92915050565b5f73ffffffffffffffffffffffffffffffffffffffff82169050919050565b5f6106b282610689565b9050919050565b6106c2816106a8565b81146106cc575f80fd5b50565b5f813590506106dd816106b9565b92915050565b5f80604083850312156106f9576106f86105fd565b5b5f610706858286016106cf565b925050602061071785828601610617565b9150509250929050565b7f4e487b71000000000000000000000000000000000000000000000000000000005f52601160045260245ffd5b5f610758826105cc565b9150610763836105cc565b925082820390508181111561077b5761077a610721565b5b92915050565b5f82825260208201905092915050565b7f696e73756666696369656e742042616c616e63650000000000000000000000005f82015250565b5f6107c5601483610781565b91506107d082610791565b602082019050919050565b5f6040820190506107ee5f8301846105d5565b81810360208301526107ff816107b9565b905092915050565b7f596f75206861766520616c72656164792061206163636f756e740000000000005f82015250565b5f61083b601a83610781565b915061084682610807565b602082019050919050565b5f6020820190508181035f8301526108688161082f565b9050919050565b7f416d6f756e74206d7573742062652067726561746572207468656e20300000005f82015250565b5f6108a3601d83610781565b91506108ae8261086f565b602082019050919050565b5f6020820190508181035f8301526108d081610897565b9050919050565b7f4e487b71000000000000000000000000000000000000000000000000000000005f52602160045260245ffd5b7f4f6e6c792041646d696e2063616e20646f2054686973205461736b00000000005f82015250565b5f610938601b83610781565b915061094382610904565b602082019050919050565b5f6020820190508181035f8301526109658161092c565b9050919050565b7f4465706f73697420616d6f756e742073686f756c64206265206d6f72652074685f8201527f656e203000000000000000000000000000000000000000000000000000000000602082015250565b5f6109c6602483610781565b91506109d18261096c565b604082019050919050565b5f6020820190508181035f8301526109f3816109ba565b9050919050565b7f46697273742063726561746520616e206163636f756e740000000000000000005f82015250565b5f610a2e601783610781565b9150610a39826109fa565b602082019050919050565b5f6020820190508181035f830152610a5b81610a22565b9050919050565b5f610a6c826105cc565b9150610a77836105cc565b9250828201905080821115610a8f57610a8e610721565b5b9291505056fea264697066735822122091be868c33cf4b2162d86eb246e3aa524c94fc92b3da53d300fcefd6c6c7ce3164736f6c634300081a0033",
					"opcodes": "PUSH1 0x80 PUSH1 0x40 MSTORE CALLVALUE DUP1 ISZERO PUSH1 0xE JUMPI PUSH0 DUP1 REVERT JUMPDEST POP PUSH0 DUP1 PUSH0 CALLER PUSH20 0xFFFFFFFFFFFFFFFFFFFFFFFFFFFFFFFFFFFFFFFF AND PUSH20 0xFFFFFFFFFFFFFFFFFFFFFFFFFFFFFFFFFFFFFFFF AND DUP2 MSTORE PUSH1 0x20 ADD SWAP1 DUP2 MSTORE PUSH1 0x20 ADD PUSH0 KECCAK256 PUSH0 PUSH2 0x100 EXP DUP2 SLOAD DUP2 PUSH1 0xFF MUL NOT AND SWAP1 DUP4 PUSH1 0x1 DUP2 GT ISZERO PUSH1 0x6A JUMPI PUSH1 0x69 PUSH1 0x73 JUMP JUMPDEST JUMPDEST MUL OR SWAP1 SSTORE POP PUSH1 0xA0 JUMP JUMPDEST PUSH32 0x4E487B7100000000000000000000000000000000000000000000000000000000 PUSH0 MSTORE PUSH1 0x21 PUSH1 0x4 MSTORE PUSH1 0x24 PUSH0 REVERT JUMPDEST PUSH2 0xACB DUP1 PUSH2 0xAD PUSH0 CODECOPY PUSH0 RETURN INVALID PUSH1 0x80 PUSH1 0x40 MSTORE CALLVALUE DUP1 ISZERO PUSH2 0xF JUMPI PUSH0 DUP1 REVERT JUMPDEST POP PUSH1 0x4 CALLDATASIZE LT PUSH2 0x4A JUMPI PUSH0 CALLDATALOAD PUSH1 0xE0 SHR DUP1 PUSH4 0x25CAA262 EQ PUSH2 0x4E JUMPI DUP1 PUSH4 0x2E1A7D4D EQ PUSH2 0x6C JUMPI DUP1 PUSH4 0xCAB13915 EQ PUSH2 0x9C JUMPI DUP1 PUSH4 0xE1FFFCC4 EQ PUSH2 0xCC JUMPI JUMPDEST PUSH0 DUP1 REVERT JUMPDEST PUSH2 0x56 PUSH2 0xFC JUMP JUMPDEST PUSH1 0x40 MLOAD PUSH2 0x63 SWAP2 SWAP1 PUSH2 0x5E4 JUMP JUMPDEST PUSH1 0x40 MLOAD DUP1 SWAP2 SUB SWAP1 RETURN JUMPDEST PUSH2 0x86 PUSH1 0x4 DUP1 CALLDATASIZE SUB DUP2 ADD SWAP1 PUSH2 0x81 SWAP2 SWAP1 PUSH2 0x62B JUMP JUMPDEST PUSH2 0x140 JUMP JUMPDEST PUSH1 0x40 MLOAD PUSH2 0x93 SWAP2 SWAP1 PUSH2 0x670 JUMP JUMPDEST PUSH1 0x40 MLOAD DUP1 SWAP2 SUB SWAP1 RETURN JUMPDEST PUSH2 0xB6 PUSH1 0x4 DUP1 CALLDATASIZE SUB DUP2 ADD SWAP1 PUSH2 0xB1 SWAP2 SWAP1 PUSH2 0x62B JUMP JUMPDEST PUSH2 0x224 JUMP JUMPDEST PUSH1 0x40 MLOAD PUSH2 0xC3 SWAP2 SWAP1 PUSH2 0x670 JUMP JUMPDEST PUSH1 0x40 MLOAD DUP1 SWAP2 SUB SWAP1 RETURN JUMPDEST PUSH2 0xE6 PUSH1 0x4 DUP1 CALLDATASIZE SUB DUP2 ADD SWAP1 PUSH2 0xE1 SWAP2 SWAP1 PUSH2 0x6E3 JUMP JUMPDEST PUSH2 0x3F5 JUMP JUMPDEST PUSH1 0x40 MLOAD PUSH2 0xF3 SWAP2 SWAP1 PUSH2 0x670 JUMP JUMPDEST PUSH1 0x40 MLOAD DUP1 SWAP2 SUB SWAP1 RETURN JUMPDEST PUSH0 PUSH1 0x1 PUSH0 CALLER PUSH20 0xFFFFFFFFFFFFFFFFFFFFFFFFFFFFFFFFFFFFFFFF AND PUSH20 0xFFFFFFFFFFFFFFFFFFFFFFFFFFFFFFFFFFFFFFFF AND DUP2 MSTORE PUSH1 0x20 ADD SWAP1 DUP2 MSTORE PUSH1 0x20 ADD PUSH0 KECCAK256 SLOAD SWAP1 POP SWAP1 JUMP JUMPDEST PUSH0 DUP2 PUSH1 0x1 PUSH0 CALLER PUSH20 0xFFFFFFFFFFFFFFFFFFFFFFFFFFFFFFFFFFFFFFFF AND PUSH20 0xFFFFFFFFFFFFFFFFFFFFFFFFFFFFFFFFFFFFFFFF AND DUP2 MSTORE PUSH1 0x20 ADD SWAP1 DUP2 MSTORE PUSH1 0x20 ADD PUSH0 KECCAK256 SLOAD GT ISZERO PUSH2 0x1E2 JUMPI DUP2 PUSH1 0x1 PUSH0 CALLER PUSH20 0xFFFFFFFFFFFFFFFFFFFFFFFFFFFFFFFFFFFFFFFF AND PUSH20 0xFFFFFFFFFFFFFFFFFFFFFFFFFFFFFFFFFFFFFFFF AND DUP2 MSTORE PUSH1 0x20 ADD SWAP1 DUP2 MSTORE PUSH1 0x20 ADD PUSH0 KECCAK256 PUSH0 DUP3 DUP3 SLOAD PUSH2 0x1D2 SWAP2 SWAP1 PUSH2 0x74E JUMP JUMPDEST SWAP3 POP POP DUP2 SWAP1 SSTORE POP PUSH1 0x1 SWAP1 POP PUSH2 0x21F JUMP JUMPDEST DUP2 PUSH1 0x40 MLOAD PUSH32 0x873E5C7800000000000000000000000000000000000000000000000000000000 DUP2 MSTORE PUSH1 0x4 ADD PUSH2 0x216 SWAP2 SWAP1 PUSH2 0x7DB JUMP JUMPDEST PUSH1 0x40 MLOAD DUP1 SWAP2 SUB SWAP1 REVERT JUMPDEST SWAP2 SWAP1 POP JUMP JUMPDEST PUSH0 PUSH1 0x2 PUSH0 CALLER PUSH20 0xFFFFFFFFFFFFFFFFFFFFFFFFFFFFFFFFFFFFFFFF AND PUSH20 0xFFFFFFFFFFFFFFFFFFFFFFFFFFFFFFFFFFFFFFFF AND DUP2 MSTORE PUSH1 0x20 ADD SWAP1 DUP2 MSTORE PUSH1 0x20 ADD PUSH0 KECCAK256 PUSH0 SWAP1 SLOAD SWAP1 PUSH2 0x100 EXP SWAP1 DIV PUSH1 0xFF AND ISZERO PUSH2 0x2AF JUMPI PUSH1 0x40 MLOAD PUSH32 0x8C379A000000000000000000000000000000000000000000000000000000000 DUP2 MSTORE PUSH1 0x4 ADD PUSH2 0x2A6 SWAP1 PUSH2 0x851 JUMP JUMPDEST PUSH1 0x40 MLOAD DUP1 SWAP2 SUB SWAP1 REVERT JUMPDEST PUSH0 DUP3 GT PUSH2 0x2F1 JUMPI PUSH1 0x40 MLOAD PUSH32 0x8C379A000000000000000000000000000000000000000000000000000000000 DUP2 MSTORE PUSH1 0x4 ADD PUSH2 0x2E8 SWAP1 PUSH2 0x8B9 JUMP JUMPDEST PUSH1 0x40 MLOAD DUP1 SWAP2 SUB SWAP1 REVERT JUMPDEST DUP2 PUSH1 0x1 PUSH0 CALLER PUSH20 0xFFFFFFFFFFFFFFFFFFFFFFFFFFFFFFFFFFFFFFFF AND PUSH20 0xFFFFFFFFFFFFFFFFFFFFFFFFFFFFFFFFFFFFFFFF AND DUP2 MSTORE PUSH1 0x20 ADD SWAP1 DUP2 MSTORE PUSH1 0x20 ADD PUSH0 KECCAK256 DUP2 SWAP1 SSTORE POP PUSH1 0x1 PUSH0 DUP1 CALLER PUSH20 0xFFFFFFFFFFFFFFFFFFFFFFFFFFFFFFFFFFFFFFFF AND PUSH20 0xFFFFFFFFFFFFFFFFFFFFFFFFFFFFFFFFFFFFFFFF AND DUP2 MSTORE PUSH1 0x20 ADD SWAP1 DUP2 MSTORE PUSH1 0x20 ADD PUSH0 KECCAK256 PUSH0 PUSH2 0x100 EXP DUP2 SLOAD DUP2 PUSH1 0xFF MUL NOT AND SWAP1 DUP4 PUSH1 0x1 DUP2 GT ISZERO PUSH2 0x392 JUMPI PUSH2 0x391 PUSH2 0x8D7 JUMP JUMPDEST JUMPDEST MUL OR SWAP1 SSTORE POP PUSH1 0x1 PUSH1 0x2 PUSH0 CALLER PUSH20 0xFFFFFFFFFFFFFFFFFFFFFFFFFFFFFFFFFFFFFFFF AND PUSH20 0xFFFFFFFFFFFFFFFFFFFFFFFFFFFFFFFFFFFFFFFF AND DUP2 MSTORE PUSH1 0x20 ADD SWAP1 DUP2 MSTORE PUSH1 0x20 ADD PUSH0 KECCAK256 PUSH0 PUSH2 0x100 EXP DUP2 SLOAD DUP2 PUSH1 0xFF MUL NOT AND SWAP1 DUP4 ISZERO ISZERO MUL OR SWAP1 SSTORE POP PUSH1 0x1 SWAP1 POP SWAP2 SWAP1 POP JUMP JUMPDEST PUSH0 DUP1 PUSH1 0x1 DUP2 GT ISZERO PUSH2 0x409 JUMPI PUSH2 0x408 PUSH2 0x8D7 JUMP JUMPDEST JUMPDEST PUSH0 DUP1 CALLER PUSH20 0xFFFFFFFFFFFFFFFFFFFFFFFFFFFFFFFFFFFFFFFF AND PUSH20 0xFFFFFFFFFFFFFFFFFFFFFFFFFFFFFFFFFFFFFFFF AND DUP2 MSTORE PUSH1 0x20 ADD SWAP1 DUP2 MSTORE PUSH1 0x20 ADD PUSH0 KECCAK256 PUSH0 SWAP1 SLOAD SWAP1 PUSH2 0x100 EXP SWAP1 DIV PUSH1 0xFF AND PUSH1 0x1 DUP2 GT ISZERO PUSH2 0x464 JUMPI PUSH2 0x463 PUSH2 0x8D7 JUMP JUMPDEST JUMPDEST EQ PUSH2 0x4A4 JUMPI PUSH1 0x40 MLOAD PUSH32 0x8C379A000000000000000000000000000000000000000000000000000000000 DUP2 MSTORE PUSH1 0x4 ADD PUSH2 0x49B SWAP1 PUSH2 0x94E JUMP JUMPDEST PUSH1 0x40 MLOAD DUP1 SWAP2 SUB SWAP1 REVERT JUMPDEST PUSH0 DUP3 GT PUSH2 0x4E6 JUMPI PUSH1 0x40 MLOAD PUSH32 0x8C379A000000000000000000000000000000000000000000000000000000000 DUP2 MSTORE PUSH1 0x4 ADD PUSH2 0x4DD SWAP1 PUSH2 0x9DC JUMP JUMPDEST PUSH1 0x40 MLOAD DUP1 SWAP2 SUB SWAP1 REVERT JUMPDEST PUSH1 0x2 PUSH0 DUP5 PUSH20 0xFFFFFFFFFFFFFFFFFFFFFFFFFFFFFFFFFFFFFFFF AND PUSH20 0xFFFFFFFFFFFFFFFFFFFFFFFFFFFFFFFFFFFFFFFF AND DUP2 MSTORE PUSH1 0x20 ADD SWAP1 DUP2 MSTORE PUSH1 0x20 ADD PUSH0 KECCAK256 PUSH0 SWAP1 SLOAD SWAP1 PUSH2 0x100 EXP SWAP1 DIV PUSH1 0xFF AND PUSH2 0x56F JUMPI PUSH1 0x40 MLOAD PUSH32 0x8C379A000000000000000000000000000000000000000000000000000000000 DUP2 MSTORE PUSH1 0x4 ADD PUSH2 0x566 SWAP1 PUSH2 0xA44 JUMP JUMPDEST PUSH1 0x40 MLOAD DUP1 SWAP2 SUB SWAP1 REVERT JUMPDEST DUP2 PUSH1 0x1 PUSH0 DUP6 PUSH20 0xFFFFFFFFFFFFFFFFFFFFFFFFFFFFFFFFFFFFFFFF AND PUSH20 0xFFFFFFFFFFFFFFFFFFFFFFFFFFFFFFFFFFFFFFFF AND DUP2 MSTORE PUSH1 0x20 ADD SWAP1 DUP2 MSTORE PUSH1 0x20 ADD PUSH0 KECCAK256 PUSH0 DUP3 DUP3 SLOAD PUSH2 0x5BB SWAP2 SWAP1 PUSH2 0xA62 JUMP JUMPDEST SWAP3 POP POP DUP2 SWAP1 SSTORE POP PUSH1 0x1 SWAP1 POP SWAP3 SWAP2 POP POP JUMP JUMPDEST PUSH0 DUP2 SWAP1 POP SWAP2 SWAP1 POP JUMP JUMPDEST PUSH2 0x5DE DUP2 PUSH2 0x5CC JUMP JUMPDEST DUP3 MSTORE POP POP JUMP JUMPDEST PUSH0 PUSH1 0x20 DUP3 ADD SWAP1 POP PUSH2 0x5F7 PUSH0 DUP4 ADD DUP5 PUSH2 0x5D5 JUMP JUMPDEST SWAP3 SWAP2 POP POP JUMP JUMPDEST PUSH0 DUP1 REVERT JUMPDEST PUSH2 0x60A DUP2 PUSH2 0x5CC JUMP JUMPDEST DUP2 EQ PUSH2 0x614 JUMPI PUSH0 DUP1 REVERT JUMPDEST POP JUMP JUMPDEST PUSH0 DUP2 CALLDATALOAD SWAP1 POP PUSH2 0x625 DUP2 PUSH2 0x601 JUMP JUMPDEST SWAP3 SWAP2 POP POP JUMP JUMPDEST PUSH0 PUSH1 0x20 DUP3 DUP5 SUB SLT ISZERO PUSH2 0x640 JUMPI PUSH2 0x63F PUSH2 0x5FD JUMP JUMPDEST JUMPDEST PUSH0 PUSH2 0x64D DUP5 DUP3 DUP6 ADD PUSH2 0x617 JUMP JUMPDEST SWAP2 POP POP SWAP3 SWAP2 POP POP JUMP JUMPDEST PUSH0 DUP2 ISZERO ISZERO SWAP1 POP SWAP2 SWAP1 POP JUMP JUMPDEST PUSH2 0x66A DUP2 PUSH2 0x656 JUMP JUMPDEST DUP3 MSTORE POP POP JUMP JUMPDEST PUSH0 PUSH1 0x20 DUP3 ADD SWAP1 POP PUSH2 0x683 PUSH0 DUP4 ADD DUP5 PUSH2 0x661 JUMP JUMPDEST SWAP3 SWAP2 POP POP JUMP JUMPDEST PUSH0 PUSH20 0xFFFFFFFFFFFFFFFFFFFFFFFFFFFFFFFFFFFFFFFF DUP3 AND SWAP1 POP SWAP2 SWAP1 POP JUMP JUMPDEST PUSH0 PUSH2 0x6B2 DUP3 PUSH2 0x689 JUMP JUMPDEST SWAP1 POP SWAP2 SWAP1 POP JUMP JUMPDEST PUSH2 0x6C2 DUP2 PUSH2 0x6A8 JUMP JUMPDEST DUP2 EQ PUSH2 0x6CC JUMPI PUSH0 DUP1 REVERT JUMPDEST POP JUMP JUMPDEST PUSH0 DUP2 CALLDATALOAD SWAP1 POP PUSH2 0x6DD DUP2 PUSH2 0x6B9 JUMP JUMPDEST SWAP3 SWAP2 POP POP JUMP JUMPDEST PUSH0 DUP1 PUSH1 0x40 DUP4 DUP6 SUB SLT ISZERO PUSH2 0x6F9 JUMPI PUSH2 0x6F8 PUSH2 0x5FD JUMP JUMPDEST JUMPDEST PUSH0 PUSH2 0x706 DUP6 DUP3 DUP7 ADD PUSH2 0x6CF JUMP JUMPDEST SWAP3 POP POP PUSH1 0x20 PUSH2 0x717 DUP6 DUP3 DUP7 ADD PUSH2 0x617 JUMP JUMPDEST SWAP2 POP POP SWAP3 POP SWAP3 SWAP1 POP JUMP JUMPDEST PUSH32 0x4E487B7100000000000000000000000000000000000000000000000000000000 PUSH0 MSTORE PUSH1 0x11 PUSH1 0x4 MSTORE PUSH1 0x24 PUSH0 REVERT JUMPDEST PUSH0 PUSH2 0x758 DUP3 PUSH2 0x5CC JUMP JUMPDEST SWAP2 POP PUSH2 0x763 DUP4 PUSH2 0x5CC JUMP JUMPDEST SWAP3 POP DUP3 DUP3 SUB SWAP1 POP DUP2 DUP2 GT ISZERO PUSH2 0x77B JUMPI PUSH2 0x77A PUSH2 0x721 JUMP JUMPDEST JUMPDEST SWAP3 SWAP2 POP POP JUMP JUMPDEST PUSH0 DUP3 DUP3 MSTORE PUSH1 0x20 DUP3 ADD SWAP1 POP SWAP3 SWAP2 POP POP JUMP JUMPDEST PUSH32 0x696E73756666696369656E742042616C616E6365000000000000000000000000 PUSH0 DUP3 ADD MSTORE POP JUMP JUMPDEST PUSH0 PUSH2 0x7C5 PUSH1 0x14 DUP4 PUSH2 0x781 JUMP JUMPDEST SWAP2 POP PUSH2 0x7D0 DUP3 PUSH2 0x791 JUMP JUMPDEST PUSH1 0x20 DUP3 ADD SWAP1 POP SWAP2 SWAP1 POP JUMP JUMPDEST PUSH0 PUSH1 0x40 DUP3 ADD SWAP1 POP PUSH2 0x7EE PUSH0 DUP4 ADD DUP5 PUSH2 0x5D5 JUMP JUMPDEST DUP2 DUP2 SUB PUSH1 0x20 DUP4 ADD MSTORE PUSH2 0x7FF DUP2 PUSH2 0x7B9 JUMP JUMPDEST SWAP1 POP SWAP3 SWAP2 POP POP JUMP JUMPDEST PUSH32 0x596F75206861766520616C72656164792061206163636F756E74000000000000 PUSH0 DUP3 ADD MSTORE POP JUMP JUMPDEST PUSH0 PUSH2 0x83B PUSH1 0x1A DUP4 PUSH2 0x781 JUMP JUMPDEST SWAP2 POP PUSH2 0x846 DUP3 PUSH2 0x807 JUMP JUMPDEST PUSH1 0x20 DUP3 ADD SWAP1 POP SWAP2 SWAP1 POP JUMP JUMPDEST PUSH0 PUSH1 0x20 DUP3 ADD SWAP1 POP DUP2 DUP2 SUB PUSH0 DUP4 ADD MSTORE PUSH2 0x868 DUP2 PUSH2 0x82F JUMP JUMPDEST SWAP1 POP SWAP2 SWAP1 POP JUMP JUMPDEST PUSH32 0x416D6F756E74206D7573742062652067726561746572207468656E2030000000 PUSH0 DUP3 ADD MSTORE POP JUMP JUMPDEST PUSH0 PUSH2 0x8A3 PUSH1 0x1D DUP4 PUSH2 0x781 JUMP JUMPDEST SWAP2 POP PUSH2 0x8AE DUP3 PUSH2 0x86F JUMP JUMPDEST PUSH1 0x20 DUP3 ADD SWAP1 POP SWAP2 SWAP1 POP JUMP JUMPDEST PUSH0 PUSH1 0x20 DUP3 ADD SWAP1 POP DUP2 DUP2 SUB PUSH0 DUP4 ADD MSTORE PUSH2 0x8D0 DUP2 PUSH2 0x897 JUMP JUMPDEST SWAP1 POP SWAP2 SWAP1 POP JUMP JUMPDEST PUSH32 0x4E487B7100000000000000000000000000000000000000000000000000000000 PUSH0 MSTORE PUSH1 0x21 PUSH1 0x4 MSTORE PUSH1 0x24 PUSH0 REVERT JUMPDEST PUSH32 0x4F6E6C792041646D696E2063616E20646F2054686973205461736B0000000000 PUSH0 DUP3 ADD MSTORE POP JUMP JUMPDEST PUSH0 PUSH2 0x938 PUSH1 0x1B DUP4 PUSH2 0x781 JUMP JUMPDEST SWAP2 POP PUSH2 0x943 DUP3 PUSH2 0x904 JUMP JUMPDEST PUSH1 0x20 DUP3 ADD SWAP1 POP SWAP2 SWAP1 POP JUMP JUMPDEST PUSH0 PUSH1 0x20 DUP3 ADD SWAP1 POP DUP2 DUP2 SUB PUSH0 DUP4 ADD MSTORE PUSH2 0x965 DUP2 PUSH2 0x92C JUMP JUMPDEST SWAP1 POP SWAP2 SWAP1 POP JUMP JUMPDEST PUSH32 0x4465706F73697420616D6F756E742073686F756C64206265206D6F7265207468 PUSH0 DUP3 ADD MSTORE PUSH32 0x656E203000000000000000000000000000000000000000000000000000000000 PUSH1 0x20 DUP3 ADD MSTORE POP JUMP JUMPDEST PUSH0 PUSH2 0x9C6 PUSH1 0x24 DUP4 PUSH2 0x781 JUMP JUMPDEST SWAP2 POP PUSH2 0x9D1 DUP3 PUSH2 0x96C JUMP JUMPDEST PUSH1 0x40 DUP3 ADD SWAP1 POP SWAP2 SWAP1 POP JUMP JUMPDEST PUSH0 PUSH1 0x20 DUP3 ADD SWAP1 POP DUP2 DUP2 SUB PUSH0 DUP4 ADD MSTORE PUSH2 0x9F3 DUP2 PUSH2 0x9BA JUMP JUMPDEST SWAP1 POP SWAP2 SWAP1 POP JUMP JUMPDEST PUSH32 0x46697273742063726561746520616E206163636F756E74000000000000000000 PUSH0 DUP3 ADD MSTORE POP JUMP JUMPDEST PUSH0 PUSH2 0xA2E PUSH1 0x17 DUP4 PUSH2 0x781 JUMP JUMPDEST SWAP2 POP PUSH2 0xA39 DUP3 PUSH2 0x9FA JUMP JUMPDEST PUSH1 0x20 DUP3 ADD SWAP1 POP SWAP2 SWAP1 POP JUMP JUMPDEST PUSH0 PUSH1 0x20 DUP3 ADD SWAP1 POP DUP2 DUP2 SUB PUSH0 DUP4 ADD MSTORE PUSH2 0xA5B DUP2 PUSH2 0xA22 JUMP JUMPDEST SWAP1 POP SWAP2 SWAP1 POP JUMP JUMPDEST PUSH0 PUSH2 0xA6C DUP3 PUSH2 0x5CC JUMP JUMPDEST SWAP2 POP PUSH2 0xA77 DUP4 PUSH2 0x5CC JUMP JUMPDEST SWAP3 POP DUP3 DUP3 ADD SWAP1 POP DUP1 DUP3 GT ISZERO PUSH2 0xA8F JUMPI PUSH2 0xA8E PUSH2 0x721 JUMP JUMPDEST JUMPDEST SWAP3 SWAP2 POP POP JUMP INVALID LOG2 PUSH5 0x6970667358 0x22 SLT KECCAK256 SWAP2 0xBE DUP7 DUP13 CALLER 0xCF 0x4B 0x21 PUSH3 0xD86EB2 CHAINID 0xE3 0xAA MSTORE 0x4C SWAP5 0xFC SWAP3 0xB3 0xDA MSTORE8 0xD3 STOP 0xFC 0xEF 0xD6 0xC6 0xC7 0xCE BALANCE PUSH5 0x736F6C6343 STOP ADDMOD BYTE STOP CALLER "
				},
				"gasEstimates": {
					"creation": {
						"codeDepositCost": "552600",
						"executionCost": "24969",
						"totalCost": "577569"
					},
					"external": {
						"Deposit(address,uint256)": "infinite",
						"createAccount(uint256)": "73812",
						"getBal()": "2497",
						"withdraw(uint256)": "infinite"
					}
				},
				"methodIdentifiers": {
					"Deposit(address,uint256)": "e1fffcc4",
					"createAccount(uint256)": "cab13915",
					"getBal()": "25caa262",
					"withdraw(uint256)": "2e1a7d4d"
				}
			},
			"storageLayout": {
				"storage": [
					{
						"astId": 9,
						"contract": "Problem-Hard/AccessControlledBank.sol:AccessControlledBank",
						"label": "roles",
						"offset": 0,
						"slot": "0",
						"type": "t_mapping(t_address,t_enum(Role)4)"
					},
					{
						"astId": 13,
						"contract": "Problem-Hard/AccessControlledBank.sol:AccessControlledBank",
						"label": "balances",
						"offset": 0,
						"slot": "1",
						"type": "t_mapping(t_address,t_uint256)"
					},
					{
						"astId": 17,
						"contract": "Problem-Hard/AccessControlledBank.sol:AccessControlledBank",
						"label": "alreadyAcc",
						"offset": 0,
						"slot": "2",
						"type": "t_mapping(t_address,t_bool)"
					}
				],
				"types": {
					"t_address": {
						"encoding": "inplace",
						"label": "address",
						"numberOfBytes": "20"
					},
					"t_bool": {
						"encoding": "inplace",
						"label": "bool",
						"numberOfBytes": "1"
					},
					"t_enum(Role)4": {
						"encoding": "inplace",
						"label": "enum AccessControlledBank.Role",
						"numberOfBytes": "1"
					},
					"t_mapping(t_address,t_bool)": {
						"encoding": "mapping",
						"key": "t_address",
						"label": "mapping(address => bool)",
						"numberOfBytes": "32",
						"value": "t_bool"
					},
					"t_mapping(t_address,t_enum(Role)4)": {
						"encoding": "mapping",
						"key": "t_address",
						"label": "mapping(address => enum AccessControlledBank.Role)",
						"numberOfBytes": "32",
						"value": "t_enum(Role)4"
					},
					"t_mapping(t_address,t_uint256)": {
						"encoding": "mapping",
						"key": "t_address",
						"label": "mapping(address => uint256)",
						"numberOfBytes": "32",
						"value": "t_uint256"
					},
					"t_uint256": {
						"encoding": "inplace",
						"label": "uint256",
						"numberOfBytes": "32"
					}
				}
			},
			"userdoc": {
				"kind": "user",
				"methods": {},
				"version": 1
			}
		}
	}
}