{
	"data": {
		"bytecode": {
			"linkReferences": {},
			"object": "6080604052348015600e575f5ffd5b506105668061001c5f395ff3fe608060405234801561000f575f5ffd5b5060043610610029575f3560e01c8063fc0d1b841461002d575b5f5ffd5b61004760048036038101906100429190610365565b610049565b005b5f828260405160240161005d929190610440565b6040516020818303038152906040527fea87152b000000000000000000000000000000000000000000000000000000007bffffffffffffffffffffffffffffffffffffffffffffffffffffffff19166020820180517bffffffffffffffffffffffffffffffffffffffffffffffffffffffff838183161783525050505090505f8473ffffffffffffffffffffffffffffffffffffffff168260405161010291906104b2565b5f604051808303815f865af19150503d805f811461013b576040519150601f19603f3d011682016040523d82523d5f602084013e610140565b606091505b5050905080610184576040517f08c379a000000000000000000000000000000000000000000000000000000000815260040161017b90610512565b60405180910390fd5b5050505050565b5f604051905090565b5f5ffd5b5f5ffd5b5f73ffffffffffffffffffffffffffffffffffffffff82169050919050565b5f6101c58261019c565b9050919050565b6101d5816101bb565b81146101df575f5ffd5b50565b5f813590506101f0816101cc565b92915050565b5f5ffd5b5f5ffd5b5f601f19601f8301169050919050565b7f4e487b71000000000000000000000000000000000000000000000000000000005f52604160045260245ffd5b610244826101fe565b810181811067ffffffffffffffff821117156102635761026261020e565b5b80604052505050565b5f61027561018b565b9050610281828261023b565b919050565b5f67ffffffffffffffff8211156102a05761029f61020e565b5b6102a9826101fe565b9050602081019050919050565b828183375f83830152505050565b5f6102d66102d184610286565b61026c565b9050828152602081018484840111156102f2576102f16101fa565b5b6102fd8482856102b6565b509392505050565b5f82601f830112610319576103186101f6565b5b81356103298482602086016102c4565b91505092915050565b5f819050919050565b61034481610332565b811461034e575f5ffd5b50565b5f8135905061035f8161033b565b92915050565b5f5f5f6060848603121561037c5761037b610194565b5b5f610389868287016101e2565b935050602084013567ffffffffffffffff8111156103aa576103a9610198565b5b6103b686828701610305565b92505060406103c786828701610351565b9150509250925092565b5f81519050919050565b5f82825260208201905092915050565b8281835e5f83830152505050565b5f610403826103d1565b61040d81856103db565b935061041d8185602086016103eb565b610426816101fe565b840191505092915050565b61043a81610332565b82525050565b5f6040820190508181035f83015261045881856103f9565b90506104676020830184610431565b9392505050565b5f81519050919050565b5f81905092915050565b5f61048c8261046e565b6104968185610478565b93506104a68185602086016103eb565b80840191505092915050565b5f6104bd8284610482565b915081905092915050565b7f6661696c640000000000000000000000000000000000000000000000000000005f82015250565b5f6104fc6005836103db565b9150610507826104c8565b602082019050919050565b5f6020820190508181035f830152610529816104f0565b905091905056fea2646970667358221220b3f2aac4c44a3b9102ad4a393bc4df40adbfcbe9a4a78ecb95be38ff1567e3e564736f6c634300081d0033",
			"opcodes": "PUSH1 0x80 PUSH1 0x40 MSTORE CALLVALUE DUP1 ISZERO PUSH1 0xE JUMPI PUSH0 PUSH0 REVERT JUMPDEST POP PUSH2 0x566 DUP1 PUSH2 0x1C PUSH0 CODECOPY PUSH0 RETURN INVALID PUSH1 0x80 PUSH1 0x40 MSTORE CALLVALUE DUP1 ISZERO PUSH2 0xF JUMPI PUSH0 PUSH0 REVERT JUMPDEST POP PUSH1 0x4 CALLDATASIZE LT PUSH2 0x29 JUMPI PUSH0 CALLDATALOAD PUSH1 0xE0 SHR DUP1 PUSH4 0xFC0D1B84 EQ PUSH2 0x2D JUMPI JUMPDEST PUSH0 PUSH0 REVERT JUMPDEST PUSH2 0x47 PUSH1 0x4 DUP1 CALLDATASIZE SUB DUP2 ADD SWAP1 PUSH2 0x42 SWAP2 SWAP1 PUSH2 0x365 JUMP JUMPDEST PUSH2 0x49 JUMP JUMPDEST STOP JUMPDEST PUSH0 DUP3 DUP3 PUSH1 0x40 MLOAD PUSH1 0x24 ADD PUSH2 0x5D SWAP3 SWAP2 SWAP1 PUSH2 0x440 JUMP JUMPDEST PUSH1 0x40 MLOAD PUSH1 0x20 DUP2 DUP4 SUB SUB DUP2 MSTORE SWAP1 PUSH1 0x40 MSTORE PUSH32 0xEA87152B00000000000000000000000000000000000000000000000000000000 PUSH28 0xFFFFFFFFFFFFFFFFFFFFFFFFFFFFFFFFFFFFFFFFFFFFFFFFFFFFFFFF NOT AND PUSH1 0x20 DUP3 ADD DUP1 MLOAD PUSH28 0xFFFFFFFFFFFFFFFFFFFFFFFFFFFFFFFFFFFFFFFFFFFFFFFFFFFFFFFF DUP4 DUP2 DUP4 AND OR DUP4 MSTORE POP POP POP POP SWAP1 POP PUSH0 DUP5 PUSH20 0xFFFFFFFFFFFFFFFFFFFFFFFFFFFFFFFFFFFFFFFF AND DUP3 PUSH1 0x40 MLOAD PUSH2 0x102 SWAP2 SWAP1 PUSH2 0x4B2 JUMP JUMPDEST PUSH0 PUSH1 0x40 MLOAD DUP1 DUP4 SUB DUP2 PUSH0 DUP7 GAS CALL SWAP2 POP POP RETURNDATASIZE DUP1 PUSH0 DUP2 EQ PUSH2 0x13B JUMPI PUSH1 0x40 MLOAD SWAP2 POP PUSH1 0x1F NOT PUSH1 0x3F RETURNDATASIZE ADD AND DUP3 ADD PUSH1 0x40 MSTORE RETURNDATASIZE DUP3 MSTORE RETURNDATASIZE PUSH0 PUSH1 0x20 DUP5 ADD RETURNDATACOPY PUSH2 0x140 JUMP JUMPDEST PUSH1 0x60 SWAP2 POP JUMPDEST POP POP SWAP1 POP DUP1 PUSH2 0x184 JUMPI PUSH1 0x40 MLOAD PUSH32 0x8C379A000000000000000000000000000000000000000000000000000000000 DUP2 MSTORE PUSH1 0x4 ADD PUSH2 0x17B SWAP1 PUSH2 0x512 JUMP JUMPDEST PUSH1 0x40 MLOAD DUP1 SWAP2 SUB SWAP1 REVERT JUMPDEST POP POP POP POP POP JUMP JUMPDEST PUSH0 PUSH1 0x40 MLOAD SWAP1 POP SWAP1 JUMP JUMPDEST PUSH0 PUSH0 REVERT JUMPDEST PUSH0 PUSH0 REVERT JUMPDEST PUSH0 PUSH20 0xFFFFFFFFFFFFFFFFFFFFFFFFFFFFFFFFFFFFFFFF DUP3 AND SWAP1 POP SWAP2 SWAP1 POP JUMP JUMPDEST PUSH0 PUSH2 0x1C5 DUP3 PUSH2 0x19C JUMP JUMPDEST SWAP1 POP SWAP2 SWAP1 POP JUMP JUMPDEST PUSH2 0x1D5 DUP2 PUSH2 0x1BB JUMP JUMPDEST DUP2 EQ PUSH2 0x1DF JUMPI PUSH0 PUSH0 REVERT JUMPDEST POP JUMP JUMPDEST PUSH0 DUP2 CALLDATALOAD SWAP1 POP PUSH2 0x1F0 DUP2 PUSH2 0x1CC JUMP JUMPDEST SWAP3 SWAP2 POP POP JUMP JUMPDEST PUSH0 PUSH0 REVERT JUMPDEST PUSH0 PUSH0 REVERT JUMPDEST PUSH0 PUSH1 0x1F NOT PUSH1 0x1F DUP4 ADD AND SWAP1 POP SWAP2 SWAP1 POP JUMP JUMPDEST PUSH32 0x4E487B7100000000000000000000000000000000000000000000000000000000 PUSH0 MSTORE PUSH1 0x41 PUSH1 0x4 MSTORE PUSH1 0x24 PUSH0 REVERT JUMPDEST PUSH2 0x244 DUP3 PUSH2 0x1FE JUMP JUMPDEST DUP2 ADD DUP2 DUP2 LT PUSH8 0xFFFFFFFFFFFFFFFF DUP3 GT OR ISZERO PUSH2 0x263 JUMPI PUSH2 0x262 PUSH2 0x20E JUMP JUMPDEST JUMPDEST DUP1 PUSH1 0x40 MSTORE POP POP POP JUMP JUMPDEST PUSH0 PUSH2 0x275 PUSH2 0x18B JUMP JUMPDEST SWAP1 POP PUSH2 0x281 DUP3 DUP3 PUSH2 0x23B JUMP JUMPDEST SWAP2 SWAP1 POP JUMP JUMPDEST PUSH0 PUSH8 0xFFFFFFFFFFFFFFFF DUP3 GT ISZERO PUSH2 0x2A0 JUMPI PUSH2 0x29F PUSH2 0x20E JUMP JUMPDEST JUMPDEST PUSH2 0x2A9 DUP3 PUSH2 0x1FE JUMP JUMPDEST SWAP1 POP PUSH1 0x20 DUP2 ADD SWAP1 POP SWAP2 SWAP1 POP JUMP JUMPDEST DUP3 DUP2 DUP4 CALLDATACOPY PUSH0 DUP4 DUP4 ADD MSTORE POP POP POP JUMP JUMPDEST PUSH0 PUSH2 0x2D6 PUSH2 0x2D1 DUP5 PUSH2 0x286 JUMP JUMPDEST PUSH2 0x26C JUMP JUMPDEST SWAP1 POP DUP3 DUP2 MSTORE PUSH1 0x20 DUP2 ADD DUP5 DUP5 DUP5 ADD GT ISZERO PUSH2 0x2F2 JUMPI PUSH2 0x2F1 PUSH2 0x1FA JUMP JUMPDEST JUMPDEST PUSH2 0x2FD DUP5 DUP3 DUP6 PUSH2 0x2B6 JUMP JUMPDEST POP SWAP4 SWAP3 POP POP POP JUMP JUMPDEST PUSH0 DUP3 PUSH1 0x1F DUP4 ADD SLT PUSH2 0x319 JUMPI PUSH2 0x318 PUSH2 0x1F6 JUMP JUMPDEST JUMPDEST DUP2 CALLDATALOAD PUSH2 0x329 DUP5 DUP3 PUSH1 0x20 DUP7 ADD PUSH2 0x2C4 JUMP JUMPDEST SWAP2 POP POP SWAP3 SWAP2 POP POP JUMP JUMPDEST PUSH0 DUP2 SWAP1 POP SWAP2 SWAP1 POP JUMP JUMPDEST PUSH2 0x344 DUP2 PUSH2 0x332 JUMP JUMPDEST DUP2 EQ PUSH2 0x34E JUMPI PUSH0 PUSH0 REVERT JUMPDEST POP JUMP JUMPDEST PUSH0 DUP2 CALLDATALOAD SWAP1 POP PUSH2 0x35F DUP2 PUSH2 0x33B JUMP JUMPDEST SWAP3 SWAP2 POP POP JUMP JUMPDEST PUSH0 PUSH0 PUSH0 PUSH1 0x60 DUP5 DUP7 SUB SLT ISZERO PUSH2 0x37C JUMPI PUSH2 0x37B PUSH2 0x194 JUMP JUMPDEST JUMPDEST PUSH0 PUSH2 0x389 DUP7 DUP3 DUP8 ADD PUSH2 0x1E2 JUMP JUMPDEST SWAP4 POP POP PUSH1 0x20 DUP5 ADD CALLDATALOAD PUSH8 0xFFFFFFFFFFFFFFFF DUP2 GT ISZERO PUSH2 0x3AA JUMPI PUSH2 0x3A9 PUSH2 0x198 JUMP JUMPDEST JUMPDEST PUSH2 0x3B6 DUP7 DUP3 DUP8 ADD PUSH2 0x305 JUMP JUMPDEST SWAP3 POP POP PUSH1 0x40 PUSH2 0x3C7 DUP7 DUP3 DUP8 ADD PUSH2 0x351 JUMP JUMPDEST SWAP2 POP POP SWAP3 POP SWAP3 POP SWAP3 JUMP JUMPDEST PUSH0 DUP2 MLOAD SWAP1 POP SWAP2 SWAP1 POP JUMP JUMPDEST PUSH0 DUP3 DUP3 MSTORE PUSH1 0x20 DUP3 ADD SWAP1 POP SWAP3 SWAP2 POP POP JUMP JUMPDEST DUP3 DUP2 DUP4 MCOPY PUSH0 DUP4 DUP4 ADD MSTORE POP POP POP JUMP JUMPDEST PUSH0 PUSH2 0x403 DUP3 PUSH2 0x3D1 JUMP JUMPDEST PUSH2 0x40D DUP2 DUP6 PUSH2 0x3DB JUMP JUMPDEST SWAP4 POP PUSH2 0x41D DUP2 DUP6 PUSH1 0x20 DUP7 ADD PUSH2 0x3EB JUMP JUMPDEST PUSH2 0x426 DUP2 PUSH2 0x1FE JUMP JUMPDEST DUP5 ADD SWAP2 POP POP SWAP3 SWAP2 POP POP JUMP JUMPDEST PUSH2 0x43A DUP2 PUSH2 0x332 JUMP JUMPDEST DUP3 MSTORE POP POP JUMP JUMPDEST PUSH0 PUSH1 0x40 DUP3 ADD SWAP1 POP DUP2 DUP2 SUB PUSH0 DUP4 ADD MSTORE PUSH2 0x458 DUP2 DUP6 PUSH2 0x3F9 JUMP JUMPDEST SWAP1 POP PUSH2 0x467 PUSH1 0x20 DUP4 ADD DUP5 PUSH2 0x431 JUMP JUMPDEST SWAP4 SWAP3 POP POP POP JUMP JUMPDEST PUSH0 DUP2 MLOAD SWAP1 POP SWAP2 SWAP1 POP JUMP JUMPDEST PUSH0 DUP2 SWAP1 POP SWAP3 SWAP2 POP POP JUMP JUMPDEST PUSH0 PUSH2 0x48C DUP3 PUSH2 0x46E JUMP JUMPDEST PUSH2 0x496 DUP2 DUP6 PUSH2 0x478 JUMP JUMPDEST SWAP4 POP PUSH2 0x4A6 DUP2 DUP6 PUSH1 0x20 DUP7 ADD PUSH2 0x3EB JUMP JUMPDEST DUP1 DUP5 ADD SWAP2 POP POP SWAP3 SWAP2 POP POP JUMP JUMPDEST PUSH0 PUSH2 0x4BD DUP3 DUP5 PUSH2 0x482 JUMP JUMPDEST SWAP2 POP DUP2 SWAP1 POP SWAP3 SWAP2 POP POP JUMP JUMPDEST PUSH32 0x6661696C64000000000000000000000000000000000000000000000000000000 PUSH0 DUP3 ADD MSTORE POP JUMP JUMPDEST PUSH0 PUSH2 0x4FC PUSH1 0x5 DUP4 PUSH2 0x3DB JUMP JUMPDEST SWAP2 POP PUSH2 0x507 DUP3 PUSH2 0x4C8 JUMP JUMPDEST PUSH1 0x20 DUP3 ADD SWAP1 POP SWAP2 SWAP1 POP JUMP JUMPDEST PUSH0 PUSH1 0x20 DUP3 ADD SWAP1 POP DUP2 DUP2 SUB PUSH0 DUP4 ADD MSTORE PUSH2 0x529 DUP2 PUSH2 0x4F0 JUMP JUMPDEST SWAP1 POP SWAP2 SWAP1 POP JUMP INVALID LOG2 PUSH5 0x6970667358 0x22 SLT KECCAK256 0xB3 CALLCODE 0xAA 0xC4 0xC4 BLOBBASEFEE EXTCODESIZE SWAP2 MUL 0xAD BLOBBASEFEE CODECOPY EXTCODESIZE 0xC4 0xDF BLOCKHASH 0xAD 0xBF 0xCB 0xE9 LOG4 0xA7 DUP15 0xCB SWAP6 0xBE CODESIZE SELFDESTRUCT ISZERO PUSH8 0xE3E564736F6C6343 STOP ADDMOD SAR STOP CALLER "
		},
		"gasEstimates": {
			"creation": {
				"codeDepositCost": "276400",
				"executionCost": "316",
				"totalCost": "276716"
			},
			"external": {
				"register(address,string,uint256)": "infinite"
			}
		},
		"methodIdentifiers": {
			"register(address,string,uint256)": "fc0d1b84"
		}
	},
	"abi": [
		{
			"inputs": [
				{
					"internalType": "address",
					"name": "target",
					"type": "address"
				},
				{
					"internalType": "string",
					"name": "name",
					"type": "string"
				},
				{
					"internalType": "uint256",
					"name": "age",
					"type": "uint256"
				}
			],
			"name": "register",
			"outputs": [],
			"stateMutability": "nonpayable",
			"type": "function"
		}
	]
}