{
	"interface/InterfacePractice/Interfacep.sol": {
		"Admin": {
			"abi": [
				{
					"inputs": [
						{
							"internalType": "address",
							"name": "user",
							"type": "address"
						}
					],
					"stateMutability": "nonpayable",
					"type": "constructor"
				},
				{
					"inputs": [],
					"name": "ac",
					"outputs": [
						{
							"internalType": "contract IAccessControl",
							"name": "",
							"type": "address"
						}
					],
					"stateMutability": "view",
					"type": "function"
				},
				{
					"inputs": [
						{
							"internalType": "address",
							"name": "user",
							"type": "address"
						},
						{
							"internalType": "string",
							"name": "role",
							"type": "string"
						}
					],
					"name": "addMember",
					"outputs": [],
					"stateMutability": "nonpayable",
					"type": "function"
				},
				{
					"inputs": [
						{
							"internalType": "address",
							"name": "user",
							"type": "address"
						}
					],
					"name": "removeMember",
					"outputs": [],
					"stateMutability": "nonpayable",
					"type": "function"
				},
				{
					"inputs": [
						{
							"internalType": "address",
							"name": "user",
							"type": "address"
						}
					],
					"name": "viewRole",
					"outputs": [
						{
							"internalType": "string",
							"name": "",
							"type": "string"
						}
					],
					"stateMutability": "view",
					"type": "function"
				}
			],
			"devdoc": {
				"kind": "dev",
				"methods": {},
				"version": 1
			},
			"evm": {
				"assembly": "    /* \"interface/InterfacePractice/Interfacep.sol\":1596:2026  contract Admin{... */\n  mstore(0x40, 0x80)\n    /* \"interface/InterfacePractice/Interfacep.sol\":1647:1714  constructor(address user){... */\n  callvalue\n  dup1\n  iszero\n  tag_1\n  jumpi\n  0x00\n  dup1\n  revert\ntag_1:\n  pop\n  mload(0x40)\n  sub(codesize, bytecodeSize)\n  dup1\n  bytecodeSize\n  dup4\n  codecopy\n  dup2\n  dup2\n  add\n  0x40\n  mstore\n  dup2\n  add\n  swap1\n  tag_2\n  swap2\n  swap1\n  tag_3\n  jump\t// in\ntag_2:\n    /* \"interface/InterfacePractice/Interfacep.sol\":1702:1706  user */\n  dup1\n    /* \"interface/InterfacePractice/Interfacep.sol\":1682:1684  ac */\n  0x00\n  dup1\n    /* \"interface/InterfacePractice/Interfacep.sol\":1682:1707  ac = IAccessControl(user) */\n  0x0100\n  exp\n  dup2\n  sload\n  dup2\n  0xffffffffffffffffffffffffffffffffffffffff\n  mul\n  not\n  and\n  swap1\n  dup4\n  0xffffffffffffffffffffffffffffffffffffffff\n  and\n  mul\n  or\n  swap1\n  sstore\n  pop\n    /* \"interface/InterfacePractice/Interfacep.sol\":1647:1714  constructor(address user){... */\n  pop\n    /* \"interface/InterfacePractice/Interfacep.sol\":1596:2026  contract Admin{... */\n  jump(tag_6)\n    /* \"#utility.yul\":88:205   */\ntag_8:\n    /* \"#utility.yul\":197:198   */\n  0x00\n    /* \"#utility.yul\":194:195   */\n  dup1\n    /* \"#utility.yul\":187:199   */\n  revert\n    /* \"#utility.yul\":334:460   */\ntag_10:\n    /* \"#utility.yul\":371:378   */\n  0x00\n    /* \"#utility.yul\":411:453   */\n  0xffffffffffffffffffffffffffffffffffffffff\n    /* \"#utility.yul\":404:409   */\n  dup3\n    /* \"#utility.yul\":400:454   */\n  and\n    /* \"#utility.yul\":389:454   */\n  swap1\n  pop\n    /* \"#utility.yul\":334:460   */\n  swap2\n  swap1\n  pop\n  jump\t// out\n    /* \"#utility.yul\":466:562   */\ntag_11:\n    /* \"#utility.yul\":503:510   */\n  0x00\n    /* \"#utility.yul\":532:556   */\n  tag_20\n    /* \"#utility.yul\":550:555   */\n  dup3\n    /* \"#utility.yul\":532:556   */\n  tag_10\n  jump\t// in\ntag_20:\n    /* \"#utility.yul\":521:556   */\n  swap1\n  pop\n    /* \"#utility.yul\":466:562   */\n  swap2\n  swap1\n  pop\n  jump\t// out\n    /* \"#utility.yul\":568:690   */\ntag_12:\n    /* \"#utility.yul\":641:665   */\n  tag_22\n    /* \"#utility.yul\":659:664   */\n  dup2\n    /* \"#utility.yul\":641:665   */\n  tag_11\n  jump\t// in\ntag_22:\n    /* \"#utility.yul\":634:639   */\n  dup2\n    /* \"#utility.yul\":631:666   */\n  eq\n    /* \"#utility.yul\":621:684   */\n  tag_23\n  jumpi\n    /* \"#utility.yul\":680:681   */\n  0x00\n    /* \"#utility.yul\":677:678   */\n  dup1\n    /* \"#utility.yul\":670:682   */\n  revert\n    /* \"#utility.yul\":621:684   */\ntag_23:\n    /* \"#utility.yul\":568:690   */\n  pop\n  jump\t// out\n    /* \"#utility.yul\":696:839   */\ntag_13:\n    /* \"#utility.yul\":753:758   */\n  0x00\n    /* \"#utility.yul\":784:790   */\n  dup2\n    /* \"#utility.yul\":778:791   */\n  mload\n    /* \"#utility.yul\":769:791   */\n  swap1\n  pop\n    /* \"#utility.yul\":800:833   */\n  tag_25\n    /* \"#utility.yul\":827:832   */\n  dup2\n    /* \"#utility.yul\":800:833   */\n  tag_12\n  jump\t// in\ntag_25:\n    /* \"#utility.yul\":696:839   */\n  swap3\n  swap2\n  pop\n  pop\n  jump\t// out\n    /* \"#utility.yul\":845:1196   */\ntag_3:\n    /* \"#utility.yul\":915:921   */\n  0x00\n    /* \"#utility.yul\":964:966   */\n  0x20\n    /* \"#utility.yul\":952:961   */\n  dup3\n    /* \"#utility.yul\":943:950   */\n  dup5\n    /* \"#utility.yul\":939:962   */\n  sub\n    /* \"#utility.yul\":935:967   */\n  slt\n    /* \"#utility.yul\":932:1051   */\n  iszero\n  tag_27\n  jumpi\n    /* \"#utility.yul\":970:1049   */\n  tag_28\n  tag_8\n  jump\t// in\ntag_28:\n    /* \"#utility.yul\":932:1051   */\ntag_27:\n    /* \"#utility.yul\":1090:1091   */\n  0x00\n    /* \"#utility.yul\":1115:1179   */\n  tag_29\n    /* \"#utility.yul\":1171:1178   */\n  dup5\n    /* \"#utility.yul\":1162:1168   */\n  dup3\n    /* \"#utility.yul\":1151:1160   */\n  dup6\n    /* \"#utility.yul\":1147:1169   */\n  add\n    /* \"#utility.yul\":1115:1179   */\n  tag_13\n  jump\t// in\ntag_29:\n    /* \"#utility.yul\":1105:1179   */\n  swap2\n  pop\n    /* \"#utility.yul\":1061:1189   */\n  pop\n    /* \"#utility.yul\":845:1196   */\n  swap3\n  swap2\n  pop\n  pop\n  jump\t// out\n    /* \"interface/InterfacePractice/Interfacep.sol\":1596:2026  contract Admin{... */\ntag_6:\n  dataSize(sub_0)\n  dup1\n  dataOffset(sub_0)\n  0x00\n  codecopy\n  0x00\n  return\nstop\n\nsub_0: assembly {\n        /* \"interface/InterfacePractice/Interfacep.sol\":1596:2026  contract Admin{... */\n      mstore(0x40, 0x80)\n      callvalue\n      dup1\n      iszero\n      tag_1\n      jumpi\n      0x00\n      dup1\n      revert\n    tag_1:\n      pop\n      jumpi(tag_2, lt(calldatasize, 0x04))\n      shr(0xe0, calldataload(0x00))\n      dup1\n      0x02b67307\n      eq\n      tag_3\n      jumpi\n      dup1\n      0x0b1ca49a\n      eq\n      tag_4\n      jumpi\n      dup1\n      0x54b7c39b\n      eq\n      tag_5\n      jumpi\n      dup1\n      0xc127c247\n      eq\n      tag_6\n      jumpi\n    tag_2:\n      0x00\n      dup1\n      revert\n        /* \"interface/InterfacePractice/Interfacep.sol\":1914:2023  function viewRole(address user) external view returns(string memory) {... */\n    tag_3:\n      tag_7\n      0x04\n      dup1\n      calldatasize\n      sub\n      dup2\n      add\n      swap1\n      tag_8\n      swap2\n      swap1\n      tag_9\n      jump\t// in\n    tag_8:\n      tag_10\n      jump\t// in\n    tag_7:\n      mload(0x40)\n      tag_11\n      swap2\n      swap1\n      tag_12\n      jump\t// in\n    tag_11:\n      mload(0x40)\n      dup1\n      swap2\n      sub\n      swap1\n      return\n        /* \"interface/InterfacePractice/Interfacep.sol\":1827:1908  function removeMember(address user) external {... */\n    tag_4:\n      tag_13\n      0x04\n      dup1\n      calldatasize\n      sub\n      dup2\n      add\n      swap1\n      tag_14\n      swap2\n      swap1\n      tag_9\n      jump\t// in\n    tag_14:\n      tag_15\n      jump\t// in\n    tag_13:\n      stop\n        /* \"interface/InterfacePractice/Interfacep.sol\":1616:1640  IAccessControl public ac */\n    tag_5:\n      tag_16\n      tag_17\n      jump\t// in\n    tag_16:\n      mload(0x40)\n      tag_18\n      swap2\n      swap1\n      tag_19\n      jump\t// in\n    tag_18:\n      mload(0x40)\n      dup1\n      swap2\n      sub\n      swap1\n      return\n        /* \"interface/InterfacePractice/Interfacep.sol\":1720:1821  function addMember(address user, string memory role) external {... */\n    tag_6:\n      tag_20\n      0x04\n      dup1\n      calldatasize\n      sub\n      dup2\n      add\n      swap1\n      tag_21\n      swap2\n      swap1\n      tag_22\n      jump\t// in\n    tag_21:\n      tag_23\n      jump\t// in\n    tag_20:\n      stop\n        /* \"interface/InterfacePractice/Interfacep.sol\":1914:2023  function viewRole(address user) external view returns(string memory) {... */\n    tag_10:\n        /* \"interface/InterfacePractice/Interfacep.sol\":1968:1981  string memory */\n      0x60\n        /* \"interface/InterfacePractice/Interfacep.sol\":2000:2002  ac */\n      0x00\n      dup1\n      sload\n      swap1\n      0x0100\n      exp\n      swap1\n      div\n      0xffffffffffffffffffffffffffffffffffffffff\n      and\n        /* \"interface/InterfacePractice/Interfacep.sol\":2000:2010  ac.getRole */\n      0xffffffffffffffffffffffffffffffffffffffff\n      and\n      0x44276733\n        /* \"interface/InterfacePractice/Interfacep.sol\":2011:2015  user */\n      dup4\n        /* \"interface/InterfacePractice/Interfacep.sol\":2000:2016  ac.getRole(user) */\n      mload(0x40)\n      dup3\n      0xffffffff\n      and\n      0xe0\n      shl\n      dup2\n      mstore\n      0x04\n      add\n      tag_25\n      swap2\n      swap1\n      tag_26\n      jump\t// in\n    tag_25:\n      0x00\n      mload(0x40)\n      dup1\n      dup4\n      sub\n      dup2\n      dup7\n      gas\n      staticcall\n      iszero\n      dup1\n      iszero\n      tag_28\n      jumpi\n      returndatasize\n      0x00\n      dup1\n      returndatacopy\n      revert(0x00, returndatasize)\n    tag_28:\n      pop\n      pop\n      pop\n      pop\n      mload(0x40)\n      returndatasize\n      0x00\n      dup3\n      returndatacopy\n      returndatasize\n      not(0x1f)\n      0x1f\n      dup3\n      add\n      and\n      dup3\n      add\n      dup1\n      0x40\n      mstore\n      pop\n      dup2\n      add\n      swap1\n      tag_29\n      swap2\n      swap1\n      tag_30\n      jump\t// in\n    tag_29:\n        /* \"interface/InterfacePractice/Interfacep.sol\":1993:2016  return ac.getRole(user) */\n      swap1\n      pop\n        /* \"interface/InterfacePractice/Interfacep.sol\":1914:2023  function viewRole(address user) external view returns(string memory) {... */\n      swap2\n      swap1\n      pop\n      jump\t// out\n        /* \"interface/InterfacePractice/Interfacep.sol\":1827:1908  function removeMember(address user) external {... */\n    tag_15:\n        /* \"interface/InterfacePractice/Interfacep.sol\":1882:1884  ac */\n      0x00\n      dup1\n      sload\n      swap1\n      0x0100\n      exp\n      swap1\n      div\n      0xffffffffffffffffffffffffffffffffffffffff\n      and\n        /* \"interface/InterfacePractice/Interfacep.sol\":1882:1895  ac.removeRole */\n      0xffffffffffffffffffffffffffffffffffffffff\n      and\n      0x4762155d\n        /* \"interface/InterfacePractice/Interfacep.sol\":1896:1900  user */\n      dup3\n        /* \"interface/InterfacePractice/Interfacep.sol\":1882:1901  ac.removeRole(user) */\n      mload(0x40)\n      dup3\n      0xffffffff\n      and\n      0xe0\n      shl\n      dup2\n      mstore\n      0x04\n      add\n      tag_32\n      swap2\n      swap1\n      tag_26\n      jump\t// in\n    tag_32:\n      0x00\n      mload(0x40)\n      dup1\n      dup4\n      sub\n      dup2\n      0x00\n      dup8\n      dup1\n      extcodesize\n      iszero\n      dup1\n      iszero\n      tag_33\n      jumpi\n      0x00\n      dup1\n      revert\n    tag_33:\n      pop\n      gas\n      call\n      iszero\n      dup1\n      iszero\n      tag_35\n      jumpi\n      returndatasize\n      0x00\n      dup1\n      returndatacopy\n      revert(0x00, returndatasize)\n    tag_35:\n      pop\n      pop\n      pop\n      pop\n        /* \"interface/InterfacePractice/Interfacep.sol\":1827:1908  function removeMember(address user) external {... */\n      pop\n      jump\t// out\n        /* \"interface/InterfacePractice/Interfacep.sol\":1616:1640  IAccessControl public ac */\n    tag_17:\n      0x00\n      dup1\n      sload\n      swap1\n      0x0100\n      exp\n      swap1\n      div\n      0xffffffffffffffffffffffffffffffffffffffff\n      and\n      dup2\n      jump\t// out\n        /* \"interface/InterfacePractice/Interfacep.sol\":1720:1821  function addMember(address user, string memory role) external {... */\n    tag_23:\n        /* \"interface/InterfacePractice/Interfacep.sol\":1792:1794  ac */\n      0x00\n      dup1\n      sload\n      swap1\n      0x0100\n      exp\n      swap1\n      div\n      0xffffffffffffffffffffffffffffffffffffffff\n      and\n        /* \"interface/InterfacePractice/Interfacep.sol\":1792:1802  ac.addRole */\n      0xffffffffffffffffffffffffffffffffffffffff\n      and\n      0x7d72aa65\n        /* \"interface/InterfacePractice/Interfacep.sol\":1803:1807  user */\n      dup4\n        /* \"interface/InterfacePractice/Interfacep.sol\":1809:1813  role */\n      dup4\n        /* \"interface/InterfacePractice/Interfacep.sol\":1792:1814  ac.addRole(user, role) */\n      mload(0x40)\n      dup4\n      0xffffffff\n      and\n      0xe0\n      shl\n      dup2\n      mstore\n      0x04\n      add\n      tag_37\n      swap3\n      swap2\n      swap1\n      tag_38\n      jump\t// in\n    tag_37:\n      0x00\n      mload(0x40)\n      dup1\n      dup4\n      sub\n      dup2\n      0x00\n      dup8\n      dup1\n      extcodesize\n      iszero\n      dup1\n      iszero\n      tag_39\n      jumpi\n      0x00\n      dup1\n      revert\n    tag_39:\n      pop\n      gas\n      call\n      iszero\n      dup1\n      iszero\n      tag_41\n      jumpi\n      returndatasize\n      0x00\n      dup1\n      returndatacopy\n      revert(0x00, returndatasize)\n    tag_41:\n      pop\n      pop\n      pop\n      pop\n        /* \"interface/InterfacePractice/Interfacep.sol\":1720:1821  function addMember(address user, string memory role) external {... */\n      pop\n      pop\n      jump\t// out\n        /* \"#utility.yul\":7:82   */\n    tag_42:\n        /* \"#utility.yul\":40:46   */\n      0x00\n        /* \"#utility.yul\":73:75   */\n      0x40\n        /* \"#utility.yul\":67:76   */\n      mload\n        /* \"#utility.yul\":57:76   */\n      swap1\n      pop\n        /* \"#utility.yul\":7:82   */\n      swap1\n      jump\t// out\n        /* \"#utility.yul\":88:205   */\n    tag_43:\n        /* \"#utility.yul\":197:198   */\n      0x00\n        /* \"#utility.yul\":194:195   */\n      dup1\n        /* \"#utility.yul\":187:199   */\n      revert\n        /* \"#utility.yul\":211:328   */\n    tag_44:\n        /* \"#utility.yul\":320:321   */\n      0x00\n        /* \"#utility.yul\":317:318   */\n      dup1\n        /* \"#utility.yul\":310:322   */\n      revert\n        /* \"#utility.yul\":334:460   */\n    tag_45:\n        /* \"#utility.yul\":371:378   */\n      0x00\n        /* \"#utility.yul\":411:453   */\n      0xffffffffffffffffffffffffffffffffffffffff\n        /* \"#utility.yul\":404:409   */\n      dup3\n        /* \"#utility.yul\":400:454   */\n      and\n        /* \"#utility.yul\":389:454   */\n      swap1\n      pop\n        /* \"#utility.yul\":334:460   */\n      swap2\n      swap1\n      pop\n      jump\t// out\n        /* \"#utility.yul\":466:562   */\n    tag_46:\n        /* \"#utility.yul\":503:510   */\n      0x00\n        /* \"#utility.yul\":532:556   */\n      tag_77\n        /* \"#utility.yul\":550:555   */\n      dup3\n        /* \"#utility.yul\":532:556   */\n      tag_45\n      jump\t// in\n    tag_77:\n        /* \"#utility.yul\":521:556   */\n      swap1\n      pop\n        /* \"#utility.yul\":466:562   */\n      swap2\n      swap1\n      pop\n      jump\t// out\n        /* \"#utility.yul\":568:690   */\n    tag_47:\n        /* \"#utility.yul\":641:665   */\n      tag_79\n        /* \"#utility.yul\":659:664   */\n      dup2\n        /* \"#utility.yul\":641:665   */\n      tag_46\n      jump\t// in\n    tag_79:\n        /* \"#utility.yul\":634:639   */\n      dup2\n        /* \"#utility.yul\":631:666   */\n      eq\n        /* \"#utility.yul\":621:684   */\n      tag_80\n      jumpi\n        /* \"#utility.yul\":680:681   */\n      0x00\n        /* \"#utility.yul\":677:678   */\n      dup1\n        /* \"#utility.yul\":670:682   */\n      revert\n        /* \"#utility.yul\":621:684   */\n    tag_80:\n        /* \"#utility.yul\":568:690   */\n      pop\n      jump\t// out\n        /* \"#utility.yul\":696:835   */\n    tag_48:\n        /* \"#utility.yul\":742:747   */\n      0x00\n        /* \"#utility.yul\":780:786   */\n      dup2\n        /* \"#utility.yul\":767:787   */\n      calldataload\n        /* \"#utility.yul\":758:787   */\n      swap1\n      pop\n        /* \"#utility.yul\":796:829   */\n      tag_82\n        /* \"#utility.yul\":823:828   */\n      dup2\n        /* \"#utility.yul\":796:829   */\n      tag_47\n      jump\t// in\n    tag_82:\n        /* \"#utility.yul\":696:835   */\n      swap3\n      swap2\n      pop\n      pop\n      jump\t// out\n        /* \"#utility.yul\":841:1170   */\n    tag_9:\n        /* \"#utility.yul\":900:906   */\n      0x00\n        /* \"#utility.yul\":949:951   */\n      0x20\n        /* \"#utility.yul\":937:946   */\n      dup3\n        /* \"#utility.yul\":928:935   */\n      dup5\n        /* \"#utility.yul\":924:947   */\n      sub\n        /* \"#utility.yul\":920:952   */\n      slt\n        /* \"#utility.yul\":917:1036   */\n      iszero\n      tag_84\n      jumpi\n        /* \"#utility.yul\":955:1034   */\n      tag_85\n      tag_43\n      jump\t// in\n    tag_85:\n        /* \"#utility.yul\":917:1036   */\n    tag_84:\n        /* \"#utility.yul\":1075:1076   */\n      0x00\n        /* \"#utility.yul\":1100:1153   */\n      tag_86\n        /* \"#utility.yul\":1145:1152   */\n      dup5\n        /* \"#utility.yul\":1136:1142   */\n      dup3\n        /* \"#utility.yul\":1125:1134   */\n      dup6\n        /* \"#utility.yul\":1121:1143   */\n      add\n        /* \"#utility.yul\":1100:1153   */\n      tag_48\n      jump\t// in\n    tag_86:\n        /* \"#utility.yul\":1090:1153   */\n      swap2\n      pop\n        /* \"#utility.yul\":1046:1163   */\n      pop\n        /* \"#utility.yul\":841:1170   */\n      swap3\n      swap2\n      pop\n      pop\n      jump\t// out\n        /* \"#utility.yul\":1176:1275   */\n    tag_49:\n        /* \"#utility.yul\":1228:1234   */\n      0x00\n        /* \"#utility.yul\":1262:1267   */\n      dup2\n        /* \"#utility.yul\":1256:1268   */\n      mload\n        /* \"#utility.yul\":1246:1268   */\n      swap1\n      pop\n        /* \"#utility.yul\":1176:1275   */\n      swap2\n      swap1\n      pop\n      jump\t// out\n        /* \"#utility.yul\":1281:1450   */\n    tag_50:\n        /* \"#utility.yul\":1365:1376   */\n      0x00\n        /* \"#utility.yul\":1399:1405   */\n      dup3\n        /* \"#utility.yul\":1394:1397   */\n      dup3\n        /* \"#utility.yul\":1387:1406   */\n      mstore\n        /* \"#utility.yul\":1439:1443   */\n      0x20\n        /* \"#utility.yul\":1434:1437   */\n      dup3\n        /* \"#utility.yul\":1430:1444   */\n      add\n        /* \"#utility.yul\":1415:1444   */\n      swap1\n      pop\n        /* \"#utility.yul\":1281:1450   */\n      swap3\n      swap2\n      pop\n      pop\n      jump\t// out\n        /* \"#utility.yul\":1456:1595   */\n    tag_51:\n        /* \"#utility.yul\":1545:1551   */\n      dup3\n        /* \"#utility.yul\":1540:1543   */\n      dup2\n        /* \"#utility.yul\":1535:1538   */\n      dup4\n        /* \"#utility.yul\":1529:1552   */\n      mcopy\n        /* \"#utility.yul\":1586:1587   */\n      0x00\n        /* \"#utility.yul\":1577:1583   */\n      dup4\n        /* \"#utility.yul\":1572:1575   */\n      dup4\n        /* \"#utility.yul\":1568:1584   */\n      add\n        /* \"#utility.yul\":1561:1588   */\n      mstore\n        /* \"#utility.yul\":1456:1595   */\n      pop\n      pop\n      pop\n      jump\t// out\n        /* \"#utility.yul\":1601:1703   */\n    tag_52:\n        /* \"#utility.yul\":1642:1648   */\n      0x00\n        /* \"#utility.yul\":1693:1695   */\n      0x1f\n        /* \"#utility.yul\":1689:1696   */\n      not\n        /* \"#utility.yul\":1684:1686   */\n      0x1f\n        /* \"#utility.yul\":1677:1682   */\n      dup4\n        /* \"#utility.yul\":1673:1687   */\n      add\n        /* \"#utility.yul\":1669:1697   */\n      and\n        /* \"#utility.yul\":1659:1697   */\n      swap1\n      pop\n        /* \"#utility.yul\":1601:1703   */\n      swap2\n      swap1\n      pop\n      jump\t// out\n        /* \"#utility.yul\":1709:2086   */\n    tag_53:\n        /* \"#utility.yul\":1797:1800   */\n      0x00\n        /* \"#utility.yul\":1825:1864   */\n      tag_92\n        /* \"#utility.yul\":1858:1863   */\n      dup3\n        /* \"#utility.yul\":1825:1864   */\n      tag_49\n      jump\t// in\n    tag_92:\n        /* \"#utility.yul\":1880:1951   */\n      tag_93\n        /* \"#utility.yul\":1944:1950   */\n      dup2\n        /* \"#utility.yul\":1939:1942   */\n      dup6\n        /* \"#utility.yul\":1880:1951   */\n      tag_50\n      jump\t// in\n    tag_93:\n        /* \"#utility.yul\":1873:1951   */\n      swap4\n      pop\n        /* \"#utility.yul\":1960:2025   */\n      tag_94\n        /* \"#utility.yul\":2018:2024   */\n      dup2\n        /* \"#utility.yul\":2013:2016   */\n      dup6\n        /* \"#utility.yul\":2006:2010   */\n      0x20\n        /* \"#utility.yul\":1999:2004   */\n      dup7\n        /* \"#utility.yul\":1995:2011   */\n      add\n        /* \"#utility.yul\":1960:2025   */\n      tag_51\n      jump\t// in\n    tag_94:\n        /* \"#utility.yul\":2050:2079   */\n      tag_95\n        /* \"#utility.yul\":2072:2078   */\n      dup2\n        /* \"#utility.yul\":2050:2079   */\n      tag_52\n      jump\t// in\n    tag_95:\n        /* \"#utility.yul\":2045:2048   */\n      dup5\n        /* \"#utility.yul\":2041:2080   */\n      add\n        /* \"#utility.yul\":2034:2080   */\n      swap2\n      pop\n        /* \"#utility.yul\":1801:2086   */\n      pop\n        /* \"#utility.yul\":1709:2086   */\n      swap3\n      swap2\n      pop\n      pop\n      jump\t// out\n        /* \"#utility.yul\":2092:2405   */\n    tag_12:\n        /* \"#utility.yul\":2205:2209   */\n      0x00\n        /* \"#utility.yul\":2243:2245   */\n      0x20\n        /* \"#utility.yul\":2232:2241   */\n      dup3\n        /* \"#utility.yul\":2228:2246   */\n      add\n        /* \"#utility.yul\":2220:2246   */\n      swap1\n      pop\n        /* \"#utility.yul\":2292:2301   */\n      dup2\n        /* \"#utility.yul\":2286:2290   */\n      dup2\n        /* \"#utility.yul\":2282:2302   */\n      sub\n        /* \"#utility.yul\":2278:2279   */\n      0x00\n        /* \"#utility.yul\":2267:2276   */\n      dup4\n        /* \"#utility.yul\":2263:2280   */\n      add\n        /* \"#utility.yul\":2256:2303   */\n      mstore\n        /* \"#utility.yul\":2320:2398   */\n      tag_97\n        /* \"#utility.yul\":2393:2397   */\n      dup2\n        /* \"#utility.yul\":2384:2390   */\n      dup5\n        /* \"#utility.yul\":2320:2398   */\n      tag_53\n      jump\t// in\n    tag_97:\n        /* \"#utility.yul\":2312:2398   */\n      swap1\n      pop\n        /* \"#utility.yul\":2092:2405   */\n      swap3\n      swap2\n      pop\n      pop\n      jump\t// out\n        /* \"#utility.yul\":2411:2471   */\n    tag_54:\n        /* \"#utility.yul\":2439:2442   */\n      0x00\n        /* \"#utility.yul\":2460:2465   */\n      dup2\n        /* \"#utility.yul\":2453:2465   */\n      swap1\n      pop\n        /* \"#utility.yul\":2411:2471   */\n      swap2\n      swap1\n      pop\n      jump\t// out\n        /* \"#utility.yul\":2477:2619   */\n    tag_55:\n        /* \"#utility.yul\":2527:2536   */\n      0x00\n        /* \"#utility.yul\":2560:2613   */\n      tag_100\n        /* \"#utility.yul\":2578:2612   */\n      tag_101\n        /* \"#utility.yul\":2587:2611   */\n      tag_102\n        /* \"#utility.yul\":2605:2610   */\n      dup5\n        /* \"#utility.yul\":2587:2611   */\n      tag_45\n      jump\t// in\n    tag_102:\n        /* \"#utility.yul\":2578:2612   */\n      tag_54\n      jump\t// in\n    tag_101:\n        /* \"#utility.yul\":2560:2613   */\n      tag_45\n      jump\t// in\n    tag_100:\n        /* \"#utility.yul\":2547:2613   */\n      swap1\n      pop\n        /* \"#utility.yul\":2477:2619   */\n      swap2\n      swap1\n      pop\n      jump\t// out\n        /* \"#utility.yul\":2625:2751   */\n    tag_56:\n        /* \"#utility.yul\":2675:2684   */\n      0x00\n        /* \"#utility.yul\":2708:2745   */\n      tag_104\n        /* \"#utility.yul\":2739:2744   */\n      dup3\n        /* \"#utility.yul\":2708:2745   */\n      tag_55\n      jump\t// in\n    tag_104:\n        /* \"#utility.yul\":2695:2745   */\n      swap1\n      pop\n        /* \"#utility.yul\":2625:2751   */\n      swap2\n      swap1\n      pop\n      jump\t// out\n        /* \"#utility.yul\":2757:2904   */\n    tag_57:\n        /* \"#utility.yul\":2828:2837   */\n      0x00\n        /* \"#utility.yul\":2861:2898   */\n      tag_106\n        /* \"#utility.yul\":2892:2897   */\n      dup3\n        /* \"#utility.yul\":2861:2898   */\n      tag_56\n      jump\t// in\n    tag_106:\n        /* \"#utility.yul\":2848:2898   */\n      swap1\n      pop\n        /* \"#utility.yul\":2757:2904   */\n      swap2\n      swap1\n      pop\n      jump\t// out\n        /* \"#utility.yul\":2910:3083   */\n    tag_58:\n        /* \"#utility.yul\":3018:3076   */\n      tag_108\n        /* \"#utility.yul\":3070:3075   */\n      dup2\n        /* \"#utility.yul\":3018:3076   */\n      tag_57\n      jump\t// in\n    tag_108:\n        /* \"#utility.yul\":3013:3016   */\n      dup3\n        /* \"#utility.yul\":3006:3077   */\n      mstore\n        /* \"#utility.yul\":2910:3083   */\n      pop\n      pop\n      jump\t// out\n        /* \"#utility.yul\":3089:3353   */\n    tag_19:\n        /* \"#utility.yul\":3203:3207   */\n      0x00\n        /* \"#utility.yul\":3241:3243   */\n      0x20\n        /* \"#utility.yul\":3230:3239   */\n      dup3\n        /* \"#utility.yul\":3226:3244   */\n      add\n        /* \"#utility.yul\":3218:3244   */\n      swap1\n      pop\n        /* \"#utility.yul\":3254:3346   */\n      tag_110\n        /* \"#utility.yul\":3343:3344   */\n      0x00\n        /* \"#utility.yul\":3332:3341   */\n      dup4\n        /* \"#utility.yul\":3328:3345   */\n      add\n        /* \"#utility.yul\":3319:3325   */\n      dup5\n        /* \"#utility.yul\":3254:3346   */\n      tag_58\n      jump\t// in\n    tag_110:\n        /* \"#utility.yul\":3089:3353   */\n      swap3\n      swap2\n      pop\n      pop\n      jump\t// out\n        /* \"#utility.yul\":3359:3476   */\n    tag_59:\n        /* \"#utility.yul\":3468:3469   */\n      0x00\n        /* \"#utility.yul\":3465:3466   */\n      dup1\n        /* \"#utility.yul\":3458:3470   */\n      revert\n        /* \"#utility.yul\":3482:3599   */\n    tag_60:\n        /* \"#utility.yul\":3591:3592   */\n      0x00\n        /* \"#utility.yul\":3588:3589   */\n      dup1\n        /* \"#utility.yul\":3581:3593   */\n      revert\n        /* \"#utility.yul\":3605:3785   */\n    tag_61:\n        /* \"#utility.yul\":3653:3730   */\n      0x4e487b7100000000000000000000000000000000000000000000000000000000\n        /* \"#utility.yul\":3650:3651   */\n      0x00\n        /* \"#utility.yul\":3643:3731   */\n      mstore\n        /* \"#utility.yul\":3750:3754   */\n      0x41\n        /* \"#utility.yul\":3747:3748   */\n      0x04\n        /* \"#utility.yul\":3740:3755   */\n      mstore\n        /* \"#utility.yul\":3774:3778   */\n      0x24\n        /* \"#utility.yul\":3771:3772   */\n      0x00\n        /* \"#utility.yul\":3764:3779   */\n      revert\n        /* \"#utility.yul\":3791:4072   */\n    tag_62:\n        /* \"#utility.yul\":3874:3901   */\n      tag_115\n        /* \"#utility.yul\":3896:3900   */\n      dup3\n        /* \"#utility.yul\":3874:3901   */\n      tag_52\n      jump\t// in\n    tag_115:\n        /* \"#utility.yul\":3866:3872   */\n      dup2\n        /* \"#utility.yul\":3862:3902   */\n      add\n        /* \"#utility.yul\":4004:4010   */\n      dup2\n        /* \"#utility.yul\":3992:4002   */\n      dup2\n        /* \"#utility.yul\":3989:4011   */\n      lt\n        /* \"#utility.yul\":3968:3986   */\n      0xffffffffffffffff\n        /* \"#utility.yul\":3956:3966   */\n      dup3\n        /* \"#utility.yul\":3953:3987   */\n      gt\n        /* \"#utility.yul\":3950:4012   */\n      or\n        /* \"#utility.yul\":3947:4035   */\n      iszero\n      tag_116\n      jumpi\n        /* \"#utility.yul\":4015:4033   */\n      tag_117\n      tag_61\n      jump\t// in\n    tag_117:\n        /* \"#utility.yul\":3947:4035   */\n    tag_116:\n        /* \"#utility.yul\":4055:4065   */\n      dup1\n        /* \"#utility.yul\":4051:4053   */\n      0x40\n        /* \"#utility.yul\":4044:4066   */\n      mstore\n        /* \"#utility.yul\":3834:4072   */\n      pop\n        /* \"#utility.yul\":3791:4072   */\n      pop\n      pop\n      jump\t// out\n        /* \"#utility.yul\":4078:4207   */\n    tag_63:\n        /* \"#utility.yul\":4112:4118   */\n      0x00\n        /* \"#utility.yul\":4139:4159   */\n      tag_119\n      tag_42\n      jump\t// in\n    tag_119:\n        /* \"#utility.yul\":4129:4159   */\n      swap1\n      pop\n        /* \"#utility.yul\":4168:4201   */\n      tag_120\n        /* \"#utility.yul\":4196:4200   */\n      dup3\n        /* \"#utility.yul\":4188:4194   */\n      dup3\n        /* \"#utility.yul\":4168:4201   */\n      tag_62\n      jump\t// in\n    tag_120:\n        /* \"#utility.yul\":4078:4207   */\n      swap2\n      swap1\n      pop\n      jump\t// out\n        /* \"#utility.yul\":4213:4521   */\n    tag_64:\n        /* \"#utility.yul\":4275:4279   */\n      0x00\n        /* \"#utility.yul\":4365:4383   */\n      0xffffffffffffffff\n        /* \"#utility.yul\":4357:4363   */\n      dup3\n        /* \"#utility.yul\":4354:4384   */\n      gt\n        /* \"#utility.yul\":4351:4407   */\n      iszero\n      tag_122\n      jumpi\n        /* \"#utility.yul\":4387:4405   */\n      tag_123\n      tag_61\n      jump\t// in\n    tag_123:\n        /* \"#utility.yul\":4351:4407   */\n    tag_122:\n        /* \"#utility.yul\":4425:4454   */\n      tag_124\n        /* \"#utility.yul\":4447:4453   */\n      dup3\n        /* \"#utility.yul\":4425:4454   */\n      tag_52\n      jump\t// in\n    tag_124:\n        /* \"#utility.yul\":4417:4454   */\n      swap1\n      pop\n        /* \"#utility.yul\":4509:4513   */\n      0x20\n        /* \"#utility.yul\":4503:4507   */\n      dup2\n        /* \"#utility.yul\":4499:4514   */\n      add\n        /* \"#utility.yul\":4491:4514   */\n      swap1\n      pop\n        /* \"#utility.yul\":4213:4521   */\n      swap2\n      swap1\n      pop\n      jump\t// out\n        /* \"#utility.yul\":4527:4675   */\n    tag_65:\n        /* \"#utility.yul\":4625:4631   */\n      dup3\n        /* \"#utility.yul\":4620:4623   */\n      dup2\n        /* \"#utility.yul\":4615:4618   */\n      dup4\n        /* \"#utility.yul\":4602:4632   */\n      calldatacopy\n        /* \"#utility.yul\":4666:4667   */\n      0x00\n        /* \"#utility.yul\":4657:4663   */\n      dup4\n        /* \"#utility.yul\":4652:4655   */\n      dup4\n        /* \"#utility.yul\":4648:4664   */\n      add\n        /* \"#utility.yul\":4641:4668   */\n      mstore\n        /* \"#utility.yul\":4527:4675   */\n      pop\n      pop\n      pop\n      jump\t// out\n        /* \"#utility.yul\":4681:5106   */\n    tag_66:\n        /* \"#utility.yul\":4759:4764   */\n      0x00\n        /* \"#utility.yul\":4784:4850   */\n      tag_127\n        /* \"#utility.yul\":4800:4849   */\n      tag_128\n        /* \"#utility.yul\":4842:4848   */\n      dup5\n        /* \"#utility.yul\":4800:4849   */\n      tag_64\n      jump\t// in\n    tag_128:\n        /* \"#utility.yul\":4784:4850   */\n      tag_63\n      jump\t// in\n    tag_127:\n        /* \"#utility.yul\":4775:4850   */\n      swap1\n      pop\n        /* \"#utility.yul\":4873:4879   */\n      dup3\n        /* \"#utility.yul\":4866:4871   */\n      dup2\n        /* \"#utility.yul\":4859:4880   */\n      mstore\n        /* \"#utility.yul\":4911:4915   */\n      0x20\n        /* \"#utility.yul\":4904:4909   */\n      dup2\n        /* \"#utility.yul\":4900:4916   */\n      add\n        /* \"#utility.yul\":4949:4952   */\n      dup5\n        /* \"#utility.yul\":4940:4946   */\n      dup5\n        /* \"#utility.yul\":4935:4938   */\n      dup5\n        /* \"#utility.yul\":4931:4947   */\n      add\n        /* \"#utility.yul\":4928:4953   */\n      gt\n        /* \"#utility.yul\":4925:5037   */\n      iszero\n      tag_129\n      jumpi\n        /* \"#utility.yul\":4956:5035   */\n      tag_130\n      tag_60\n      jump\t// in\n    tag_130:\n        /* \"#utility.yul\":4925:5037   */\n    tag_129:\n        /* \"#utility.yul\":5046:5100   */\n      tag_131\n        /* \"#utility.yul\":5093:5099   */\n      dup5\n        /* \"#utility.yul\":5088:5091   */\n      dup3\n        /* \"#utility.yul\":5083:5086   */\n      dup6\n        /* \"#utility.yul\":5046:5100   */\n      tag_65\n      jump\t// in\n    tag_131:\n        /* \"#utility.yul\":4765:5106   */\n      pop\n        /* \"#utility.yul\":4681:5106   */\n      swap4\n      swap3\n      pop\n      pop\n      pop\n      jump\t// out\n        /* \"#utility.yul\":5126:5466   */\n    tag_67:\n        /* \"#utility.yul\":5182:5187   */\n      0x00\n        /* \"#utility.yul\":5231:5234   */\n      dup3\n        /* \"#utility.yul\":5224:5228   */\n      0x1f\n        /* \"#utility.yul\":5216:5222   */\n      dup4\n        /* \"#utility.yul\":5212:5229   */\n      add\n        /* \"#utility.yul\":5208:5235   */\n      slt\n        /* \"#utility.yul\":5198:5320   */\n      tag_133\n      jumpi\n        /* \"#utility.yul\":5239:5318   */\n      tag_134\n      tag_59\n      jump\t// in\n    tag_134:\n        /* \"#utility.yul\":5198:5320   */\n    tag_133:\n        /* \"#utility.yul\":5356:5362   */\n      dup2\n        /* \"#utility.yul\":5343:5363   */\n      calldataload\n        /* \"#utility.yul\":5381:5460   */\n      tag_135\n        /* \"#utility.yul\":5456:5459   */\n      dup5\n        /* \"#utility.yul\":5448:5454   */\n      dup3\n        /* \"#utility.yul\":5441:5445   */\n      0x20\n        /* \"#utility.yul\":5433:5439   */\n      dup7\n        /* \"#utility.yul\":5429:5446   */\n      add\n        /* \"#utility.yul\":5381:5460   */\n      tag_66\n      jump\t// in\n    tag_135:\n        /* \"#utility.yul\":5372:5460   */\n      swap2\n      pop\n        /* \"#utility.yul\":5188:5466   */\n      pop\n        /* \"#utility.yul\":5126:5466   */\n      swap3\n      swap2\n      pop\n      pop\n      jump\t// out\n        /* \"#utility.yul\":5472:6126   */\n    tag_22:\n        /* \"#utility.yul\":5550:5556   */\n      0x00\n        /* \"#utility.yul\":5558:5564   */\n      dup1\n        /* \"#utility.yul\":5607:5609   */\n      0x40\n        /* \"#utility.yul\":5595:5604   */\n      dup4\n        /* \"#utility.yul\":5586:5593   */\n      dup6\n        /* \"#utility.yul\":5582:5605   */\n      sub\n        /* \"#utility.yul\":5578:5610   */\n      slt\n        /* \"#utility.yul\":5575:5694   */\n      iszero\n      tag_137\n      jumpi\n        /* \"#utility.yul\":5613:5692   */\n      tag_138\n      tag_43\n      jump\t// in\n    tag_138:\n        /* \"#utility.yul\":5575:5694   */\n    tag_137:\n        /* \"#utility.yul\":5733:5734   */\n      0x00\n        /* \"#utility.yul\":5758:5811   */\n      tag_139\n        /* \"#utility.yul\":5803:5810   */\n      dup6\n        /* \"#utility.yul\":5794:5800   */\n      dup3\n        /* \"#utility.yul\":5783:5792   */\n      dup7\n        /* \"#utility.yul\":5779:5801   */\n      add\n        /* \"#utility.yul\":5758:5811   */\n      tag_48\n      jump\t// in\n    tag_139:\n        /* \"#utility.yul\":5748:5811   */\n      swap3\n      pop\n        /* \"#utility.yul\":5704:5821   */\n      pop\n        /* \"#utility.yul\":5888:5890   */\n      0x20\n        /* \"#utility.yul\":5877:5886   */\n      dup4\n        /* \"#utility.yul\":5873:5891   */\n      add\n        /* \"#utility.yul\":5860:5892   */\n      calldataload\n        /* \"#utility.yul\":5919:5937   */\n      0xffffffffffffffff\n        /* \"#utility.yul\":5911:5917   */\n      dup2\n        /* \"#utility.yul\":5908:5938   */\n      gt\n        /* \"#utility.yul\":5905:6022   */\n      iszero\n      tag_140\n      jumpi\n        /* \"#utility.yul\":5941:6020   */\n      tag_141\n      tag_44\n      jump\t// in\n    tag_141:\n        /* \"#utility.yul\":5905:6022   */\n    tag_140:\n        /* \"#utility.yul\":6046:6109   */\n      tag_142\n        /* \"#utility.yul\":6101:6108   */\n      dup6\n        /* \"#utility.yul\":6092:6098   */\n      dup3\n        /* \"#utility.yul\":6081:6090   */\n      dup7\n        /* \"#utility.yul\":6077:6099   */\n      add\n        /* \"#utility.yul\":6046:6109   */\n      tag_67\n      jump\t// in\n    tag_142:\n        /* \"#utility.yul\":6036:6109   */\n      swap2\n      pop\n        /* \"#utility.yul\":5831:6119   */\n      pop\n        /* \"#utility.yul\":5472:6126   */\n      swap3\n      pop\n      swap3\n      swap1\n      pop\n      jump\t// out\n        /* \"#utility.yul\":6132:6250   */\n    tag_68:\n        /* \"#utility.yul\":6219:6243   */\n      tag_144\n        /* \"#utility.yul\":6237:6242   */\n      dup2\n        /* \"#utility.yul\":6219:6243   */\n      tag_46\n      jump\t// in\n    tag_144:\n        /* \"#utility.yul\":6214:6217   */\n      dup3\n        /* \"#utility.yul\":6207:6244   */\n      mstore\n        /* \"#utility.yul\":6132:6250   */\n      pop\n      pop\n      jump\t// out\n        /* \"#utility.yul\":6256:6478   */\n    tag_26:\n        /* \"#utility.yul\":6349:6353   */\n      0x00\n        /* \"#utility.yul\":6387:6389   */\n      0x20\n        /* \"#utility.yul\":6376:6385   */\n      dup3\n        /* \"#utility.yul\":6372:6390   */\n      add\n        /* \"#utility.yul\":6364:6390   */\n      swap1\n      pop\n        /* \"#utility.yul\":6400:6471   */\n      tag_146\n        /* \"#utility.yul\":6468:6469   */\n      0x00\n        /* \"#utility.yul\":6457:6466   */\n      dup4\n        /* \"#utility.yul\":6453:6470   */\n      add\n        /* \"#utility.yul\":6444:6450   */\n      dup5\n        /* \"#utility.yul\":6400:6471   */\n      tag_68\n      jump\t// in\n    tag_146:\n        /* \"#utility.yul\":6256:6478   */\n      swap3\n      swap2\n      pop\n      pop\n      jump\t// out\n        /* \"#utility.yul\":6484:6918   */\n    tag_69:\n        /* \"#utility.yul\":6573:6578   */\n      0x00\n        /* \"#utility.yul\":6598:6664   */\n      tag_148\n        /* \"#utility.yul\":6614:6663   */\n      tag_149\n        /* \"#utility.yul\":6656:6662   */\n      dup5\n        /* \"#utility.yul\":6614:6663   */\n      tag_64\n      jump\t// in\n    tag_149:\n        /* \"#utility.yul\":6598:6664   */\n      tag_63\n      jump\t// in\n    tag_148:\n        /* \"#utility.yul\":6589:6664   */\n      swap1\n      pop\n        /* \"#utility.yul\":6687:6693   */\n      dup3\n        /* \"#utility.yul\":6680:6685   */\n      dup2\n        /* \"#utility.yul\":6673:6694   */\n      mstore\n        /* \"#utility.yul\":6725:6729   */\n      0x20\n        /* \"#utility.yul\":6718:6723   */\n      dup2\n        /* \"#utility.yul\":6714:6730   */\n      add\n        /* \"#utility.yul\":6763:6766   */\n      dup5\n        /* \"#utility.yul\":6754:6760   */\n      dup5\n        /* \"#utility.yul\":6749:6752   */\n      dup5\n        /* \"#utility.yul\":6745:6761   */\n      add\n        /* \"#utility.yul\":6742:6767   */\n      gt\n        /* \"#utility.yul\":6739:6851   */\n      iszero\n      tag_150\n      jumpi\n        /* \"#utility.yul\":6770:6849   */\n      tag_151\n      tag_60\n      jump\t// in\n    tag_151:\n        /* \"#utility.yul\":6739:6851   */\n    tag_150:\n        /* \"#utility.yul\":6860:6912   */\n      tag_152\n        /* \"#utility.yul\":6905:6911   */\n      dup5\n        /* \"#utility.yul\":6900:6903   */\n      dup3\n        /* \"#utility.yul\":6895:6898   */\n      dup6\n        /* \"#utility.yul\":6860:6912   */\n      tag_51\n      jump\t// in\n    tag_152:\n        /* \"#utility.yul\":6579:6918   */\n      pop\n        /* \"#utility.yul\":6484:6918   */\n      swap4\n      swap3\n      pop\n      pop\n      pop\n      jump\t// out\n        /* \"#utility.yul\":6938:7293   */\n    tag_70:\n        /* \"#utility.yul\":7005:7010   */\n      0x00\n        /* \"#utility.yul\":7054:7057   */\n      dup3\n        /* \"#utility.yul\":7047:7051   */\n      0x1f\n        /* \"#utility.yul\":7039:7045   */\n      dup4\n        /* \"#utility.yul\":7035:7052   */\n      add\n        /* \"#utility.yul\":7031:7058   */\n      slt\n        /* \"#utility.yul\":7021:7143   */\n      tag_154\n      jumpi\n        /* \"#utility.yul\":7062:7141   */\n      tag_155\n      tag_59\n      jump\t// in\n    tag_155:\n        /* \"#utility.yul\":7021:7143   */\n    tag_154:\n        /* \"#utility.yul\":7172:7178   */\n      dup2\n        /* \"#utility.yul\":7166:7179   */\n      mload\n        /* \"#utility.yul\":7197:7287   */\n      tag_156\n        /* \"#utility.yul\":7283:7286   */\n      dup5\n        /* \"#utility.yul\":7275:7281   */\n      dup3\n        /* \"#utility.yul\":7268:7272   */\n      0x20\n        /* \"#utility.yul\":7260:7266   */\n      dup7\n        /* \"#utility.yul\":7256:7273   */\n      add\n        /* \"#utility.yul\":7197:7287   */\n      tag_69\n      jump\t// in\n    tag_156:\n        /* \"#utility.yul\":7188:7287   */\n      swap2\n      pop\n        /* \"#utility.yul\":7011:7293   */\n      pop\n        /* \"#utility.yul\":6938:7293   */\n      swap3\n      swap2\n      pop\n      pop\n      jump\t// out\n        /* \"#utility.yul\":7299:7823   */\n    tag_30:\n        /* \"#utility.yul\":7379:7385   */\n      0x00\n        /* \"#utility.yul\":7428:7430   */\n      0x20\n        /* \"#utility.yul\":7416:7425   */\n      dup3\n        /* \"#utility.yul\":7407:7414   */\n      dup5\n        /* \"#utility.yul\":7403:7426   */\n      sub\n        /* \"#utility.yul\":7399:7431   */\n      slt\n        /* \"#utility.yul\":7396:7515   */\n      iszero\n      tag_158\n      jumpi\n        /* \"#utility.yul\":7434:7513   */\n      tag_159\n      tag_43\n      jump\t// in\n    tag_159:\n        /* \"#utility.yul\":7396:7515   */\n    tag_158:\n        /* \"#utility.yul\":7575:7576   */\n      0x00\n        /* \"#utility.yul\":7564:7573   */\n      dup3\n        /* \"#utility.yul\":7560:7577   */\n      add\n        /* \"#utility.yul\":7554:7578   */\n      mload\n        /* \"#utility.yul\":7605:7623   */\n      0xffffffffffffffff\n        /* \"#utility.yul\":7597:7603   */\n      dup2\n        /* \"#utility.yul\":7594:7624   */\n      gt\n        /* \"#utility.yul\":7591:7708   */\n      iszero\n      tag_160\n      jumpi\n        /* \"#utility.yul\":7627:7706   */\n      tag_161\n      tag_44\n      jump\t// in\n    tag_161:\n        /* \"#utility.yul\":7591:7708   */\n    tag_160:\n        /* \"#utility.yul\":7732:7806   */\n      tag_162\n        /* \"#utility.yul\":7798:7805   */\n      dup5\n        /* \"#utility.yul\":7789:7795   */\n      dup3\n        /* \"#utility.yul\":7778:7787   */\n      dup6\n        /* \"#utility.yul\":7774:7796   */\n      add\n        /* \"#utility.yul\":7732:7806   */\n      tag_70\n      jump\t// in\n    tag_162:\n        /* \"#utility.yul\":7722:7806   */\n      swap2\n      pop\n        /* \"#utility.yul\":7525:7816   */\n      pop\n        /* \"#utility.yul\":7299:7823   */\n      swap3\n      swap2\n      pop\n      pop\n      jump\t// out\n        /* \"#utility.yul\":7829:8252   */\n    tag_38:\n        /* \"#utility.yul\":7970:7974   */\n      0x00\n        /* \"#utility.yul\":8008:8010   */\n      0x40\n        /* \"#utility.yul\":7997:8006   */\n      dup3\n        /* \"#utility.yul\":7993:8011   */\n      add\n        /* \"#utility.yul\":7985:8011   */\n      swap1\n      pop\n        /* \"#utility.yul\":8021:8092   */\n      tag_164\n        /* \"#utility.yul\":8089:8090   */\n      0x00\n        /* \"#utility.yul\":8078:8087   */\n      dup4\n        /* \"#utility.yul\":8074:8091   */\n      add\n        /* \"#utility.yul\":8065:8071   */\n      dup6\n        /* \"#utility.yul\":8021:8092   */\n      tag_68\n      jump\t// in\n    tag_164:\n        /* \"#utility.yul\":8139:8148   */\n      dup2\n        /* \"#utility.yul\":8133:8137   */\n      dup2\n        /* \"#utility.yul\":8129:8149   */\n      sub\n        /* \"#utility.yul\":8124:8126   */\n      0x20\n        /* \"#utility.yul\":8113:8122   */\n      dup4\n        /* \"#utility.yul\":8109:8127   */\n      add\n        /* \"#utility.yul\":8102:8150   */\n      mstore\n        /* \"#utility.yul\":8167:8245   */\n      tag_165\n        /* \"#utility.yul\":8240:8244   */\n      dup2\n        /* \"#utility.yul\":8231:8237   */\n      dup5\n        /* \"#utility.yul\":8167:8245   */\n      tag_53\n      jump\t// in\n    tag_165:\n        /* \"#utility.yul\":8159:8245   */\n      swap1\n      pop\n        /* \"#utility.yul\":7829:8252   */\n      swap4\n      swap3\n      pop\n      pop\n      pop\n      jump\t// out\n\n    auxdata: 0xa264697066735822122020fa02d364a579ed455340bd5fe345e846a24d9ace3d2956144ba75ad2a9de6e64736f6c634300081a0033\n}\n",
				"bytecode": {
					"linkReferences": {},
					"object": "608060405234801561000f575f80fd5b5060405161081a38038061081a833981810160405281019061003191906100d4565b805f806101000a81548173ffffffffffffffffffffffffffffffffffffffff021916908373ffffffffffffffffffffffffffffffffffffffff160217905550506100ff565b5f80fd5b5f73ffffffffffffffffffffffffffffffffffffffff82169050919050565b5f6100a38261007a565b9050919050565b6100b381610099565b81146100bd575f80fd5b50565b5f815190506100ce816100aa565b92915050565b5f602082840312156100e9576100e8610076565b5b5f6100f6848285016100c0565b91505092915050565b61070e8061010c5f395ff3fe608060405234801561000f575f80fd5b506004361061004a575f3560e01c806302b673071461004e5780630b1ca49a1461007e57806354b7c39b1461009a578063c127c247146100b8575b5f80fd5b61006860048036038101906100639190610318565b6100d4565b60405161007591906103b3565b60405180910390f35b61009860048036038101906100939190610318565b610177565b005b6100a26101ff565b6040516100af919061042e565b60405180910390f35b6100d260048036038101906100cd9190610573565b610222565b005b60605f8054906101000a900473ffffffffffffffffffffffffffffffffffffffff1673ffffffffffffffffffffffffffffffffffffffff166344276733836040518263ffffffff1660e01b815260040161012e91906105dc565b5f60405180830381865afa158015610148573d5f803e3d5ffd5b505050506040513d5f823e3d601f19601f820116820180604052508101906101709190610663565b9050919050565b5f8054906101000a900473ffffffffffffffffffffffffffffffffffffffff1673ffffffffffffffffffffffffffffffffffffffff16634762155d826040518263ffffffff1660e01b81526004016101cf91906105dc565b5f604051808303815f87803b1580156101e6575f80fd5b505af11580156101f8573d5f803e3d5ffd5b5050505050565b5f8054906101000a900473ffffffffffffffffffffffffffffffffffffffff1681565b5f8054906101000a900473ffffffffffffffffffffffffffffffffffffffff1673ffffffffffffffffffffffffffffffffffffffff16637d72aa6583836040518363ffffffff1660e01b815260040161027c9291906106aa565b5f604051808303815f87803b158015610293575f80fd5b505af11580156102a5573d5f803e3d5ffd5b505050505050565b5f604051905090565b5f80fd5b5f80fd5b5f73ffffffffffffffffffffffffffffffffffffffff82169050919050565b5f6102e7826102be565b9050919050565b6102f7816102dd565b8114610301575f80fd5b50565b5f81359050610312816102ee565b92915050565b5f6020828403121561032d5761032c6102b6565b5b5f61033a84828501610304565b91505092915050565b5f81519050919050565b5f82825260208201905092915050565b8281835e5f83830152505050565b5f601f19601f8301169050919050565b5f61038582610343565b61038f818561034d565b935061039f81856020860161035d565b6103a88161036b565b840191505092915050565b5f6020820190508181035f8301526103cb818461037b565b905092915050565b5f819050919050565b5f6103f66103f16103ec846102be565b6103d3565b6102be565b9050919050565b5f610407826103dc565b9050919050565b5f610418826103fd565b9050919050565b6104288161040e565b82525050565b5f6020820190506104415f83018461041f565b92915050565b5f80fd5b5f80fd5b7f4e487b71000000000000000000000000000000000000000000000000000000005f52604160045260245ffd5b6104858261036b565b810181811067ffffffffffffffff821117156104a4576104a361044f565b5b80604052505050565b5f6104b66102ad565b90506104c2828261047c565b919050565b5f67ffffffffffffffff8211156104e1576104e061044f565b5b6104ea8261036b565b9050602081019050919050565b828183375f83830152505050565b5f610517610512846104c7565b6104ad565b9050828152602081018484840111156105335761053261044b565b5b61053e8482856104f7565b509392505050565b5f82601f83011261055a57610559610447565b5b813561056a848260208601610505565b91505092915050565b5f8060408385031215610589576105886102b6565b5b5f61059685828601610304565b925050602083013567ffffffffffffffff8111156105b7576105b66102ba565b5b6105c385828601610546565b9150509250929050565b6105d6816102dd565b82525050565b5f6020820190506105ef5f8301846105cd565b92915050565b5f610607610602846104c7565b6104ad565b9050828152602081018484840111156106235761062261044b565b5b61062e84828561035d565b509392505050565b5f82601f83011261064a57610649610447565b5b815161065a8482602086016105f5565b91505092915050565b5f60208284031215610678576106776102b6565b5b5f82015167ffffffffffffffff811115610695576106946102ba565b5b6106a184828501610636565b91505092915050565b5f6040820190506106bd5f8301856105cd565b81810360208301526106cf818461037b565b9050939250505056fea264697066735822122020fa02d364a579ed455340bd5fe345e846a24d9ace3d2956144ba75ad2a9de6e64736f6c634300081a0033",
					"opcodes": "PUSH1 0x80 PUSH1 0x40 MSTORE CALLVALUE DUP1 ISZERO PUSH2 0xF JUMPI PUSH0 DUP1 REVERT JUMPDEST POP PUSH1 0x40 MLOAD PUSH2 0x81A CODESIZE SUB DUP1 PUSH2 0x81A DUP4 CODECOPY DUP2 DUP2 ADD PUSH1 0x40 MSTORE DUP2 ADD SWAP1 PUSH2 0x31 SWAP2 SWAP1 PUSH2 0xD4 JUMP JUMPDEST DUP1 PUSH0 DUP1 PUSH2 0x100 EXP DUP2 SLOAD DUP2 PUSH20 0xFFFFFFFFFFFFFFFFFFFFFFFFFFFFFFFFFFFFFFFF MUL NOT AND SWAP1 DUP4 PUSH20 0xFFFFFFFFFFFFFFFFFFFFFFFFFFFFFFFFFFFFFFFF AND MUL OR SWAP1 SSTORE POP POP PUSH2 0xFF JUMP JUMPDEST PUSH0 DUP1 REVERT JUMPDEST PUSH0 PUSH20 0xFFFFFFFFFFFFFFFFFFFFFFFFFFFFFFFFFFFFFFFF DUP3 AND SWAP1 POP SWAP2 SWAP1 POP JUMP JUMPDEST PUSH0 PUSH2 0xA3 DUP3 PUSH2 0x7A JUMP JUMPDEST SWAP1 POP SWAP2 SWAP1 POP JUMP JUMPDEST PUSH2 0xB3 DUP2 PUSH2 0x99 JUMP JUMPDEST DUP2 EQ PUSH2 0xBD JUMPI PUSH0 DUP1 REVERT JUMPDEST POP JUMP JUMPDEST PUSH0 DUP2 MLOAD SWAP1 POP PUSH2 0xCE DUP2 PUSH2 0xAA JUMP JUMPDEST SWAP3 SWAP2 POP POP JUMP JUMPDEST PUSH0 PUSH1 0x20 DUP3 DUP5 SUB SLT ISZERO PUSH2 0xE9 JUMPI PUSH2 0xE8 PUSH2 0x76 JUMP JUMPDEST JUMPDEST PUSH0 PUSH2 0xF6 DUP5 DUP3 DUP6 ADD PUSH2 0xC0 JUMP JUMPDEST SWAP2 POP POP SWAP3 SWAP2 POP POP JUMP JUMPDEST PUSH2 0x70E DUP1 PUSH2 0x10C PUSH0 CODECOPY PUSH0 RETURN INVALID PUSH1 0x80 PUSH1 0x40 MSTORE CALLVALUE DUP1 ISZERO PUSH2 0xF JUMPI PUSH0 DUP1 REVERT JUMPDEST POP PUSH1 0x4 CALLDATASIZE LT PUSH2 0x4A JUMPI PUSH0 CALLDATALOAD PUSH1 0xE0 SHR DUP1 PUSH4 0x2B67307 EQ PUSH2 0x4E JUMPI DUP1 PUSH4 0xB1CA49A EQ PUSH2 0x7E JUMPI DUP1 PUSH4 0x54B7C39B EQ PUSH2 0x9A JUMPI DUP1 PUSH4 0xC127C247 EQ PUSH2 0xB8 JUMPI JUMPDEST PUSH0 DUP1 REVERT JUMPDEST PUSH2 0x68 PUSH1 0x4 DUP1 CALLDATASIZE SUB DUP2 ADD SWAP1 PUSH2 0x63 SWAP2 SWAP1 PUSH2 0x318 JUMP JUMPDEST PUSH2 0xD4 JUMP JUMPDEST PUSH1 0x40 MLOAD PUSH2 0x75 SWAP2 SWAP1 PUSH2 0x3B3 JUMP JUMPDEST PUSH1 0x40 MLOAD DUP1 SWAP2 SUB SWAP1 RETURN JUMPDEST PUSH2 0x98 PUSH1 0x4 DUP1 CALLDATASIZE SUB DUP2 ADD SWAP1 PUSH2 0x93 SWAP2 SWAP1 PUSH2 0x318 JUMP JUMPDEST PUSH2 0x177 JUMP JUMPDEST STOP JUMPDEST PUSH2 0xA2 PUSH2 0x1FF JUMP JUMPDEST PUSH1 0x40 MLOAD PUSH2 0xAF SWAP2 SWAP1 PUSH2 0x42E JUMP JUMPDEST PUSH1 0x40 MLOAD DUP1 SWAP2 SUB SWAP1 RETURN JUMPDEST PUSH2 0xD2 PUSH1 0x4 DUP1 CALLDATASIZE SUB DUP2 ADD SWAP1 PUSH2 0xCD SWAP2 SWAP1 PUSH2 0x573 JUMP JUMPDEST PUSH2 0x222 JUMP JUMPDEST STOP JUMPDEST PUSH1 0x60 PUSH0 DUP1 SLOAD SWAP1 PUSH2 0x100 EXP SWAP1 DIV PUSH20 0xFFFFFFFFFFFFFFFFFFFFFFFFFFFFFFFFFFFFFFFF AND PUSH20 0xFFFFFFFFFFFFFFFFFFFFFFFFFFFFFFFFFFFFFFFF AND PUSH4 0x44276733 DUP4 PUSH1 0x40 MLOAD DUP3 PUSH4 0xFFFFFFFF AND PUSH1 0xE0 SHL DUP2 MSTORE PUSH1 0x4 ADD PUSH2 0x12E SWAP2 SWAP1 PUSH2 0x5DC JUMP JUMPDEST PUSH0 PUSH1 0x40 MLOAD DUP1 DUP4 SUB DUP2 DUP7 GAS STATICCALL ISZERO DUP1 ISZERO PUSH2 0x148 JUMPI RETURNDATASIZE PUSH0 DUP1 RETURNDATACOPY RETURNDATASIZE PUSH0 REVERT JUMPDEST POP POP POP POP PUSH1 0x40 MLOAD RETURNDATASIZE PUSH0 DUP3 RETURNDATACOPY RETURNDATASIZE PUSH1 0x1F NOT PUSH1 0x1F DUP3 ADD AND DUP3 ADD DUP1 PUSH1 0x40 MSTORE POP DUP2 ADD SWAP1 PUSH2 0x170 SWAP2 SWAP1 PUSH2 0x663 JUMP JUMPDEST SWAP1 POP SWAP2 SWAP1 POP JUMP JUMPDEST PUSH0 DUP1 SLOAD SWAP1 PUSH2 0x100 EXP SWAP1 DIV PUSH20 0xFFFFFFFFFFFFFFFFFFFFFFFFFFFFFFFFFFFFFFFF AND PUSH20 0xFFFFFFFFFFFFFFFFFFFFFFFFFFFFFFFFFFFFFFFF AND PUSH4 0x4762155D DUP3 PUSH1 0x40 MLOAD DUP3 PUSH4 0xFFFFFFFF AND PUSH1 0xE0 SHL DUP2 MSTORE PUSH1 0x4 ADD PUSH2 0x1CF SWAP2 SWAP1 PUSH2 0x5DC JUMP JUMPDEST PUSH0 PUSH1 0x40 MLOAD DUP1 DUP4 SUB DUP2 PUSH0 DUP8 DUP1 EXTCODESIZE ISZERO DUP1 ISZERO PUSH2 0x1E6 JUMPI PUSH0 DUP1 REVERT JUMPDEST POP GAS CALL ISZERO DUP1 ISZERO PUSH2 0x1F8 JUMPI RETURNDATASIZE PUSH0 DUP1 RETURNDATACOPY RETURNDATASIZE PUSH0 REVERT JUMPDEST POP POP POP POP POP JUMP JUMPDEST PUSH0 DUP1 SLOAD SWAP1 PUSH2 0x100 EXP SWAP1 DIV PUSH20 0xFFFFFFFFFFFFFFFFFFFFFFFFFFFFFFFFFFFFFFFF AND DUP2 JUMP JUMPDEST PUSH0 DUP1 SLOAD SWAP1 PUSH2 0x100 EXP SWAP1 DIV PUSH20 0xFFFFFFFFFFFFFFFFFFFFFFFFFFFFFFFFFFFFFFFF AND PUSH20 0xFFFFFFFFFFFFFFFFFFFFFFFFFFFFFFFFFFFFFFFF AND PUSH4 0x7D72AA65 DUP4 DUP4 PUSH1 0x40 MLOAD DUP4 PUSH4 0xFFFFFFFF AND PUSH1 0xE0 SHL DUP2 MSTORE PUSH1 0x4 ADD PUSH2 0x27C SWAP3 SWAP2 SWAP1 PUSH2 0x6AA JUMP JUMPDEST PUSH0 PUSH1 0x40 MLOAD DUP1 DUP4 SUB DUP2 PUSH0 DUP8 DUP1 EXTCODESIZE ISZERO DUP1 ISZERO PUSH2 0x293 JUMPI PUSH0 DUP1 REVERT JUMPDEST POP GAS CALL ISZERO DUP1 ISZERO PUSH2 0x2A5 JUMPI RETURNDATASIZE PUSH0 DUP1 RETURNDATACOPY RETURNDATASIZE PUSH0 REVERT JUMPDEST POP POP POP POP POP POP JUMP JUMPDEST PUSH0 PUSH1 0x40 MLOAD SWAP1 POP SWAP1 JUMP JUMPDEST PUSH0 DUP1 REVERT JUMPDEST PUSH0 DUP1 REVERT JUMPDEST PUSH0 PUSH20 0xFFFFFFFFFFFFFFFFFFFFFFFFFFFFFFFFFFFFFFFF DUP3 AND SWAP1 POP SWAP2 SWAP1 POP JUMP JUMPDEST PUSH0 PUSH2 0x2E7 DUP3 PUSH2 0x2BE JUMP JUMPDEST SWAP1 POP SWAP2 SWAP1 POP JUMP JUMPDEST PUSH2 0x2F7 DUP2 PUSH2 0x2DD JUMP JUMPDEST DUP2 EQ PUSH2 0x301 JUMPI PUSH0 DUP1 REVERT JUMPDEST POP JUMP JUMPDEST PUSH0 DUP2 CALLDATALOAD SWAP1 POP PUSH2 0x312 DUP2 PUSH2 0x2EE JUMP JUMPDEST SWAP3 SWAP2 POP POP JUMP JUMPDEST PUSH0 PUSH1 0x20 DUP3 DUP5 SUB SLT ISZERO PUSH2 0x32D JUMPI PUSH2 0x32C PUSH2 0x2B6 JUMP JUMPDEST JUMPDEST PUSH0 PUSH2 0x33A DUP5 DUP3 DUP6 ADD PUSH2 0x304 JUMP JUMPDEST SWAP2 POP POP SWAP3 SWAP2 POP POP JUMP JUMPDEST PUSH0 DUP2 MLOAD SWAP1 POP SWAP2 SWAP1 POP JUMP JUMPDEST PUSH0 DUP3 DUP3 MSTORE PUSH1 0x20 DUP3 ADD SWAP1 POP SWAP3 SWAP2 POP POP JUMP JUMPDEST DUP3 DUP2 DUP4 MCOPY PUSH0 DUP4 DUP4 ADD MSTORE POP POP POP JUMP JUMPDEST PUSH0 PUSH1 0x1F NOT PUSH1 0x1F DUP4 ADD AND SWAP1 POP SWAP2 SWAP1 POP JUMP JUMPDEST PUSH0 PUSH2 0x385 DUP3 PUSH2 0x343 JUMP JUMPDEST PUSH2 0x38F DUP2 DUP6 PUSH2 0x34D JUMP JUMPDEST SWAP4 POP PUSH2 0x39F DUP2 DUP6 PUSH1 0x20 DUP7 ADD PUSH2 0x35D JUMP JUMPDEST PUSH2 0x3A8 DUP2 PUSH2 0x36B JUMP JUMPDEST DUP5 ADD SWAP2 POP POP SWAP3 SWAP2 POP POP JUMP JUMPDEST PUSH0 PUSH1 0x20 DUP3 ADD SWAP1 POP DUP2 DUP2 SUB PUSH0 DUP4 ADD MSTORE PUSH2 0x3CB DUP2 DUP5 PUSH2 0x37B JUMP JUMPDEST SWAP1 POP SWAP3 SWAP2 POP POP JUMP JUMPDEST PUSH0 DUP2 SWAP1 POP SWAP2 SWAP1 POP JUMP JUMPDEST PUSH0 PUSH2 0x3F6 PUSH2 0x3F1 PUSH2 0x3EC DUP5 PUSH2 0x2BE JUMP JUMPDEST PUSH2 0x3D3 JUMP JUMPDEST PUSH2 0x2BE JUMP JUMPDEST SWAP1 POP SWAP2 SWAP1 POP JUMP JUMPDEST PUSH0 PUSH2 0x407 DUP3 PUSH2 0x3DC JUMP JUMPDEST SWAP1 POP SWAP2 SWAP1 POP JUMP JUMPDEST PUSH0 PUSH2 0x418 DUP3 PUSH2 0x3FD JUMP JUMPDEST SWAP1 POP SWAP2 SWAP1 POP JUMP JUMPDEST PUSH2 0x428 DUP2 PUSH2 0x40E JUMP JUMPDEST DUP3 MSTORE POP POP JUMP JUMPDEST PUSH0 PUSH1 0x20 DUP3 ADD SWAP1 POP PUSH2 0x441 PUSH0 DUP4 ADD DUP5 PUSH2 0x41F JUMP JUMPDEST SWAP3 SWAP2 POP POP JUMP JUMPDEST PUSH0 DUP1 REVERT JUMPDEST PUSH0 DUP1 REVERT JUMPDEST PUSH32 0x4E487B7100000000000000000000000000000000000000000000000000000000 PUSH0 MSTORE PUSH1 0x41 PUSH1 0x4 MSTORE PUSH1 0x24 PUSH0 REVERT JUMPDEST PUSH2 0x485 DUP3 PUSH2 0x36B JUMP JUMPDEST DUP2 ADD DUP2 DUP2 LT PUSH8 0xFFFFFFFFFFFFFFFF DUP3 GT OR ISZERO PUSH2 0x4A4 JUMPI PUSH2 0x4A3 PUSH2 0x44F JUMP JUMPDEST JUMPDEST DUP1 PUSH1 0x40 MSTORE POP POP POP JUMP JUMPDEST PUSH0 PUSH2 0x4B6 PUSH2 0x2AD JUMP JUMPDEST SWAP1 POP PUSH2 0x4C2 DUP3 DUP3 PUSH2 0x47C JUMP JUMPDEST SWAP2 SWAP1 POP JUMP JUMPDEST PUSH0 PUSH8 0xFFFFFFFFFFFFFFFF DUP3 GT ISZERO PUSH2 0x4E1 JUMPI PUSH2 0x4E0 PUSH2 0x44F JUMP JUMPDEST JUMPDEST PUSH2 0x4EA DUP3 PUSH2 0x36B JUMP JUMPDEST SWAP1 POP PUSH1 0x20 DUP2 ADD SWAP1 POP SWAP2 SWAP1 POP JUMP JUMPDEST DUP3 DUP2 DUP4 CALLDATACOPY PUSH0 DUP4 DUP4 ADD MSTORE POP POP POP JUMP JUMPDEST PUSH0 PUSH2 0x517 PUSH2 0x512 DUP5 PUSH2 0x4C7 JUMP JUMPDEST PUSH2 0x4AD JUMP JUMPDEST SWAP1 POP DUP3 DUP2 MSTORE PUSH1 0x20 DUP2 ADD DUP5 DUP5 DUP5 ADD GT ISZERO PUSH2 0x533 JUMPI PUSH2 0x532 PUSH2 0x44B JUMP JUMPDEST JUMPDEST PUSH2 0x53E DUP5 DUP3 DUP6 PUSH2 0x4F7 JUMP JUMPDEST POP SWAP4 SWAP3 POP POP POP JUMP JUMPDEST PUSH0 DUP3 PUSH1 0x1F DUP4 ADD SLT PUSH2 0x55A JUMPI PUSH2 0x559 PUSH2 0x447 JUMP JUMPDEST JUMPDEST DUP2 CALLDATALOAD PUSH2 0x56A DUP5 DUP3 PUSH1 0x20 DUP7 ADD PUSH2 0x505 JUMP JUMPDEST SWAP2 POP POP SWAP3 SWAP2 POP POP JUMP JUMPDEST PUSH0 DUP1 PUSH1 0x40 DUP4 DUP6 SUB SLT ISZERO PUSH2 0x589 JUMPI PUSH2 0x588 PUSH2 0x2B6 JUMP JUMPDEST JUMPDEST PUSH0 PUSH2 0x596 DUP6 DUP3 DUP7 ADD PUSH2 0x304 JUMP JUMPDEST SWAP3 POP POP PUSH1 0x20 DUP4 ADD CALLDATALOAD PUSH8 0xFFFFFFFFFFFFFFFF DUP2 GT ISZERO PUSH2 0x5B7 JUMPI PUSH2 0x5B6 PUSH2 0x2BA JUMP JUMPDEST JUMPDEST PUSH2 0x5C3 DUP6 DUP3 DUP7 ADD PUSH2 0x546 JUMP JUMPDEST SWAP2 POP POP SWAP3 POP SWAP3 SWAP1 POP JUMP JUMPDEST PUSH2 0x5D6 DUP2 PUSH2 0x2DD JUMP JUMPDEST DUP3 MSTORE POP POP JUMP JUMPDEST PUSH0 PUSH1 0x20 DUP3 ADD SWAP1 POP PUSH2 0x5EF PUSH0 DUP4 ADD DUP5 PUSH2 0x5CD JUMP JUMPDEST SWAP3 SWAP2 POP POP JUMP JUMPDEST PUSH0 PUSH2 0x607 PUSH2 0x602 DUP5 PUSH2 0x4C7 JUMP JUMPDEST PUSH2 0x4AD JUMP JUMPDEST SWAP1 POP DUP3 DUP2 MSTORE PUSH1 0x20 DUP2 ADD DUP5 DUP5 DUP5 ADD GT ISZERO PUSH2 0x623 JUMPI PUSH2 0x622 PUSH2 0x44B JUMP JUMPDEST JUMPDEST PUSH2 0x62E DUP5 DUP3 DUP6 PUSH2 0x35D JUMP JUMPDEST POP SWAP4 SWAP3 POP POP POP JUMP JUMPDEST PUSH0 DUP3 PUSH1 0x1F DUP4 ADD SLT PUSH2 0x64A JUMPI PUSH2 0x649 PUSH2 0x447 JUMP JUMPDEST JUMPDEST DUP2 MLOAD PUSH2 0x65A DUP5 DUP3 PUSH1 0x20 DUP7 ADD PUSH2 0x5F5 JUMP JUMPDEST SWAP2 POP POP SWAP3 SWAP2 POP POP JUMP JUMPDEST PUSH0 PUSH1 0x20 DUP3 DUP5 SUB SLT ISZERO PUSH2 0x678 JUMPI PUSH2 0x677 PUSH2 0x2B6 JUMP JUMPDEST JUMPDEST PUSH0 DUP3 ADD MLOAD PUSH8 0xFFFFFFFFFFFFFFFF DUP2 GT ISZERO PUSH2 0x695 JUMPI PUSH2 0x694 PUSH2 0x2BA JUMP JUMPDEST JUMPDEST PUSH2 0x6A1 DUP5 DUP3 DUP6 ADD PUSH2 0x636 JUMP JUMPDEST SWAP2 POP POP SWAP3 SWAP2 POP POP JUMP JUMPDEST PUSH0 PUSH1 0x40 DUP3 ADD SWAP1 POP PUSH2 0x6BD PUSH0 DUP4 ADD DUP6 PUSH2 0x5CD JUMP JUMPDEST DUP2 DUP2 SUB PUSH1 0x20 DUP4 ADD MSTORE PUSH2 0x6CF DUP2 DUP5 PUSH2 0x37B JUMP JUMPDEST SWAP1 POP SWAP4 SWAP3 POP POP POP JUMP INVALID LOG2 PUSH5 0x6970667358 0x22 SLT KECCAK256 KECCAK256 STATICCALL MUL 0xD3 PUSH5 0xA579ED4553 BLOCKHASH 0xBD PUSH0 0xE3 GASLIMIT 0xE8 CHAINID LOG2 0x4D SWAP11 0xCE RETURNDATASIZE 0x29 JUMP EQ 0x4B 0xA7 GAS 0xD2 0xA9 0xDE PUSH15 0x64736F6C634300081A003300000000 "
				},
				"gasEstimates": {
					"creation": {
						"codeDepositCost": "361200",
						"executionCost": "infinite",
						"totalCost": "infinite"
					},
					"external": {
						"ac()": "infinite",
						"addMember(address,string)": "infinite",
						"removeMember(address)": "infinite",
						"viewRole(address)": "infinite"
					}
				},
				"methodIdentifiers": {
					"ac()": "54b7c39b",
					"addMember(address,string)": "c127c247",
					"removeMember(address)": "0b1ca49a",
					"viewRole(address)": "02b67307"
				}
			},
			"storageLayout": {
				"storage": [
					{
						"astId": 176,
						"contract": "interface/InterfacePractice/Interfacep.sol:Admin",
						"label": "ac",
						"offset": 0,
						"slot": "0",
						"type": "t_contract(IAccessControl)21"
					}
				],
				"types": {
					"t_contract(IAccessControl)21": {
						"encoding": "inplace",
						"label": "contract IAccessControl",
						"numberOfBytes": "20"
					}
				}
			},
			"userdoc": {
				"kind": "user",
				"methods": {},
				"version": 1
			}
		}
	}
}