{
	"interface/InterfacePractice/PaymentGetway.sol": {
		"simplePayment": {
			"abi": [
				{
					"inputs": [],
					"stateMutability": "nonpayable",
					"type": "constructor"
				},
				{
					"anonymous": false,
					"inputs": [
						{
							"indexed": false,
							"internalType": "address",
							"name": "recipient",
							"type": "address"
						},
						{
							"indexed": false,
							"internalType": "uint256",
							"name": "amount",
							"type": "uint256"
						}
					],
					"name": "successPayment",
					"type": "event"
				},
				{
					"inputs": [
						{
							"internalType": "address",
							"name": "recipient",
							"type": "address"
						},
						{
							"internalType": "uint256",
							"name": "amount",
							"type": "uint256"
						}
					],
					"name": "pay",
					"outputs": [],
					"stateMutability": "nonpayable",
					"type": "function"
				},
				{
					"inputs": [
						{
							"internalType": "address",
							"name": "recipient",
							"type": "address"
						},
						{
							"internalType": "uint256",
							"name": "amount",
							"type": "uint256"
						}
					],
					"name": "refund",
					"outputs": [],
					"stateMutability": "nonpayable",
					"type": "function"
				}
			],
			"devdoc": {
				"kind": "dev",
				"methods": {},
				"version": 1
			},
			"evm": {
				"assembly": "    /* \"interface/InterfacePractice/PaymentGetway.sol\":215:1109  contract simplePayment is IPaymentGetway {... */\n  mstore(0x40, 0x80)\n    /* \"interface/InterfacePractice/PaymentGetway.sol\":332:381  constructor() {... */\n  callvalue\n  dup1\n  iszero\n  tag_1\n  jumpi\n  0x00\n  dup1\n  revert\ntag_1:\n  pop\n    /* \"interface/InterfacePractice/PaymentGetway.sol\":364:374  msg.sender */\n  caller\n    /* \"interface/InterfacePractice/PaymentGetway.sol\":356:361  owner */\n  0x00\n  dup1\n    /* \"interface/InterfacePractice/PaymentGetway.sol\":356:374  owner = msg.sender */\n  0x0100\n  exp\n  dup2\n  sload\n  dup2\n  0xffffffffffffffffffffffffffffffffffffffff\n  mul\n  not\n  and\n  swap1\n  dup4\n  0xffffffffffffffffffffffffffffffffffffffff\n  and\n  mul\n  or\n  swap1\n  sstore\n  pop\n    /* \"interface/InterfacePractice/PaymentGetway.sol\":215:1109  contract simplePayment is IPaymentGetway {... */\n  dataSize(sub_0)\n  dup1\n  dataOffset(sub_0)\n  0x00\n  codecopy\n  0x00\n  return\nstop\n\nsub_0: assembly {\n        /* \"interface/InterfacePractice/PaymentGetway.sol\":215:1109  contract simplePayment is IPaymentGetway {... */\n      mstore(0x40, 0x80)\n      callvalue\n      dup1\n      iszero\n      tag_1\n      jumpi\n      0x00\n      dup1\n      revert\n    tag_1:\n      pop\n      jumpi(tag_2, lt(calldatasize, 0x04))\n      shr(0xe0, calldataload(0x00))\n      dup1\n      0x410085df\n      eq\n      tag_3\n      jumpi\n      dup1\n      0xc4076876\n      eq\n      tag_4\n      jumpi\n    tag_2:\n      0x00\n      dup1\n      revert\n        /* \"interface/InterfacePractice/PaymentGetway.sol\":913:1107  function refund(address recipient, uint256 amount)... */\n    tag_3:\n      tag_5\n      0x04\n      dup1\n      calldatasize\n      sub\n      dup2\n      add\n      swap1\n      tag_6\n      swap2\n      swap1\n      tag_7\n      jump\t// in\n    tag_6:\n      tag_8\n      jump\t// in\n    tag_5:\n      stop\n        /* \"interface/InterfacePractice/PaymentGetway.sol\":708:907  function pay(address recipient, uint256 amount)... */\n    tag_4:\n      tag_9\n      0x04\n      dup1\n      calldatasize\n      sub\n      dup2\n      add\n      swap1\n      tag_10\n      swap2\n      swap1\n      tag_7\n      jump\t// in\n    tag_10:\n      tag_11\n      jump\t// in\n    tag_9:\n      stop\n        /* \"interface/InterfacePractice/PaymentGetway.sol\":913:1107  function refund(address recipient, uint256 amount)... */\n    tag_8:\n        /* \"interface/InterfacePractice/PaymentGetway.sol\":1019:1028  recipient */\n      dup2\n        /* \"interface/InterfacePractice/PaymentGetway.sol\":1030:1036  amount */\n      dup2\n        /* \"interface/InterfacePractice/PaymentGetway.sol\":594:600  amount */\n      dup1\n        /* \"interface/InterfacePractice/PaymentGetway.sol\":571:579  balances */\n      0x01\n        /* \"interface/InterfacePractice/PaymentGetway.sol\":571:590  balances[recipient] */\n      0x00\n        /* \"interface/InterfacePractice/PaymentGetway.sol\":580:589  recipient */\n      dup5\n        /* \"interface/InterfacePractice/PaymentGetway.sol\":571:590  balances[recipient] */\n      0xffffffffffffffffffffffffffffffffffffffff\n      and\n      0xffffffffffffffffffffffffffffffffffffffff\n      and\n      dup2\n      mstore\n      0x20\n      add\n      swap1\n      dup2\n      mstore\n      0x20\n      add\n      0x00\n      keccak256\n      sload\n        /* \"interface/InterfacePractice/PaymentGetway.sol\":571:600  balances[recipient] >= amount */\n      lt\n      iszero\n        /* \"interface/InterfacePractice/PaymentGetway.sol\":563:622  require(balances[recipient] >= amount, \"Influence Balance\") */\n      tag_13\n      jumpi\n      mload(0x40)\n      0x08c379a000000000000000000000000000000000000000000000000000000000\n      dup2\n      mstore\n      0x04\n      add\n      tag_14\n      swap1\n      tag_15\n      jump\t// in\n    tag_14:\n      mload(0x40)\n      dup1\n      swap2\n      sub\n      swap1\n      revert\n    tag_13:\n        /* \"interface/InterfacePractice/PaymentGetway.sol\":441:446  owner */\n      0x00\n      dup1\n      sload\n      swap1\n      0x0100\n      exp\n      swap1\n      div\n      0xffffffffffffffffffffffffffffffffffffffff\n      and\n        /* \"interface/InterfacePractice/PaymentGetway.sol\":427:446  msg.sender == owner */\n      0xffffffffffffffffffffffffffffffffffffffff\n      and\n        /* \"interface/InterfacePractice/PaymentGetway.sol\":427:437  msg.sender */\n      caller\n        /* \"interface/InterfacePractice/PaymentGetway.sol\":427:446  msg.sender == owner */\n      0xffffffffffffffffffffffffffffffffffffffff\n      and\n      eq\n        /* \"interface/InterfacePractice/PaymentGetway.sol\":419:472  require(msg.sender == owner, \"You are not the owner\") */\n      tag_17\n      jumpi\n      mload(0x40)\n      0x08c379a000000000000000000000000000000000000000000000000000000000\n      dup2\n      mstore\n      0x04\n      add\n      tag_18\n      swap1\n      tag_19\n      jump\t// in\n    tag_18:\n      mload(0x40)\n      dup1\n      swap2\n      sub\n      swap1\n      revert\n    tag_17:\n        /* \"interface/InterfacePractice/PaymentGetway.sol\":1094:1100  amount */\n      dup3\n        /* \"interface/InterfacePractice/PaymentGetway.sol\":1071:1079  balances */\n      0x01\n        /* \"interface/InterfacePractice/PaymentGetway.sol\":1071:1090  balances[recipient] */\n      0x00\n        /* \"interface/InterfacePractice/PaymentGetway.sol\":1080:1089  recipient */\n      dup7\n        /* \"interface/InterfacePractice/PaymentGetway.sol\":1071:1090  balances[recipient] */\n      0xffffffffffffffffffffffffffffffffffffffff\n      and\n      0xffffffffffffffffffffffffffffffffffffffff\n      and\n      dup2\n      mstore\n      0x20\n      add\n      swap1\n      dup2\n      mstore\n      0x20\n      add\n      0x00\n      keccak256\n      0x00\n        /* \"interface/InterfacePractice/PaymentGetway.sol\":1071:1100  balances[recipient] -= amount */\n      dup3\n      dup3\n      sload\n      tag_21\n      swap2\n      swap1\n      tag_22\n      jump\t// in\n    tag_21:\n      swap3\n      pop\n      pop\n      dup2\n      swap1\n      sstore\n      pop\n        /* \"interface/InterfacePractice/PaymentGetway.sol\":913:1107  function refund(address recipient, uint256 amount)... */\n      pop\n      pop\n      pop\n      pop\n      jump\t// out\n        /* \"interface/InterfacePractice/PaymentGetway.sol\":708:907  function pay(address recipient, uint256 amount)... */\n    tag_11:\n        /* \"interface/InterfacePractice/PaymentGetway.sol\":441:446  owner */\n      0x00\n      dup1\n      sload\n      swap1\n      0x0100\n      exp\n      swap1\n      div\n      0xffffffffffffffffffffffffffffffffffffffff\n      and\n        /* \"interface/InterfacePractice/PaymentGetway.sol\":427:446  msg.sender == owner */\n      0xffffffffffffffffffffffffffffffffffffffff\n      and\n        /* \"interface/InterfacePractice/PaymentGetway.sol\":427:437  msg.sender */\n      caller\n        /* \"interface/InterfacePractice/PaymentGetway.sol\":427:446  msg.sender == owner */\n      0xffffffffffffffffffffffffffffffffffffffff\n      and\n      eq\n        /* \"interface/InterfacePractice/PaymentGetway.sol\":419:472  require(msg.sender == owner, \"You are not the owner\") */\n      tag_24\n      jumpi\n      mload(0x40)\n      0x08c379a000000000000000000000000000000000000000000000000000000000\n      dup2\n      mstore\n      0x04\n      add\n      tag_25\n      swap1\n      tag_19\n      jump\t// in\n    tag_25:\n      mload(0x40)\n      dup1\n      swap2\n      sub\n      swap1\n      revert\n    tag_24:\n        /* \"interface/InterfacePractice/PaymentGetway.sol\":846:852  amount */\n      dup1\n        /* \"interface/InterfacePractice/PaymentGetway.sol\":823:831  balances */\n      0x01\n        /* \"interface/InterfacePractice/PaymentGetway.sol\":823:842  balances[recipient] */\n      0x00\n        /* \"interface/InterfacePractice/PaymentGetway.sol\":832:841  recipient */\n      dup5\n        /* \"interface/InterfacePractice/PaymentGetway.sol\":823:842  balances[recipient] */\n      0xffffffffffffffffffffffffffffffffffffffff\n      and\n      0xffffffffffffffffffffffffffffffffffffffff\n      and\n      dup2\n      mstore\n      0x20\n      add\n      swap1\n      dup2\n      mstore\n      0x20\n      add\n      0x00\n      keccak256\n      0x00\n        /* \"interface/InterfacePractice/PaymentGetway.sol\":823:852  balances[recipient] += amount */\n      dup3\n      dup3\n      sload\n      tag_27\n      swap2\n      swap1\n      tag_28\n      jump\t// in\n    tag_27:\n      swap3\n      pop\n      pop\n      dup2\n      swap1\n      sstore\n      pop\n        /* \"interface/InterfacePractice/PaymentGetway.sol\":867:900  successPayment(recipient, amount) */\n      0xfd33aad132d2ffbd43b9451d76c3fef4009c294c1eba5292b84b8fe5b454f81e\n        /* \"interface/InterfacePractice/PaymentGetway.sol\":882:891  recipient */\n      dup3\n        /* \"interface/InterfacePractice/PaymentGetway.sol\":893:899  amount */\n      dup3\n        /* \"interface/InterfacePractice/PaymentGetway.sol\":867:900  successPayment(recipient, amount) */\n      mload(0x40)\n      tag_29\n      swap3\n      swap2\n      swap1\n      tag_30\n      jump\t// in\n    tag_29:\n      mload(0x40)\n      dup1\n      swap2\n      sub\n      swap1\n      log1\n        /* \"interface/InterfacePractice/PaymentGetway.sol\":708:907  function pay(address recipient, uint256 amount)... */\n      pop\n      pop\n      jump\t// out\n        /* \"#utility.yul\":88:205   */\n    tag_32:\n        /* \"#utility.yul\":197:198   */\n      0x00\n        /* \"#utility.yul\":194:195   */\n      dup1\n        /* \"#utility.yul\":187:199   */\n      revert\n        /* \"#utility.yul\":334:460   */\n    tag_34:\n        /* \"#utility.yul\":371:378   */\n      0x00\n        /* \"#utility.yul\":411:453   */\n      0xffffffffffffffffffffffffffffffffffffffff\n        /* \"#utility.yul\":404:409   */\n      dup3\n        /* \"#utility.yul\":400:454   */\n      and\n        /* \"#utility.yul\":389:454   */\n      swap1\n      pop\n        /* \"#utility.yul\":334:460   */\n      swap2\n      swap1\n      pop\n      jump\t// out\n        /* \"#utility.yul\":466:562   */\n    tag_35:\n        /* \"#utility.yul\":503:510   */\n      0x00\n        /* \"#utility.yul\":532:556   */\n      tag_55\n        /* \"#utility.yul\":550:555   */\n      dup3\n        /* \"#utility.yul\":532:556   */\n      tag_34\n      jump\t// in\n    tag_55:\n        /* \"#utility.yul\":521:556   */\n      swap1\n      pop\n        /* \"#utility.yul\":466:562   */\n      swap2\n      swap1\n      pop\n      jump\t// out\n        /* \"#utility.yul\":568:690   */\n    tag_36:\n        /* \"#utility.yul\":641:665   */\n      tag_57\n        /* \"#utility.yul\":659:664   */\n      dup2\n        /* \"#utility.yul\":641:665   */\n      tag_35\n      jump\t// in\n    tag_57:\n        /* \"#utility.yul\":634:639   */\n      dup2\n        /* \"#utility.yul\":631:666   */\n      eq\n        /* \"#utility.yul\":621:684   */\n      tag_58\n      jumpi\n        /* \"#utility.yul\":680:681   */\n      0x00\n        /* \"#utility.yul\":677:678   */\n      dup1\n        /* \"#utility.yul\":670:682   */\n      revert\n        /* \"#utility.yul\":621:684   */\n    tag_58:\n        /* \"#utility.yul\":568:690   */\n      pop\n      jump\t// out\n        /* \"#utility.yul\":696:835   */\n    tag_37:\n        /* \"#utility.yul\":742:747   */\n      0x00\n        /* \"#utility.yul\":780:786   */\n      dup2\n        /* \"#utility.yul\":767:787   */\n      calldataload\n        /* \"#utility.yul\":758:787   */\n      swap1\n      pop\n        /* \"#utility.yul\":796:829   */\n      tag_60\n        /* \"#utility.yul\":823:828   */\n      dup2\n        /* \"#utility.yul\":796:829   */\n      tag_36\n      jump\t// in\n    tag_60:\n        /* \"#utility.yul\":696:835   */\n      swap3\n      swap2\n      pop\n      pop\n      jump\t// out\n        /* \"#utility.yul\":841:918   */\n    tag_38:\n        /* \"#utility.yul\":878:885   */\n      0x00\n        /* \"#utility.yul\":907:912   */\n      dup2\n        /* \"#utility.yul\":896:912   */\n      swap1\n      pop\n        /* \"#utility.yul\":841:918   */\n      swap2\n      swap1\n      pop\n      jump\t// out\n        /* \"#utility.yul\":924:1046   */\n    tag_39:\n        /* \"#utility.yul\":997:1021   */\n      tag_63\n        /* \"#utility.yul\":1015:1020   */\n      dup2\n        /* \"#utility.yul\":997:1021   */\n      tag_38\n      jump\t// in\n    tag_63:\n        /* \"#utility.yul\":990:995   */\n      dup2\n        /* \"#utility.yul\":987:1022   */\n      eq\n        /* \"#utility.yul\":977:1040   */\n      tag_64\n      jumpi\n        /* \"#utility.yul\":1036:1037   */\n      0x00\n        /* \"#utility.yul\":1033:1034   */\n      dup1\n        /* \"#utility.yul\":1026:1038   */\n      revert\n        /* \"#utility.yul\":977:1040   */\n    tag_64:\n        /* \"#utility.yul\":924:1046   */\n      pop\n      jump\t// out\n        /* \"#utility.yul\":1052:1191   */\n    tag_40:\n        /* \"#utility.yul\":1098:1103   */\n      0x00\n        /* \"#utility.yul\":1136:1142   */\n      dup2\n        /* \"#utility.yul\":1123:1143   */\n      calldataload\n        /* \"#utility.yul\":1114:1143   */\n      swap1\n      pop\n        /* \"#utility.yul\":1152:1185   */\n      tag_66\n        /* \"#utility.yul\":1179:1184   */\n      dup2\n        /* \"#utility.yul\":1152:1185   */\n      tag_39\n      jump\t// in\n    tag_66:\n        /* \"#utility.yul\":1052:1191   */\n      swap3\n      swap2\n      pop\n      pop\n      jump\t// out\n        /* \"#utility.yul\":1197:1671   */\n    tag_7:\n        /* \"#utility.yul\":1265:1271   */\n      0x00\n        /* \"#utility.yul\":1273:1279   */\n      dup1\n        /* \"#utility.yul\":1322:1324   */\n      0x40\n        /* \"#utility.yul\":1310:1319   */\n      dup4\n        /* \"#utility.yul\":1301:1308   */\n      dup6\n        /* \"#utility.yul\":1297:1320   */\n      sub\n        /* \"#utility.yul\":1293:1325   */\n      slt\n        /* \"#utility.yul\":1290:1409   */\n      iszero\n      tag_68\n      jumpi\n        /* \"#utility.yul\":1328:1407   */\n      tag_69\n      tag_32\n      jump\t// in\n    tag_69:\n        /* \"#utility.yul\":1290:1409   */\n    tag_68:\n        /* \"#utility.yul\":1448:1449   */\n      0x00\n        /* \"#utility.yul\":1473:1526   */\n      tag_70\n        /* \"#utility.yul\":1518:1525   */\n      dup6\n        /* \"#utility.yul\":1509:1515   */\n      dup3\n        /* \"#utility.yul\":1498:1507   */\n      dup7\n        /* \"#utility.yul\":1494:1516   */\n      add\n        /* \"#utility.yul\":1473:1526   */\n      tag_37\n      jump\t// in\n    tag_70:\n        /* \"#utility.yul\":1463:1526   */\n      swap3\n      pop\n        /* \"#utility.yul\":1419:1536   */\n      pop\n        /* \"#utility.yul\":1575:1577   */\n      0x20\n        /* \"#utility.yul\":1601:1654   */\n      tag_71\n        /* \"#utility.yul\":1646:1653   */\n      dup6\n        /* \"#utility.yul\":1637:1643   */\n      dup3\n        /* \"#utility.yul\":1626:1635   */\n      dup7\n        /* \"#utility.yul\":1622:1644   */\n      add\n        /* \"#utility.yul\":1601:1654   */\n      tag_40\n      jump\t// in\n    tag_71:\n        /* \"#utility.yul\":1591:1654   */\n      swap2\n      pop\n        /* \"#utility.yul\":1546:1664   */\n      pop\n        /* \"#utility.yul\":1197:1671   */\n      swap3\n      pop\n      swap3\n      swap1\n      pop\n      jump\t// out\n        /* \"#utility.yul\":1677:1846   */\n    tag_41:\n        /* \"#utility.yul\":1761:1772   */\n      0x00\n        /* \"#utility.yul\":1795:1801   */\n      dup3\n        /* \"#utility.yul\":1790:1793   */\n      dup3\n        /* \"#utility.yul\":1783:1802   */\n      mstore\n        /* \"#utility.yul\":1835:1839   */\n      0x20\n        /* \"#utility.yul\":1830:1833   */\n      dup3\n        /* \"#utility.yul\":1826:1840   */\n      add\n        /* \"#utility.yul\":1811:1840   */\n      swap1\n      pop\n        /* \"#utility.yul\":1677:1846   */\n      swap3\n      swap2\n      pop\n      pop\n      jump\t// out\n        /* \"#utility.yul\":1852:2019   */\n    tag_42:\n        /* \"#utility.yul\":1992:2011   */\n      0x496e666c75656e63652042616c616e6365000000000000000000000000000000\n        /* \"#utility.yul\":1988:1989   */\n      0x00\n        /* \"#utility.yul\":1980:1986   */\n      dup3\n        /* \"#utility.yul\":1976:1990   */\n      add\n        /* \"#utility.yul\":1969:2012   */\n      mstore\n        /* \"#utility.yul\":1852:2019   */\n      pop\n      jump\t// out\n        /* \"#utility.yul\":2025:2391   */\n    tag_43:\n        /* \"#utility.yul\":2167:2170   */\n      0x00\n        /* \"#utility.yul\":2188:2255   */\n      tag_75\n        /* \"#utility.yul\":2252:2254   */\n      0x11\n        /* \"#utility.yul\":2247:2250   */\n      dup4\n        /* \"#utility.yul\":2188:2255   */\n      tag_41\n      jump\t// in\n    tag_75:\n        /* \"#utility.yul\":2181:2255   */\n      swap2\n      pop\n        /* \"#utility.yul\":2264:2357   */\n      tag_76\n        /* \"#utility.yul\":2353:2356   */\n      dup3\n        /* \"#utility.yul\":2264:2357   */\n      tag_42\n      jump\t// in\n    tag_76:\n        /* \"#utility.yul\":2382:2384   */\n      0x20\n        /* \"#utility.yul\":2377:2380   */\n      dup3\n        /* \"#utility.yul\":2373:2385   */\n      add\n        /* \"#utility.yul\":2366:2385   */\n      swap1\n      pop\n        /* \"#utility.yul\":2025:2391   */\n      swap2\n      swap1\n      pop\n      jump\t// out\n        /* \"#utility.yul\":2397:2816   */\n    tag_15:\n        /* \"#utility.yul\":2563:2567   */\n      0x00\n        /* \"#utility.yul\":2601:2603   */\n      0x20\n        /* \"#utility.yul\":2590:2599   */\n      dup3\n        /* \"#utility.yul\":2586:2604   */\n      add\n        /* \"#utility.yul\":2578:2604   */\n      swap1\n      pop\n        /* \"#utility.yul\":2650:2659   */\n      dup2\n        /* \"#utility.yul\":2644:2648   */\n      dup2\n        /* \"#utility.yul\":2640:2660   */\n      sub\n        /* \"#utility.yul\":2636:2637   */\n      0x00\n        /* \"#utility.yul\":2625:2634   */\n      dup4\n        /* \"#utility.yul\":2621:2638   */\n      add\n        /* \"#utility.yul\":2614:2661   */\n      mstore\n        /* \"#utility.yul\":2678:2809   */\n      tag_78\n        /* \"#utility.yul\":2804:2808   */\n      dup2\n        /* \"#utility.yul\":2678:2809   */\n      tag_43\n      jump\t// in\n    tag_78:\n        /* \"#utility.yul\":2670:2809   */\n      swap1\n      pop\n        /* \"#utility.yul\":2397:2816   */\n      swap2\n      swap1\n      pop\n      jump\t// out\n        /* \"#utility.yul\":2822:2993   */\n    tag_44:\n        /* \"#utility.yul\":2962:2985   */\n      0x596f7520617265206e6f7420746865206f776e65720000000000000000000000\n        /* \"#utility.yul\":2958:2959   */\n      0x00\n        /* \"#utility.yul\":2950:2956   */\n      dup3\n        /* \"#utility.yul\":2946:2960   */\n      add\n        /* \"#utility.yul\":2939:2986   */\n      mstore\n        /* \"#utility.yul\":2822:2993   */\n      pop\n      jump\t// out\n        /* \"#utility.yul\":2999:3365   */\n    tag_45:\n        /* \"#utility.yul\":3141:3144   */\n      0x00\n        /* \"#utility.yul\":3162:3229   */\n      tag_81\n        /* \"#utility.yul\":3226:3228   */\n      0x15\n        /* \"#utility.yul\":3221:3224   */\n      dup4\n        /* \"#utility.yul\":3162:3229   */\n      tag_41\n      jump\t// in\n    tag_81:\n        /* \"#utility.yul\":3155:3229   */\n      swap2\n      pop\n        /* \"#utility.yul\":3238:3331   */\n      tag_82\n        /* \"#utility.yul\":3327:3330   */\n      dup3\n        /* \"#utility.yul\":3238:3331   */\n      tag_44\n      jump\t// in\n    tag_82:\n        /* \"#utility.yul\":3356:3358   */\n      0x20\n        /* \"#utility.yul\":3351:3354   */\n      dup3\n        /* \"#utility.yul\":3347:3359   */\n      add\n        /* \"#utility.yul\":3340:3359   */\n      swap1\n      pop\n        /* \"#utility.yul\":2999:3365   */\n      swap2\n      swap1\n      pop\n      jump\t// out\n        /* \"#utility.yul\":3371:3790   */\n    tag_19:\n        /* \"#utility.yul\":3537:3541   */\n      0x00\n        /* \"#utility.yul\":3575:3577   */\n      0x20\n        /* \"#utility.yul\":3564:3573   */\n      dup3\n        /* \"#utility.yul\":3560:3578   */\n      add\n        /* \"#utility.yul\":3552:3578   */\n      swap1\n      pop\n        /* \"#utility.yul\":3624:3633   */\n      dup2\n        /* \"#utility.yul\":3618:3622   */\n      dup2\n        /* \"#utility.yul\":3614:3634   */\n      sub\n        /* \"#utility.yul\":3610:3611   */\n      0x00\n        /* \"#utility.yul\":3599:3608   */\n      dup4\n        /* \"#utility.yul\":3595:3612   */\n      add\n        /* \"#utility.yul\":3588:3635   */\n      mstore\n        /* \"#utility.yul\":3652:3783   */\n      tag_84\n        /* \"#utility.yul\":3778:3782   */\n      dup2\n        /* \"#utility.yul\":3652:3783   */\n      tag_45\n      jump\t// in\n    tag_84:\n        /* \"#utility.yul\":3644:3783   */\n      swap1\n      pop\n        /* \"#utility.yul\":3371:3790   */\n      swap2\n      swap1\n      pop\n      jump\t// out\n        /* \"#utility.yul\":3796:3976   */\n    tag_46:\n        /* \"#utility.yul\":3844:3921   */\n      0x4e487b7100000000000000000000000000000000000000000000000000000000\n        /* \"#utility.yul\":3841:3842   */\n      0x00\n        /* \"#utility.yul\":3834:3922   */\n      mstore\n        /* \"#utility.yul\":3941:3945   */\n      0x11\n        /* \"#utility.yul\":3938:3939   */\n      0x04\n        /* \"#utility.yul\":3931:3946   */\n      mstore\n        /* \"#utility.yul\":3965:3969   */\n      0x24\n        /* \"#utility.yul\":3962:3963   */\n      0x00\n        /* \"#utility.yul\":3955:3970   */\n      revert\n        /* \"#utility.yul\":3982:4176   */\n    tag_22:\n        /* \"#utility.yul\":4022:4026   */\n      0x00\n        /* \"#utility.yul\":4042:4062   */\n      tag_87\n        /* \"#utility.yul\":4060:4061   */\n      dup3\n        /* \"#utility.yul\":4042:4062   */\n      tag_38\n      jump\t// in\n    tag_87:\n        /* \"#utility.yul\":4037:4062   */\n      swap2\n      pop\n        /* \"#utility.yul\":4076:4096   */\n      tag_88\n        /* \"#utility.yul\":4094:4095   */\n      dup4\n        /* \"#utility.yul\":4076:4096   */\n      tag_38\n      jump\t// in\n    tag_88:\n        /* \"#utility.yul\":4071:4096   */\n      swap3\n      pop\n        /* \"#utility.yul\":4120:4121   */\n      dup3\n        /* \"#utility.yul\":4117:4118   */\n      dup3\n        /* \"#utility.yul\":4113:4122   */\n      sub\n        /* \"#utility.yul\":4105:4122   */\n      swap1\n      pop\n        /* \"#utility.yul\":4144:4145   */\n      dup2\n        /* \"#utility.yul\":4138:4142   */\n      dup2\n        /* \"#utility.yul\":4135:4146   */\n      gt\n        /* \"#utility.yul\":4132:4169   */\n      iszero\n      tag_89\n      jumpi\n        /* \"#utility.yul\":4149:4167   */\n      tag_90\n      tag_46\n      jump\t// in\n    tag_90:\n        /* \"#utility.yul\":4132:4169   */\n    tag_89:\n        /* \"#utility.yul\":3982:4176   */\n      swap3\n      swap2\n      pop\n      pop\n      jump\t// out\n        /* \"#utility.yul\":4182:4373   */\n    tag_28:\n        /* \"#utility.yul\":4222:4225   */\n      0x00\n        /* \"#utility.yul\":4241:4261   */\n      tag_92\n        /* \"#utility.yul\":4259:4260   */\n      dup3\n        /* \"#utility.yul\":4241:4261   */\n      tag_38\n      jump\t// in\n    tag_92:\n        /* \"#utility.yul\":4236:4261   */\n      swap2\n      pop\n        /* \"#utility.yul\":4275:4295   */\n      tag_93\n        /* \"#utility.yul\":4293:4294   */\n      dup4\n        /* \"#utility.yul\":4275:4295   */\n      tag_38\n      jump\t// in\n    tag_93:\n        /* \"#utility.yul\":4270:4295   */\n      swap3\n      pop\n        /* \"#utility.yul\":4318:4319   */\n      dup3\n        /* \"#utility.yul\":4315:4316   */\n      dup3\n        /* \"#utility.yul\":4311:4320   */\n      add\n        /* \"#utility.yul\":4304:4320   */\n      swap1\n      pop\n        /* \"#utility.yul\":4339:4342   */\n      dup1\n        /* \"#utility.yul\":4336:4337   */\n      dup3\n        /* \"#utility.yul\":4333:4343   */\n      gt\n        /* \"#utility.yul\":4330:4366   */\n      iszero\n      tag_94\n      jumpi\n        /* \"#utility.yul\":4346:4364   */\n      tag_95\n      tag_46\n      jump\t// in\n    tag_95:\n        /* \"#utility.yul\":4330:4366   */\n    tag_94:\n        /* \"#utility.yul\":4182:4373   */\n      swap3\n      swap2\n      pop\n      pop\n      jump\t// out\n        /* \"#utility.yul\":4379:4497   */\n    tag_47:\n        /* \"#utility.yul\":4466:4490   */\n      tag_97\n        /* \"#utility.yul\":4484:4489   */\n      dup2\n        /* \"#utility.yul\":4466:4490   */\n      tag_35\n      jump\t// in\n    tag_97:\n        /* \"#utility.yul\":4461:4464   */\n      dup3\n        /* \"#utility.yul\":4454:4491   */\n      mstore\n        /* \"#utility.yul\":4379:4497   */\n      pop\n      pop\n      jump\t// out\n        /* \"#utility.yul\":4503:4621   */\n    tag_48:\n        /* \"#utility.yul\":4590:4614   */\n      tag_99\n        /* \"#utility.yul\":4608:4613   */\n      dup2\n        /* \"#utility.yul\":4590:4614   */\n      tag_38\n      jump\t// in\n    tag_99:\n        /* \"#utility.yul\":4585:4588   */\n      dup3\n        /* \"#utility.yul\":4578:4615   */\n      mstore\n        /* \"#utility.yul\":4503:4621   */\n      pop\n      pop\n      jump\t// out\n        /* \"#utility.yul\":4627:4959   */\n    tag_30:\n        /* \"#utility.yul\":4748:4752   */\n      0x00\n        /* \"#utility.yul\":4786:4788   */\n      0x40\n        /* \"#utility.yul\":4775:4784   */\n      dup3\n        /* \"#utility.yul\":4771:4789   */\n      add\n        /* \"#utility.yul\":4763:4789   */\n      swap1\n      pop\n        /* \"#utility.yul\":4799:4870   */\n      tag_101\n        /* \"#utility.yul\":4867:4868   */\n      0x00\n        /* \"#utility.yul\":4856:4865   */\n      dup4\n        /* \"#utility.yul\":4852:4869   */\n      add\n        /* \"#utility.yul\":4843:4849   */\n      dup6\n        /* \"#utility.yul\":4799:4870   */\n      tag_47\n      jump\t// in\n    tag_101:\n        /* \"#utility.yul\":4880:4952   */\n      tag_102\n        /* \"#utility.yul\":4948:4950   */\n      0x20\n        /* \"#utility.yul\":4937:4946   */\n      dup4\n        /* \"#utility.yul\":4933:4951   */\n      add\n        /* \"#utility.yul\":4924:4930   */\n      dup5\n        /* \"#utility.yul\":4880:4952   */\n      tag_48\n      jump\t// in\n    tag_102:\n        /* \"#utility.yul\":4627:4959   */\n      swap4\n      swap3\n      pop\n      pop\n      pop\n      jump\t// out\n\n    auxdata: 0xa2646970667358221220caa019b00d1f9ab117dde64dc64682c4fd8dd58e0d9b562261ba75f9854716cd64736f6c634300081a0033\n}\n",
				"bytecode": {
					"linkReferences": {},
					"object": "6080604052348015600e575f80fd5b50335f806101000a81548173ffffffffffffffffffffffffffffffffffffffff021916908373ffffffffffffffffffffffffffffffffffffffff1602179055506105b28061005b5f395ff3fe608060405234801561000f575f80fd5b5060043610610034575f3560e01c8063410085df14610038578063c407687614610054575b5f80fd5b610052600480360381019061004d9190610386565b610070565b005b61006e60048036038101906100699190610386565b6101d8565b005b81818060015f8473ffffffffffffffffffffffffffffffffffffffff1673ffffffffffffffffffffffffffffffffffffffff1681526020019081526020015f205410156100f2576040517f08c379a00000000000000000000000000000000000000000000000000000000081526004016100e99061041e565b60405180910390fd5b5f8054906101000a900473ffffffffffffffffffffffffffffffffffffffff1673ffffffffffffffffffffffffffffffffffffffff163373ffffffffffffffffffffffffffffffffffffffff161461017f576040517f08c379a000000000000000000000000000000000000000000000000000000000815260040161017690610486565b60405180910390fd5b8260015f8673ffffffffffffffffffffffffffffffffffffffff1673ffffffffffffffffffffffffffffffffffffffff1681526020019081526020015f205f8282546101cb91906104d1565b9250508190555050505050565b5f8054906101000a900473ffffffffffffffffffffffffffffffffffffffff1673ffffffffffffffffffffffffffffffffffffffff163373ffffffffffffffffffffffffffffffffffffffff1614610265576040517f08c379a000000000000000000000000000000000000000000000000000000000815260040161025c90610486565b60405180910390fd5b8060015f8473ffffffffffffffffffffffffffffffffffffffff1673ffffffffffffffffffffffffffffffffffffffff1681526020019081526020015f205f8282546102b19190610504565b925050819055507ffd33aad132d2ffbd43b9451d76c3fef4009c294c1eba5292b84b8fe5b454f81e82826040516102e9929190610555565b60405180910390a15050565b5f80fd5b5f73ffffffffffffffffffffffffffffffffffffffff82169050919050565b5f610322826102f9565b9050919050565b61033281610318565b811461033c575f80fd5b50565b5f8135905061034d81610329565b92915050565b5f819050919050565b61036581610353565b811461036f575f80fd5b50565b5f813590506103808161035c565b92915050565b5f806040838503121561039c5761039b6102f5565b5b5f6103a98582860161033f565b92505060206103ba85828601610372565b9150509250929050565b5f82825260208201905092915050565b7f496e666c75656e63652042616c616e63650000000000000000000000000000005f82015250565b5f6104086011836103c4565b9150610413826103d4565b602082019050919050565b5f6020820190508181035f830152610435816103fc565b9050919050565b7f596f7520617265206e6f7420746865206f776e657200000000000000000000005f82015250565b5f6104706015836103c4565b915061047b8261043c565b602082019050919050565b5f6020820190508181035f83015261049d81610464565b9050919050565b7f4e487b71000000000000000000000000000000000000000000000000000000005f52601160045260245ffd5b5f6104db82610353565b91506104e683610353565b92508282039050818111156104fe576104fd6104a4565b5b92915050565b5f61050e82610353565b915061051983610353565b9250828201905080821115610531576105306104a4565b5b92915050565b61054081610318565b82525050565b61054f81610353565b82525050565b5f6040820190506105685f830185610537565b6105756020830184610546565b939250505056fea2646970667358221220caa019b00d1f9ab117dde64dc64682c4fd8dd58e0d9b562261ba75f9854716cd64736f6c634300081a0033",
					"opcodes": "PUSH1 0x80 PUSH1 0x40 MSTORE CALLVALUE DUP1 ISZERO PUSH1 0xE JUMPI PUSH0 DUP1 REVERT JUMPDEST POP CALLER PUSH0 DUP1 PUSH2 0x100 EXP DUP2 SLOAD DUP2 PUSH20 0xFFFFFFFFFFFFFFFFFFFFFFFFFFFFFFFFFFFFFFFF MUL NOT AND SWAP1 DUP4 PUSH20 0xFFFFFFFFFFFFFFFFFFFFFFFFFFFFFFFFFFFFFFFF AND MUL OR SWAP1 SSTORE POP PUSH2 0x5B2 DUP1 PUSH2 0x5B PUSH0 CODECOPY PUSH0 RETURN INVALID PUSH1 0x80 PUSH1 0x40 MSTORE CALLVALUE DUP1 ISZERO PUSH2 0xF JUMPI PUSH0 DUP1 REVERT JUMPDEST POP PUSH1 0x4 CALLDATASIZE LT PUSH2 0x34 JUMPI PUSH0 CALLDATALOAD PUSH1 0xE0 SHR DUP1 PUSH4 0x410085DF EQ PUSH2 0x38 JUMPI DUP1 PUSH4 0xC4076876 EQ PUSH2 0x54 JUMPI JUMPDEST PUSH0 DUP1 REVERT JUMPDEST PUSH2 0x52 PUSH1 0x4 DUP1 CALLDATASIZE SUB DUP2 ADD SWAP1 PUSH2 0x4D SWAP2 SWAP1 PUSH2 0x386 JUMP JUMPDEST PUSH2 0x70 JUMP JUMPDEST STOP JUMPDEST PUSH2 0x6E PUSH1 0x4 DUP1 CALLDATASIZE SUB DUP2 ADD SWAP1 PUSH2 0x69 SWAP2 SWAP1 PUSH2 0x386 JUMP JUMPDEST PUSH2 0x1D8 JUMP JUMPDEST STOP JUMPDEST DUP2 DUP2 DUP1 PUSH1 0x1 PUSH0 DUP5 PUSH20 0xFFFFFFFFFFFFFFFFFFFFFFFFFFFFFFFFFFFFFFFF AND PUSH20 0xFFFFFFFFFFFFFFFFFFFFFFFFFFFFFFFFFFFFFFFF AND DUP2 MSTORE PUSH1 0x20 ADD SWAP1 DUP2 MSTORE PUSH1 0x20 ADD PUSH0 KECCAK256 SLOAD LT ISZERO PUSH2 0xF2 JUMPI PUSH1 0x40 MLOAD PUSH32 0x8C379A000000000000000000000000000000000000000000000000000000000 DUP2 MSTORE PUSH1 0x4 ADD PUSH2 0xE9 SWAP1 PUSH2 0x41E JUMP JUMPDEST PUSH1 0x40 MLOAD DUP1 SWAP2 SUB SWAP1 REVERT JUMPDEST PUSH0 DUP1 SLOAD SWAP1 PUSH2 0x100 EXP SWAP1 DIV PUSH20 0xFFFFFFFFFFFFFFFFFFFFFFFFFFFFFFFFFFFFFFFF AND PUSH20 0xFFFFFFFFFFFFFFFFFFFFFFFFFFFFFFFFFFFFFFFF AND CALLER PUSH20 0xFFFFFFFFFFFFFFFFFFFFFFFFFFFFFFFFFFFFFFFF AND EQ PUSH2 0x17F JUMPI PUSH1 0x40 MLOAD PUSH32 0x8C379A000000000000000000000000000000000000000000000000000000000 DUP2 MSTORE PUSH1 0x4 ADD PUSH2 0x176 SWAP1 PUSH2 0x486 JUMP JUMPDEST PUSH1 0x40 MLOAD DUP1 SWAP2 SUB SWAP1 REVERT JUMPDEST DUP3 PUSH1 0x1 PUSH0 DUP7 PUSH20 0xFFFFFFFFFFFFFFFFFFFFFFFFFFFFFFFFFFFFFFFF AND PUSH20 0xFFFFFFFFFFFFFFFFFFFFFFFFFFFFFFFFFFFFFFFF AND DUP2 MSTORE PUSH1 0x20 ADD SWAP1 DUP2 MSTORE PUSH1 0x20 ADD PUSH0 KECCAK256 PUSH0 DUP3 DUP3 SLOAD PUSH2 0x1CB SWAP2 SWAP1 PUSH2 0x4D1 JUMP JUMPDEST SWAP3 POP POP DUP2 SWAP1 SSTORE POP POP POP POP POP JUMP JUMPDEST PUSH0 DUP1 SLOAD SWAP1 PUSH2 0x100 EXP SWAP1 DIV PUSH20 0xFFFFFFFFFFFFFFFFFFFFFFFFFFFFFFFFFFFFFFFF AND PUSH20 0xFFFFFFFFFFFFFFFFFFFFFFFFFFFFFFFFFFFFFFFF AND CALLER PUSH20 0xFFFFFFFFFFFFFFFFFFFFFFFFFFFFFFFFFFFFFFFF AND EQ PUSH2 0x265 JUMPI PUSH1 0x40 MLOAD PUSH32 0x8C379A000000000000000000000000000000000000000000000000000000000 DUP2 MSTORE PUSH1 0x4 ADD PUSH2 0x25C SWAP1 PUSH2 0x486 JUMP JUMPDEST PUSH1 0x40 MLOAD DUP1 SWAP2 SUB SWAP1 REVERT JUMPDEST DUP1 PUSH1 0x1 PUSH0 DUP5 PUSH20 0xFFFFFFFFFFFFFFFFFFFFFFFFFFFFFFFFFFFFFFFF AND PUSH20 0xFFFFFFFFFFFFFFFFFFFFFFFFFFFFFFFFFFFFFFFF AND DUP2 MSTORE PUSH1 0x20 ADD SWAP1 DUP2 MSTORE PUSH1 0x20 ADD PUSH0 KECCAK256 PUSH0 DUP3 DUP3 SLOAD PUSH2 0x2B1 SWAP2 SWAP1 PUSH2 0x504 JUMP JUMPDEST SWAP3 POP POP DUP2 SWAP1 SSTORE POP PUSH32 0xFD33AAD132D2FFBD43B9451D76C3FEF4009C294C1EBA5292B84B8FE5B454F81E DUP3 DUP3 PUSH1 0x40 MLOAD PUSH2 0x2E9 SWAP3 SWAP2 SWAP1 PUSH2 0x555 JUMP JUMPDEST PUSH1 0x40 MLOAD DUP1 SWAP2 SUB SWAP1 LOG1 POP POP JUMP JUMPDEST PUSH0 DUP1 REVERT JUMPDEST PUSH0 PUSH20 0xFFFFFFFFFFFFFFFFFFFFFFFFFFFFFFFFFFFFFFFF DUP3 AND SWAP1 POP SWAP2 SWAP1 POP JUMP JUMPDEST PUSH0 PUSH2 0x322 DUP3 PUSH2 0x2F9 JUMP JUMPDEST SWAP1 POP SWAP2 SWAP1 POP JUMP JUMPDEST PUSH2 0x332 DUP2 PUSH2 0x318 JUMP JUMPDEST DUP2 EQ PUSH2 0x33C JUMPI PUSH0 DUP1 REVERT JUMPDEST POP JUMP JUMPDEST PUSH0 DUP2 CALLDATALOAD SWAP1 POP PUSH2 0x34D DUP2 PUSH2 0x329 JUMP JUMPDEST SWAP3 SWAP2 POP POP JUMP JUMPDEST PUSH0 DUP2 SWAP1 POP SWAP2 SWAP1 POP JUMP JUMPDEST PUSH2 0x365 DUP2 PUSH2 0x353 JUMP JUMPDEST DUP2 EQ PUSH2 0x36F JUMPI PUSH0 DUP1 REVERT JUMPDEST POP JUMP JUMPDEST PUSH0 DUP2 CALLDATALOAD SWAP1 POP PUSH2 0x380 DUP2 PUSH2 0x35C JUMP JUMPDEST SWAP3 SWAP2 POP POP JUMP JUMPDEST PUSH0 DUP1 PUSH1 0x40 DUP4 DUP6 SUB SLT ISZERO PUSH2 0x39C JUMPI PUSH2 0x39B PUSH2 0x2F5 JUMP JUMPDEST JUMPDEST PUSH0 PUSH2 0x3A9 DUP6 DUP3 DUP7 ADD PUSH2 0x33F JUMP JUMPDEST SWAP3 POP POP PUSH1 0x20 PUSH2 0x3BA DUP6 DUP3 DUP7 ADD PUSH2 0x372 JUMP JUMPDEST SWAP2 POP POP SWAP3 POP SWAP3 SWAP1 POP JUMP JUMPDEST PUSH0 DUP3 DUP3 MSTORE PUSH1 0x20 DUP3 ADD SWAP1 POP SWAP3 SWAP2 POP POP JUMP JUMPDEST PUSH32 0x496E666C75656E63652042616C616E6365000000000000000000000000000000 PUSH0 DUP3 ADD MSTORE POP JUMP JUMPDEST PUSH0 PUSH2 0x408 PUSH1 0x11 DUP4 PUSH2 0x3C4 JUMP JUMPDEST SWAP2 POP PUSH2 0x413 DUP3 PUSH2 0x3D4 JUMP JUMPDEST PUSH1 0x20 DUP3 ADD SWAP1 POP SWAP2 SWAP1 POP JUMP JUMPDEST PUSH0 PUSH1 0x20 DUP3 ADD SWAP1 POP DUP2 DUP2 SUB PUSH0 DUP4 ADD MSTORE PUSH2 0x435 DUP2 PUSH2 0x3FC JUMP JUMPDEST SWAP1 POP SWAP2 SWAP1 POP JUMP JUMPDEST PUSH32 0x596F7520617265206E6F7420746865206F776E65720000000000000000000000 PUSH0 DUP3 ADD MSTORE POP JUMP JUMPDEST PUSH0 PUSH2 0x470 PUSH1 0x15 DUP4 PUSH2 0x3C4 JUMP JUMPDEST SWAP2 POP PUSH2 0x47B DUP3 PUSH2 0x43C JUMP JUMPDEST PUSH1 0x20 DUP3 ADD SWAP1 POP SWAP2 SWAP1 POP JUMP JUMPDEST PUSH0 PUSH1 0x20 DUP3 ADD SWAP1 POP DUP2 DUP2 SUB PUSH0 DUP4 ADD MSTORE PUSH2 0x49D DUP2 PUSH2 0x464 JUMP JUMPDEST SWAP1 POP SWAP2 SWAP1 POP JUMP JUMPDEST PUSH32 0x4E487B7100000000000000000000000000000000000000000000000000000000 PUSH0 MSTORE PUSH1 0x11 PUSH1 0x4 MSTORE PUSH1 0x24 PUSH0 REVERT JUMPDEST PUSH0 PUSH2 0x4DB DUP3 PUSH2 0x353 JUMP JUMPDEST SWAP2 POP PUSH2 0x4E6 DUP4 PUSH2 0x353 JUMP JUMPDEST SWAP3 POP DUP3 DUP3 SUB SWAP1 POP DUP2 DUP2 GT ISZERO PUSH2 0x4FE JUMPI PUSH2 0x4FD PUSH2 0x4A4 JUMP JUMPDEST JUMPDEST SWAP3 SWAP2 POP POP JUMP JUMPDEST PUSH0 PUSH2 0x50E DUP3 PUSH2 0x353 JUMP JUMPDEST SWAP2 POP PUSH2 0x519 DUP4 PUSH2 0x353 JUMP JUMPDEST SWAP3 POP DUP3 DUP3 ADD SWAP1 POP DUP1 DUP3 GT ISZERO PUSH2 0x531 JUMPI PUSH2 0x530 PUSH2 0x4A4 JUMP JUMPDEST JUMPDEST SWAP3 SWAP2 POP POP JUMP JUMPDEST PUSH2 0x540 DUP2 PUSH2 0x318 JUMP JUMPDEST DUP3 MSTORE POP POP JUMP JUMPDEST PUSH2 0x54F DUP2 PUSH2 0x353 JUMP JUMPDEST DUP3 MSTORE POP POP JUMP JUMPDEST PUSH0 PUSH1 0x40 DUP3 ADD SWAP1 POP PUSH2 0x568 PUSH0 DUP4 ADD DUP6 PUSH2 0x537 JUMP JUMPDEST PUSH2 0x575 PUSH1 0x20 DUP4 ADD DUP5 PUSH2 0x546 JUMP JUMPDEST SWAP4 SWAP3 POP POP POP JUMP INVALID LOG2 PUSH5 0x6970667358 0x22 SLT KECCAK256 0xCA LOG0 NOT 0xB0 0xD 0x1F SWAP11 0xB1 OR 0xDD 0xE6 0x4D 0xC6 CHAINID DUP3 0xC4 REVERT DUP14 0xD5 DUP15 0xD SWAP12 JUMP 0x22 PUSH2 0xBA75 0xF9 DUP6 SELFBALANCE AND 0xCD PUSH5 0x736F6C6343 STOP ADDMOD BYTE STOP CALLER "
				},
				"gasEstimates": {
					"creation": {
						"codeDepositCost": "291600",
						"executionCost": "24594",
						"totalCost": "316194"
					},
					"external": {
						"pay(address,uint256)": "infinite",
						"refund(address,uint256)": "infinite"
					}
				},
				"methodIdentifiers": {
					"pay(address,uint256)": "c4076876",
					"refund(address,uint256)": "410085df"
				}
			},
			"storageLayout": {
				"storage": [
					{
						"astId": 20,
						"contract": "interface/InterfacePractice/PaymentGetway.sol:simplePayment",
						"label": "owner",
						"offset": 0,
						"slot": "0",
						"type": "t_address"
					},
					{
						"astId": 24,
						"contract": "interface/InterfacePractice/PaymentGetway.sol:simplePayment",
						"label": "balances",
						"offset": 0,
						"slot": "1",
						"type": "t_mapping(t_address,t_uint256)"
					}
				],
				"types": {
					"t_address": {
						"encoding": "inplace",
						"label": "address",
						"numberOfBytes": "20"
					},
					"t_mapping(t_address,t_uint256)": {
						"encoding": "mapping",
						"key": "t_address",
						"label": "mapping(address => uint256)",
						"numberOfBytes": "32",
						"value": "t_uint256"
					},
					"t_uint256": {
						"encoding": "inplace",
						"label": "uint256",
						"numberOfBytes": "32"
					}
				}
			},
			"userdoc": {
				"kind": "user",
				"methods": {},
				"version": 1
			}
		}
	}
}