{
	"contracts/FirstToken.sol": {
		"Token": {
			"abi": [
				{
					"inputs": [
						{
							"internalType": "address",
							"name": "",
							"type": "address"
						}
					],
					"name": "balances",
					"outputs": [
						{
							"internalType": "uint256",
							"name": "",
							"type": "uint256"
						}
					],
					"stateMutability": "view",
					"type": "function"
				},
				{
					"inputs": [
						{
							"internalType": "address",
							"name": "to",
							"type": "address"
						},
						{
							"internalType": "uint256",
							"name": "amount",
							"type": "uint256"
						}
					],
					"name": "mint",
					"outputs": [],
					"stateMutability": "nonpayable",
					"type": "function"
				},
				{
					"inputs": [],
					"name": "owner",
					"outputs": [
						{
							"internalType": "address",
							"name": "",
							"type": "address"
						}
					],
					"stateMutability": "view",
					"type": "function"
				},
				{
					"inputs": [],
					"name": "pause",
					"outputs": [],
					"stateMutability": "nonpayable",
					"type": "function"
				},
				{
					"inputs": [],
					"name": "paused",
					"outputs": [
						{
							"internalType": "bool",
							"name": "",
							"type": "bool"
						}
					],
					"stateMutability": "view",
					"type": "function"
				},
				{
					"inputs": [
						{
							"internalType": "address",
							"name": "to",
							"type": "address"
						},
						{
							"internalType": "uint256",
							"name": "amount",
							"type": "uint256"
						}
					],
					"name": "transfer",
					"outputs": [],
					"stateMutability": "nonpayable",
					"type": "function"
				},
				{
					"inputs": [],
					"name": "unPause",
					"outputs": [],
					"stateMutability": "nonpayable",
					"type": "function"
				}
			],
			"devdoc": {
				"kind": "dev",
				"methods": {},
				"version": 1
			},
			"evm": {
				"assembly": "    /* \"contracts/FirstToken.sol\":581:999  contract Token is Ownable, pausable {... */\n  mstore(0x40, 0x80)\n  callvalue\n  dup1\n  iszero\n  tag_1\n  jumpi\n  revert(0x00, 0x00)\ntag_1:\n  pop\n    /* \"contracts/FirstToken.sol\":140:150  msg.sender */\n  caller\n    /* \"contracts/FirstToken.sol\":132:137  owner */\n  0x00\n  0x00\n    /* \"contracts/FirstToken.sol\":132:150  owner = msg.sender */\n  0x0100\n  exp\n  dup2\n  sload\n  dup2\n  0xffffffffffffffffffffffffffffffffffffffff\n  mul\n  not\n  and\n  swap1\n  dup4\n  0xffffffffffffffffffffffffffffffffffffffff\n  and\n  mul\n  or\n  swap1\n  sstore\n  pop\n    /* \"contracts/FirstToken.sol\":581:999  contract Token is Ownable, pausable {... */\n  dataSize(sub_0)\n  dup1\n  dataOffset(sub_0)\n  0x00\n  codecopy\n  0x00\n  return\nstop\n\nsub_0: assembly {\n        /* \"contracts/FirstToken.sol\":581:999  contract Token is Ownable, pausable {... */\n      mstore(0x40, 0x80)\n      callvalue\n      dup1\n      iszero\n      tag_1\n      jumpi\n      revert(0x00, 0x00)\n    tag_1:\n      pop\n      jumpi(tag_2, lt(calldatasize, 0x04))\n      shr(0xe0, calldataload(0x00))\n      dup1\n      0x8456cb59\n      gt\n      tag_10\n      jumpi\n      dup1\n      0x8456cb59\n      eq\n      tag_6\n      jumpi\n      dup1\n      0x8da5cb5b\n      eq\n      tag_7\n      jumpi\n      dup1\n      0xa9059cbb\n      eq\n      tag_8\n      jumpi\n      dup1\n      0xf7b188a5\n      eq\n      tag_9\n      jumpi\n      jump(tag_2)\n    tag_10:\n      dup1\n      0x27e235e3\n      eq\n      tag_3\n      jumpi\n      dup1\n      0x40c10f19\n      eq\n      tag_4\n      jumpi\n      dup1\n      0x5c975abb\n      eq\n      tag_5\n      jumpi\n    tag_2:\n      revert(0x00, 0x00)\n        /* \"contracts/FirstToken.sol\":623:666  mapping(address => uint256) public balances */\n    tag_3:\n      tag_11\n      0x04\n      dup1\n      calldatasize\n      sub\n      dup2\n      add\n      swap1\n      tag_12\n      swap2\n      swap1\n      tag_13\n      jump\t// in\n    tag_12:\n      tag_14\n      jump\t// in\n    tag_11:\n      mload(0x40)\n      tag_15\n      swap2\n      swap1\n      tag_16\n      jump\t// in\n    tag_15:\n      mload(0x40)\n      dup1\n      swap2\n      sub\n      swap1\n      return\n        /* \"contracts/FirstToken.sol\":899:997  function mint(address to, uint256 amount) public OnlyOwner {... */\n    tag_4:\n      tag_17\n      0x04\n      dup1\n      calldatasize\n      sub\n      dup2\n      add\n      swap1\n      tag_18\n      swap2\n      swap1\n      tag_19\n      jump\t// in\n    tag_18:\n      tag_20\n      jump\t// in\n    tag_17:\n      stop\n        /* \"contracts/FirstToken.sol\":321:339  bool public paused */\n    tag_5:\n      tag_21\n      tag_22\n      jump\t// in\n    tag_21:\n      mload(0x40)\n      tag_23\n      swap2\n      swap1\n      tag_24\n      jump\t// in\n    tag_23:\n      mload(0x40)\n      dup1\n      swap2\n      sub\n      swap1\n      return\n        /* \"contracts/FirstToken.sol\":440:504  function pause() public OnlyOwner {... */\n    tag_6:\n      tag_25\n      tag_26\n      jump\t// in\n    tag_25:\n      stop\n        /* \"contracts/FirstToken.sol\":81:101  address public owner */\n    tag_7:\n      tag_27\n      tag_28\n      jump\t// in\n    tag_27:\n      mload(0x40)\n      tag_29\n      swap2\n      swap1\n      tag_30\n      jump\t// in\n    tag_29:\n      mload(0x40)\n      dup1\n      swap2\n      sub\n      swap1\n      return\n        /* \"contracts/FirstToken.sol\":673:893  function transfer(address to, uint256 amount) public whenNotPaused {... */\n    tag_8:\n      tag_31\n      0x04\n      dup1\n      calldatasize\n      sub\n      dup2\n      add\n      swap1\n      tag_32\n      swap2\n      swap1\n      tag_19\n      jump\t// in\n    tag_32:\n      tag_33\n      jump\t// in\n    tag_31:\n      stop\n        /* \"contracts/FirstToken.sol\":510:577  function unPause() public OnlyOwner {... */\n    tag_9:\n      tag_34\n      tag_35\n      jump\t// in\n    tag_34:\n      stop\n        /* \"contracts/FirstToken.sol\":623:666  mapping(address => uint256) public balances */\n    tag_14:\n      mstore(0x20, 0x01)\n      dup1\n      0x00\n      mstore\n      keccak256(0x00, 0x40)\n      0x00\n      swap2\n      pop\n      swap1\n      pop\n      sload\n      dup2\n      jump\t// out\n        /* \"contracts/FirstToken.sol\":899:997  function mint(address to, uint256 amount) public OnlyOwner {... */\n    tag_20:\n        /* \"contracts/FirstToken.sol\":216:221  owner */\n      0x00\n      0x00\n      swap1\n      sload\n      swap1\n      0x0100\n      exp\n      swap1\n      div\n      0xffffffffffffffffffffffffffffffffffffffff\n      and\n        /* \"contracts/FirstToken.sol\":202:221  msg.sender == owner */\n      0xffffffffffffffffffffffffffffffffffffffff\n      and\n        /* \"contracts/FirstToken.sol\":202:212  msg.sender */\n      caller\n        /* \"contracts/FirstToken.sol\":202:221  msg.sender == owner */\n      0xffffffffffffffffffffffffffffffffffffffff\n      and\n      eq\n        /* \"contracts/FirstToken.sol\":194:264  require(msg.sender == owner, \"You are not the owner, You can do this\") */\n      tag_37\n      jumpi\n      mload(0x40)\n      0x08c379a000000000000000000000000000000000000000000000000000000000\n      dup2\n      mstore\n      0x04\n      add\n      tag_38\n      swap1\n      tag_39\n      jump\t// in\n    tag_38:\n      mload(0x40)\n      dup1\n      swap2\n      sub\n      swap1\n      revert\n    tag_37:\n        /* \"contracts/FirstToken.sol\":984:990  amount */\n      dup1\n        /* \"contracts/FirstToken.sol\":968:976  balances */\n      0x01\n        /* \"contracts/FirstToken.sol\":968:980  balances[to] */\n      0x00\n        /* \"contracts/FirstToken.sol\":977:979  to */\n      dup5\n        /* \"contracts/FirstToken.sol\":968:980  balances[to] */\n      0xffffffffffffffffffffffffffffffffffffffff\n      and\n      0xffffffffffffffffffffffffffffffffffffffff\n      and\n      dup2\n      mstore\n      0x20\n      add\n      swap1\n      dup2\n      mstore\n      0x20\n      add\n      0x00\n      keccak256\n      0x00\n        /* \"contracts/FirstToken.sol\":968:990  balances[to] += amount */\n      dup3\n      dup3\n      sload\n      tag_41\n      swap2\n      swap1\n      tag_42\n      jump\t// in\n    tag_41:\n      swap3\n      pop\n      pop\n      dup2\n      swap1\n      sstore\n      pop\n        /* \"contracts/FirstToken.sol\":899:997  function mint(address to, uint256 amount) public OnlyOwner {... */\n      pop\n      pop\n      jump\t// out\n        /* \"contracts/FirstToken.sol\":321:339  bool public paused */\n    tag_22:\n      0x00\n      0x14\n      swap1\n      sload\n      swap1\n      0x0100\n      exp\n      swap1\n      div\n      0xff\n      and\n      dup2\n      jump\t// out\n        /* \"contracts/FirstToken.sol\":440:504  function pause() public OnlyOwner {... */\n    tag_26:\n        /* \"contracts/FirstToken.sol\":216:221  owner */\n      0x00\n      0x00\n      swap1\n      sload\n      swap1\n      0x0100\n      exp\n      swap1\n      div\n      0xffffffffffffffffffffffffffffffffffffffff\n      and\n        /* \"contracts/FirstToken.sol\":202:221  msg.sender == owner */\n      0xffffffffffffffffffffffffffffffffffffffff\n      and\n        /* \"contracts/FirstToken.sol\":202:212  msg.sender */\n      caller\n        /* \"contracts/FirstToken.sol\":202:221  msg.sender == owner */\n      0xffffffffffffffffffffffffffffffffffffffff\n      and\n      eq\n        /* \"contracts/FirstToken.sol\":194:264  require(msg.sender == owner, \"You are not the owner, You can do this\") */\n      tag_44\n      jumpi\n      mload(0x40)\n      0x08c379a000000000000000000000000000000000000000000000000000000000\n      dup2\n      mstore\n      0x04\n      add\n      tag_45\n      swap1\n      tag_39\n      jump\t// in\n    tag_45:\n      mload(0x40)\n      dup1\n      swap2\n      sub\n      swap1\n      revert\n    tag_44:\n        /* \"contracts/FirstToken.sol\":493:497  true */\n      0x01\n        /* \"contracts/FirstToken.sol\":484:490  paused */\n      0x00\n      0x14\n        /* \"contracts/FirstToken.sol\":484:497  paused = true */\n      0x0100\n      exp\n      dup2\n      sload\n      dup2\n      0xff\n      mul\n      not\n      and\n      swap1\n      dup4\n      iszero\n      iszero\n      mul\n      or\n      swap1\n      sstore\n      pop\n        /* \"contracts/FirstToken.sol\":440:504  function pause() public OnlyOwner {... */\n      jump\t// out\n        /* \"contracts/FirstToken.sol\":81:101  address public owner */\n    tag_28:\n      0x00\n      0x00\n      swap1\n      sload\n      swap1\n      0x0100\n      exp\n      swap1\n      div\n      0xffffffffffffffffffffffffffffffffffffffff\n      and\n      dup2\n      jump\t// out\n        /* \"contracts/FirstToken.sol\":673:893  function transfer(address to, uint256 amount) public whenNotPaused {... */\n    tag_33:\n        /* \"contracts/FirstToken.sol\":390:396  paused */\n      0x00\n      0x14\n      swap1\n      sload\n      swap1\n      0x0100\n      exp\n      swap1\n      div\n      0xff\n      and\n        /* \"contracts/FirstToken.sol\":389:396  !paused */\n      iszero\n        /* \"contracts/FirstToken.sol\":381:416  require(!paused, \"Token is paused\") */\n      tag_48\n      jumpi\n      mload(0x40)\n      0x08c379a000000000000000000000000000000000000000000000000000000000\n      dup2\n      mstore\n      0x04\n      add\n      tag_49\n      swap1\n      tag_50\n      jump\t// in\n    tag_49:\n      mload(0x40)\n      dup1\n      swap2\n      sub\n      swap1\n      revert\n    tag_48:\n        /* \"contracts/FirstToken.sol\":782:788  amount */\n      dup1\n        /* \"contracts/FirstToken.sol\":758:766  balances */\n      0x01\n        /* \"contracts/FirstToken.sol\":758:778  balances[msg.sender] */\n      0x00\n        /* \"contracts/FirstToken.sol\":767:777  msg.sender */\n      caller\n        /* \"contracts/FirstToken.sol\":758:778  balances[msg.sender] */\n      0xffffffffffffffffffffffffffffffffffffffff\n      and\n      0xffffffffffffffffffffffffffffffffffffffff\n      and\n      dup2\n      mstore\n      0x20\n      add\n      swap1\n      dup2\n      mstore\n      0x20\n      add\n      0x00\n      keccak256\n      sload\n        /* \"contracts/FirstToken.sol\":758:788  balances[msg.sender] >= amount */\n      lt\n      iszero\n        /* \"contracts/FirstToken.sol\":750:813  require(balances[msg.sender] >= amount, \"Insufficiant Balance\") */\n      tag_52\n      jumpi\n      mload(0x40)\n      0x08c379a000000000000000000000000000000000000000000000000000000000\n      dup2\n      mstore\n      0x04\n      add\n      tag_53\n      swap1\n      tag_54\n      jump\t// in\n    tag_53:\n      mload(0x40)\n      dup1\n      swap2\n      sub\n      swap1\n      revert\n    tag_52:\n        /* \"contracts/FirstToken.sol\":848:854  amount */\n      dup1\n        /* \"contracts/FirstToken.sol\":824:832  balances */\n      0x01\n        /* \"contracts/FirstToken.sol\":824:844  balances[msg.sender] */\n      0x00\n        /* \"contracts/FirstToken.sol\":833:843  msg.sender */\n      caller\n        /* \"contracts/FirstToken.sol\":824:844  balances[msg.sender] */\n      0xffffffffffffffffffffffffffffffffffffffff\n      and\n      0xffffffffffffffffffffffffffffffffffffffff\n      and\n      dup2\n      mstore\n      0x20\n      add\n      swap1\n      dup2\n      mstore\n      0x20\n      add\n      0x00\n      keccak256\n      0x00\n        /* \"contracts/FirstToken.sol\":824:854  balances[msg.sender] -= amount */\n      dup3\n      dup3\n      sload\n      tag_55\n      swap2\n      swap1\n      tag_56\n      jump\t// in\n    tag_55:\n      swap3\n      pop\n      pop\n      dup2\n      swap1\n      sstore\n      pop\n        /* \"contracts/FirstToken.sol\":880:886  amount */\n      dup1\n        /* \"contracts/FirstToken.sol\":864:872  balances */\n      0x01\n        /* \"contracts/FirstToken.sol\":864:876  balances[to] */\n      0x00\n        /* \"contracts/FirstToken.sol\":873:875  to */\n      dup5\n        /* \"contracts/FirstToken.sol\":864:876  balances[to] */\n      0xffffffffffffffffffffffffffffffffffffffff\n      and\n      0xffffffffffffffffffffffffffffffffffffffff\n      and\n      dup2\n      mstore\n      0x20\n      add\n      swap1\n      dup2\n      mstore\n      0x20\n      add\n      0x00\n      keccak256\n      0x00\n        /* \"contracts/FirstToken.sol\":864:886  balances[to] += amount */\n      dup3\n      dup3\n      sload\n      tag_57\n      swap2\n      swap1\n      tag_42\n      jump\t// in\n    tag_57:\n      swap3\n      pop\n      pop\n      dup2\n      swap1\n      sstore\n      pop\n        /* \"contracts/FirstToken.sol\":673:893  function transfer(address to, uint256 amount) public whenNotPaused {... */\n      pop\n      pop\n      jump\t// out\n        /* \"contracts/FirstToken.sol\":510:577  function unPause() public OnlyOwner {... */\n    tag_35:\n        /* \"contracts/FirstToken.sol\":216:221  owner */\n      0x00\n      0x00\n      swap1\n      sload\n      swap1\n      0x0100\n      exp\n      swap1\n      div\n      0xffffffffffffffffffffffffffffffffffffffff\n      and\n        /* \"contracts/FirstToken.sol\":202:221  msg.sender == owner */\n      0xffffffffffffffffffffffffffffffffffffffff\n      and\n        /* \"contracts/FirstToken.sol\":202:212  msg.sender */\n      caller\n        /* \"contracts/FirstToken.sol\":202:221  msg.sender == owner */\n      0xffffffffffffffffffffffffffffffffffffffff\n      and\n      eq\n        /* \"contracts/FirstToken.sol\":194:264  require(msg.sender == owner, \"You are not the owner, You can do this\") */\n      tag_59\n      jumpi\n      mload(0x40)\n      0x08c379a000000000000000000000000000000000000000000000000000000000\n      dup2\n      mstore\n      0x04\n      add\n      tag_60\n      swap1\n      tag_39\n      jump\t// in\n    tag_60:\n      mload(0x40)\n      dup1\n      swap2\n      sub\n      swap1\n      revert\n    tag_59:\n        /* \"contracts/FirstToken.sol\":565:570  false */\n      0x00\n        /* \"contracts/FirstToken.sol\":556:562  paused */\n      0x00\n      0x14\n        /* \"contracts/FirstToken.sol\":556:570  paused = false */\n      0x0100\n      exp\n      dup2\n      sload\n      dup2\n      0xff\n      mul\n      not\n      and\n      swap1\n      dup4\n      iszero\n      iszero\n      mul\n      or\n      swap1\n      sstore\n      pop\n        /* \"contracts/FirstToken.sol\":510:577  function unPause() public OnlyOwner {... */\n      jump\t// out\n        /* \"#utility.yul\":88:205   */\n    tag_63:\n        /* \"#utility.yul\":197:198   */\n      0x00\n        /* \"#utility.yul\":194:195   */\n      0x00\n        /* \"#utility.yul\":187:199   */\n      revert\n        /* \"#utility.yul\":334:460   */\n    tag_65:\n        /* \"#utility.yul\":371:378   */\n      0x00\n        /* \"#utility.yul\":411:453   */\n      0xffffffffffffffffffffffffffffffffffffffff\n        /* \"#utility.yul\":404:409   */\n      dup3\n        /* \"#utility.yul\":400:454   */\n      and\n        /* \"#utility.yul\":389:454   */\n      swap1\n      pop\n        /* \"#utility.yul\":334:460   */\n      swap2\n      swap1\n      pop\n      jump\t// out\n        /* \"#utility.yul\":466:562   */\n    tag_66:\n        /* \"#utility.yul\":503:510   */\n      0x00\n        /* \"#utility.yul\":532:556   */\n      tag_90\n        /* \"#utility.yul\":550:555   */\n      dup3\n        /* \"#utility.yul\":532:556   */\n      tag_65\n      jump\t// in\n    tag_90:\n        /* \"#utility.yul\":521:556   */\n      swap1\n      pop\n        /* \"#utility.yul\":466:562   */\n      swap2\n      swap1\n      pop\n      jump\t// out\n        /* \"#utility.yul\":568:690   */\n    tag_67:\n        /* \"#utility.yul\":641:665   */\n      tag_92\n        /* \"#utility.yul\":659:664   */\n      dup2\n        /* \"#utility.yul\":641:665   */\n      tag_66\n      jump\t// in\n    tag_92:\n        /* \"#utility.yul\":634:639   */\n      dup2\n        /* \"#utility.yul\":631:666   */\n      eq\n        /* \"#utility.yul\":621:684   */\n      tag_93\n      jumpi\n        /* \"#utility.yul\":680:681   */\n      0x00\n        /* \"#utility.yul\":677:678   */\n      0x00\n        /* \"#utility.yul\":670:682   */\n      revert\n        /* \"#utility.yul\":621:684   */\n    tag_93:\n        /* \"#utility.yul\":568:690   */\n      pop\n      jump\t// out\n        /* \"#utility.yul\":696:835   */\n    tag_68:\n        /* \"#utility.yul\":742:747   */\n      0x00\n        /* \"#utility.yul\":780:786   */\n      dup2\n        /* \"#utility.yul\":767:787   */\n      calldataload\n        /* \"#utility.yul\":758:787   */\n      swap1\n      pop\n        /* \"#utility.yul\":796:829   */\n      tag_95\n        /* \"#utility.yul\":823:828   */\n      dup2\n        /* \"#utility.yul\":796:829   */\n      tag_67\n      jump\t// in\n    tag_95:\n        /* \"#utility.yul\":696:835   */\n      swap3\n      swap2\n      pop\n      pop\n      jump\t// out\n        /* \"#utility.yul\":841:1170   */\n    tag_13:\n        /* \"#utility.yul\":900:906   */\n      0x00\n        /* \"#utility.yul\":949:951   */\n      0x20\n        /* \"#utility.yul\":937:946   */\n      dup3\n        /* \"#utility.yul\":928:935   */\n      dup5\n        /* \"#utility.yul\":924:947   */\n      sub\n        /* \"#utility.yul\":920:952   */\n      slt\n        /* \"#utility.yul\":917:1036   */\n      iszero\n      tag_97\n      jumpi\n        /* \"#utility.yul\":955:1034   */\n      tag_98\n      tag_63\n      jump\t// in\n    tag_98:\n        /* \"#utility.yul\":917:1036   */\n    tag_97:\n        /* \"#utility.yul\":1075:1076   */\n      0x00\n        /* \"#utility.yul\":1100:1153   */\n      tag_99\n        /* \"#utility.yul\":1145:1152   */\n      dup5\n        /* \"#utility.yul\":1136:1142   */\n      dup3\n        /* \"#utility.yul\":1125:1134   */\n      dup6\n        /* \"#utility.yul\":1121:1143   */\n      add\n        /* \"#utility.yul\":1100:1153   */\n      tag_68\n      jump\t// in\n    tag_99:\n        /* \"#utility.yul\":1090:1153   */\n      swap2\n      pop\n        /* \"#utility.yul\":1046:1163   */\n      pop\n        /* \"#utility.yul\":841:1170   */\n      swap3\n      swap2\n      pop\n      pop\n      jump\t// out\n        /* \"#utility.yul\":1176:1253   */\n    tag_69:\n        /* \"#utility.yul\":1213:1220   */\n      0x00\n        /* \"#utility.yul\":1242:1247   */\n      dup2\n        /* \"#utility.yul\":1231:1247   */\n      swap1\n      pop\n        /* \"#utility.yul\":1176:1253   */\n      swap2\n      swap1\n      pop\n      jump\t// out\n        /* \"#utility.yul\":1259:1377   */\n    tag_70:\n        /* \"#utility.yul\":1346:1370   */\n      tag_102\n        /* \"#utility.yul\":1364:1369   */\n      dup2\n        /* \"#utility.yul\":1346:1370   */\n      tag_69\n      jump\t// in\n    tag_102:\n        /* \"#utility.yul\":1341:1344   */\n      dup3\n        /* \"#utility.yul\":1334:1371   */\n      mstore\n        /* \"#utility.yul\":1259:1377   */\n      pop\n      pop\n      jump\t// out\n        /* \"#utility.yul\":1383:1605   */\n    tag_16:\n        /* \"#utility.yul\":1476:1480   */\n      0x00\n        /* \"#utility.yul\":1514:1516   */\n      0x20\n        /* \"#utility.yul\":1503:1512   */\n      dup3\n        /* \"#utility.yul\":1499:1517   */\n      add\n        /* \"#utility.yul\":1491:1517   */\n      swap1\n      pop\n        /* \"#utility.yul\":1527:1598   */\n      tag_104\n        /* \"#utility.yul\":1595:1596   */\n      0x00\n        /* \"#utility.yul\":1584:1593   */\n      dup4\n        /* \"#utility.yul\":1580:1597   */\n      add\n        /* \"#utility.yul\":1571:1577   */\n      dup5\n        /* \"#utility.yul\":1527:1598   */\n      tag_70\n      jump\t// in\n    tag_104:\n        /* \"#utility.yul\":1383:1605   */\n      swap3\n      swap2\n      pop\n      pop\n      jump\t// out\n        /* \"#utility.yul\":1611:1733   */\n    tag_71:\n        /* \"#utility.yul\":1684:1708   */\n      tag_106\n        /* \"#utility.yul\":1702:1707   */\n      dup2\n        /* \"#utility.yul\":1684:1708   */\n      tag_69\n      jump\t// in\n    tag_106:\n        /* \"#utility.yul\":1677:1682   */\n      dup2\n        /* \"#utility.yul\":1674:1709   */\n      eq\n        /* \"#utility.yul\":1664:1727   */\n      tag_107\n      jumpi\n        /* \"#utility.yul\":1723:1724   */\n      0x00\n        /* \"#utility.yul\":1720:1721   */\n      0x00\n        /* \"#utility.yul\":1713:1725   */\n      revert\n        /* \"#utility.yul\":1664:1727   */\n    tag_107:\n        /* \"#utility.yul\":1611:1733   */\n      pop\n      jump\t// out\n        /* \"#utility.yul\":1739:1878   */\n    tag_72:\n        /* \"#utility.yul\":1785:1790   */\n      0x00\n        /* \"#utility.yul\":1823:1829   */\n      dup2\n        /* \"#utility.yul\":1810:1830   */\n      calldataload\n        /* \"#utility.yul\":1801:1830   */\n      swap1\n      pop\n        /* \"#utility.yul\":1839:1872   */\n      tag_109\n        /* \"#utility.yul\":1866:1871   */\n      dup2\n        /* \"#utility.yul\":1839:1872   */\n      tag_71\n      jump\t// in\n    tag_109:\n        /* \"#utility.yul\":1739:1878   */\n      swap3\n      swap2\n      pop\n      pop\n      jump\t// out\n        /* \"#utility.yul\":1884:2358   */\n    tag_19:\n        /* \"#utility.yul\":1952:1958   */\n      0x00\n        /* \"#utility.yul\":1960:1966   */\n      0x00\n        /* \"#utility.yul\":2009:2011   */\n      0x40\n        /* \"#utility.yul\":1997:2006   */\n      dup4\n        /* \"#utility.yul\":1988:1995   */\n      dup6\n        /* \"#utility.yul\":1984:2007   */\n      sub\n        /* \"#utility.yul\":1980:2012   */\n      slt\n        /* \"#utility.yul\":1977:2096   */\n      iszero\n      tag_111\n      jumpi\n        /* \"#utility.yul\":2015:2094   */\n      tag_112\n      tag_63\n      jump\t// in\n    tag_112:\n        /* \"#utility.yul\":1977:2096   */\n    tag_111:\n        /* \"#utility.yul\":2135:2136   */\n      0x00\n        /* \"#utility.yul\":2160:2213   */\n      tag_113\n        /* \"#utility.yul\":2205:2212   */\n      dup6\n        /* \"#utility.yul\":2196:2202   */\n      dup3\n        /* \"#utility.yul\":2185:2194   */\n      dup7\n        /* \"#utility.yul\":2181:2203   */\n      add\n        /* \"#utility.yul\":2160:2213   */\n      tag_68\n      jump\t// in\n    tag_113:\n        /* \"#utility.yul\":2150:2213   */\n      swap3\n      pop\n        /* \"#utility.yul\":2106:2223   */\n      pop\n        /* \"#utility.yul\":2262:2264   */\n      0x20\n        /* \"#utility.yul\":2288:2341   */\n      tag_114\n        /* \"#utility.yul\":2333:2340   */\n      dup6\n        /* \"#utility.yul\":2324:2330   */\n      dup3\n        /* \"#utility.yul\":2313:2322   */\n      dup7\n        /* \"#utility.yul\":2309:2331   */\n      add\n        /* \"#utility.yul\":2288:2341   */\n      tag_72\n      jump\t// in\n    tag_114:\n        /* \"#utility.yul\":2278:2341   */\n      swap2\n      pop\n        /* \"#utility.yul\":2233:2351   */\n      pop\n        /* \"#utility.yul\":1884:2358   */\n      swap3\n      pop\n      swap3\n      swap1\n      pop\n      jump\t// out\n        /* \"#utility.yul\":2364:2454   */\n    tag_73:\n        /* \"#utility.yul\":2398:2405   */\n      0x00\n        /* \"#utility.yul\":2441:2446   */\n      dup2\n        /* \"#utility.yul\":2434:2447   */\n      iszero\n        /* \"#utility.yul\":2427:2448   */\n      iszero\n        /* \"#utility.yul\":2416:2448   */\n      swap1\n      pop\n        /* \"#utility.yul\":2364:2454   */\n      swap2\n      swap1\n      pop\n      jump\t// out\n        /* \"#utility.yul\":2460:2569   */\n    tag_74:\n        /* \"#utility.yul\":2541:2562   */\n      tag_117\n        /* \"#utility.yul\":2556:2561   */\n      dup2\n        /* \"#utility.yul\":2541:2562   */\n      tag_73\n      jump\t// in\n    tag_117:\n        /* \"#utility.yul\":2536:2539   */\n      dup3\n        /* \"#utility.yul\":2529:2563   */\n      mstore\n        /* \"#utility.yul\":2460:2569   */\n      pop\n      pop\n      jump\t// out\n        /* \"#utility.yul\":2575:2785   */\n    tag_24:\n        /* \"#utility.yul\":2662:2666   */\n      0x00\n        /* \"#utility.yul\":2700:2702   */\n      0x20\n        /* \"#utility.yul\":2689:2698   */\n      dup3\n        /* \"#utility.yul\":2685:2703   */\n      add\n        /* \"#utility.yul\":2677:2703   */\n      swap1\n      pop\n        /* \"#utility.yul\":2713:2778   */\n      tag_119\n        /* \"#utility.yul\":2775:2776   */\n      0x00\n        /* \"#utility.yul\":2764:2773   */\n      dup4\n        /* \"#utility.yul\":2760:2777   */\n      add\n        /* \"#utility.yul\":2751:2757   */\n      dup5\n        /* \"#utility.yul\":2713:2778   */\n      tag_74\n      jump\t// in\n    tag_119:\n        /* \"#utility.yul\":2575:2785   */\n      swap3\n      swap2\n      pop\n      pop\n      jump\t// out\n        /* \"#utility.yul\":2791:2909   */\n    tag_75:\n        /* \"#utility.yul\":2878:2902   */\n      tag_121\n        /* \"#utility.yul\":2896:2901   */\n      dup2\n        /* \"#utility.yul\":2878:2902   */\n      tag_66\n      jump\t// in\n    tag_121:\n        /* \"#utility.yul\":2873:2876   */\n      dup3\n        /* \"#utility.yul\":2866:2903   */\n      mstore\n        /* \"#utility.yul\":2791:2909   */\n      pop\n      pop\n      jump\t// out\n        /* \"#utility.yul\":2915:3137   */\n    tag_30:\n        /* \"#utility.yul\":3008:3012   */\n      0x00\n        /* \"#utility.yul\":3046:3048   */\n      0x20\n        /* \"#utility.yul\":3035:3044   */\n      dup3\n        /* \"#utility.yul\":3031:3049   */\n      add\n        /* \"#utility.yul\":3023:3049   */\n      swap1\n      pop\n        /* \"#utility.yul\":3059:3130   */\n      tag_123\n        /* \"#utility.yul\":3127:3128   */\n      0x00\n        /* \"#utility.yul\":3116:3125   */\n      dup4\n        /* \"#utility.yul\":3112:3129   */\n      add\n        /* \"#utility.yul\":3103:3109   */\n      dup5\n        /* \"#utility.yul\":3059:3130   */\n      tag_75\n      jump\t// in\n    tag_123:\n        /* \"#utility.yul\":2915:3137   */\n      swap3\n      swap2\n      pop\n      pop\n      jump\t// out\n        /* \"#utility.yul\":3143:3312   */\n    tag_76:\n        /* \"#utility.yul\":3227:3238   */\n      0x00\n        /* \"#utility.yul\":3261:3267   */\n      dup3\n        /* \"#utility.yul\":3256:3259   */\n      dup3\n        /* \"#utility.yul\":3249:3268   */\n      mstore\n        /* \"#utility.yul\":3301:3305   */\n      0x20\n        /* \"#utility.yul\":3296:3299   */\n      dup3\n        /* \"#utility.yul\":3292:3306   */\n      add\n        /* \"#utility.yul\":3277:3306   */\n      swap1\n      pop\n        /* \"#utility.yul\":3143:3312   */\n      swap3\n      swap2\n      pop\n      pop\n      jump\t// out\n        /* \"#utility.yul\":3318:3543   */\n    tag_77:\n        /* \"#utility.yul\":3458:3492   */\n      0x596f7520617265206e6f7420746865206f776e65722c20596f752063616e2064\n        /* \"#utility.yul\":3454:3455   */\n      0x00\n        /* \"#utility.yul\":3446:3452   */\n      dup3\n        /* \"#utility.yul\":3442:3456   */\n      add\n        /* \"#utility.yul\":3435:3493   */\n      mstore\n        /* \"#utility.yul\":3527:3535   */\n      0x6f20746869730000000000000000000000000000000000000000000000000000\n        /* \"#utility.yul\":3522:3524   */\n      0x20\n        /* \"#utility.yul\":3514:3520   */\n      dup3\n        /* \"#utility.yul\":3510:3525   */\n      add\n        /* \"#utility.yul\":3503:3536   */\n      mstore\n        /* \"#utility.yul\":3318:3543   */\n      pop\n      jump\t// out\n        /* \"#utility.yul\":3549:3915   */\n    tag_78:\n        /* \"#utility.yul\":3691:3694   */\n      0x00\n        /* \"#utility.yul\":3712:3779   */\n      tag_127\n        /* \"#utility.yul\":3776:3778   */\n      0x26\n        /* \"#utility.yul\":3771:3774   */\n      dup4\n        /* \"#utility.yul\":3712:3779   */\n      tag_76\n      jump\t// in\n    tag_127:\n        /* \"#utility.yul\":3705:3779   */\n      swap2\n      pop\n        /* \"#utility.yul\":3788:3881   */\n      tag_128\n        /* \"#utility.yul\":3877:3880   */\n      dup3\n        /* \"#utility.yul\":3788:3881   */\n      tag_77\n      jump\t// in\n    tag_128:\n        /* \"#utility.yul\":3906:3908   */\n      0x40\n        /* \"#utility.yul\":3901:3904   */\n      dup3\n        /* \"#utility.yul\":3897:3909   */\n      add\n        /* \"#utility.yul\":3890:3909   */\n      swap1\n      pop\n        /* \"#utility.yul\":3549:3915   */\n      swap2\n      swap1\n      pop\n      jump\t// out\n        /* \"#utility.yul\":3921:4340   */\n    tag_39:\n        /* \"#utility.yul\":4087:4091   */\n      0x00\n        /* \"#utility.yul\":4125:4127   */\n      0x20\n        /* \"#utility.yul\":4114:4123   */\n      dup3\n        /* \"#utility.yul\":4110:4128   */\n      add\n        /* \"#utility.yul\":4102:4128   */\n      swap1\n      pop\n        /* \"#utility.yul\":4174:4183   */\n      dup2\n        /* \"#utility.yul\":4168:4172   */\n      dup2\n        /* \"#utility.yul\":4164:4184   */\n      sub\n        /* \"#utility.yul\":4160:4161   */\n      0x00\n        /* \"#utility.yul\":4149:4158   */\n      dup4\n        /* \"#utility.yul\":4145:4162   */\n      add\n        /* \"#utility.yul\":4138:4185   */\n      mstore\n        /* \"#utility.yul\":4202:4333   */\n      tag_130\n        /* \"#utility.yul\":4328:4332   */\n      dup2\n        /* \"#utility.yul\":4202:4333   */\n      tag_78\n      jump\t// in\n    tag_130:\n        /* \"#utility.yul\":4194:4333   */\n      swap1\n      pop\n        /* \"#utility.yul\":3921:4340   */\n      swap2\n      swap1\n      pop\n      jump\t// out\n        /* \"#utility.yul\":4346:4526   */\n    tag_79:\n        /* \"#utility.yul\":4394:4471   */\n      0x4e487b7100000000000000000000000000000000000000000000000000000000\n        /* \"#utility.yul\":4391:4392   */\n      0x00\n        /* \"#utility.yul\":4384:4472   */\n      mstore\n        /* \"#utility.yul\":4491:4495   */\n      0x11\n        /* \"#utility.yul\":4488:4489   */\n      0x04\n        /* \"#utility.yul\":4481:4496   */\n      mstore\n        /* \"#utility.yul\":4515:4519   */\n      0x24\n        /* \"#utility.yul\":4512:4513   */\n      0x00\n        /* \"#utility.yul\":4505:4520   */\n      revert\n        /* \"#utility.yul\":4532:4723   */\n    tag_42:\n        /* \"#utility.yul\":4572:4575   */\n      0x00\n        /* \"#utility.yul\":4591:4611   */\n      tag_133\n        /* \"#utility.yul\":4609:4610   */\n      dup3\n        /* \"#utility.yul\":4591:4611   */\n      tag_69\n      jump\t// in\n    tag_133:\n        /* \"#utility.yul\":4586:4611   */\n      swap2\n      pop\n        /* \"#utility.yul\":4625:4645   */\n      tag_134\n        /* \"#utility.yul\":4643:4644   */\n      dup4\n        /* \"#utility.yul\":4625:4645   */\n      tag_69\n      jump\t// in\n    tag_134:\n        /* \"#utility.yul\":4620:4645   */\n      swap3\n      pop\n        /* \"#utility.yul\":4668:4669   */\n      dup3\n        /* \"#utility.yul\":4665:4666   */\n      dup3\n        /* \"#utility.yul\":4661:4670   */\n      add\n        /* \"#utility.yul\":4654:4670   */\n      swap1\n      pop\n        /* \"#utility.yul\":4689:4692   */\n      dup1\n        /* \"#utility.yul\":4686:4687   */\n      dup3\n        /* \"#utility.yul\":4683:4693   */\n      gt\n        /* \"#utility.yul\":4680:4716   */\n      iszero\n      tag_135\n      jumpi\n        /* \"#utility.yul\":4696:4714   */\n      tag_136\n      tag_79\n      jump\t// in\n    tag_136:\n        /* \"#utility.yul\":4680:4716   */\n    tag_135:\n        /* \"#utility.yul\":4532:4723   */\n      swap3\n      swap2\n      pop\n      pop\n      jump\t// out\n        /* \"#utility.yul\":4729:4894   */\n    tag_80:\n        /* \"#utility.yul\":4869:4886   */\n      0x546f6b656e206973207061757365640000000000000000000000000000000000\n        /* \"#utility.yul\":4865:4866   */\n      0x00\n        /* \"#utility.yul\":4857:4863   */\n      dup3\n        /* \"#utility.yul\":4853:4867   */\n      add\n        /* \"#utility.yul\":4846:4887   */\n      mstore\n        /* \"#utility.yul\":4729:4894   */\n      pop\n      jump\t// out\n        /* \"#utility.yul\":4900:5266   */\n    tag_81:\n        /* \"#utility.yul\":5042:5045   */\n      0x00\n        /* \"#utility.yul\":5063:5130   */\n      tag_139\n        /* \"#utility.yul\":5127:5129   */\n      0x0f\n        /* \"#utility.yul\":5122:5125   */\n      dup4\n        /* \"#utility.yul\":5063:5130   */\n      tag_76\n      jump\t// in\n    tag_139:\n        /* \"#utility.yul\":5056:5130   */\n      swap2\n      pop\n        /* \"#utility.yul\":5139:5232   */\n      tag_140\n        /* \"#utility.yul\":5228:5231   */\n      dup3\n        /* \"#utility.yul\":5139:5232   */\n      tag_80\n      jump\t// in\n    tag_140:\n        /* \"#utility.yul\":5257:5259   */\n      0x20\n        /* \"#utility.yul\":5252:5255   */\n      dup3\n        /* \"#utility.yul\":5248:5260   */\n      add\n        /* \"#utility.yul\":5241:5260   */\n      swap1\n      pop\n        /* \"#utility.yul\":4900:5266   */\n      swap2\n      swap1\n      pop\n      jump\t// out\n        /* \"#utility.yul\":5272:5691   */\n    tag_50:\n        /* \"#utility.yul\":5438:5442   */\n      0x00\n        /* \"#utility.yul\":5476:5478   */\n      0x20\n        /* \"#utility.yul\":5465:5474   */\n      dup3\n        /* \"#utility.yul\":5461:5479   */\n      add\n        /* \"#utility.yul\":5453:5479   */\n      swap1\n      pop\n        /* \"#utility.yul\":5525:5534   */\n      dup2\n        /* \"#utility.yul\":5519:5523   */\n      dup2\n        /* \"#utility.yul\":5515:5535   */\n      sub\n        /* \"#utility.yul\":5511:5512   */\n      0x00\n        /* \"#utility.yul\":5500:5509   */\n      dup4\n        /* \"#utility.yul\":5496:5513   */\n      add\n        /* \"#utility.yul\":5489:5536   */\n      mstore\n        /* \"#utility.yul\":5553:5684   */\n      tag_142\n        /* \"#utility.yul\":5679:5683   */\n      dup2\n        /* \"#utility.yul\":5553:5684   */\n      tag_81\n      jump\t// in\n    tag_142:\n        /* \"#utility.yul\":5545:5684   */\n      swap1\n      pop\n        /* \"#utility.yul\":5272:5691   */\n      swap2\n      swap1\n      pop\n      jump\t// out\n        /* \"#utility.yul\":5697:5867   */\n    tag_82:\n        /* \"#utility.yul\":5837:5859   */\n      0x496e73756666696369616e742042616c616e6365000000000000000000000000\n        /* \"#utility.yul\":5833:5834   */\n      0x00\n        /* \"#utility.yul\":5825:5831   */\n      dup3\n        /* \"#utility.yul\":5821:5835   */\n      add\n        /* \"#utility.yul\":5814:5860   */\n      mstore\n        /* \"#utility.yul\":5697:5867   */\n      pop\n      jump\t// out\n        /* \"#utility.yul\":5873:6239   */\n    tag_83:\n        /* \"#utility.yul\":6015:6018   */\n      0x00\n        /* \"#utility.yul\":6036:6103   */\n      tag_145\n        /* \"#utility.yul\":6100:6102   */\n      0x14\n        /* \"#utility.yul\":6095:6098   */\n      dup4\n        /* \"#utility.yul\":6036:6103   */\n      tag_76\n      jump\t// in\n    tag_145:\n        /* \"#utility.yul\":6029:6103   */\n      swap2\n      pop\n        /* \"#utility.yul\":6112:6205   */\n      tag_146\n        /* \"#utility.yul\":6201:6204   */\n      dup3\n        /* \"#utility.yul\":6112:6205   */\n      tag_82\n      jump\t// in\n    tag_146:\n        /* \"#utility.yul\":6230:6232   */\n      0x20\n        /* \"#utility.yul\":6225:6228   */\n      dup3\n        /* \"#utility.yul\":6221:6233   */\n      add\n        /* \"#utility.yul\":6214:6233   */\n      swap1\n      pop\n        /* \"#utility.yul\":5873:6239   */\n      swap2\n      swap1\n      pop\n      jump\t// out\n        /* \"#utility.yul\":6245:6664   */\n    tag_54:\n        /* \"#utility.yul\":6411:6415   */\n      0x00\n        /* \"#utility.yul\":6449:6451   */\n      0x20\n        /* \"#utility.yul\":6438:6447   */\n      dup3\n        /* \"#utility.yul\":6434:6452   */\n      add\n        /* \"#utility.yul\":6426:6452   */\n      swap1\n      pop\n        /* \"#utility.yul\":6498:6507   */\n      dup2\n        /* \"#utility.yul\":6492:6496   */\n      dup2\n        /* \"#utility.yul\":6488:6508   */\n      sub\n        /* \"#utility.yul\":6484:6485   */\n      0x00\n        /* \"#utility.yul\":6473:6482   */\n      dup4\n        /* \"#utility.yul\":6469:6486   */\n      add\n        /* \"#utility.yul\":6462:6509   */\n      mstore\n        /* \"#utility.yul\":6526:6657   */\n      tag_148\n        /* \"#utility.yul\":6652:6656   */\n      dup2\n        /* \"#utility.yul\":6526:6657   */\n      tag_83\n      jump\t// in\n    tag_148:\n        /* \"#utility.yul\":6518:6657   */\n      swap1\n      pop\n        /* \"#utility.yul\":6245:6664   */\n      swap2\n      swap1\n      pop\n      jump\t// out\n        /* \"#utility.yul\":6670:6864   */\n    tag_56:\n        /* \"#utility.yul\":6710:6714   */\n      0x00\n        /* \"#utility.yul\":6730:6750   */\n      tag_150\n        /* \"#utility.yul\":6748:6749   */\n      dup3\n        /* \"#utility.yul\":6730:6750   */\n      tag_69\n      jump\t// in\n    tag_150:\n        /* \"#utility.yul\":6725:6750   */\n      swap2\n      pop\n        /* \"#utility.yul\":6764:6784   */\n      tag_151\n        /* \"#utility.yul\":6782:6783   */\n      dup4\n        /* \"#utility.yul\":6764:6784   */\n      tag_69\n      jump\t// in\n    tag_151:\n        /* \"#utility.yul\":6759:6784   */\n      swap3\n      pop\n        /* \"#utility.yul\":6808:6809   */\n      dup3\n        /* \"#utility.yul\":6805:6806   */\n      dup3\n        /* \"#utility.yul\":6801:6810   */\n      sub\n        /* \"#utility.yul\":6793:6810   */\n      swap1\n      pop\n        /* \"#utility.yul\":6832:6833   */\n      dup2\n        /* \"#utility.yul\":6826:6830   */\n      dup2\n        /* \"#utility.yul\":6823:6834   */\n      gt\n        /* \"#utility.yul\":6820:6857   */\n      iszero\n      tag_152\n      jumpi\n        /* \"#utility.yul\":6837:6855   */\n      tag_153\n      tag_79\n      jump\t// in\n    tag_153:\n        /* \"#utility.yul\":6820:6857   */\n    tag_152:\n        /* \"#utility.yul\":6670:6864   */\n      swap3\n      swap2\n      pop\n      pop\n      jump\t// out\n\n    auxdata: 0xa264697066735822122005425067b4892dd1202bab0ae414f240d9ca1dd3fb1a1adbd650753a36996ff164736f6c634300081d0033\n}\n",
				"bytecode": {
					"linkReferences": {},
					"object": "6080604052348015600e575f5ffd5b50335f5f6101000a81548173ffffffffffffffffffffffffffffffffffffffff021916908373ffffffffffffffffffffffffffffffffffffffff1602179055506108e78061005b5f395ff3fe608060405234801561000f575f5ffd5b506004361061007b575f3560e01c80638456cb59116100595780638456cb59146100e95780638da5cb5b146100f3578063a9059cbb14610111578063f7b188a51461012d5761007b565b806327e235e31461007f57806340c10f19146100af5780635c975abb146100cb575b5f5ffd5b61009960048036038101906100949190610591565b610137565b6040516100a691906105d4565b60405180910390f35b6100c960048036038101906100c49190610617565b61014c565b005b6100d3610231565b6040516100e0919061066f565b60405180910390f35b6100f1610243565b005b6100fb6102ed565b6040516101089190610697565b60405180910390f35b61012b60048036038101906101269190610617565b610311565b005b61013561048a565b005b6001602052805f5260405f205f915090505481565b5f5f9054906101000a900473ffffffffffffffffffffffffffffffffffffffff1673ffffffffffffffffffffffffffffffffffffffff163373ffffffffffffffffffffffffffffffffffffffff16146101da576040517f08c379a00000000000000000000000000000000000000000000000000000000081526004016101d190610730565b60405180910390fd5b8060015f8473ffffffffffffffffffffffffffffffffffffffff1673ffffffffffffffffffffffffffffffffffffffff1681526020019081526020015f205f828254610226919061077b565b925050819055505050565b5f60149054906101000a900460ff1681565b5f5f9054906101000a900473ffffffffffffffffffffffffffffffffffffffff1673ffffffffffffffffffffffffffffffffffffffff163373ffffffffffffffffffffffffffffffffffffffff16146102d1576040517f08c379a00000000000000000000000000000000000000000000000000000000081526004016102c890610730565b60405180910390fd5b60015f60146101000a81548160ff021916908315150217905550565b5f5f9054906101000a900473ffffffffffffffffffffffffffffffffffffffff1681565b5f60149054906101000a900460ff1615610360576040517f08c379a0000000000000000000000000000000000000000000000000000000008152600401610357906107f8565b60405180910390fd5b8060015f3373ffffffffffffffffffffffffffffffffffffffff1673ffffffffffffffffffffffffffffffffffffffff1681526020019081526020015f205410156103e0576040517f08c379a00000000000000000000000000000000000000000000000000000000081526004016103d790610860565b60405180910390fd5b8060015f3373ffffffffffffffffffffffffffffffffffffffff1673ffffffffffffffffffffffffffffffffffffffff1681526020019081526020015f205f82825461042c919061087e565b925050819055508060015f8473ffffffffffffffffffffffffffffffffffffffff1673ffffffffffffffffffffffffffffffffffffffff1681526020019081526020015f205f82825461047f919061077b565b925050819055505050565b5f5f9054906101000a900473ffffffffffffffffffffffffffffffffffffffff1673ffffffffffffffffffffffffffffffffffffffff163373ffffffffffffffffffffffffffffffffffffffff1614610518576040517f08c379a000000000000000000000000000000000000000000000000000000000815260040161050f90610730565b60405180910390fd5b5f5f60146101000a81548160ff021916908315150217905550565b5f5ffd5b5f73ffffffffffffffffffffffffffffffffffffffff82169050919050565b5f61056082610537565b9050919050565b61057081610556565b811461057a575f5ffd5b50565b5f8135905061058b81610567565b92915050565b5f602082840312156105a6576105a5610533565b5b5f6105b38482850161057d565b91505092915050565b5f819050919050565b6105ce816105bc565b82525050565b5f6020820190506105e75f8301846105c5565b92915050565b6105f6816105bc565b8114610600575f5ffd5b50565b5f81359050610611816105ed565b92915050565b5f5f6040838503121561062d5761062c610533565b5b5f61063a8582860161057d565b925050602061064b85828601610603565b9150509250929050565b5f8115159050919050565b61066981610655565b82525050565b5f6020820190506106825f830184610660565b92915050565b61069181610556565b82525050565b5f6020820190506106aa5f830184610688565b92915050565b5f82825260208201905092915050565b7f596f7520617265206e6f7420746865206f776e65722c20596f752063616e20645f8201527f6f20746869730000000000000000000000000000000000000000000000000000602082015250565b5f61071a6026836106b0565b9150610725826106c0565b604082019050919050565b5f6020820190508181035f8301526107478161070e565b9050919050565b7f4e487b71000000000000000000000000000000000000000000000000000000005f52601160045260245ffd5b5f610785826105bc565b9150610790836105bc565b92508282019050808211156107a8576107a761074e565b5b92915050565b7f546f6b656e2069732070617573656400000000000000000000000000000000005f82015250565b5f6107e2600f836106b0565b91506107ed826107ae565b602082019050919050565b5f6020820190508181035f83015261080f816107d6565b9050919050565b7f496e73756666696369616e742042616c616e63650000000000000000000000005f82015250565b5f61084a6014836106b0565b915061085582610816565b602082019050919050565b5f6020820190508181035f8301526108778161083e565b9050919050565b5f610888826105bc565b9150610893836105bc565b92508282039050818111156108ab576108aa61074e565b5b9291505056fea264697066735822122005425067b4892dd1202bab0ae414f240d9ca1dd3fb1a1adbd650753a36996ff164736f6c634300081d0033",
					"opcodes": "PUSH1 0x80 PUSH1 0x40 MSTORE CALLVALUE DUP1 ISZERO PUSH1 0xE JUMPI PUSH0 PUSH0 REVERT JUMPDEST POP CALLER PUSH0 PUSH0 PUSH2 0x100 EXP DUP2 SLOAD DUP2 PUSH20 0xFFFFFFFFFFFFFFFFFFFFFFFFFFFFFFFFFFFFFFFF MUL NOT AND SWAP1 DUP4 PUSH20 0xFFFFFFFFFFFFFFFFFFFFFFFFFFFFFFFFFFFFFFFF AND MUL OR SWAP1 SSTORE POP PUSH2 0x8E7 DUP1 PUSH2 0x5B PUSH0 CODECOPY PUSH0 RETURN INVALID PUSH1 0x80 PUSH1 0x40 MSTORE CALLVALUE DUP1 ISZERO PUSH2 0xF JUMPI PUSH0 PUSH0 REVERT JUMPDEST POP PUSH1 0x4 CALLDATASIZE LT PUSH2 0x7B JUMPI PUSH0 CALLDATALOAD PUSH1 0xE0 SHR DUP1 PUSH4 0x8456CB59 GT PUSH2 0x59 JUMPI DUP1 PUSH4 0x8456CB59 EQ PUSH2 0xE9 JUMPI DUP1 PUSH4 0x8DA5CB5B EQ PUSH2 0xF3 JUMPI DUP1 PUSH4 0xA9059CBB EQ PUSH2 0x111 JUMPI DUP1 PUSH4 0xF7B188A5 EQ PUSH2 0x12D JUMPI PUSH2 0x7B JUMP JUMPDEST DUP1 PUSH4 0x27E235E3 EQ PUSH2 0x7F JUMPI DUP1 PUSH4 0x40C10F19 EQ PUSH2 0xAF JUMPI DUP1 PUSH4 0x5C975ABB EQ PUSH2 0xCB JUMPI JUMPDEST PUSH0 PUSH0 REVERT JUMPDEST PUSH2 0x99 PUSH1 0x4 DUP1 CALLDATASIZE SUB DUP2 ADD SWAP1 PUSH2 0x94 SWAP2 SWAP1 PUSH2 0x591 JUMP JUMPDEST PUSH2 0x137 JUMP JUMPDEST PUSH1 0x40 MLOAD PUSH2 0xA6 SWAP2 SWAP1 PUSH2 0x5D4 JUMP JUMPDEST PUSH1 0x40 MLOAD DUP1 SWAP2 SUB SWAP1 RETURN JUMPDEST PUSH2 0xC9 PUSH1 0x4 DUP1 CALLDATASIZE SUB DUP2 ADD SWAP1 PUSH2 0xC4 SWAP2 SWAP1 PUSH2 0x617 JUMP JUMPDEST PUSH2 0x14C JUMP JUMPDEST STOP JUMPDEST PUSH2 0xD3 PUSH2 0x231 JUMP JUMPDEST PUSH1 0x40 MLOAD PUSH2 0xE0 SWAP2 SWAP1 PUSH2 0x66F JUMP JUMPDEST PUSH1 0x40 MLOAD DUP1 SWAP2 SUB SWAP1 RETURN JUMPDEST PUSH2 0xF1 PUSH2 0x243 JUMP JUMPDEST STOP JUMPDEST PUSH2 0xFB PUSH2 0x2ED JUMP JUMPDEST PUSH1 0x40 MLOAD PUSH2 0x108 SWAP2 SWAP1 PUSH2 0x697 JUMP JUMPDEST PUSH1 0x40 MLOAD DUP1 SWAP2 SUB SWAP1 RETURN JUMPDEST PUSH2 0x12B PUSH1 0x4 DUP1 CALLDATASIZE SUB DUP2 ADD SWAP1 PUSH2 0x126 SWAP2 SWAP1 PUSH2 0x617 JUMP JUMPDEST PUSH2 0x311 JUMP JUMPDEST STOP JUMPDEST PUSH2 0x135 PUSH2 0x48A JUMP JUMPDEST STOP JUMPDEST PUSH1 0x1 PUSH1 0x20 MSTORE DUP1 PUSH0 MSTORE PUSH1 0x40 PUSH0 KECCAK256 PUSH0 SWAP2 POP SWAP1 POP SLOAD DUP2 JUMP JUMPDEST PUSH0 PUSH0 SWAP1 SLOAD SWAP1 PUSH2 0x100 EXP SWAP1 DIV PUSH20 0xFFFFFFFFFFFFFFFFFFFFFFFFFFFFFFFFFFFFFFFF AND PUSH20 0xFFFFFFFFFFFFFFFFFFFFFFFFFFFFFFFFFFFFFFFF AND CALLER PUSH20 0xFFFFFFFFFFFFFFFFFFFFFFFFFFFFFFFFFFFFFFFF AND EQ PUSH2 0x1DA JUMPI PUSH1 0x40 MLOAD PUSH32 0x8C379A000000000000000000000000000000000000000000000000000000000 DUP2 MSTORE PUSH1 0x4 ADD PUSH2 0x1D1 SWAP1 PUSH2 0x730 JUMP JUMPDEST PUSH1 0x40 MLOAD DUP1 SWAP2 SUB SWAP1 REVERT JUMPDEST DUP1 PUSH1 0x1 PUSH0 DUP5 PUSH20 0xFFFFFFFFFFFFFFFFFFFFFFFFFFFFFFFFFFFFFFFF AND PUSH20 0xFFFFFFFFFFFFFFFFFFFFFFFFFFFFFFFFFFFFFFFF AND DUP2 MSTORE PUSH1 0x20 ADD SWAP1 DUP2 MSTORE PUSH1 0x20 ADD PUSH0 KECCAK256 PUSH0 DUP3 DUP3 SLOAD PUSH2 0x226 SWAP2 SWAP1 PUSH2 0x77B JUMP JUMPDEST SWAP3 POP POP DUP2 SWAP1 SSTORE POP POP POP JUMP JUMPDEST PUSH0 PUSH1 0x14 SWAP1 SLOAD SWAP1 PUSH2 0x100 EXP SWAP1 DIV PUSH1 0xFF AND DUP2 JUMP JUMPDEST PUSH0 PUSH0 SWAP1 SLOAD SWAP1 PUSH2 0x100 EXP SWAP1 DIV PUSH20 0xFFFFFFFFFFFFFFFFFFFFFFFFFFFFFFFFFFFFFFFF AND PUSH20 0xFFFFFFFFFFFFFFFFFFFFFFFFFFFFFFFFFFFFFFFF AND CALLER PUSH20 0xFFFFFFFFFFFFFFFFFFFFFFFFFFFFFFFFFFFFFFFF AND EQ PUSH2 0x2D1 JUMPI PUSH1 0x40 MLOAD PUSH32 0x8C379A000000000000000000000000000000000000000000000000000000000 DUP2 MSTORE PUSH1 0x4 ADD PUSH2 0x2C8 SWAP1 PUSH2 0x730 JUMP JUMPDEST PUSH1 0x40 MLOAD DUP1 SWAP2 SUB SWAP1 REVERT JUMPDEST PUSH1 0x1 PUSH0 PUSH1 0x14 PUSH2 0x100 EXP DUP2 SLOAD DUP2 PUSH1 0xFF MUL NOT AND SWAP1 DUP4 ISZERO ISZERO MUL OR SWAP1 SSTORE POP JUMP JUMPDEST PUSH0 PUSH0 SWAP1 SLOAD SWAP1 PUSH2 0x100 EXP SWAP1 DIV PUSH20 0xFFFFFFFFFFFFFFFFFFFFFFFFFFFFFFFFFFFFFFFF AND DUP2 JUMP JUMPDEST PUSH0 PUSH1 0x14 SWAP1 SLOAD SWAP1 PUSH2 0x100 EXP SWAP1 DIV PUSH1 0xFF AND ISZERO PUSH2 0x360 JUMPI PUSH1 0x40 MLOAD PUSH32 0x8C379A000000000000000000000000000000000000000000000000000000000 DUP2 MSTORE PUSH1 0x4 ADD PUSH2 0x357 SWAP1 PUSH2 0x7F8 JUMP JUMPDEST PUSH1 0x40 MLOAD DUP1 SWAP2 SUB SWAP1 REVERT JUMPDEST DUP1 PUSH1 0x1 PUSH0 CALLER PUSH20 0xFFFFFFFFFFFFFFFFFFFFFFFFFFFFFFFFFFFFFFFF AND PUSH20 0xFFFFFFFFFFFFFFFFFFFFFFFFFFFFFFFFFFFFFFFF AND DUP2 MSTORE PUSH1 0x20 ADD SWAP1 DUP2 MSTORE PUSH1 0x20 ADD PUSH0 KECCAK256 SLOAD LT ISZERO PUSH2 0x3E0 JUMPI PUSH1 0x40 MLOAD PUSH32 0x8C379A000000000000000000000000000000000000000000000000000000000 DUP2 MSTORE PUSH1 0x4 ADD PUSH2 0x3D7 SWAP1 PUSH2 0x860 JUMP JUMPDEST PUSH1 0x40 MLOAD DUP1 SWAP2 SUB SWAP1 REVERT JUMPDEST DUP1 PUSH1 0x1 PUSH0 CALLER PUSH20 0xFFFFFFFFFFFFFFFFFFFFFFFFFFFFFFFFFFFFFFFF AND PUSH20 0xFFFFFFFFFFFFFFFFFFFFFFFFFFFFFFFFFFFFFFFF AND DUP2 MSTORE PUSH1 0x20 ADD SWAP1 DUP2 MSTORE PUSH1 0x20 ADD PUSH0 KECCAK256 PUSH0 DUP3 DUP3 SLOAD PUSH2 0x42C SWAP2 SWAP1 PUSH2 0x87E JUMP JUMPDEST SWAP3 POP POP DUP2 SWAP1 SSTORE POP DUP1 PUSH1 0x1 PUSH0 DUP5 PUSH20 0xFFFFFFFFFFFFFFFFFFFFFFFFFFFFFFFFFFFFFFFF AND PUSH20 0xFFFFFFFFFFFFFFFFFFFFFFFFFFFFFFFFFFFFFFFF AND DUP2 MSTORE PUSH1 0x20 ADD SWAP1 DUP2 MSTORE PUSH1 0x20 ADD PUSH0 KECCAK256 PUSH0 DUP3 DUP3 SLOAD PUSH2 0x47F SWAP2 SWAP1 PUSH2 0x77B JUMP JUMPDEST SWAP3 POP POP DUP2 SWAP1 SSTORE POP POP POP JUMP JUMPDEST PUSH0 PUSH0 SWAP1 SLOAD SWAP1 PUSH2 0x100 EXP SWAP1 DIV PUSH20 0xFFFFFFFFFFFFFFFFFFFFFFFFFFFFFFFFFFFFFFFF AND PUSH20 0xFFFFFFFFFFFFFFFFFFFFFFFFFFFFFFFFFFFFFFFF AND CALLER PUSH20 0xFFFFFFFFFFFFFFFFFFFFFFFFFFFFFFFFFFFFFFFF AND EQ PUSH2 0x518 JUMPI PUSH1 0x40 MLOAD PUSH32 0x8C379A000000000000000000000000000000000000000000000000000000000 DUP2 MSTORE PUSH1 0x4 ADD PUSH2 0x50F SWAP1 PUSH2 0x730 JUMP JUMPDEST PUSH1 0x40 MLOAD DUP1 SWAP2 SUB SWAP1 REVERT JUMPDEST PUSH0 PUSH0 PUSH1 0x14 PUSH2 0x100 EXP DUP2 SLOAD DUP2 PUSH1 0xFF MUL NOT AND SWAP1 DUP4 ISZERO ISZERO MUL OR SWAP1 SSTORE POP JUMP JUMPDEST PUSH0 PUSH0 REVERT JUMPDEST PUSH0 PUSH20 0xFFFFFFFFFFFFFFFFFFFFFFFFFFFFFFFFFFFFFFFF DUP3 AND SWAP1 POP SWAP2 SWAP1 POP JUMP JUMPDEST PUSH0 PUSH2 0x560 DUP3 PUSH2 0x537 JUMP JUMPDEST SWAP1 POP SWAP2 SWAP1 POP JUMP JUMPDEST PUSH2 0x570 DUP2 PUSH2 0x556 JUMP JUMPDEST DUP2 EQ PUSH2 0x57A JUMPI PUSH0 PUSH0 REVERT JUMPDEST POP JUMP JUMPDEST PUSH0 DUP2 CALLDATALOAD SWAP1 POP PUSH2 0x58B DUP2 PUSH2 0x567 JUMP JUMPDEST SWAP3 SWAP2 POP POP JUMP JUMPDEST PUSH0 PUSH1 0x20 DUP3 DUP5 SUB SLT ISZERO PUSH2 0x5A6 JUMPI PUSH2 0x5A5 PUSH2 0x533 JUMP JUMPDEST JUMPDEST PUSH0 PUSH2 0x5B3 DUP5 DUP3 DUP6 ADD PUSH2 0x57D JUMP JUMPDEST SWAP2 POP POP SWAP3 SWAP2 POP POP JUMP JUMPDEST PUSH0 DUP2 SWAP1 POP SWAP2 SWAP1 POP JUMP JUMPDEST PUSH2 0x5CE DUP2 PUSH2 0x5BC JUMP JUMPDEST DUP3 MSTORE POP POP JUMP JUMPDEST PUSH0 PUSH1 0x20 DUP3 ADD SWAP1 POP PUSH2 0x5E7 PUSH0 DUP4 ADD DUP5 PUSH2 0x5C5 JUMP JUMPDEST SWAP3 SWAP2 POP POP JUMP JUMPDEST PUSH2 0x5F6 DUP2 PUSH2 0x5BC JUMP JUMPDEST DUP2 EQ PUSH2 0x600 JUMPI PUSH0 PUSH0 REVERT JUMPDEST POP JUMP JUMPDEST PUSH0 DUP2 CALLDATALOAD SWAP1 POP PUSH2 0x611 DUP2 PUSH2 0x5ED JUMP JUMPDEST SWAP3 SWAP2 POP POP JUMP JUMPDEST PUSH0 PUSH0 PUSH1 0x40 DUP4 DUP6 SUB SLT ISZERO PUSH2 0x62D JUMPI PUSH2 0x62C PUSH2 0x533 JUMP JUMPDEST JUMPDEST PUSH0 PUSH2 0x63A DUP6 DUP3 DUP7 ADD PUSH2 0x57D JUMP JUMPDEST SWAP3 POP POP PUSH1 0x20 PUSH2 0x64B DUP6 DUP3 DUP7 ADD PUSH2 0x603 JUMP JUMPDEST SWAP2 POP POP SWAP3 POP SWAP3 SWAP1 POP JUMP JUMPDEST PUSH0 DUP2 ISZERO ISZERO SWAP1 POP SWAP2 SWAP1 POP JUMP JUMPDEST PUSH2 0x669 DUP2 PUSH2 0x655 JUMP JUMPDEST DUP3 MSTORE POP POP JUMP JUMPDEST PUSH0 PUSH1 0x20 DUP3 ADD SWAP1 POP PUSH2 0x682 PUSH0 DUP4 ADD DUP5 PUSH2 0x660 JUMP JUMPDEST SWAP3 SWAP2 POP POP JUMP JUMPDEST PUSH2 0x691 DUP2 PUSH2 0x556 JUMP JUMPDEST DUP3 MSTORE POP POP JUMP JUMPDEST PUSH0 PUSH1 0x20 DUP3 ADD SWAP1 POP PUSH2 0x6AA PUSH0 DUP4 ADD DUP5 PUSH2 0x688 JUMP JUMPDEST SWAP3 SWAP2 POP POP JUMP JUMPDEST PUSH0 DUP3 DUP3 MSTORE PUSH1 0x20 DUP3 ADD SWAP1 POP SWAP3 SWAP2 POP POP JUMP JUMPDEST PUSH32 0x596F7520617265206E6F7420746865206F776E65722C20596F752063616E2064 PUSH0 DUP3 ADD MSTORE PUSH32 0x6F20746869730000000000000000000000000000000000000000000000000000 PUSH1 0x20 DUP3 ADD MSTORE POP JUMP JUMPDEST PUSH0 PUSH2 0x71A PUSH1 0x26 DUP4 PUSH2 0x6B0 JUMP JUMPDEST SWAP2 POP PUSH2 0x725 DUP3 PUSH2 0x6C0 JUMP JUMPDEST PUSH1 0x40 DUP3 ADD SWAP1 POP SWAP2 SWAP1 POP JUMP JUMPDEST PUSH0 PUSH1 0x20 DUP3 ADD SWAP1 POP DUP2 DUP2 SUB PUSH0 DUP4 ADD MSTORE PUSH2 0x747 DUP2 PUSH2 0x70E JUMP JUMPDEST SWAP1 POP SWAP2 SWAP1 POP JUMP JUMPDEST PUSH32 0x4E487B7100000000000000000000000000000000000000000000000000000000 PUSH0 MSTORE PUSH1 0x11 PUSH1 0x4 MSTORE PUSH1 0x24 PUSH0 REVERT JUMPDEST PUSH0 PUSH2 0x785 DUP3 PUSH2 0x5BC JUMP JUMPDEST SWAP2 POP PUSH2 0x790 DUP4 PUSH2 0x5BC JUMP JUMPDEST SWAP3 POP DUP3 DUP3 ADD SWAP1 POP DUP1 DUP3 GT ISZERO PUSH2 0x7A8 JUMPI PUSH2 0x7A7 PUSH2 0x74E JUMP JUMPDEST JUMPDEST SWAP3 SWAP2 POP POP JUMP JUMPDEST PUSH32 0x546F6B656E206973207061757365640000000000000000000000000000000000 PUSH0 DUP3 ADD MSTORE POP JUMP JUMPDEST PUSH0 PUSH2 0x7E2 PUSH1 0xF DUP4 PUSH2 0x6B0 JUMP JUMPDEST SWAP2 POP PUSH2 0x7ED DUP3 PUSH2 0x7AE JUMP JUMPDEST PUSH1 0x20 DUP3 ADD SWAP1 POP SWAP2 SWAP1 POP JUMP JUMPDEST PUSH0 PUSH1 0x20 DUP3 ADD SWAP1 POP DUP2 DUP2 SUB PUSH0 DUP4 ADD MSTORE PUSH2 0x80F DUP2 PUSH2 0x7D6 JUMP JUMPDEST SWAP1 POP SWAP2 SWAP1 POP JUMP JUMPDEST PUSH32 0x496E73756666696369616E742042616C616E6365000000000000000000000000 PUSH0 DUP3 ADD MSTORE POP JUMP JUMPDEST PUSH0 PUSH2 0x84A PUSH1 0x14 DUP4 PUSH2 0x6B0 JUMP JUMPDEST SWAP2 POP PUSH2 0x855 DUP3 PUSH2 0x816 JUMP JUMPDEST PUSH1 0x20 DUP3 ADD SWAP1 POP SWAP2 SWAP1 POP JUMP JUMPDEST PUSH0 PUSH1 0x20 DUP3 ADD SWAP1 POP DUP2 DUP2 SUB PUSH0 DUP4 ADD MSTORE PUSH2 0x877 DUP2 PUSH2 0x83E JUMP JUMPDEST SWAP1 POP SWAP2 SWAP1 POP JUMP JUMPDEST PUSH0 PUSH2 0x888 DUP3 PUSH2 0x5BC JUMP JUMPDEST SWAP2 POP PUSH2 0x893 DUP4 PUSH2 0x5BC JUMP JUMPDEST SWAP3 POP DUP3 DUP3 SUB SWAP1 POP DUP2 DUP2 GT ISZERO PUSH2 0x8AB JUMPI PUSH2 0x8AA PUSH2 0x74E JUMP JUMPDEST JUMPDEST SWAP3 SWAP2 POP POP JUMP INVALID LOG2 PUSH5 0x6970667358 0x22 SLT KECCAK256 SDIV TIMESTAMP POP PUSH8 0xB4892DD1202BAB0A RETF EQ CALLCODE BLOCKHASH 0xD9 0xCA SAR 0xD3 EXTSTATICCALL BYTE BYTE 0xDB 0xD6 POP PUSH22 0x3A36996FF164736F6C634300081D0033000000000000 "
				},
				"gasEstimates": {
					"creation": {
						"codeDepositCost": "455800",
						"executionCost": "24755",
						"totalCost": "480555"
					},
					"external": {
						"balances(address)": "2803",
						"mint(address,uint256)": "infinite",
						"owner()": "2529",
						"pause()": "26627",
						"paused()": "2561",
						"transfer(address,uint256)": "infinite",
						"unPause()": "26692"
					}
				},
				"methodIdentifiers": {
					"balances(address)": "27e235e3",
					"mint(address,uint256)": "40c10f19",
					"owner()": "8da5cb5b",
					"pause()": "8456cb59",
					"paused()": "5c975abb",
					"transfer(address,uint256)": "a9059cbb",
					"unPause()": "f7b188a5"
				}
			},
			"storageLayout": {
				"storage": [
					{
						"astId": 3,
						"contract": "contracts/FirstToken.sol:Token",
						"label": "owner",
						"offset": 0,
						"slot": "0",
						"type": "t_address"
					},
					{
						"astId": 29,
						"contract": "contracts/FirstToken.sol:Token",
						"label": "paused",
						"offset": 20,
						"slot": "0",
						"type": "t_bool"
					},
					{
						"astId": 68,
						"contract": "contracts/FirstToken.sol:Token",
						"label": "balances",
						"offset": 0,
						"slot": "1",
						"type": "t_mapping(t_address,t_uint256)"
					}
				],
				"types": {
					"t_address": {
						"encoding": "inplace",
						"label": "address",
						"numberOfBytes": "20"
					},
					"t_bool": {
						"encoding": "inplace",
						"label": "bool",
						"numberOfBytes": "1"
					},
					"t_mapping(t_address,t_uint256)": {
						"encoding": "mapping",
						"key": "t_address",
						"label": "mapping(address => uint256)",
						"numberOfBytes": "32",
						"value": "t_uint256"
					},
					"t_uint256": {
						"encoding": "inplace",
						"label": "uint256",
						"numberOfBytes": "32"
					}
				}
			},
			"userdoc": {
				"kind": "user",
				"methods": {},
				"version": 1
			}
		}
	}
}