{
	"contracts/TVInterface.sol": {
		"GamingTV": {
			"abi": [
				{
					"inputs": [],
					"stateMutability": "nonpayable",
					"type": "constructor"
				},
				{
					"inputs": [],
					"name": "TvOff",
					"outputs": [],
					"stateMutability": "nonpayable",
					"type": "function"
				},
				{
					"inputs": [],
					"name": "TvOn",
					"outputs": [],
					"stateMutability": "nonpayable",
					"type": "function"
				},
				{
					"inputs": [],
					"name": "brand",
					"outputs": [
						{
							"internalType": "string",
							"name": "",
							"type": "string"
						}
					],
					"stateMutability": "view",
					"type": "function"
				},
				{
					"inputs": [],
					"name": "decreaseVolume",
					"outputs": [],
					"stateMutability": "nonpayable",
					"type": "function"
				},
				{
					"inputs": [],
					"name": "disableGamingMode",
					"outputs": [],
					"stateMutability": "nonpayable",
					"type": "function"
				},
				{
					"inputs": [],
					"name": "enableGamingMode",
					"outputs": [],
					"stateMutability": "nonpayable",
					"type": "function"
				},
				{
					"inputs": [],
					"name": "gamingMood",
					"outputs": [
						{
							"internalType": "bool",
							"name": "",
							"type": "bool"
						}
					],
					"stateMutability": "view",
					"type": "function"
				},
				{
					"inputs": [],
					"name": "increaseVolume",
					"outputs": [],
					"stateMutability": "nonpayable",
					"type": "function"
				},
				{
					"inputs": [],
					"name": "isOn",
					"outputs": [
						{
							"internalType": "bool",
							"name": "",
							"type": "bool"
						}
					],
					"stateMutability": "view",
					"type": "function"
				},
				{
					"inputs": [],
					"name": "volume",
					"outputs": [
						{
							"internalType": "uint256",
							"name": "",
							"type": "uint256"
						}
					],
					"stateMutability": "view",
					"type": "function"
				}
			],
			"devdoc": {
				"kind": "dev",
				"methods": {},
				"version": 1
			},
			"evm": {
				"assembly": "    /* \"contracts/TVInterface.sol\":1478:1888  contract GamingTV is Tv {... */\n  mstore(0x40, 0x80)\n    /* \"contracts/TVInterface.sol\":1537:1586  constructor() {... */\n  callvalue\n  dup1\n  iszero\n  tag_1\n  jumpi\n  0x00\n  dup1\n  revert\ntag_1:\n  pop\n    /* \"contracts/TVInterface.sol\":1574:1579  false */\n  0x00\n    /* \"contracts/TVInterface.sol\":1561:1571  gamingMood */\n  0x02\n  0x01\n    /* \"contracts/TVInterface.sol\":1561:1579  gamingMood = false */\n  0x0100\n  exp\n  dup2\n  sload\n  dup2\n  0xff\n  mul\n  not\n  and\n  swap1\n  dup4\n  iszero\n  iszero\n  mul\n  or\n  swap1\n  sstore\n  pop\n    /* \"contracts/TVInterface.sol\":1478:1888  contract GamingTV is Tv {... */\n  dataSize(sub_0)\n  dup1\n  dataOffset(sub_0)\n  0x00\n  codecopy\n  0x00\n  return\nstop\n\nsub_0: assembly {\n        /* \"contracts/TVInterface.sol\":1478:1888  contract GamingTV is Tv {... */\n      mstore(0x40, 0x80)\n      callvalue\n      dup1\n      iszero\n      tag_1\n      jumpi\n      0x00\n      dup1\n      revert\n    tag_1:\n      pop\n      jumpi(tag_2, lt(calldatasize, 0x04))\n      shr(0xe0, calldataload(0x00))\n      dup1\n      0x871115da\n      gt\n      tag_13\n      jumpi\n      dup1\n      0x871115da\n      eq\n      tag_8\n      jumpi\n      dup1\n      0xc618a1e4\n      eq\n      tag_9\n      jumpi\n      dup1\n      0xce5087f7\n      eq\n      tag_10\n      jumpi\n      dup1\n      0xd265ffac\n      eq\n      tag_11\n      jumpi\n      dup1\n      0xd76704c2\n      eq\n      tag_12\n      jumpi\n      jump(tag_2)\n    tag_13:\n      dup1\n      0x026dc293\n      eq\n      tag_3\n      jumpi\n      dup1\n      0x13323b61\n      eq\n      tag_4\n      jumpi\n      dup1\n      0x175bbecf\n      eq\n      tag_5\n      jumpi\n      dup1\n      0x26a0c7de\n      eq\n      tag_6\n      jumpi\n      dup1\n      0x2d9fff01\n      eq\n      tag_7\n      jumpi\n    tag_2:\n      0x00\n      dup1\n      revert\n        /* \"contracts/TVInterface.sol\":1592:1668  function enableGamingMode() public isOnTV {... */\n    tag_3:\n      tag_14\n      tag_15\n      jump\t// in\n    tag_14:\n      stop\n        /* \"contracts/TVInterface.sol\":240:291  function TvOn() public {... */\n    tag_4:\n      tag_16\n      tag_17\n      jump\t// in\n    tag_16:\n      stop\n        /* \"contracts/TVInterface.sol\":128:144  bool public isOn */\n    tag_5:\n      tag_18\n      tag_19\n      jump\t// in\n    tag_18:\n      mload(0x40)\n      tag_20\n      swap2\n      swap1\n      tag_21\n      jump\t// in\n    tag_20:\n      mload(0x40)\n      dup1\n      swap2\n      sub\n      swap1\n      return\n        /* \"contracts/TVInterface.sol\":1674:1752  function disableGamingMode() public isOnTV {... */\n    tag_6:\n      tag_22\n      tag_23\n      jump\t// in\n    tag_22:\n      stop\n        /* \"contracts/TVInterface.sol\":76:95  string public brand */\n    tag_7:\n      tag_24\n      tag_25\n      jump\t// in\n    tag_24:\n      mload(0x40)\n      tag_26\n      swap2\n      swap1\n      tag_27\n      jump\t// in\n    tag_26:\n      mload(0x40)\n      dup1\n      swap2\n      sub\n      swap1\n      return\n        /* \"contracts/TVInterface.sol\":1758:1886  function increaseVolume() public override isOnTV {... */\n    tag_8:\n      tag_28\n      tag_29\n      jump\t// in\n    tag_28:\n      stop\n        /* \"contracts/TVInterface.sol\":101:122  uint256 public volume */\n    tag_9:\n      tag_30\n      tag_31\n      jump\t// in\n    tag_30:\n      mload(0x40)\n      tag_32\n      swap2\n      swap1\n      tag_33\n      jump\t// in\n    tag_32:\n      mload(0x40)\n      dup1\n      swap2\n      sub\n      swap1\n      return\n        /* \"contracts/TVInterface.sol\":297:358  function TvOff() public virtual {... */\n    tag_10:\n      tag_34\n      tag_35\n      jump\t// in\n    tag_34:\n      stop\n        /* \"contracts/TVInterface.sol\":1508:1530  bool public gamingMood */\n    tag_11:\n      tag_36\n      tag_37\n      jump\t// in\n    tag_36:\n      mload(0x40)\n      tag_38\n      swap2\n      swap1\n      tag_21\n      jump\t// in\n    tag_38:\n      mload(0x40)\n      dup1\n      swap2\n      sub\n      swap1\n      return\n        /* \"contracts/TVInterface.sol\":490:600  function decreaseVolume() public {... */\n    tag_12:\n      tag_39\n      tag_40\n      jump\t// in\n    tag_39:\n      stop\n        /* \"contracts/TVInterface.sol\":1592:1668  function enableGamingMode() public isOnTV {... */\n    tag_15:\n        /* \"contracts/TVInterface.sol\":187:191  isOn */\n      0x02\n      0x00\n      swap1\n      sload\n      swap1\n      0x0100\n      exp\n      swap1\n      div\n      0xff\n      and\n        /* \"contracts/TVInterface.sol\":179:216  require(isOn, \"Turn on the TV first\") */\n      tag_42\n      jumpi\n      mload(0x40)\n      0x08c379a000000000000000000000000000000000000000000000000000000000\n      dup2\n      mstore\n      0x04\n      add\n      tag_43\n      swap1\n      tag_44\n      jump\t// in\n    tag_43:\n      mload(0x40)\n      dup1\n      swap2\n      sub\n      swap1\n      revert\n    tag_42:\n        /* \"contracts/TVInterface.sol\":1657:1661  true */\n      0x01\n        /* \"contracts/TVInterface.sol\":1644:1654  gamingMood */\n      0x02\n      0x01\n        /* \"contracts/TVInterface.sol\":1644:1661  gamingMood = true */\n      0x0100\n      exp\n      dup2\n      sload\n      dup2\n      0xff\n      mul\n      not\n      and\n      swap1\n      dup4\n      iszero\n      iszero\n      mul\n      or\n      swap1\n      sstore\n      pop\n        /* \"contracts/TVInterface.sol\":1592:1668  function enableGamingMode() public isOnTV {... */\n      jump\t// out\n        /* \"contracts/TVInterface.sol\":240:291  function TvOn() public {... */\n    tag_17:\n        /* \"contracts/TVInterface.sol\":280:284  true */\n      0x01\n        /* \"contracts/TVInterface.sol\":273:277  isOn */\n      0x02\n      0x00\n        /* \"contracts/TVInterface.sol\":273:284  isOn = true */\n      0x0100\n      exp\n      dup2\n      sload\n      dup2\n      0xff\n      mul\n      not\n      and\n      swap1\n      dup4\n      iszero\n      iszero\n      mul\n      or\n      swap1\n      sstore\n      pop\n        /* \"contracts/TVInterface.sol\":240:291  function TvOn() public {... */\n      jump\t// out\n        /* \"contracts/TVInterface.sol\":128:144  bool public isOn */\n    tag_19:\n      0x02\n      0x00\n      swap1\n      sload\n      swap1\n      0x0100\n      exp\n      swap1\n      div\n      0xff\n      and\n      dup2\n      jump\t// out\n        /* \"contracts/TVInterface.sol\":1674:1752  function disableGamingMode() public isOnTV {... */\n    tag_23:\n        /* \"contracts/TVInterface.sol\":187:191  isOn */\n      0x02\n      0x00\n      swap1\n      sload\n      swap1\n      0x0100\n      exp\n      swap1\n      div\n      0xff\n      and\n        /* \"contracts/TVInterface.sol\":179:216  require(isOn, \"Turn on the TV first\") */\n      tag_48\n      jumpi\n      mload(0x40)\n      0x08c379a000000000000000000000000000000000000000000000000000000000\n      dup2\n      mstore\n      0x04\n      add\n      tag_49\n      swap1\n      tag_44\n      jump\t// in\n    tag_49:\n      mload(0x40)\n      dup1\n      swap2\n      sub\n      swap1\n      revert\n    tag_48:\n        /* \"contracts/TVInterface.sol\":1740:1745  false */\n      0x00\n        /* \"contracts/TVInterface.sol\":1727:1737  gamingMood */\n      0x02\n      0x01\n        /* \"contracts/TVInterface.sol\":1727:1745  gamingMood = false */\n      0x0100\n      exp\n      dup2\n      sload\n      dup2\n      0xff\n      mul\n      not\n      and\n      swap1\n      dup4\n      iszero\n      iszero\n      mul\n      or\n      swap1\n      sstore\n      pop\n        /* \"contracts/TVInterface.sol\":1674:1752  function disableGamingMode() public isOnTV {... */\n      jump\t// out\n        /* \"contracts/TVInterface.sol\":76:95  string public brand */\n    tag_25:\n      0x00\n      dup1\n      sload\n      tag_51\n      swap1\n      tag_52\n      jump\t// in\n    tag_51:\n      dup1\n      0x1f\n      add\n      0x20\n      dup1\n      swap2\n      div\n      mul\n      0x20\n      add\n      mload(0x40)\n      swap1\n      dup2\n      add\n      0x40\n      mstore\n      dup1\n      swap3\n      swap2\n      swap1\n      dup2\n      dup2\n      mstore\n      0x20\n      add\n      dup3\n      dup1\n      sload\n      tag_53\n      swap1\n      tag_52\n      jump\t// in\n    tag_53:\n      dup1\n      iszero\n      tag_54\n      jumpi\n      dup1\n      0x1f\n      lt\n      tag_55\n      jumpi\n      0x0100\n      dup1\n      dup4\n      sload\n      div\n      mul\n      dup4\n      mstore\n      swap2\n      0x20\n      add\n      swap2\n      jump(tag_54)\n    tag_55:\n      dup3\n      add\n      swap2\n      swap1\n      0x00\n      mstore\n      keccak256(0x00, 0x20)\n      swap1\n    tag_56:\n      dup2\n      sload\n      dup2\n      mstore\n      swap1\n      0x01\n      add\n      swap1\n      0x20\n      add\n      dup1\n      dup4\n      gt\n      tag_56\n      jumpi\n      dup3\n      swap1\n      sub\n      0x1f\n      and\n      dup3\n      add\n      swap2\n    tag_54:\n      pop\n      pop\n      pop\n      pop\n      pop\n      dup2\n      jump\t// out\n        /* \"contracts/TVInterface.sol\":1758:1886  function increaseVolume() public override isOnTV {... */\n    tag_29:\n        /* \"contracts/TVInterface.sol\":187:191  isOn */\n      0x02\n      0x00\n      swap1\n      sload\n      swap1\n      0x0100\n      exp\n      swap1\n      div\n      0xff\n      and\n        /* \"contracts/TVInterface.sol\":179:216  require(isOn, \"Turn on the TV first\") */\n      tag_58\n      jumpi\n      mload(0x40)\n      0x08c379a000000000000000000000000000000000000000000000000000000000\n      dup2\n      mstore\n      0x04\n      add\n      tag_59\n      swap1\n      tag_44\n      jump\t// in\n    tag_59:\n      mload(0x40)\n      dup1\n      swap2\n      sub\n      swap1\n      revert\n    tag_58:\n        /* \"contracts/TVInterface.sol\":1834:1836  10 */\n      0x0a\n        /* \"contracts/TVInterface.sol\":1825:1831  volume */\n      sload(0x01)\n        /* \"contracts/TVInterface.sol\":1825:1836  volume < 10 */\n      lt\n        /* \"contracts/TVInterface.sol\":1817:1858  require(volume < 10, \"Your volume is 10\") */\n      tag_61\n      jumpi\n      mload(0x40)\n      0x08c379a000000000000000000000000000000000000000000000000000000000\n      dup2\n      mstore\n      0x04\n      add\n      tag_62\n      swap1\n      tag_63\n      jump\t// in\n    tag_62:\n      mload(0x40)\n      dup1\n      swap2\n      sub\n      swap1\n      revert\n    tag_61:\n        /* \"contracts/TVInterface.sol\":1878:1879  1 */\n      0x01\n        /* \"contracts/TVInterface.sol\":1868:1874  volume */\n      dup1\n      0x00\n        /* \"contracts/TVInterface.sol\":1868:1879  volume += 1 */\n      dup3\n      dup3\n      sload\n      tag_64\n      swap2\n      swap1\n      tag_65\n      jump\t// in\n    tag_64:\n      swap3\n      pop\n      pop\n      dup2\n      swap1\n      sstore\n      pop\n        /* \"contracts/TVInterface.sol\":1758:1886  function increaseVolume() public override isOnTV {... */\n      jump\t// out\n        /* \"contracts/TVInterface.sol\":101:122  uint256 public volume */\n    tag_31:\n      sload(0x01)\n      dup2\n      jump\t// out\n        /* \"contracts/TVInterface.sol\":297:358  function TvOff() public virtual {... */\n    tag_35:\n        /* \"contracts/TVInterface.sol\":346:351  false */\n      0x00\n        /* \"contracts/TVInterface.sol\":339:343  isOn */\n      0x02\n      0x00\n        /* \"contracts/TVInterface.sol\":339:351  isOn = false */\n      0x0100\n      exp\n      dup2\n      sload\n      dup2\n      0xff\n      mul\n      not\n      and\n      swap1\n      dup4\n      iszero\n      iszero\n      mul\n      or\n      swap1\n      sstore\n      pop\n        /* \"contracts/TVInterface.sol\":297:358  function TvOff() public virtual {... */\n      jump\t// out\n        /* \"contracts/TVInterface.sol\":1508:1530  bool public gamingMood */\n    tag_37:\n      0x02\n      0x01\n      swap1\n      sload\n      swap1\n      0x0100\n      exp\n      swap1\n      div\n      0xff\n      and\n      dup2\n      jump\t// out\n        /* \"contracts/TVInterface.sol\":490:600  function decreaseVolume() public {... */\n    tag_40:\n        /* \"contracts/TVInterface.sol\":550:551  0 */\n      0x00\n        /* \"contracts/TVInterface.sol\":541:547  volume */\n      sload(0x01)\n        /* \"contracts/TVInterface.sol\":541:551  volume > 0 */\n      gt\n        /* \"contracts/TVInterface.sol\":533:572  require(volume > 0, \"Your volume is 0\") */\n      tag_68\n      jumpi\n      mload(0x40)\n      0x08c379a000000000000000000000000000000000000000000000000000000000\n      dup2\n      mstore\n      0x04\n      add\n      tag_69\n      swap1\n      tag_70\n      jump\t// in\n    tag_69:\n      mload(0x40)\n      dup1\n      swap2\n      sub\n      swap1\n      revert\n    tag_68:\n        /* \"contracts/TVInterface.sol\":592:593  1 */\n      0x01\n        /* \"contracts/TVInterface.sol\":582:588  volume */\n      dup1\n      0x00\n        /* \"contracts/TVInterface.sol\":582:593  volume -= 1 */\n      dup3\n      dup3\n      sload\n      tag_71\n      swap2\n      swap1\n      tag_72\n      jump\t// in\n    tag_71:\n      swap3\n      pop\n      pop\n      dup2\n      swap1\n      sstore\n      pop\n        /* \"contracts/TVInterface.sol\":490:600  function decreaseVolume() public {... */\n      jump\t// out\n        /* \"#utility.yul\":7:97   */\n    tag_73:\n        /* \"#utility.yul\":41:48   */\n      0x00\n        /* \"#utility.yul\":84:89   */\n      dup2\n        /* \"#utility.yul\":77:90   */\n      iszero\n        /* \"#utility.yul\":70:91   */\n      iszero\n        /* \"#utility.yul\":59:91   */\n      swap1\n      pop\n        /* \"#utility.yul\":7:97   */\n      swap2\n      swap1\n      pop\n      jump\t// out\n        /* \"#utility.yul\":103:212   */\n    tag_74:\n        /* \"#utility.yul\":184:205   */\n      tag_93\n        /* \"#utility.yul\":199:204   */\n      dup2\n        /* \"#utility.yul\":184:205   */\n      tag_73\n      jump\t// in\n    tag_93:\n        /* \"#utility.yul\":179:182   */\n      dup3\n        /* \"#utility.yul\":172:206   */\n      mstore\n        /* \"#utility.yul\":103:212   */\n      pop\n      pop\n      jump\t// out\n        /* \"#utility.yul\":218:428   */\n    tag_21:\n        /* \"#utility.yul\":305:309   */\n      0x00\n        /* \"#utility.yul\":343:345   */\n      0x20\n        /* \"#utility.yul\":332:341   */\n      dup3\n        /* \"#utility.yul\":328:346   */\n      add\n        /* \"#utility.yul\":320:346   */\n      swap1\n      pop\n        /* \"#utility.yul\":356:421   */\n      tag_95\n        /* \"#utility.yul\":418:419   */\n      0x00\n        /* \"#utility.yul\":407:416   */\n      dup4\n        /* \"#utility.yul\":403:420   */\n      add\n        /* \"#utility.yul\":394:400   */\n      dup5\n        /* \"#utility.yul\":356:421   */\n      tag_74\n      jump\t// in\n    tag_95:\n        /* \"#utility.yul\":218:428   */\n      swap3\n      swap2\n      pop\n      pop\n      jump\t// out\n        /* \"#utility.yul\":434:533   */\n    tag_75:\n        /* \"#utility.yul\":486:492   */\n      0x00\n        /* \"#utility.yul\":520:525   */\n      dup2\n        /* \"#utility.yul\":514:526   */\n      mload\n        /* \"#utility.yul\":504:526   */\n      swap1\n      pop\n        /* \"#utility.yul\":434:533   */\n      swap2\n      swap1\n      pop\n      jump\t// out\n        /* \"#utility.yul\":539:708   */\n    tag_76:\n        /* \"#utility.yul\":623:634   */\n      0x00\n        /* \"#utility.yul\":657:663   */\n      dup3\n        /* \"#utility.yul\":652:655   */\n      dup3\n        /* \"#utility.yul\":645:664   */\n      mstore\n        /* \"#utility.yul\":697:701   */\n      0x20\n        /* \"#utility.yul\":692:695   */\n      dup3\n        /* \"#utility.yul\":688:702   */\n      add\n        /* \"#utility.yul\":673:702   */\n      swap1\n      pop\n        /* \"#utility.yul\":539:708   */\n      swap3\n      swap2\n      pop\n      pop\n      jump\t// out\n        /* \"#utility.yul\":714:853   */\n    tag_77:\n        /* \"#utility.yul\":803:809   */\n      dup3\n        /* \"#utility.yul\":798:801   */\n      dup2\n        /* \"#utility.yul\":793:796   */\n      dup4\n        /* \"#utility.yul\":787:810   */\n      mcopy\n        /* \"#utility.yul\":844:845   */\n      0x00\n        /* \"#utility.yul\":835:841   */\n      dup4\n        /* \"#utility.yul\":830:833   */\n      dup4\n        /* \"#utility.yul\":826:842   */\n      add\n        /* \"#utility.yul\":819:846   */\n      mstore\n        /* \"#utility.yul\":714:853   */\n      pop\n      pop\n      pop\n      jump\t// out\n        /* \"#utility.yul\":859:961   */\n    tag_78:\n        /* \"#utility.yul\":900:906   */\n      0x00\n        /* \"#utility.yul\":951:953   */\n      0x1f\n        /* \"#utility.yul\":947:954   */\n      not\n        /* \"#utility.yul\":942:944   */\n      0x1f\n        /* \"#utility.yul\":935:940   */\n      dup4\n        /* \"#utility.yul\":931:945   */\n      add\n        /* \"#utility.yul\":927:955   */\n      and\n        /* \"#utility.yul\":917:955   */\n      swap1\n      pop\n        /* \"#utility.yul\":859:961   */\n      swap2\n      swap1\n      pop\n      jump\t// out\n        /* \"#utility.yul\":967:1344   */\n    tag_79:\n        /* \"#utility.yul\":1055:1058   */\n      0x00\n        /* \"#utility.yul\":1083:1122   */\n      tag_101\n        /* \"#utility.yul\":1116:1121   */\n      dup3\n        /* \"#utility.yul\":1083:1122   */\n      tag_75\n      jump\t// in\n    tag_101:\n        /* \"#utility.yul\":1138:1209   */\n      tag_102\n        /* \"#utility.yul\":1202:1208   */\n      dup2\n        /* \"#utility.yul\":1197:1200   */\n      dup6\n        /* \"#utility.yul\":1138:1209   */\n      tag_76\n      jump\t// in\n    tag_102:\n        /* \"#utility.yul\":1131:1209   */\n      swap4\n      pop\n        /* \"#utility.yul\":1218:1283   */\n      tag_103\n        /* \"#utility.yul\":1276:1282   */\n      dup2\n        /* \"#utility.yul\":1271:1274   */\n      dup6\n        /* \"#utility.yul\":1264:1268   */\n      0x20\n        /* \"#utility.yul\":1257:1262   */\n      dup7\n        /* \"#utility.yul\":1253:1269   */\n      add\n        /* \"#utility.yul\":1218:1283   */\n      tag_77\n      jump\t// in\n    tag_103:\n        /* \"#utility.yul\":1308:1337   */\n      tag_104\n        /* \"#utility.yul\":1330:1336   */\n      dup2\n        /* \"#utility.yul\":1308:1337   */\n      tag_78\n      jump\t// in\n    tag_104:\n        /* \"#utility.yul\":1303:1306   */\n      dup5\n        /* \"#utility.yul\":1299:1338   */\n      add\n        /* \"#utility.yul\":1292:1338   */\n      swap2\n      pop\n        /* \"#utility.yul\":1059:1344   */\n      pop\n        /* \"#utility.yul\":967:1344   */\n      swap3\n      swap2\n      pop\n      pop\n      jump\t// out\n        /* \"#utility.yul\":1350:1663   */\n    tag_27:\n        /* \"#utility.yul\":1463:1467   */\n      0x00\n        /* \"#utility.yul\":1501:1503   */\n      0x20\n        /* \"#utility.yul\":1490:1499   */\n      dup3\n        /* \"#utility.yul\":1486:1504   */\n      add\n        /* \"#utility.yul\":1478:1504   */\n      swap1\n      pop\n        /* \"#utility.yul\":1550:1559   */\n      dup2\n        /* \"#utility.yul\":1544:1548   */\n      dup2\n        /* \"#utility.yul\":1540:1560   */\n      sub\n        /* \"#utility.yul\":1536:1537   */\n      0x00\n        /* \"#utility.yul\":1525:1534   */\n      dup4\n        /* \"#utility.yul\":1521:1538   */\n      add\n        /* \"#utility.yul\":1514:1561   */\n      mstore\n        /* \"#utility.yul\":1578:1656   */\n      tag_106\n        /* \"#utility.yul\":1651:1655   */\n      dup2\n        /* \"#utility.yul\":1642:1648   */\n      dup5\n        /* \"#utility.yul\":1578:1656   */\n      tag_79\n      jump\t// in\n    tag_106:\n        /* \"#utility.yul\":1570:1656   */\n      swap1\n      pop\n        /* \"#utility.yul\":1350:1663   */\n      swap3\n      swap2\n      pop\n      pop\n      jump\t// out\n        /* \"#utility.yul\":1669:1746   */\n    tag_80:\n        /* \"#utility.yul\":1706:1713   */\n      0x00\n        /* \"#utility.yul\":1735:1740   */\n      dup2\n        /* \"#utility.yul\":1724:1740   */\n      swap1\n      pop\n        /* \"#utility.yul\":1669:1746   */\n      swap2\n      swap1\n      pop\n      jump\t// out\n        /* \"#utility.yul\":1752:1870   */\n    tag_81:\n        /* \"#utility.yul\":1839:1863   */\n      tag_109\n        /* \"#utility.yul\":1857:1862   */\n      dup2\n        /* \"#utility.yul\":1839:1863   */\n      tag_80\n      jump\t// in\n    tag_109:\n        /* \"#utility.yul\":1834:1837   */\n      dup3\n        /* \"#utility.yul\":1827:1864   */\n      mstore\n        /* \"#utility.yul\":1752:1870   */\n      pop\n      pop\n      jump\t// out\n        /* \"#utility.yul\":1876:2098   */\n    tag_33:\n        /* \"#utility.yul\":1969:1973   */\n      0x00\n        /* \"#utility.yul\":2007:2009   */\n      0x20\n        /* \"#utility.yul\":1996:2005   */\n      dup3\n        /* \"#utility.yul\":1992:2010   */\n      add\n        /* \"#utility.yul\":1984:2010   */\n      swap1\n      pop\n        /* \"#utility.yul\":2020:2091   */\n      tag_111\n        /* \"#utility.yul\":2088:2089   */\n      0x00\n        /* \"#utility.yul\":2077:2086   */\n      dup4\n        /* \"#utility.yul\":2073:2090   */\n      add\n        /* \"#utility.yul\":2064:2070   */\n      dup5\n        /* \"#utility.yul\":2020:2091   */\n      tag_81\n      jump\t// in\n    tag_111:\n        /* \"#utility.yul\":1876:2098   */\n      swap3\n      swap2\n      pop\n      pop\n      jump\t// out\n        /* \"#utility.yul\":2104:2274   */\n    tag_82:\n        /* \"#utility.yul\":2244:2266   */\n      0x5475726e206f6e20746865205456206669727374000000000000000000000000\n        /* \"#utility.yul\":2240:2241   */\n      0x00\n        /* \"#utility.yul\":2232:2238   */\n      dup3\n        /* \"#utility.yul\":2228:2242   */\n      add\n        /* \"#utility.yul\":2221:2267   */\n      mstore\n        /* \"#utility.yul\":2104:2274   */\n      pop\n      jump\t// out\n        /* \"#utility.yul\":2280:2646   */\n    tag_83:\n        /* \"#utility.yul\":2422:2425   */\n      0x00\n        /* \"#utility.yul\":2443:2510   */\n      tag_114\n        /* \"#utility.yul\":2507:2509   */\n      0x14\n        /* \"#utility.yul\":2502:2505   */\n      dup4\n        /* \"#utility.yul\":2443:2510   */\n      tag_76\n      jump\t// in\n    tag_114:\n        /* \"#utility.yul\":2436:2510   */\n      swap2\n      pop\n        /* \"#utility.yul\":2519:2612   */\n      tag_115\n        /* \"#utility.yul\":2608:2611   */\n      dup3\n        /* \"#utility.yul\":2519:2612   */\n      tag_82\n      jump\t// in\n    tag_115:\n        /* \"#utility.yul\":2637:2639   */\n      0x20\n        /* \"#utility.yul\":2632:2635   */\n      dup3\n        /* \"#utility.yul\":2628:2640   */\n      add\n        /* \"#utility.yul\":2621:2640   */\n      swap1\n      pop\n        /* \"#utility.yul\":2280:2646   */\n      swap2\n      swap1\n      pop\n      jump\t// out\n        /* \"#utility.yul\":2652:3071   */\n    tag_44:\n        /* \"#utility.yul\":2818:2822   */\n      0x00\n        /* \"#utility.yul\":2856:2858   */\n      0x20\n        /* \"#utility.yul\":2845:2854   */\n      dup3\n        /* \"#utility.yul\":2841:2859   */\n      add\n        /* \"#utility.yul\":2833:2859   */\n      swap1\n      pop\n        /* \"#utility.yul\":2905:2914   */\n      dup2\n        /* \"#utility.yul\":2899:2903   */\n      dup2\n        /* \"#utility.yul\":2895:2915   */\n      sub\n        /* \"#utility.yul\":2891:2892   */\n      0x00\n        /* \"#utility.yul\":2880:2889   */\n      dup4\n        /* \"#utility.yul\":2876:2893   */\n      add\n        /* \"#utility.yul\":2869:2916   */\n      mstore\n        /* \"#utility.yul\":2933:3064   */\n      tag_117\n        /* \"#utility.yul\":3059:3063   */\n      dup2\n        /* \"#utility.yul\":2933:3064   */\n      tag_83\n      jump\t// in\n    tag_117:\n        /* \"#utility.yul\":2925:3064   */\n      swap1\n      pop\n        /* \"#utility.yul\":2652:3071   */\n      swap2\n      swap1\n      pop\n      jump\t// out\n        /* \"#utility.yul\":3077:3257   */\n    tag_84:\n        /* \"#utility.yul\":3125:3202   */\n      0x4e487b7100000000000000000000000000000000000000000000000000000000\n        /* \"#utility.yul\":3122:3123   */\n      0x00\n        /* \"#utility.yul\":3115:3203   */\n      mstore\n        /* \"#utility.yul\":3222:3226   */\n      0x22\n        /* \"#utility.yul\":3219:3220   */\n      0x04\n        /* \"#utility.yul\":3212:3227   */\n      mstore\n        /* \"#utility.yul\":3246:3250   */\n      0x24\n        /* \"#utility.yul\":3243:3244   */\n      0x00\n        /* \"#utility.yul\":3236:3251   */\n      revert\n        /* \"#utility.yul\":3263:3583   */\n    tag_52:\n        /* \"#utility.yul\":3307:3313   */\n      0x00\n        /* \"#utility.yul\":3344:3345   */\n      0x02\n        /* \"#utility.yul\":3338:3342   */\n      dup3\n        /* \"#utility.yul\":3334:3346   */\n      div\n        /* \"#utility.yul\":3324:3346   */\n      swap1\n      pop\n        /* \"#utility.yul\":3391:3392   */\n      0x01\n        /* \"#utility.yul\":3385:3389   */\n      dup3\n        /* \"#utility.yul\":3381:3393   */\n      and\n        /* \"#utility.yul\":3412:3430   */\n      dup1\n        /* \"#utility.yul\":3402:3483   */\n      tag_120\n      jumpi\n        /* \"#utility.yul\":3468:3472   */\n      0x7f\n        /* \"#utility.yul\":3460:3466   */\n      dup3\n        /* \"#utility.yul\":3456:3473   */\n      and\n        /* \"#utility.yul\":3446:3473   */\n      swap2\n      pop\n        /* \"#utility.yul\":3402:3483   */\n    tag_120:\n        /* \"#utility.yul\":3530:3532   */\n      0x20\n        /* \"#utility.yul\":3522:3528   */\n      dup3\n        /* \"#utility.yul\":3519:3533   */\n      lt\n        /* \"#utility.yul\":3499:3517   */\n      dup2\n        /* \"#utility.yul\":3496:3534   */\n      sub\n        /* \"#utility.yul\":3493:3577   */\n      tag_121\n      jumpi\n        /* \"#utility.yul\":3549:3567   */\n      tag_122\n      tag_84\n      jump\t// in\n    tag_122:\n        /* \"#utility.yul\":3493:3577   */\n    tag_121:\n        /* \"#utility.yul\":3314:3583   */\n      pop\n        /* \"#utility.yul\":3263:3583   */\n      swap2\n      swap1\n      pop\n      jump\t// out\n        /* \"#utility.yul\":3589:3756   */\n    tag_85:\n        /* \"#utility.yul\":3729:3748   */\n      0x596f757220766f6c756d65206973203130000000000000000000000000000000\n        /* \"#utility.yul\":3725:3726   */\n      0x00\n        /* \"#utility.yul\":3717:3723   */\n      dup3\n        /* \"#utility.yul\":3713:3727   */\n      add\n        /* \"#utility.yul\":3706:3749   */\n      mstore\n        /* \"#utility.yul\":3589:3756   */\n      pop\n      jump\t// out\n        /* \"#utility.yul\":3762:4128   */\n    tag_86:\n        /* \"#utility.yul\":3904:3907   */\n      0x00\n        /* \"#utility.yul\":3925:3992   */\n      tag_125\n        /* \"#utility.yul\":3989:3991   */\n      0x11\n        /* \"#utility.yul\":3984:3987   */\n      dup4\n        /* \"#utility.yul\":3925:3992   */\n      tag_76\n      jump\t// in\n    tag_125:\n        /* \"#utility.yul\":3918:3992   */\n      swap2\n      pop\n        /* \"#utility.yul\":4001:4094   */\n      tag_126\n        /* \"#utility.yul\":4090:4093   */\n      dup3\n        /* \"#utility.yul\":4001:4094   */\n      tag_85\n      jump\t// in\n    tag_126:\n        /* \"#utility.yul\":4119:4121   */\n      0x20\n        /* \"#utility.yul\":4114:4117   */\n      dup3\n        /* \"#utility.yul\":4110:4122   */\n      add\n        /* \"#utility.yul\":4103:4122   */\n      swap1\n      pop\n        /* \"#utility.yul\":3762:4128   */\n      swap2\n      swap1\n      pop\n      jump\t// out\n        /* \"#utility.yul\":4134:4553   */\n    tag_63:\n        /* \"#utility.yul\":4300:4304   */\n      0x00\n        /* \"#utility.yul\":4338:4340   */\n      0x20\n        /* \"#utility.yul\":4327:4336   */\n      dup3\n        /* \"#utility.yul\":4323:4341   */\n      add\n        /* \"#utility.yul\":4315:4341   */\n      swap1\n      pop\n        /* \"#utility.yul\":4387:4396   */\n      dup2\n        /* \"#utility.yul\":4381:4385   */\n      dup2\n        /* \"#utility.yul\":4377:4397   */\n      sub\n        /* \"#utility.yul\":4373:4374   */\n      0x00\n        /* \"#utility.yul\":4362:4371   */\n      dup4\n        /* \"#utility.yul\":4358:4375   */\n      add\n        /* \"#utility.yul\":4351:4398   */\n      mstore\n        /* \"#utility.yul\":4415:4546   */\n      tag_128\n        /* \"#utility.yul\":4541:4545   */\n      dup2\n        /* \"#utility.yul\":4415:4546   */\n      tag_86\n      jump\t// in\n    tag_128:\n        /* \"#utility.yul\":4407:4546   */\n      swap1\n      pop\n        /* \"#utility.yul\":4134:4553   */\n      swap2\n      swap1\n      pop\n      jump\t// out\n        /* \"#utility.yul\":4559:4739   */\n    tag_87:\n        /* \"#utility.yul\":4607:4684   */\n      0x4e487b7100000000000000000000000000000000000000000000000000000000\n        /* \"#utility.yul\":4604:4605   */\n      0x00\n        /* \"#utility.yul\":4597:4685   */\n      mstore\n        /* \"#utility.yul\":4704:4708   */\n      0x11\n        /* \"#utility.yul\":4701:4702   */\n      0x04\n        /* \"#utility.yul\":4694:4709   */\n      mstore\n        /* \"#utility.yul\":4728:4732   */\n      0x24\n        /* \"#utility.yul\":4725:4726   */\n      0x00\n        /* \"#utility.yul\":4718:4733   */\n      revert\n        /* \"#utility.yul\":4745:4936   */\n    tag_65:\n        /* \"#utility.yul\":4785:4788   */\n      0x00\n        /* \"#utility.yul\":4804:4824   */\n      tag_131\n        /* \"#utility.yul\":4822:4823   */\n      dup3\n        /* \"#utility.yul\":4804:4824   */\n      tag_80\n      jump\t// in\n    tag_131:\n        /* \"#utility.yul\":4799:4824   */\n      swap2\n      pop\n        /* \"#utility.yul\":4838:4858   */\n      tag_132\n        /* \"#utility.yul\":4856:4857   */\n      dup4\n        /* \"#utility.yul\":4838:4858   */\n      tag_80\n      jump\t// in\n    tag_132:\n        /* \"#utility.yul\":4833:4858   */\n      swap3\n      pop\n        /* \"#utility.yul\":4881:4882   */\n      dup3\n        /* \"#utility.yul\":4878:4879   */\n      dup3\n        /* \"#utility.yul\":4874:4883   */\n      add\n        /* \"#utility.yul\":4867:4883   */\n      swap1\n      pop\n        /* \"#utility.yul\":4902:4905   */\n      dup1\n        /* \"#utility.yul\":4899:4900   */\n      dup3\n        /* \"#utility.yul\":4896:4906   */\n      gt\n        /* \"#utility.yul\":4893:4929   */\n      iszero\n      tag_133\n      jumpi\n        /* \"#utility.yul\":4909:4927   */\n      tag_134\n      tag_87\n      jump\t// in\n    tag_134:\n        /* \"#utility.yul\":4893:4929   */\n    tag_133:\n        /* \"#utility.yul\":4745:4936   */\n      swap3\n      swap2\n      pop\n      pop\n      jump\t// out\n        /* \"#utility.yul\":4942:5108   */\n    tag_88:\n        /* \"#utility.yul\":5082:5100   */\n      0x596f757220766f6c756d65206973203000000000000000000000000000000000\n        /* \"#utility.yul\":5078:5079   */\n      0x00\n        /* \"#utility.yul\":5070:5076   */\n      dup3\n        /* \"#utility.yul\":5066:5080   */\n      add\n        /* \"#utility.yul\":5059:5101   */\n      mstore\n        /* \"#utility.yul\":4942:5108   */\n      pop\n      jump\t// out\n        /* \"#utility.yul\":5114:5480   */\n    tag_89:\n        /* \"#utility.yul\":5256:5259   */\n      0x00\n        /* \"#utility.yul\":5277:5344   */\n      tag_137\n        /* \"#utility.yul\":5341:5343   */\n      0x10\n        /* \"#utility.yul\":5336:5339   */\n      dup4\n        /* \"#utility.yul\":5277:5344   */\n      tag_76\n      jump\t// in\n    tag_137:\n        /* \"#utility.yul\":5270:5344   */\n      swap2\n      pop\n        /* \"#utility.yul\":5353:5446   */\n      tag_138\n        /* \"#utility.yul\":5442:5445   */\n      dup3\n        /* \"#utility.yul\":5353:5446   */\n      tag_88\n      jump\t// in\n    tag_138:\n        /* \"#utility.yul\":5471:5473   */\n      0x20\n        /* \"#utility.yul\":5466:5469   */\n      dup3\n        /* \"#utility.yul\":5462:5474   */\n      add\n        /* \"#utility.yul\":5455:5474   */\n      swap1\n      pop\n        /* \"#utility.yul\":5114:5480   */\n      swap2\n      swap1\n      pop\n      jump\t// out\n        /* \"#utility.yul\":5486:5905   */\n    tag_70:\n        /* \"#utility.yul\":5652:5656   */\n      0x00\n        /* \"#utility.yul\":5690:5692   */\n      0x20\n        /* \"#utility.yul\":5679:5688   */\n      dup3\n        /* \"#utility.yul\":5675:5693   */\n      add\n        /* \"#utility.yul\":5667:5693   */\n      swap1\n      pop\n        /* \"#utility.yul\":5739:5748   */\n      dup2\n        /* \"#utility.yul\":5733:5737   */\n      dup2\n        /* \"#utility.yul\":5729:5749   */\n      sub\n        /* \"#utility.yul\":5725:5726   */\n      0x00\n        /* \"#utility.yul\":5714:5723   */\n      dup4\n        /* \"#utility.yul\":5710:5727   */\n      add\n        /* \"#utility.yul\":5703:5750   */\n      mstore\n        /* \"#utility.yul\":5767:5898   */\n      tag_140\n        /* \"#utility.yul\":5893:5897   */\n      dup2\n        /* \"#utility.yul\":5767:5898   */\n      tag_89\n      jump\t// in\n    tag_140:\n        /* \"#utility.yul\":5759:5898   */\n      swap1\n      pop\n        /* \"#utility.yul\":5486:5905   */\n      swap2\n      swap1\n      pop\n      jump\t// out\n        /* \"#utility.yul\":5911:6105   */\n    tag_72:\n        /* \"#utility.yul\":5951:5955   */\n      0x00\n        /* \"#utility.yul\":5971:5991   */\n      tag_142\n        /* \"#utility.yul\":5989:5990   */\n      dup3\n        /* \"#utility.yul\":5971:5991   */\n      tag_80\n      jump\t// in\n    tag_142:\n        /* \"#utility.yul\":5966:5991   */\n      swap2\n      pop\n        /* \"#utility.yul\":6005:6025   */\n      tag_143\n        /* \"#utility.yul\":6023:6024   */\n      dup4\n        /* \"#utility.yul\":6005:6025   */\n      tag_80\n      jump\t// in\n    tag_143:\n        /* \"#utility.yul\":6000:6025   */\n      swap3\n      pop\n        /* \"#utility.yul\":6049:6050   */\n      dup3\n        /* \"#utility.yul\":6046:6047   */\n      dup3\n        /* \"#utility.yul\":6042:6051   */\n      sub\n        /* \"#utility.yul\":6034:6051   */\n      swap1\n      pop\n        /* \"#utility.yul\":6073:6074   */\n      dup2\n        /* \"#utility.yul\":6067:6071   */\n      dup2\n        /* \"#utility.yul\":6064:6075   */\n      gt\n        /* \"#utility.yul\":6061:6098   */\n      iszero\n      tag_144\n      jumpi\n        /* \"#utility.yul\":6078:6096   */\n      tag_145\n      tag_87\n      jump\t// in\n    tag_145:\n        /* \"#utility.yul\":6061:6098   */\n    tag_144:\n        /* \"#utility.yul\":5911:6105   */\n      swap3\n      swap2\n      pop\n      pop\n      jump\t// out\n\n    auxdata: 0xa2646970667358221220f183d1f0533d7cb678bafb827d7d98eaa356ebff1d83d1efaffb900e8492842764736f6c634300081a0033\n}\n",
				"bytecode": {
					"linkReferences": {},
					"object": "6080604052348015600e575f80fd5b505f600260016101000a81548160ff021916908315150217905550610773806100365f395ff3fe608060405234801561000f575f80fd5b506004361061009c575f3560e01c8063871115da11610064578063871115da146100fa578063c618a1e414610104578063ce5087f714610122578063d265ffac1461012c578063d76704c21461014a5761009c565b8063026dc293146100a057806313323b61146100aa578063175bbecf146100b457806326a0c7de146100d25780632d9fff01146100dc575b5f80fd5b6100a8610154565b005b6100b26101bf565b005b6100bc6101db565b6040516100c9919061043b565b60405180910390f35b6100da6101ed565b005b6100e4610257565b6040516100f191906104c4565b60405180910390f35b6101026102e2565b005b61010c61038f565b60405161011991906104fc565b60405180910390f35b61012a610395565b005b6101346103b0565b604051610141919061043b565b60405180910390f35b6101526103c3565b005b60025f9054906101000a900460ff166101a2576040517f08c379a00000000000000000000000000000000000000000000000000000000081526004016101999061055f565b60405180910390fd5b6001600260016101000a81548160ff021916908315150217905550565b600160025f6101000a81548160ff021916908315150217905550565b60025f9054906101000a900460ff1681565b60025f9054906101000a900460ff1661023b576040517f08c379a00000000000000000000000000000000000000000000000000000000081526004016102329061055f565b60405180910390fd5b5f600260016101000a81548160ff021916908315150217905550565b5f8054610263906105aa565b80601f016020809104026020016040519081016040528092919081815260200182805461028f906105aa565b80156102da5780601f106102b1576101008083540402835291602001916102da565b820191905f5260205f20905b8154815290600101906020018083116102bd57829003601f168201915b505050505081565b60025f9054906101000a900460ff16610330576040517f08c379a00000000000000000000000000000000000000000000000000000000081526004016103279061055f565b60405180910390fd5b600a60015410610375576040517f08c379a000000000000000000000000000000000000000000000000000000000815260040161036c90610624565b60405180910390fd5b6001805f828254610386919061066f565b92505081905550565b60015481565b5f60025f6101000a81548160ff021916908315150217905550565b600260019054906101000a900460ff1681565b5f60015411610407576040517f08c379a00000000000000000000000000000000000000000000000000000000081526004016103fe906106ec565b60405180910390fd5b6001805f828254610418919061070a565b92505081905550565b5f8115159050919050565b61043581610421565b82525050565b5f60208201905061044e5f83018461042c565b92915050565b5f81519050919050565b5f82825260208201905092915050565b8281835e5f83830152505050565b5f601f19601f8301169050919050565b5f61049682610454565b6104a0818561045e565b93506104b081856020860161046e565b6104b98161047c565b840191505092915050565b5f6020820190508181035f8301526104dc818461048c565b905092915050565b5f819050919050565b6104f6816104e4565b82525050565b5f60208201905061050f5f8301846104ed565b92915050565b7f5475726e206f6e207468652054562066697273740000000000000000000000005f82015250565b5f61054960148361045e565b915061055482610515565b602082019050919050565b5f6020820190508181035f8301526105768161053d565b9050919050565b7f4e487b71000000000000000000000000000000000000000000000000000000005f52602260045260245ffd5b5f60028204905060018216806105c157607f821691505b6020821081036105d4576105d361057d565b5b50919050565b7f596f757220766f6c756d652069732031300000000000000000000000000000005f82015250565b5f61060e60118361045e565b9150610619826105da565b602082019050919050565b5f6020820190508181035f83015261063b81610602565b9050919050565b7f4e487b71000000000000000000000000000000000000000000000000000000005f52601160045260245ffd5b5f610679826104e4565b9150610684836104e4565b925082820190508082111561069c5761069b610642565b5b92915050565b7f596f757220766f6c756d652069732030000000000000000000000000000000005f82015250565b5f6106d660108361045e565b91506106e1826106a2565b602082019050919050565b5f6020820190508181035f830152610703816106ca565b9050919050565b5f610714826104e4565b915061071f836104e4565b925082820390508181111561073757610736610642565b5b9291505056fea2646970667358221220f183d1f0533d7cb678bafb827d7d98eaa356ebff1d83d1efaffb900e8492842764736f6c634300081a0033",
					"opcodes": "PUSH1 0x80 PUSH1 0x40 MSTORE CALLVALUE DUP1 ISZERO PUSH1 0xE JUMPI PUSH0 DUP1 REVERT JUMPDEST POP PUSH0 PUSH1 0x2 PUSH1 0x1 PUSH2 0x100 EXP DUP2 SLOAD DUP2 PUSH1 0xFF MUL NOT AND SWAP1 DUP4 ISZERO ISZERO MUL OR SWAP1 SSTORE POP PUSH2 0x773 DUP1 PUSH2 0x36 PUSH0 CODECOPY PUSH0 RETURN INVALID PUSH1 0x80 PUSH1 0x40 MSTORE CALLVALUE DUP1 ISZERO PUSH2 0xF JUMPI PUSH0 DUP1 REVERT JUMPDEST POP PUSH1 0x4 CALLDATASIZE LT PUSH2 0x9C JUMPI PUSH0 CALLDATALOAD PUSH1 0xE0 SHR DUP1 PUSH4 0x871115DA GT PUSH2 0x64 JUMPI DUP1 PUSH4 0x871115DA EQ PUSH2 0xFA JUMPI DUP1 PUSH4 0xC618A1E4 EQ PUSH2 0x104 JUMPI DUP1 PUSH4 0xCE5087F7 EQ PUSH2 0x122 JUMPI DUP1 PUSH4 0xD265FFAC EQ PUSH2 0x12C JUMPI DUP1 PUSH4 0xD76704C2 EQ PUSH2 0x14A JUMPI PUSH2 0x9C JUMP JUMPDEST DUP1 PUSH4 0x26DC293 EQ PUSH2 0xA0 JUMPI DUP1 PUSH4 0x13323B61 EQ PUSH2 0xAA JUMPI DUP1 PUSH4 0x175BBECF EQ PUSH2 0xB4 JUMPI DUP1 PUSH4 0x26A0C7DE EQ PUSH2 0xD2 JUMPI DUP1 PUSH4 0x2D9FFF01 EQ PUSH2 0xDC JUMPI JUMPDEST PUSH0 DUP1 REVERT JUMPDEST PUSH2 0xA8 PUSH2 0x154 JUMP JUMPDEST STOP JUMPDEST PUSH2 0xB2 PUSH2 0x1BF JUMP JUMPDEST STOP JUMPDEST PUSH2 0xBC PUSH2 0x1DB JUMP JUMPDEST PUSH1 0x40 MLOAD PUSH2 0xC9 SWAP2 SWAP1 PUSH2 0x43B JUMP JUMPDEST PUSH1 0x40 MLOAD DUP1 SWAP2 SUB SWAP1 RETURN JUMPDEST PUSH2 0xDA PUSH2 0x1ED JUMP JUMPDEST STOP JUMPDEST PUSH2 0xE4 PUSH2 0x257 JUMP JUMPDEST PUSH1 0x40 MLOAD PUSH2 0xF1 SWAP2 SWAP1 PUSH2 0x4C4 JUMP JUMPDEST PUSH1 0x40 MLOAD DUP1 SWAP2 SUB SWAP1 RETURN JUMPDEST PUSH2 0x102 PUSH2 0x2E2 JUMP JUMPDEST STOP JUMPDEST PUSH2 0x10C PUSH2 0x38F JUMP JUMPDEST PUSH1 0x40 MLOAD PUSH2 0x119 SWAP2 SWAP1 PUSH2 0x4FC JUMP JUMPDEST PUSH1 0x40 MLOAD DUP1 SWAP2 SUB SWAP1 RETURN JUMPDEST PUSH2 0x12A PUSH2 0x395 JUMP JUMPDEST STOP JUMPDEST PUSH2 0x134 PUSH2 0x3B0 JUMP JUMPDEST PUSH1 0x40 MLOAD PUSH2 0x141 SWAP2 SWAP1 PUSH2 0x43B JUMP JUMPDEST PUSH1 0x40 MLOAD DUP1 SWAP2 SUB SWAP1 RETURN JUMPDEST PUSH2 0x152 PUSH2 0x3C3 JUMP JUMPDEST STOP JUMPDEST PUSH1 0x2 PUSH0 SWAP1 SLOAD SWAP1 PUSH2 0x100 EXP SWAP1 DIV PUSH1 0xFF AND PUSH2 0x1A2 JUMPI PUSH1 0x40 MLOAD PUSH32 0x8C379A000000000000000000000000000000000000000000000000000000000 DUP2 MSTORE PUSH1 0x4 ADD PUSH2 0x199 SWAP1 PUSH2 0x55F JUMP JUMPDEST PUSH1 0x40 MLOAD DUP1 SWAP2 SUB SWAP1 REVERT JUMPDEST PUSH1 0x1 PUSH1 0x2 PUSH1 0x1 PUSH2 0x100 EXP DUP2 SLOAD DUP2 PUSH1 0xFF MUL NOT AND SWAP1 DUP4 ISZERO ISZERO MUL OR SWAP1 SSTORE POP JUMP JUMPDEST PUSH1 0x1 PUSH1 0x2 PUSH0 PUSH2 0x100 EXP DUP2 SLOAD DUP2 PUSH1 0xFF MUL NOT AND SWAP1 DUP4 ISZERO ISZERO MUL OR SWAP1 SSTORE POP JUMP JUMPDEST PUSH1 0x2 PUSH0 SWAP1 SLOAD SWAP1 PUSH2 0x100 EXP SWAP1 DIV PUSH1 0xFF AND DUP2 JUMP JUMPDEST PUSH1 0x2 PUSH0 SWAP1 SLOAD SWAP1 PUSH2 0x100 EXP SWAP1 DIV PUSH1 0xFF AND PUSH2 0x23B JUMPI PUSH1 0x40 MLOAD PUSH32 0x8C379A000000000000000000000000000000000000000000000000000000000 DUP2 MSTORE PUSH1 0x4 ADD PUSH2 0x232 SWAP1 PUSH2 0x55F JUMP JUMPDEST PUSH1 0x40 MLOAD DUP1 SWAP2 SUB SWAP1 REVERT JUMPDEST PUSH0 PUSH1 0x2 PUSH1 0x1 PUSH2 0x100 EXP DUP2 SLOAD DUP2 PUSH1 0xFF MUL NOT AND SWAP1 DUP4 ISZERO ISZERO MUL OR SWAP1 SSTORE POP JUMP JUMPDEST PUSH0 DUP1 SLOAD PUSH2 0x263 SWAP1 PUSH2 0x5AA JUMP JUMPDEST DUP1 PUSH1 0x1F ADD PUSH1 0x20 DUP1 SWAP2 DIV MUL PUSH1 0x20 ADD PUSH1 0x40 MLOAD SWAP1 DUP2 ADD PUSH1 0x40 MSTORE DUP1 SWAP3 SWAP2 SWAP1 DUP2 DUP2 MSTORE PUSH1 0x20 ADD DUP3 DUP1 SLOAD PUSH2 0x28F SWAP1 PUSH2 0x5AA JUMP JUMPDEST DUP1 ISZERO PUSH2 0x2DA JUMPI DUP1 PUSH1 0x1F LT PUSH2 0x2B1 JUMPI PUSH2 0x100 DUP1 DUP4 SLOAD DIV MUL DUP4 MSTORE SWAP2 PUSH1 0x20 ADD SWAP2 PUSH2 0x2DA JUMP JUMPDEST DUP3 ADD SWAP2 SWAP1 PUSH0 MSTORE PUSH1 0x20 PUSH0 KECCAK256 SWAP1 JUMPDEST DUP2 SLOAD DUP2 MSTORE SWAP1 PUSH1 0x1 ADD SWAP1 PUSH1 0x20 ADD DUP1 DUP4 GT PUSH2 0x2BD JUMPI DUP3 SWAP1 SUB PUSH1 0x1F AND DUP3 ADD SWAP2 JUMPDEST POP POP POP POP POP DUP2 JUMP JUMPDEST PUSH1 0x2 PUSH0 SWAP1 SLOAD SWAP1 PUSH2 0x100 EXP SWAP1 DIV PUSH1 0xFF AND PUSH2 0x330 JUMPI PUSH1 0x40 MLOAD PUSH32 0x8C379A000000000000000000000000000000000000000000000000000000000 DUP2 MSTORE PUSH1 0x4 ADD PUSH2 0x327 SWAP1 PUSH2 0x55F JUMP JUMPDEST PUSH1 0x40 MLOAD DUP1 SWAP2 SUB SWAP1 REVERT JUMPDEST PUSH1 0xA PUSH1 0x1 SLOAD LT PUSH2 0x375 JUMPI PUSH1 0x40 MLOAD PUSH32 0x8C379A000000000000000000000000000000000000000000000000000000000 DUP2 MSTORE PUSH1 0x4 ADD PUSH2 0x36C SWAP1 PUSH2 0x624 JUMP JUMPDEST PUSH1 0x40 MLOAD DUP1 SWAP2 SUB SWAP1 REVERT JUMPDEST PUSH1 0x1 DUP1 PUSH0 DUP3 DUP3 SLOAD PUSH2 0x386 SWAP2 SWAP1 PUSH2 0x66F JUMP JUMPDEST SWAP3 POP POP DUP2 SWAP1 SSTORE POP JUMP JUMPDEST PUSH1 0x1 SLOAD DUP2 JUMP JUMPDEST PUSH0 PUSH1 0x2 PUSH0 PUSH2 0x100 EXP DUP2 SLOAD DUP2 PUSH1 0xFF MUL NOT AND SWAP1 DUP4 ISZERO ISZERO MUL OR SWAP1 SSTORE POP JUMP JUMPDEST PUSH1 0x2 PUSH1 0x1 SWAP1 SLOAD SWAP1 PUSH2 0x100 EXP SWAP1 DIV PUSH1 0xFF AND DUP2 JUMP JUMPDEST PUSH0 PUSH1 0x1 SLOAD GT PUSH2 0x407 JUMPI PUSH1 0x40 MLOAD PUSH32 0x8C379A000000000000000000000000000000000000000000000000000000000 DUP2 MSTORE PUSH1 0x4 ADD PUSH2 0x3FE SWAP1 PUSH2 0x6EC JUMP JUMPDEST PUSH1 0x40 MLOAD DUP1 SWAP2 SUB SWAP1 REVERT JUMPDEST PUSH1 0x1 DUP1 PUSH0 DUP3 DUP3 SLOAD PUSH2 0x418 SWAP2 SWAP1 PUSH2 0x70A JUMP JUMPDEST SWAP3 POP POP DUP2 SWAP1 SSTORE POP JUMP JUMPDEST PUSH0 DUP2 ISZERO ISZERO SWAP1 POP SWAP2 SWAP1 POP JUMP JUMPDEST PUSH2 0x435 DUP2 PUSH2 0x421 JUMP JUMPDEST DUP3 MSTORE POP POP JUMP JUMPDEST PUSH0 PUSH1 0x20 DUP3 ADD SWAP1 POP PUSH2 0x44E PUSH0 DUP4 ADD DUP5 PUSH2 0x42C JUMP JUMPDEST SWAP3 SWAP2 POP POP JUMP JUMPDEST PUSH0 DUP2 MLOAD SWAP1 POP SWAP2 SWAP1 POP JUMP JUMPDEST PUSH0 DUP3 DUP3 MSTORE PUSH1 0x20 DUP3 ADD SWAP1 POP SWAP3 SWAP2 POP POP JUMP JUMPDEST DUP3 DUP2 DUP4 MCOPY PUSH0 DUP4 DUP4 ADD MSTORE POP POP POP JUMP JUMPDEST PUSH0 PUSH1 0x1F NOT PUSH1 0x1F DUP4 ADD AND SWAP1 POP SWAP2 SWAP1 POP JUMP JUMPDEST PUSH0 PUSH2 0x496 DUP3 PUSH2 0x454 JUMP JUMPDEST PUSH2 0x4A0 DUP2 DUP6 PUSH2 0x45E JUMP JUMPDEST SWAP4 POP PUSH2 0x4B0 DUP2 DUP6 PUSH1 0x20 DUP7 ADD PUSH2 0x46E JUMP JUMPDEST PUSH2 0x4B9 DUP2 PUSH2 0x47C JUMP JUMPDEST DUP5 ADD SWAP2 POP POP SWAP3 SWAP2 POP POP JUMP JUMPDEST PUSH0 PUSH1 0x20 DUP3 ADD SWAP1 POP DUP2 DUP2 SUB PUSH0 DUP4 ADD MSTORE PUSH2 0x4DC DUP2 DUP5 PUSH2 0x48C JUMP JUMPDEST SWAP1 POP SWAP3 SWAP2 POP POP JUMP JUMPDEST PUSH0 DUP2 SWAP1 POP SWAP2 SWAP1 POP JUMP JUMPDEST PUSH2 0x4F6 DUP2 PUSH2 0x4E4 JUMP JUMPDEST DUP3 MSTORE POP POP JUMP JUMPDEST PUSH0 PUSH1 0x20 DUP3 ADD SWAP1 POP PUSH2 0x50F PUSH0 DUP4 ADD DUP5 PUSH2 0x4ED JUMP JUMPDEST SWAP3 SWAP2 POP POP JUMP JUMPDEST PUSH32 0x5475726E206F6E20746865205456206669727374000000000000000000000000 PUSH0 DUP3 ADD MSTORE POP JUMP JUMPDEST PUSH0 PUSH2 0x549 PUSH1 0x14 DUP4 PUSH2 0x45E JUMP JUMPDEST SWAP2 POP PUSH2 0x554 DUP3 PUSH2 0x515 JUMP JUMPDEST PUSH1 0x20 DUP3 ADD SWAP1 POP SWAP2 SWAP1 POP JUMP JUMPDEST PUSH0 PUSH1 0x20 DUP3 ADD SWAP1 POP DUP2 DUP2 SUB PUSH0 DUP4 ADD MSTORE PUSH2 0x576 DUP2 PUSH2 0x53D JUMP JUMPDEST SWAP1 POP SWAP2 SWAP1 POP JUMP JUMPDEST PUSH32 0x4E487B7100000000000000000000000000000000000000000000000000000000 PUSH0 MSTORE PUSH1 0x22 PUSH1 0x4 MSTORE PUSH1 0x24 PUSH0 REVERT JUMPDEST PUSH0 PUSH1 0x2 DUP3 DIV SWAP1 POP PUSH1 0x1 DUP3 AND DUP1 PUSH2 0x5C1 JUMPI PUSH1 0x7F DUP3 AND SWAP2 POP JUMPDEST PUSH1 0x20 DUP3 LT DUP2 SUB PUSH2 0x5D4 JUMPI PUSH2 0x5D3 PUSH2 0x57D JUMP JUMPDEST JUMPDEST POP SWAP2 SWAP1 POP JUMP JUMPDEST PUSH32 0x596F757220766F6C756D65206973203130000000000000000000000000000000 PUSH0 DUP3 ADD MSTORE POP JUMP JUMPDEST PUSH0 PUSH2 0x60E PUSH1 0x11 DUP4 PUSH2 0x45E JUMP JUMPDEST SWAP2 POP PUSH2 0x619 DUP3 PUSH2 0x5DA JUMP JUMPDEST PUSH1 0x20 DUP3 ADD SWAP1 POP SWAP2 SWAP1 POP JUMP JUMPDEST PUSH0 PUSH1 0x20 DUP3 ADD SWAP1 POP DUP2 DUP2 SUB PUSH0 DUP4 ADD MSTORE PUSH2 0x63B DUP2 PUSH2 0x602 JUMP JUMPDEST SWAP1 POP SWAP2 SWAP1 POP JUMP JUMPDEST PUSH32 0x4E487B7100000000000000000000000000000000000000000000000000000000 PUSH0 MSTORE PUSH1 0x11 PUSH1 0x4 MSTORE PUSH1 0x24 PUSH0 REVERT JUMPDEST PUSH0 PUSH2 0x679 DUP3 PUSH2 0x4E4 JUMP JUMPDEST SWAP2 POP PUSH2 0x684 DUP4 PUSH2 0x4E4 JUMP JUMPDEST SWAP3 POP DUP3 DUP3 ADD SWAP1 POP DUP1 DUP3 GT ISZERO PUSH2 0x69C JUMPI PUSH2 0x69B PUSH2 0x642 JUMP JUMPDEST JUMPDEST SWAP3 SWAP2 POP POP JUMP JUMPDEST PUSH32 0x596F757220766F6C756D65206973203000000000000000000000000000000000 PUSH0 DUP3 ADD MSTORE POP JUMP JUMPDEST PUSH0 PUSH2 0x6D6 PUSH1 0x10 DUP4 PUSH2 0x45E JUMP JUMPDEST SWAP2 POP PUSH2 0x6E1 DUP3 PUSH2 0x6A2 JUMP JUMPDEST PUSH1 0x20 DUP3 ADD SWAP1 POP SWAP2 SWAP1 POP JUMP JUMPDEST PUSH0 PUSH1 0x20 DUP3 ADD SWAP1 POP DUP2 DUP2 SUB PUSH0 DUP4 ADD MSTORE PUSH2 0x703 DUP2 PUSH2 0x6CA JUMP JUMPDEST SWAP1 POP SWAP2 SWAP1 POP JUMP JUMPDEST PUSH0 PUSH2 0x714 DUP3 PUSH2 0x4E4 JUMP JUMPDEST SWAP2 POP PUSH2 0x71F DUP4 PUSH2 0x4E4 JUMP JUMPDEST SWAP3 POP DUP3 DUP3 SUB SWAP1 POP DUP2 DUP2 GT ISZERO PUSH2 0x737 JUMPI PUSH2 0x736 PUSH2 0x642 JUMP JUMPDEST JUMPDEST SWAP3 SWAP2 POP POP JUMP INVALID LOG2 PUSH5 0x6970667358 0x22 SLT KECCAK256 CALL DUP4 0xD1 CREATE MSTORE8 RETURNDATASIZE PUSH29 0xB678BAFB827D7D98EAA356EBFF1D83D1EFAFFB900E8492842764736F6C PUSH4 0x4300081A STOP CALLER "
				},
				"gasEstimates": {
					"creation": {
						"codeDepositCost": "381400",
						"executionCost": "24732",
						"totalCost": "406132"
					},
					"external": {
						"TvOff()": "24452",
						"TvOn()": "24432",
						"brand()": "infinite",
						"decreaseVolume()": "infinite",
						"disableGamingMode()": "26678",
						"enableGamingMode()": "26613",
						"gamingMood()": "2583",
						"increaseVolume()": "infinite",
						"isOn()": "2511",
						"volume()": "2447"
					}
				},
				"methodIdentifiers": {
					"TvOff()": "ce5087f7",
					"TvOn()": "13323b61",
					"brand()": "2d9fff01",
					"decreaseVolume()": "d76704c2",
					"disableGamingMode()": "26a0c7de",
					"enableGamingMode()": "026dc293",
					"gamingMood()": "d265ffac",
					"increaseVolume()": "871115da",
					"isOn()": "175bbecf",
					"volume()": "c618a1e4"
				}
			},
			"storageLayout": {
				"storage": [
					{
						"astId": 3,
						"contract": "contracts/TVInterface.sol:GamingTV",
						"label": "brand",
						"offset": 0,
						"slot": "0",
						"type": "t_string_storage"
					},
					{
						"astId": 5,
						"contract": "contracts/TVInterface.sol:GamingTV",
						"label": "volume",
						"offset": 0,
						"slot": "1",
						"type": "t_uint256"
					},
					{
						"astId": 7,
						"contract": "contracts/TVInterface.sol:GamingTV",
						"label": "isOn",
						"offset": 0,
						"slot": "2",
						"type": "t_bool"
					},
					{
						"astId": 172,
						"contract": "contracts/TVInterface.sol:GamingTV",
						"label": "gamingMood",
						"offset": 1,
						"slot": "2",
						"type": "t_bool"
					}
				],
				"types": {
					"t_bool": {
						"encoding": "inplace",
						"label": "bool",
						"numberOfBytes": "1"
					},
					"t_string_storage": {
						"encoding": "bytes",
						"label": "string",
						"numberOfBytes": "32"
					},
					"t_uint256": {
						"encoding": "inplace",
						"label": "uint256",
						"numberOfBytes": "32"
					}
				}
			},
			"userdoc": {
				"kind": "user",
				"methods": {},
				"version": 1
			}
		}
	}
}