{
	"contracts/TVInterface.sol": {
		"Tv": {
			"abi": [
				{
					"inputs": [],
					"name": "TvOff",
					"outputs": [],
					"stateMutability": "nonpayable",
					"type": "function"
				},
				{
					"inputs": [],
					"name": "TvOn",
					"outputs": [],
					"stateMutability": "nonpayable",
					"type": "function"
				},
				{
					"inputs": [],
					"name": "brand",
					"outputs": [
						{
							"internalType": "string",
							"name": "",
							"type": "string"
						}
					],
					"stateMutability": "view",
					"type": "function"
				},
				{
					"inputs": [],
					"name": "decreaseVolume",
					"outputs": [],
					"stateMutability": "nonpayable",
					"type": "function"
				},
				{
					"inputs": [],
					"name": "increaseVolume",
					"outputs": [],
					"stateMutability": "nonpayable",
					"type": "function"
				},
				{
					"inputs": [],
					"name": "isOn",
					"outputs": [
						{
							"internalType": "bool",
							"name": "",
							"type": "bool"
						}
					],
					"stateMutability": "view",
					"type": "function"
				},
				{
					"inputs": [],
					"name": "volume",
					"outputs": [
						{
							"internalType": "uint256",
							"name": "",
							"type": "uint256"
						}
					],
					"stateMutability": "view",
					"type": "function"
				}
			],
			"devdoc": {
				"kind": "dev",
				"methods": {},
				"version": 1
			},
			"evm": {
				"assembly": "    /* \"contracts/TVInterface.sol\":58:602  contract Tv {... */\n  mstore(0x40, 0x80)\n  callvalue\n  dup1\n  iszero\n  tag_1\n  jumpi\n  0x00\n  dup1\n  revert\ntag_1:\n  pop\n  dataSize(sub_0)\n  dup1\n  dataOffset(sub_0)\n  0x00\n  codecopy\n  0x00\n  return\nstop\n\nsub_0: assembly {\n        /* \"contracts/TVInterface.sol\":58:602  contract Tv {... */\n      mstore(0x40, 0x80)\n      callvalue\n      dup1\n      iszero\n      tag_1\n      jumpi\n      0x00\n      dup1\n      revert\n    tag_1:\n      pop\n      jumpi(tag_2, lt(calldatasize, 0x04))\n      shr(0xe0, calldataload(0x00))\n      dup1\n      0x871115da\n      gt\n      tag_10\n      jumpi\n      dup1\n      0x871115da\n      eq\n      tag_6\n      jumpi\n      dup1\n      0xc618a1e4\n      eq\n      tag_7\n      jumpi\n      dup1\n      0xce5087f7\n      eq\n      tag_8\n      jumpi\n      dup1\n      0xd76704c2\n      eq\n      tag_9\n      jumpi\n      jump(tag_2)\n    tag_10:\n      dup1\n      0x13323b61\n      eq\n      tag_3\n      jumpi\n      dup1\n      0x175bbecf\n      eq\n      tag_4\n      jumpi\n      dup1\n      0x2d9fff01\n      eq\n      tag_5\n      jumpi\n    tag_2:\n      0x00\n      dup1\n      revert\n        /* \"contracts/TVInterface.sol\":240:291  function TvOn() public {... */\n    tag_3:\n      tag_11\n      tag_12\n      jump\t// in\n    tag_11:\n      stop\n        /* \"contracts/TVInterface.sol\":128:144  bool public isOn */\n    tag_4:\n      tag_13\n      tag_14\n      jump\t// in\n    tag_13:\n      mload(0x40)\n      tag_15\n      swap2\n      swap1\n      tag_16\n      jump\t// in\n    tag_15:\n      mload(0x40)\n      dup1\n      swap2\n      sub\n      swap1\n      return\n        /* \"contracts/TVInterface.sol\":76:95  string public brand */\n    tag_5:\n      tag_17\n      tag_18\n      jump\t// in\n    tag_17:\n      mload(0x40)\n      tag_19\n      swap2\n      swap1\n      tag_20\n      jump\t// in\n    tag_19:\n      mload(0x40)\n      dup1\n      swap2\n      sub\n      swap1\n      return\n        /* \"contracts/TVInterface.sol\":364:484  function increaseVolume() public virtual {... */\n    tag_6:\n      tag_21\n      tag_22\n      jump\t// in\n    tag_21:\n      stop\n        /* \"contracts/TVInterface.sol\":101:122  uint256 public volume */\n    tag_7:\n      tag_23\n      tag_24\n      jump\t// in\n    tag_23:\n      mload(0x40)\n      tag_25\n      swap2\n      swap1\n      tag_26\n      jump\t// in\n    tag_25:\n      mload(0x40)\n      dup1\n      swap2\n      sub\n      swap1\n      return\n        /* \"contracts/TVInterface.sol\":297:358  function TvOff() public virtual {... */\n    tag_8:\n      tag_27\n      tag_28\n      jump\t// in\n    tag_27:\n      stop\n        /* \"contracts/TVInterface.sol\":490:600  function decreaseVolume() public {... */\n    tag_9:\n      tag_29\n      tag_30\n      jump\t// in\n    tag_29:\n      stop\n        /* \"contracts/TVInterface.sol\":240:291  function TvOn() public {... */\n    tag_12:\n        /* \"contracts/TVInterface.sol\":280:284  true */\n      0x01\n        /* \"contracts/TVInterface.sol\":273:277  isOn */\n      0x02\n      0x00\n        /* \"contracts/TVInterface.sol\":273:284  isOn = true */\n      0x0100\n      exp\n      dup2\n      sload\n      dup2\n      0xff\n      mul\n      not\n      and\n      swap1\n      dup4\n      iszero\n      iszero\n      mul\n      or\n      swap1\n      sstore\n      pop\n        /* \"contracts/TVInterface.sol\":240:291  function TvOn() public {... */\n      jump\t// out\n        /* \"contracts/TVInterface.sol\":128:144  bool public isOn */\n    tag_14:\n      0x02\n      0x00\n      swap1\n      sload\n      swap1\n      0x0100\n      exp\n      swap1\n      div\n      0xff\n      and\n      dup2\n      jump\t// out\n        /* \"contracts/TVInterface.sol\":76:95  string public brand */\n    tag_18:\n      0x00\n      dup1\n      sload\n      tag_32\n      swap1\n      tag_33\n      jump\t// in\n    tag_32:\n      dup1\n      0x1f\n      add\n      0x20\n      dup1\n      swap2\n      div\n      mul\n      0x20\n      add\n      mload(0x40)\n      swap1\n      dup2\n      add\n      0x40\n      mstore\n      dup1\n      swap3\n      swap2\n      swap1\n      dup2\n      dup2\n      mstore\n      0x20\n      add\n      dup3\n      dup1\n      sload\n      tag_34\n      swap1\n      tag_33\n      jump\t// in\n    tag_34:\n      dup1\n      iszero\n      tag_35\n      jumpi\n      dup1\n      0x1f\n      lt\n      tag_36\n      jumpi\n      0x0100\n      dup1\n      dup4\n      sload\n      div\n      mul\n      dup4\n      mstore\n      swap2\n      0x20\n      add\n      swap2\n      jump(tag_35)\n    tag_36:\n      dup3\n      add\n      swap2\n      swap1\n      0x00\n      mstore\n      keccak256(0x00, 0x20)\n      swap1\n    tag_37:\n      dup2\n      sload\n      dup2\n      mstore\n      swap1\n      0x01\n      add\n      swap1\n      0x20\n      add\n      dup1\n      dup4\n      gt\n      tag_37\n      jumpi\n      dup3\n      swap1\n      sub\n      0x1f\n      and\n      dup3\n      add\n      swap2\n    tag_35:\n      pop\n      pop\n      pop\n      pop\n      pop\n      dup2\n      jump\t// out\n        /* \"contracts/TVInterface.sol\":364:484  function increaseVolume() public virtual {... */\n    tag_22:\n        /* \"contracts/TVInterface.sol\":432:434  10 */\n      0x0a\n        /* \"contracts/TVInterface.sol\":423:429  volume */\n      sload(0x01)\n        /* \"contracts/TVInterface.sol\":423:434  volume < 10 */\n      lt\n        /* \"contracts/TVInterface.sol\":415:456  require(volume < 10, \"Your volume is 10\") */\n      tag_39\n      jumpi\n      mload(0x40)\n      0x08c379a000000000000000000000000000000000000000000000000000000000\n      dup2\n      mstore\n      0x04\n      add\n      tag_40\n      swap1\n      tag_41\n      jump\t// in\n    tag_40:\n      mload(0x40)\n      dup1\n      swap2\n      sub\n      swap1\n      revert\n    tag_39:\n        /* \"contracts/TVInterface.sol\":476:477  1 */\n      0x01\n        /* \"contracts/TVInterface.sol\":466:472  volume */\n      dup1\n      0x00\n        /* \"contracts/TVInterface.sol\":466:477  volume += 1 */\n      dup3\n      dup3\n      sload\n      tag_42\n      swap2\n      swap1\n      tag_43\n      jump\t// in\n    tag_42:\n      swap3\n      pop\n      pop\n      dup2\n      swap1\n      sstore\n      pop\n        /* \"contracts/TVInterface.sol\":364:484  function increaseVolume() public virtual {... */\n      jump\t// out\n        /* \"contracts/TVInterface.sol\":101:122  uint256 public volume */\n    tag_24:\n      sload(0x01)\n      dup2\n      jump\t// out\n        /* \"contracts/TVInterface.sol\":297:358  function TvOff() public virtual {... */\n    tag_28:\n        /* \"contracts/TVInterface.sol\":346:351  false */\n      0x00\n        /* \"contracts/TVInterface.sol\":339:343  isOn */\n      0x02\n      0x00\n        /* \"contracts/TVInterface.sol\":339:351  isOn = false */\n      0x0100\n      exp\n      dup2\n      sload\n      dup2\n      0xff\n      mul\n      not\n      and\n      swap1\n      dup4\n      iszero\n      iszero\n      mul\n      or\n      swap1\n      sstore\n      pop\n        /* \"contracts/TVInterface.sol\":297:358  function TvOff() public virtual {... */\n      jump\t// out\n        /* \"contracts/TVInterface.sol\":490:600  function decreaseVolume() public {... */\n    tag_30:\n        /* \"contracts/TVInterface.sol\":550:551  0 */\n      0x00\n        /* \"contracts/TVInterface.sol\":541:547  volume */\n      sload(0x01)\n        /* \"contracts/TVInterface.sol\":541:551  volume > 0 */\n      gt\n        /* \"contracts/TVInterface.sol\":533:572  require(volume > 0, \"Your volume is 0\") */\n      tag_46\n      jumpi\n      mload(0x40)\n      0x08c379a000000000000000000000000000000000000000000000000000000000\n      dup2\n      mstore\n      0x04\n      add\n      tag_47\n      swap1\n      tag_48\n      jump\t// in\n    tag_47:\n      mload(0x40)\n      dup1\n      swap2\n      sub\n      swap1\n      revert\n    tag_46:\n        /* \"contracts/TVInterface.sol\":592:593  1 */\n      0x01\n        /* \"contracts/TVInterface.sol\":582:588  volume */\n      dup1\n      0x00\n        /* \"contracts/TVInterface.sol\":582:593  volume -= 1 */\n      dup3\n      dup3\n      sload\n      tag_49\n      swap2\n      swap1\n      tag_50\n      jump\t// in\n    tag_49:\n      swap3\n      pop\n      pop\n      dup2\n      swap1\n      sstore\n      pop\n        /* \"contracts/TVInterface.sol\":490:600  function decreaseVolume() public {... */\n      jump\t// out\n        /* \"#utility.yul\":7:97   */\n    tag_51:\n        /* \"#utility.yul\":41:48   */\n      0x00\n        /* \"#utility.yul\":84:89   */\n      dup2\n        /* \"#utility.yul\":77:90   */\n      iszero\n        /* \"#utility.yul\":70:91   */\n      iszero\n        /* \"#utility.yul\":59:91   */\n      swap1\n      pop\n        /* \"#utility.yul\":7:97   */\n      swap2\n      swap1\n      pop\n      jump\t// out\n        /* \"#utility.yul\":103:212   */\n    tag_52:\n        /* \"#utility.yul\":184:205   */\n      tag_69\n        /* \"#utility.yul\":199:204   */\n      dup2\n        /* \"#utility.yul\":184:205   */\n      tag_51\n      jump\t// in\n    tag_69:\n        /* \"#utility.yul\":179:182   */\n      dup3\n        /* \"#utility.yul\":172:206   */\n      mstore\n        /* \"#utility.yul\":103:212   */\n      pop\n      pop\n      jump\t// out\n        /* \"#utility.yul\":218:428   */\n    tag_16:\n        /* \"#utility.yul\":305:309   */\n      0x00\n        /* \"#utility.yul\":343:345   */\n      0x20\n        /* \"#utility.yul\":332:341   */\n      dup3\n        /* \"#utility.yul\":328:346   */\n      add\n        /* \"#utility.yul\":320:346   */\n      swap1\n      pop\n        /* \"#utility.yul\":356:421   */\n      tag_71\n        /* \"#utility.yul\":418:419   */\n      0x00\n        /* \"#utility.yul\":407:416   */\n      dup4\n        /* \"#utility.yul\":403:420   */\n      add\n        /* \"#utility.yul\":394:400   */\n      dup5\n        /* \"#utility.yul\":356:421   */\n      tag_52\n      jump\t// in\n    tag_71:\n        /* \"#utility.yul\":218:428   */\n      swap3\n      swap2\n      pop\n      pop\n      jump\t// out\n        /* \"#utility.yul\":434:533   */\n    tag_53:\n        /* \"#utility.yul\":486:492   */\n      0x00\n        /* \"#utility.yul\":520:525   */\n      dup2\n        /* \"#utility.yul\":514:526   */\n      mload\n        /* \"#utility.yul\":504:526   */\n      swap1\n      pop\n        /* \"#utility.yul\":434:533   */\n      swap2\n      swap1\n      pop\n      jump\t// out\n        /* \"#utility.yul\":539:708   */\n    tag_54:\n        /* \"#utility.yul\":623:634   */\n      0x00\n        /* \"#utility.yul\":657:663   */\n      dup3\n        /* \"#utility.yul\":652:655   */\n      dup3\n        /* \"#utility.yul\":645:664   */\n      mstore\n        /* \"#utility.yul\":697:701   */\n      0x20\n        /* \"#utility.yul\":692:695   */\n      dup3\n        /* \"#utility.yul\":688:702   */\n      add\n        /* \"#utility.yul\":673:702   */\n      swap1\n      pop\n        /* \"#utility.yul\":539:708   */\n      swap3\n      swap2\n      pop\n      pop\n      jump\t// out\n        /* \"#utility.yul\":714:853   */\n    tag_55:\n        /* \"#utility.yul\":803:809   */\n      dup3\n        /* \"#utility.yul\":798:801   */\n      dup2\n        /* \"#utility.yul\":793:796   */\n      dup4\n        /* \"#utility.yul\":787:810   */\n      mcopy\n        /* \"#utility.yul\":844:845   */\n      0x00\n        /* \"#utility.yul\":835:841   */\n      dup4\n        /* \"#utility.yul\":830:833   */\n      dup4\n        /* \"#utility.yul\":826:842   */\n      add\n        /* \"#utility.yul\":819:846   */\n      mstore\n        /* \"#utility.yul\":714:853   */\n      pop\n      pop\n      pop\n      jump\t// out\n        /* \"#utility.yul\":859:961   */\n    tag_56:\n        /* \"#utility.yul\":900:906   */\n      0x00\n        /* \"#utility.yul\":951:953   */\n      0x1f\n        /* \"#utility.yul\":947:954   */\n      not\n        /* \"#utility.yul\":942:944   */\n      0x1f\n        /* \"#utility.yul\":935:940   */\n      dup4\n        /* \"#utility.yul\":931:945   */\n      add\n        /* \"#utility.yul\":927:955   */\n      and\n        /* \"#utility.yul\":917:955   */\n      swap1\n      pop\n        /* \"#utility.yul\":859:961   */\n      swap2\n      swap1\n      pop\n      jump\t// out\n        /* \"#utility.yul\":967:1344   */\n    tag_57:\n        /* \"#utility.yul\":1055:1058   */\n      0x00\n        /* \"#utility.yul\":1083:1122   */\n      tag_77\n        /* \"#utility.yul\":1116:1121   */\n      dup3\n        /* \"#utility.yul\":1083:1122   */\n      tag_53\n      jump\t// in\n    tag_77:\n        /* \"#utility.yul\":1138:1209   */\n      tag_78\n        /* \"#utility.yul\":1202:1208   */\n      dup2\n        /* \"#utility.yul\":1197:1200   */\n      dup6\n        /* \"#utility.yul\":1138:1209   */\n      tag_54\n      jump\t// in\n    tag_78:\n        /* \"#utility.yul\":1131:1209   */\n      swap4\n      pop\n        /* \"#utility.yul\":1218:1283   */\n      tag_79\n        /* \"#utility.yul\":1276:1282   */\n      dup2\n        /* \"#utility.yul\":1271:1274   */\n      dup6\n        /* \"#utility.yul\":1264:1268   */\n      0x20\n        /* \"#utility.yul\":1257:1262   */\n      dup7\n        /* \"#utility.yul\":1253:1269   */\n      add\n        /* \"#utility.yul\":1218:1283   */\n      tag_55\n      jump\t// in\n    tag_79:\n        /* \"#utility.yul\":1308:1337   */\n      tag_80\n        /* \"#utility.yul\":1330:1336   */\n      dup2\n        /* \"#utility.yul\":1308:1337   */\n      tag_56\n      jump\t// in\n    tag_80:\n        /* \"#utility.yul\":1303:1306   */\n      dup5\n        /* \"#utility.yul\":1299:1338   */\n      add\n        /* \"#utility.yul\":1292:1338   */\n      swap2\n      pop\n        /* \"#utility.yul\":1059:1344   */\n      pop\n        /* \"#utility.yul\":967:1344   */\n      swap3\n      swap2\n      pop\n      pop\n      jump\t// out\n        /* \"#utility.yul\":1350:1663   */\n    tag_20:\n        /* \"#utility.yul\":1463:1467   */\n      0x00\n        /* \"#utility.yul\":1501:1503   */\n      0x20\n        /* \"#utility.yul\":1490:1499   */\n      dup3\n        /* \"#utility.yul\":1486:1504   */\n      add\n        /* \"#utility.yul\":1478:1504   */\n      swap1\n      pop\n        /* \"#utility.yul\":1550:1559   */\n      dup2\n        /* \"#utility.yul\":1544:1548   */\n      dup2\n        /* \"#utility.yul\":1540:1560   */\n      sub\n        /* \"#utility.yul\":1536:1537   */\n      0x00\n        /* \"#utility.yul\":1525:1534   */\n      dup4\n        /* \"#utility.yul\":1521:1538   */\n      add\n        /* \"#utility.yul\":1514:1561   */\n      mstore\n        /* \"#utility.yul\":1578:1656   */\n      tag_82\n        /* \"#utility.yul\":1651:1655   */\n      dup2\n        /* \"#utility.yul\":1642:1648   */\n      dup5\n        /* \"#utility.yul\":1578:1656   */\n      tag_57\n      jump\t// in\n    tag_82:\n        /* \"#utility.yul\":1570:1656   */\n      swap1\n      pop\n        /* \"#utility.yul\":1350:1663   */\n      swap3\n      swap2\n      pop\n      pop\n      jump\t// out\n        /* \"#utility.yul\":1669:1746   */\n    tag_58:\n        /* \"#utility.yul\":1706:1713   */\n      0x00\n        /* \"#utility.yul\":1735:1740   */\n      dup2\n        /* \"#utility.yul\":1724:1740   */\n      swap1\n      pop\n        /* \"#utility.yul\":1669:1746   */\n      swap2\n      swap1\n      pop\n      jump\t// out\n        /* \"#utility.yul\":1752:1870   */\n    tag_59:\n        /* \"#utility.yul\":1839:1863   */\n      tag_85\n        /* \"#utility.yul\":1857:1862   */\n      dup2\n        /* \"#utility.yul\":1839:1863   */\n      tag_58\n      jump\t// in\n    tag_85:\n        /* \"#utility.yul\":1834:1837   */\n      dup3\n        /* \"#utility.yul\":1827:1864   */\n      mstore\n        /* \"#utility.yul\":1752:1870   */\n      pop\n      pop\n      jump\t// out\n        /* \"#utility.yul\":1876:2098   */\n    tag_26:\n        /* \"#utility.yul\":1969:1973   */\n      0x00\n        /* \"#utility.yul\":2007:2009   */\n      0x20\n        /* \"#utility.yul\":1996:2005   */\n      dup3\n        /* \"#utility.yul\":1992:2010   */\n      add\n        /* \"#utility.yul\":1984:2010   */\n      swap1\n      pop\n        /* \"#utility.yul\":2020:2091   */\n      tag_87\n        /* \"#utility.yul\":2088:2089   */\n      0x00\n        /* \"#utility.yul\":2077:2086   */\n      dup4\n        /* \"#utility.yul\":2073:2090   */\n      add\n        /* \"#utility.yul\":2064:2070   */\n      dup5\n        /* \"#utility.yul\":2020:2091   */\n      tag_59\n      jump\t// in\n    tag_87:\n        /* \"#utility.yul\":1876:2098   */\n      swap3\n      swap2\n      pop\n      pop\n      jump\t// out\n        /* \"#utility.yul\":2104:2284   */\n    tag_60:\n        /* \"#utility.yul\":2152:2229   */\n      0x4e487b7100000000000000000000000000000000000000000000000000000000\n        /* \"#utility.yul\":2149:2150   */\n      0x00\n        /* \"#utility.yul\":2142:2230   */\n      mstore\n        /* \"#utility.yul\":2249:2253   */\n      0x22\n        /* \"#utility.yul\":2246:2247   */\n      0x04\n        /* \"#utility.yul\":2239:2254   */\n      mstore\n        /* \"#utility.yul\":2273:2277   */\n      0x24\n        /* \"#utility.yul\":2270:2271   */\n      0x00\n        /* \"#utility.yul\":2263:2278   */\n      revert\n        /* \"#utility.yul\":2290:2610   */\n    tag_33:\n        /* \"#utility.yul\":2334:2340   */\n      0x00\n        /* \"#utility.yul\":2371:2372   */\n      0x02\n        /* \"#utility.yul\":2365:2369   */\n      dup3\n        /* \"#utility.yul\":2361:2373   */\n      div\n        /* \"#utility.yul\":2351:2373   */\n      swap1\n      pop\n        /* \"#utility.yul\":2418:2419   */\n      0x01\n        /* \"#utility.yul\":2412:2416   */\n      dup3\n        /* \"#utility.yul\":2408:2420   */\n      and\n        /* \"#utility.yul\":2439:2457   */\n      dup1\n        /* \"#utility.yul\":2429:2510   */\n      tag_90\n      jumpi\n        /* \"#utility.yul\":2495:2499   */\n      0x7f\n        /* \"#utility.yul\":2487:2493   */\n      dup3\n        /* \"#utility.yul\":2483:2500   */\n      and\n        /* \"#utility.yul\":2473:2500   */\n      swap2\n      pop\n        /* \"#utility.yul\":2429:2510   */\n    tag_90:\n        /* \"#utility.yul\":2557:2559   */\n      0x20\n        /* \"#utility.yul\":2549:2555   */\n      dup3\n        /* \"#utility.yul\":2546:2560   */\n      lt\n        /* \"#utility.yul\":2526:2544   */\n      dup2\n        /* \"#utility.yul\":2523:2561   */\n      sub\n        /* \"#utility.yul\":2520:2604   */\n      tag_91\n      jumpi\n        /* \"#utility.yul\":2576:2594   */\n      tag_92\n      tag_60\n      jump\t// in\n    tag_92:\n        /* \"#utility.yul\":2520:2604   */\n    tag_91:\n        /* \"#utility.yul\":2341:2610   */\n      pop\n        /* \"#utility.yul\":2290:2610   */\n      swap2\n      swap1\n      pop\n      jump\t// out\n        /* \"#utility.yul\":2616:2783   */\n    tag_61:\n        /* \"#utility.yul\":2756:2775   */\n      0x596f757220766f6c756d65206973203130000000000000000000000000000000\n        /* \"#utility.yul\":2752:2753   */\n      0x00\n        /* \"#utility.yul\":2744:2750   */\n      dup3\n        /* \"#utility.yul\":2740:2754   */\n      add\n        /* \"#utility.yul\":2733:2776   */\n      mstore\n        /* \"#utility.yul\":2616:2783   */\n      pop\n      jump\t// out\n        /* \"#utility.yul\":2789:3155   */\n    tag_62:\n        /* \"#utility.yul\":2931:2934   */\n      0x00\n        /* \"#utility.yul\":2952:3019   */\n      tag_95\n        /* \"#utility.yul\":3016:3018   */\n      0x11\n        /* \"#utility.yul\":3011:3014   */\n      dup4\n        /* \"#utility.yul\":2952:3019   */\n      tag_54\n      jump\t// in\n    tag_95:\n        /* \"#utility.yul\":2945:3019   */\n      swap2\n      pop\n        /* \"#utility.yul\":3028:3121   */\n      tag_96\n        /* \"#utility.yul\":3117:3120   */\n      dup3\n        /* \"#utility.yul\":3028:3121   */\n      tag_61\n      jump\t// in\n    tag_96:\n        /* \"#utility.yul\":3146:3148   */\n      0x20\n        /* \"#utility.yul\":3141:3144   */\n      dup3\n        /* \"#utility.yul\":3137:3149   */\n      add\n        /* \"#utility.yul\":3130:3149   */\n      swap1\n      pop\n        /* \"#utility.yul\":2789:3155   */\n      swap2\n      swap1\n      pop\n      jump\t// out\n        /* \"#utility.yul\":3161:3580   */\n    tag_41:\n        /* \"#utility.yul\":3327:3331   */\n      0x00\n        /* \"#utility.yul\":3365:3367   */\n      0x20\n        /* \"#utility.yul\":3354:3363   */\n      dup3\n        /* \"#utility.yul\":3350:3368   */\n      add\n        /* \"#utility.yul\":3342:3368   */\n      swap1\n      pop\n        /* \"#utility.yul\":3414:3423   */\n      dup2\n        /* \"#utility.yul\":3408:3412   */\n      dup2\n        /* \"#utility.yul\":3404:3424   */\n      sub\n        /* \"#utility.yul\":3400:3401   */\n      0x00\n        /* \"#utility.yul\":3389:3398   */\n      dup4\n        /* \"#utility.yul\":3385:3402   */\n      add\n        /* \"#utility.yul\":3378:3425   */\n      mstore\n        /* \"#utility.yul\":3442:3573   */\n      tag_98\n        /* \"#utility.yul\":3568:3572   */\n      dup2\n        /* \"#utility.yul\":3442:3573   */\n      tag_62\n      jump\t// in\n    tag_98:\n        /* \"#utility.yul\":3434:3573   */\n      swap1\n      pop\n        /* \"#utility.yul\":3161:3580   */\n      swap2\n      swap1\n      pop\n      jump\t// out\n        /* \"#utility.yul\":3586:3766   */\n    tag_63:\n        /* \"#utility.yul\":3634:3711   */\n      0x4e487b7100000000000000000000000000000000000000000000000000000000\n        /* \"#utility.yul\":3631:3632   */\n      0x00\n        /* \"#utility.yul\":3624:3712   */\n      mstore\n        /* \"#utility.yul\":3731:3735   */\n      0x11\n        /* \"#utility.yul\":3728:3729   */\n      0x04\n        /* \"#utility.yul\":3721:3736   */\n      mstore\n        /* \"#utility.yul\":3755:3759   */\n      0x24\n        /* \"#utility.yul\":3752:3753   */\n      0x00\n        /* \"#utility.yul\":3745:3760   */\n      revert\n        /* \"#utility.yul\":3772:3963   */\n    tag_43:\n        /* \"#utility.yul\":3812:3815   */\n      0x00\n        /* \"#utility.yul\":3831:3851   */\n      tag_101\n        /* \"#utility.yul\":3849:3850   */\n      dup3\n        /* \"#utility.yul\":3831:3851   */\n      tag_58\n      jump\t// in\n    tag_101:\n        /* \"#utility.yul\":3826:3851   */\n      swap2\n      pop\n        /* \"#utility.yul\":3865:3885   */\n      tag_102\n        /* \"#utility.yul\":3883:3884   */\n      dup4\n        /* \"#utility.yul\":3865:3885   */\n      tag_58\n      jump\t// in\n    tag_102:\n        /* \"#utility.yul\":3860:3885   */\n      swap3\n      pop\n        /* \"#utility.yul\":3908:3909   */\n      dup3\n        /* \"#utility.yul\":3905:3906   */\n      dup3\n        /* \"#utility.yul\":3901:3910   */\n      add\n        /* \"#utility.yul\":3894:3910   */\n      swap1\n      pop\n        /* \"#utility.yul\":3929:3932   */\n      dup1\n        /* \"#utility.yul\":3926:3927   */\n      dup3\n        /* \"#utility.yul\":3923:3933   */\n      gt\n        /* \"#utility.yul\":3920:3956   */\n      iszero\n      tag_103\n      jumpi\n        /* \"#utility.yul\":3936:3954   */\n      tag_104\n      tag_63\n      jump\t// in\n    tag_104:\n        /* \"#utility.yul\":3920:3956   */\n    tag_103:\n        /* \"#utility.yul\":3772:3963   */\n      swap3\n      swap2\n      pop\n      pop\n      jump\t// out\n        /* \"#utility.yul\":3969:4135   */\n    tag_64:\n        /* \"#utility.yul\":4109:4127   */\n      0x596f757220766f6c756d65206973203000000000000000000000000000000000\n        /* \"#utility.yul\":4105:4106   */\n      0x00\n        /* \"#utility.yul\":4097:4103   */\n      dup3\n        /* \"#utility.yul\":4093:4107   */\n      add\n        /* \"#utility.yul\":4086:4128   */\n      mstore\n        /* \"#utility.yul\":3969:4135   */\n      pop\n      jump\t// out\n        /* \"#utility.yul\":4141:4507   */\n    tag_65:\n        /* \"#utility.yul\":4283:4286   */\n      0x00\n        /* \"#utility.yul\":4304:4371   */\n      tag_107\n        /* \"#utility.yul\":4368:4370   */\n      0x10\n        /* \"#utility.yul\":4363:4366   */\n      dup4\n        /* \"#utility.yul\":4304:4371   */\n      tag_54\n      jump\t// in\n    tag_107:\n        /* \"#utility.yul\":4297:4371   */\n      swap2\n      pop\n        /* \"#utility.yul\":4380:4473   */\n      tag_108\n        /* \"#utility.yul\":4469:4472   */\n      dup3\n        /* \"#utility.yul\":4380:4473   */\n      tag_64\n      jump\t// in\n    tag_108:\n        /* \"#utility.yul\":4498:4500   */\n      0x20\n        /* \"#utility.yul\":4493:4496   */\n      dup3\n        /* \"#utility.yul\":4489:4501   */\n      add\n        /* \"#utility.yul\":4482:4501   */\n      swap1\n      pop\n        /* \"#utility.yul\":4141:4507   */\n      swap2\n      swap1\n      pop\n      jump\t// out\n        /* \"#utility.yul\":4513:4932   */\n    tag_48:\n        /* \"#utility.yul\":4679:4683   */\n      0x00\n        /* \"#utility.yul\":4717:4719   */\n      0x20\n        /* \"#utility.yul\":4706:4715   */\n      dup3\n        /* \"#utility.yul\":4702:4720   */\n      add\n        /* \"#utility.yul\":4694:4720   */\n      swap1\n      pop\n        /* \"#utility.yul\":4766:4775   */\n      dup2\n        /* \"#utility.yul\":4760:4764   */\n      dup2\n        /* \"#utility.yul\":4756:4776   */\n      sub\n        /* \"#utility.yul\":4752:4753   */\n      0x00\n        /* \"#utility.yul\":4741:4750   */\n      dup4\n        /* \"#utility.yul\":4737:4754   */\n      add\n        /* \"#utility.yul\":4730:4777   */\n      mstore\n        /* \"#utility.yul\":4794:4925   */\n      tag_110\n        /* \"#utility.yul\":4920:4924   */\n      dup2\n        /* \"#utility.yul\":4794:4925   */\n      tag_65\n      jump\t// in\n    tag_110:\n        /* \"#utility.yul\":4786:4925   */\n      swap1\n      pop\n        /* \"#utility.yul\":4513:4932   */\n      swap2\n      swap1\n      pop\n      jump\t// out\n        /* \"#utility.yul\":4938:5132   */\n    tag_50:\n        /* \"#utility.yul\":4978:4982   */\n      0x00\n        /* \"#utility.yul\":4998:5018   */\n      tag_112\n        /* \"#utility.yul\":5016:5017   */\n      dup3\n        /* \"#utility.yul\":4998:5018   */\n      tag_58\n      jump\t// in\n    tag_112:\n        /* \"#utility.yul\":4993:5018   */\n      swap2\n      pop\n        /* \"#utility.yul\":5032:5052   */\n      tag_113\n        /* \"#utility.yul\":5050:5051   */\n      dup4\n        /* \"#utility.yul\":5032:5052   */\n      tag_58\n      jump\t// in\n    tag_113:\n        /* \"#utility.yul\":5027:5052   */\n      swap3\n      pop\n        /* \"#utility.yul\":5076:5077   */\n      dup3\n        /* \"#utility.yul\":5073:5074   */\n      dup3\n        /* \"#utility.yul\":5069:5078   */\n      sub\n        /* \"#utility.yul\":5061:5078   */\n      swap1\n      pop\n        /* \"#utility.yul\":5100:5101   */\n      dup2\n        /* \"#utility.yul\":5094:5098   */\n      dup2\n        /* \"#utility.yul\":5091:5102   */\n      gt\n        /* \"#utility.yul\":5088:5125   */\n      iszero\n      tag_114\n      jumpi\n        /* \"#utility.yul\":5105:5123   */\n      tag_115\n      tag_63\n      jump\t// in\n    tag_115:\n        /* \"#utility.yul\":5088:5125   */\n    tag_114:\n        /* \"#utility.yul\":4938:5132   */\n      swap3\n      swap2\n      pop\n      pop\n      jump\t// out\n\n    auxdata: 0xa2646970667358221220c2ee47315b41286dd2a343494191163718ef1012de4c069a6ad3fbe9d416909164736f6c634300081a0033\n}\n",
				"bytecode": {
					"linkReferences": {},
					"object": "6080604052348015600e575f80fd5b506105828061001c5f395ff3fe608060405234801561000f575f80fd5b506004361061007b575f3560e01c8063871115da11610059578063871115da146100c5578063c618a1e4146100cf578063ce5087f7146100ed578063d76704c2146100f75761007b565b806313323b611461007f578063175bbecf146100895780632d9fff01146100a7575b5f80fd5b610087610101565b005b61009161011d565b60405161009e91906102b2565b60405180910390f35b6100af61012f565b6040516100bc919061033b565b60405180910390f35b6100cd6101ba565b005b6100d7610219565b6040516100e49190610373565b60405180910390f35b6100f561021f565b005b6100ff61023a565b005b600160025f6101000a81548160ff021916908315150217905550565b60025f9054906101000a900460ff1681565b5f805461013b906103b9565b80601f0160208091040260200160405190810160405280929190818152602001828054610167906103b9565b80156101b25780601f10610189576101008083540402835291602001916101b2565b820191905f5260205f20905b81548152906001019060200180831161019557829003601f168201915b505050505081565b600a600154106101ff576040517f08c379a00000000000000000000000000000000000000000000000000000000081526004016101f690610433565b60405180910390fd5b6001805f828254610210919061047e565b92505081905550565b60015481565b5f60025f6101000a81548160ff021916908315150217905550565b5f6001541161027e576040517f08c379a0000000000000000000000000000000000000000000000000000000008152600401610275906104fb565b60405180910390fd5b6001805f82825461028f9190610519565b92505081905550565b5f8115159050919050565b6102ac81610298565b82525050565b5f6020820190506102c55f8301846102a3565b92915050565b5f81519050919050565b5f82825260208201905092915050565b8281835e5f83830152505050565b5f601f19601f8301169050919050565b5f61030d826102cb565b61031781856102d5565b93506103278185602086016102e5565b610330816102f3565b840191505092915050565b5f6020820190508181035f8301526103538184610303565b905092915050565b5f819050919050565b61036d8161035b565b82525050565b5f6020820190506103865f830184610364565b92915050565b7f4e487b71000000000000000000000000000000000000000000000000000000005f52602260045260245ffd5b5f60028204905060018216806103d057607f821691505b6020821081036103e3576103e261038c565b5b50919050565b7f596f757220766f6c756d652069732031300000000000000000000000000000005f82015250565b5f61041d6011836102d5565b9150610428826103e9565b602082019050919050565b5f6020820190508181035f83015261044a81610411565b9050919050565b7f4e487b71000000000000000000000000000000000000000000000000000000005f52601160045260245ffd5b5f6104888261035b565b91506104938361035b565b92508282019050808211156104ab576104aa610451565b5b92915050565b7f596f757220766f6c756d652069732030000000000000000000000000000000005f82015250565b5f6104e56010836102d5565b91506104f0826104b1565b602082019050919050565b5f6020820190508181035f830152610512816104d9565b9050919050565b5f6105238261035b565b915061052e8361035b565b925082820390508181111561054657610545610451565b5b9291505056fea2646970667358221220c2ee47315b41286dd2a343494191163718ef1012de4c069a6ad3fbe9d416909164736f6c634300081a0033",
					"opcodes": "PUSH1 0x80 PUSH1 0x40 MSTORE CALLVALUE DUP1 ISZERO PUSH1 0xE JUMPI PUSH0 DUP1 REVERT JUMPDEST POP PUSH2 0x582 DUP1 PUSH2 0x1C PUSH0 CODECOPY PUSH0 RETURN INVALID PUSH1 0x80 PUSH1 0x40 MSTORE CALLVALUE DUP1 ISZERO PUSH2 0xF JUMPI PUSH0 DUP1 REVERT JUMPDEST POP PUSH1 0x4 CALLDATASIZE LT PUSH2 0x7B JUMPI PUSH0 CALLDATALOAD PUSH1 0xE0 SHR DUP1 PUSH4 0x871115DA GT PUSH2 0x59 JUMPI DUP1 PUSH4 0x871115DA EQ PUSH2 0xC5 JUMPI DUP1 PUSH4 0xC618A1E4 EQ PUSH2 0xCF JUMPI DUP1 PUSH4 0xCE5087F7 EQ PUSH2 0xED JUMPI DUP1 PUSH4 0xD76704C2 EQ PUSH2 0xF7 JUMPI PUSH2 0x7B JUMP JUMPDEST DUP1 PUSH4 0x13323B61 EQ PUSH2 0x7F JUMPI DUP1 PUSH4 0x175BBECF EQ PUSH2 0x89 JUMPI DUP1 PUSH4 0x2D9FFF01 EQ PUSH2 0xA7 JUMPI JUMPDEST PUSH0 DUP1 REVERT JUMPDEST PUSH2 0x87 PUSH2 0x101 JUMP JUMPDEST STOP JUMPDEST PUSH2 0x91 PUSH2 0x11D JUMP JUMPDEST PUSH1 0x40 MLOAD PUSH2 0x9E SWAP2 SWAP1 PUSH2 0x2B2 JUMP JUMPDEST PUSH1 0x40 MLOAD DUP1 SWAP2 SUB SWAP1 RETURN JUMPDEST PUSH2 0xAF PUSH2 0x12F JUMP JUMPDEST PUSH1 0x40 MLOAD PUSH2 0xBC SWAP2 SWAP1 PUSH2 0x33B JUMP JUMPDEST PUSH1 0x40 MLOAD DUP1 SWAP2 SUB SWAP1 RETURN JUMPDEST PUSH2 0xCD PUSH2 0x1BA JUMP JUMPDEST STOP JUMPDEST PUSH2 0xD7 PUSH2 0x219 JUMP JUMPDEST PUSH1 0x40 MLOAD PUSH2 0xE4 SWAP2 SWAP1 PUSH2 0x373 JUMP JUMPDEST PUSH1 0x40 MLOAD DUP1 SWAP2 SUB SWAP1 RETURN JUMPDEST PUSH2 0xF5 PUSH2 0x21F JUMP JUMPDEST STOP JUMPDEST PUSH2 0xFF PUSH2 0x23A JUMP JUMPDEST STOP JUMPDEST PUSH1 0x1 PUSH1 0x2 PUSH0 PUSH2 0x100 EXP DUP2 SLOAD DUP2 PUSH1 0xFF MUL NOT AND SWAP1 DUP4 ISZERO ISZERO MUL OR SWAP1 SSTORE POP JUMP JUMPDEST PUSH1 0x2 PUSH0 SWAP1 SLOAD SWAP1 PUSH2 0x100 EXP SWAP1 DIV PUSH1 0xFF AND DUP2 JUMP JUMPDEST PUSH0 DUP1 SLOAD PUSH2 0x13B SWAP1 PUSH2 0x3B9 JUMP JUMPDEST DUP1 PUSH1 0x1F ADD PUSH1 0x20 DUP1 SWAP2 DIV MUL PUSH1 0x20 ADD PUSH1 0x40 MLOAD SWAP1 DUP2 ADD PUSH1 0x40 MSTORE DUP1 SWAP3 SWAP2 SWAP1 DUP2 DUP2 MSTORE PUSH1 0x20 ADD DUP3 DUP1 SLOAD PUSH2 0x167 SWAP1 PUSH2 0x3B9 JUMP JUMPDEST DUP1 ISZERO PUSH2 0x1B2 JUMPI DUP1 PUSH1 0x1F LT PUSH2 0x189 JUMPI PUSH2 0x100 DUP1 DUP4 SLOAD DIV MUL DUP4 MSTORE SWAP2 PUSH1 0x20 ADD SWAP2 PUSH2 0x1B2 JUMP JUMPDEST DUP3 ADD SWAP2 SWAP1 PUSH0 MSTORE PUSH1 0x20 PUSH0 KECCAK256 SWAP1 JUMPDEST DUP2 SLOAD DUP2 MSTORE SWAP1 PUSH1 0x1 ADD SWAP1 PUSH1 0x20 ADD DUP1 DUP4 GT PUSH2 0x195 JUMPI DUP3 SWAP1 SUB PUSH1 0x1F AND DUP3 ADD SWAP2 JUMPDEST POP POP POP POP POP DUP2 JUMP JUMPDEST PUSH1 0xA PUSH1 0x1 SLOAD LT PUSH2 0x1FF JUMPI PUSH1 0x40 MLOAD PUSH32 0x8C379A000000000000000000000000000000000000000000000000000000000 DUP2 MSTORE PUSH1 0x4 ADD PUSH2 0x1F6 SWAP1 PUSH2 0x433 JUMP JUMPDEST PUSH1 0x40 MLOAD DUP1 SWAP2 SUB SWAP1 REVERT JUMPDEST PUSH1 0x1 DUP1 PUSH0 DUP3 DUP3 SLOAD PUSH2 0x210 SWAP2 SWAP1 PUSH2 0x47E JUMP JUMPDEST SWAP3 POP POP DUP2 SWAP1 SSTORE POP JUMP JUMPDEST PUSH1 0x1 SLOAD DUP2 JUMP JUMPDEST PUSH0 PUSH1 0x2 PUSH0 PUSH2 0x100 EXP DUP2 SLOAD DUP2 PUSH1 0xFF MUL NOT AND SWAP1 DUP4 ISZERO ISZERO MUL OR SWAP1 SSTORE POP JUMP JUMPDEST PUSH0 PUSH1 0x1 SLOAD GT PUSH2 0x27E JUMPI PUSH1 0x40 MLOAD PUSH32 0x8C379A000000000000000000000000000000000000000000000000000000000 DUP2 MSTORE PUSH1 0x4 ADD PUSH2 0x275 SWAP1 PUSH2 0x4FB JUMP JUMPDEST PUSH1 0x40 MLOAD DUP1 SWAP2 SUB SWAP1 REVERT JUMPDEST PUSH1 0x1 DUP1 PUSH0 DUP3 DUP3 SLOAD PUSH2 0x28F SWAP2 SWAP1 PUSH2 0x519 JUMP JUMPDEST SWAP3 POP POP DUP2 SWAP1 SSTORE POP JUMP JUMPDEST PUSH0 DUP2 ISZERO ISZERO SWAP1 POP SWAP2 SWAP1 POP JUMP JUMPDEST PUSH2 0x2AC DUP2 PUSH2 0x298 JUMP JUMPDEST DUP3 MSTORE POP POP JUMP JUMPDEST PUSH0 PUSH1 0x20 DUP3 ADD SWAP1 POP PUSH2 0x2C5 PUSH0 DUP4 ADD DUP5 PUSH2 0x2A3 JUMP JUMPDEST SWAP3 SWAP2 POP POP JUMP JUMPDEST PUSH0 DUP2 MLOAD SWAP1 POP SWAP2 SWAP1 POP JUMP JUMPDEST PUSH0 DUP3 DUP3 MSTORE PUSH1 0x20 DUP3 ADD SWAP1 POP SWAP3 SWAP2 POP POP JUMP JUMPDEST DUP3 DUP2 DUP4 MCOPY PUSH0 DUP4 DUP4 ADD MSTORE POP POP POP JUMP JUMPDEST PUSH0 PUSH1 0x1F NOT PUSH1 0x1F DUP4 ADD AND SWAP1 POP SWAP2 SWAP1 POP JUMP JUMPDEST PUSH0 PUSH2 0x30D DUP3 PUSH2 0x2CB JUMP JUMPDEST PUSH2 0x317 DUP2 DUP6 PUSH2 0x2D5 JUMP JUMPDEST SWAP4 POP PUSH2 0x327 DUP2 DUP6 PUSH1 0x20 DUP7 ADD PUSH2 0x2E5 JUMP JUMPDEST PUSH2 0x330 DUP2 PUSH2 0x2F3 JUMP JUMPDEST DUP5 ADD SWAP2 POP POP SWAP3 SWAP2 POP POP JUMP JUMPDEST PUSH0 PUSH1 0x20 DUP3 ADD SWAP1 POP DUP2 DUP2 SUB PUSH0 DUP4 ADD MSTORE PUSH2 0x353 DUP2 DUP5 PUSH2 0x303 JUMP JUMPDEST SWAP1 POP SWAP3 SWAP2 POP POP JUMP JUMPDEST PUSH0 DUP2 SWAP1 POP SWAP2 SWAP1 POP JUMP JUMPDEST PUSH2 0x36D DUP2 PUSH2 0x35B JUMP JUMPDEST DUP3 MSTORE POP POP JUMP JUMPDEST PUSH0 PUSH1 0x20 DUP3 ADD SWAP1 POP PUSH2 0x386 PUSH0 DUP4 ADD DUP5 PUSH2 0x364 JUMP JUMPDEST SWAP3 SWAP2 POP POP JUMP JUMPDEST PUSH32 0x4E487B7100000000000000000000000000000000000000000000000000000000 PUSH0 MSTORE PUSH1 0x22 PUSH1 0x4 MSTORE PUSH1 0x24 PUSH0 REVERT JUMPDEST PUSH0 PUSH1 0x2 DUP3 DIV SWAP1 POP PUSH1 0x1 DUP3 AND DUP1 PUSH2 0x3D0 JUMPI PUSH1 0x7F DUP3 AND SWAP2 POP JUMPDEST PUSH1 0x20 DUP3 LT DUP2 SUB PUSH2 0x3E3 JUMPI PUSH2 0x3E2 PUSH2 0x38C JUMP JUMPDEST JUMPDEST POP SWAP2 SWAP1 POP JUMP JUMPDEST PUSH32 0x596F757220766F6C756D65206973203130000000000000000000000000000000 PUSH0 DUP3 ADD MSTORE POP JUMP JUMPDEST PUSH0 PUSH2 0x41D PUSH1 0x11 DUP4 PUSH2 0x2D5 JUMP JUMPDEST SWAP2 POP PUSH2 0x428 DUP3 PUSH2 0x3E9 JUMP JUMPDEST PUSH1 0x20 DUP3 ADD SWAP1 POP SWAP2 SWAP1 POP JUMP JUMPDEST PUSH0 PUSH1 0x20 DUP3 ADD SWAP1 POP DUP2 DUP2 SUB PUSH0 DUP4 ADD MSTORE PUSH2 0x44A DUP2 PUSH2 0x411 JUMP JUMPDEST SWAP1 POP SWAP2 SWAP1 POP JUMP JUMPDEST PUSH32 0x4E487B7100000000000000000000000000000000000000000000000000000000 PUSH0 MSTORE PUSH1 0x11 PUSH1 0x4 MSTORE PUSH1 0x24 PUSH0 REVERT JUMPDEST PUSH0 PUSH2 0x488 DUP3 PUSH2 0x35B JUMP JUMPDEST SWAP2 POP PUSH2 0x493 DUP4 PUSH2 0x35B JUMP JUMPDEST SWAP3 POP DUP3 DUP3 ADD SWAP1 POP DUP1 DUP3 GT ISZERO PUSH2 0x4AB JUMPI PUSH2 0x4AA PUSH2 0x451 JUMP JUMPDEST JUMPDEST SWAP3 SWAP2 POP POP JUMP JUMPDEST PUSH32 0x596F757220766F6C756D65206973203000000000000000000000000000000000 PUSH0 DUP3 ADD MSTORE POP JUMP JUMPDEST PUSH0 PUSH2 0x4E5 PUSH1 0x10 DUP4 PUSH2 0x2D5 JUMP JUMPDEST SWAP2 POP PUSH2 0x4F0 DUP3 PUSH2 0x4B1 JUMP JUMPDEST PUSH1 0x20 DUP3 ADD SWAP1 POP SWAP2 SWAP1 POP JUMP JUMPDEST PUSH0 PUSH1 0x20 DUP3 ADD SWAP1 POP DUP2 DUP2 SUB PUSH0 DUP4 ADD MSTORE PUSH2 0x512 DUP2 PUSH2 0x4D9 JUMP JUMPDEST SWAP1 POP SWAP2 SWAP1 POP JUMP JUMPDEST PUSH0 PUSH2 0x523 DUP3 PUSH2 0x35B JUMP JUMPDEST SWAP2 POP PUSH2 0x52E DUP4 PUSH2 0x35B JUMP JUMPDEST SWAP3 POP DUP3 DUP3 SUB SWAP1 POP DUP2 DUP2 GT ISZERO PUSH2 0x546 JUMPI PUSH2 0x545 PUSH2 0x451 JUMP JUMPDEST JUMPDEST SWAP3 SWAP2 POP POP JUMP INVALID LOG2 PUSH5 0x6970667358 0x22 SLT KECCAK256 0xC2 0xEE SELFBALANCE BALANCE JUMPDEST COINBASE 0x28 PUSH14 0xD2A343494191163718EF1012DE4C MOD SWAP11 PUSH11 0xD3FBE9D416909164736F6C PUSH4 0x4300081A STOP CALLER "
				},
				"gasEstimates": {
					"creation": {
						"codeDepositCost": "282000",
						"executionCost": "322",
						"totalCost": "282322"
					},
					"external": {
						"TvOff()": "24452",
						"TvOn()": "24410",
						"brand()": "infinite",
						"decreaseVolume()": "infinite",
						"increaseVolume()": "infinite",
						"isOn()": "2489",
						"volume()": "2447"
					}
				},
				"methodIdentifiers": {
					"TvOff()": "ce5087f7",
					"TvOn()": "13323b61",
					"brand()": "2d9fff01",
					"decreaseVolume()": "d76704c2",
					"increaseVolume()": "871115da",
					"isOn()": "175bbecf",
					"volume()": "c618a1e4"
				}
			},
			"storageLayout": {
				"storage": [
					{
						"astId": 3,
						"contract": "contracts/TVInterface.sol:Tv",
						"label": "brand",
						"offset": 0,
						"slot": "0",
						"type": "t_string_storage"
					},
					{
						"astId": 5,
						"contract": "contracts/TVInterface.sol:Tv",
						"label": "volume",
						"offset": 0,
						"slot": "1",
						"type": "t_uint256"
					},
					{
						"astId": 7,
						"contract": "contracts/TVInterface.sol:Tv",
						"label": "isOn",
						"offset": 0,
						"slot": "2",
						"type": "t_bool"
					}
				],
				"types": {
					"t_bool": {
						"encoding": "inplace",
						"label": "bool",
						"numberOfBytes": "1"
					},
					"t_string_storage": {
						"encoding": "bytes",
						"label": "string",
						"numberOfBytes": "32"
					},
					"t_uint256": {
						"encoding": "inplace",
						"label": "uint256",
						"numberOfBytes": "32"
					}
				}
			},
			"userdoc": {
				"kind": "user",
				"methods": {},
				"version": 1
			}
		}
	}
}