{
	"contracts/TVInterface.sol": {
		"smartTv": {
			"abi": [
				{
					"inputs": [],
					"stateMutability": "nonpayable",
					"type": "constructor"
				},
				{
					"inputs": [],
					"name": "TvOff",
					"outputs": [],
					"stateMutability": "nonpayable",
					"type": "function"
				},
				{
					"inputs": [],
					"name": "TvOn",
					"outputs": [],
					"stateMutability": "nonpayable",
					"type": "function"
				},
				{
					"inputs": [],
					"name": "brand",
					"outputs": [
						{
							"internalType": "string",
							"name": "",
							"type": "string"
						}
					],
					"stateMutability": "view",
					"type": "function"
				},
				{
					"inputs": [],
					"name": "connectWifi",
					"outputs": [
						{
							"internalType": "string",
							"name": "",
							"type": "string"
						}
					],
					"stateMutability": "view",
					"type": "function"
				},
				{
					"inputs": [],
					"name": "decreaseVolume",
					"outputs": [],
					"stateMutability": "nonpayable",
					"type": "function"
				},
				{
					"inputs": [],
					"name": "goToNonAcademy",
					"outputs": [
						{
							"internalType": "string",
							"name": "",
							"type": "string"
						}
					],
					"stateMutability": "view",
					"type": "function"
				},
				{
					"inputs": [],
					"name": "increaseVolume",
					"outputs": [],
					"stateMutability": "nonpayable",
					"type": "function"
				},
				{
					"inputs": [],
					"name": "isOn",
					"outputs": [
						{
							"internalType": "bool",
							"name": "",
							"type": "bool"
						}
					],
					"stateMutability": "view",
					"type": "function"
				},
				{
					"inputs": [],
					"name": "volume",
					"outputs": [
						{
							"internalType": "uint256",
							"name": "",
							"type": "uint256"
						}
					],
					"stateMutability": "view",
					"type": "function"
				}
			],
			"devdoc": {
				"kind": "dev",
				"methods": {},
				"version": 1
			},
			"evm": {
				"assembly": "    /* \"contracts/TVInterface.sol\":604:1010  contract smartTv is Tv {... */\n  mstore(0x40, 0x80)\n    /* \"contracts/TVInterface.sol\":633:696  constructor() {... */\n  callvalue\n  dup1\n  iszero\n  tag_1\n  jumpi\n  0x00\n  dup1\n  revert\ntag_1:\n  pop\n    /* \"contracts/TVInterface.sol\":657:669  brand = \"LG\" */\n  mload(0x40)\n  dup1\n  0x40\n  add\n  0x40\n  mstore\n  dup1\n  0x02\n  dup2\n  mstore\n  0x20\n  add\n  0x4c47000000000000000000000000000000000000000000000000000000000000\n  dup2\n  mstore\n  pop\n    /* \"contracts/TVInterface.sol\":657:662  brand */\n  0x00\n    /* \"contracts/TVInterface.sol\":657:669  brand = \"LG\" */\n  swap1\n  dup2\n  tag_4\n  swap2\n  swap1\n  tag_5\n  jump\t// in\ntag_4:\n  pop\n    /* \"contracts/TVInterface.sol\":688:689  0 */\n  0x00\n    /* \"contracts/TVInterface.sol\":679:685  volume */\n  0x01\n    /* \"contracts/TVInterface.sol\":679:689  volume = 0 */\n  dup2\n  swap1\n  sstore\n  pop\n    /* \"contracts/TVInterface.sol\":604:1010  contract smartTv is Tv {... */\n  jump(tag_6)\n    /* \"#utility.yul\":7:106   */\ntag_7:\n    /* \"#utility.yul\":59:65   */\n  0x00\n    /* \"#utility.yul\":93:98   */\n  dup2\n    /* \"#utility.yul\":87:99   */\n  mload\n    /* \"#utility.yul\":77:99   */\n  swap1\n  pop\n    /* \"#utility.yul\":7:106   */\n  swap2\n  swap1\n  pop\n  jump\t// out\n    /* \"#utility.yul\":112:292   */\ntag_8:\n    /* \"#utility.yul\":160:237   */\n  0x4e487b7100000000000000000000000000000000000000000000000000000000\n    /* \"#utility.yul\":157:158   */\n  0x00\n    /* \"#utility.yul\":150:238   */\n  mstore\n    /* \"#utility.yul\":257:261   */\n  0x41\n    /* \"#utility.yul\":254:255   */\n  0x04\n    /* \"#utility.yul\":247:262   */\n  mstore\n    /* \"#utility.yul\":281:285   */\n  0x24\n    /* \"#utility.yul\":278:279   */\n  0x00\n    /* \"#utility.yul\":271:286   */\n  revert\n    /* \"#utility.yul\":298:478   */\ntag_9:\n    /* \"#utility.yul\":346:423   */\n  0x4e487b7100000000000000000000000000000000000000000000000000000000\n    /* \"#utility.yul\":343:344   */\n  0x00\n    /* \"#utility.yul\":336:424   */\n  mstore\n    /* \"#utility.yul\":443:447   */\n  0x22\n    /* \"#utility.yul\":440:441   */\n  0x04\n    /* \"#utility.yul\":433:448   */\n  mstore\n    /* \"#utility.yul\":467:471   */\n  0x24\n    /* \"#utility.yul\":464:465   */\n  0x00\n    /* \"#utility.yul\":457:472   */\n  revert\n    /* \"#utility.yul\":484:804   */\ntag_10:\n    /* \"#utility.yul\":528:534   */\n  0x00\n    /* \"#utility.yul\":565:566   */\n  0x02\n    /* \"#utility.yul\":559:563   */\n  dup3\n    /* \"#utility.yul\":555:567   */\n  div\n    /* \"#utility.yul\":545:567   */\n  swap1\n  pop\n    /* \"#utility.yul\":612:613   */\n  0x01\n    /* \"#utility.yul\":606:610   */\n  dup3\n    /* \"#utility.yul\":602:614   */\n  and\n    /* \"#utility.yul\":633:651   */\n  dup1\n    /* \"#utility.yul\":623:704   */\n  tag_32\n  jumpi\n    /* \"#utility.yul\":689:693   */\n  0x7f\n    /* \"#utility.yul\":681:687   */\n  dup3\n    /* \"#utility.yul\":677:694   */\n  and\n    /* \"#utility.yul\":667:694   */\n  swap2\n  pop\n    /* \"#utility.yul\":623:704   */\ntag_32:\n    /* \"#utility.yul\":751:753   */\n  0x20\n    /* \"#utility.yul\":743:749   */\n  dup3\n    /* \"#utility.yul\":740:754   */\n  lt\n    /* \"#utility.yul\":720:738   */\n  dup2\n    /* \"#utility.yul\":717:755   */\n  sub\n    /* \"#utility.yul\":714:798   */\n  tag_33\n  jumpi\n    /* \"#utility.yul\":770:788   */\n  tag_34\n  tag_9\n  jump\t// in\ntag_34:\n    /* \"#utility.yul\":714:798   */\ntag_33:\n    /* \"#utility.yul\":535:804   */\n  pop\n    /* \"#utility.yul\":484:804   */\n  swap2\n  swap1\n  pop\n  jump\t// out\n    /* \"#utility.yul\":810:951   */\ntag_11:\n    /* \"#utility.yul\":859:863   */\n  0x00\n    /* \"#utility.yul\":882:885   */\n  dup2\n    /* \"#utility.yul\":874:885   */\n  swap1\n  pop\n    /* \"#utility.yul\":905:908   */\n  dup2\n    /* \"#utility.yul\":902:903   */\n  0x00\n    /* \"#utility.yul\":895:909   */\n  mstore\n    /* \"#utility.yul\":939:943   */\n  0x20\n    /* \"#utility.yul\":936:937   */\n  0x00\n    /* \"#utility.yul\":926:944   */\n  keccak256\n    /* \"#utility.yul\":918:944   */\n  swap1\n  pop\n    /* \"#utility.yul\":810:951   */\n  swap2\n  swap1\n  pop\n  jump\t// out\n    /* \"#utility.yul\":957:1050   */\ntag_12:\n    /* \"#utility.yul\":994:1000   */\n  0x00\n    /* \"#utility.yul\":1041:1043   */\n  0x20\n    /* \"#utility.yul\":1036:1038   */\n  0x1f\n    /* \"#utility.yul\":1029:1034   */\n  dup4\n    /* \"#utility.yul\":1025:1039   */\n  add\n    /* \"#utility.yul\":1021:1044   */\n  div\n    /* \"#utility.yul\":1011:1044   */\n  swap1\n  pop\n    /* \"#utility.yul\":957:1050   */\n  swap2\n  swap1\n  pop\n  jump\t// out\n    /* \"#utility.yul\":1056:1163   */\ntag_13:\n    /* \"#utility.yul\":1100:1108   */\n  0x00\n    /* \"#utility.yul\":1150:1155   */\n  dup3\n    /* \"#utility.yul\":1144:1148   */\n  dup3\n    /* \"#utility.yul\":1140:1156   */\n  shl\n    /* \"#utility.yul\":1119:1156   */\n  swap1\n  pop\n    /* \"#utility.yul\":1056:1163   */\n  swap3\n  swap2\n  pop\n  pop\n  jump\t// out\n    /* \"#utility.yul\":1169:1562   */\ntag_14:\n    /* \"#utility.yul\":1238:1244   */\n  0x00\n    /* \"#utility.yul\":1288:1289   */\n  0x08\n    /* \"#utility.yul\":1276:1286   */\n  dup4\n    /* \"#utility.yul\":1272:1290   */\n  mul\n    /* \"#utility.yul\":1311:1408   */\n  tag_39\n    /* \"#utility.yul\":1341:1407   */\n  0xffffffffffffffffffffffffffffffffffffffffffffffffffffffffffffffff\n    /* \"#utility.yul\":1330:1339   */\n  dup3\n    /* \"#utility.yul\":1311:1408   */\n  tag_13\n  jump\t// in\ntag_39:\n    /* \"#utility.yul\":1429:1468   */\n  tag_40\n    /* \"#utility.yul\":1459:1467   */\n  dup7\n    /* \"#utility.yul\":1448:1457   */\n  dup4\n    /* \"#utility.yul\":1429:1468   */\n  tag_13\n  jump\t// in\ntag_40:\n    /* \"#utility.yul\":1417:1468   */\n  swap6\n  pop\n    /* \"#utility.yul\":1501:1505   */\n  dup1\n    /* \"#utility.yul\":1497:1506   */\n  not\n    /* \"#utility.yul\":1490:1495   */\n  dup5\n    /* \"#utility.yul\":1486:1507   */\n  and\n    /* \"#utility.yul\":1477:1507   */\n  swap4\n  pop\n    /* \"#utility.yul\":1550:1554   */\n  dup1\n    /* \"#utility.yul\":1540:1548   */\n  dup7\n    /* \"#utility.yul\":1536:1555   */\n  and\n    /* \"#utility.yul\":1529:1534   */\n  dup5\n    /* \"#utility.yul\":1526:1556   */\n  or\n    /* \"#utility.yul\":1516:1556   */\n  swap3\n  pop\n    /* \"#utility.yul\":1245:1562   */\n  pop\n  pop\n    /* \"#utility.yul\":1169:1562   */\n  swap4\n  swap3\n  pop\n  pop\n  pop\n  jump\t// out\n    /* \"#utility.yul\":1568:1645   */\ntag_15:\n    /* \"#utility.yul\":1605:1612   */\n  0x00\n    /* \"#utility.yul\":1634:1639   */\n  dup2\n    /* \"#utility.yul\":1623:1639   */\n  swap1\n  pop\n    /* \"#utility.yul\":1568:1645   */\n  swap2\n  swap1\n  pop\n  jump\t// out\n    /* \"#utility.yul\":1651:1711   */\ntag_16:\n    /* \"#utility.yul\":1679:1682   */\n  0x00\n    /* \"#utility.yul\":1700:1705   */\n  dup2\n    /* \"#utility.yul\":1693:1705   */\n  swap1\n  pop\n    /* \"#utility.yul\":1651:1711   */\n  swap2\n  swap1\n  pop\n  jump\t// out\n    /* \"#utility.yul\":1717:1859   */\ntag_17:\n    /* \"#utility.yul\":1767:1776   */\n  0x00\n    /* \"#utility.yul\":1800:1853   */\n  tag_44\n    /* \"#utility.yul\":1818:1852   */\n  tag_45\n    /* \"#utility.yul\":1827:1851   */\n  tag_46\n    /* \"#utility.yul\":1845:1850   */\n  dup5\n    /* \"#utility.yul\":1827:1851   */\n  tag_15\n  jump\t// in\ntag_46:\n    /* \"#utility.yul\":1818:1852   */\n  tag_16\n  jump\t// in\ntag_45:\n    /* \"#utility.yul\":1800:1853   */\n  tag_15\n  jump\t// in\ntag_44:\n    /* \"#utility.yul\":1787:1853   */\n  swap1\n  pop\n    /* \"#utility.yul\":1717:1859   */\n  swap2\n  swap1\n  pop\n  jump\t// out\n    /* \"#utility.yul\":1865:1940   */\ntag_18:\n    /* \"#utility.yul\":1908:1911   */\n  0x00\n    /* \"#utility.yul\":1929:1934   */\n  dup2\n    /* \"#utility.yul\":1922:1934   */\n  swap1\n  pop\n    /* \"#utility.yul\":1865:1940   */\n  swap2\n  swap1\n  pop\n  jump\t// out\n    /* \"#utility.yul\":1946:2215   */\ntag_19:\n    /* \"#utility.yul\":2056:2095   */\n  tag_49\n    /* \"#utility.yul\":2087:2094   */\n  dup4\n    /* \"#utility.yul\":2056:2095   */\n  tag_17\n  jump\t// in\ntag_49:\n    /* \"#utility.yul\":2117:2208   */\n  tag_50\n    /* \"#utility.yul\":2166:2207   */\n  tag_51\n    /* \"#utility.yul\":2190:2206   */\n  dup3\n    /* \"#utility.yul\":2166:2207   */\n  tag_18\n  jump\t// in\ntag_51:\n    /* \"#utility.yul\":2158:2164   */\n  dup5\n    /* \"#utility.yul\":2151:2155   */\n  dup5\n    /* \"#utility.yul\":2145:2156   */\n  sload\n    /* \"#utility.yul\":2117:2208   */\n  tag_14\n  jump\t// in\ntag_50:\n    /* \"#utility.yul\":2111:2115   */\n  dup3\n    /* \"#utility.yul\":2104:2209   */\n  sstore\n    /* \"#utility.yul\":2022:2215   */\n  pop\n    /* \"#utility.yul\":1946:2215   */\n  pop\n  pop\n  pop\n  jump\t// out\n    /* \"#utility.yul\":2221:2294   */\ntag_20:\n    /* \"#utility.yul\":2266:2269   */\n  0x00\n    /* \"#utility.yul\":2221:2294   */\n  swap1\n  jump\t// out\n    /* \"#utility.yul\":2300:2489   */\ntag_21:\n    /* \"#utility.yul\":2377:2409   */\n  tag_54\n  tag_20\n  jump\t// in\ntag_54:\n    /* \"#utility.yul\":2418:2483   */\n  tag_55\n    /* \"#utility.yul\":2476:2482   */\n  dup2\n    /* \"#utility.yul\":2468:2474   */\n  dup5\n    /* \"#utility.yul\":2462:2466   */\n  dup5\n    /* \"#utility.yul\":2418:2483   */\n  tag_19\n  jump\t// in\ntag_55:\n    /* \"#utility.yul\":2353:2489   */\n  pop\n    /* \"#utility.yul\":2300:2489   */\n  pop\n  pop\n  jump\t// out\n    /* \"#utility.yul\":2495:2681   */\ntag_22:\n    /* \"#utility.yul\":2555:2675   */\ntag_57:\n    /* \"#utility.yul\":2572:2575   */\n  dup2\n    /* \"#utility.yul\":2565:2570   */\n  dup2\n    /* \"#utility.yul\":2562:2576   */\n  lt\n    /* \"#utility.yul\":2555:2675   */\n  iszero\n  tag_59\n  jumpi\n    /* \"#utility.yul\":2626:2665   */\n  tag_60\n    /* \"#utility.yul\":2663:2664   */\n  0x00\n    /* \"#utility.yul\":2656:2661   */\n  dup3\n    /* \"#utility.yul\":2626:2665   */\n  tag_21\n  jump\t// in\ntag_60:\n    /* \"#utility.yul\":2599:2600   */\n  0x01\n    /* \"#utility.yul\":2592:2597   */\n  dup2\n    /* \"#utility.yul\":2588:2601   */\n  add\n    /* \"#utility.yul\":2579:2601   */\n  swap1\n  pop\n    /* \"#utility.yul\":2555:2675   */\n  jump(tag_57)\ntag_59:\n    /* \"#utility.yul\":2495:2681   */\n  pop\n  pop\n  jump\t// out\n    /* \"#utility.yul\":2687:3230   */\ntag_23:\n    /* \"#utility.yul\":2788:2790   */\n  0x1f\n    /* \"#utility.yul\":2783:2786   */\n  dup3\n    /* \"#utility.yul\":2780:2791   */\n  gt\n    /* \"#utility.yul\":2777:3223   */\n  iszero\n  tag_62\n  jumpi\n    /* \"#utility.yul\":2822:2860   */\n  tag_63\n    /* \"#utility.yul\":2854:2859   */\n  dup2\n    /* \"#utility.yul\":2822:2860   */\n  tag_11\n  jump\t// in\ntag_63:\n    /* \"#utility.yul\":2906:2935   */\n  tag_64\n    /* \"#utility.yul\":2924:2934   */\n  dup5\n    /* \"#utility.yul\":2906:2935   */\n  tag_12\n  jump\t// in\ntag_64:\n    /* \"#utility.yul\":2896:2904   */\n  dup2\n    /* \"#utility.yul\":2892:2936   */\n  add\n    /* \"#utility.yul\":3089:3091   */\n  0x20\n    /* \"#utility.yul\":3077:3087   */\n  dup6\n    /* \"#utility.yul\":3074:3092   */\n  lt\n    /* \"#utility.yul\":3071:3120   */\n  iszero\n  tag_65\n  jumpi\n    /* \"#utility.yul\":3110:3118   */\n  dup2\n    /* \"#utility.yul\":3095:3118   */\n  swap1\n  pop\n    /* \"#utility.yul\":3071:3120   */\ntag_65:\n    /* \"#utility.yul\":3133:3213   */\n  tag_66\n    /* \"#utility.yul\":3189:3211   */\n  tag_67\n    /* \"#utility.yul\":3207:3210   */\n  dup6\n    /* \"#utility.yul\":3189:3211   */\n  tag_12\n  jump\t// in\ntag_67:\n    /* \"#utility.yul\":3179:3187   */\n  dup4\n    /* \"#utility.yul\":3175:3212   */\n  add\n    /* \"#utility.yul\":3162:3173   */\n  dup3\n    /* \"#utility.yul\":3133:3213   */\n  tag_22\n  jump\t// in\ntag_66:\n    /* \"#utility.yul\":2792:3223   */\n  pop\n  pop\n    /* \"#utility.yul\":2777:3223   */\ntag_62:\n    /* \"#utility.yul\":2687:3230   */\n  pop\n  pop\n  pop\n  jump\t// out\n    /* \"#utility.yul\":3236:3353   */\ntag_24:\n    /* \"#utility.yul\":3290:3298   */\n  0x00\n    /* \"#utility.yul\":3340:3345   */\n  dup3\n    /* \"#utility.yul\":3334:3338   */\n  dup3\n    /* \"#utility.yul\":3330:3346   */\n  shr\n    /* \"#utility.yul\":3309:3346   */\n  swap1\n  pop\n    /* \"#utility.yul\":3236:3353   */\n  swap3\n  swap2\n  pop\n  pop\n  jump\t// out\n    /* \"#utility.yul\":3359:3528   */\ntag_25:\n    /* \"#utility.yul\":3403:3409   */\n  0x00\n    /* \"#utility.yul\":3436:3487   */\n  tag_70\n    /* \"#utility.yul\":3484:3485   */\n  0x00\n    /* \"#utility.yul\":3480:3486   */\n  not\n    /* \"#utility.yul\":3472:3477   */\n  dup5\n    /* \"#utility.yul\":3469:3470   */\n  0x08\n    /* \"#utility.yul\":3465:3478   */\n  mul\n    /* \"#utility.yul\":3436:3487   */\n  tag_24\n  jump\t// in\ntag_70:\n    /* \"#utility.yul\":3432:3488   */\n  not\n    /* \"#utility.yul\":3517:3521   */\n  dup1\n    /* \"#utility.yul\":3511:3515   */\n  dup4\n    /* \"#utility.yul\":3507:3522   */\n  and\n    /* \"#utility.yul\":3497:3522   */\n  swap2\n  pop\n    /* \"#utility.yul\":3410:3528   */\n  pop\n    /* \"#utility.yul\":3359:3528   */\n  swap3\n  swap2\n  pop\n  pop\n  jump\t// out\n    /* \"#utility.yul\":3533:3828   */\ntag_26:\n    /* \"#utility.yul\":3609:3613   */\n  0x00\n    /* \"#utility.yul\":3755:3784   */\n  tag_72\n    /* \"#utility.yul\":3780:3783   */\n  dup4\n    /* \"#utility.yul\":3774:3778   */\n  dup4\n    /* \"#utility.yul\":3755:3784   */\n  tag_25\n  jump\t// in\ntag_72:\n    /* \"#utility.yul\":3747:3784   */\n  swap2\n  pop\n    /* \"#utility.yul\":3817:3820   */\n  dup3\n    /* \"#utility.yul\":3814:3815   */\n  0x02\n    /* \"#utility.yul\":3810:3821   */\n  mul\n    /* \"#utility.yul\":3804:3808   */\n  dup3\n    /* \"#utility.yul\":3801:3822   */\n  or\n    /* \"#utility.yul\":3793:3822   */\n  swap1\n  pop\n    /* \"#utility.yul\":3533:3828   */\n  swap3\n  swap2\n  pop\n  pop\n  jump\t// out\n    /* \"#utility.yul\":3833:5228   */\ntag_5:\n    /* \"#utility.yul\":3950:3987   */\n  tag_74\n    /* \"#utility.yul\":3983:3986   */\n  dup3\n    /* \"#utility.yul\":3950:3987   */\n  tag_7\n  jump\t// in\ntag_74:\n    /* \"#utility.yul\":4052:4070   */\n  0xffffffffffffffff\n    /* \"#utility.yul\":4044:4050   */\n  dup2\n    /* \"#utility.yul\":4041:4071   */\n  gt\n    /* \"#utility.yul\":4038:4094   */\n  iszero\n  tag_75\n  jumpi\n    /* \"#utility.yul\":4074:4092   */\n  tag_76\n  tag_8\n  jump\t// in\ntag_76:\n    /* \"#utility.yul\":4038:4094   */\ntag_75:\n    /* \"#utility.yul\":4118:4156   */\n  tag_77\n    /* \"#utility.yul\":4150:4154   */\n  dup3\n    /* \"#utility.yul\":4144:4155   */\n  sload\n    /* \"#utility.yul\":4118:4156   */\n  tag_10\n  jump\t// in\ntag_77:\n    /* \"#utility.yul\":4203:4270   */\n  tag_78\n    /* \"#utility.yul\":4263:4269   */\n  dup3\n    /* \"#utility.yul\":4255:4261   */\n  dup3\n    /* \"#utility.yul\":4249:4253   */\n  dup6\n    /* \"#utility.yul\":4203:4270   */\n  tag_23\n  jump\t// in\ntag_78:\n    /* \"#utility.yul\":4297:4298   */\n  0x00\n    /* \"#utility.yul\":4321:4325   */\n  0x20\n    /* \"#utility.yul\":4308:4325   */\n  swap1\n  pop\n    /* \"#utility.yul\":4353:4355   */\n  0x1f\n    /* \"#utility.yul\":4345:4351   */\n  dup4\n    /* \"#utility.yul\":4342:4356   */\n  gt\n    /* \"#utility.yul\":4370:4371   */\n  0x01\n    /* \"#utility.yul\":4365:4983   */\n  dup2\n  eq\n  tag_80\n  jumpi\n    /* \"#utility.yul\":5027:5028   */\n  0x00\n    /* \"#utility.yul\":5044:5050   */\n  dup5\n    /* \"#utility.yul\":5041:5118   */\n  iszero\n  tag_81\n  jumpi\n    /* \"#utility.yul\":5093:5102   */\n  dup3\n    /* \"#utility.yul\":5088:5091   */\n  dup8\n    /* \"#utility.yul\":5084:5103   */\n  add\n    /* \"#utility.yul\":5078:5104   */\n  mload\n    /* \"#utility.yul\":5069:5104   */\n  swap1\n  pop\n    /* \"#utility.yul\":5041:5118   */\ntag_81:\n    /* \"#utility.yul\":5144:5211   */\n  tag_82\n    /* \"#utility.yul\":5204:5210   */\n  dup6\n    /* \"#utility.yul\":5197:5202   */\n  dup3\n    /* \"#utility.yul\":5144:5211   */\n  tag_26\n  jump\t// in\ntag_82:\n    /* \"#utility.yul\":5138:5142   */\n  dup7\n    /* \"#utility.yul\":5131:5212   */\n  sstore\n    /* \"#utility.yul\":5000:5222   */\n  pop\n    /* \"#utility.yul\":4335:5222   */\n  jump(tag_79)\n    /* \"#utility.yul\":4365:4983   */\ntag_80:\n    /* \"#utility.yul\":4417:4421   */\n  0x1f\n    /* \"#utility.yul\":4413:4422   */\n  not\n    /* \"#utility.yul\":4405:4411   */\n  dup5\n    /* \"#utility.yul\":4401:4423   */\n  and\n    /* \"#utility.yul\":4451:4488   */\n  tag_83\n    /* \"#utility.yul\":4483:4487   */\n  dup7\n    /* \"#utility.yul\":4451:4488   */\n  tag_11\n  jump\t// in\ntag_83:\n    /* \"#utility.yul\":4510:4511   */\n  0x00\n    /* \"#utility.yul\":4524:4732   */\ntag_84:\n    /* \"#utility.yul\":4538:4545   */\n  dup3\n    /* \"#utility.yul\":4535:4536   */\n  dup2\n    /* \"#utility.yul\":4532:4546   */\n  lt\n    /* \"#utility.yul\":4524:4732   */\n  iszero\n  tag_86\n  jumpi\n    /* \"#utility.yul\":4617:4626   */\n  dup5\n    /* \"#utility.yul\":4612:4615   */\n  dup10\n    /* \"#utility.yul\":4608:4627   */\n  add\n    /* \"#utility.yul\":4602:4628   */\n  mload\n    /* \"#utility.yul\":4594:4600   */\n  dup3\n    /* \"#utility.yul\":4587:4629   */\n  sstore\n    /* \"#utility.yul\":4668:4669   */\n  0x01\n    /* \"#utility.yul\":4660:4666   */\n  dup3\n    /* \"#utility.yul\":4656:4670   */\n  add\n    /* \"#utility.yul\":4646:4670   */\n  swap2\n  pop\n    /* \"#utility.yul\":4715:4717   */\n  0x20\n    /* \"#utility.yul\":4704:4713   */\n  dup6\n    /* \"#utility.yul\":4700:4718   */\n  add\n    /* \"#utility.yul\":4687:4718   */\n  swap5\n  pop\n    /* \"#utility.yul\":4561:4565   */\n  0x20\n    /* \"#utility.yul\":4558:4559   */\n  dup2\n    /* \"#utility.yul\":4554:4566   */\n  add\n    /* \"#utility.yul\":4549:4566   */\n  swap1\n  pop\n    /* \"#utility.yul\":4524:4732   */\n  jump(tag_84)\ntag_86:\n    /* \"#utility.yul\":4760:4766   */\n  dup7\n    /* \"#utility.yul\":4751:4758   */\n  dup4\n    /* \"#utility.yul\":4748:4767   */\n  lt\n    /* \"#utility.yul\":4745:4924   */\n  iszero\n  tag_87\n  jumpi\n    /* \"#utility.yul\":4818:4827   */\n  dup5\n    /* \"#utility.yul\":4813:4816   */\n  dup10\n    /* \"#utility.yul\":4809:4828   */\n  add\n    /* \"#utility.yul\":4803:4829   */\n  mload\n    /* \"#utility.yul\":4861:4909   */\n  tag_88\n    /* \"#utility.yul\":4903:4907   */\n  0x1f\n    /* \"#utility.yul\":4895:4901   */\n  dup10\n    /* \"#utility.yul\":4891:4908   */\n  and\n    /* \"#utility.yul\":4880:4889   */\n  dup3\n    /* \"#utility.yul\":4861:4909   */\n  tag_25\n  jump\t// in\ntag_88:\n    /* \"#utility.yul\":4853:4859   */\n  dup4\n    /* \"#utility.yul\":4846:4910   */\n  sstore\n    /* \"#utility.yul\":4768:4924   */\n  pop\n    /* \"#utility.yul\":4745:4924   */\ntag_87:\n    /* \"#utility.yul\":4970:4971   */\n  0x01\n    /* \"#utility.yul\":4966:4967   */\n  0x02\n    /* \"#utility.yul\":4958:4964   */\n  dup9\n    /* \"#utility.yul\":4954:4968   */\n  mul\n    /* \"#utility.yul\":4950:4972   */\n  add\n    /* \"#utility.yul\":4944:4948   */\n  dup9\n    /* \"#utility.yul\":4937:4973   */\n  sstore\n    /* \"#utility.yul\":4372:4983   */\n  pop\n  pop\n  pop\n    /* \"#utility.yul\":4335:5222   */\ntag_79:\n  pop\n    /* \"#utility.yul\":3925:5228   */\n  pop\n  pop\n  pop\n    /* \"#utility.yul\":3833:5228   */\n  pop\n  pop\n  jump\t// out\n    /* \"contracts/TVInterface.sol\":604:1010  contract smartTv is Tv {... */\ntag_6:\n  dataSize(sub_0)\n  dup1\n  dataOffset(sub_0)\n  0x00\n  codecopy\n  0x00\n  return\nstop\n\nsub_0: assembly {\n        /* \"contracts/TVInterface.sol\":604:1010  contract smartTv is Tv {... */\n      mstore(0x40, 0x80)\n      callvalue\n      dup1\n      iszero\n      tag_1\n      jumpi\n      0x00\n      dup1\n      revert\n    tag_1:\n      pop\n      jumpi(tag_2, lt(calldatasize, 0x04))\n      shr(0xe0, calldataload(0x00))\n      dup1\n      0x871115da\n      gt\n      tag_12\n      jumpi\n      dup1\n      0x871115da\n      eq\n      tag_7\n      jumpi\n      dup1\n      0xc618a1e4\n      eq\n      tag_8\n      jumpi\n      dup1\n      0xce5087f7\n      eq\n      tag_9\n      jumpi\n      dup1\n      0xd76704c2\n      eq\n      tag_10\n      jumpi\n      dup1\n      0xf34b6a86\n      eq\n      tag_11\n      jumpi\n      jump(tag_2)\n    tag_12:\n      dup1\n      0x09bfab1a\n      eq\n      tag_3\n      jumpi\n      dup1\n      0x13323b61\n      eq\n      tag_4\n      jumpi\n      dup1\n      0x175bbecf\n      eq\n      tag_5\n      jumpi\n      dup1\n      0x2d9fff01\n      eq\n      tag_6\n      jumpi\n    tag_2:\n      0x00\n      dup1\n      revert\n        /* \"contracts/TVInterface.sol\":887:1008  function goToNonAcademy() public view isOnTV returns (string memory) {... */\n    tag_3:\n      tag_13\n      tag_14\n      jump\t// in\n    tag_13:\n      mload(0x40)\n      tag_15\n      swap2\n      swap1\n      tag_16\n      jump\t// in\n    tag_15:\n      mload(0x40)\n      dup1\n      swap2\n      sub\n      swap1\n      return\n        /* \"contracts/TVInterface.sol\":240:291  function TvOn() public {... */\n    tag_4:\n      tag_17\n      tag_18\n      jump\t// in\n    tag_17:\n      stop\n        /* \"contracts/TVInterface.sol\":128:144  bool public isOn */\n    tag_5:\n      tag_19\n      tag_20\n      jump\t// in\n    tag_19:\n      mload(0x40)\n      tag_21\n      swap2\n      swap1\n      tag_22\n      jump\t// in\n    tag_21:\n      mload(0x40)\n      dup1\n      swap2\n      sub\n      swap1\n      return\n        /* \"contracts/TVInterface.sol\":76:95  string public brand */\n    tag_6:\n      tag_23\n      tag_24\n      jump\t// in\n    tag_23:\n      mload(0x40)\n      tag_25\n      swap2\n      swap1\n      tag_16\n      jump\t// in\n    tag_25:\n      mload(0x40)\n      dup1\n      swap2\n      sub\n      swap1\n      return\n        /* \"contracts/TVInterface.sol\":364:484  function increaseVolume() public virtual {... */\n    tag_7:\n      tag_26\n      tag_27\n      jump\t// in\n    tag_26:\n      stop\n        /* \"contracts/TVInterface.sol\":101:122  uint256 public volume */\n    tag_8:\n      tag_28\n      tag_29\n      jump\t// in\n    tag_28:\n      mload(0x40)\n      tag_30\n      swap2\n      swap1\n      tag_31\n      jump\t// in\n    tag_30:\n      mload(0x40)\n      dup1\n      swap2\n      sub\n      swap1\n      return\n        /* \"contracts/TVInterface.sol\":702:764  function TvOff() public override {... */\n    tag_9:\n      tag_32\n      tag_33\n      jump\t// in\n    tag_32:\n      stop\n        /* \"contracts/TVInterface.sol\":490:600  function decreaseVolume() public {... */\n    tag_10:\n      tag_34\n      tag_35\n      jump\t// in\n    tag_34:\n      stop\n        /* \"contracts/TVInterface.sol\":770:881  function connectWifi() public view isOnTV returns (string memory) {... */\n    tag_11:\n      tag_36\n      tag_37\n      jump\t// in\n    tag_36:\n      mload(0x40)\n      tag_38\n      swap2\n      swap1\n      tag_16\n      jump\t// in\n    tag_38:\n      mload(0x40)\n      dup1\n      swap2\n      sub\n      swap1\n      return\n        /* \"contracts/TVInterface.sol\":887:1008  function goToNonAcademy() public view isOnTV returns (string memory) {... */\n    tag_14:\n        /* \"contracts/TVInterface.sol\":941:954  string memory */\n      0x60\n        /* \"contracts/TVInterface.sol\":187:191  isOn */\n      0x02\n      0x00\n      swap1\n      sload\n      swap1\n      0x0100\n      exp\n      swap1\n      div\n      0xff\n      and\n        /* \"contracts/TVInterface.sol\":179:216  require(isOn, \"Turn on the TV first\") */\n      tag_40\n      jumpi\n      mload(0x40)\n      0x08c379a000000000000000000000000000000000000000000000000000000000\n      dup2\n      mstore\n      0x04\n      add\n      tag_41\n      swap1\n      tag_42\n      jump\t// in\n    tag_41:\n      mload(0x40)\n      dup1\n      swap2\n      sub\n      swap1\n      revert\n    tag_40:\n        /* \"contracts/TVInterface.sol\":966:1001  return (\"Subscribe to Non-Academy\") */\n      mload(0x40)\n      dup1\n      0x40\n      add\n      0x40\n      mstore\n      dup1\n      0x18\n      dup2\n      mstore\n      0x20\n      add\n      0x53756273637269626520746f204e6f6e2d41636164656d790000000000000000\n      dup2\n      mstore\n      pop\n      swap1\n      pop\n        /* \"contracts/TVInterface.sol\":887:1008  function goToNonAcademy() public view isOnTV returns (string memory) {... */\n      swap1\n      jump\t// out\n        /* \"contracts/TVInterface.sol\":240:291  function TvOn() public {... */\n    tag_18:\n        /* \"contracts/TVInterface.sol\":280:284  true */\n      0x01\n        /* \"contracts/TVInterface.sol\":273:277  isOn */\n      0x02\n      0x00\n        /* \"contracts/TVInterface.sol\":273:284  isOn = true */\n      0x0100\n      exp\n      dup2\n      sload\n      dup2\n      0xff\n      mul\n      not\n      and\n      swap1\n      dup4\n      iszero\n      iszero\n      mul\n      or\n      swap1\n      sstore\n      pop\n        /* \"contracts/TVInterface.sol\":240:291  function TvOn() public {... */\n      jump\t// out\n        /* \"contracts/TVInterface.sol\":128:144  bool public isOn */\n    tag_20:\n      0x02\n      0x00\n      swap1\n      sload\n      swap1\n      0x0100\n      exp\n      swap1\n      div\n      0xff\n      and\n      dup2\n      jump\t// out\n        /* \"contracts/TVInterface.sol\":76:95  string public brand */\n    tag_24:\n      0x00\n      dup1\n      sload\n      tag_45\n      swap1\n      tag_46\n      jump\t// in\n    tag_45:\n      dup1\n      0x1f\n      add\n      0x20\n      dup1\n      swap2\n      div\n      mul\n      0x20\n      add\n      mload(0x40)\n      swap1\n      dup2\n      add\n      0x40\n      mstore\n      dup1\n      swap3\n      swap2\n      swap1\n      dup2\n      dup2\n      mstore\n      0x20\n      add\n      dup3\n      dup1\n      sload\n      tag_47\n      swap1\n      tag_46\n      jump\t// in\n    tag_47:\n      dup1\n      iszero\n      tag_48\n      jumpi\n      dup1\n      0x1f\n      lt\n      tag_49\n      jumpi\n      0x0100\n      dup1\n      dup4\n      sload\n      div\n      mul\n      dup4\n      mstore\n      swap2\n      0x20\n      add\n      swap2\n      jump(tag_48)\n    tag_49:\n      dup3\n      add\n      swap2\n      swap1\n      0x00\n      mstore\n      keccak256(0x00, 0x20)\n      swap1\n    tag_50:\n      dup2\n      sload\n      dup2\n      mstore\n      swap1\n      0x01\n      add\n      swap1\n      0x20\n      add\n      dup1\n      dup4\n      gt\n      tag_50\n      jumpi\n      dup3\n      swap1\n      sub\n      0x1f\n      and\n      dup3\n      add\n      swap2\n    tag_48:\n      pop\n      pop\n      pop\n      pop\n      pop\n      dup2\n      jump\t// out\n        /* \"contracts/TVInterface.sol\":364:484  function increaseVolume() public virtual {... */\n    tag_27:\n        /* \"contracts/TVInterface.sol\":432:434  10 */\n      0x0a\n        /* \"contracts/TVInterface.sol\":423:429  volume */\n      sload(0x01)\n        /* \"contracts/TVInterface.sol\":423:434  volume < 10 */\n      lt\n        /* \"contracts/TVInterface.sol\":415:456  require(volume < 10, \"Your volume is 10\") */\n      tag_52\n      jumpi\n      mload(0x40)\n      0x08c379a000000000000000000000000000000000000000000000000000000000\n      dup2\n      mstore\n      0x04\n      add\n      tag_53\n      swap1\n      tag_54\n      jump\t// in\n    tag_53:\n      mload(0x40)\n      dup1\n      swap2\n      sub\n      swap1\n      revert\n    tag_52:\n        /* \"contracts/TVInterface.sol\":476:477  1 */\n      0x01\n        /* \"contracts/TVInterface.sol\":466:472  volume */\n      dup1\n      0x00\n        /* \"contracts/TVInterface.sol\":466:477  volume += 1 */\n      dup3\n      dup3\n      sload\n      tag_55\n      swap2\n      swap1\n      tag_56\n      jump\t// in\n    tag_55:\n      swap3\n      pop\n      pop\n      dup2\n      swap1\n      sstore\n      pop\n        /* \"contracts/TVInterface.sol\":364:484  function increaseVolume() public virtual {... */\n      jump\t// out\n        /* \"contracts/TVInterface.sol\":101:122  uint256 public volume */\n    tag_29:\n      sload(0x01)\n      dup2\n      jump\t// out\n        /* \"contracts/TVInterface.sol\":702:764  function TvOff() public override {... */\n    tag_33:\n        /* \"contracts/TVInterface.sol\":752:757  false */\n      0x00\n        /* \"contracts/TVInterface.sol\":745:749  isOn */\n      0x02\n      0x00\n        /* \"contracts/TVInterface.sol\":745:757  isOn = false */\n      0x0100\n      exp\n      dup2\n      sload\n      dup2\n      0xff\n      mul\n      not\n      and\n      swap1\n      dup4\n      iszero\n      iszero\n      mul\n      or\n      swap1\n      sstore\n      pop\n        /* \"contracts/TVInterface.sol\":702:764  function TvOff() public override {... */\n      jump\t// out\n        /* \"contracts/TVInterface.sol\":490:600  function decreaseVolume() public {... */\n    tag_35:\n        /* \"contracts/TVInterface.sol\":550:551  0 */\n      0x00\n        /* \"contracts/TVInterface.sol\":541:547  volume */\n      sload(0x01)\n        /* \"contracts/TVInterface.sol\":541:551  volume > 0 */\n      gt\n        /* \"contracts/TVInterface.sol\":533:572  require(volume > 0, \"Your volume is 0\") */\n      tag_59\n      jumpi\n      mload(0x40)\n      0x08c379a000000000000000000000000000000000000000000000000000000000\n      dup2\n      mstore\n      0x04\n      add\n      tag_60\n      swap1\n      tag_61\n      jump\t// in\n    tag_60:\n      mload(0x40)\n      dup1\n      swap2\n      sub\n      swap1\n      revert\n    tag_59:\n        /* \"contracts/TVInterface.sol\":592:593  1 */\n      0x01\n        /* \"contracts/TVInterface.sol\":582:588  volume */\n      dup1\n      0x00\n        /* \"contracts/TVInterface.sol\":582:593  volume -= 1 */\n      dup3\n      dup3\n      sload\n      tag_62\n      swap2\n      swap1\n      tag_63\n      jump\t// in\n    tag_62:\n      swap3\n      pop\n      pop\n      dup2\n      swap1\n      sstore\n      pop\n        /* \"contracts/TVInterface.sol\":490:600  function decreaseVolume() public {... */\n      jump\t// out\n        /* \"contracts/TVInterface.sol\":770:881  function connectWifi() public view isOnTV returns (string memory) {... */\n    tag_37:\n        /* \"contracts/TVInterface.sol\":821:834  string memory */\n      0x60\n        /* \"contracts/TVInterface.sol\":187:191  isOn */\n      0x02\n      0x00\n      swap1\n      sload\n      swap1\n      0x0100\n      exp\n      swap1\n      div\n      0xff\n      and\n        /* \"contracts/TVInterface.sol\":179:216  require(isOn, \"Turn on the TV first\") */\n      tag_65\n      jumpi\n      mload(0x40)\n      0x08c379a000000000000000000000000000000000000000000000000000000000\n      dup2\n      mstore\n      0x04\n      add\n      tag_66\n      swap1\n      tag_42\n      jump\t// in\n    tag_66:\n      mload(0x40)\n      dup1\n      swap2\n      sub\n      swap1\n      revert\n    tag_65:\n        /* \"contracts/TVInterface.sol\":846:874  return (\"Wifi is connected\") */\n      mload(0x40)\n      dup1\n      0x40\n      add\n      0x40\n      mstore\n      dup1\n      0x11\n      dup2\n      mstore\n      0x20\n      add\n      0x5769666920697320636f6e6e6563746564000000000000000000000000000000\n      dup2\n      mstore\n      pop\n      swap1\n      pop\n        /* \"contracts/TVInterface.sol\":770:881  function connectWifi() public view isOnTV returns (string memory) {... */\n      swap1\n      jump\t// out\n        /* \"#utility.yul\":7:106   */\n    tag_68:\n        /* \"#utility.yul\":59:65   */\n      0x00\n        /* \"#utility.yul\":93:98   */\n      dup2\n        /* \"#utility.yul\":87:99   */\n      mload\n        /* \"#utility.yul\":77:99   */\n      swap1\n      pop\n        /* \"#utility.yul\":7:106   */\n      swap2\n      swap1\n      pop\n      jump\t// out\n        /* \"#utility.yul\":112:281   */\n    tag_69:\n        /* \"#utility.yul\":196:207   */\n      0x00\n        /* \"#utility.yul\":230:236   */\n      dup3\n        /* \"#utility.yul\":225:228   */\n      dup3\n        /* \"#utility.yul\":218:237   */\n      mstore\n        /* \"#utility.yul\":270:274   */\n      0x20\n        /* \"#utility.yul\":265:268   */\n      dup3\n        /* \"#utility.yul\":261:275   */\n      add\n        /* \"#utility.yul\":246:275   */\n      swap1\n      pop\n        /* \"#utility.yul\":112:281   */\n      swap3\n      swap2\n      pop\n      pop\n      jump\t// out\n        /* \"#utility.yul\":287:426   */\n    tag_70:\n        /* \"#utility.yul\":376:382   */\n      dup3\n        /* \"#utility.yul\":371:374   */\n      dup2\n        /* \"#utility.yul\":366:369   */\n      dup4\n        /* \"#utility.yul\":360:383   */\n      mcopy\n        /* \"#utility.yul\":417:418   */\n      0x00\n        /* \"#utility.yul\":408:414   */\n      dup4\n        /* \"#utility.yul\":403:406   */\n      dup4\n        /* \"#utility.yul\":399:415   */\n      add\n        /* \"#utility.yul\":392:419   */\n      mstore\n        /* \"#utility.yul\":287:426   */\n      pop\n      pop\n      pop\n      jump\t// out\n        /* \"#utility.yul\":432:534   */\n    tag_71:\n        /* \"#utility.yul\":473:479   */\n      0x00\n        /* \"#utility.yul\":524:526   */\n      0x1f\n        /* \"#utility.yul\":520:527   */\n      not\n        /* \"#utility.yul\":515:517   */\n      0x1f\n        /* \"#utility.yul\":508:513   */\n      dup4\n        /* \"#utility.yul\":504:518   */\n      add\n        /* \"#utility.yul\":500:528   */\n      and\n        /* \"#utility.yul\":490:528   */\n      swap1\n      pop\n        /* \"#utility.yul\":432:534   */\n      swap2\n      swap1\n      pop\n      jump\t// out\n        /* \"#utility.yul\":540:917   */\n    tag_72:\n        /* \"#utility.yul\":628:631   */\n      0x00\n        /* \"#utility.yul\":656:695   */\n      tag_91\n        /* \"#utility.yul\":689:694   */\n      dup3\n        /* \"#utility.yul\":656:695   */\n      tag_68\n      jump\t// in\n    tag_91:\n        /* \"#utility.yul\":711:782   */\n      tag_92\n        /* \"#utility.yul\":775:781   */\n      dup2\n        /* \"#utility.yul\":770:773   */\n      dup6\n        /* \"#utility.yul\":711:782   */\n      tag_69\n      jump\t// in\n    tag_92:\n        /* \"#utility.yul\":704:782   */\n      swap4\n      pop\n        /* \"#utility.yul\":791:856   */\n      tag_93\n        /* \"#utility.yul\":849:855   */\n      dup2\n        /* \"#utility.yul\":844:847   */\n      dup6\n        /* \"#utility.yul\":837:841   */\n      0x20\n        /* \"#utility.yul\":830:835   */\n      dup7\n        /* \"#utility.yul\":826:842   */\n      add\n        /* \"#utility.yul\":791:856   */\n      tag_70\n      jump\t// in\n    tag_93:\n        /* \"#utility.yul\":881:910   */\n      tag_94\n        /* \"#utility.yul\":903:909   */\n      dup2\n        /* \"#utility.yul\":881:910   */\n      tag_71\n      jump\t// in\n    tag_94:\n        /* \"#utility.yul\":876:879   */\n      dup5\n        /* \"#utility.yul\":872:911   */\n      add\n        /* \"#utility.yul\":865:911   */\n      swap2\n      pop\n        /* \"#utility.yul\":632:917   */\n      pop\n        /* \"#utility.yul\":540:917   */\n      swap3\n      swap2\n      pop\n      pop\n      jump\t// out\n        /* \"#utility.yul\":923:1236   */\n    tag_16:\n        /* \"#utility.yul\":1036:1040   */\n      0x00\n        /* \"#utility.yul\":1074:1076   */\n      0x20\n        /* \"#utility.yul\":1063:1072   */\n      dup3\n        /* \"#utility.yul\":1059:1077   */\n      add\n        /* \"#utility.yul\":1051:1077   */\n      swap1\n      pop\n        /* \"#utility.yul\":1123:1132   */\n      dup2\n        /* \"#utility.yul\":1117:1121   */\n      dup2\n        /* \"#utility.yul\":1113:1133   */\n      sub\n        /* \"#utility.yul\":1109:1110   */\n      0x00\n        /* \"#utility.yul\":1098:1107   */\n      dup4\n        /* \"#utility.yul\":1094:1111   */\n      add\n        /* \"#utility.yul\":1087:1134   */\n      mstore\n        /* \"#utility.yul\":1151:1229   */\n      tag_96\n        /* \"#utility.yul\":1224:1228   */\n      dup2\n        /* \"#utility.yul\":1215:1221   */\n      dup5\n        /* \"#utility.yul\":1151:1229   */\n      tag_72\n      jump\t// in\n    tag_96:\n        /* \"#utility.yul\":1143:1229   */\n      swap1\n      pop\n        /* \"#utility.yul\":923:1236   */\n      swap3\n      swap2\n      pop\n      pop\n      jump\t// out\n        /* \"#utility.yul\":1242:1332   */\n    tag_73:\n        /* \"#utility.yul\":1276:1283   */\n      0x00\n        /* \"#utility.yul\":1319:1324   */\n      dup2\n        /* \"#utility.yul\":1312:1325   */\n      iszero\n        /* \"#utility.yul\":1305:1326   */\n      iszero\n        /* \"#utility.yul\":1294:1326   */\n      swap1\n      pop\n        /* \"#utility.yul\":1242:1332   */\n      swap2\n      swap1\n      pop\n      jump\t// out\n        /* \"#utility.yul\":1338:1447   */\n    tag_74:\n        /* \"#utility.yul\":1419:1440   */\n      tag_99\n        /* \"#utility.yul\":1434:1439   */\n      dup2\n        /* \"#utility.yul\":1419:1440   */\n      tag_73\n      jump\t// in\n    tag_99:\n        /* \"#utility.yul\":1414:1417   */\n      dup3\n        /* \"#utility.yul\":1407:1441   */\n      mstore\n        /* \"#utility.yul\":1338:1447   */\n      pop\n      pop\n      jump\t// out\n        /* \"#utility.yul\":1453:1663   */\n    tag_22:\n        /* \"#utility.yul\":1540:1544   */\n      0x00\n        /* \"#utility.yul\":1578:1580   */\n      0x20\n        /* \"#utility.yul\":1567:1576   */\n      dup3\n        /* \"#utility.yul\":1563:1581   */\n      add\n        /* \"#utility.yul\":1555:1581   */\n      swap1\n      pop\n        /* \"#utility.yul\":1591:1656   */\n      tag_101\n        /* \"#utility.yul\":1653:1654   */\n      0x00\n        /* \"#utility.yul\":1642:1651   */\n      dup4\n        /* \"#utility.yul\":1638:1655   */\n      add\n        /* \"#utility.yul\":1629:1635   */\n      dup5\n        /* \"#utility.yul\":1591:1656   */\n      tag_74\n      jump\t// in\n    tag_101:\n        /* \"#utility.yul\":1453:1663   */\n      swap3\n      swap2\n      pop\n      pop\n      jump\t// out\n        /* \"#utility.yul\":1669:1746   */\n    tag_75:\n        /* \"#utility.yul\":1706:1713   */\n      0x00\n        /* \"#utility.yul\":1735:1740   */\n      dup2\n        /* \"#utility.yul\":1724:1740   */\n      swap1\n      pop\n        /* \"#utility.yul\":1669:1746   */\n      swap2\n      swap1\n      pop\n      jump\t// out\n        /* \"#utility.yul\":1752:1870   */\n    tag_76:\n        /* \"#utility.yul\":1839:1863   */\n      tag_104\n        /* \"#utility.yul\":1857:1862   */\n      dup2\n        /* \"#utility.yul\":1839:1863   */\n      tag_75\n      jump\t// in\n    tag_104:\n        /* \"#utility.yul\":1834:1837   */\n      dup3\n        /* \"#utility.yul\":1827:1864   */\n      mstore\n        /* \"#utility.yul\":1752:1870   */\n      pop\n      pop\n      jump\t// out\n        /* \"#utility.yul\":1876:2098   */\n    tag_31:\n        /* \"#utility.yul\":1969:1973   */\n      0x00\n        /* \"#utility.yul\":2007:2009   */\n      0x20\n        /* \"#utility.yul\":1996:2005   */\n      dup3\n        /* \"#utility.yul\":1992:2010   */\n      add\n        /* \"#utility.yul\":1984:2010   */\n      swap1\n      pop\n        /* \"#utility.yul\":2020:2091   */\n      tag_106\n        /* \"#utility.yul\":2088:2089   */\n      0x00\n        /* \"#utility.yul\":2077:2086   */\n      dup4\n        /* \"#utility.yul\":2073:2090   */\n      add\n        /* \"#utility.yul\":2064:2070   */\n      dup5\n        /* \"#utility.yul\":2020:2091   */\n      tag_76\n      jump\t// in\n    tag_106:\n        /* \"#utility.yul\":1876:2098   */\n      swap3\n      swap2\n      pop\n      pop\n      jump\t// out\n        /* \"#utility.yul\":2104:2274   */\n    tag_77:\n        /* \"#utility.yul\":2244:2266   */\n      0x5475726e206f6e20746865205456206669727374000000000000000000000000\n        /* \"#utility.yul\":2240:2241   */\n      0x00\n        /* \"#utility.yul\":2232:2238   */\n      dup3\n        /* \"#utility.yul\":2228:2242   */\n      add\n        /* \"#utility.yul\":2221:2267   */\n      mstore\n        /* \"#utility.yul\":2104:2274   */\n      pop\n      jump\t// out\n        /* \"#utility.yul\":2280:2646   */\n    tag_78:\n        /* \"#utility.yul\":2422:2425   */\n      0x00\n        /* \"#utility.yul\":2443:2510   */\n      tag_109\n        /* \"#utility.yul\":2507:2509   */\n      0x14\n        /* \"#utility.yul\":2502:2505   */\n      dup4\n        /* \"#utility.yul\":2443:2510   */\n      tag_69\n      jump\t// in\n    tag_109:\n        /* \"#utility.yul\":2436:2510   */\n      swap2\n      pop\n        /* \"#utility.yul\":2519:2612   */\n      tag_110\n        /* \"#utility.yul\":2608:2611   */\n      dup3\n        /* \"#utility.yul\":2519:2612   */\n      tag_77\n      jump\t// in\n    tag_110:\n        /* \"#utility.yul\":2637:2639   */\n      0x20\n        /* \"#utility.yul\":2632:2635   */\n      dup3\n        /* \"#utility.yul\":2628:2640   */\n      add\n        /* \"#utility.yul\":2621:2640   */\n      swap1\n      pop\n        /* \"#utility.yul\":2280:2646   */\n      swap2\n      swap1\n      pop\n      jump\t// out\n        /* \"#utility.yul\":2652:3071   */\n    tag_42:\n        /* \"#utility.yul\":2818:2822   */\n      0x00\n        /* \"#utility.yul\":2856:2858   */\n      0x20\n        /* \"#utility.yul\":2845:2854   */\n      dup3\n        /* \"#utility.yul\":2841:2859   */\n      add\n        /* \"#utility.yul\":2833:2859   */\n      swap1\n      pop\n        /* \"#utility.yul\":2905:2914   */\n      dup2\n        /* \"#utility.yul\":2899:2903   */\n      dup2\n        /* \"#utility.yul\":2895:2915   */\n      sub\n        /* \"#utility.yul\":2891:2892   */\n      0x00\n        /* \"#utility.yul\":2880:2889   */\n      dup4\n        /* \"#utility.yul\":2876:2893   */\n      add\n        /* \"#utility.yul\":2869:2916   */\n      mstore\n        /* \"#utility.yul\":2933:3064   */\n      tag_112\n        /* \"#utility.yul\":3059:3063   */\n      dup2\n        /* \"#utility.yul\":2933:3064   */\n      tag_78\n      jump\t// in\n    tag_112:\n        /* \"#utility.yul\":2925:3064   */\n      swap1\n      pop\n        /* \"#utility.yul\":2652:3071   */\n      swap2\n      swap1\n      pop\n      jump\t// out\n        /* \"#utility.yul\":3077:3257   */\n    tag_79:\n        /* \"#utility.yul\":3125:3202   */\n      0x4e487b7100000000000000000000000000000000000000000000000000000000\n        /* \"#utility.yul\":3122:3123   */\n      0x00\n        /* \"#utility.yul\":3115:3203   */\n      mstore\n        /* \"#utility.yul\":3222:3226   */\n      0x22\n        /* \"#utility.yul\":3219:3220   */\n      0x04\n        /* \"#utility.yul\":3212:3227   */\n      mstore\n        /* \"#utility.yul\":3246:3250   */\n      0x24\n        /* \"#utility.yul\":3243:3244   */\n      0x00\n        /* \"#utility.yul\":3236:3251   */\n      revert\n        /* \"#utility.yul\":3263:3583   */\n    tag_46:\n        /* \"#utility.yul\":3307:3313   */\n      0x00\n        /* \"#utility.yul\":3344:3345   */\n      0x02\n        /* \"#utility.yul\":3338:3342   */\n      dup3\n        /* \"#utility.yul\":3334:3346   */\n      div\n        /* \"#utility.yul\":3324:3346   */\n      swap1\n      pop\n        /* \"#utility.yul\":3391:3392   */\n      0x01\n        /* \"#utility.yul\":3385:3389   */\n      dup3\n        /* \"#utility.yul\":3381:3393   */\n      and\n        /* \"#utility.yul\":3412:3430   */\n      dup1\n        /* \"#utility.yul\":3402:3483   */\n      tag_115\n      jumpi\n        /* \"#utility.yul\":3468:3472   */\n      0x7f\n        /* \"#utility.yul\":3460:3466   */\n      dup3\n        /* \"#utility.yul\":3456:3473   */\n      and\n        /* \"#utility.yul\":3446:3473   */\n      swap2\n      pop\n        /* \"#utility.yul\":3402:3483   */\n    tag_115:\n        /* \"#utility.yul\":3530:3532   */\n      0x20\n        /* \"#utility.yul\":3522:3528   */\n      dup3\n        /* \"#utility.yul\":3519:3533   */\n      lt\n        /* \"#utility.yul\":3499:3517   */\n      dup2\n        /* \"#utility.yul\":3496:3534   */\n      sub\n        /* \"#utility.yul\":3493:3577   */\n      tag_116\n      jumpi\n        /* \"#utility.yul\":3549:3567   */\n      tag_117\n      tag_79\n      jump\t// in\n    tag_117:\n        /* \"#utility.yul\":3493:3577   */\n    tag_116:\n        /* \"#utility.yul\":3314:3583   */\n      pop\n        /* \"#utility.yul\":3263:3583   */\n      swap2\n      swap1\n      pop\n      jump\t// out\n        /* \"#utility.yul\":3589:3756   */\n    tag_80:\n        /* \"#utility.yul\":3729:3748   */\n      0x596f757220766f6c756d65206973203130000000000000000000000000000000\n        /* \"#utility.yul\":3725:3726   */\n      0x00\n        /* \"#utility.yul\":3717:3723   */\n      dup3\n        /* \"#utility.yul\":3713:3727   */\n      add\n        /* \"#utility.yul\":3706:3749   */\n      mstore\n        /* \"#utility.yul\":3589:3756   */\n      pop\n      jump\t// out\n        /* \"#utility.yul\":3762:4128   */\n    tag_81:\n        /* \"#utility.yul\":3904:3907   */\n      0x00\n        /* \"#utility.yul\":3925:3992   */\n      tag_120\n        /* \"#utility.yul\":3989:3991   */\n      0x11\n        /* \"#utility.yul\":3984:3987   */\n      dup4\n        /* \"#utility.yul\":3925:3992   */\n      tag_69\n      jump\t// in\n    tag_120:\n        /* \"#utility.yul\":3918:3992   */\n      swap2\n      pop\n        /* \"#utility.yul\":4001:4094   */\n      tag_121\n        /* \"#utility.yul\":4090:4093   */\n      dup3\n        /* \"#utility.yul\":4001:4094   */\n      tag_80\n      jump\t// in\n    tag_121:\n        /* \"#utility.yul\":4119:4121   */\n      0x20\n        /* \"#utility.yul\":4114:4117   */\n      dup3\n        /* \"#utility.yul\":4110:4122   */\n      add\n        /* \"#utility.yul\":4103:4122   */\n      swap1\n      pop\n        /* \"#utility.yul\":3762:4128   */\n      swap2\n      swap1\n      pop\n      jump\t// out\n        /* \"#utility.yul\":4134:4553   */\n    tag_54:\n        /* \"#utility.yul\":4300:4304   */\n      0x00\n        /* \"#utility.yul\":4338:4340   */\n      0x20\n        /* \"#utility.yul\":4327:4336   */\n      dup3\n        /* \"#utility.yul\":4323:4341   */\n      add\n        /* \"#utility.yul\":4315:4341   */\n      swap1\n      pop\n        /* \"#utility.yul\":4387:4396   */\n      dup2\n        /* \"#utility.yul\":4381:4385   */\n      dup2\n        /* \"#utility.yul\":4377:4397   */\n      sub\n        /* \"#utility.yul\":4373:4374   */\n      0x00\n        /* \"#utility.yul\":4362:4371   */\n      dup4\n        /* \"#utility.yul\":4358:4375   */\n      add\n        /* \"#utility.yul\":4351:4398   */\n      mstore\n        /* \"#utility.yul\":4415:4546   */\n      tag_123\n        /* \"#utility.yul\":4541:4545   */\n      dup2\n        /* \"#utility.yul\":4415:4546   */\n      tag_81\n      jump\t// in\n    tag_123:\n        /* \"#utility.yul\":4407:4546   */\n      swap1\n      pop\n        /* \"#utility.yul\":4134:4553   */\n      swap2\n      swap1\n      pop\n      jump\t// out\n        /* \"#utility.yul\":4559:4739   */\n    tag_82:\n        /* \"#utility.yul\":4607:4684   */\n      0x4e487b7100000000000000000000000000000000000000000000000000000000\n        /* \"#utility.yul\":4604:4605   */\n      0x00\n        /* \"#utility.yul\":4597:4685   */\n      mstore\n        /* \"#utility.yul\":4704:4708   */\n      0x11\n        /* \"#utility.yul\":4701:4702   */\n      0x04\n        /* \"#utility.yul\":4694:4709   */\n      mstore\n        /* \"#utility.yul\":4728:4732   */\n      0x24\n        /* \"#utility.yul\":4725:4726   */\n      0x00\n        /* \"#utility.yul\":4718:4733   */\n      revert\n        /* \"#utility.yul\":4745:4936   */\n    tag_56:\n        /* \"#utility.yul\":4785:4788   */\n      0x00\n        /* \"#utility.yul\":4804:4824   */\n      tag_126\n        /* \"#utility.yul\":4822:4823   */\n      dup3\n        /* \"#utility.yul\":4804:4824   */\n      tag_75\n      jump\t// in\n    tag_126:\n        /* \"#utility.yul\":4799:4824   */\n      swap2\n      pop\n        /* \"#utility.yul\":4838:4858   */\n      tag_127\n        /* \"#utility.yul\":4856:4857   */\n      dup4\n        /* \"#utility.yul\":4838:4858   */\n      tag_75\n      jump\t// in\n    tag_127:\n        /* \"#utility.yul\":4833:4858   */\n      swap3\n      pop\n        /* \"#utility.yul\":4881:4882   */\n      dup3\n        /* \"#utility.yul\":4878:4879   */\n      dup3\n        /* \"#utility.yul\":4874:4883   */\n      add\n        /* \"#utility.yul\":4867:4883   */\n      swap1\n      pop\n        /* \"#utility.yul\":4902:4905   */\n      dup1\n        /* \"#utility.yul\":4899:4900   */\n      dup3\n        /* \"#utility.yul\":4896:4906   */\n      gt\n        /* \"#utility.yul\":4893:4929   */\n      iszero\n      tag_128\n      jumpi\n        /* \"#utility.yul\":4909:4927   */\n      tag_129\n      tag_82\n      jump\t// in\n    tag_129:\n        /* \"#utility.yul\":4893:4929   */\n    tag_128:\n        /* \"#utility.yul\":4745:4936   */\n      swap3\n      swap2\n      pop\n      pop\n      jump\t// out\n        /* \"#utility.yul\":4942:5108   */\n    tag_83:\n        /* \"#utility.yul\":5082:5100   */\n      0x596f757220766f6c756d65206973203000000000000000000000000000000000\n        /* \"#utility.yul\":5078:5079   */\n      0x00\n        /* \"#utility.yul\":5070:5076   */\n      dup3\n        /* \"#utility.yul\":5066:5080   */\n      add\n        /* \"#utility.yul\":5059:5101   */\n      mstore\n        /* \"#utility.yul\":4942:5108   */\n      pop\n      jump\t// out\n        /* \"#utility.yul\":5114:5480   */\n    tag_84:\n        /* \"#utility.yul\":5256:5259   */\n      0x00\n        /* \"#utility.yul\":5277:5344   */\n      tag_132\n        /* \"#utility.yul\":5341:5343   */\n      0x10\n        /* \"#utility.yul\":5336:5339   */\n      dup4\n        /* \"#utility.yul\":5277:5344   */\n      tag_69\n      jump\t// in\n    tag_132:\n        /* \"#utility.yul\":5270:5344   */\n      swap2\n      pop\n        /* \"#utility.yul\":5353:5446   */\n      tag_133\n        /* \"#utility.yul\":5442:5445   */\n      dup3\n        /* \"#utility.yul\":5353:5446   */\n      tag_83\n      jump\t// in\n    tag_133:\n        /* \"#utility.yul\":5471:5473   */\n      0x20\n        /* \"#utility.yul\":5466:5469   */\n      dup3\n        /* \"#utility.yul\":5462:5474   */\n      add\n        /* \"#utility.yul\":5455:5474   */\n      swap1\n      pop\n        /* \"#utility.yul\":5114:5480   */\n      swap2\n      swap1\n      pop\n      jump\t// out\n        /* \"#utility.yul\":5486:5905   */\n    tag_61:\n        /* \"#utility.yul\":5652:5656   */\n      0x00\n        /* \"#utility.yul\":5690:5692   */\n      0x20\n        /* \"#utility.yul\":5679:5688   */\n      dup3\n        /* \"#utility.yul\":5675:5693   */\n      add\n        /* \"#utility.yul\":5667:5693   */\n      swap1\n      pop\n        /* \"#utility.yul\":5739:5748   */\n      dup2\n        /* \"#utility.yul\":5733:5737   */\n      dup2\n        /* \"#utility.yul\":5729:5749   */\n      sub\n        /* \"#utility.yul\":5725:5726   */\n      0x00\n        /* \"#utility.yul\":5714:5723   */\n      dup4\n        /* \"#utility.yul\":5710:5727   */\n      add\n        /* \"#utility.yul\":5703:5750   */\n      mstore\n        /* \"#utility.yul\":5767:5898   */\n      tag_135\n        /* \"#utility.yul\":5893:5897   */\n      dup2\n        /* \"#utility.yul\":5767:5898   */\n      tag_84\n      jump\t// in\n    tag_135:\n        /* \"#utility.yul\":5759:5898   */\n      swap1\n      pop\n        /* \"#utility.yul\":5486:5905   */\n      swap2\n      swap1\n      pop\n      jump\t// out\n        /* \"#utility.yul\":5911:6105   */\n    tag_63:\n        /* \"#utility.yul\":5951:5955   */\n      0x00\n        /* \"#utility.yul\":5971:5991   */\n      tag_137\n        /* \"#utility.yul\":5989:5990   */\n      dup3\n        /* \"#utility.yul\":5971:5991   */\n      tag_75\n      jump\t// in\n    tag_137:\n        /* \"#utility.yul\":5966:5991   */\n      swap2\n      pop\n        /* \"#utility.yul\":6005:6025   */\n      tag_138\n        /* \"#utility.yul\":6023:6024   */\n      dup4\n        /* \"#utility.yul\":6005:6025   */\n      tag_75\n      jump\t// in\n    tag_138:\n        /* \"#utility.yul\":6000:6025   */\n      swap3\n      pop\n        /* \"#utility.yul\":6049:6050   */\n      dup3\n        /* \"#utility.yul\":6046:6047   */\n      dup3\n        /* \"#utility.yul\":6042:6051   */\n      sub\n        /* \"#utility.yul\":6034:6051   */\n      swap1\n      pop\n        /* \"#utility.yul\":6073:6074   */\n      dup2\n        /* \"#utility.yul\":6067:6071   */\n      dup2\n        /* \"#utility.yul\":6064:6075   */\n      gt\n        /* \"#utility.yul\":6061:6098   */\n      iszero\n      tag_139\n      jumpi\n        /* \"#utility.yul\":6078:6096   */\n      tag_140\n      tag_82\n      jump\t// in\n    tag_140:\n        /* \"#utility.yul\":6061:6098   */\n    tag_139:\n        /* \"#utility.yul\":5911:6105   */\n      swap3\n      swap2\n      pop\n      pop\n      jump\t// out\n\n    auxdata: 0xa264697066735822122018b061aed25392f4dcd6ce0375dd1a650d4a7db86d62490f3cb5e3704da15a0f64736f6c634300081a0033\n}\n",
				"bytecode": {
					"linkReferences": {},
					"object": "608060405234801561000f575f80fd5b506040518060400160405280600281526020017f4c470000000000000000000000000000000000000000000000000000000000008152505f9081610053919061029a565b505f600181905550610369565b5f81519050919050565b7f4e487b71000000000000000000000000000000000000000000000000000000005f52604160045260245ffd5b7f4e487b71000000000000000000000000000000000000000000000000000000005f52602260045260245ffd5b5f60028204905060018216806100db57607f821691505b6020821081036100ee576100ed610097565b5b50919050565b5f819050815f5260205f209050919050565b5f6020601f8301049050919050565b5f82821b905092915050565b5f600883026101507fffffffffffffffffffffffffffffffffffffffffffffffffffffffffffffffff82610115565b61015a8683610115565b95508019841693508086168417925050509392505050565b5f819050919050565b5f819050919050565b5f61019e61019961019484610172565b61017b565b610172565b9050919050565b5f819050919050565b6101b783610184565b6101cb6101c3826101a5565b848454610121565b825550505050565b5f90565b6101df6101d3565b6101ea8184846101ae565b505050565b5b8181101561020d576102025f826101d7565b6001810190506101f0565b5050565b601f82111561025257610223816100f4565b61022c84610106565b8101602085101561023b578190505b61024f61024785610106565b8301826101ef565b50505b505050565b5f82821c905092915050565b5f6102725f1984600802610257565b1980831691505092915050565b5f61028a8383610263565b9150826002028217905092915050565b6102a382610060565b67ffffffffffffffff8111156102bc576102bb61006a565b5b6102c682546100c4565b6102d1828285610211565b5f60209050601f831160018114610302575f84156102f0578287015190505b6102fa858261027f565b865550610361565b601f198416610310866100f4565b5f5b8281101561033757848901518255600182019150602085019450602081019050610312565b868310156103545784890151610350601f891682610263565b8355505b6001600288020188555050505b505050505050565b610752806103765f395ff3fe608060405234801561000f575f80fd5b5060043610610091575f3560e01c8063871115da11610064578063871115da146100f9578063c618a1e414610103578063ce5087f714610121578063d76704c21461012b578063f34b6a861461013557610091565b806309bfab1a1461009557806313323b61146100b3578063175bbecf146100bd5780632d9fff01146100db575b5f80fd5b61009d610153565b6040516100aa9190610470565b60405180910390f35b6100bb6101de565b005b6100c56101fa565b6040516100d291906104aa565b60405180910390f35b6100e361020c565b6040516100f09190610470565b60405180910390f35b610101610297565b005b61010b6102f6565b60405161011891906104db565b60405180910390f35b6101296102fc565b005b610133610317565b005b61013d610375565b60405161014a9190610470565b60405180910390f35b606060025f9054906101000a900460ff166101a3576040517f08c379a000000000000000000000000000000000000000000000000000000000815260040161019a9061053e565b60405180910390fd5b6040518060400160405280601881526020017f53756273637269626520746f204e6f6e2d41636164656d790000000000000000815250905090565b600160025f6101000a81548160ff021916908315150217905550565b60025f9054906101000a900460ff1681565b5f805461021890610589565b80601f016020809104026020016040519081016040528092919081815260200182805461024490610589565b801561028f5780601f106102665761010080835404028352916020019161028f565b820191905f5260205f20905b81548152906001019060200180831161027257829003601f168201915b505050505081565b600a600154106102dc576040517f08c379a00000000000000000000000000000000000000000000000000000000081526004016102d390610603565b60405180910390fd5b6001805f8282546102ed919061064e565b92505081905550565b60015481565b5f60025f6101000a81548160ff021916908315150217905550565b5f6001541161035b576040517f08c379a0000000000000000000000000000000000000000000000000000000008152600401610352906106cb565b60405180910390fd5b6001805f82825461036c91906106e9565b92505081905550565b606060025f9054906101000a900460ff166103c5576040517f08c379a00000000000000000000000000000000000000000000000000000000081526004016103bc9061053e565b60405180910390fd5b6040518060400160405280601181526020017f5769666920697320636f6e6e6563746564000000000000000000000000000000815250905090565b5f81519050919050565b5f82825260208201905092915050565b8281835e5f83830152505050565b5f601f19601f8301169050919050565b5f61044282610400565b61044c818561040a565b935061045c81856020860161041a565b61046581610428565b840191505092915050565b5f6020820190508181035f8301526104888184610438565b905092915050565b5f8115159050919050565b6104a481610490565b82525050565b5f6020820190506104bd5f83018461049b565b92915050565b5f819050919050565b6104d5816104c3565b82525050565b5f6020820190506104ee5f8301846104cc565b92915050565b7f5475726e206f6e207468652054562066697273740000000000000000000000005f82015250565b5f61052860148361040a565b9150610533826104f4565b602082019050919050565b5f6020820190508181035f8301526105558161051c565b9050919050565b7f4e487b71000000000000000000000000000000000000000000000000000000005f52602260045260245ffd5b5f60028204905060018216806105a057607f821691505b6020821081036105b3576105b261055c565b5b50919050565b7f596f757220766f6c756d652069732031300000000000000000000000000000005f82015250565b5f6105ed60118361040a565b91506105f8826105b9565b602082019050919050565b5f6020820190508181035f83015261061a816105e1565b9050919050565b7f4e487b71000000000000000000000000000000000000000000000000000000005f52601160045260245ffd5b5f610658826104c3565b9150610663836104c3565b925082820190508082111561067b5761067a610621565b5b92915050565b7f596f757220766f6c756d652069732030000000000000000000000000000000005f82015250565b5f6106b560108361040a565b91506106c082610681565b602082019050919050565b5f6020820190508181035f8301526106e2816106a9565b9050919050565b5f6106f3826104c3565b91506106fe836104c3565b925082820390508181111561071657610715610621565b5b9291505056fea264697066735822122018b061aed25392f4dcd6ce0375dd1a650d4a7db86d62490f3cb5e3704da15a0f64736f6c634300081a0033",
					"opcodes": "PUSH1 0x80 PUSH1 0x40 MSTORE CALLVALUE DUP1 ISZERO PUSH2 0xF JUMPI PUSH0 DUP1 REVERT JUMPDEST POP PUSH1 0x40 MLOAD DUP1 PUSH1 0x40 ADD PUSH1 0x40 MSTORE DUP1 PUSH1 0x2 DUP2 MSTORE PUSH1 0x20 ADD PUSH32 0x4C47000000000000000000000000000000000000000000000000000000000000 DUP2 MSTORE POP PUSH0 SWAP1 DUP2 PUSH2 0x53 SWAP2 SWAP1 PUSH2 0x29A JUMP JUMPDEST POP PUSH0 PUSH1 0x1 DUP2 SWAP1 SSTORE POP PUSH2 0x369 JUMP JUMPDEST PUSH0 DUP2 MLOAD SWAP1 POP SWAP2 SWAP1 POP JUMP JUMPDEST PUSH32 0x4E487B7100000000000000000000000000000000000000000000000000000000 PUSH0 MSTORE PUSH1 0x41 PUSH1 0x4 MSTORE PUSH1 0x24 PUSH0 REVERT JUMPDEST PUSH32 0x4E487B7100000000000000000000000000000000000000000000000000000000 PUSH0 MSTORE PUSH1 0x22 PUSH1 0x4 MSTORE PUSH1 0x24 PUSH0 REVERT JUMPDEST PUSH0 PUSH1 0x2 DUP3 DIV SWAP1 POP PUSH1 0x1 DUP3 AND DUP1 PUSH2 0xDB JUMPI PUSH1 0x7F DUP3 AND SWAP2 POP JUMPDEST PUSH1 0x20 DUP3 LT DUP2 SUB PUSH2 0xEE JUMPI PUSH2 0xED PUSH2 0x97 JUMP JUMPDEST JUMPDEST POP SWAP2 SWAP1 POP JUMP JUMPDEST PUSH0 DUP2 SWAP1 POP DUP2 PUSH0 MSTORE PUSH1 0x20 PUSH0 KECCAK256 SWAP1 POP SWAP2 SWAP1 POP JUMP JUMPDEST PUSH0 PUSH1 0x20 PUSH1 0x1F DUP4 ADD DIV SWAP1 POP SWAP2 SWAP1 POP JUMP JUMPDEST PUSH0 DUP3 DUP3 SHL SWAP1 POP SWAP3 SWAP2 POP POP JUMP JUMPDEST PUSH0 PUSH1 0x8 DUP4 MUL PUSH2 0x150 PUSH32 0xFFFFFFFFFFFFFFFFFFFFFFFFFFFFFFFFFFFFFFFFFFFFFFFFFFFFFFFFFFFFFFFF DUP3 PUSH2 0x115 JUMP JUMPDEST PUSH2 0x15A DUP7 DUP4 PUSH2 0x115 JUMP JUMPDEST SWAP6 POP DUP1 NOT DUP5 AND SWAP4 POP DUP1 DUP7 AND DUP5 OR SWAP3 POP POP POP SWAP4 SWAP3 POP POP POP JUMP JUMPDEST PUSH0 DUP2 SWAP1 POP SWAP2 SWAP1 POP JUMP JUMPDEST PUSH0 DUP2 SWAP1 POP SWAP2 SWAP1 POP JUMP JUMPDEST PUSH0 PUSH2 0x19E PUSH2 0x199 PUSH2 0x194 DUP5 PUSH2 0x172 JUMP JUMPDEST PUSH2 0x17B JUMP JUMPDEST PUSH2 0x172 JUMP JUMPDEST SWAP1 POP SWAP2 SWAP1 POP JUMP JUMPDEST PUSH0 DUP2 SWAP1 POP SWAP2 SWAP1 POP JUMP JUMPDEST PUSH2 0x1B7 DUP4 PUSH2 0x184 JUMP JUMPDEST PUSH2 0x1CB PUSH2 0x1C3 DUP3 PUSH2 0x1A5 JUMP JUMPDEST DUP5 DUP5 SLOAD PUSH2 0x121 JUMP JUMPDEST DUP3 SSTORE POP POP POP POP JUMP JUMPDEST PUSH0 SWAP1 JUMP JUMPDEST PUSH2 0x1DF PUSH2 0x1D3 JUMP JUMPDEST PUSH2 0x1EA DUP2 DUP5 DUP5 PUSH2 0x1AE JUMP JUMPDEST POP POP POP JUMP JUMPDEST JUMPDEST DUP2 DUP2 LT ISZERO PUSH2 0x20D JUMPI PUSH2 0x202 PUSH0 DUP3 PUSH2 0x1D7 JUMP JUMPDEST PUSH1 0x1 DUP2 ADD SWAP1 POP PUSH2 0x1F0 JUMP JUMPDEST POP POP JUMP JUMPDEST PUSH1 0x1F DUP3 GT ISZERO PUSH2 0x252 JUMPI PUSH2 0x223 DUP2 PUSH2 0xF4 JUMP JUMPDEST PUSH2 0x22C DUP5 PUSH2 0x106 JUMP JUMPDEST DUP2 ADD PUSH1 0x20 DUP6 LT ISZERO PUSH2 0x23B JUMPI DUP2 SWAP1 POP JUMPDEST PUSH2 0x24F PUSH2 0x247 DUP6 PUSH2 0x106 JUMP JUMPDEST DUP4 ADD DUP3 PUSH2 0x1EF JUMP JUMPDEST POP POP JUMPDEST POP POP POP JUMP JUMPDEST PUSH0 DUP3 DUP3 SHR SWAP1 POP SWAP3 SWAP2 POP POP JUMP JUMPDEST PUSH0 PUSH2 0x272 PUSH0 NOT DUP5 PUSH1 0x8 MUL PUSH2 0x257 JUMP JUMPDEST NOT DUP1 DUP4 AND SWAP2 POP POP SWAP3 SWAP2 POP POP JUMP JUMPDEST PUSH0 PUSH2 0x28A DUP4 DUP4 PUSH2 0x263 JUMP JUMPDEST SWAP2 POP DUP3 PUSH1 0x2 MUL DUP3 OR SWAP1 POP SWAP3 SWAP2 POP POP JUMP JUMPDEST PUSH2 0x2A3 DUP3 PUSH2 0x60 JUMP JUMPDEST PUSH8 0xFFFFFFFFFFFFFFFF DUP2 GT ISZERO PUSH2 0x2BC JUMPI PUSH2 0x2BB PUSH2 0x6A JUMP JUMPDEST JUMPDEST PUSH2 0x2C6 DUP3 SLOAD PUSH2 0xC4 JUMP JUMPDEST PUSH2 0x2D1 DUP3 DUP3 DUP6 PUSH2 0x211 JUMP JUMPDEST PUSH0 PUSH1 0x20 SWAP1 POP PUSH1 0x1F DUP4 GT PUSH1 0x1 DUP2 EQ PUSH2 0x302 JUMPI PUSH0 DUP5 ISZERO PUSH2 0x2F0 JUMPI DUP3 DUP8 ADD MLOAD SWAP1 POP JUMPDEST PUSH2 0x2FA DUP6 DUP3 PUSH2 0x27F JUMP JUMPDEST DUP7 SSTORE POP PUSH2 0x361 JUMP JUMPDEST PUSH1 0x1F NOT DUP5 AND PUSH2 0x310 DUP7 PUSH2 0xF4 JUMP JUMPDEST PUSH0 JUMPDEST DUP3 DUP2 LT ISZERO PUSH2 0x337 JUMPI DUP5 DUP10 ADD MLOAD DUP3 SSTORE PUSH1 0x1 DUP3 ADD SWAP2 POP PUSH1 0x20 DUP6 ADD SWAP5 POP PUSH1 0x20 DUP2 ADD SWAP1 POP PUSH2 0x312 JUMP JUMPDEST DUP7 DUP4 LT ISZERO PUSH2 0x354 JUMPI DUP5 DUP10 ADD MLOAD PUSH2 0x350 PUSH1 0x1F DUP10 AND DUP3 PUSH2 0x263 JUMP JUMPDEST DUP4 SSTORE POP JUMPDEST PUSH1 0x1 PUSH1 0x2 DUP9 MUL ADD DUP9 SSTORE POP POP POP JUMPDEST POP POP POP POP POP POP JUMP JUMPDEST PUSH2 0x752 DUP1 PUSH2 0x376 PUSH0 CODECOPY PUSH0 RETURN INVALID PUSH1 0x80 PUSH1 0x40 MSTORE CALLVALUE DUP1 ISZERO PUSH2 0xF JUMPI PUSH0 DUP1 REVERT JUMPDEST POP PUSH1 0x4 CALLDATASIZE LT PUSH2 0x91 JUMPI PUSH0 CALLDATALOAD PUSH1 0xE0 SHR DUP1 PUSH4 0x871115DA GT PUSH2 0x64 JUMPI DUP1 PUSH4 0x871115DA EQ PUSH2 0xF9 JUMPI DUP1 PUSH4 0xC618A1E4 EQ PUSH2 0x103 JUMPI DUP1 PUSH4 0xCE5087F7 EQ PUSH2 0x121 JUMPI DUP1 PUSH4 0xD76704C2 EQ PUSH2 0x12B JUMPI DUP1 PUSH4 0xF34B6A86 EQ PUSH2 0x135 JUMPI PUSH2 0x91 JUMP JUMPDEST DUP1 PUSH4 0x9BFAB1A EQ PUSH2 0x95 JUMPI DUP1 PUSH4 0x13323B61 EQ PUSH2 0xB3 JUMPI DUP1 PUSH4 0x175BBECF EQ PUSH2 0xBD JUMPI DUP1 PUSH4 0x2D9FFF01 EQ PUSH2 0xDB JUMPI JUMPDEST PUSH0 DUP1 REVERT JUMPDEST PUSH2 0x9D PUSH2 0x153 JUMP JUMPDEST PUSH1 0x40 MLOAD PUSH2 0xAA SWAP2 SWAP1 PUSH2 0x470 JUMP JUMPDEST PUSH1 0x40 MLOAD DUP1 SWAP2 SUB SWAP1 RETURN JUMPDEST PUSH2 0xBB PUSH2 0x1DE JUMP JUMPDEST STOP JUMPDEST PUSH2 0xC5 PUSH2 0x1FA JUMP JUMPDEST PUSH1 0x40 MLOAD PUSH2 0xD2 SWAP2 SWAP1 PUSH2 0x4AA JUMP JUMPDEST PUSH1 0x40 MLOAD DUP1 SWAP2 SUB SWAP1 RETURN JUMPDEST PUSH2 0xE3 PUSH2 0x20C JUMP JUMPDEST PUSH1 0x40 MLOAD PUSH2 0xF0 SWAP2 SWAP1 PUSH2 0x470 JUMP JUMPDEST PUSH1 0x40 MLOAD DUP1 SWAP2 SUB SWAP1 RETURN JUMPDEST PUSH2 0x101 PUSH2 0x297 JUMP JUMPDEST STOP JUMPDEST PUSH2 0x10B PUSH2 0x2F6 JUMP JUMPDEST PUSH1 0x40 MLOAD PUSH2 0x118 SWAP2 SWAP1 PUSH2 0x4DB JUMP JUMPDEST PUSH1 0x40 MLOAD DUP1 SWAP2 SUB SWAP1 RETURN JUMPDEST PUSH2 0x129 PUSH2 0x2FC JUMP JUMPDEST STOP JUMPDEST PUSH2 0x133 PUSH2 0x317 JUMP JUMPDEST STOP JUMPDEST PUSH2 0x13D PUSH2 0x375 JUMP JUMPDEST PUSH1 0x40 MLOAD PUSH2 0x14A SWAP2 SWAP1 PUSH2 0x470 JUMP JUMPDEST PUSH1 0x40 MLOAD DUP1 SWAP2 SUB SWAP1 RETURN JUMPDEST PUSH1 0x60 PUSH1 0x2 PUSH0 SWAP1 SLOAD SWAP1 PUSH2 0x100 EXP SWAP1 DIV PUSH1 0xFF AND PUSH2 0x1A3 JUMPI PUSH1 0x40 MLOAD PUSH32 0x8C379A000000000000000000000000000000000000000000000000000000000 DUP2 MSTORE PUSH1 0x4 ADD PUSH2 0x19A SWAP1 PUSH2 0x53E JUMP JUMPDEST PUSH1 0x40 MLOAD DUP1 SWAP2 SUB SWAP1 REVERT JUMPDEST PUSH1 0x40 MLOAD DUP1 PUSH1 0x40 ADD PUSH1 0x40 MSTORE DUP1 PUSH1 0x18 DUP2 MSTORE PUSH1 0x20 ADD PUSH32 0x53756273637269626520746F204E6F6E2D41636164656D790000000000000000 DUP2 MSTORE POP SWAP1 POP SWAP1 JUMP JUMPDEST PUSH1 0x1 PUSH1 0x2 PUSH0 PUSH2 0x100 EXP DUP2 SLOAD DUP2 PUSH1 0xFF MUL NOT AND SWAP1 DUP4 ISZERO ISZERO MUL OR SWAP1 SSTORE POP JUMP JUMPDEST PUSH1 0x2 PUSH0 SWAP1 SLOAD SWAP1 PUSH2 0x100 EXP SWAP1 DIV PUSH1 0xFF AND DUP2 JUMP JUMPDEST PUSH0 DUP1 SLOAD PUSH2 0x218 SWAP1 PUSH2 0x589 JUMP JUMPDEST DUP1 PUSH1 0x1F ADD PUSH1 0x20 DUP1 SWAP2 DIV MUL PUSH1 0x20 ADD PUSH1 0x40 MLOAD SWAP1 DUP2 ADD PUSH1 0x40 MSTORE DUP1 SWAP3 SWAP2 SWAP1 DUP2 DUP2 MSTORE PUSH1 0x20 ADD DUP3 DUP1 SLOAD PUSH2 0x244 SWAP1 PUSH2 0x589 JUMP JUMPDEST DUP1 ISZERO PUSH2 0x28F JUMPI DUP1 PUSH1 0x1F LT PUSH2 0x266 JUMPI PUSH2 0x100 DUP1 DUP4 SLOAD DIV MUL DUP4 MSTORE SWAP2 PUSH1 0x20 ADD SWAP2 PUSH2 0x28F JUMP JUMPDEST DUP3 ADD SWAP2 SWAP1 PUSH0 MSTORE PUSH1 0x20 PUSH0 KECCAK256 SWAP1 JUMPDEST DUP2 SLOAD DUP2 MSTORE SWAP1 PUSH1 0x1 ADD SWAP1 PUSH1 0x20 ADD DUP1 DUP4 GT PUSH2 0x272 JUMPI DUP3 SWAP1 SUB PUSH1 0x1F AND DUP3 ADD SWAP2 JUMPDEST POP POP POP POP POP DUP2 JUMP JUMPDEST PUSH1 0xA PUSH1 0x1 SLOAD LT PUSH2 0x2DC JUMPI PUSH1 0x40 MLOAD PUSH32 0x8C379A000000000000000000000000000000000000000000000000000000000 DUP2 MSTORE PUSH1 0x4 ADD PUSH2 0x2D3 SWAP1 PUSH2 0x603 JUMP JUMPDEST PUSH1 0x40 MLOAD DUP1 SWAP2 SUB SWAP1 REVERT JUMPDEST PUSH1 0x1 DUP1 PUSH0 DUP3 DUP3 SLOAD PUSH2 0x2ED SWAP2 SWAP1 PUSH2 0x64E JUMP JUMPDEST SWAP3 POP POP DUP2 SWAP1 SSTORE POP JUMP JUMPDEST PUSH1 0x1 SLOAD DUP2 JUMP JUMPDEST PUSH0 PUSH1 0x2 PUSH0 PUSH2 0x100 EXP DUP2 SLOAD DUP2 PUSH1 0xFF MUL NOT AND SWAP1 DUP4 ISZERO ISZERO MUL OR SWAP1 SSTORE POP JUMP JUMPDEST PUSH0 PUSH1 0x1 SLOAD GT PUSH2 0x35B JUMPI PUSH1 0x40 MLOAD PUSH32 0x8C379A000000000000000000000000000000000000000000000000000000000 DUP2 MSTORE PUSH1 0x4 ADD PUSH2 0x352 SWAP1 PUSH2 0x6CB JUMP JUMPDEST PUSH1 0x40 MLOAD DUP1 SWAP2 SUB SWAP1 REVERT JUMPDEST PUSH1 0x1 DUP1 PUSH0 DUP3 DUP3 SLOAD PUSH2 0x36C SWAP2 SWAP1 PUSH2 0x6E9 JUMP JUMPDEST SWAP3 POP POP DUP2 SWAP1 SSTORE POP JUMP JUMPDEST PUSH1 0x60 PUSH1 0x2 PUSH0 SWAP1 SLOAD SWAP1 PUSH2 0x100 EXP SWAP1 DIV PUSH1 0xFF AND PUSH2 0x3C5 JUMPI PUSH1 0x40 MLOAD PUSH32 0x8C379A000000000000000000000000000000000000000000000000000000000 DUP2 MSTORE PUSH1 0x4 ADD PUSH2 0x3BC SWAP1 PUSH2 0x53E JUMP JUMPDEST PUSH1 0x40 MLOAD DUP1 SWAP2 SUB SWAP1 REVERT JUMPDEST PUSH1 0x40 MLOAD DUP1 PUSH1 0x40 ADD PUSH1 0x40 MSTORE DUP1 PUSH1 0x11 DUP2 MSTORE PUSH1 0x20 ADD PUSH32 0x5769666920697320636F6E6E6563746564000000000000000000000000000000 DUP2 MSTORE POP SWAP1 POP SWAP1 JUMP JUMPDEST PUSH0 DUP2 MLOAD SWAP1 POP SWAP2 SWAP1 POP JUMP JUMPDEST PUSH0 DUP3 DUP3 MSTORE PUSH1 0x20 DUP3 ADD SWAP1 POP SWAP3 SWAP2 POP POP JUMP JUMPDEST DUP3 DUP2 DUP4 MCOPY PUSH0 DUP4 DUP4 ADD MSTORE POP POP POP JUMP JUMPDEST PUSH0 PUSH1 0x1F NOT PUSH1 0x1F DUP4 ADD AND SWAP1 POP SWAP2 SWAP1 POP JUMP JUMPDEST PUSH0 PUSH2 0x442 DUP3 PUSH2 0x400 JUMP JUMPDEST PUSH2 0x44C DUP2 DUP6 PUSH2 0x40A JUMP JUMPDEST SWAP4 POP PUSH2 0x45C DUP2 DUP6 PUSH1 0x20 DUP7 ADD PUSH2 0x41A JUMP JUMPDEST PUSH2 0x465 DUP2 PUSH2 0x428 JUMP JUMPDEST DUP5 ADD SWAP2 POP POP SWAP3 SWAP2 POP POP JUMP JUMPDEST PUSH0 PUSH1 0x20 DUP3 ADD SWAP1 POP DUP2 DUP2 SUB PUSH0 DUP4 ADD MSTORE PUSH2 0x488 DUP2 DUP5 PUSH2 0x438 JUMP JUMPDEST SWAP1 POP SWAP3 SWAP2 POP POP JUMP JUMPDEST PUSH0 DUP2 ISZERO ISZERO SWAP1 POP SWAP2 SWAP1 POP JUMP JUMPDEST PUSH2 0x4A4 DUP2 PUSH2 0x490 JUMP JUMPDEST DUP3 MSTORE POP POP JUMP JUMPDEST PUSH0 PUSH1 0x20 DUP3 ADD SWAP1 POP PUSH2 0x4BD PUSH0 DUP4 ADD DUP5 PUSH2 0x49B JUMP JUMPDEST SWAP3 SWAP2 POP POP JUMP JUMPDEST PUSH0 DUP2 SWAP1 POP SWAP2 SWAP1 POP JUMP JUMPDEST PUSH2 0x4D5 DUP2 PUSH2 0x4C3 JUMP JUMPDEST DUP3 MSTORE POP POP JUMP JUMPDEST PUSH0 PUSH1 0x20 DUP3 ADD SWAP1 POP PUSH2 0x4EE PUSH0 DUP4 ADD DUP5 PUSH2 0x4CC JUMP JUMPDEST SWAP3 SWAP2 POP POP JUMP JUMPDEST PUSH32 0x5475726E206F6E20746865205456206669727374000000000000000000000000 PUSH0 DUP3 ADD MSTORE POP JUMP JUMPDEST PUSH0 PUSH2 0x528 PUSH1 0x14 DUP4 PUSH2 0x40A JUMP JUMPDEST SWAP2 POP PUSH2 0x533 DUP3 PUSH2 0x4F4 JUMP JUMPDEST PUSH1 0x20 DUP3 ADD SWAP1 POP SWAP2 SWAP1 POP JUMP JUMPDEST PUSH0 PUSH1 0x20 DUP3 ADD SWAP1 POP DUP2 DUP2 SUB PUSH0 DUP4 ADD MSTORE PUSH2 0x555 DUP2 PUSH2 0x51C JUMP JUMPDEST SWAP1 POP SWAP2 SWAP1 POP JUMP JUMPDEST PUSH32 0x4E487B7100000000000000000000000000000000000000000000000000000000 PUSH0 MSTORE PUSH1 0x22 PUSH1 0x4 MSTORE PUSH1 0x24 PUSH0 REVERT JUMPDEST PUSH0 PUSH1 0x2 DUP3 DIV SWAP1 POP PUSH1 0x1 DUP3 AND DUP1 PUSH2 0x5A0 JUMPI PUSH1 0x7F DUP3 AND SWAP2 POP JUMPDEST PUSH1 0x20 DUP3 LT DUP2 SUB PUSH2 0x5B3 JUMPI PUSH2 0x5B2 PUSH2 0x55C JUMP JUMPDEST JUMPDEST POP SWAP2 SWAP1 POP JUMP JUMPDEST PUSH32 0x596F757220766F6C756D65206973203130000000000000000000000000000000 PUSH0 DUP3 ADD MSTORE POP JUMP JUMPDEST PUSH0 PUSH2 0x5ED PUSH1 0x11 DUP4 PUSH2 0x40A JUMP JUMPDEST SWAP2 POP PUSH2 0x5F8 DUP3 PUSH2 0x5B9 JUMP JUMPDEST PUSH1 0x20 DUP3 ADD SWAP1 POP SWAP2 SWAP1 POP JUMP JUMPDEST PUSH0 PUSH1 0x20 DUP3 ADD SWAP1 POP DUP2 DUP2 SUB PUSH0 DUP4 ADD MSTORE PUSH2 0x61A DUP2 PUSH2 0x5E1 JUMP JUMPDEST SWAP1 POP SWAP2 SWAP1 POP JUMP JUMPDEST PUSH32 0x4E487B7100000000000000000000000000000000000000000000000000000000 PUSH0 MSTORE PUSH1 0x11 PUSH1 0x4 MSTORE PUSH1 0x24 PUSH0 REVERT JUMPDEST PUSH0 PUSH2 0x658 DUP3 PUSH2 0x4C3 JUMP JUMPDEST SWAP2 POP PUSH2 0x663 DUP4 PUSH2 0x4C3 JUMP JUMPDEST SWAP3 POP DUP3 DUP3 ADD SWAP1 POP DUP1 DUP3 GT ISZERO PUSH2 0x67B JUMPI PUSH2 0x67A PUSH2 0x621 JUMP JUMPDEST JUMPDEST SWAP3 SWAP2 POP POP JUMP JUMPDEST PUSH32 0x596F757220766F6C756D65206973203000000000000000000000000000000000 PUSH0 DUP3 ADD MSTORE POP JUMP JUMPDEST PUSH0 PUSH2 0x6B5 PUSH1 0x10 DUP4 PUSH2 0x40A JUMP JUMPDEST SWAP2 POP PUSH2 0x6C0 DUP3 PUSH2 0x681 JUMP JUMPDEST PUSH1 0x20 DUP3 ADD SWAP1 POP SWAP2 SWAP1 POP JUMP JUMPDEST PUSH0 PUSH1 0x20 DUP3 ADD SWAP1 POP DUP2 DUP2 SUB PUSH0 DUP4 ADD MSTORE PUSH2 0x6E2 DUP2 PUSH2 0x6A9 JUMP JUMPDEST SWAP1 POP SWAP2 SWAP1 POP JUMP JUMPDEST PUSH0 PUSH2 0x6F3 DUP3 PUSH2 0x4C3 JUMP JUMPDEST SWAP2 POP PUSH2 0x6FE DUP4 PUSH2 0x4C3 JUMP JUMPDEST SWAP3 POP DUP3 DUP3 SUB SWAP1 POP DUP2 DUP2 GT ISZERO PUSH2 0x716 JUMPI PUSH2 0x715 PUSH2 0x621 JUMP JUMPDEST JUMPDEST SWAP3 SWAP2 POP POP JUMP INVALID LOG2 PUSH5 0x6970667358 0x22 SLT KECCAK256 XOR 0xB0 PUSH2 0xAED2 MSTORE8 SWAP3 DELEGATECALL 0xDC 0xD6 0xCE SUB PUSH22 0xDD1A650D4A7DB86D62490F3CB5E3704DA15A0F64736F PUSH13 0x634300081A0033000000000000 "
				},
				"gasEstimates": {
					"creation": {
						"codeDepositCost": "374800",
						"executionCost": "infinite",
						"totalCost": "infinite"
					},
					"external": {
						"TvOff()": "24452",
						"TvOn()": "24432",
						"brand()": "infinite",
						"connectWifi()": "infinite",
						"decreaseVolume()": "infinite",
						"goToNonAcademy()": "infinite",
						"increaseVolume()": "infinite",
						"isOn()": "2511",
						"volume()": "2447"
					}
				},
				"methodIdentifiers": {
					"TvOff()": "ce5087f7",
					"TvOn()": "13323b61",
					"brand()": "2d9fff01",
					"connectWifi()": "f34b6a86",
					"decreaseVolume()": "d76704c2",
					"goToNonAcademy()": "09bfab1a",
					"increaseVolume()": "871115da",
					"isOn()": "175bbecf",
					"volume()": "c618a1e4"
				}
			},
			"storageLayout": {
				"storage": [
					{
						"astId": 3,
						"contract": "contracts/TVInterface.sol:smartTv",
						"label": "brand",
						"offset": 0,
						"slot": "0",
						"type": "t_string_storage"
					},
					{
						"astId": 5,
						"contract": "contracts/TVInterface.sol:smartTv",
						"label": "volume",
						"offset": 0,
						"slot": "1",
						"type": "t_uint256"
					},
					{
						"astId": 7,
						"contract": "contracts/TVInterface.sol:smartTv",
						"label": "isOn",
						"offset": 0,
						"slot": "2",
						"type": "t_bool"
					}
				],
				"types": {
					"t_bool": {
						"encoding": "inplace",
						"label": "bool",
						"numberOfBytes": "1"
					},
					"t_string_storage": {
						"encoding": "bytes",
						"label": "string",
						"numberOfBytes": "32"
					},
					"t_uint256": {
						"encoding": "inplace",
						"label": "uint256",
						"numberOfBytes": "32"
					}
				}
			},
			"userdoc": {
				"kind": "user",
				"methods": {},
				"version": 1
			}
		}
	}
}