{
	"TOKEN/GalaxyToken.sol": {
		"GalaxyToken": {
			"abi": [
				{
					"inputs": [
						{
							"internalType": "string",
							"name": "_name",
							"type": "string"
						},
						{
							"internalType": "string",
							"name": "_symbol",
							"type": "string"
						},
						{
							"internalType": "uint8",
							"name": "_decimels",
							"type": "uint8"
						}
					],
					"stateMutability": "nonpayable",
					"type": "constructor"
				},
				{
					"inputs": [
						{
							"internalType": "address",
							"name": "_spender",
							"type": "address"
						},
						{
							"internalType": "uint256",
							"name": "_amount",
							"type": "uint256"
						}
					],
					"name": "approve",
					"outputs": [
						{
							"internalType": "bool",
							"name": "",
							"type": "bool"
						}
					],
					"stateMutability": "nonpayable",
					"type": "function"
				},
				{
					"inputs": [
						{
							"internalType": "uint256",
							"name": "amount",
							"type": "uint256"
						}
					],
					"name": "burn",
					"outputs": [],
					"stateMutability": "nonpayable",
					"type": "function"
				},
				{
					"inputs": [],
					"name": "decimels",
					"outputs": [
						{
							"internalType": "uint8",
							"name": "",
							"type": "uint8"
						}
					],
					"stateMutability": "view",
					"type": "function"
				},
				{
					"inputs": [],
					"name": "name",
					"outputs": [
						{
							"internalType": "string",
							"name": "",
							"type": "string"
						}
					],
					"stateMutability": "view",
					"type": "function"
				},
				{
					"inputs": [],
					"name": "owner",
					"outputs": [
						{
							"internalType": "address",
							"name": "",
							"type": "address"
						}
					],
					"stateMutability": "view",
					"type": "function"
				},
				{
					"inputs": [],
					"name": "pause",
					"outputs": [
						{
							"internalType": "bool",
							"name": "",
							"type": "bool"
						}
					],
					"stateMutability": "view",
					"type": "function"
				},
				{
					"inputs": [],
					"name": "paused",
					"outputs": [],
					"stateMutability": "nonpayable",
					"type": "function"
				},
				{
					"inputs": [],
					"name": "symbol",
					"outputs": [
						{
							"internalType": "string",
							"name": "",
							"type": "string"
						}
					],
					"stateMutability": "view",
					"type": "function"
				},
				{
					"inputs": [],
					"name": "totalSupply",
					"outputs": [
						{
							"internalType": "uint256",
							"name": "",
							"type": "uint256"
						}
					],
					"stateMutability": "view",
					"type": "function"
				},
				{
					"inputs": [
						{
							"internalType": "address",
							"name": "_to",
							"type": "address"
						},
						{
							"internalType": "uint256",
							"name": "amount",
							"type": "uint256"
						}
					],
					"name": "transfer",
					"outputs": [
						{
							"internalType": "bool",
							"name": "",
							"type": "bool"
						}
					],
					"stateMutability": "nonpayable",
					"type": "function"
				},
				{
					"inputs": [
						{
							"internalType": "address",
							"name": "from",
							"type": "address"
						},
						{
							"internalType": "address",
							"name": "to",
							"type": "address"
						},
						{
							"internalType": "uint256",
							"name": "amount",
							"type": "uint256"
						}
					],
					"name": "transferFrom",
					"outputs": [
						{
							"internalType": "bool",
							"name": "",
							"type": "bool"
						}
					],
					"stateMutability": "nonpayable",
					"type": "function"
				},
				{
					"inputs": [],
					"name": "unPaused",
					"outputs": [],
					"stateMutability": "nonpayable",
					"type": "function"
				}
			],
			"devdoc": {
				"kind": "dev",
				"methods": {},
				"version": 1
			},
			"evm": {
				"assembly": "    /* \"TOKEN/GalaxyToken.sol\":60:2737  contract GalaxyToken{... */\n  mstore(0x40, 0x80)\n    /* \"TOKEN/GalaxyToken.sol\":592:834  constructor(string memory _name,string memory _symbol,uint8 _decimels){... */\n  callvalue\n  dup1\n  iszero\n  tag_1\n  jumpi\n  0x00\n  dup1\n  revert\ntag_1:\n  pop\n  mload(0x40)\n  sub(codesize, bytecodeSize)\n  dup1\n  bytecodeSize\n  dup4\n  codecopy\n  dup2\n  dup2\n  add\n  0x40\n  mstore\n  dup2\n  add\n  swap1\n  tag_2\n  swap2\n  swap1\n  tag_3\n  jump\t// in\ntag_2:\n    /* \"TOKEN/GalaxyToken.sol\":681:691  msg.sender */\n  caller\n    /* \"TOKEN/GalaxyToken.sol\":673:678  owner */\n  0x04\n  0x00\n    /* \"TOKEN/GalaxyToken.sol\":673:691  owner = msg.sender */\n  0x0100\n  exp\n  dup2\n  sload\n  dup2\n  0xffffffffffffffffffffffffffffffffffffffff\n  mul\n  not\n  and\n  swap1\n  dup4\n  0xffffffffffffffffffffffffffffffffffffffff\n  and\n  mul\n  or\n  swap1\n  sstore\n  pop\n    /* \"TOKEN/GalaxyToken.sol\":709:714  _name */\n  dup3\n    /* \"TOKEN/GalaxyToken.sol\":702:706  name */\n  0x00\n    /* \"TOKEN/GalaxyToken.sol\":702:714  name = _name */\n  swap1\n  dup2\n  tag_6\n  swap2\n  swap1\n  tag_7\n  jump\t// in\ntag_6:\n  pop\n    /* \"TOKEN/GalaxyToken.sol\":734:741  _symbol */\n  dup2\n    /* \"TOKEN/GalaxyToken.sol\":725:731  symbol */\n  0x01\n    /* \"TOKEN/GalaxyToken.sol\":725:741  symbol = _symbol */\n  swap1\n  dup2\n  tag_8\n  swap2\n  swap1\n  tag_7\n  jump\t// in\ntag_8:\n  pop\n    /* \"TOKEN/GalaxyToken.sol\":763:772  _decimels */\n  dup1\n    /* \"TOKEN/GalaxyToken.sol\":752:760  decimels */\n  0x02\n  0x00\n    /* \"TOKEN/GalaxyToken.sol\":752:772  decimels = _decimels */\n  0x0100\n  exp\n  dup2\n  sload\n  dup2\n  0xff\n  mul\n  not\n  and\n  swap1\n  dup4\n  0xff\n  and\n  mul\n  or\n  swap1\n  sstore\n  pop\n    /* \"TOKEN/GalaxyToken.sol\":783:826  _mint(msg.sender, 1000000 * 10 ** decimels) */\n  tag_9\n    /* \"TOKEN/GalaxyToken.sol\":789:799  msg.sender */\n  caller\n    /* \"TOKEN/GalaxyToken.sol\":817:825  decimels */\n  0x02\n  0x00\n  swap1\n  sload\n  swap1\n  0x0100\n  exp\n  swap1\n  div\n  0xff\n  and\n    /* \"TOKEN/GalaxyToken.sol\":811:813  10 */\n  0x0a\n    /* \"TOKEN/GalaxyToken.sol\":811:825  10 ** decimels */\n  tag_10\n  swap2\n  swap1\n  tag_11\n  jump\t// in\ntag_10:\n    /* \"TOKEN/GalaxyToken.sol\":801:808  1000000 */\n  0x0f4240\n    /* \"TOKEN/GalaxyToken.sol\":801:825  1000000 * 10 ** decimels */\n  tag_12\n  swap2\n  swap1\n  tag_13\n  jump\t// in\ntag_12:\n    /* \"TOKEN/GalaxyToken.sol\":783:788  _mint */\n  shl(0x20, tag_14)\n    /* \"TOKEN/GalaxyToken.sol\":783:826  _mint(msg.sender, 1000000 * 10 ** decimels) */\n  0x20\n  shr\n  jump\t// in\ntag_9:\n    /* \"TOKEN/GalaxyToken.sol\":592:834  constructor(string memory _name,string memory _symbol,uint8 _decimels){... */\n  pop\n  pop\n  pop\n    /* \"TOKEN/GalaxyToken.sol\":60:2737  contract GalaxyToken{... */\n  jump(tag_15)\n    /* \"TOKEN/GalaxyToken.sol\":842:1030  function _mint(address _addr, uint256 amount) internal {... */\ntag_14:\n    /* \"TOKEN/GalaxyToken.sol\":933:934  0 */\n  0x00\n    /* \"TOKEN/GalaxyToken.sol\":916:935  _addr != address(0) */\n  0xffffffffffffffffffffffffffffffffffffffff\n  and\n    /* \"TOKEN/GalaxyToken.sol\":916:921  _addr */\n  dup3\n    /* \"TOKEN/GalaxyToken.sol\":916:935  _addr != address(0) */\n  0xffffffffffffffffffffffffffffffffffffffff\n  and\n  sub\n    /* \"TOKEN/GalaxyToken.sol\":908:954  require(_addr != address(0),\"Invalid Address\") */\n  tag_17\n  jumpi\n  mload(0x40)\n  0x08c379a000000000000000000000000000000000000000000000000000000000\n  dup2\n  mstore\n  0x04\n  add\n  tag_18\n  swap1\n  tag_19\n  jump\t// in\ntag_18:\n  mload(0x40)\n  dup1\n  swap2\n  sub\n  swap1\n  revert\ntag_17:\n    /* \"TOKEN/GalaxyToken.sol\":984:990  amount */\n  dup1\n    /* \"TOKEN/GalaxyToken.sol\":965:973  balances */\n  0x05\n    /* \"TOKEN/GalaxyToken.sol\":965:980  balances[_addr] */\n  0x00\n    /* \"TOKEN/GalaxyToken.sol\":974:979  _addr */\n  dup5\n    /* \"TOKEN/GalaxyToken.sol\":965:980  balances[_addr] */\n  0xffffffffffffffffffffffffffffffffffffffff\n  and\n  0xffffffffffffffffffffffffffffffffffffffff\n  and\n  dup2\n  mstore\n  0x20\n  add\n  swap1\n  dup2\n  mstore\n  0x20\n  add\n  0x00\n  keccak256\n  0x00\n    /* \"TOKEN/GalaxyToken.sol\":965:990  balances[_addr] += amount */\n  dup3\n  dup3\n  sload\n  tag_20\n  swap2\n  swap1\n  tag_21\n  jump\t// in\ntag_20:\n  swap3\n  pop\n  pop\n  dup2\n  swap1\n  sstore\n  pop\n    /* \"TOKEN/GalaxyToken.sol\":1016:1022  amount */\n  dup1\n    /* \"TOKEN/GalaxyToken.sol\":1001:1012  totalSupply */\n  0x03\n  0x00\n    /* \"TOKEN/GalaxyToken.sol\":1001:1022  totalSupply += amount */\n  dup3\n  dup3\n  sload\n  tag_22\n  swap2\n  swap1\n  tag_21\n  jump\t// in\ntag_22:\n  swap3\n  pop\n  pop\n  dup2\n  swap1\n  sstore\n  pop\n    /* \"TOKEN/GalaxyToken.sol\":842:1030  function _mint(address _addr, uint256 amount) internal {... */\n  pop\n  pop\n  jump\t// out\n    /* \"#utility.yul\":7:82   */\ntag_23:\n    /* \"#utility.yul\":40:46   */\n  0x00\n    /* \"#utility.yul\":73:75   */\n  0x40\n    /* \"#utility.yul\":67:76   */\n  mload\n    /* \"#utility.yul\":57:76   */\n  swap1\n  pop\n    /* \"#utility.yul\":7:82   */\n  swap1\n  jump\t// out\n    /* \"#utility.yul\":88:205   */\ntag_24:\n    /* \"#utility.yul\":197:198   */\n  0x00\n    /* \"#utility.yul\":194:195   */\n  dup1\n    /* \"#utility.yul\":187:199   */\n  revert\n    /* \"#utility.yul\":211:328   */\ntag_25:\n    /* \"#utility.yul\":320:321   */\n  0x00\n    /* \"#utility.yul\":317:318   */\n  dup1\n    /* \"#utility.yul\":310:322   */\n  revert\n    /* \"#utility.yul\":334:451   */\ntag_26:\n    /* \"#utility.yul\":443:444   */\n  0x00\n    /* \"#utility.yul\":440:441   */\n  dup1\n    /* \"#utility.yul\":433:445   */\n  revert\n    /* \"#utility.yul\":457:574   */\ntag_27:\n    /* \"#utility.yul\":566:567   */\n  0x00\n    /* \"#utility.yul\":563:564   */\n  dup1\n    /* \"#utility.yul\":556:568   */\n  revert\n    /* \"#utility.yul\":580:682   */\ntag_28:\n    /* \"#utility.yul\":621:627   */\n  0x00\n    /* \"#utility.yul\":672:674   */\n  0x1f\n    /* \"#utility.yul\":668:675   */\n  not\n    /* \"#utility.yul\":663:665   */\n  0x1f\n    /* \"#utility.yul\":656:661   */\n  dup4\n    /* \"#utility.yul\":652:666   */\n  add\n    /* \"#utility.yul\":648:676   */\n  and\n    /* \"#utility.yul\":638:676   */\n  swap1\n  pop\n    /* \"#utility.yul\":580:682   */\n  swap2\n  swap1\n  pop\n  jump\t// out\n    /* \"#utility.yul\":688:868   */\ntag_29:\n    /* \"#utility.yul\":736:813   */\n  0x4e487b7100000000000000000000000000000000000000000000000000000000\n    /* \"#utility.yul\":733:734   */\n  0x00\n    /* \"#utility.yul\":726:814   */\n  mstore\n    /* \"#utility.yul\":833:837   */\n  0x41\n    /* \"#utility.yul\":830:831   */\n  0x04\n    /* \"#utility.yul\":823:838   */\n  mstore\n    /* \"#utility.yul\":857:861   */\n  0x24\n    /* \"#utility.yul\":854:855   */\n  0x00\n    /* \"#utility.yul\":847:862   */\n  revert\n    /* \"#utility.yul\":874:1155   */\ntag_30:\n    /* \"#utility.yul\":957:984   */\n  tag_74\n    /* \"#utility.yul\":979:983   */\n  dup3\n    /* \"#utility.yul\":957:984   */\n  tag_28\n  jump\t// in\ntag_74:\n    /* \"#utility.yul\":949:955   */\n  dup2\n    /* \"#utility.yul\":945:985   */\n  add\n    /* \"#utility.yul\":1087:1093   */\n  dup2\n    /* \"#utility.yul\":1075:1085   */\n  dup2\n    /* \"#utility.yul\":1072:1094   */\n  lt\n    /* \"#utility.yul\":1051:1069   */\n  0xffffffffffffffff\n    /* \"#utility.yul\":1039:1049   */\n  dup3\n    /* \"#utility.yul\":1036:1070   */\n  gt\n    /* \"#utility.yul\":1033:1095   */\n  or\n    /* \"#utility.yul\":1030:1118   */\n  iszero\n  tag_75\n  jumpi\n    /* \"#utility.yul\":1098:1116   */\n  tag_76\n  tag_29\n  jump\t// in\ntag_76:\n    /* \"#utility.yul\":1030:1118   */\ntag_75:\n    /* \"#utility.yul\":1138:1148   */\n  dup1\n    /* \"#utility.yul\":1134:1136   */\n  0x40\n    /* \"#utility.yul\":1127:1149   */\n  mstore\n    /* \"#utility.yul\":917:1155   */\n  pop\n    /* \"#utility.yul\":874:1155   */\n  pop\n  pop\n  jump\t// out\n    /* \"#utility.yul\":1161:1290   */\ntag_31:\n    /* \"#utility.yul\":1195:1201   */\n  0x00\n    /* \"#utility.yul\":1222:1242   */\n  tag_78\n  tag_23\n  jump\t// in\ntag_78:\n    /* \"#utility.yul\":1212:1242   */\n  swap1\n  pop\n    /* \"#utility.yul\":1251:1284   */\n  tag_79\n    /* \"#utility.yul\":1279:1283   */\n  dup3\n    /* \"#utility.yul\":1271:1277   */\n  dup3\n    /* \"#utility.yul\":1251:1284   */\n  tag_30\n  jump\t// in\ntag_79:\n    /* \"#utility.yul\":1161:1290   */\n  swap2\n  swap1\n  pop\n  jump\t// out\n    /* \"#utility.yul\":1296:1604   */\ntag_32:\n    /* \"#utility.yul\":1358:1362   */\n  0x00\n    /* \"#utility.yul\":1448:1466   */\n  0xffffffffffffffff\n    /* \"#utility.yul\":1440:1446   */\n  dup3\n    /* \"#utility.yul\":1437:1467   */\n  gt\n    /* \"#utility.yul\":1434:1490   */\n  iszero\n  tag_81\n  jumpi\n    /* \"#utility.yul\":1470:1488   */\n  tag_82\n  tag_29\n  jump\t// in\ntag_82:\n    /* \"#utility.yul\":1434:1490   */\ntag_81:\n    /* \"#utility.yul\":1508:1537   */\n  tag_83\n    /* \"#utility.yul\":1530:1536   */\n  dup3\n    /* \"#utility.yul\":1508:1537   */\n  tag_28\n  jump\t// in\ntag_83:\n    /* \"#utility.yul\":1500:1537   */\n  swap1\n  pop\n    /* \"#utility.yul\":1592:1596   */\n  0x20\n    /* \"#utility.yul\":1586:1590   */\n  dup2\n    /* \"#utility.yul\":1582:1597   */\n  add\n    /* \"#utility.yul\":1574:1597   */\n  swap1\n  pop\n    /* \"#utility.yul\":1296:1604   */\n  swap2\n  swap1\n  pop\n  jump\t// out\n    /* \"#utility.yul\":1610:1749   */\ntag_33:\n    /* \"#utility.yul\":1699:1705   */\n  dup3\n    /* \"#utility.yul\":1694:1697   */\n  dup2\n    /* \"#utility.yul\":1689:1692   */\n  dup4\n    /* \"#utility.yul\":1683:1706   */\n  mcopy\n    /* \"#utility.yul\":1740:1741   */\n  0x00\n    /* \"#utility.yul\":1731:1737   */\n  dup4\n    /* \"#utility.yul\":1726:1729   */\n  dup4\n    /* \"#utility.yul\":1722:1738   */\n  add\n    /* \"#utility.yul\":1715:1742   */\n  mstore\n    /* \"#utility.yul\":1610:1749   */\n  pop\n  pop\n  pop\n  jump\t// out\n    /* \"#utility.yul\":1755:2189   */\ntag_34:\n    /* \"#utility.yul\":1844:1849   */\n  0x00\n    /* \"#utility.yul\":1869:1935   */\n  tag_86\n    /* \"#utility.yul\":1885:1934   */\n  tag_87\n    /* \"#utility.yul\":1927:1933   */\n  dup5\n    /* \"#utility.yul\":1885:1934   */\n  tag_32\n  jump\t// in\ntag_87:\n    /* \"#utility.yul\":1869:1935   */\n  tag_31\n  jump\t// in\ntag_86:\n    /* \"#utility.yul\":1860:1935   */\n  swap1\n  pop\n    /* \"#utility.yul\":1958:1964   */\n  dup3\n    /* \"#utility.yul\":1951:1956   */\n  dup2\n    /* \"#utility.yul\":1944:1965   */\n  mstore\n    /* \"#utility.yul\":1996:2000   */\n  0x20\n    /* \"#utility.yul\":1989:1994   */\n  dup2\n    /* \"#utility.yul\":1985:2001   */\n  add\n    /* \"#utility.yul\":2034:2037   */\n  dup5\n    /* \"#utility.yul\":2025:2031   */\n  dup5\n    /* \"#utility.yul\":2020:2023   */\n  dup5\n    /* \"#utility.yul\":2016:2032   */\n  add\n    /* \"#utility.yul\":2013:2038   */\n  gt\n    /* \"#utility.yul\":2010:2122   */\n  iszero\n  tag_88\n  jumpi\n    /* \"#utility.yul\":2041:2120   */\n  tag_89\n  tag_27\n  jump\t// in\ntag_89:\n    /* \"#utility.yul\":2010:2122   */\ntag_88:\n    /* \"#utility.yul\":2131:2183   */\n  tag_90\n    /* \"#utility.yul\":2176:2182   */\n  dup5\n    /* \"#utility.yul\":2171:2174   */\n  dup3\n    /* \"#utility.yul\":2166:2169   */\n  dup6\n    /* \"#utility.yul\":2131:2183   */\n  tag_33\n  jump\t// in\ntag_90:\n    /* \"#utility.yul\":1850:2189   */\n  pop\n    /* \"#utility.yul\":1755:2189   */\n  swap4\n  swap3\n  pop\n  pop\n  pop\n  jump\t// out\n    /* \"#utility.yul\":2209:2564   */\ntag_35:\n    /* \"#utility.yul\":2276:2281   */\n  0x00\n    /* \"#utility.yul\":2325:2328   */\n  dup3\n    /* \"#utility.yul\":2318:2322   */\n  0x1f\n    /* \"#utility.yul\":2310:2316   */\n  dup4\n    /* \"#utility.yul\":2306:2323   */\n  add\n    /* \"#utility.yul\":2302:2329   */\n  slt\n    /* \"#utility.yul\":2292:2414   */\n  tag_92\n  jumpi\n    /* \"#utility.yul\":2333:2412   */\n  tag_93\n  tag_26\n  jump\t// in\ntag_93:\n    /* \"#utility.yul\":2292:2414   */\ntag_92:\n    /* \"#utility.yul\":2443:2449   */\n  dup2\n    /* \"#utility.yul\":2437:2450   */\n  mload\n    /* \"#utility.yul\":2468:2558   */\n  tag_94\n    /* \"#utility.yul\":2554:2557   */\n  dup5\n    /* \"#utility.yul\":2546:2552   */\n  dup3\n    /* \"#utility.yul\":2539:2543   */\n  0x20\n    /* \"#utility.yul\":2531:2537   */\n  dup7\n    /* \"#utility.yul\":2527:2544   */\n  add\n    /* \"#utility.yul\":2468:2558   */\n  tag_34\n  jump\t// in\ntag_94:\n    /* \"#utility.yul\":2459:2558   */\n  swap2\n  pop\n    /* \"#utility.yul\":2282:2564   */\n  pop\n    /* \"#utility.yul\":2209:2564   */\n  swap3\n  swap2\n  pop\n  pop\n  jump\t// out\n    /* \"#utility.yul\":2570:2656   */\ntag_36:\n    /* \"#utility.yul\":2605:2612   */\n  0x00\n    /* \"#utility.yul\":2645:2649   */\n  0xff\n    /* \"#utility.yul\":2638:2643   */\n  dup3\n    /* \"#utility.yul\":2634:2650   */\n  and\n    /* \"#utility.yul\":2623:2650   */\n  swap1\n  pop\n    /* \"#utility.yul\":2570:2656   */\n  swap2\n  swap1\n  pop\n  jump\t// out\n    /* \"#utility.yul\":2662:2780   */\ntag_37:\n    /* \"#utility.yul\":2733:2755   */\n  tag_97\n    /* \"#utility.yul\":2749:2754   */\n  dup2\n    /* \"#utility.yul\":2733:2755   */\n  tag_36\n  jump\t// in\ntag_97:\n    /* \"#utility.yul\":2726:2731   */\n  dup2\n    /* \"#utility.yul\":2723:2756   */\n  eq\n    /* \"#utility.yul\":2713:2774   */\n  tag_98\n  jumpi\n    /* \"#utility.yul\":2770:2771   */\n  0x00\n    /* \"#utility.yul\":2767:2768   */\n  dup1\n    /* \"#utility.yul\":2760:2772   */\n  revert\n    /* \"#utility.yul\":2713:2774   */\ntag_98:\n    /* \"#utility.yul\":2662:2780   */\n  pop\n  jump\t// out\n    /* \"#utility.yul\":2786:2925   */\ntag_38:\n    /* \"#utility.yul\":2841:2846   */\n  0x00\n    /* \"#utility.yul\":2872:2878   */\n  dup2\n    /* \"#utility.yul\":2866:2879   */\n  mload\n    /* \"#utility.yul\":2857:2879   */\n  swap1\n  pop\n    /* \"#utility.yul\":2888:2919   */\n  tag_100\n    /* \"#utility.yul\":2913:2918   */\n  dup2\n    /* \"#utility.yul\":2888:2919   */\n  tag_37\n  jump\t// in\ntag_100:\n    /* \"#utility.yul\":2786:2925   */\n  swap3\n  swap2\n  pop\n  pop\n  jump\t// out\n    /* \"#utility.yul\":2931:3936   */\ntag_3:\n    /* \"#utility.yul\":3037:3043   */\n  0x00\n    /* \"#utility.yul\":3045:3051   */\n  dup1\n    /* \"#utility.yul\":3053:3059   */\n  0x00\n    /* \"#utility.yul\":3102:3104   */\n  0x60\n    /* \"#utility.yul\":3090:3099   */\n  dup5\n    /* \"#utility.yul\":3081:3088   */\n  dup7\n    /* \"#utility.yul\":3077:3100   */\n  sub\n    /* \"#utility.yul\":3073:3105   */\n  slt\n    /* \"#utility.yul\":3070:3189   */\n  iszero\n  tag_102\n  jumpi\n    /* \"#utility.yul\":3108:3187   */\n  tag_103\n  tag_24\n  jump\t// in\ntag_103:\n    /* \"#utility.yul\":3070:3189   */\ntag_102:\n    /* \"#utility.yul\":3249:3250   */\n  0x00\n    /* \"#utility.yul\":3238:3247   */\n  dup5\n    /* \"#utility.yul\":3234:3251   */\n  add\n    /* \"#utility.yul\":3228:3252   */\n  mload\n    /* \"#utility.yul\":3279:3297   */\n  0xffffffffffffffff\n    /* \"#utility.yul\":3271:3277   */\n  dup2\n    /* \"#utility.yul\":3268:3298   */\n  gt\n    /* \"#utility.yul\":3265:3382   */\n  iszero\n  tag_104\n  jumpi\n    /* \"#utility.yul\":3301:3380   */\n  tag_105\n  tag_25\n  jump\t// in\ntag_105:\n    /* \"#utility.yul\":3265:3382   */\ntag_104:\n    /* \"#utility.yul\":3406:3480   */\n  tag_106\n    /* \"#utility.yul\":3472:3479   */\n  dup7\n    /* \"#utility.yul\":3463:3469   */\n  dup3\n    /* \"#utility.yul\":3452:3461   */\n  dup8\n    /* \"#utility.yul\":3448:3470   */\n  add\n    /* \"#utility.yul\":3406:3480   */\n  tag_35\n  jump\t// in\ntag_106:\n    /* \"#utility.yul\":3396:3480   */\n  swap4\n  pop\n    /* \"#utility.yul\":3199:3490   */\n  pop\n    /* \"#utility.yul\":3550:3552   */\n  0x20\n    /* \"#utility.yul\":3539:3548   */\n  dup5\n    /* \"#utility.yul\":3535:3553   */\n  add\n    /* \"#utility.yul\":3529:3554   */\n  mload\n    /* \"#utility.yul\":3581:3599   */\n  0xffffffffffffffff\n    /* \"#utility.yul\":3573:3579   */\n  dup2\n    /* \"#utility.yul\":3570:3600   */\n  gt\n    /* \"#utility.yul\":3567:3684   */\n  iszero\n  tag_107\n  jumpi\n    /* \"#utility.yul\":3603:3682   */\n  tag_108\n  tag_25\n  jump\t// in\ntag_108:\n    /* \"#utility.yul\":3567:3684   */\ntag_107:\n    /* \"#utility.yul\":3708:3782   */\n  tag_109\n    /* \"#utility.yul\":3774:3781   */\n  dup7\n    /* \"#utility.yul\":3765:3771   */\n  dup3\n    /* \"#utility.yul\":3754:3763   */\n  dup8\n    /* \"#utility.yul\":3750:3772   */\n  add\n    /* \"#utility.yul\":3708:3782   */\n  tag_35\n  jump\t// in\ntag_109:\n    /* \"#utility.yul\":3698:3782   */\n  swap3\n  pop\n    /* \"#utility.yul\":3500:3792   */\n  pop\n    /* \"#utility.yul\":3831:3833   */\n  0x40\n    /* \"#utility.yul\":3857:3919   */\n  tag_110\n    /* \"#utility.yul\":3911:3918   */\n  dup7\n    /* \"#utility.yul\":3902:3908   */\n  dup3\n    /* \"#utility.yul\":3891:3900   */\n  dup8\n    /* \"#utility.yul\":3887:3909   */\n  add\n    /* \"#utility.yul\":3857:3919   */\n  tag_38\n  jump\t// in\ntag_110:\n    /* \"#utility.yul\":3847:3919   */\n  swap2\n  pop\n    /* \"#utility.yul\":3802:3929   */\n  pop\n    /* \"#utility.yul\":2931:3936   */\n  swap3\n  pop\n  swap3\n  pop\n  swap3\n  jump\t// out\n    /* \"#utility.yul\":3942:4041   */\ntag_39:\n    /* \"#utility.yul\":3994:4000   */\n  0x00\n    /* \"#utility.yul\":4028:4033   */\n  dup2\n    /* \"#utility.yul\":4022:4034   */\n  mload\n    /* \"#utility.yul\":4012:4034   */\n  swap1\n  pop\n    /* \"#utility.yul\":3942:4041   */\n  swap2\n  swap1\n  pop\n  jump\t// out\n    /* \"#utility.yul\":4047:4227   */\ntag_40:\n    /* \"#utility.yul\":4095:4172   */\n  0x4e487b7100000000000000000000000000000000000000000000000000000000\n    /* \"#utility.yul\":4092:4093   */\n  0x00\n    /* \"#utility.yul\":4085:4173   */\n  mstore\n    /* \"#utility.yul\":4192:4196   */\n  0x22\n    /* \"#utility.yul\":4189:4190   */\n  0x04\n    /* \"#utility.yul\":4182:4197   */\n  mstore\n    /* \"#utility.yul\":4216:4220   */\n  0x24\n    /* \"#utility.yul\":4213:4214   */\n  0x00\n    /* \"#utility.yul\":4206:4221   */\n  revert\n    /* \"#utility.yul\":4233:4553   */\ntag_41:\n    /* \"#utility.yul\":4277:4283   */\n  0x00\n    /* \"#utility.yul\":4314:4315   */\n  0x02\n    /* \"#utility.yul\":4308:4312   */\n  dup3\n    /* \"#utility.yul\":4304:4316   */\n  div\n    /* \"#utility.yul\":4294:4316   */\n  swap1\n  pop\n    /* \"#utility.yul\":4361:4362   */\n  0x01\n    /* \"#utility.yul\":4355:4359   */\n  dup3\n    /* \"#utility.yul\":4351:4363   */\n  and\n    /* \"#utility.yul\":4382:4400   */\n  dup1\n    /* \"#utility.yul\":4372:4453   */\n  tag_114\n  jumpi\n    /* \"#utility.yul\":4438:4442   */\n  0x7f\n    /* \"#utility.yul\":4430:4436   */\n  dup3\n    /* \"#utility.yul\":4426:4443   */\n  and\n    /* \"#utility.yul\":4416:4443   */\n  swap2\n  pop\n    /* \"#utility.yul\":4372:4453   */\ntag_114:\n    /* \"#utility.yul\":4500:4502   */\n  0x20\n    /* \"#utility.yul\":4492:4498   */\n  dup3\n    /* \"#utility.yul\":4489:4503   */\n  lt\n    /* \"#utility.yul\":4469:4487   */\n  dup2\n    /* \"#utility.yul\":4466:4504   */\n  sub\n    /* \"#utility.yul\":4463:4547   */\n  tag_115\n  jumpi\n    /* \"#utility.yul\":4519:4537   */\n  tag_116\n  tag_40\n  jump\t// in\ntag_116:\n    /* \"#utility.yul\":4463:4547   */\ntag_115:\n    /* \"#utility.yul\":4284:4553   */\n  pop\n    /* \"#utility.yul\":4233:4553   */\n  swap2\n  swap1\n  pop\n  jump\t// out\n    /* \"#utility.yul\":4559:4700   */\ntag_42:\n    /* \"#utility.yul\":4608:4612   */\n  0x00\n    /* \"#utility.yul\":4631:4634   */\n  dup2\n    /* \"#utility.yul\":4623:4634   */\n  swap1\n  pop\n    /* \"#utility.yul\":4654:4657   */\n  dup2\n    /* \"#utility.yul\":4651:4652   */\n  0x00\n    /* \"#utility.yul\":4644:4658   */\n  mstore\n    /* \"#utility.yul\":4688:4692   */\n  0x20\n    /* \"#utility.yul\":4685:4686   */\n  0x00\n    /* \"#utility.yul\":4675:4693   */\n  keccak256\n    /* \"#utility.yul\":4667:4693   */\n  swap1\n  pop\n    /* \"#utility.yul\":4559:4700   */\n  swap2\n  swap1\n  pop\n  jump\t// out\n    /* \"#utility.yul\":4706:4799   */\ntag_43:\n    /* \"#utility.yul\":4743:4749   */\n  0x00\n    /* \"#utility.yul\":4790:4792   */\n  0x20\n    /* \"#utility.yul\":4785:4787   */\n  0x1f\n    /* \"#utility.yul\":4778:4783   */\n  dup4\n    /* \"#utility.yul\":4774:4788   */\n  add\n    /* \"#utility.yul\":4770:4793   */\n  div\n    /* \"#utility.yul\":4760:4793   */\n  swap1\n  pop\n    /* \"#utility.yul\":4706:4799   */\n  swap2\n  swap1\n  pop\n  jump\t// out\n    /* \"#utility.yul\":4805:4912   */\ntag_44:\n    /* \"#utility.yul\":4849:4857   */\n  0x00\n    /* \"#utility.yul\":4899:4904   */\n  dup3\n    /* \"#utility.yul\":4893:4897   */\n  dup3\n    /* \"#utility.yul\":4889:4905   */\n  shl\n    /* \"#utility.yul\":4868:4905   */\n  swap1\n  pop\n    /* \"#utility.yul\":4805:4912   */\n  swap3\n  swap2\n  pop\n  pop\n  jump\t// out\n    /* \"#utility.yul\":4918:5311   */\ntag_45:\n    /* \"#utility.yul\":4987:4993   */\n  0x00\n    /* \"#utility.yul\":5037:5038   */\n  0x08\n    /* \"#utility.yul\":5025:5035   */\n  dup4\n    /* \"#utility.yul\":5021:5039   */\n  mul\n    /* \"#utility.yul\":5060:5157   */\n  tag_121\n    /* \"#utility.yul\":5090:5156   */\n  0xffffffffffffffffffffffffffffffffffffffffffffffffffffffffffffffff\n    /* \"#utility.yul\":5079:5088   */\n  dup3\n    /* \"#utility.yul\":5060:5157   */\n  tag_44\n  jump\t// in\ntag_121:\n    /* \"#utility.yul\":5178:5217   */\n  tag_122\n    /* \"#utility.yul\":5208:5216   */\n  dup7\n    /* \"#utility.yul\":5197:5206   */\n  dup4\n    /* \"#utility.yul\":5178:5217   */\n  tag_44\n  jump\t// in\ntag_122:\n    /* \"#utility.yul\":5166:5217   */\n  swap6\n  pop\n    /* \"#utility.yul\":5250:5254   */\n  dup1\n    /* \"#utility.yul\":5246:5255   */\n  not\n    /* \"#utility.yul\":5239:5244   */\n  dup5\n    /* \"#utility.yul\":5235:5256   */\n  and\n    /* \"#utility.yul\":5226:5256   */\n  swap4\n  pop\n    /* \"#utility.yul\":5299:5303   */\n  dup1\n    /* \"#utility.yul\":5289:5297   */\n  dup7\n    /* \"#utility.yul\":5285:5304   */\n  and\n    /* \"#utility.yul\":5278:5283   */\n  dup5\n    /* \"#utility.yul\":5275:5305   */\n  or\n    /* \"#utility.yul\":5265:5305   */\n  swap3\n  pop\n    /* \"#utility.yul\":4994:5311   */\n  pop\n  pop\n    /* \"#utility.yul\":4918:5311   */\n  swap4\n  swap3\n  pop\n  pop\n  pop\n  jump\t// out\n    /* \"#utility.yul\":5317:5394   */\ntag_46:\n    /* \"#utility.yul\":5354:5361   */\n  0x00\n    /* \"#utility.yul\":5383:5388   */\n  dup2\n    /* \"#utility.yul\":5372:5388   */\n  swap1\n  pop\n    /* \"#utility.yul\":5317:5394   */\n  swap2\n  swap1\n  pop\n  jump\t// out\n    /* \"#utility.yul\":5400:5460   */\ntag_47:\n    /* \"#utility.yul\":5428:5431   */\n  0x00\n    /* \"#utility.yul\":5449:5454   */\n  dup2\n    /* \"#utility.yul\":5442:5454   */\n  swap1\n  pop\n    /* \"#utility.yul\":5400:5460   */\n  swap2\n  swap1\n  pop\n  jump\t// out\n    /* \"#utility.yul\":5466:5608   */\ntag_48:\n    /* \"#utility.yul\":5516:5525   */\n  0x00\n    /* \"#utility.yul\":5549:5602   */\n  tag_126\n    /* \"#utility.yul\":5567:5601   */\n  tag_127\n    /* \"#utility.yul\":5576:5600   */\n  tag_128\n    /* \"#utility.yul\":5594:5599   */\n  dup5\n    /* \"#utility.yul\":5576:5600   */\n  tag_46\n  jump\t// in\ntag_128:\n    /* \"#utility.yul\":5567:5601   */\n  tag_47\n  jump\t// in\ntag_127:\n    /* \"#utility.yul\":5549:5602   */\n  tag_46\n  jump\t// in\ntag_126:\n    /* \"#utility.yul\":5536:5602   */\n  swap1\n  pop\n    /* \"#utility.yul\":5466:5608   */\n  swap2\n  swap1\n  pop\n  jump\t// out\n    /* \"#utility.yul\":5614:5689   */\ntag_49:\n    /* \"#utility.yul\":5657:5660   */\n  0x00\n    /* \"#utility.yul\":5678:5683   */\n  dup2\n    /* \"#utility.yul\":5671:5683   */\n  swap1\n  pop\n    /* \"#utility.yul\":5614:5689   */\n  swap2\n  swap1\n  pop\n  jump\t// out\n    /* \"#utility.yul\":5695:5964   */\ntag_50:\n    /* \"#utility.yul\":5805:5844   */\n  tag_131\n    /* \"#utility.yul\":5836:5843   */\n  dup4\n    /* \"#utility.yul\":5805:5844   */\n  tag_48\n  jump\t// in\ntag_131:\n    /* \"#utility.yul\":5866:5957   */\n  tag_132\n    /* \"#utility.yul\":5915:5956   */\n  tag_133\n    /* \"#utility.yul\":5939:5955   */\n  dup3\n    /* \"#utility.yul\":5915:5956   */\n  tag_49\n  jump\t// in\ntag_133:\n    /* \"#utility.yul\":5907:5913   */\n  dup5\n    /* \"#utility.yul\":5900:5904   */\n  dup5\n    /* \"#utility.yul\":5894:5905   */\n  sload\n    /* \"#utility.yul\":5866:5957   */\n  tag_45\n  jump\t// in\ntag_132:\n    /* \"#utility.yul\":5860:5864   */\n  dup3\n    /* \"#utility.yul\":5853:5958   */\n  sstore\n    /* \"#utility.yul\":5771:5964   */\n  pop\n    /* \"#utility.yul\":5695:5964   */\n  pop\n  pop\n  pop\n  jump\t// out\n    /* \"#utility.yul\":5970:6043   */\ntag_51:\n    /* \"#utility.yul\":6015:6018   */\n  0x00\n    /* \"#utility.yul\":5970:6043   */\n  swap1\n  jump\t// out\n    /* \"#utility.yul\":6049:6238   */\ntag_52:\n    /* \"#utility.yul\":6126:6158   */\n  tag_136\n  tag_51\n  jump\t// in\ntag_136:\n    /* \"#utility.yul\":6167:6232   */\n  tag_137\n    /* \"#utility.yul\":6225:6231   */\n  dup2\n    /* \"#utility.yul\":6217:6223   */\n  dup5\n    /* \"#utility.yul\":6211:6215   */\n  dup5\n    /* \"#utility.yul\":6167:6232   */\n  tag_50\n  jump\t// in\ntag_137:\n    /* \"#utility.yul\":6102:6238   */\n  pop\n    /* \"#utility.yul\":6049:6238   */\n  pop\n  pop\n  jump\t// out\n    /* \"#utility.yul\":6244:6430   */\ntag_53:\n    /* \"#utility.yul\":6304:6424   */\ntag_139:\n    /* \"#utility.yul\":6321:6324   */\n  dup2\n    /* \"#utility.yul\":6314:6319   */\n  dup2\n    /* \"#utility.yul\":6311:6325   */\n  lt\n    /* \"#utility.yul\":6304:6424   */\n  iszero\n  tag_141\n  jumpi\n    /* \"#utility.yul\":6375:6414   */\n  tag_142\n    /* \"#utility.yul\":6412:6413   */\n  0x00\n    /* \"#utility.yul\":6405:6410   */\n  dup3\n    /* \"#utility.yul\":6375:6414   */\n  tag_52\n  jump\t// in\ntag_142:\n    /* \"#utility.yul\":6348:6349   */\n  0x01\n    /* \"#utility.yul\":6341:6346   */\n  dup2\n    /* \"#utility.yul\":6337:6350   */\n  add\n    /* \"#utility.yul\":6328:6350   */\n  swap1\n  pop\n    /* \"#utility.yul\":6304:6424   */\n  jump(tag_139)\ntag_141:\n    /* \"#utility.yul\":6244:6430   */\n  pop\n  pop\n  jump\t// out\n    /* \"#utility.yul\":6436:6979   */\ntag_54:\n    /* \"#utility.yul\":6537:6539   */\n  0x1f\n    /* \"#utility.yul\":6532:6535   */\n  dup3\n    /* \"#utility.yul\":6529:6540   */\n  gt\n    /* \"#utility.yul\":6526:6972   */\n  iszero\n  tag_144\n  jumpi\n    /* \"#utility.yul\":6571:6609   */\n  tag_145\n    /* \"#utility.yul\":6603:6608   */\n  dup2\n    /* \"#utility.yul\":6571:6609   */\n  tag_42\n  jump\t// in\ntag_145:\n    /* \"#utility.yul\":6655:6684   */\n  tag_146\n    /* \"#utility.yul\":6673:6683   */\n  dup5\n    /* \"#utility.yul\":6655:6684   */\n  tag_43\n  jump\t// in\ntag_146:\n    /* \"#utility.yul\":6645:6653   */\n  dup2\n    /* \"#utility.yul\":6641:6685   */\n  add\n    /* \"#utility.yul\":6838:6840   */\n  0x20\n    /* \"#utility.yul\":6826:6836   */\n  dup6\n    /* \"#utility.yul\":6823:6841   */\n  lt\n    /* \"#utility.yul\":6820:6869   */\n  iszero\n  tag_147\n  jumpi\n    /* \"#utility.yul\":6859:6867   */\n  dup2\n    /* \"#utility.yul\":6844:6867   */\n  swap1\n  pop\n    /* \"#utility.yul\":6820:6869   */\ntag_147:\n    /* \"#utility.yul\":6882:6962   */\n  tag_148\n    /* \"#utility.yul\":6938:6960   */\n  tag_149\n    /* \"#utility.yul\":6956:6959   */\n  dup6\n    /* \"#utility.yul\":6938:6960   */\n  tag_43\n  jump\t// in\ntag_149:\n    /* \"#utility.yul\":6928:6936   */\n  dup4\n    /* \"#utility.yul\":6924:6961   */\n  add\n    /* \"#utility.yul\":6911:6922   */\n  dup3\n    /* \"#utility.yul\":6882:6962   */\n  tag_53\n  jump\t// in\ntag_148:\n    /* \"#utility.yul\":6541:6972   */\n  pop\n  pop\n    /* \"#utility.yul\":6526:6972   */\ntag_144:\n    /* \"#utility.yul\":6436:6979   */\n  pop\n  pop\n  pop\n  jump\t// out\n    /* \"#utility.yul\":6985:7102   */\ntag_55:\n    /* \"#utility.yul\":7039:7047   */\n  0x00\n    /* \"#utility.yul\":7089:7094   */\n  dup3\n    /* \"#utility.yul\":7083:7087   */\n  dup3\n    /* \"#utility.yul\":7079:7095   */\n  shr\n    /* \"#utility.yul\":7058:7095   */\n  swap1\n  pop\n    /* \"#utility.yul\":6985:7102   */\n  swap3\n  swap2\n  pop\n  pop\n  jump\t// out\n    /* \"#utility.yul\":7108:7277   */\ntag_56:\n    /* \"#utility.yul\":7152:7158   */\n  0x00\n    /* \"#utility.yul\":7185:7236   */\n  tag_152\n    /* \"#utility.yul\":7233:7234   */\n  0x00\n    /* \"#utility.yul\":7229:7235   */\n  not\n    /* \"#utility.yul\":7221:7226   */\n  dup5\n    /* \"#utility.yul\":7218:7219   */\n  0x08\n    /* \"#utility.yul\":7214:7227   */\n  mul\n    /* \"#utility.yul\":7185:7236   */\n  tag_55\n  jump\t// in\ntag_152:\n    /* \"#utility.yul\":7181:7237   */\n  not\n    /* \"#utility.yul\":7266:7270   */\n  dup1\n    /* \"#utility.yul\":7260:7264   */\n  dup4\n    /* \"#utility.yul\":7256:7271   */\n  and\n    /* \"#utility.yul\":7246:7271   */\n  swap2\n  pop\n    /* \"#utility.yul\":7159:7277   */\n  pop\n    /* \"#utility.yul\":7108:7277   */\n  swap3\n  swap2\n  pop\n  pop\n  jump\t// out\n    /* \"#utility.yul\":7282:7577   */\ntag_57:\n    /* \"#utility.yul\":7358:7362   */\n  0x00\n    /* \"#utility.yul\":7504:7533   */\n  tag_154\n    /* \"#utility.yul\":7529:7532   */\n  dup4\n    /* \"#utility.yul\":7523:7527   */\n  dup4\n    /* \"#utility.yul\":7504:7533   */\n  tag_56\n  jump\t// in\ntag_154:\n    /* \"#utility.yul\":7496:7533   */\n  swap2\n  pop\n    /* \"#utility.yul\":7566:7569   */\n  dup3\n    /* \"#utility.yul\":7563:7564   */\n  0x02\n    /* \"#utility.yul\":7559:7570   */\n  mul\n    /* \"#utility.yul\":7553:7557   */\n  dup3\n    /* \"#utility.yul\":7550:7571   */\n  or\n    /* \"#utility.yul\":7542:7571   */\n  swap1\n  pop\n    /* \"#utility.yul\":7282:7577   */\n  swap3\n  swap2\n  pop\n  pop\n  jump\t// out\n    /* \"#utility.yul\":7582:8977   */\ntag_7:\n    /* \"#utility.yul\":7699:7736   */\n  tag_156\n    /* \"#utility.yul\":7732:7735   */\n  dup3\n    /* \"#utility.yul\":7699:7736   */\n  tag_39\n  jump\t// in\ntag_156:\n    /* \"#utility.yul\":7801:7819   */\n  0xffffffffffffffff\n    /* \"#utility.yul\":7793:7799   */\n  dup2\n    /* \"#utility.yul\":7790:7820   */\n  gt\n    /* \"#utility.yul\":7787:7843   */\n  iszero\n  tag_157\n  jumpi\n    /* \"#utility.yul\":7823:7841   */\n  tag_158\n  tag_29\n  jump\t// in\ntag_158:\n    /* \"#utility.yul\":7787:7843   */\ntag_157:\n    /* \"#utility.yul\":7867:7905   */\n  tag_159\n    /* \"#utility.yul\":7899:7903   */\n  dup3\n    /* \"#utility.yul\":7893:7904   */\n  sload\n    /* \"#utility.yul\":7867:7905   */\n  tag_41\n  jump\t// in\ntag_159:\n    /* \"#utility.yul\":7952:8019   */\n  tag_160\n    /* \"#utility.yul\":8012:8018   */\n  dup3\n    /* \"#utility.yul\":8004:8010   */\n  dup3\n    /* \"#utility.yul\":7998:8002   */\n  dup6\n    /* \"#utility.yul\":7952:8019   */\n  tag_54\n  jump\t// in\ntag_160:\n    /* \"#utility.yul\":8046:8047   */\n  0x00\n    /* \"#utility.yul\":8070:8074   */\n  0x20\n    /* \"#utility.yul\":8057:8074   */\n  swap1\n  pop\n    /* \"#utility.yul\":8102:8104   */\n  0x1f\n    /* \"#utility.yul\":8094:8100   */\n  dup4\n    /* \"#utility.yul\":8091:8105   */\n  gt\n    /* \"#utility.yul\":8119:8120   */\n  0x01\n    /* \"#utility.yul\":8114:8732   */\n  dup2\n  eq\n  tag_162\n  jumpi\n    /* \"#utility.yul\":8776:8777   */\n  0x00\n    /* \"#utility.yul\":8793:8799   */\n  dup5\n    /* \"#utility.yul\":8790:8867   */\n  iszero\n  tag_163\n  jumpi\n    /* \"#utility.yul\":8842:8851   */\n  dup3\n    /* \"#utility.yul\":8837:8840   */\n  dup8\n    /* \"#utility.yul\":8833:8852   */\n  add\n    /* \"#utility.yul\":8827:8853   */\n  mload\n    /* \"#utility.yul\":8818:8853   */\n  swap1\n  pop\n    /* \"#utility.yul\":8790:8867   */\ntag_163:\n    /* \"#utility.yul\":8893:8960   */\n  tag_164\n    /* \"#utility.yul\":8953:8959   */\n  dup6\n    /* \"#utility.yul\":8946:8951   */\n  dup3\n    /* \"#utility.yul\":8893:8960   */\n  tag_57\n  jump\t// in\ntag_164:\n    /* \"#utility.yul\":8887:8891   */\n  dup7\n    /* \"#utility.yul\":8880:8961   */\n  sstore\n    /* \"#utility.yul\":8749:8971   */\n  pop\n    /* \"#utility.yul\":8084:8971   */\n  jump(tag_161)\n    /* \"#utility.yul\":8114:8732   */\ntag_162:\n    /* \"#utility.yul\":8166:8170   */\n  0x1f\n    /* \"#utility.yul\":8162:8171   */\n  not\n    /* \"#utility.yul\":8154:8160   */\n  dup5\n    /* \"#utility.yul\":8150:8172   */\n  and\n    /* \"#utility.yul\":8200:8237   */\n  tag_165\n    /* \"#utility.yul\":8232:8236   */\n  dup7\n    /* \"#utility.yul\":8200:8237   */\n  tag_42\n  jump\t// in\ntag_165:\n    /* \"#utility.yul\":8259:8260   */\n  0x00\n    /* \"#utility.yul\":8273:8481   */\ntag_166:\n    /* \"#utility.yul\":8287:8294   */\n  dup3\n    /* \"#utility.yul\":8284:8285   */\n  dup2\n    /* \"#utility.yul\":8281:8295   */\n  lt\n    /* \"#utility.yul\":8273:8481   */\n  iszero\n  tag_168\n  jumpi\n    /* \"#utility.yul\":8366:8375   */\n  dup5\n    /* \"#utility.yul\":8361:8364   */\n  dup10\n    /* \"#utility.yul\":8357:8376   */\n  add\n    /* \"#utility.yul\":8351:8377   */\n  mload\n    /* \"#utility.yul\":8343:8349   */\n  dup3\n    /* \"#utility.yul\":8336:8378   */\n  sstore\n    /* \"#utility.yul\":8417:8418   */\n  0x01\n    /* \"#utility.yul\":8409:8415   */\n  dup3\n    /* \"#utility.yul\":8405:8419   */\n  add\n    /* \"#utility.yul\":8395:8419   */\n  swap2\n  pop\n    /* \"#utility.yul\":8464:8466   */\n  0x20\n    /* \"#utility.yul\":8453:8462   */\n  dup6\n    /* \"#utility.yul\":8449:8467   */\n  add\n    /* \"#utility.yul\":8436:8467   */\n  swap5\n  pop\n    /* \"#utility.yul\":8310:8314   */\n  0x20\n    /* \"#utility.yul\":8307:8308   */\n  dup2\n    /* \"#utility.yul\":8303:8315   */\n  add\n    /* \"#utility.yul\":8298:8315   */\n  swap1\n  pop\n    /* \"#utility.yul\":8273:8481   */\n  jump(tag_166)\ntag_168:\n    /* \"#utility.yul\":8509:8515   */\n  dup7\n    /* \"#utility.yul\":8500:8507   */\n  dup4\n    /* \"#utility.yul\":8497:8516   */\n  lt\n    /* \"#utility.yul\":8494:8673   */\n  iszero\n  tag_169\n  jumpi\n    /* \"#utility.yul\":8567:8576   */\n  dup5\n    /* \"#utility.yul\":8562:8565   */\n  dup10\n    /* \"#utility.yul\":8558:8577   */\n  add\n    /* \"#utility.yul\":8552:8578   */\n  mload\n    /* \"#utility.yul\":8610:8658   */\n  tag_170\n    /* \"#utility.yul\":8652:8656   */\n  0x1f\n    /* \"#utility.yul\":8644:8650   */\n  dup10\n    /* \"#utility.yul\":8640:8657   */\n  and\n    /* \"#utility.yul\":8629:8638   */\n  dup3\n    /* \"#utility.yul\":8610:8658   */\n  tag_56\n  jump\t// in\ntag_170:\n    /* \"#utility.yul\":8602:8608   */\n  dup4\n    /* \"#utility.yul\":8595:8659   */\n  sstore\n    /* \"#utility.yul\":8517:8673   */\n  pop\n    /* \"#utility.yul\":8494:8673   */\ntag_169:\n    /* \"#utility.yul\":8719:8720   */\n  0x01\n    /* \"#utility.yul\":8715:8716   */\n  0x02\n    /* \"#utility.yul\":8707:8713   */\n  dup9\n    /* \"#utility.yul\":8703:8717   */\n  mul\n    /* \"#utility.yul\":8699:8721   */\n  add\n    /* \"#utility.yul\":8693:8697   */\n  dup9\n    /* \"#utility.yul\":8686:8722   */\n  sstore\n    /* \"#utility.yul\":8121:8732   */\n  pop\n  pop\n  pop\n    /* \"#utility.yul\":8084:8971   */\ntag_161:\n  pop\n    /* \"#utility.yul\":7674:8977   */\n  pop\n  pop\n  pop\n    /* \"#utility.yul\":7582:8977   */\n  pop\n  pop\n  jump\t// out\n    /* \"#utility.yul\":8983:9163   */\ntag_58:\n    /* \"#utility.yul\":9031:9108   */\n  0x4e487b7100000000000000000000000000000000000000000000000000000000\n    /* \"#utility.yul\":9028:9029   */\n  0x00\n    /* \"#utility.yul\":9021:9109   */\n  mstore\n    /* \"#utility.yul\":9128:9132   */\n  0x11\n    /* \"#utility.yul\":9125:9126   */\n  0x04\n    /* \"#utility.yul\":9118:9133   */\n  mstore\n    /* \"#utility.yul\":9152:9156   */\n  0x24\n    /* \"#utility.yul\":9149:9150   */\n  0x00\n    /* \"#utility.yul\":9142:9157   */\n  revert\n    /* \"#utility.yul\":9169:9271   */\ntag_59:\n    /* \"#utility.yul\":9211:9219   */\n  0x00\n    /* \"#utility.yul\":9258:9263   */\n  dup2\n    /* \"#utility.yul\":9255:9256   */\n  0x01\n    /* \"#utility.yul\":9251:9264   */\n  shr\n    /* \"#utility.yul\":9230:9264   */\n  swap1\n  pop\n    /* \"#utility.yul\":9169:9271   */\n  swap2\n  swap1\n  pop\n  jump\t// out\n    /* \"#utility.yul\":9277:10125   */\ntag_60:\n    /* \"#utility.yul\":9338:9343   */\n  0x00\n    /* \"#utility.yul\":9345:9349   */\n  dup1\n    /* \"#utility.yul\":9369:9375   */\n  dup3\n    /* \"#utility.yul\":9360:9375   */\n  swap2\n  pop\n    /* \"#utility.yul\":9393:9398   */\n  dup4\n    /* \"#utility.yul\":9384:9398   */\n  swap1\n  pop\n    /* \"#utility.yul\":9407:10119   */\ntag_174:\n    /* \"#utility.yul\":9428:9429   */\n  0x01\n    /* \"#utility.yul\":9418:9426   */\n  dup6\n    /* \"#utility.yul\":9415:9430   */\n  gt\n    /* \"#utility.yul\":9407:10119   */\n  iszero\n  tag_176\n  jumpi\n    /* \"#utility.yul\":9523:9527   */\n  dup1\n    /* \"#utility.yul\":9518:9521   */\n  dup7\n    /* \"#utility.yul\":9514:9528   */\n  div\n    /* \"#utility.yul\":9508:9512   */\n  dup2\n    /* \"#utility.yul\":9505:9529   */\n  gt\n    /* \"#utility.yul\":9502:9552   */\n  iszero\n  tag_177\n  jumpi\n    /* \"#utility.yul\":9532:9550   */\n  tag_178\n  tag_58\n  jump\t// in\ntag_178:\n    /* \"#utility.yul\":9502:9552   */\ntag_177:\n    /* \"#utility.yul\":9582:9583   */\n  0x01\n    /* \"#utility.yul\":9572:9580   */\n  dup6\n    /* \"#utility.yul\":9568:9584   */\n  and\n    /* \"#utility.yul\":9565:10016   */\n  iszero\n  tag_179\n  jumpi\n    /* \"#utility.yul\":9997:10001   */\n  dup1\n    /* \"#utility.yul\":9990:9995   */\n  dup3\n    /* \"#utility.yul\":9986:10002   */\n  mul\n    /* \"#utility.yul\":9977:10002   */\n  swap2\n  pop\n    /* \"#utility.yul\":9565:10016   */\ntag_179:\n    /* \"#utility.yul\":10047:10051   */\n  dup1\n    /* \"#utility.yul\":10041:10045   */\n  dup2\n    /* \"#utility.yul\":10037:10052   */\n  mul\n    /* \"#utility.yul\":10029:10052   */\n  swap1\n  pop\n    /* \"#utility.yul\":10077:10109   */\n  tag_180\n    /* \"#utility.yul\":10100:10108   */\n  dup6\n    /* \"#utility.yul\":10077:10109   */\n  tag_59\n  jump\t// in\ntag_180:\n    /* \"#utility.yul\":10065:10109   */\n  swap5\n  pop\n    /* \"#utility.yul\":9407:10119   */\n  jump(tag_174)\ntag_176:\n    /* \"#utility.yul\":9277:10125   */\n  swap5\n  pop\n  swap5\n  swap3\n  pop\n  pop\n  pop\n  jump\t// out\n    /* \"#utility.yul\":10131:11204   */\ntag_61:\n    /* \"#utility.yul\":10185:10190   */\n  0x00\n    /* \"#utility.yul\":10376:10384   */\n  dup3\n    /* \"#utility.yul\":10366:10406   */\n  tag_182\n  jumpi\n    /* \"#utility.yul\":10397:10398   */\n  0x01\n    /* \"#utility.yul\":10388:10398   */\n  swap1\n  pop\n    /* \"#utility.yul\":10399:10404   */\n  jump(tag_181)\n    /* \"#utility.yul\":10366:10406   */\ntag_182:\n    /* \"#utility.yul\":10425:10429   */\n  dup2\n    /* \"#utility.yul\":10415:10451   */\n  tag_183\n  jumpi\n    /* \"#utility.yul\":10442:10443   */\n  0x00\n    /* \"#utility.yul\":10433:10443   */\n  swap1\n  pop\n    /* \"#utility.yul\":10444:10449   */\n  jump(tag_181)\n    /* \"#utility.yul\":10415:10451   */\ntag_183:\n    /* \"#utility.yul\":10511:10515   */\n  dup2\n    /* \"#utility.yul\":10559:10560   */\n  0x01\n    /* \"#utility.yul\":10554:10581   */\n  dup2\n  eq\n  tag_185\n  jumpi\n    /* \"#utility.yul\":10595:10596   */\n  0x02\n    /* \"#utility.yul\":10590:10781   */\n  dup2\n  eq\n  tag_186\n  jumpi\n    /* \"#utility.yul\":10504:10781   */\n  jump(tag_184)\n    /* \"#utility.yul\":10554:10581   */\ntag_185:\n    /* \"#utility.yul\":10572:10573   */\n  0x01\n    /* \"#utility.yul\":10563:10573   */\n  swap2\n  pop\n    /* \"#utility.yul\":10574:10579   */\n  pop\n  jump(tag_181)\n    /* \"#utility.yul\":10590:10781   */\ntag_186:\n    /* \"#utility.yul\":10635:10638   */\n  0xff\n    /* \"#utility.yul\":10625:10633   */\n  dup5\n    /* \"#utility.yul\":10622:10639   */\n  gt\n    /* \"#utility.yul\":10619:10662   */\n  iszero\n  tag_187\n  jumpi\n    /* \"#utility.yul\":10642:10660   */\n  tag_188\n  tag_58\n  jump\t// in\ntag_188:\n    /* \"#utility.yul\":10619:10662   */\ntag_187:\n    /* \"#utility.yul\":10691:10699   */\n  dup4\n    /* \"#utility.yul\":10688:10689   */\n  0x02\n    /* \"#utility.yul\":10684:10700   */\n  exp\n    /* \"#utility.yul\":10675:10700   */\n  swap2\n  pop\n    /* \"#utility.yul\":10726:10729   */\n  dup5\n    /* \"#utility.yul\":10719:10724   */\n  dup3\n    /* \"#utility.yul\":10716:10730   */\n  gt\n    /* \"#utility.yul\":10713:10753   */\n  iszero\n  tag_189\n  jumpi\n    /* \"#utility.yul\":10733:10751   */\n  tag_190\n  tag_58\n  jump\t// in\ntag_190:\n    /* \"#utility.yul\":10713:10753   */\ntag_189:\n    /* \"#utility.yul\":10766:10771   */\n  pop\n  jump(tag_181)\n    /* \"#utility.yul\":10504:10781   */\ntag_184:\n  pop\n    /* \"#utility.yul\":10890:10892   */\n  0x20\n    /* \"#utility.yul\":10880:10888   */\n  dup4\n    /* \"#utility.yul\":10877:10893   */\n  lt\n    /* \"#utility.yul\":10871:10874   */\n  0x0133\n    /* \"#utility.yul\":10865:10869   */\n  dup4\n    /* \"#utility.yul\":10862:10875   */\n  lt\n    /* \"#utility.yul\":10858:10894   */\n  and\n    /* \"#utility.yul\":10840:10842   */\n  0x4e\n    /* \"#utility.yul\":10830:10838   */\n  dup5\n    /* \"#utility.yul\":10827:10843   */\n  lt\n    /* \"#utility.yul\":10822:10824   */\n  0x0b\n    /* \"#utility.yul\":10816:10820   */\n  dup5\n    /* \"#utility.yul\":10813:10825   */\n  lt\n    /* \"#utility.yul\":10809:10844   */\n  and\n    /* \"#utility.yul\":10793:10904   */\n  or\n    /* \"#utility.yul\":10790:11036   */\n  iszero\n  tag_191\n  jumpi\n    /* \"#utility.yul\":10946:10954   */\n  dup3\n    /* \"#utility.yul\":10940:10944   */\n  dup3\n    /* \"#utility.yul\":10936:10955   */\n  exp\n    /* \"#utility.yul\":10927:10955   */\n  swap1\n  pop\n    /* \"#utility.yul\":10981:10984   */\n  dup4\n    /* \"#utility.yul\":10974:10979   */\n  dup2\n    /* \"#utility.yul\":10971:10985   */\n  gt\n    /* \"#utility.yul\":10968:11008   */\n  iszero\n  tag_192\n  jumpi\n    /* \"#utility.yul\":10988:11006   */\n  tag_193\n  tag_58\n  jump\t// in\ntag_193:\n    /* \"#utility.yul\":10968:11008   */\ntag_192:\n    /* \"#utility.yul\":11021:11026   */\n  jump(tag_181)\n    /* \"#utility.yul\":10790:11036   */\ntag_191:\n    /* \"#utility.yul\":11061:11103   */\n  tag_194\n    /* \"#utility.yul\":11099:11102   */\n  dup5\n    /* \"#utility.yul\":11089:11097   */\n  dup5\n    /* \"#utility.yul\":11083:11087   */\n  dup5\n    /* \"#utility.yul\":11080:11081   */\n  0x01\n    /* \"#utility.yul\":11061:11103   */\n  tag_60\n  jump\t// in\ntag_194:\n    /* \"#utility.yul\":11046:11103   */\n  swap3\n  pop\n  swap1\n  pop\n    /* \"#utility.yul\":11135:11139   */\n  dup2\n    /* \"#utility.yul\":11130:11133   */\n  dup5\n    /* \"#utility.yul\":11126:11140   */\n  div\n    /* \"#utility.yul\":11119:11124   */\n  dup2\n    /* \"#utility.yul\":11116:11141   */\n  gt\n    /* \"#utility.yul\":11113:11164   */\n  iszero\n  tag_195\n  jumpi\n    /* \"#utility.yul\":11144:11162   */\n  tag_196\n  tag_58\n  jump\t// in\ntag_196:\n    /* \"#utility.yul\":11113:11164   */\ntag_195:\n    /* \"#utility.yul\":11193:11197   */\n  dup2\n    /* \"#utility.yul\":11186:11191   */\n  dup2\n    /* \"#utility.yul\":11182:11198   */\n  mul\n    /* \"#utility.yul\":11173:11198   */\n  swap1\n  pop\n    /* \"#utility.yul\":10131:11204   */\ntag_181:\n  swap4\n  swap3\n  pop\n  pop\n  pop\n  jump\t// out\n    /* \"#utility.yul\":11210:11491   */\ntag_11:\n    /* \"#utility.yul\":11268:11273   */\n  0x00\n    /* \"#utility.yul\":11292:11315   */\n  tag_198\n    /* \"#utility.yul\":11310:11314   */\n  dup3\n    /* \"#utility.yul\":11292:11315   */\n  tag_46\n  jump\t// in\ntag_198:\n    /* \"#utility.yul\":11284:11315   */\n  swap2\n  pop\n    /* \"#utility.yul\":11336:11361   */\n  tag_199\n    /* \"#utility.yul\":11352:11360   */\n  dup4\n    /* \"#utility.yul\":11336:11361   */\n  tag_36\n  jump\t// in\ntag_199:\n    /* \"#utility.yul\":11324:11361   */\n  swap3\n  pop\n    /* \"#utility.yul\":11380:11484   */\n  tag_200\n    /* \"#utility.yul\":11417:11483   */\n  0xffffffffffffffffffffffffffffffffffffffffffffffffffffffffffffffff\n    /* \"#utility.yul\":11407:11415   */\n  dup5\n    /* \"#utility.yul\":11401:11405   */\n  dup5\n    /* \"#utility.yul\":11380:11484   */\n  tag_61\n  jump\t// in\ntag_200:\n    /* \"#utility.yul\":11371:11484   */\n  swap1\n  pop\n    /* \"#utility.yul\":11210:11491   */\n  swap3\n  swap2\n  pop\n  pop\n  jump\t// out\n    /* \"#utility.yul\":11497:11907   */\ntag_13:\n    /* \"#utility.yul\":11537:11544   */\n  0x00\n    /* \"#utility.yul\":11560:11580   */\n  tag_202\n    /* \"#utility.yul\":11578:11579   */\n  dup3\n    /* \"#utility.yul\":11560:11580   */\n  tag_46\n  jump\t// in\ntag_202:\n    /* \"#utility.yul\":11555:11580   */\n  swap2\n  pop\n    /* \"#utility.yul\":11594:11614   */\n  tag_203\n    /* \"#utility.yul\":11612:11613   */\n  dup4\n    /* \"#utility.yul\":11594:11614   */\n  tag_46\n  jump\t// in\ntag_203:\n    /* \"#utility.yul\":11589:11614   */\n  swap3\n  pop\n    /* \"#utility.yul\":11649:11650   */\n  dup3\n    /* \"#utility.yul\":11646:11647   */\n  dup3\n    /* \"#utility.yul\":11642:11651   */\n  mul\n    /* \"#utility.yul\":11671:11701   */\n  tag_204\n    /* \"#utility.yul\":11689:11700   */\n  dup2\n    /* \"#utility.yul\":11671:11701   */\n  tag_46\n  jump\t// in\ntag_204:\n    /* \"#utility.yul\":11660:11701   */\n  swap2\n  pop\n    /* \"#utility.yul\":11850:11851   */\n  dup3\n    /* \"#utility.yul\":11841:11848   */\n  dup3\n    /* \"#utility.yul\":11837:11852   */\n  div\n    /* \"#utility.yul\":11834:11835   */\n  dup5\n    /* \"#utility.yul\":11831:11853   */\n  eq\n    /* \"#utility.yul\":11811:11812   */\n  dup4\n    /* \"#utility.yul\":11804:11813   */\n  iszero\n    /* \"#utility.yul\":11784:11867   */\n  or\n    /* \"#utility.yul\":11761:11900   */\n  tag_205\n  jumpi\n    /* \"#utility.yul\":11880:11898   */\n  tag_206\n  tag_58\n  jump\t// in\ntag_206:\n    /* \"#utility.yul\":11761:11900   */\ntag_205:\n    /* \"#utility.yul\":11545:11907   */\n  pop\n    /* \"#utility.yul\":11497:11907   */\n  swap3\n  swap2\n  pop\n  pop\n  jump\t// out\n    /* \"#utility.yul\":11913:12082   */\ntag_62:\n    /* \"#utility.yul\":11997:12008   */\n  0x00\n    /* \"#utility.yul\":12031:12037   */\n  dup3\n    /* \"#utility.yul\":12026:12029   */\n  dup3\n    /* \"#utility.yul\":12019:12038   */\n  mstore\n    /* \"#utility.yul\":12071:12075   */\n  0x20\n    /* \"#utility.yul\":12066:12069   */\n  dup3\n    /* \"#utility.yul\":12062:12076   */\n  add\n    /* \"#utility.yul\":12047:12076   */\n  swap1\n  pop\n    /* \"#utility.yul\":11913:12082   */\n  swap3\n  swap2\n  pop\n  pop\n  jump\t// out\n    /* \"#utility.yul\":12088:12253   */\ntag_63:\n    /* \"#utility.yul\":12228:12245   */\n  0x496e76616c696420416464726573730000000000000000000000000000000000\n    /* \"#utility.yul\":12224:12225   */\n  0x00\n    /* \"#utility.yul\":12216:12222   */\n  dup3\n    /* \"#utility.yul\":12212:12226   */\n  add\n    /* \"#utility.yul\":12205:12246   */\n  mstore\n    /* \"#utility.yul\":12088:12253   */\n  pop\n  jump\t// out\n    /* \"#utility.yul\":12259:12625   */\ntag_64:\n    /* \"#utility.yul\":12401:12404   */\n  0x00\n    /* \"#utility.yul\":12422:12489   */\n  tag_210\n    /* \"#utility.yul\":12486:12488   */\n  0x0f\n    /* \"#utility.yul\":12481:12484   */\n  dup4\n    /* \"#utility.yul\":12422:12489   */\n  tag_62\n  jump\t// in\ntag_210:\n    /* \"#utility.yul\":12415:12489   */\n  swap2\n  pop\n    /* \"#utility.yul\":12498:12591   */\n  tag_211\n    /* \"#utility.yul\":12587:12590   */\n  dup3\n    /* \"#utility.yul\":12498:12591   */\n  tag_63\n  jump\t// in\ntag_211:\n    /* \"#utility.yul\":12616:12618   */\n  0x20\n    /* \"#utility.yul\":12611:12614   */\n  dup3\n    /* \"#utility.yul\":12607:12619   */\n  add\n    /* \"#utility.yul\":12600:12619   */\n  swap1\n  pop\n    /* \"#utility.yul\":12259:12625   */\n  swap2\n  swap1\n  pop\n  jump\t// out\n    /* \"#utility.yul\":12631:13050   */\ntag_19:\n    /* \"#utility.yul\":12797:12801   */\n  0x00\n    /* \"#utility.yul\":12835:12837   */\n  0x20\n    /* \"#utility.yul\":12824:12833   */\n  dup3\n    /* \"#utility.yul\":12820:12838   */\n  add\n    /* \"#utility.yul\":12812:12838   */\n  swap1\n  pop\n    /* \"#utility.yul\":12884:12893   */\n  dup2\n    /* \"#utility.yul\":12878:12882   */\n  dup2\n    /* \"#utility.yul\":12874:12894   */\n  sub\n    /* \"#utility.yul\":12870:12871   */\n  0x00\n    /* \"#utility.yul\":12859:12868   */\n  dup4\n    /* \"#utility.yul\":12855:12872   */\n  add\n    /* \"#utility.yul\":12848:12895   */\n  mstore\n    /* \"#utility.yul\":12912:13043   */\n  tag_213\n    /* \"#utility.yul\":13038:13042   */\n  dup2\n    /* \"#utility.yul\":12912:13043   */\n  tag_64\n  jump\t// in\ntag_213:\n    /* \"#utility.yul\":12904:13043   */\n  swap1\n  pop\n    /* \"#utility.yul\":12631:13050   */\n  swap2\n  swap1\n  pop\n  jump\t// out\n    /* \"#utility.yul\":13056:13247   */\ntag_21:\n    /* \"#utility.yul\":13096:13099   */\n  0x00\n    /* \"#utility.yul\":13115:13135   */\n  tag_215\n    /* \"#utility.yul\":13133:13134   */\n  dup3\n    /* \"#utility.yul\":13115:13135   */\n  tag_46\n  jump\t// in\ntag_215:\n    /* \"#utility.yul\":13110:13135   */\n  swap2\n  pop\n    /* \"#utility.yul\":13149:13169   */\n  tag_216\n    /* \"#utility.yul\":13167:13168   */\n  dup4\n    /* \"#utility.yul\":13149:13169   */\n  tag_46\n  jump\t// in\ntag_216:\n    /* \"#utility.yul\":13144:13169   */\n  swap3\n  pop\n    /* \"#utility.yul\":13192:13193   */\n  dup3\n    /* \"#utility.yul\":13189:13190   */\n  dup3\n    /* \"#utility.yul\":13185:13194   */\n  add\n    /* \"#utility.yul\":13178:13194   */\n  swap1\n  pop\n    /* \"#utility.yul\":13213:13216   */\n  dup1\n    /* \"#utility.yul\":13210:13211   */\n  dup3\n    /* \"#utility.yul\":13207:13217   */\n  gt\n    /* \"#utility.yul\":13204:13240   */\n  iszero\n  tag_217\n  jumpi\n    /* \"#utility.yul\":13220:13238   */\n  tag_218\n  tag_58\n  jump\t// in\ntag_218:\n    /* \"#utility.yul\":13204:13240   */\ntag_217:\n    /* \"#utility.yul\":13056:13247   */\n  swap3\n  swap2\n  pop\n  pop\n  jump\t// out\n    /* \"TOKEN/GalaxyToken.sol\":60:2737  contract GalaxyToken{... */\ntag_15:\n  dataSize(sub_0)\n  dup1\n  dataOffset(sub_0)\n  0x00\n  codecopy\n  0x00\n  return\nstop\n\nsub_0: assembly {\n        /* \"TOKEN/GalaxyToken.sol\":60:2737  contract GalaxyToken{... */\n      mstore(0x40, 0x80)\n      callvalue\n      dup1\n      iszero\n      tag_1\n      jumpi\n      0x00\n      dup1\n      revert\n    tag_1:\n      pop\n      jumpi(tag_2, lt(calldatasize, 0x04))\n      shr(0xe0, calldataload(0x00))\n      dup1\n      0x5c975abb\n      gt\n      tag_15\n      jumpi\n      dup1\n      0x5c975abb\n      eq\n      tag_9\n      jumpi\n      dup1\n      0x8456cb59\n      eq\n      tag_10\n      jumpi\n      dup1\n      0x8da5cb5b\n      eq\n      tag_11\n      jumpi\n      dup1\n      0x95d89b41\n      eq\n      tag_12\n      jumpi\n      dup1\n      0xa9059cbb\n      eq\n      tag_13\n      jumpi\n      dup1\n      0xf08782fc\n      eq\n      tag_14\n      jumpi\n      jump(tag_2)\n    tag_15:\n      dup1\n      0x061a46a9\n      eq\n      tag_3\n      jumpi\n      dup1\n      0x06fdde03\n      eq\n      tag_4\n      jumpi\n      dup1\n      0x095ea7b3\n      eq\n      tag_5\n      jumpi\n      dup1\n      0x18160ddd\n      eq\n      tag_6\n      jumpi\n      dup1\n      0x23b872dd\n      eq\n      tag_7\n      jumpi\n      dup1\n      0x42966c68\n      eq\n      tag_8\n      jumpi\n    tag_2:\n      0x00\n      dup1\n      revert\n        /* \"TOKEN/GalaxyToken.sol\":1306:1374  function unPaused() public onlyOwner{... */\n    tag_3:\n      tag_16\n      tag_17\n      jump\t// in\n    tag_16:\n      stop\n        /* \"TOKEN/GalaxyToken.sol\":87:105  string public name */\n    tag_4:\n      tag_18\n      tag_19\n      jump\t// in\n    tag_18:\n      mload(0x40)\n      tag_20\n      swap2\n      swap1\n      tag_21\n      jump\t// in\n    tag_20:\n      mload(0x40)\n      dup1\n      swap2\n      sub\n      swap1\n      return\n        /* \"TOKEN/GalaxyToken.sol\":1922:2071  function approve(address _spender,uint _amount)public returns(bool){... */\n    tag_5:\n      tag_22\n      0x04\n      dup1\n      calldatasize\n      sub\n      dup2\n      add\n      swap1\n      tag_23\n      swap2\n      swap1\n      tag_24\n      jump\t// in\n    tag_23:\n      tag_25\n      jump\t// in\n    tag_22:\n      mload(0x40)\n      tag_26\n      swap2\n      swap1\n      tag_27\n      jump\t// in\n    tag_26:\n      mload(0x40)\n      dup1\n      swap2\n      sub\n      swap1\n      return\n        /* \"TOKEN/GalaxyToken.sol\":167:193  uint256 public totalSupply */\n    tag_6:\n      tag_28\n      tag_29\n      jump\t// in\n    tag_28:\n      mload(0x40)\n      tag_30\n      swap2\n      swap1\n      tag_31\n      jump\t// in\n    tag_30:\n      mload(0x40)\n      dup1\n      swap2\n      sub\n      swap1\n      return\n        /* \"TOKEN/GalaxyToken.sol\":2079:2732  function transferFrom(address from,address to, uint256 amount) public whenNotPoused returns(bool){... */\n    tag_7:\n      tag_32\n      0x04\n      dup1\n      calldatasize\n      sub\n      dup2\n      add\n      swap1\n      tag_33\n      swap2\n      swap1\n      tag_34\n      jump\t// in\n    tag_33:\n      tag_35\n      jump\t// in\n    tag_32:\n      mload(0x40)\n      tag_36\n      swap2\n      swap1\n      tag_27\n      jump\t// in\n    tag_36:\n      mload(0x40)\n      dup1\n      swap2\n      sub\n      swap1\n      return\n        /* \"TOKEN/GalaxyToken.sol\":1038:1225  function burn(uint256 amount) public {... */\n    tag_8:\n      tag_37\n      0x04\n      dup1\n      calldatasize\n      sub\n      dup2\n      add\n      swap1\n      tag_38\n      swap2\n      swap1\n      tag_39\n      jump\t// in\n    tag_38:\n      tag_40\n      jump\t// in\n    tag_37:\n      stop\n        /* \"TOKEN/GalaxyToken.sol\":1233:1298  function paused() public onlyOwner{... */\n    tag_9:\n      tag_41\n      tag_42\n      jump\t// in\n    tag_41:\n      stop\n        /* \"TOKEN/GalaxyToken.sol\":227:244  bool public pause */\n    tag_10:\n      tag_43\n      tag_44\n      jump\t// in\n    tag_43:\n      mload(0x40)\n      tag_45\n      swap2\n      swap1\n      tag_27\n      jump\t// in\n    tag_45:\n      mload(0x40)\n      dup1\n      swap2\n      sub\n      swap1\n      return\n        /* \"TOKEN/GalaxyToken.sol\":200:220  address public owner */\n    tag_11:\n      tag_46\n      tag_47\n      jump\t// in\n    tag_46:\n      mload(0x40)\n      tag_48\n      swap2\n      swap1\n      tag_49\n      jump\t// in\n    tag_48:\n      mload(0x40)\n      dup1\n      swap2\n      sub\n      swap1\n      return\n        /* \"TOKEN/GalaxyToken.sol\":112:132  string public symbol */\n    tag_12:\n      tag_50\n      tag_51\n      jump\t// in\n    tag_50:\n      mload(0x40)\n      tag_52\n      swap2\n      swap1\n      tag_21\n      jump\t// in\n    tag_52:\n      mload(0x40)\n      dup1\n      swap2\n      sub\n      swap1\n      return\n        /* \"TOKEN/GalaxyToken.sol\":1382:1914  function transfer(address _to, uint256 amount) public whenNotPoused returns(bool){... */\n    tag_13:\n      tag_53\n      0x04\n      dup1\n      calldatasize\n      sub\n      dup2\n      add\n      swap1\n      tag_54\n      swap2\n      swap1\n      tag_24\n      jump\t// in\n    tag_54:\n      tag_55\n      jump\t// in\n    tag_53:\n      mload(0x40)\n      tag_56\n      swap2\n      swap1\n      tag_27\n      jump\t// in\n    tag_56:\n      mload(0x40)\n      dup1\n      swap2\n      sub\n      swap1\n      return\n        /* \"TOKEN/GalaxyToken.sol\":139:160  uint8 public decimels */\n    tag_14:\n      tag_57\n      tag_58\n      jump\t// in\n    tag_57:\n      mload(0x40)\n      tag_59\n      swap2\n      swap1\n      tag_60\n      jump\t// in\n    tag_59:\n      mload(0x40)\n      dup1\n      swap2\n      sub\n      swap1\n      return\n        /* \"TOKEN/GalaxyToken.sol\":1306:1374  function unPaused() public onlyOwner{... */\n    tag_17:\n        /* \"TOKEN/GalaxyToken.sol\":434:439  owner */\n      0x04\n      0x00\n      swap1\n      sload\n      swap1\n      0x0100\n      exp\n      swap1\n      div\n      0xffffffffffffffffffffffffffffffffffffffff\n      and\n        /* \"TOKEN/GalaxyToken.sol\":420:439  msg.sender == owner */\n      0xffffffffffffffffffffffffffffffffffffffff\n      and\n        /* \"TOKEN/GalaxyToken.sol\":420:430  msg.sender */\n      caller\n        /* \"TOKEN/GalaxyToken.sol\":420:439  msg.sender == owner */\n      0xffffffffffffffffffffffffffffffffffffffff\n      and\n      eq\n        /* \"TOKEN/GalaxyToken.sol\":412:464  require(msg.sender == owner,\"You are not the owner\") */\n      tag_62\n      jumpi\n      mload(0x40)\n      0x08c379a000000000000000000000000000000000000000000000000000000000\n      dup2\n      mstore\n      0x04\n      add\n      tag_63\n      swap1\n      tag_64\n      jump\t// in\n    tag_63:\n      mload(0x40)\n      dup1\n      swap2\n      sub\n      swap1\n      revert\n    tag_62:\n        /* \"TOKEN/GalaxyToken.sol\":1361:1366  false */\n      0x00\n        /* \"TOKEN/GalaxyToken.sol\":1353:1358  pause */\n      0x04\n      0x14\n        /* \"TOKEN/GalaxyToken.sol\":1353:1366  pause = false */\n      0x0100\n      exp\n      dup2\n      sload\n      dup2\n      0xff\n      mul\n      not\n      and\n      swap1\n      dup4\n      iszero\n      iszero\n      mul\n      or\n      swap1\n      sstore\n      pop\n        /* \"TOKEN/GalaxyToken.sol\":1306:1374  function unPaused() public onlyOwner{... */\n      jump\t// out\n        /* \"TOKEN/GalaxyToken.sol\":87:105  string public name */\n    tag_19:\n      0x00\n      dup1\n      sload\n      tag_66\n      swap1\n      tag_67\n      jump\t// in\n    tag_66:\n      dup1\n      0x1f\n      add\n      0x20\n      dup1\n      swap2\n      div\n      mul\n      0x20\n      add\n      mload(0x40)\n      swap1\n      dup2\n      add\n      0x40\n      mstore\n      dup1\n      swap3\n      swap2\n      swap1\n      dup2\n      dup2\n      mstore\n      0x20\n      add\n      dup3\n      dup1\n      sload\n      tag_68\n      swap1\n      tag_67\n      jump\t// in\n    tag_68:\n      dup1\n      iszero\n      tag_69\n      jumpi\n      dup1\n      0x1f\n      lt\n      tag_70\n      jumpi\n      0x0100\n      dup1\n      dup4\n      sload\n      div\n      mul\n      dup4\n      mstore\n      swap2\n      0x20\n      add\n      swap2\n      jump(tag_69)\n    tag_70:\n      dup3\n      add\n      swap2\n      swap1\n      0x00\n      mstore\n      keccak256(0x00, 0x20)\n      swap1\n    tag_71:\n      dup2\n      sload\n      dup2\n      mstore\n      swap1\n      0x01\n      add\n      swap1\n      0x20\n      add\n      dup1\n      dup4\n      gt\n      tag_71\n      jumpi\n      dup3\n      swap1\n      sub\n      0x1f\n      and\n      dup3\n      add\n      swap2\n    tag_69:\n      pop\n      pop\n      pop\n      pop\n      pop\n      dup2\n      jump\t// out\n        /* \"TOKEN/GalaxyToken.sol\":1922:2071  function approve(address _spender,uint _amount)public returns(bool){... */\n    tag_25:\n        /* \"TOKEN/GalaxyToken.sol\":1984:1988  bool */\n      0x00\n        /* \"TOKEN/GalaxyToken.sol\":2034:2041  _amount */\n      dup2\n        /* \"TOKEN/GalaxyToken.sol\":2000:2009  allowance */\n      0x06\n        /* \"TOKEN/GalaxyToken.sol\":2000:2021  allowance[msg.sender] */\n      0x00\n        /* \"TOKEN/GalaxyToken.sol\":2010:2020  msg.sender */\n      caller\n        /* \"TOKEN/GalaxyToken.sol\":2000:2021  allowance[msg.sender] */\n      0xffffffffffffffffffffffffffffffffffffffff\n      and\n      0xffffffffffffffffffffffffffffffffffffffff\n      and\n      dup2\n      mstore\n      0x20\n      add\n      swap1\n      dup2\n      mstore\n      0x20\n      add\n      0x00\n      keccak256\n        /* \"TOKEN/GalaxyToken.sol\":2000:2031  allowance[msg.sender][_spender] */\n      0x00\n        /* \"TOKEN/GalaxyToken.sol\":2022:2030  _spender */\n      dup6\n        /* \"TOKEN/GalaxyToken.sol\":2000:2031  allowance[msg.sender][_spender] */\n      0xffffffffffffffffffffffffffffffffffffffff\n      and\n      0xffffffffffffffffffffffffffffffffffffffff\n      and\n      dup2\n      mstore\n      0x20\n      add\n      swap1\n      dup2\n      mstore\n      0x20\n      add\n      0x00\n      keccak256\n        /* \"TOKEN/GalaxyToken.sol\":2000:2041  allowance[msg.sender][_spender] = _amount */\n      dup2\n      swap1\n      sstore\n      pop\n        /* \"TOKEN/GalaxyToken.sol\":2059:2063  true */\n      0x01\n        /* \"TOKEN/GalaxyToken.sol\":2052:2063  return true */\n      swap1\n      pop\n        /* \"TOKEN/GalaxyToken.sol\":1922:2071  function approve(address _spender,uint _amount)public returns(bool){... */\n      swap3\n      swap2\n      pop\n      pop\n      jump\t// out\n        /* \"TOKEN/GalaxyToken.sol\":167:193  uint256 public totalSupply */\n    tag_29:\n      sload(0x03)\n      dup2\n      jump\t// out\n        /* \"TOKEN/GalaxyToken.sol\":2079:2732  function transferFrom(address from,address to, uint256 amount) public whenNotPoused returns(bool){... */\n    tag_35:\n        /* \"TOKEN/GalaxyToken.sol\":2171:2175  bool */\n      0x00\n        /* \"TOKEN/GalaxyToken.sol\":536:541  pause */\n      0x04\n      0x14\n      swap1\n      sload\n      swap1\n      0x0100\n      exp\n      swap1\n      div\n      0xff\n      and\n        /* \"TOKEN/GalaxyToken.sol\":535:541  !pause */\n      iszero\n        /* \"TOKEN/GalaxyToken.sol\":527:564  require(!pause,\"Transfer are paused\") */\n      tag_74\n      jumpi\n      mload(0x40)\n      0x08c379a000000000000000000000000000000000000000000000000000000000\n      dup2\n      mstore\n      0x04\n      add\n      tag_75\n      swap1\n      tag_76\n      jump\t// in\n    tag_75:\n      mload(0x40)\n      dup1\n      swap2\n      sub\n      swap1\n      revert\n    tag_74:\n        /* \"TOKEN/GalaxyToken.sol\":2209:2210  0 */\n      0x00\n        /* \"TOKEN/GalaxyToken.sol\":2195:2211  to != address(0) */\n      0xffffffffffffffffffffffffffffffffffffffff\n      and\n        /* \"TOKEN/GalaxyToken.sol\":2195:2197  to */\n      dup4\n        /* \"TOKEN/GalaxyToken.sol\":2195:2211  to != address(0) */\n      0xffffffffffffffffffffffffffffffffffffffff\n      and\n      sub\n        /* \"TOKEN/GalaxyToken.sol\":2187:2230  require(to != address(0),\"Invalid Address\") */\n      tag_78\n      jumpi\n      mload(0x40)\n      0x08c379a000000000000000000000000000000000000000000000000000000000\n      dup2\n      mstore\n      0x04\n      add\n      tag_79\n      swap1\n      tag_80\n      jump\t// in\n    tag_79:\n      mload(0x40)\n      dup1\n      swap2\n      sub\n      swap1\n      revert\n    tag_78:\n        /* \"TOKEN/GalaxyToken.sol\":2267:2273  amount */\n      dup2\n        /* \"TOKEN/GalaxyToken.sol\":2249:2257  balances */\n      0x05\n        /* \"TOKEN/GalaxyToken.sol\":2249:2263  balances[from] */\n      0x00\n        /* \"TOKEN/GalaxyToken.sol\":2258:2262  from */\n      dup7\n        /* \"TOKEN/GalaxyToken.sol\":2249:2263  balances[from] */\n      0xffffffffffffffffffffffffffffffffffffffff\n      and\n      0xffffffffffffffffffffffffffffffffffffffff\n      and\n      dup2\n      mstore\n      0x20\n      add\n      swap1\n      dup2\n      mstore\n      0x20\n      add\n      0x00\n      keccak256\n      sload\n        /* \"TOKEN/GalaxyToken.sol\":2249:2273  balances[from] >= amount */\n      lt\n      iszero\n        /* \"TOKEN/GalaxyToken.sol\":2241:2297  require(balances[from] >= amount,\"Insufficient Balance\") */\n      tag_81\n      jumpi\n      mload(0x40)\n      0x08c379a000000000000000000000000000000000000000000000000000000000\n      dup2\n      mstore\n      0x04\n      add\n      tag_82\n      swap1\n      tag_83\n      jump\t// in\n    tag_82:\n      mload(0x40)\n      dup1\n      swap2\n      sub\n      swap1\n      revert\n    tag_81:\n        /* \"TOKEN/GalaxyToken.sol\":2339:2345  amount */\n      dup2\n        /* \"TOKEN/GalaxyToken.sol\":2316:2325  allowance */\n      0x06\n        /* \"TOKEN/GalaxyToken.sol\":2316:2331  allowance[from] */\n      0x00\n        /* \"TOKEN/GalaxyToken.sol\":2326:2330  from */\n      dup7\n        /* \"TOKEN/GalaxyToken.sol\":2316:2331  allowance[from] */\n      0xffffffffffffffffffffffffffffffffffffffff\n      and\n      0xffffffffffffffffffffffffffffffffffffffff\n      and\n      dup2\n      mstore\n      0x20\n      add\n      swap1\n      dup2\n      mstore\n      0x20\n      add\n      0x00\n      keccak256\n        /* \"TOKEN/GalaxyToken.sol\":2316:2335  allowance[from][to] */\n      0x00\n        /* \"TOKEN/GalaxyToken.sol\":2332:2334  to */\n      dup6\n        /* \"TOKEN/GalaxyToken.sol\":2316:2335  allowance[from][to] */\n      0xffffffffffffffffffffffffffffffffffffffff\n      and\n      0xffffffffffffffffffffffffffffffffffffffff\n      and\n      dup2\n      mstore\n      0x20\n      add\n      swap1\n      dup2\n      mstore\n      0x20\n      add\n      0x00\n      keccak256\n      sload\n        /* \"TOKEN/GalaxyToken.sol\":2316:2345  allowance[from][to] >= amount */\n      lt\n      iszero\n        /* \"TOKEN/GalaxyToken.sol\":2308:2367  require(allowance[from][to] >= amount,\"Allowance Exceeded\") */\n      tag_84\n      jumpi\n      mload(0x40)\n      0x08c379a000000000000000000000000000000000000000000000000000000000\n      dup2\n      mstore\n      0x04\n      add\n      tag_85\n      swap1\n      tag_86\n      jump\t// in\n    tag_85:\n      mload(0x40)\n      dup1\n      swap2\n      sub\n      swap1\n      revert\n    tag_84:\n        /* \"TOKEN/GalaxyToken.sol\":2410:2412  50 */\n      0x32\n        /* \"TOKEN/GalaxyToken.sol\":2396:2407  totalSupply */\n      sload(0x03)\n        /* \"TOKEN/GalaxyToken.sol\":2396:2412  totalSupply / 50 */\n      tag_87\n      swap2\n      swap1\n      tag_88\n      jump\t// in\n    tag_87:\n        /* \"TOKEN/GalaxyToken.sol\":2386:2392  amount */\n      dup3\n        /* \"TOKEN/GalaxyToken.sol\":2386:2412  amount <= totalSupply / 50 */\n      gt\n      iszero\n        /* \"TOKEN/GalaxyToken.sol\":2378:2447  require(amount <= totalSupply / 50,\"Anti-Whale: Max 2% per Transfer\") */\n      tag_89\n      jumpi\n      mload(0x40)\n      0x08c379a000000000000000000000000000000000000000000000000000000000\n      dup2\n      mstore\n      0x04\n      add\n      tag_90\n      swap1\n      tag_91\n      jump\t// in\n    tag_90:\n      mload(0x40)\n      dup1\n      swap2\n      sub\n      swap1\n      revert\n    tag_89:\n        /* \"TOKEN/GalaxyToken.sol\":2460:2468  uint fee */\n      0x00\n        /* \"TOKEN/GalaxyToken.sol\":2483:2486  100 */\n      0x64\n        /* \"TOKEN/GalaxyToken.sol\":2479:2480  2 */\n      0x02\n        /* \"TOKEN/GalaxyToken.sol\":2472:2478  amount */\n      dup5\n        /* \"TOKEN/GalaxyToken.sol\":2472:2480  amount*2 */\n      tag_92\n      swap2\n      swap1\n      tag_93\n      jump\t// in\n    tag_92:\n        /* \"TOKEN/GalaxyToken.sol\":2471:2486  (amount*2)/ 100 */\n      tag_94\n      swap2\n      swap1\n      tag_88\n      jump\t// in\n    tag_94:\n        /* \"TOKEN/GalaxyToken.sol\":2460:2486  uint fee = (amount*2)/ 100 */\n      swap1\n      pop\n        /* \"TOKEN/GalaxyToken.sol\":2497:2516  uint amountAfterFee */\n      0x00\n        /* \"TOKEN/GalaxyToken.sol\":2528:2531  fee */\n      dup2\n        /* \"TOKEN/GalaxyToken.sol\":2519:2525  amount */\n      dup5\n        /* \"TOKEN/GalaxyToken.sol\":2519:2531  amount - fee */\n      tag_95\n      swap2\n      swap1\n      tag_96\n      jump\t// in\n    tag_95:\n        /* \"TOKEN/GalaxyToken.sol\":2497:2531  uint amountAfterFee = amount - fee */\n      swap1\n      pop\n        /* \"TOKEN/GalaxyToken.sol\":2562:2568  amount */\n      dup4\n        /* \"TOKEN/GalaxyToken.sol\":2544:2552  balances */\n      0x05\n        /* \"TOKEN/GalaxyToken.sol\":2544:2558  balances[from] */\n      0x00\n        /* \"TOKEN/GalaxyToken.sol\":2553:2557  from */\n      dup9\n        /* \"TOKEN/GalaxyToken.sol\":2544:2558  balances[from] */\n      0xffffffffffffffffffffffffffffffffffffffff\n      and\n      0xffffffffffffffffffffffffffffffffffffffff\n      and\n      dup2\n      mstore\n      0x20\n      add\n      swap1\n      dup2\n      mstore\n      0x20\n      add\n      0x00\n      keccak256\n      0x00\n        /* \"TOKEN/GalaxyToken.sol\":2544:2568  balances[from] -= amount */\n      dup3\n      dup3\n      sload\n      tag_97\n      swap2\n      swap1\n      tag_96\n      jump\t// in\n    tag_97:\n      swap3\n      pop\n      pop\n      dup2\n      swap1\n      sstore\n      pop\n        /* \"TOKEN/GalaxyToken.sol\":2610:2616  amount */\n      dup4\n        /* \"TOKEN/GalaxyToken.sol\":2579:2588  allowance */\n      0x06\n        /* \"TOKEN/GalaxyToken.sol\":2579:2594  allowance[from] */\n      0x00\n        /* \"TOKEN/GalaxyToken.sol\":2589:2593  from */\n      dup9\n        /* \"TOKEN/GalaxyToken.sol\":2579:2594  allowance[from] */\n      0xffffffffffffffffffffffffffffffffffffffff\n      and\n      0xffffffffffffffffffffffffffffffffffffffff\n      and\n      dup2\n      mstore\n      0x20\n      add\n      swap1\n      dup2\n      mstore\n      0x20\n      add\n      0x00\n      keccak256\n        /* \"TOKEN/GalaxyToken.sol\":2579:2606  allowance[from][msg.sender] */\n      0x00\n        /* \"TOKEN/GalaxyToken.sol\":2595:2605  msg.sender */\n      caller\n        /* \"TOKEN/GalaxyToken.sol\":2579:2606  allowance[from][msg.sender] */\n      0xffffffffffffffffffffffffffffffffffffffff\n      and\n      0xffffffffffffffffffffffffffffffffffffffff\n      and\n      dup2\n      mstore\n      0x20\n      add\n      swap1\n      dup2\n      mstore\n      0x20\n      add\n      0x00\n      keccak256\n      0x00\n        /* \"TOKEN/GalaxyToken.sol\":2579:2616  allowance[from][msg.sender] += amount */\n      dup3\n      dup3\n      sload\n      tag_98\n      swap2\n      swap1\n      tag_99\n      jump\t// in\n    tag_98:\n      swap3\n      pop\n      pop\n      dup2\n      swap1\n      sstore\n      pop\n        /* \"TOKEN/GalaxyToken.sol\":2645:2659  amountAfterFee */\n      dup1\n        /* \"TOKEN/GalaxyToken.sol\":2629:2637  balances */\n      0x05\n        /* \"TOKEN/GalaxyToken.sol\":2629:2641  balances[to] */\n      0x00\n        /* \"TOKEN/GalaxyToken.sol\":2638:2640  to */\n      dup8\n        /* \"TOKEN/GalaxyToken.sol\":2629:2641  balances[to] */\n      0xffffffffffffffffffffffffffffffffffffffff\n      and\n      0xffffffffffffffffffffffffffffffffffffffff\n      and\n      dup2\n      mstore\n      0x20\n      add\n      swap1\n      dup2\n      mstore\n      0x20\n      add\n      0x00\n      keccak256\n      0x00\n        /* \"TOKEN/GalaxyToken.sol\":2629:2659  balances[to] += amountAfterFee */\n      dup3\n      dup3\n      sload\n      tag_100\n      swap2\n      swap1\n      tag_99\n      jump\t// in\n    tag_100:\n      swap3\n      pop\n      pop\n      dup2\n      swap1\n      sstore\n      pop\n        /* \"TOKEN/GalaxyToken.sol\":2689:2692  fee */\n      dup2\n        /* \"TOKEN/GalaxyToken.sol\":2670:2678  balances */\n      0x05\n        /* \"TOKEN/GalaxyToken.sol\":2670:2685  balances[owner] */\n      0x00\n        /* \"TOKEN/GalaxyToken.sol\":2679:2684  owner */\n      0x04\n      0x00\n      swap1\n      sload\n      swap1\n      0x0100\n      exp\n      swap1\n      div\n      0xffffffffffffffffffffffffffffffffffffffff\n      and\n        /* \"TOKEN/GalaxyToken.sol\":2670:2685  balances[owner] */\n      0xffffffffffffffffffffffffffffffffffffffff\n      and\n      0xffffffffffffffffffffffffffffffffffffffff\n      and\n      dup2\n      mstore\n      0x20\n      add\n      swap1\n      dup2\n      mstore\n      0x20\n      add\n      0x00\n      keccak256\n      0x00\n        /* \"TOKEN/GalaxyToken.sol\":2670:2692  balances[owner] += fee */\n      dup3\n      dup3\n      sload\n      tag_101\n      swap2\n      swap1\n      tag_99\n      jump\t// in\n    tag_101:\n      swap3\n      pop\n      pop\n      dup2\n      swap1\n      sstore\n      pop\n        /* \"TOKEN/GalaxyToken.sol\":2720:2724  true */\n      0x01\n        /* \"TOKEN/GalaxyToken.sol\":2713:2724  return true */\n      swap3\n      pop\n      pop\n      pop\n        /* \"TOKEN/GalaxyToken.sol\":2079:2732  function transferFrom(address from,address to, uint256 amount) public whenNotPoused returns(bool){... */\n      swap4\n      swap3\n      pop\n      pop\n      pop\n      jump\t// out\n        /* \"TOKEN/GalaxyToken.sol\":1038:1225  function burn(uint256 amount) public {... */\n    tag_40:\n        /* \"TOKEN/GalaxyToken.sol\":1118:1124  amount */\n      dup1\n        /* \"TOKEN/GalaxyToken.sol\":1094:1102  balances */\n      0x05\n        /* \"TOKEN/GalaxyToken.sol\":1094:1114  balances[msg.sender] */\n      0x00\n        /* \"TOKEN/GalaxyToken.sol\":1103:1113  msg.sender */\n      caller\n        /* \"TOKEN/GalaxyToken.sol\":1094:1114  balances[msg.sender] */\n      0xffffffffffffffffffffffffffffffffffffffff\n      and\n      0xffffffffffffffffffffffffffffffffffffffff\n      and\n      dup2\n      mstore\n      0x20\n      add\n      swap1\n      dup2\n      mstore\n      0x20\n      add\n      0x00\n      keccak256\n      sload\n        /* \"TOKEN/GalaxyToken.sol\":1094:1124  balances[msg.sender] >= amount */\n      lt\n      iszero\n        /* \"TOKEN/GalaxyToken.sol\":1086:1144  require(balances[msg.sender] >= amount,\"Not Enough Token\") */\n      tag_103\n      jumpi\n      mload(0x40)\n      0x08c379a000000000000000000000000000000000000000000000000000000000\n      dup2\n      mstore\n      0x04\n      add\n      tag_104\n      swap1\n      tag_105\n      jump\t// in\n    tag_104:\n      mload(0x40)\n      dup1\n      swap2\n      sub\n      swap1\n      revert\n    tag_103:\n        /* \"TOKEN/GalaxyToken.sol\":1179:1185  amount */\n      dup1\n        /* \"TOKEN/GalaxyToken.sol\":1155:1163  balances */\n      0x05\n        /* \"TOKEN/GalaxyToken.sol\":1155:1175  balances[msg.sender] */\n      0x00\n        /* \"TOKEN/GalaxyToken.sol\":1164:1174  msg.sender */\n      caller\n        /* \"TOKEN/GalaxyToken.sol\":1155:1175  balances[msg.sender] */\n      0xffffffffffffffffffffffffffffffffffffffff\n      and\n      0xffffffffffffffffffffffffffffffffffffffff\n      and\n      dup2\n      mstore\n      0x20\n      add\n      swap1\n      dup2\n      mstore\n      0x20\n      add\n      0x00\n      keccak256\n      0x00\n        /* \"TOKEN/GalaxyToken.sol\":1155:1185  balances[msg.sender] -= amount */\n      dup3\n      dup3\n      sload\n      tag_106\n      swap2\n      swap1\n      tag_96\n      jump\t// in\n    tag_106:\n      swap3\n      pop\n      pop\n      dup2\n      swap1\n      sstore\n      pop\n        /* \"TOKEN/GalaxyToken.sol\":1211:1217  amount */\n      dup1\n        /* \"TOKEN/GalaxyToken.sol\":1196:1207  totalSupply */\n      0x03\n      0x00\n        /* \"TOKEN/GalaxyToken.sol\":1196:1217  totalSupply -= amount */\n      dup3\n      dup3\n      sload\n      tag_107\n      swap2\n      swap1\n      tag_96\n      jump\t// in\n    tag_107:\n      swap3\n      pop\n      pop\n      dup2\n      swap1\n      sstore\n      pop\n        /* \"TOKEN/GalaxyToken.sol\":1038:1225  function burn(uint256 amount) public {... */\n      pop\n      jump\t// out\n        /* \"TOKEN/GalaxyToken.sol\":1233:1298  function paused() public onlyOwner{... */\n    tag_42:\n        /* \"TOKEN/GalaxyToken.sol\":434:439  owner */\n      0x04\n      0x00\n      swap1\n      sload\n      swap1\n      0x0100\n      exp\n      swap1\n      div\n      0xffffffffffffffffffffffffffffffffffffffff\n      and\n        /* \"TOKEN/GalaxyToken.sol\":420:439  msg.sender == owner */\n      0xffffffffffffffffffffffffffffffffffffffff\n      and\n        /* \"TOKEN/GalaxyToken.sol\":420:430  msg.sender */\n      caller\n        /* \"TOKEN/GalaxyToken.sol\":420:439  msg.sender == owner */\n      0xffffffffffffffffffffffffffffffffffffffff\n      and\n      eq\n        /* \"TOKEN/GalaxyToken.sol\":412:464  require(msg.sender == owner,\"You are not the owner\") */\n      tag_109\n      jumpi\n      mload(0x40)\n      0x08c379a000000000000000000000000000000000000000000000000000000000\n      dup2\n      mstore\n      0x04\n      add\n      tag_110\n      swap1\n      tag_64\n      jump\t// in\n    tag_110:\n      mload(0x40)\n      dup1\n      swap2\n      sub\n      swap1\n      revert\n    tag_109:\n        /* \"TOKEN/GalaxyToken.sol\":1286:1290  true */\n      0x01\n        /* \"TOKEN/GalaxyToken.sol\":1278:1283  pause */\n      0x04\n      0x14\n        /* \"TOKEN/GalaxyToken.sol\":1278:1290  pause = true */\n      0x0100\n      exp\n      dup2\n      sload\n      dup2\n      0xff\n      mul\n      not\n      and\n      swap1\n      dup4\n      iszero\n      iszero\n      mul\n      or\n      swap1\n      sstore\n      pop\n        /* \"TOKEN/GalaxyToken.sol\":1233:1298  function paused() public onlyOwner{... */\n      jump\t// out\n        /* \"TOKEN/GalaxyToken.sol\":227:244  bool public pause */\n    tag_44:\n      0x04\n      0x14\n      swap1\n      sload\n      swap1\n      0x0100\n      exp\n      swap1\n      div\n      0xff\n      and\n      dup2\n      jump\t// out\n        /* \"TOKEN/GalaxyToken.sol\":200:220  address public owner */\n    tag_47:\n      0x04\n      0x00\n      swap1\n      sload\n      swap1\n      0x0100\n      exp\n      swap1\n      div\n      0xffffffffffffffffffffffffffffffffffffffff\n      and\n      dup2\n      jump\t// out\n        /* \"TOKEN/GalaxyToken.sol\":112:132  string public symbol */\n    tag_51:\n      0x01\n      dup1\n      sload\n      tag_112\n      swap1\n      tag_67\n      jump\t// in\n    tag_112:\n      dup1\n      0x1f\n      add\n      0x20\n      dup1\n      swap2\n      div\n      mul\n      0x20\n      add\n      mload(0x40)\n      swap1\n      dup2\n      add\n      0x40\n      mstore\n      dup1\n      swap3\n      swap2\n      swap1\n      dup2\n      dup2\n      mstore\n      0x20\n      add\n      dup3\n      dup1\n      sload\n      tag_113\n      swap1\n      tag_67\n      jump\t// in\n    tag_113:\n      dup1\n      iszero\n      tag_114\n      jumpi\n      dup1\n      0x1f\n      lt\n      tag_115\n      jumpi\n      0x0100\n      dup1\n      dup4\n      sload\n      div\n      mul\n      dup4\n      mstore\n      swap2\n      0x20\n      add\n      swap2\n      jump(tag_114)\n    tag_115:\n      dup3\n      add\n      swap2\n      swap1\n      0x00\n      mstore\n      keccak256(0x00, 0x20)\n      swap1\n    tag_116:\n      dup2\n      sload\n      dup2\n      mstore\n      swap1\n      0x01\n      add\n      swap1\n      0x20\n      add\n      dup1\n      dup4\n      gt\n      tag_116\n      jumpi\n      dup3\n      swap1\n      sub\n      0x1f\n      and\n      dup3\n      add\n      swap2\n    tag_114:\n      pop\n      pop\n      pop\n      pop\n      pop\n      dup2\n      jump\t// out\n        /* \"TOKEN/GalaxyToken.sol\":1382:1914  function transfer(address _to, uint256 amount) public whenNotPoused returns(bool){... */\n    tag_55:\n        /* \"TOKEN/GalaxyToken.sol\":1458:1462  bool */\n      0x00\n        /* \"TOKEN/GalaxyToken.sol\":536:541  pause */\n      0x04\n      0x14\n      swap1\n      sload\n      swap1\n      0x0100\n      exp\n      swap1\n      div\n      0xff\n      and\n        /* \"TOKEN/GalaxyToken.sol\":535:541  !pause */\n      iszero\n        /* \"TOKEN/GalaxyToken.sol\":527:564  require(!pause,\"Transfer are paused\") */\n      tag_118\n      jumpi\n      mload(0x40)\n      0x08c379a000000000000000000000000000000000000000000000000000000000\n      dup2\n      mstore\n      0x04\n      add\n      tag_119\n      swap1\n      tag_76\n      jump\t// in\n    tag_119:\n      mload(0x40)\n      dup1\n      swap2\n      sub\n      swap1\n      revert\n    tag_118:\n        /* \"TOKEN/GalaxyToken.sol\":1497:1498  0 */\n      0x00\n        /* \"TOKEN/GalaxyToken.sol\":1482:1499  _to != address(0) */\n      0xffffffffffffffffffffffffffffffffffffffff\n      and\n        /* \"TOKEN/GalaxyToken.sol\":1482:1485  _to */\n      dup4\n        /* \"TOKEN/GalaxyToken.sol\":1482:1499  _to != address(0) */\n      0xffffffffffffffffffffffffffffffffffffffff\n      and\n      sub\n        /* \"TOKEN/GalaxyToken.sol\":1474:1518  require(_to != address(0),\"Invalid Address\") */\n      tag_121\n      jumpi\n      mload(0x40)\n      0x08c379a000000000000000000000000000000000000000000000000000000000\n      dup2\n      mstore\n      0x04\n      add\n      tag_122\n      swap1\n      tag_80\n      jump\t// in\n    tag_122:\n      mload(0x40)\n      dup1\n      swap2\n      sub\n      swap1\n      revert\n    tag_121:\n        /* \"TOKEN/GalaxyToken.sol\":1561:1567  amount */\n      dup2\n        /* \"TOKEN/GalaxyToken.sol\":1537:1545  balances */\n      0x05\n        /* \"TOKEN/GalaxyToken.sol\":1537:1557  balances[msg.sender] */\n      0x00\n        /* \"TOKEN/GalaxyToken.sol\":1546:1556  msg.sender */\n      caller\n        /* \"TOKEN/GalaxyToken.sol\":1537:1557  balances[msg.sender] */\n      0xffffffffffffffffffffffffffffffffffffffff\n      and\n      0xffffffffffffffffffffffffffffffffffffffff\n      and\n      dup2\n      mstore\n      0x20\n      add\n      swap1\n      dup2\n      mstore\n      0x20\n      add\n      0x00\n      keccak256\n      sload\n        /* \"TOKEN/GalaxyToken.sol\":1537:1567  balances[msg.sender] >= amount */\n      lt\n      iszero\n        /* \"TOKEN/GalaxyToken.sol\":1529:1591  require(balances[msg.sender] >= amount,\"Insufficient Balance\") */\n      tag_123\n      jumpi\n      mload(0x40)\n      0x08c379a000000000000000000000000000000000000000000000000000000000\n      dup2\n      mstore\n      0x04\n      add\n      tag_124\n      swap1\n      tag_83\n      jump\t// in\n    tag_124:\n      mload(0x40)\n      dup1\n      swap2\n      sub\n      swap1\n      revert\n    tag_123:\n        /* \"TOKEN/GalaxyToken.sol\":1634:1636  50 */\n      0x32\n        /* \"TOKEN/GalaxyToken.sol\":1620:1631  totalSupply */\n      sload(0x03)\n        /* \"TOKEN/GalaxyToken.sol\":1620:1636  totalSupply / 50 */\n      tag_125\n      swap2\n      swap1\n      tag_88\n      jump\t// in\n    tag_125:\n        /* \"TOKEN/GalaxyToken.sol\":1610:1616  amount */\n      dup3\n        /* \"TOKEN/GalaxyToken.sol\":1610:1636  amount <= totalSupply / 50 */\n      gt\n      iszero\n        /* \"TOKEN/GalaxyToken.sol\":1602:1671  require(amount <= totalSupply / 50,\"Anti whale: Max 2% per transfer\") */\n      tag_126\n      jumpi\n      mload(0x40)\n      0x08c379a000000000000000000000000000000000000000000000000000000000\n      dup2\n      mstore\n      0x04\n      add\n      tag_127\n      swap1\n      tag_128\n      jump\t// in\n    tag_127:\n      mload(0x40)\n      dup1\n      swap2\n      sub\n      swap1\n      revert\n    tag_126:\n        /* \"TOKEN/GalaxyToken.sol\":1684:1695  uint256 fee */\n      0x00\n        /* \"TOKEN/GalaxyToken.sol\":1713:1716  100 */\n      0x64\n        /* \"TOKEN/GalaxyToken.sol\":1708:1709  2 */\n      0x02\n        /* \"TOKEN/GalaxyToken.sol\":1699:1705  amount */\n      dup5\n        /* \"TOKEN/GalaxyToken.sol\":1699:1709  amount * 2 */\n      tag_129\n      swap2\n      swap1\n      tag_93\n      jump\t// in\n    tag_129:\n        /* \"TOKEN/GalaxyToken.sol\":1698:1716  (amount * 2) / 100 */\n      tag_130\n      swap2\n      swap1\n      tag_88\n      jump\t// in\n    tag_130:\n        /* \"TOKEN/GalaxyToken.sol\":1684:1716  uint256 fee = (amount * 2) / 100 */\n      swap1\n      pop\n        /* \"TOKEN/GalaxyToken.sol\":1727:1749  uint256 amountAfterFee */\n      0x00\n        /* \"TOKEN/GalaxyToken.sol\":1761:1764  fee */\n      dup2\n        /* \"TOKEN/GalaxyToken.sol\":1752:1758  amount */\n      dup5\n        /* \"TOKEN/GalaxyToken.sol\":1752:1764  amount - fee */\n      tag_131\n      swap2\n      swap1\n      tag_96\n      jump\t// in\n    tag_131:\n        /* \"TOKEN/GalaxyToken.sol\":1727:1764  uint256 amountAfterFee = amount - fee */\n      swap1\n      pop\n        /* \"TOKEN/GalaxyToken.sol\":1801:1807  amount */\n      dup4\n        /* \"TOKEN/GalaxyToken.sol\":1777:1785  balances */\n      0x05\n        /* \"TOKEN/GalaxyToken.sol\":1777:1797  balances[msg.sender] */\n      0x00\n        /* \"TOKEN/GalaxyToken.sol\":1786:1796  msg.sender */\n      caller\n        /* \"TOKEN/GalaxyToken.sol\":1777:1797  balances[msg.sender] */\n      0xffffffffffffffffffffffffffffffffffffffff\n      and\n      0xffffffffffffffffffffffffffffffffffffffff\n      and\n      dup2\n      mstore\n      0x20\n      add\n      swap1\n      dup2\n      mstore\n      0x20\n      add\n      0x00\n      keccak256\n      0x00\n        /* \"TOKEN/GalaxyToken.sol\":1777:1807  balances[msg.sender] -= amount */\n      dup3\n      dup3\n      sload\n      tag_132\n      swap2\n      swap1\n      tag_96\n      jump\t// in\n    tag_132:\n      swap3\n      pop\n      pop\n      dup2\n      swap1\n      sstore\n      pop\n        /* \"TOKEN/GalaxyToken.sol\":1835:1849  amountAfterFee */\n      dup1\n        /* \"TOKEN/GalaxyToken.sol\":1818:1826  balances */\n      0x05\n        /* \"TOKEN/GalaxyToken.sol\":1818:1831  balances[_to] */\n      0x00\n        /* \"TOKEN/GalaxyToken.sol\":1827:1830  _to */\n      dup8\n        /* \"TOKEN/GalaxyToken.sol\":1818:1831  balances[_to] */\n      0xffffffffffffffffffffffffffffffffffffffff\n      and\n      0xffffffffffffffffffffffffffffffffffffffff\n      and\n      dup2\n      mstore\n      0x20\n      add\n      swap1\n      dup2\n      mstore\n      0x20\n      add\n      0x00\n      keccak256\n      0x00\n        /* \"TOKEN/GalaxyToken.sol\":1818:1849  balances[_to] += amountAfterFee */\n      dup3\n      dup3\n      sload\n      tag_133\n      swap2\n      swap1\n      tag_99\n      jump\t// in\n    tag_133:\n      swap3\n      pop\n      pop\n      dup2\n      swap1\n      sstore\n      pop\n        /* \"TOKEN/GalaxyToken.sol\":1879:1882  fee */\n      dup2\n        /* \"TOKEN/GalaxyToken.sol\":1860:1868  balances */\n      0x05\n        /* \"TOKEN/GalaxyToken.sol\":1860:1875  balances[owner] */\n      0x00\n        /* \"TOKEN/GalaxyToken.sol\":1869:1874  owner */\n      0x04\n      0x00\n      swap1\n      sload\n      swap1\n      0x0100\n      exp\n      swap1\n      div\n      0xffffffffffffffffffffffffffffffffffffffff\n      and\n        /* \"TOKEN/GalaxyToken.sol\":1860:1875  balances[owner] */\n      0xffffffffffffffffffffffffffffffffffffffff\n      and\n      0xffffffffffffffffffffffffffffffffffffffff\n      and\n      dup2\n      mstore\n      0x20\n      add\n      swap1\n      dup2\n      mstore\n      0x20\n      add\n      0x00\n      keccak256\n      0x00\n        /* \"TOKEN/GalaxyToken.sol\":1860:1882  balances[owner] += fee */\n      dup3\n      dup3\n      sload\n      tag_134\n      swap2\n      swap1\n      tag_99\n      jump\t// in\n    tag_134:\n      swap3\n      pop\n      pop\n      dup2\n      swap1\n      sstore\n      pop\n        /* \"TOKEN/GalaxyToken.sol\":1902:1906  true */\n      0x01\n        /* \"TOKEN/GalaxyToken.sol\":1895:1906  return true */\n      swap3\n      pop\n      pop\n      pop\n        /* \"TOKEN/GalaxyToken.sol\":1382:1914  function transfer(address _to, uint256 amount) public whenNotPoused returns(bool){... */\n      swap3\n      swap2\n      pop\n      pop\n      jump\t// out\n        /* \"TOKEN/GalaxyToken.sol\":139:160  uint8 public decimels */\n    tag_58:\n      0x02\n      0x00\n      swap1\n      sload\n      swap1\n      0x0100\n      exp\n      swap1\n      div\n      0xff\n      and\n      dup2\n      jump\t// out\n        /* \"#utility.yul\":7:106   */\n    tag_135:\n        /* \"#utility.yul\":59:65   */\n      0x00\n        /* \"#utility.yul\":93:98   */\n      dup2\n        /* \"#utility.yul\":87:99   */\n      mload\n        /* \"#utility.yul\":77:99   */\n      swap1\n      pop\n        /* \"#utility.yul\":7:106   */\n      swap2\n      swap1\n      pop\n      jump\t// out\n        /* \"#utility.yul\":112:281   */\n    tag_136:\n        /* \"#utility.yul\":196:207   */\n      0x00\n        /* \"#utility.yul\":230:236   */\n      dup3\n        /* \"#utility.yul\":225:228   */\n      dup3\n        /* \"#utility.yul\":218:237   */\n      mstore\n        /* \"#utility.yul\":270:274   */\n      0x20\n        /* \"#utility.yul\":265:268   */\n      dup3\n        /* \"#utility.yul\":261:275   */\n      add\n        /* \"#utility.yul\":246:275   */\n      swap1\n      pop\n        /* \"#utility.yul\":112:281   */\n      swap3\n      swap2\n      pop\n      pop\n      jump\t// out\n        /* \"#utility.yul\":287:426   */\n    tag_137:\n        /* \"#utility.yul\":376:382   */\n      dup3\n        /* \"#utility.yul\":371:374   */\n      dup2\n        /* \"#utility.yul\":366:369   */\n      dup4\n        /* \"#utility.yul\":360:383   */\n      mcopy\n        /* \"#utility.yul\":417:418   */\n      0x00\n        /* \"#utility.yul\":408:414   */\n      dup4\n        /* \"#utility.yul\":403:406   */\n      dup4\n        /* \"#utility.yul\":399:415   */\n      add\n        /* \"#utility.yul\":392:419   */\n      mstore\n        /* \"#utility.yul\":287:426   */\n      pop\n      pop\n      pop\n      jump\t// out\n        /* \"#utility.yul\":432:534   */\n    tag_138:\n        /* \"#utility.yul\":473:479   */\n      0x00\n        /* \"#utility.yul\":524:526   */\n      0x1f\n        /* \"#utility.yul\":520:527   */\n      not\n        /* \"#utility.yul\":515:517   */\n      0x1f\n        /* \"#utility.yul\":508:513   */\n      dup4\n        /* \"#utility.yul\":504:518   */\n      add\n        /* \"#utility.yul\":500:528   */\n      and\n        /* \"#utility.yul\":490:528   */\n      swap1\n      pop\n        /* \"#utility.yul\":432:534   */\n      swap2\n      swap1\n      pop\n      jump\t// out\n        /* \"#utility.yul\":540:917   */\n    tag_139:\n        /* \"#utility.yul\":628:631   */\n      0x00\n        /* \"#utility.yul\":656:695   */\n      tag_181\n        /* \"#utility.yul\":689:694   */\n      dup3\n        /* \"#utility.yul\":656:695   */\n      tag_135\n      jump\t// in\n    tag_181:\n        /* \"#utility.yul\":711:782   */\n      tag_182\n        /* \"#utility.yul\":775:781   */\n      dup2\n        /* \"#utility.yul\":770:773   */\n      dup6\n        /* \"#utility.yul\":711:782   */\n      tag_136\n      jump\t// in\n    tag_182:\n        /* \"#utility.yul\":704:782   */\n      swap4\n      pop\n        /* \"#utility.yul\":791:856   */\n      tag_183\n        /* \"#utility.yul\":849:855   */\n      dup2\n        /* \"#utility.yul\":844:847   */\n      dup6\n        /* \"#utility.yul\":837:841   */\n      0x20\n        /* \"#utility.yul\":830:835   */\n      dup7\n        /* \"#utility.yul\":826:842   */\n      add\n        /* \"#utility.yul\":791:856   */\n      tag_137\n      jump\t// in\n    tag_183:\n        /* \"#utility.yul\":881:910   */\n      tag_184\n        /* \"#utility.yul\":903:909   */\n      dup2\n        /* \"#utility.yul\":881:910   */\n      tag_138\n      jump\t// in\n    tag_184:\n        /* \"#utility.yul\":876:879   */\n      dup5\n        /* \"#utility.yul\":872:911   */\n      add\n        /* \"#utility.yul\":865:911   */\n      swap2\n      pop\n        /* \"#utility.yul\":632:917   */\n      pop\n        /* \"#utility.yul\":540:917   */\n      swap3\n      swap2\n      pop\n      pop\n      jump\t// out\n        /* \"#utility.yul\":923:1236   */\n    tag_21:\n        /* \"#utility.yul\":1036:1040   */\n      0x00\n        /* \"#utility.yul\":1074:1076   */\n      0x20\n        /* \"#utility.yul\":1063:1072   */\n      dup3\n        /* \"#utility.yul\":1059:1077   */\n      add\n        /* \"#utility.yul\":1051:1077   */\n      swap1\n      pop\n        /* \"#utility.yul\":1123:1132   */\n      dup2\n        /* \"#utility.yul\":1117:1121   */\n      dup2\n        /* \"#utility.yul\":1113:1133   */\n      sub\n        /* \"#utility.yul\":1109:1110   */\n      0x00\n        /* \"#utility.yul\":1098:1107   */\n      dup4\n        /* \"#utility.yul\":1094:1111   */\n      add\n        /* \"#utility.yul\":1087:1134   */\n      mstore\n        /* \"#utility.yul\":1151:1229   */\n      tag_186\n        /* \"#utility.yul\":1224:1228   */\n      dup2\n        /* \"#utility.yul\":1215:1221   */\n      dup5\n        /* \"#utility.yul\":1151:1229   */\n      tag_139\n      jump\t// in\n    tag_186:\n        /* \"#utility.yul\":1143:1229   */\n      swap1\n      pop\n        /* \"#utility.yul\":923:1236   */\n      swap3\n      swap2\n      pop\n      pop\n      jump\t// out\n        /* \"#utility.yul\":1323:1440   */\n    tag_141:\n        /* \"#utility.yul\":1432:1433   */\n      0x00\n        /* \"#utility.yul\":1429:1430   */\n      dup1\n        /* \"#utility.yul\":1422:1434   */\n      revert\n        /* \"#utility.yul\":1569:1695   */\n    tag_143:\n        /* \"#utility.yul\":1606:1613   */\n      0x00\n        /* \"#utility.yul\":1646:1688   */\n      0xffffffffffffffffffffffffffffffffffffffff\n        /* \"#utility.yul\":1639:1644   */\n      dup3\n        /* \"#utility.yul\":1635:1689   */\n      and\n        /* \"#utility.yul\":1624:1689   */\n      swap1\n      pop\n        /* \"#utility.yul\":1569:1695   */\n      swap2\n      swap1\n      pop\n      jump\t// out\n        /* \"#utility.yul\":1701:1797   */\n    tag_144:\n        /* \"#utility.yul\":1738:1745   */\n      0x00\n        /* \"#utility.yul\":1767:1791   */\n      tag_192\n        /* \"#utility.yul\":1785:1790   */\n      dup3\n        /* \"#utility.yul\":1767:1791   */\n      tag_143\n      jump\t// in\n    tag_192:\n        /* \"#utility.yul\":1756:1791   */\n      swap1\n      pop\n        /* \"#utility.yul\":1701:1797   */\n      swap2\n      swap1\n      pop\n      jump\t// out\n        /* \"#utility.yul\":1803:1925   */\n    tag_145:\n        /* \"#utility.yul\":1876:1900   */\n      tag_194\n        /* \"#utility.yul\":1894:1899   */\n      dup2\n        /* \"#utility.yul\":1876:1900   */\n      tag_144\n      jump\t// in\n    tag_194:\n        /* \"#utility.yul\":1869:1874   */\n      dup2\n        /* \"#utility.yul\":1866:1901   */\n      eq\n        /* \"#utility.yul\":1856:1919   */\n      tag_195\n      jumpi\n        /* \"#utility.yul\":1915:1916   */\n      0x00\n        /* \"#utility.yul\":1912:1913   */\n      dup1\n        /* \"#utility.yul\":1905:1917   */\n      revert\n        /* \"#utility.yul\":1856:1919   */\n    tag_195:\n        /* \"#utility.yul\":1803:1925   */\n      pop\n      jump\t// out\n        /* \"#utility.yul\":1931:2070   */\n    tag_146:\n        /* \"#utility.yul\":1977:1982   */\n      0x00\n        /* \"#utility.yul\":2015:2021   */\n      dup2\n        /* \"#utility.yul\":2002:2022   */\n      calldataload\n        /* \"#utility.yul\":1993:2022   */\n      swap1\n      pop\n        /* \"#utility.yul\":2031:2064   */\n      tag_197\n        /* \"#utility.yul\":2058:2063   */\n      dup2\n        /* \"#utility.yul\":2031:2064   */\n      tag_145\n      jump\t// in\n    tag_197:\n        /* \"#utility.yul\":1931:2070   */\n      swap3\n      swap2\n      pop\n      pop\n      jump\t// out\n        /* \"#utility.yul\":2076:2153   */\n    tag_147:\n        /* \"#utility.yul\":2113:2120   */\n      0x00\n        /* \"#utility.yul\":2142:2147   */\n      dup2\n        /* \"#utility.yul\":2131:2147   */\n      swap1\n      pop\n        /* \"#utility.yul\":2076:2153   */\n      swap2\n      swap1\n      pop\n      jump\t// out\n        /* \"#utility.yul\":2159:2281   */\n    tag_148:\n        /* \"#utility.yul\":2232:2256   */\n      tag_200\n        /* \"#utility.yul\":2250:2255   */\n      dup2\n        /* \"#utility.yul\":2232:2256   */\n      tag_147\n      jump\t// in\n    tag_200:\n        /* \"#utility.yul\":2225:2230   */\n      dup2\n        /* \"#utility.yul\":2222:2257   */\n      eq\n        /* \"#utility.yul\":2212:2275   */\n      tag_201\n      jumpi\n        /* \"#utility.yul\":2271:2272   */\n      0x00\n        /* \"#utility.yul\":2268:2269   */\n      dup1\n        /* \"#utility.yul\":2261:2273   */\n      revert\n        /* \"#utility.yul\":2212:2275   */\n    tag_201:\n        /* \"#utility.yul\":2159:2281   */\n      pop\n      jump\t// out\n        /* \"#utility.yul\":2287:2426   */\n    tag_149:\n        /* \"#utility.yul\":2333:2338   */\n      0x00\n        /* \"#utility.yul\":2371:2377   */\n      dup2\n        /* \"#utility.yul\":2358:2378   */\n      calldataload\n        /* \"#utility.yul\":2349:2378   */\n      swap1\n      pop\n        /* \"#utility.yul\":2387:2420   */\n      tag_203\n        /* \"#utility.yul\":2414:2419   */\n      dup2\n        /* \"#utility.yul\":2387:2420   */\n      tag_148\n      jump\t// in\n    tag_203:\n        /* \"#utility.yul\":2287:2426   */\n      swap3\n      swap2\n      pop\n      pop\n      jump\t// out\n        /* \"#utility.yul\":2432:2906   */\n    tag_24:\n        /* \"#utility.yul\":2500:2506   */\n      0x00\n        /* \"#utility.yul\":2508:2514   */\n      dup1\n        /* \"#utility.yul\":2557:2559   */\n      0x40\n        /* \"#utility.yul\":2545:2554   */\n      dup4\n        /* \"#utility.yul\":2536:2543   */\n      dup6\n        /* \"#utility.yul\":2532:2555   */\n      sub\n        /* \"#utility.yul\":2528:2560   */\n      slt\n        /* \"#utility.yul\":2525:2644   */\n      iszero\n      tag_205\n      jumpi\n        /* \"#utility.yul\":2563:2642   */\n      tag_206\n      tag_141\n      jump\t// in\n    tag_206:\n        /* \"#utility.yul\":2525:2644   */\n    tag_205:\n        /* \"#utility.yul\":2683:2684   */\n      0x00\n        /* \"#utility.yul\":2708:2761   */\n      tag_207\n        /* \"#utility.yul\":2753:2760   */\n      dup6\n        /* \"#utility.yul\":2744:2750   */\n      dup3\n        /* \"#utility.yul\":2733:2742   */\n      dup7\n        /* \"#utility.yul\":2729:2751   */\n      add\n        /* \"#utility.yul\":2708:2761   */\n      tag_146\n      jump\t// in\n    tag_207:\n        /* \"#utility.yul\":2698:2761   */\n      swap3\n      pop\n        /* \"#utility.yul\":2654:2771   */\n      pop\n        /* \"#utility.yul\":2810:2812   */\n      0x20\n        /* \"#utility.yul\":2836:2889   */\n      tag_208\n        /* \"#utility.yul\":2881:2888   */\n      dup6\n        /* \"#utility.yul\":2872:2878   */\n      dup3\n        /* \"#utility.yul\":2861:2870   */\n      dup7\n        /* \"#utility.yul\":2857:2879   */\n      add\n        /* \"#utility.yul\":2836:2889   */\n      tag_149\n      jump\t// in\n    tag_208:\n        /* \"#utility.yul\":2826:2889   */\n      swap2\n      pop\n        /* \"#utility.yul\":2781:2899   */\n      pop\n        /* \"#utility.yul\":2432:2906   */\n      swap3\n      pop\n      swap3\n      swap1\n      pop\n      jump\t// out\n        /* \"#utility.yul\":2912:3002   */\n    tag_150:\n        /* \"#utility.yul\":2946:2953   */\n      0x00\n        /* \"#utility.yul\":2989:2994   */\n      dup2\n        /* \"#utility.yul\":2982:2995   */\n      iszero\n        /* \"#utility.yul\":2975:2996   */\n      iszero\n        /* \"#utility.yul\":2964:2996   */\n      swap1\n      pop\n        /* \"#utility.yul\":2912:3002   */\n      swap2\n      swap1\n      pop\n      jump\t// out\n        /* \"#utility.yul\":3008:3117   */\n    tag_151:\n        /* \"#utility.yul\":3089:3110   */\n      tag_211\n        /* \"#utility.yul\":3104:3109   */\n      dup2\n        /* \"#utility.yul\":3089:3110   */\n      tag_150\n      jump\t// in\n    tag_211:\n        /* \"#utility.yul\":3084:3087   */\n      dup3\n        /* \"#utility.yul\":3077:3111   */\n      mstore\n        /* \"#utility.yul\":3008:3117   */\n      pop\n      pop\n      jump\t// out\n        /* \"#utility.yul\":3123:3333   */\n    tag_27:\n        /* \"#utility.yul\":3210:3214   */\n      0x00\n        /* \"#utility.yul\":3248:3250   */\n      0x20\n        /* \"#utility.yul\":3237:3246   */\n      dup3\n        /* \"#utility.yul\":3233:3251   */\n      add\n        /* \"#utility.yul\":3225:3251   */\n      swap1\n      pop\n        /* \"#utility.yul\":3261:3326   */\n      tag_213\n        /* \"#utility.yul\":3323:3324   */\n      0x00\n        /* \"#utility.yul\":3312:3321   */\n      dup4\n        /* \"#utility.yul\":3308:3325   */\n      add\n        /* \"#utility.yul\":3299:3305   */\n      dup5\n        /* \"#utility.yul\":3261:3326   */\n      tag_151\n      jump\t// in\n    tag_213:\n        /* \"#utility.yul\":3123:3333   */\n      swap3\n      swap2\n      pop\n      pop\n      jump\t// out\n        /* \"#utility.yul\":3339:3457   */\n    tag_152:\n        /* \"#utility.yul\":3426:3450   */\n      tag_215\n        /* \"#utility.yul\":3444:3449   */\n      dup2\n        /* \"#utility.yul\":3426:3450   */\n      tag_147\n      jump\t// in\n    tag_215:\n        /* \"#utility.yul\":3421:3424   */\n      dup3\n        /* \"#utility.yul\":3414:3451   */\n      mstore\n        /* \"#utility.yul\":3339:3457   */\n      pop\n      pop\n      jump\t// out\n        /* \"#utility.yul\":3463:3685   */\n    tag_31:\n        /* \"#utility.yul\":3556:3560   */\n      0x00\n        /* \"#utility.yul\":3594:3596   */\n      0x20\n        /* \"#utility.yul\":3583:3592   */\n      dup3\n        /* \"#utility.yul\":3579:3597   */\n      add\n        /* \"#utility.yul\":3571:3597   */\n      swap1\n      pop\n        /* \"#utility.yul\":3607:3678   */\n      tag_217\n        /* \"#utility.yul\":3675:3676   */\n      0x00\n        /* \"#utility.yul\":3664:3673   */\n      dup4\n        /* \"#utility.yul\":3660:3677   */\n      add\n        /* \"#utility.yul\":3651:3657   */\n      dup5\n        /* \"#utility.yul\":3607:3678   */\n      tag_152\n      jump\t// in\n    tag_217:\n        /* \"#utility.yul\":3463:3685   */\n      swap3\n      swap2\n      pop\n      pop\n      jump\t// out\n        /* \"#utility.yul\":3691:4310   */\n    tag_34:\n        /* \"#utility.yul\":3768:3774   */\n      0x00\n        /* \"#utility.yul\":3776:3782   */\n      dup1\n        /* \"#utility.yul\":3784:3790   */\n      0x00\n        /* \"#utility.yul\":3833:3835   */\n      0x60\n        /* \"#utility.yul\":3821:3830   */\n      dup5\n        /* \"#utility.yul\":3812:3819   */\n      dup7\n        /* \"#utility.yul\":3808:3831   */\n      sub\n        /* \"#utility.yul\":3804:3836   */\n      slt\n        /* \"#utility.yul\":3801:3920   */\n      iszero\n      tag_219\n      jumpi\n        /* \"#utility.yul\":3839:3918   */\n      tag_220\n      tag_141\n      jump\t// in\n    tag_220:\n        /* \"#utility.yul\":3801:3920   */\n    tag_219:\n        /* \"#utility.yul\":3959:3960   */\n      0x00\n        /* \"#utility.yul\":3984:4037   */\n      tag_221\n        /* \"#utility.yul\":4029:4036   */\n      dup7\n        /* \"#utility.yul\":4020:4026   */\n      dup3\n        /* \"#utility.yul\":4009:4018   */\n      dup8\n        /* \"#utility.yul\":4005:4027   */\n      add\n        /* \"#utility.yul\":3984:4037   */\n      tag_146\n      jump\t// in\n    tag_221:\n        /* \"#utility.yul\":3974:4037   */\n      swap4\n      pop\n        /* \"#utility.yul\":3930:4047   */\n      pop\n        /* \"#utility.yul\":4086:4088   */\n      0x20\n        /* \"#utility.yul\":4112:4165   */\n      tag_222\n        /* \"#utility.yul\":4157:4164   */\n      dup7\n        /* \"#utility.yul\":4148:4154   */\n      dup3\n        /* \"#utility.yul\":4137:4146   */\n      dup8\n        /* \"#utility.yul\":4133:4155   */\n      add\n        /* \"#utility.yul\":4112:4165   */\n      tag_146\n      jump\t// in\n    tag_222:\n        /* \"#utility.yul\":4102:4165   */\n      swap3\n      pop\n        /* \"#utility.yul\":4057:4175   */\n      pop\n        /* \"#utility.yul\":4214:4216   */\n      0x40\n        /* \"#utility.yul\":4240:4293   */\n      tag_223\n        /* \"#utility.yul\":4285:4292   */\n      dup7\n        /* \"#utility.yul\":4276:4282   */\n      dup3\n        /* \"#utility.yul\":4265:4274   */\n      dup8\n        /* \"#utility.yul\":4261:4283   */\n      add\n        /* \"#utility.yul\":4240:4293   */\n      tag_149\n      jump\t// in\n    tag_223:\n        /* \"#utility.yul\":4230:4293   */\n      swap2\n      pop\n        /* \"#utility.yul\":4185:4303   */\n      pop\n        /* \"#utility.yul\":3691:4310   */\n      swap3\n      pop\n      swap3\n      pop\n      swap3\n      jump\t// out\n        /* \"#utility.yul\":4316:4645   */\n    tag_39:\n        /* \"#utility.yul\":4375:4381   */\n      0x00\n        /* \"#utility.yul\":4424:4426   */\n      0x20\n        /* \"#utility.yul\":4412:4421   */\n      dup3\n        /* \"#utility.yul\":4403:4410   */\n      dup5\n        /* \"#utility.yul\":4399:4422   */\n      sub\n        /* \"#utility.yul\":4395:4427   */\n      slt\n        /* \"#utility.yul\":4392:4511   */\n      iszero\n      tag_225\n      jumpi\n        /* \"#utility.yul\":4430:4509   */\n      tag_226\n      tag_141\n      jump\t// in\n    tag_226:\n        /* \"#utility.yul\":4392:4511   */\n    tag_225:\n        /* \"#utility.yul\":4550:4551   */\n      0x00\n        /* \"#utility.yul\":4575:4628   */\n      tag_227\n        /* \"#utility.yul\":4620:4627   */\n      dup5\n        /* \"#utility.yul\":4611:4617   */\n      dup3\n        /* \"#utility.yul\":4600:4609   */\n      dup6\n        /* \"#utility.yul\":4596:4618   */\n      add\n        /* \"#utility.yul\":4575:4628   */\n      tag_149\n      jump\t// in\n    tag_227:\n        /* \"#utility.yul\":4565:4628   */\n      swap2\n      pop\n        /* \"#utility.yul\":4521:4638   */\n      pop\n        /* \"#utility.yul\":4316:4645   */\n      swap3\n      swap2\n      pop\n      pop\n      jump\t// out\n        /* \"#utility.yul\":4651:4769   */\n    tag_153:\n        /* \"#utility.yul\":4738:4762   */\n      tag_229\n        /* \"#utility.yul\":4756:4761   */\n      dup2\n        /* \"#utility.yul\":4738:4762   */\n      tag_144\n      jump\t// in\n    tag_229:\n        /* \"#utility.yul\":4733:4736   */\n      dup3\n        /* \"#utility.yul\":4726:4763   */\n      mstore\n        /* \"#utility.yul\":4651:4769   */\n      pop\n      pop\n      jump\t// out\n        /* \"#utility.yul\":4775:4997   */\n    tag_49:\n        /* \"#utility.yul\":4868:4872   */\n      0x00\n        /* \"#utility.yul\":4906:4908   */\n      0x20\n        /* \"#utility.yul\":4895:4904   */\n      dup3\n        /* \"#utility.yul\":4891:4909   */\n      add\n        /* \"#utility.yul\":4883:4909   */\n      swap1\n      pop\n        /* \"#utility.yul\":4919:4990   */\n      tag_231\n        /* \"#utility.yul\":4987:4988   */\n      0x00\n        /* \"#utility.yul\":4976:4985   */\n      dup4\n        /* \"#utility.yul\":4972:4989   */\n      add\n        /* \"#utility.yul\":4963:4969   */\n      dup5\n        /* \"#utility.yul\":4919:4990   */\n      tag_153\n      jump\t// in\n    tag_231:\n        /* \"#utility.yul\":4775:4997   */\n      swap3\n      swap2\n      pop\n      pop\n      jump\t// out\n        /* \"#utility.yul\":5003:5089   */\n    tag_154:\n        /* \"#utility.yul\":5038:5045   */\n      0x00\n        /* \"#utility.yul\":5078:5082   */\n      0xff\n        /* \"#utility.yul\":5071:5076   */\n      dup3\n        /* \"#utility.yul\":5067:5083   */\n      and\n        /* \"#utility.yul\":5056:5083   */\n      swap1\n      pop\n        /* \"#utility.yul\":5003:5089   */\n      swap2\n      swap1\n      pop\n      jump\t// out\n        /* \"#utility.yul\":5095:5207   */\n    tag_155:\n        /* \"#utility.yul\":5178:5200   */\n      tag_234\n        /* \"#utility.yul\":5194:5199   */\n      dup2\n        /* \"#utility.yul\":5178:5200   */\n      tag_154\n      jump\t// in\n    tag_234:\n        /* \"#utility.yul\":5173:5176   */\n      dup3\n        /* \"#utility.yul\":5166:5201   */\n      mstore\n        /* \"#utility.yul\":5095:5207   */\n      pop\n      pop\n      jump\t// out\n        /* \"#utility.yul\":5213:5427   */\n    tag_60:\n        /* \"#utility.yul\":5302:5306   */\n      0x00\n        /* \"#utility.yul\":5340:5342   */\n      0x20\n        /* \"#utility.yul\":5329:5338   */\n      dup3\n        /* \"#utility.yul\":5325:5343   */\n      add\n        /* \"#utility.yul\":5317:5343   */\n      swap1\n      pop\n        /* \"#utility.yul\":5353:5420   */\n      tag_236\n        /* \"#utility.yul\":5417:5418   */\n      0x00\n        /* \"#utility.yul\":5406:5415   */\n      dup4\n        /* \"#utility.yul\":5402:5419   */\n      add\n        /* \"#utility.yul\":5393:5399   */\n      dup5\n        /* \"#utility.yul\":5353:5420   */\n      tag_155\n      jump\t// in\n    tag_236:\n        /* \"#utility.yul\":5213:5427   */\n      swap3\n      swap2\n      pop\n      pop\n      jump\t// out\n        /* \"#utility.yul\":5433:5604   */\n    tag_156:\n        /* \"#utility.yul\":5573:5596   */\n      0x596f7520617265206e6f7420746865206f776e65720000000000000000000000\n        /* \"#utility.yul\":5569:5570   */\n      0x00\n        /* \"#utility.yul\":5561:5567   */\n      dup3\n        /* \"#utility.yul\":5557:5571   */\n      add\n        /* \"#utility.yul\":5550:5597   */\n      mstore\n        /* \"#utility.yul\":5433:5604   */\n      pop\n      jump\t// out\n        /* \"#utility.yul\":5610:5976   */\n    tag_157:\n        /* \"#utility.yul\":5752:5755   */\n      0x00\n        /* \"#utility.yul\":5773:5840   */\n      tag_239\n        /* \"#utility.yul\":5837:5839   */\n      0x15\n        /* \"#utility.yul\":5832:5835   */\n      dup4\n        /* \"#utility.yul\":5773:5840   */\n      tag_136\n      jump\t// in\n    tag_239:\n        /* \"#utility.yul\":5766:5840   */\n      swap2\n      pop\n        /* \"#utility.yul\":5849:5942   */\n      tag_240\n        /* \"#utility.yul\":5938:5941   */\n      dup3\n        /* \"#utility.yul\":5849:5942   */\n      tag_156\n      jump\t// in\n    tag_240:\n        /* \"#utility.yul\":5967:5969   */\n      0x20\n        /* \"#utility.yul\":5962:5965   */\n      dup3\n        /* \"#utility.yul\":5958:5970   */\n      add\n        /* \"#utility.yul\":5951:5970   */\n      swap1\n      pop\n        /* \"#utility.yul\":5610:5976   */\n      swap2\n      swap1\n      pop\n      jump\t// out\n        /* \"#utility.yul\":5982:6401   */\n    tag_64:\n        /* \"#utility.yul\":6148:6152   */\n      0x00\n        /* \"#utility.yul\":6186:6188   */\n      0x20\n        /* \"#utility.yul\":6175:6184   */\n      dup3\n        /* \"#utility.yul\":6171:6189   */\n      add\n        /* \"#utility.yul\":6163:6189   */\n      swap1\n      pop\n        /* \"#utility.yul\":6235:6244   */\n      dup2\n        /* \"#utility.yul\":6229:6233   */\n      dup2\n        /* \"#utility.yul\":6225:6245   */\n      sub\n        /* \"#utility.yul\":6221:6222   */\n      0x00\n        /* \"#utility.yul\":6210:6219   */\n      dup4\n        /* \"#utility.yul\":6206:6223   */\n      add\n        /* \"#utility.yul\":6199:6246   */\n      mstore\n        /* \"#utility.yul\":6263:6394   */\n      tag_242\n        /* \"#utility.yul\":6389:6393   */\n      dup2\n        /* \"#utility.yul\":6263:6394   */\n      tag_157\n      jump\t// in\n    tag_242:\n        /* \"#utility.yul\":6255:6394   */\n      swap1\n      pop\n        /* \"#utility.yul\":5982:6401   */\n      swap2\n      swap1\n      pop\n      jump\t// out\n        /* \"#utility.yul\":6407:6587   */\n    tag_158:\n        /* \"#utility.yul\":6455:6532   */\n      0x4e487b7100000000000000000000000000000000000000000000000000000000\n        /* \"#utility.yul\":6452:6453   */\n      0x00\n        /* \"#utility.yul\":6445:6533   */\n      mstore\n        /* \"#utility.yul\":6552:6556   */\n      0x22\n        /* \"#utility.yul\":6549:6550   */\n      0x04\n        /* \"#utility.yul\":6542:6557   */\n      mstore\n        /* \"#utility.yul\":6576:6580   */\n      0x24\n        /* \"#utility.yul\":6573:6574   */\n      0x00\n        /* \"#utility.yul\":6566:6581   */\n      revert\n        /* \"#utility.yul\":6593:6913   */\n    tag_67:\n        /* \"#utility.yul\":6637:6643   */\n      0x00\n        /* \"#utility.yul\":6674:6675   */\n      0x02\n        /* \"#utility.yul\":6668:6672   */\n      dup3\n        /* \"#utility.yul\":6664:6676   */\n      div\n        /* \"#utility.yul\":6654:6676   */\n      swap1\n      pop\n        /* \"#utility.yul\":6721:6722   */\n      0x01\n        /* \"#utility.yul\":6715:6719   */\n      dup3\n        /* \"#utility.yul\":6711:6723   */\n      and\n        /* \"#utility.yul\":6742:6760   */\n      dup1\n        /* \"#utility.yul\":6732:6813   */\n      tag_245\n      jumpi\n        /* \"#utility.yul\":6798:6802   */\n      0x7f\n        /* \"#utility.yul\":6790:6796   */\n      dup3\n        /* \"#utility.yul\":6786:6803   */\n      and\n        /* \"#utility.yul\":6776:6803   */\n      swap2\n      pop\n        /* \"#utility.yul\":6732:6813   */\n    tag_245:\n        /* \"#utility.yul\":6860:6862   */\n      0x20\n        /* \"#utility.yul\":6852:6858   */\n      dup3\n        /* \"#utility.yul\":6849:6863   */\n      lt\n        /* \"#utility.yul\":6829:6847   */\n      dup2\n        /* \"#utility.yul\":6826:6864   */\n      sub\n        /* \"#utility.yul\":6823:6907   */\n      tag_246\n      jumpi\n        /* \"#utility.yul\":6879:6897   */\n      tag_247\n      tag_158\n      jump\t// in\n    tag_247:\n        /* \"#utility.yul\":6823:6907   */\n    tag_246:\n        /* \"#utility.yul\":6644:6913   */\n      pop\n        /* \"#utility.yul\":6593:6913   */\n      swap2\n      swap1\n      pop\n      jump\t// out\n        /* \"#utility.yul\":6919:7088   */\n    tag_159:\n        /* \"#utility.yul\":7059:7080   */\n      0x5472616e73666572206172652070617573656400000000000000000000000000\n        /* \"#utility.yul\":7055:7056   */\n      0x00\n        /* \"#utility.yul\":7047:7053   */\n      dup3\n        /* \"#utility.yul\":7043:7057   */\n      add\n        /* \"#utility.yul\":7036:7081   */\n      mstore\n        /* \"#utility.yul\":6919:7088   */\n      pop\n      jump\t// out\n        /* \"#utility.yul\":7094:7460   */\n    tag_160:\n        /* \"#utility.yul\":7236:7239   */\n      0x00\n        /* \"#utility.yul\":7257:7324   */\n      tag_250\n        /* \"#utility.yul\":7321:7323   */\n      0x13\n        /* \"#utility.yul\":7316:7319   */\n      dup4\n        /* \"#utility.yul\":7257:7324   */\n      tag_136\n      jump\t// in\n    tag_250:\n        /* \"#utility.yul\":7250:7324   */\n      swap2\n      pop\n        /* \"#utility.yul\":7333:7426   */\n      tag_251\n        /* \"#utility.yul\":7422:7425   */\n      dup3\n        /* \"#utility.yul\":7333:7426   */\n      tag_159\n      jump\t// in\n    tag_251:\n        /* \"#utility.yul\":7451:7453   */\n      0x20\n        /* \"#utility.yul\":7446:7449   */\n      dup3\n        /* \"#utility.yul\":7442:7454   */\n      add\n        /* \"#utility.yul\":7435:7454   */\n      swap1\n      pop\n        /* \"#utility.yul\":7094:7460   */\n      swap2\n      swap1\n      pop\n      jump\t// out\n        /* \"#utility.yul\":7466:7885   */\n    tag_76:\n        /* \"#utility.yul\":7632:7636   */\n      0x00\n        /* \"#utility.yul\":7670:7672   */\n      0x20\n        /* \"#utility.yul\":7659:7668   */\n      dup3\n        /* \"#utility.yul\":7655:7673   */\n      add\n        /* \"#utility.yul\":7647:7673   */\n      swap1\n      pop\n        /* \"#utility.yul\":7719:7728   */\n      dup2\n        /* \"#utility.yul\":7713:7717   */\n      dup2\n        /* \"#utility.yul\":7709:7729   */\n      sub\n        /* \"#utility.yul\":7705:7706   */\n      0x00\n        /* \"#utility.yul\":7694:7703   */\n      dup4\n        /* \"#utility.yul\":7690:7707   */\n      add\n        /* \"#utility.yul\":7683:7730   */\n      mstore\n        /* \"#utility.yul\":7747:7878   */\n      tag_253\n        /* \"#utility.yul\":7873:7877   */\n      dup2\n        /* \"#utility.yul\":7747:7878   */\n      tag_160\n      jump\t// in\n    tag_253:\n        /* \"#utility.yul\":7739:7878   */\n      swap1\n      pop\n        /* \"#utility.yul\":7466:7885   */\n      swap2\n      swap1\n      pop\n      jump\t// out\n        /* \"#utility.yul\":7891:8056   */\n    tag_161:\n        /* \"#utility.yul\":8031:8048   */\n      0x496e76616c696420416464726573730000000000000000000000000000000000\n        /* \"#utility.yul\":8027:8028   */\n      0x00\n        /* \"#utility.yul\":8019:8025   */\n      dup3\n        /* \"#utility.yul\":8015:8029   */\n      add\n        /* \"#utility.yul\":8008:8049   */\n      mstore\n        /* \"#utility.yul\":7891:8056   */\n      pop\n      jump\t// out\n        /* \"#utility.yul\":8062:8428   */\n    tag_162:\n        /* \"#utility.yul\":8204:8207   */\n      0x00\n        /* \"#utility.yul\":8225:8292   */\n      tag_256\n        /* \"#utility.yul\":8289:8291   */\n      0x0f\n        /* \"#utility.yul\":8284:8287   */\n      dup4\n        /* \"#utility.yul\":8225:8292   */\n      tag_136\n      jump\t// in\n    tag_256:\n        /* \"#utility.yul\":8218:8292   */\n      swap2\n      pop\n        /* \"#utility.yul\":8301:8394   */\n      tag_257\n        /* \"#utility.yul\":8390:8393   */\n      dup3\n        /* \"#utility.yul\":8301:8394   */\n      tag_161\n      jump\t// in\n    tag_257:\n        /* \"#utility.yul\":8419:8421   */\n      0x20\n        /* \"#utility.yul\":8414:8417   */\n      dup3\n        /* \"#utility.yul\":8410:8422   */\n      add\n        /* \"#utility.yul\":8403:8422   */\n      swap1\n      pop\n        /* \"#utility.yul\":8062:8428   */\n      swap2\n      swap1\n      pop\n      jump\t// out\n        /* \"#utility.yul\":8434:8853   */\n    tag_80:\n        /* \"#utility.yul\":8600:8604   */\n      0x00\n        /* \"#utility.yul\":8638:8640   */\n      0x20\n        /* \"#utility.yul\":8627:8636   */\n      dup3\n        /* \"#utility.yul\":8623:8641   */\n      add\n        /* \"#utility.yul\":8615:8641   */\n      swap1\n      pop\n        /* \"#utility.yul\":8687:8696   */\n      dup2\n        /* \"#utility.yul\":8681:8685   */\n      dup2\n        /* \"#utility.yul\":8677:8697   */\n      sub\n        /* \"#utility.yul\":8673:8674   */\n      0x00\n        /* \"#utility.yul\":8662:8671   */\n      dup4\n        /* \"#utility.yul\":8658:8675   */\n      add\n        /* \"#utility.yul\":8651:8698   */\n      mstore\n        /* \"#utility.yul\":8715:8846   */\n      tag_259\n        /* \"#utility.yul\":8841:8845   */\n      dup2\n        /* \"#utility.yul\":8715:8846   */\n      tag_162\n      jump\t// in\n    tag_259:\n        /* \"#utility.yul\":8707:8846   */\n      swap1\n      pop\n        /* \"#utility.yul\":8434:8853   */\n      swap2\n      swap1\n      pop\n      jump\t// out\n        /* \"#utility.yul\":8859:9029   */\n    tag_163:\n        /* \"#utility.yul\":8999:9021   */\n      0x496e73756666696369656e742042616c616e6365000000000000000000000000\n        /* \"#utility.yul\":8995:8996   */\n      0x00\n        /* \"#utility.yul\":8987:8993   */\n      dup3\n        /* \"#utility.yul\":8983:8997   */\n      add\n        /* \"#utility.yul\":8976:9022   */\n      mstore\n        /* \"#utility.yul\":8859:9029   */\n      pop\n      jump\t// out\n        /* \"#utility.yul\":9035:9401   */\n    tag_164:\n        /* \"#utility.yul\":9177:9180   */\n      0x00\n        /* \"#utility.yul\":9198:9265   */\n      tag_262\n        /* \"#utility.yul\":9262:9264   */\n      0x14\n        /* \"#utility.yul\":9257:9260   */\n      dup4\n        /* \"#utility.yul\":9198:9265   */\n      tag_136\n      jump\t// in\n    tag_262:\n        /* \"#utility.yul\":9191:9265   */\n      swap2\n      pop\n        /* \"#utility.yul\":9274:9367   */\n      tag_263\n        /* \"#utility.yul\":9363:9366   */\n      dup3\n        /* \"#utility.yul\":9274:9367   */\n      tag_163\n      jump\t// in\n    tag_263:\n        /* \"#utility.yul\":9392:9394   */\n      0x20\n        /* \"#utility.yul\":9387:9390   */\n      dup3\n        /* \"#utility.yul\":9383:9395   */\n      add\n        /* \"#utility.yul\":9376:9395   */\n      swap1\n      pop\n        /* \"#utility.yul\":9035:9401   */\n      swap2\n      swap1\n      pop\n      jump\t// out\n        /* \"#utility.yul\":9407:9826   */\n    tag_83:\n        /* \"#utility.yul\":9573:9577   */\n      0x00\n        /* \"#utility.yul\":9611:9613   */\n      0x20\n        /* \"#utility.yul\":9600:9609   */\n      dup3\n        /* \"#utility.yul\":9596:9614   */\n      add\n        /* \"#utility.yul\":9588:9614   */\n      swap1\n      pop\n        /* \"#utility.yul\":9660:9669   */\n      dup2\n        /* \"#utility.yul\":9654:9658   */\n      dup2\n        /* \"#utility.yul\":9650:9670   */\n      sub\n        /* \"#utility.yul\":9646:9647   */\n      0x00\n        /* \"#utility.yul\":9635:9644   */\n      dup4\n        /* \"#utility.yul\":9631:9648   */\n      add\n        /* \"#utility.yul\":9624:9671   */\n      mstore\n        /* \"#utility.yul\":9688:9819   */\n      tag_265\n        /* \"#utility.yul\":9814:9818   */\n      dup2\n        /* \"#utility.yul\":9688:9819   */\n      tag_164\n      jump\t// in\n    tag_265:\n        /* \"#utility.yul\":9680:9819   */\n      swap1\n      pop\n        /* \"#utility.yul\":9407:9826   */\n      swap2\n      swap1\n      pop\n      jump\t// out\n        /* \"#utility.yul\":9832:10000   */\n    tag_165:\n        /* \"#utility.yul\":9972:9992   */\n      0x416c6c6f77616e63652045786365656465640000000000000000000000000000\n        /* \"#utility.yul\":9968:9969   */\n      0x00\n        /* \"#utility.yul\":9960:9966   */\n      dup3\n        /* \"#utility.yul\":9956:9970   */\n      add\n        /* \"#utility.yul\":9949:9993   */\n      mstore\n        /* \"#utility.yul\":9832:10000   */\n      pop\n      jump\t// out\n        /* \"#utility.yul\":10006:10372   */\n    tag_166:\n        /* \"#utility.yul\":10148:10151   */\n      0x00\n        /* \"#utility.yul\":10169:10236   */\n      tag_268\n        /* \"#utility.yul\":10233:10235   */\n      0x12\n        /* \"#utility.yul\":10228:10231   */\n      dup4\n        /* \"#utility.yul\":10169:10236   */\n      tag_136\n      jump\t// in\n    tag_268:\n        /* \"#utility.yul\":10162:10236   */\n      swap2\n      pop\n        /* \"#utility.yul\":10245:10338   */\n      tag_269\n        /* \"#utility.yul\":10334:10337   */\n      dup3\n        /* \"#utility.yul\":10245:10338   */\n      tag_165\n      jump\t// in\n    tag_269:\n        /* \"#utility.yul\":10363:10365   */\n      0x20\n        /* \"#utility.yul\":10358:10361   */\n      dup3\n        /* \"#utility.yul\":10354:10366   */\n      add\n        /* \"#utility.yul\":10347:10366   */\n      swap1\n      pop\n        /* \"#utility.yul\":10006:10372   */\n      swap2\n      swap1\n      pop\n      jump\t// out\n        /* \"#utility.yul\":10378:10797   */\n    tag_86:\n        /* \"#utility.yul\":10544:10548   */\n      0x00\n        /* \"#utility.yul\":10582:10584   */\n      0x20\n        /* \"#utility.yul\":10571:10580   */\n      dup3\n        /* \"#utility.yul\":10567:10585   */\n      add\n        /* \"#utility.yul\":10559:10585   */\n      swap1\n      pop\n        /* \"#utility.yul\":10631:10640   */\n      dup2\n        /* \"#utility.yul\":10625:10629   */\n      dup2\n        /* \"#utility.yul\":10621:10641   */\n      sub\n        /* \"#utility.yul\":10617:10618   */\n      0x00\n        /* \"#utility.yul\":10606:10615   */\n      dup4\n        /* \"#utility.yul\":10602:10619   */\n      add\n        /* \"#utility.yul\":10595:10642   */\n      mstore\n        /* \"#utility.yul\":10659:10790   */\n      tag_271\n        /* \"#utility.yul\":10785:10789   */\n      dup2\n        /* \"#utility.yul\":10659:10790   */\n      tag_166\n      jump\t// in\n    tag_271:\n        /* \"#utility.yul\":10651:10790   */\n      swap1\n      pop\n        /* \"#utility.yul\":10378:10797   */\n      swap2\n      swap1\n      pop\n      jump\t// out\n        /* \"#utility.yul\":10803:10983   */\n    tag_167:\n        /* \"#utility.yul\":10851:10928   */\n      0x4e487b7100000000000000000000000000000000000000000000000000000000\n        /* \"#utility.yul\":10848:10849   */\n      0x00\n        /* \"#utility.yul\":10841:10929   */\n      mstore\n        /* \"#utility.yul\":10948:10952   */\n      0x12\n        /* \"#utility.yul\":10945:10946   */\n      0x04\n        /* \"#utility.yul\":10938:10953   */\n      mstore\n        /* \"#utility.yul\":10972:10976   */\n      0x24\n        /* \"#utility.yul\":10969:10970   */\n      0x00\n        /* \"#utility.yul\":10962:10977   */\n      revert\n        /* \"#utility.yul\":10989:11169   */\n    tag_168:\n        /* \"#utility.yul\":11037:11114   */\n      0x4e487b7100000000000000000000000000000000000000000000000000000000\n        /* \"#utility.yul\":11034:11035   */\n      0x00\n        /* \"#utility.yul\":11027:11115   */\n      mstore\n        /* \"#utility.yul\":11134:11138   */\n      0x11\n        /* \"#utility.yul\":11131:11132   */\n      0x04\n        /* \"#utility.yul\":11124:11139   */\n      mstore\n        /* \"#utility.yul\":11158:11162   */\n      0x24\n        /* \"#utility.yul\":11155:11156   */\n      0x00\n        /* \"#utility.yul\":11148:11163   */\n      revert\n        /* \"#utility.yul\":11175:11360   */\n    tag_88:\n        /* \"#utility.yul\":11215:11216   */\n      0x00\n        /* \"#utility.yul\":11232:11252   */\n      tag_275\n        /* \"#utility.yul\":11250:11251   */\n      dup3\n        /* \"#utility.yul\":11232:11252   */\n      tag_147\n      jump\t// in\n    tag_275:\n        /* \"#utility.yul\":11227:11252   */\n      swap2\n      pop\n        /* \"#utility.yul\":11266:11286   */\n      tag_276\n        /* \"#utility.yul\":11284:11285   */\n      dup4\n        /* \"#utility.yul\":11266:11286   */\n      tag_147\n      jump\t// in\n    tag_276:\n        /* \"#utility.yul\":11261:11286   */\n      swap3\n      pop\n        /* \"#utility.yul\":11305:11306   */\n      dup3\n        /* \"#utility.yul\":11295:11330   */\n      tag_277\n      jumpi\n        /* \"#utility.yul\":11310:11328   */\n      tag_278\n      tag_167\n      jump\t// in\n    tag_278:\n        /* \"#utility.yul\":11295:11330   */\n    tag_277:\n        /* \"#utility.yul\":11352:11353   */\n      dup3\n        /* \"#utility.yul\":11349:11350   */\n      dup3\n        /* \"#utility.yul\":11345:11354   */\n      div\n        /* \"#utility.yul\":11340:11354   */\n      swap1\n      pop\n        /* \"#utility.yul\":11175:11360   */\n      swap3\n      swap2\n      pop\n      pop\n      jump\t// out\n        /* \"#utility.yul\":11366:11547   */\n    tag_169:\n        /* \"#utility.yul\":11506:11539   */\n      0x416e74692d5768616c653a204d617820322520706572205472616e7366657200\n        /* \"#utility.yul\":11502:11503   */\n      0x00\n        /* \"#utility.yul\":11494:11500   */\n      dup3\n        /* \"#utility.yul\":11490:11504   */\n      add\n        /* \"#utility.yul\":11483:11540   */\n      mstore\n        /* \"#utility.yul\":11366:11547   */\n      pop\n      jump\t// out\n        /* \"#utility.yul\":11553:11919   */\n    tag_170:\n        /* \"#utility.yul\":11695:11698   */\n      0x00\n        /* \"#utility.yul\":11716:11783   */\n      tag_281\n        /* \"#utility.yul\":11780:11782   */\n      0x1f\n        /* \"#utility.yul\":11775:11778   */\n      dup4\n        /* \"#utility.yul\":11716:11783   */\n      tag_136\n      jump\t// in\n    tag_281:\n        /* \"#utility.yul\":11709:11783   */\n      swap2\n      pop\n        /* \"#utility.yul\":11792:11885   */\n      tag_282\n        /* \"#utility.yul\":11881:11884   */\n      dup3\n        /* \"#utility.yul\":11792:11885   */\n      tag_169\n      jump\t// in\n    tag_282:\n        /* \"#utility.yul\":11910:11912   */\n      0x20\n        /* \"#utility.yul\":11905:11908   */\n      dup3\n        /* \"#utility.yul\":11901:11913   */\n      add\n        /* \"#utility.yul\":11894:11913   */\n      swap1\n      pop\n        /* \"#utility.yul\":11553:11919   */\n      swap2\n      swap1\n      pop\n      jump\t// out\n        /* \"#utility.yul\":11925:12344   */\n    tag_91:\n        /* \"#utility.yul\":12091:12095   */\n      0x00\n        /* \"#utility.yul\":12129:12131   */\n      0x20\n        /* \"#utility.yul\":12118:12127   */\n      dup3\n        /* \"#utility.yul\":12114:12132   */\n      add\n        /* \"#utility.yul\":12106:12132   */\n      swap1\n      pop\n        /* \"#utility.yul\":12178:12187   */\n      dup2\n        /* \"#utility.yul\":12172:12176   */\n      dup2\n        /* \"#utility.yul\":12168:12188   */\n      sub\n        /* \"#utility.yul\":12164:12165   */\n      0x00\n        /* \"#utility.yul\":12153:12162   */\n      dup4\n        /* \"#utility.yul\":12149:12166   */\n      add\n        /* \"#utility.yul\":12142:12189   */\n      mstore\n        /* \"#utility.yul\":12206:12337   */\n      tag_284\n        /* \"#utility.yul\":12332:12336   */\n      dup2\n        /* \"#utility.yul\":12206:12337   */\n      tag_170\n      jump\t// in\n    tag_284:\n        /* \"#utility.yul\":12198:12337   */\n      swap1\n      pop\n        /* \"#utility.yul\":11925:12344   */\n      swap2\n      swap1\n      pop\n      jump\t// out\n        /* \"#utility.yul\":12350:12760   */\n    tag_93:\n        /* \"#utility.yul\":12390:12397   */\n      0x00\n        /* \"#utility.yul\":12413:12433   */\n      tag_286\n        /* \"#utility.yul\":12431:12432   */\n      dup3\n        /* \"#utility.yul\":12413:12433   */\n      tag_147\n      jump\t// in\n    tag_286:\n        /* \"#utility.yul\":12408:12433   */\n      swap2\n      pop\n        /* \"#utility.yul\":12447:12467   */\n      tag_287\n        /* \"#utility.yul\":12465:12466   */\n      dup4\n        /* \"#utility.yul\":12447:12467   */\n      tag_147\n      jump\t// in\n    tag_287:\n        /* \"#utility.yul\":12442:12467   */\n      swap3\n      pop\n        /* \"#utility.yul\":12502:12503   */\n      dup3\n        /* \"#utility.yul\":12499:12500   */\n      dup3\n        /* \"#utility.yul\":12495:12504   */\n      mul\n        /* \"#utility.yul\":12524:12554   */\n      tag_288\n        /* \"#utility.yul\":12542:12553   */\n      dup2\n        /* \"#utility.yul\":12524:12554   */\n      tag_147\n      jump\t// in\n    tag_288:\n        /* \"#utility.yul\":12513:12554   */\n      swap2\n      pop\n        /* \"#utility.yul\":12703:12704   */\n      dup3\n        /* \"#utility.yul\":12694:12701   */\n      dup3\n        /* \"#utility.yul\":12690:12705   */\n      div\n        /* \"#utility.yul\":12687:12688   */\n      dup5\n        /* \"#utility.yul\":12684:12706   */\n      eq\n        /* \"#utility.yul\":12664:12665   */\n      dup4\n        /* \"#utility.yul\":12657:12666   */\n      iszero\n        /* \"#utility.yul\":12637:12720   */\n      or\n        /* \"#utility.yul\":12614:12753   */\n      tag_289\n      jumpi\n        /* \"#utility.yul\":12733:12751   */\n      tag_290\n      tag_168\n      jump\t// in\n    tag_290:\n        /* \"#utility.yul\":12614:12753   */\n    tag_289:\n        /* \"#utility.yul\":12398:12760   */\n      pop\n        /* \"#utility.yul\":12350:12760   */\n      swap3\n      swap2\n      pop\n      pop\n      jump\t// out\n        /* \"#utility.yul\":12766:12960   */\n    tag_96:\n        /* \"#utility.yul\":12806:12810   */\n      0x00\n        /* \"#utility.yul\":12826:12846   */\n      tag_292\n        /* \"#utility.yul\":12844:12845   */\n      dup3\n        /* \"#utility.yul\":12826:12846   */\n      tag_147\n      jump\t// in\n    tag_292:\n        /* \"#utility.yul\":12821:12846   */\n      swap2\n      pop\n        /* \"#utility.yul\":12860:12880   */\n      tag_293\n        /* \"#utility.yul\":12878:12879   */\n      dup4\n        /* \"#utility.yul\":12860:12880   */\n      tag_147\n      jump\t// in\n    tag_293:\n        /* \"#utility.yul\":12855:12880   */\n      swap3\n      pop\n        /* \"#utility.yul\":12904:12905   */\n      dup3\n        /* \"#utility.yul\":12901:12902   */\n      dup3\n        /* \"#utility.yul\":12897:12906   */\n      sub\n        /* \"#utility.yul\":12889:12906   */\n      swap1\n      pop\n        /* \"#utility.yul\":12928:12929   */\n      dup2\n        /* \"#utility.yul\":12922:12926   */\n      dup2\n        /* \"#utility.yul\":12919:12930   */\n      gt\n        /* \"#utility.yul\":12916:12953   */\n      iszero\n      tag_294\n      jumpi\n        /* \"#utility.yul\":12933:12951   */\n      tag_295\n      tag_168\n      jump\t// in\n    tag_295:\n        /* \"#utility.yul\":12916:12953   */\n    tag_294:\n        /* \"#utility.yul\":12766:12960   */\n      swap3\n      swap2\n      pop\n      pop\n      jump\t// out\n        /* \"#utility.yul\":12966:13157   */\n    tag_99:\n        /* \"#utility.yul\":13006:13009   */\n      0x00\n        /* \"#utility.yul\":13025:13045   */\n      tag_297\n        /* \"#utility.yul\":13043:13044   */\n      dup3\n        /* \"#utility.yul\":13025:13045   */\n      tag_147\n      jump\t// in\n    tag_297:\n        /* \"#utility.yul\":13020:13045   */\n      swap2\n      pop\n        /* \"#utility.yul\":13059:13079   */\n      tag_298\n        /* \"#utility.yul\":13077:13078   */\n      dup4\n        /* \"#utility.yul\":13059:13079   */\n      tag_147\n      jump\t// in\n    tag_298:\n        /* \"#utility.yul\":13054:13079   */\n      swap3\n      pop\n        /* \"#utility.yul\":13102:13103   */\n      dup3\n        /* \"#utility.yul\":13099:13100   */\n      dup3\n        /* \"#utility.yul\":13095:13104   */\n      add\n        /* \"#utility.yul\":13088:13104   */\n      swap1\n      pop\n        /* \"#utility.yul\":13123:13126   */\n      dup1\n        /* \"#utility.yul\":13120:13121   */\n      dup3\n        /* \"#utility.yul\":13117:13127   */\n      gt\n        /* \"#utility.yul\":13114:13150   */\n      iszero\n      tag_299\n      jumpi\n        /* \"#utility.yul\":13130:13148   */\n      tag_300\n      tag_168\n      jump\t// in\n    tag_300:\n        /* \"#utility.yul\":13114:13150   */\n    tag_299:\n        /* \"#utility.yul\":12966:13157   */\n      swap3\n      swap2\n      pop\n      pop\n      jump\t// out\n        /* \"#utility.yul\":13163:13329   */\n    tag_171:\n        /* \"#utility.yul\":13303:13321   */\n      0x4e6f7420456e6f75676820546f6b656e00000000000000000000000000000000\n        /* \"#utility.yul\":13299:13300   */\n      0x00\n        /* \"#utility.yul\":13291:13297   */\n      dup3\n        /* \"#utility.yul\":13287:13301   */\n      add\n        /* \"#utility.yul\":13280:13322   */\n      mstore\n        /* \"#utility.yul\":13163:13329   */\n      pop\n      jump\t// out\n        /* \"#utility.yul\":13335:13701   */\n    tag_172:\n        /* \"#utility.yul\":13477:13480   */\n      0x00\n        /* \"#utility.yul\":13498:13565   */\n      tag_303\n        /* \"#utility.yul\":13562:13564   */\n      0x10\n        /* \"#utility.yul\":13557:13560   */\n      dup4\n        /* \"#utility.yul\":13498:13565   */\n      tag_136\n      jump\t// in\n    tag_303:\n        /* \"#utility.yul\":13491:13565   */\n      swap2\n      pop\n        /* \"#utility.yul\":13574:13667   */\n      tag_304\n        /* \"#utility.yul\":13663:13666   */\n      dup3\n        /* \"#utility.yul\":13574:13667   */\n      tag_171\n      jump\t// in\n    tag_304:\n        /* \"#utility.yul\":13692:13694   */\n      0x20\n        /* \"#utility.yul\":13687:13690   */\n      dup3\n        /* \"#utility.yul\":13683:13695   */\n      add\n        /* \"#utility.yul\":13676:13695   */\n      swap1\n      pop\n        /* \"#utility.yul\":13335:13701   */\n      swap2\n      swap1\n      pop\n      jump\t// out\n        /* \"#utility.yul\":13707:14126   */\n    tag_105:\n        /* \"#utility.yul\":13873:13877   */\n      0x00\n        /* \"#utility.yul\":13911:13913   */\n      0x20\n        /* \"#utility.yul\":13900:13909   */\n      dup3\n        /* \"#utility.yul\":13896:13914   */\n      add\n        /* \"#utility.yul\":13888:13914   */\n      swap1\n      pop\n        /* \"#utility.yul\":13960:13969   */\n      dup2\n        /* \"#utility.yul\":13954:13958   */\n      dup2\n        /* \"#utility.yul\":13950:13970   */\n      sub\n        /* \"#utility.yul\":13946:13947   */\n      0x00\n        /* \"#utility.yul\":13935:13944   */\n      dup4\n        /* \"#utility.yul\":13931:13948   */\n      add\n        /* \"#utility.yul\":13924:13971   */\n      mstore\n        /* \"#utility.yul\":13988:14119   */\n      tag_306\n        /* \"#utility.yul\":14114:14118   */\n      dup2\n        /* \"#utility.yul\":13988:14119   */\n      tag_172\n      jump\t// in\n    tag_306:\n        /* \"#utility.yul\":13980:14119   */\n      swap1\n      pop\n        /* \"#utility.yul\":13707:14126   */\n      swap2\n      swap1\n      pop\n      jump\t// out\n        /* \"#utility.yul\":14132:14313   */\n    tag_173:\n        /* \"#utility.yul\":14272:14305   */\n      0x416e7469207768616c653a204d617820322520706572207472616e7366657200\n        /* \"#utility.yul\":14268:14269   */\n      0x00\n        /* \"#utility.yul\":14260:14266   */\n      dup3\n        /* \"#utility.yul\":14256:14270   */\n      add\n        /* \"#utility.yul\":14249:14306   */\n      mstore\n        /* \"#utility.yul\":14132:14313   */\n      pop\n      jump\t// out\n        /* \"#utility.yul\":14319:14685   */\n    tag_174:\n        /* \"#utility.yul\":14461:14464   */\n      0x00\n        /* \"#utility.yul\":14482:14549   */\n      tag_309\n        /* \"#utility.yul\":14546:14548   */\n      0x1f\n        /* \"#utility.yul\":14541:14544   */\n      dup4\n        /* \"#utility.yul\":14482:14549   */\n      tag_136\n      jump\t// in\n    tag_309:\n        /* \"#utility.yul\":14475:14549   */\n      swap2\n      pop\n        /* \"#utility.yul\":14558:14651   */\n      tag_310\n        /* \"#utility.yul\":14647:14650   */\n      dup3\n        /* \"#utility.yul\":14558:14651   */\n      tag_173\n      jump\t// in\n    tag_310:\n        /* \"#utility.yul\":14676:14678   */\n      0x20\n        /* \"#utility.yul\":14671:14674   */\n      dup3\n        /* \"#utility.yul\":14667:14679   */\n      add\n        /* \"#utility.yul\":14660:14679   */\n      swap1\n      pop\n        /* \"#utility.yul\":14319:14685   */\n      swap2\n      swap1\n      pop\n      jump\t// out\n        /* \"#utility.yul\":14691:15110   */\n    tag_128:\n        /* \"#utility.yul\":14857:14861   */\n      0x00\n        /* \"#utility.yul\":14895:14897   */\n      0x20\n        /* \"#utility.yul\":14884:14893   */\n      dup3\n        /* \"#utility.yul\":14880:14898   */\n      add\n        /* \"#utility.yul\":14872:14898   */\n      swap1\n      pop\n        /* \"#utility.yul\":14944:14953   */\n      dup2\n        /* \"#utility.yul\":14938:14942   */\n      dup2\n        /* \"#utility.yul\":14934:14954   */\n      sub\n        /* \"#utility.yul\":14930:14931   */\n      0x00\n        /* \"#utility.yul\":14919:14928   */\n      dup4\n        /* \"#utility.yul\":14915:14932   */\n      add\n        /* \"#utility.yul\":14908:14955   */\n      mstore\n        /* \"#utility.yul\":14972:15103   */\n      tag_312\n        /* \"#utility.yul\":15098:15102   */\n      dup2\n        /* \"#utility.yul\":14972:15103   */\n      tag_174\n      jump\t// in\n    tag_312:\n        /* \"#utility.yul\":14964:15103   */\n      swap1\n      pop\n        /* \"#utility.yul\":14691:15110   */\n      swap2\n      swap1\n      pop\n      jump\t// out\n\n    auxdata: 0xa26469706673582212205c63720b341f22ade164c220a602ce6009af58518488ecfdc5c9dd4ab8e258d864736f6c634300081a0033\n}\n",
				"bytecode": {
					"linkReferences": {},
					"object": "608060405234801561000f575f80fd5b50604051611e4c380380611e4c8339818101604052810190610031919061034a565b3360045f6101000a81548173ffffffffffffffffffffffffffffffffffffffff021916908373ffffffffffffffffffffffffffffffffffffffff160217905550825f908161007f91906105df565b50816001908161008f91906105df565b508060025f6101000a81548160ff021916908360ff1602179055506100e23360025f9054906101000a900460ff16600a6100c9919061080a565b620f42406100d79190610854565b6100ea60201b60201c565b505050610940565b5f73ffffffffffffffffffffffffffffffffffffffff168273ffffffffffffffffffffffffffffffffffffffff1603610158576040517f08c379a000000000000000000000000000000000000000000000000000000000815260040161014f906108ef565b60405180910390fd5b8060055f8473ffffffffffffffffffffffffffffffffffffffff1673ffffffffffffffffffffffffffffffffffffffff1681526020019081526020015f205f8282546101a4919061090d565b925050819055508060035f8282546101bc919061090d565b925050819055505050565b5f604051905090565b5f80fd5b5f80fd5b5f80fd5b5f80fd5b5f601f19601f8301169050919050565b7f4e487b71000000000000000000000000000000000000000000000000000000005f52604160045260245ffd5b610226826101e0565b810181811067ffffffffffffffff82111715610245576102446101f0565b5b80604052505050565b5f6102576101c7565b9050610263828261021d565b919050565b5f67ffffffffffffffff821115610282576102816101f0565b5b61028b826101e0565b9050602081019050919050565b8281835e5f83830152505050565b5f6102b86102b384610268565b61024e565b9050828152602081018484840111156102d4576102d36101dc565b5b6102df848285610298565b509392505050565b5f82601f8301126102fb576102fa6101d8565b5b815161030b8482602086016102a6565b91505092915050565b5f60ff82169050919050565b61032981610314565b8114610333575f80fd5b50565b5f8151905061034481610320565b92915050565b5f805f60608486031215610361576103606101d0565b5b5f84015167ffffffffffffffff81111561037e5761037d6101d4565b5b61038a868287016102e7565b935050602084015167ffffffffffffffff8111156103ab576103aa6101d4565b5b6103b7868287016102e7565b92505060406103c886828701610336565b9150509250925092565b5f81519050919050565b7f4e487b71000000000000000000000000000000000000000000000000000000005f52602260045260245ffd5b5f600282049050600182168061042057607f821691505b602082108103610433576104326103dc565b5b50919050565b5f819050815f5260205f209050919050565b5f6020601f8301049050919050565b5f82821b905092915050565b5f600883026104957fffffffffffffffffffffffffffffffffffffffffffffffffffffffffffffffff8261045a565b61049f868361045a565b95508019841693508086168417925050509392505050565b5f819050919050565b5f819050919050565b5f6104e36104de6104d9846104b7565b6104c0565b6104b7565b9050919050565b5f819050919050565b6104fc836104c9565b610510610508826104ea565b848454610466565b825550505050565b5f90565b610524610518565b61052f8184846104f3565b505050565b5b81811015610552576105475f8261051c565b600181019050610535565b5050565b601f8211156105975761056881610439565b6105718461044b565b81016020851015610580578190505b61059461058c8561044b565b830182610534565b50505b505050565b5f82821c905092915050565b5f6105b75f198460080261059c565b1980831691505092915050565b5f6105cf83836105a8565b9150826002028217905092915050565b6105e8826103d2565b67ffffffffffffffff811115610601576106006101f0565b5b61060b8254610409565b610616828285610556565b5f60209050601f831160018114610647575f8415610635578287015190505b61063f85826105c4565b8655506106a6565b601f19841661065586610439565b5f5b8281101561067c57848901518255600182019150602085019450602081019050610657565b868310156106995784890151610695601f8916826105a8565b8355505b6001600288020188555050505b505050505050565b7f4e487b71000000000000000000000000000000000000000000000000000000005f52601160045260245ffd5b5f8160011c9050919050565b5f808291508390505b60018511156107305780860481111561070c5761070b6106ae565b5b600185161561071b5780820291505b8081029050610729856106db565b94506106f0565b94509492505050565b5f826107485760019050610803565b81610755575f9050610803565b816001811461076b5760028114610775576107a4565b6001915050610803565b60ff841115610787576107866106ae565b5b8360020a91508482111561079e5761079d6106ae565b5b50610803565b5060208310610133831016604e8410600b84101617156107d95782820a9050838111156107d4576107d36106ae565b5b610803565b6107e684848460016106e7565b925090508184048111156107fd576107fc6106ae565b5b81810290505b9392505050565b5f610814826104b7565b915061081f83610314565b925061084c7fffffffffffffffffffffffffffffffffffffffffffffffffffffffffffffffff8484610739565b905092915050565b5f61085e826104b7565b9150610869836104b7565b9250828202610877816104b7565b9150828204841483151761088e5761088d6106ae565b5b5092915050565b5f82825260208201905092915050565b7f496e76616c6964204164647265737300000000000000000000000000000000005f82015250565b5f6108d9600f83610895565b91506108e4826108a5565b602082019050919050565b5f6020820190508181035f830152610906816108cd565b9050919050565b5f610917826104b7565b9150610922836104b7565b925082820190508082111561093a576109396106ae565b5b92915050565b6114ff8061094d5f395ff3fe608060405234801561000f575f80fd5b50600436106100b2575f3560e01c80635c975abb1161006f5780635c975abb146101785780638456cb59146101825780638da5cb5b146101a057806395d89b41146101be578063a9059cbb146101dc578063f08782fc1461020c576100b2565b8063061a46a9146100b657806306fdde03146100c0578063095ea7b3146100de57806318160ddd1461010e57806323b872dd1461012c57806342966c681461015c575b5f80fd5b6100be61022a565b005b6100c86102d5565b6040516100d59190610dda565b60405180910390f35b6100f860048036038101906100f39190610e8b565b610360565b6040516101059190610ee3565b60405180910390f35b6101166103e8565b6040516101239190610f0b565b60405180910390f35b61014660048036038101906101419190610f24565b6103ee565b6040516101539190610ee3565b60405180910390f35b61017660048036038101906101719190610f74565b610819565b005b610180610907565b005b61018a6109b3565b6040516101979190610ee3565b60405180910390f35b6101a86109c6565b6040516101b59190610fae565b60405180910390f35b6101c66109eb565b6040516101d39190610dda565b60405180910390f35b6101f660048036038101906101f19190610e8b565b610a77565b6040516102039190610ee3565b60405180910390f35b610214610d58565b6040516102219190610fe2565b60405180910390f35b60045f9054906101000a900473ffffffffffffffffffffffffffffffffffffffff1673ffffffffffffffffffffffffffffffffffffffff163373ffffffffffffffffffffffffffffffffffffffff16146102b9576040517f08c379a00000000000000000000000000000000000000000000000000000000081526004016102b090611045565b60405180910390fd5b5f600460146101000a81548160ff021916908315150217905550565b5f80546102e190611090565b80601f016020809104026020016040519081016040528092919081815260200182805461030d90611090565b80156103585780601f1061032f57610100808354040283529160200191610358565b820191905f5260205f20905b81548152906001019060200180831161033b57829003601f168201915b505050505081565b5f8160065f3373ffffffffffffffffffffffffffffffffffffffff1673ffffffffffffffffffffffffffffffffffffffff1681526020019081526020015f205f8573ffffffffffffffffffffffffffffffffffffffff1673ffffffffffffffffffffffffffffffffffffffff1681526020019081526020015f20819055506001905092915050565b60035481565b5f600460149054906101000a900460ff161561043f576040517f08c379a00000000000000000000000000000000000000000000000000000000081526004016104369061110a565b60405180910390fd5b5f73ffffffffffffffffffffffffffffffffffffffff168373ffffffffffffffffffffffffffffffffffffffff16036104ad576040517f08c379a00000000000000000000000000000000000000000000000000000000081526004016104a490611172565b60405180910390fd5b8160055f8673ffffffffffffffffffffffffffffffffffffffff1673ffffffffffffffffffffffffffffffffffffffff1681526020019081526020015f2054101561052d576040517f08c379a0000000000000000000000000000000000000000000000000000000008152600401610524906111da565b60405180910390fd5b8160065f8673ffffffffffffffffffffffffffffffffffffffff1673ffffffffffffffffffffffffffffffffffffffff1681526020019081526020015f205f8573ffffffffffffffffffffffffffffffffffffffff1673ffffffffffffffffffffffffffffffffffffffff1681526020019081526020015f205410156105e8576040517f08c379a00000000000000000000000000000000000000000000000000000000081526004016105df90611242565b60405180910390fd5b60326003546105f791906112ba565b821115610639576040517f08c379a000000000000000000000000000000000000000000000000000000000815260040161063090611334565b60405180910390fd5b5f60646002846106499190611352565b61065391906112ba565b90505f81846106629190611393565b90508360055f8873ffffffffffffffffffffffffffffffffffffffff1673ffffffffffffffffffffffffffffffffffffffff1681526020019081526020015f205f8282546106b09190611393565b925050819055508360065f8873ffffffffffffffffffffffffffffffffffffffff1673ffffffffffffffffffffffffffffffffffffffff1681526020019081526020015f205f3373ffffffffffffffffffffffffffffffffffffffff1673ffffffffffffffffffffffffffffffffffffffff1681526020019081526020015f205f82825461073e91906113c6565b925050819055508060055f8773ffffffffffffffffffffffffffffffffffffffff1673ffffffffffffffffffffffffffffffffffffffff1681526020019081526020015f205f82825461079191906113c6565b925050819055508160055f60045f9054906101000a900473ffffffffffffffffffffffffffffffffffffffff1673ffffffffffffffffffffffffffffffffffffffff1673ffffffffffffffffffffffffffffffffffffffff1681526020019081526020015f205f82825461080591906113c6565b925050819055506001925050509392505050565b8060055f3373ffffffffffffffffffffffffffffffffffffffff1673ffffffffffffffffffffffffffffffffffffffff1681526020019081526020015f20541015610899576040517f08c379a000000000000000000000000000000000000000000000000000000000815260040161089090611443565b60405180910390fd5b8060055f3373ffffffffffffffffffffffffffffffffffffffff1673ffffffffffffffffffffffffffffffffffffffff1681526020019081526020015f205f8282546108e59190611393565b925050819055508060035f8282546108fd9190611393565b9250508190555050565b60045f9054906101000a900473ffffffffffffffffffffffffffffffffffffffff1673ffffffffffffffffffffffffffffffffffffffff163373ffffffffffffffffffffffffffffffffffffffff1614610996576040517f08c379a000000000000000000000000000000000000000000000000000000000815260040161098d90611045565b60405180910390fd5b6001600460146101000a81548160ff021916908315150217905550565b600460149054906101000a900460ff1681565b60045f9054906101000a900473ffffffffffffffffffffffffffffffffffffffff1681565b600180546109f890611090565b80601f0160208091040260200160405190810160405280929190818152602001828054610a2490611090565b8015610a6f5780601f10610a4657610100808354040283529160200191610a6f565b820191905f5260205f20905b815481529060010190602001808311610a5257829003601f168201915b505050505081565b5f600460149054906101000a900460ff1615610ac8576040517f08c379a0000000000000000000000000000000000000000000000000000000008152600401610abf9061110a565b60405180910390fd5b5f73ffffffffffffffffffffffffffffffffffffffff168373ffffffffffffffffffffffffffffffffffffffff1603610b36576040517f08c379a0000000000000000000000000000000000000000000000000000000008152600401610b2d90611172565b60405180910390fd5b8160055f3373ffffffffffffffffffffffffffffffffffffffff1673ffffffffffffffffffffffffffffffffffffffff1681526020019081526020015f20541015610bb6576040517f08c379a0000000000000000000000000000000000000000000000000000000008152600401610bad906111da565b60405180910390fd5b6032600354610bc591906112ba565b821115610c07576040517f08c379a0000000000000000000000000000000000000000000000000000000008152600401610bfe906114ab565b60405180910390fd5b5f6064600284610c179190611352565b610c2191906112ba565b90505f8184610c309190611393565b90508360055f3373ffffffffffffffffffffffffffffffffffffffff1673ffffffffffffffffffffffffffffffffffffffff1681526020019081526020015f205f828254610c7e9190611393565b925050819055508060055f8773ffffffffffffffffffffffffffffffffffffffff1673ffffffffffffffffffffffffffffffffffffffff1681526020019081526020015f205f828254610cd191906113c6565b925050819055508160055f60045f9054906101000a900473ffffffffffffffffffffffffffffffffffffffff1673ffffffffffffffffffffffffffffffffffffffff1673ffffffffffffffffffffffffffffffffffffffff1681526020019081526020015f205f828254610d4591906113c6565b9250508190555060019250505092915050565b60025f9054906101000a900460ff1681565b5f81519050919050565b5f82825260208201905092915050565b8281835e5f83830152505050565b5f601f19601f8301169050919050565b5f610dac82610d6a565b610db68185610d74565b9350610dc6818560208601610d84565b610dcf81610d92565b840191505092915050565b5f6020820190508181035f830152610df28184610da2565b905092915050565b5f80fd5b5f73ffffffffffffffffffffffffffffffffffffffff82169050919050565b5f610e2782610dfe565b9050919050565b610e3781610e1d565b8114610e41575f80fd5b50565b5f81359050610e5281610e2e565b92915050565b5f819050919050565b610e6a81610e58565b8114610e74575f80fd5b50565b5f81359050610e8581610e61565b92915050565b5f8060408385031215610ea157610ea0610dfa565b5b5f610eae85828601610e44565b9250506020610ebf85828601610e77565b9150509250929050565b5f8115159050919050565b610edd81610ec9565b82525050565b5f602082019050610ef65f830184610ed4565b92915050565b610f0581610e58565b82525050565b5f602082019050610f1e5f830184610efc565b92915050565b5f805f60608486031215610f3b57610f3a610dfa565b5b5f610f4886828701610e44565b9350506020610f5986828701610e44565b9250506040610f6a86828701610e77565b9150509250925092565b5f60208284031215610f8957610f88610dfa565b5b5f610f9684828501610e77565b91505092915050565b610fa881610e1d565b82525050565b5f602082019050610fc15f830184610f9f565b92915050565b5f60ff82169050919050565b610fdc81610fc7565b82525050565b5f602082019050610ff55f830184610fd3565b92915050565b7f596f7520617265206e6f7420746865206f776e657200000000000000000000005f82015250565b5f61102f601583610d74565b915061103a82610ffb565b602082019050919050565b5f6020820190508181035f83015261105c81611023565b9050919050565b7f4e487b71000000000000000000000000000000000000000000000000000000005f52602260045260245ffd5b5f60028204905060018216806110a757607f821691505b6020821081036110ba576110b9611063565b5b50919050565b7f5472616e736665722061726520706175736564000000000000000000000000005f82015250565b5f6110f4601383610d74565b91506110ff826110c0565b602082019050919050565b5f6020820190508181035f830152611121816110e8565b9050919050565b7f496e76616c6964204164647265737300000000000000000000000000000000005f82015250565b5f61115c600f83610d74565b915061116782611128565b602082019050919050565b5f6020820190508181035f83015261118981611150565b9050919050565b7f496e73756666696369656e742042616c616e63650000000000000000000000005f82015250565b5f6111c4601483610d74565b91506111cf82611190565b602082019050919050565b5f6020820190508181035f8301526111f1816111b8565b9050919050565b7f416c6c6f77616e636520457863656564656400000000000000000000000000005f82015250565b5f61122c601283610d74565b9150611237826111f8565b602082019050919050565b5f6020820190508181035f83015261125981611220565b9050919050565b7f4e487b71000000000000000000000000000000000000000000000000000000005f52601260045260245ffd5b7f4e487b71000000000000000000000000000000000000000000000000000000005f52601160045260245ffd5b5f6112c482610e58565b91506112cf83610e58565b9250826112df576112de611260565b5b828204905092915050565b7f416e74692d5768616c653a204d617820322520706572205472616e73666572005f82015250565b5f61131e601f83610d74565b9150611329826112ea565b602082019050919050565b5f6020820190508181035f83015261134b81611312565b9050919050565b5f61135c82610e58565b915061136783610e58565b925082820261137581610e58565b9150828204841483151761138c5761138b61128d565b5b5092915050565b5f61139d82610e58565b91506113a883610e58565b92508282039050818111156113c0576113bf61128d565b5b92915050565b5f6113d082610e58565b91506113db83610e58565b92508282019050808211156113f3576113f261128d565b5b92915050565b7f4e6f7420456e6f75676820546f6b656e000000000000000000000000000000005f82015250565b5f61142d601083610d74565b9150611438826113f9565b602082019050919050565b5f6020820190508181035f83015261145a81611421565b9050919050565b7f416e7469207768616c653a204d617820322520706572207472616e73666572005f82015250565b5f611495601f83610d74565b91506114a082611461565b602082019050919050565b5f6020820190508181035f8301526114c281611489565b905091905056fea26469706673582212205c63720b341f22ade164c220a602ce6009af58518488ecfdc5c9dd4ab8e258d864736f6c634300081a0033",
					"opcodes": "PUSH1 0x80 PUSH1 0x40 MSTORE CALLVALUE DUP1 ISZERO PUSH2 0xF JUMPI PUSH0 DUP1 REVERT JUMPDEST POP PUSH1 0x40 MLOAD PUSH2 0x1E4C CODESIZE SUB DUP1 PUSH2 0x1E4C DUP4 CODECOPY DUP2 DUP2 ADD PUSH1 0x40 MSTORE DUP2 ADD SWAP1 PUSH2 0x31 SWAP2 SWAP1 PUSH2 0x34A JUMP JUMPDEST CALLER PUSH1 0x4 PUSH0 PUSH2 0x100 EXP DUP2 SLOAD DUP2 PUSH20 0xFFFFFFFFFFFFFFFFFFFFFFFFFFFFFFFFFFFFFFFF MUL NOT AND SWAP1 DUP4 PUSH20 0xFFFFFFFFFFFFFFFFFFFFFFFFFFFFFFFFFFFFFFFF AND MUL OR SWAP1 SSTORE POP DUP3 PUSH0 SWAP1 DUP2 PUSH2 0x7F SWAP2 SWAP1 PUSH2 0x5DF JUMP JUMPDEST POP DUP2 PUSH1 0x1 SWAP1 DUP2 PUSH2 0x8F SWAP2 SWAP1 PUSH2 0x5DF JUMP JUMPDEST POP DUP1 PUSH1 0x2 PUSH0 PUSH2 0x100 EXP DUP2 SLOAD DUP2 PUSH1 0xFF MUL NOT AND SWAP1 DUP4 PUSH1 0xFF AND MUL OR SWAP1 SSTORE POP PUSH2 0xE2 CALLER PUSH1 0x2 PUSH0 SWAP1 SLOAD SWAP1 PUSH2 0x100 EXP SWAP1 DIV PUSH1 0xFF AND PUSH1 0xA PUSH2 0xC9 SWAP2 SWAP1 PUSH2 0x80A JUMP JUMPDEST PUSH3 0xF4240 PUSH2 0xD7 SWAP2 SWAP1 PUSH2 0x854 JUMP JUMPDEST PUSH2 0xEA PUSH1 0x20 SHL PUSH1 0x20 SHR JUMP JUMPDEST POP POP POP PUSH2 0x940 JUMP JUMPDEST PUSH0 PUSH20 0xFFFFFFFFFFFFFFFFFFFFFFFFFFFFFFFFFFFFFFFF AND DUP3 PUSH20 0xFFFFFFFFFFFFFFFFFFFFFFFFFFFFFFFFFFFFFFFF AND SUB PUSH2 0x158 JUMPI PUSH1 0x40 MLOAD PUSH32 0x8C379A000000000000000000000000000000000000000000000000000000000 DUP2 MSTORE PUSH1 0x4 ADD PUSH2 0x14F SWAP1 PUSH2 0x8EF JUMP JUMPDEST PUSH1 0x40 MLOAD DUP1 SWAP2 SUB SWAP1 REVERT JUMPDEST DUP1 PUSH1 0x5 PUSH0 DUP5 PUSH20 0xFFFFFFFFFFFFFFFFFFFFFFFFFFFFFFFFFFFFFFFF AND PUSH20 0xFFFFFFFFFFFFFFFFFFFFFFFFFFFFFFFFFFFFFFFF AND DUP2 MSTORE PUSH1 0x20 ADD SWAP1 DUP2 MSTORE PUSH1 0x20 ADD PUSH0 KECCAK256 PUSH0 DUP3 DUP3 SLOAD PUSH2 0x1A4 SWAP2 SWAP1 PUSH2 0x90D JUMP JUMPDEST SWAP3 POP POP DUP2 SWAP1 SSTORE POP DUP1 PUSH1 0x3 PUSH0 DUP3 DUP3 SLOAD PUSH2 0x1BC SWAP2 SWAP1 PUSH2 0x90D JUMP JUMPDEST SWAP3 POP POP DUP2 SWAP1 SSTORE POP POP POP JUMP JUMPDEST PUSH0 PUSH1 0x40 MLOAD SWAP1 POP SWAP1 JUMP JUMPDEST PUSH0 DUP1 REVERT JUMPDEST PUSH0 DUP1 REVERT JUMPDEST PUSH0 DUP1 REVERT JUMPDEST PUSH0 DUP1 REVERT JUMPDEST PUSH0 PUSH1 0x1F NOT PUSH1 0x1F DUP4 ADD AND SWAP1 POP SWAP2 SWAP1 POP JUMP JUMPDEST PUSH32 0x4E487B7100000000000000000000000000000000000000000000000000000000 PUSH0 MSTORE PUSH1 0x41 PUSH1 0x4 MSTORE PUSH1 0x24 PUSH0 REVERT JUMPDEST PUSH2 0x226 DUP3 PUSH2 0x1E0 JUMP JUMPDEST DUP2 ADD DUP2 DUP2 LT PUSH8 0xFFFFFFFFFFFFFFFF DUP3 GT OR ISZERO PUSH2 0x245 JUMPI PUSH2 0x244 PUSH2 0x1F0 JUMP JUMPDEST JUMPDEST DUP1 PUSH1 0x40 MSTORE POP POP POP JUMP JUMPDEST PUSH0 PUSH2 0x257 PUSH2 0x1C7 JUMP JUMPDEST SWAP1 POP PUSH2 0x263 DUP3 DUP3 PUSH2 0x21D JUMP JUMPDEST SWAP2 SWAP1 POP JUMP JUMPDEST PUSH0 PUSH8 0xFFFFFFFFFFFFFFFF DUP3 GT ISZERO PUSH2 0x282 JUMPI PUSH2 0x281 PUSH2 0x1F0 JUMP JUMPDEST JUMPDEST PUSH2 0x28B DUP3 PUSH2 0x1E0 JUMP JUMPDEST SWAP1 POP PUSH1 0x20 DUP2 ADD SWAP1 POP SWAP2 SWAP1 POP JUMP JUMPDEST DUP3 DUP2 DUP4 MCOPY PUSH0 DUP4 DUP4 ADD MSTORE POP POP POP JUMP JUMPDEST PUSH0 PUSH2 0x2B8 PUSH2 0x2B3 DUP5 PUSH2 0x268 JUMP JUMPDEST PUSH2 0x24E JUMP JUMPDEST SWAP1 POP DUP3 DUP2 MSTORE PUSH1 0x20 DUP2 ADD DUP5 DUP5 DUP5 ADD GT ISZERO PUSH2 0x2D4 JUMPI PUSH2 0x2D3 PUSH2 0x1DC JUMP JUMPDEST JUMPDEST PUSH2 0x2DF DUP5 DUP3 DUP6 PUSH2 0x298 JUMP JUMPDEST POP SWAP4 SWAP3 POP POP POP JUMP JUMPDEST PUSH0 DUP3 PUSH1 0x1F DUP4 ADD SLT PUSH2 0x2FB JUMPI PUSH2 0x2FA PUSH2 0x1D8 JUMP JUMPDEST JUMPDEST DUP2 MLOAD PUSH2 0x30B DUP5 DUP3 PUSH1 0x20 DUP7 ADD PUSH2 0x2A6 JUMP JUMPDEST SWAP2 POP POP SWAP3 SWAP2 POP POP JUMP JUMPDEST PUSH0 PUSH1 0xFF DUP3 AND SWAP1 POP SWAP2 SWAP1 POP JUMP JUMPDEST PUSH2 0x329 DUP2 PUSH2 0x314 JUMP JUMPDEST DUP2 EQ PUSH2 0x333 JUMPI PUSH0 DUP1 REVERT JUMPDEST POP JUMP JUMPDEST PUSH0 DUP2 MLOAD SWAP1 POP PUSH2 0x344 DUP2 PUSH2 0x320 JUMP JUMPDEST SWAP3 SWAP2 POP POP JUMP JUMPDEST PUSH0 DUP1 PUSH0 PUSH1 0x60 DUP5 DUP7 SUB SLT ISZERO PUSH2 0x361 JUMPI PUSH2 0x360 PUSH2 0x1D0 JUMP JUMPDEST JUMPDEST PUSH0 DUP5 ADD MLOAD PUSH8 0xFFFFFFFFFFFFFFFF DUP2 GT ISZERO PUSH2 0x37E JUMPI PUSH2 0x37D PUSH2 0x1D4 JUMP JUMPDEST JUMPDEST PUSH2 0x38A DUP7 DUP3 DUP8 ADD PUSH2 0x2E7 JUMP JUMPDEST SWAP4 POP POP PUSH1 0x20 DUP5 ADD MLOAD PUSH8 0xFFFFFFFFFFFFFFFF DUP2 GT ISZERO PUSH2 0x3AB JUMPI PUSH2 0x3AA PUSH2 0x1D4 JUMP JUMPDEST JUMPDEST PUSH2 0x3B7 DUP7 DUP3 DUP8 ADD PUSH2 0x2E7 JUMP JUMPDEST SWAP3 POP POP PUSH1 0x40 PUSH2 0x3C8 DUP7 DUP3 DUP8 ADD PUSH2 0x336 JUMP JUMPDEST SWAP2 POP POP SWAP3 POP SWAP3 POP SWAP3 JUMP JUMPDEST PUSH0 DUP2 MLOAD SWAP1 POP SWAP2 SWAP1 POP JUMP JUMPDEST PUSH32 0x4E487B7100000000000000000000000000000000000000000000000000000000 PUSH0 MSTORE PUSH1 0x22 PUSH1 0x4 MSTORE PUSH1 0x24 PUSH0 REVERT JUMPDEST PUSH0 PUSH1 0x2 DUP3 DIV SWAP1 POP PUSH1 0x1 DUP3 AND DUP1 PUSH2 0x420 JUMPI PUSH1 0x7F DUP3 AND SWAP2 POP JUMPDEST PUSH1 0x20 DUP3 LT DUP2 SUB PUSH2 0x433 JUMPI PUSH2 0x432 PUSH2 0x3DC JUMP JUMPDEST JUMPDEST POP SWAP2 SWAP1 POP JUMP JUMPDEST PUSH0 DUP2 SWAP1 POP DUP2 PUSH0 MSTORE PUSH1 0x20 PUSH0 KECCAK256 SWAP1 POP SWAP2 SWAP1 POP JUMP JUMPDEST PUSH0 PUSH1 0x20 PUSH1 0x1F DUP4 ADD DIV SWAP1 POP SWAP2 SWAP1 POP JUMP JUMPDEST PUSH0 DUP3 DUP3 SHL SWAP1 POP SWAP3 SWAP2 POP POP JUMP JUMPDEST PUSH0 PUSH1 0x8 DUP4 MUL PUSH2 0x495 PUSH32 0xFFFFFFFFFFFFFFFFFFFFFFFFFFFFFFFFFFFFFFFFFFFFFFFFFFFFFFFFFFFFFFFF DUP3 PUSH2 0x45A JUMP JUMPDEST PUSH2 0x49F DUP7 DUP4 PUSH2 0x45A JUMP JUMPDEST SWAP6 POP DUP1 NOT DUP5 AND SWAP4 POP DUP1 DUP7 AND DUP5 OR SWAP3 POP POP POP SWAP4 SWAP3 POP POP POP JUMP JUMPDEST PUSH0 DUP2 SWAP1 POP SWAP2 SWAP1 POP JUMP JUMPDEST PUSH0 DUP2 SWAP1 POP SWAP2 SWAP1 POP JUMP JUMPDEST PUSH0 PUSH2 0x4E3 PUSH2 0x4DE PUSH2 0x4D9 DUP5 PUSH2 0x4B7 JUMP JUMPDEST PUSH2 0x4C0 JUMP JUMPDEST PUSH2 0x4B7 JUMP JUMPDEST SWAP1 POP SWAP2 SWAP1 POP JUMP JUMPDEST PUSH0 DUP2 SWAP1 POP SWAP2 SWAP1 POP JUMP JUMPDEST PUSH2 0x4FC DUP4 PUSH2 0x4C9 JUMP JUMPDEST PUSH2 0x510 PUSH2 0x508 DUP3 PUSH2 0x4EA JUMP JUMPDEST DUP5 DUP5 SLOAD PUSH2 0x466 JUMP JUMPDEST DUP3 SSTORE POP POP POP POP JUMP JUMPDEST PUSH0 SWAP1 JUMP JUMPDEST PUSH2 0x524 PUSH2 0x518 JUMP JUMPDEST PUSH2 0x52F DUP2 DUP5 DUP5 PUSH2 0x4F3 JUMP JUMPDEST POP POP POP JUMP JUMPDEST JUMPDEST DUP2 DUP2 LT ISZERO PUSH2 0x552 JUMPI PUSH2 0x547 PUSH0 DUP3 PUSH2 0x51C JUMP JUMPDEST PUSH1 0x1 DUP2 ADD SWAP1 POP PUSH2 0x535 JUMP JUMPDEST POP POP JUMP JUMPDEST PUSH1 0x1F DUP3 GT ISZERO PUSH2 0x597 JUMPI PUSH2 0x568 DUP2 PUSH2 0x439 JUMP JUMPDEST PUSH2 0x571 DUP5 PUSH2 0x44B JUMP JUMPDEST DUP2 ADD PUSH1 0x20 DUP6 LT ISZERO PUSH2 0x580 JUMPI DUP2 SWAP1 POP JUMPDEST PUSH2 0x594 PUSH2 0x58C DUP6 PUSH2 0x44B JUMP JUMPDEST DUP4 ADD DUP3 PUSH2 0x534 JUMP JUMPDEST POP POP JUMPDEST POP POP POP JUMP JUMPDEST PUSH0 DUP3 DUP3 SHR SWAP1 POP SWAP3 SWAP2 POP POP JUMP JUMPDEST PUSH0 PUSH2 0x5B7 PUSH0 NOT DUP5 PUSH1 0x8 MUL PUSH2 0x59C JUMP JUMPDEST NOT DUP1 DUP4 AND SWAP2 POP POP SWAP3 SWAP2 POP POP JUMP JUMPDEST PUSH0 PUSH2 0x5CF DUP4 DUP4 PUSH2 0x5A8 JUMP JUMPDEST SWAP2 POP DUP3 PUSH1 0x2 MUL DUP3 OR SWAP1 POP SWAP3 SWAP2 POP POP JUMP JUMPDEST PUSH2 0x5E8 DUP3 PUSH2 0x3D2 JUMP JUMPDEST PUSH8 0xFFFFFFFFFFFFFFFF DUP2 GT ISZERO PUSH2 0x601 JUMPI PUSH2 0x600 PUSH2 0x1F0 JUMP JUMPDEST JUMPDEST PUSH2 0x60B DUP3 SLOAD PUSH2 0x409 JUMP JUMPDEST PUSH2 0x616 DUP3 DUP3 DUP6 PUSH2 0x556 JUMP JUMPDEST PUSH0 PUSH1 0x20 SWAP1 POP PUSH1 0x1F DUP4 GT PUSH1 0x1 DUP2 EQ PUSH2 0x647 JUMPI PUSH0 DUP5 ISZERO PUSH2 0x635 JUMPI DUP3 DUP8 ADD MLOAD SWAP1 POP JUMPDEST PUSH2 0x63F DUP6 DUP3 PUSH2 0x5C4 JUMP JUMPDEST DUP7 SSTORE POP PUSH2 0x6A6 JUMP JUMPDEST PUSH1 0x1F NOT DUP5 AND PUSH2 0x655 DUP7 PUSH2 0x439 JUMP JUMPDEST PUSH0 JUMPDEST DUP3 DUP2 LT ISZERO PUSH2 0x67C JUMPI DUP5 DUP10 ADD MLOAD DUP3 SSTORE PUSH1 0x1 DUP3 ADD SWAP2 POP PUSH1 0x20 DUP6 ADD SWAP5 POP PUSH1 0x20 DUP2 ADD SWAP1 POP PUSH2 0x657 JUMP JUMPDEST DUP7 DUP4 LT ISZERO PUSH2 0x699 JUMPI DUP5 DUP10 ADD MLOAD PUSH2 0x695 PUSH1 0x1F DUP10 AND DUP3 PUSH2 0x5A8 JUMP JUMPDEST DUP4 SSTORE POP JUMPDEST PUSH1 0x1 PUSH1 0x2 DUP9 MUL ADD DUP9 SSTORE POP POP POP JUMPDEST POP POP POP POP POP POP JUMP JUMPDEST PUSH32 0x4E487B7100000000000000000000000000000000000000000000000000000000 PUSH0 MSTORE PUSH1 0x11 PUSH1 0x4 MSTORE PUSH1 0x24 PUSH0 REVERT JUMPDEST PUSH0 DUP2 PUSH1 0x1 SHR SWAP1 POP SWAP2 SWAP1 POP JUMP JUMPDEST PUSH0 DUP1 DUP3 SWAP2 POP DUP4 SWAP1 POP JUMPDEST PUSH1 0x1 DUP6 GT ISZERO PUSH2 0x730 JUMPI DUP1 DUP7 DIV DUP2 GT ISZERO PUSH2 0x70C JUMPI PUSH2 0x70B PUSH2 0x6AE JUMP JUMPDEST JUMPDEST PUSH1 0x1 DUP6 AND ISZERO PUSH2 0x71B JUMPI DUP1 DUP3 MUL SWAP2 POP JUMPDEST DUP1 DUP2 MUL SWAP1 POP PUSH2 0x729 DUP6 PUSH2 0x6DB JUMP JUMPDEST SWAP5 POP PUSH2 0x6F0 JUMP JUMPDEST SWAP5 POP SWAP5 SWAP3 POP POP POP JUMP JUMPDEST PUSH0 DUP3 PUSH2 0x748 JUMPI PUSH1 0x1 SWAP1 POP PUSH2 0x803 JUMP JUMPDEST DUP2 PUSH2 0x755 JUMPI PUSH0 SWAP1 POP PUSH2 0x803 JUMP JUMPDEST DUP2 PUSH1 0x1 DUP2 EQ PUSH2 0x76B JUMPI PUSH1 0x2 DUP2 EQ PUSH2 0x775 JUMPI PUSH2 0x7A4 JUMP JUMPDEST PUSH1 0x1 SWAP2 POP POP PUSH2 0x803 JUMP JUMPDEST PUSH1 0xFF DUP5 GT ISZERO PUSH2 0x787 JUMPI PUSH2 0x786 PUSH2 0x6AE JUMP JUMPDEST JUMPDEST DUP4 PUSH1 0x2 EXP SWAP2 POP DUP5 DUP3 GT ISZERO PUSH2 0x79E JUMPI PUSH2 0x79D PUSH2 0x6AE JUMP JUMPDEST JUMPDEST POP PUSH2 0x803 JUMP JUMPDEST POP PUSH1 0x20 DUP4 LT PUSH2 0x133 DUP4 LT AND PUSH1 0x4E DUP5 LT PUSH1 0xB DUP5 LT AND OR ISZERO PUSH2 0x7D9 JUMPI DUP3 DUP3 EXP SWAP1 POP DUP4 DUP2 GT ISZERO PUSH2 0x7D4 JUMPI PUSH2 0x7D3 PUSH2 0x6AE JUMP JUMPDEST JUMPDEST PUSH2 0x803 JUMP JUMPDEST PUSH2 0x7E6 DUP5 DUP5 DUP5 PUSH1 0x1 PUSH2 0x6E7 JUMP JUMPDEST SWAP3 POP SWAP1 POP DUP2 DUP5 DIV DUP2 GT ISZERO PUSH2 0x7FD JUMPI PUSH2 0x7FC PUSH2 0x6AE JUMP JUMPDEST JUMPDEST DUP2 DUP2 MUL SWAP1 POP JUMPDEST SWAP4 SWAP3 POP POP POP JUMP JUMPDEST PUSH0 PUSH2 0x814 DUP3 PUSH2 0x4B7 JUMP JUMPDEST SWAP2 POP PUSH2 0x81F DUP4 PUSH2 0x314 JUMP JUMPDEST SWAP3 POP PUSH2 0x84C PUSH32 0xFFFFFFFFFFFFFFFFFFFFFFFFFFFFFFFFFFFFFFFFFFFFFFFFFFFFFFFFFFFFFFFF DUP5 DUP5 PUSH2 0x739 JUMP JUMPDEST SWAP1 POP SWAP3 SWAP2 POP POP JUMP JUMPDEST PUSH0 PUSH2 0x85E DUP3 PUSH2 0x4B7 JUMP JUMPDEST SWAP2 POP PUSH2 0x869 DUP4 PUSH2 0x4B7 JUMP JUMPDEST SWAP3 POP DUP3 DUP3 MUL PUSH2 0x877 DUP2 PUSH2 0x4B7 JUMP JUMPDEST SWAP2 POP DUP3 DUP3 DIV DUP5 EQ DUP4 ISZERO OR PUSH2 0x88E JUMPI PUSH2 0x88D PUSH2 0x6AE JUMP JUMPDEST JUMPDEST POP SWAP3 SWAP2 POP POP JUMP JUMPDEST PUSH0 DUP3 DUP3 MSTORE PUSH1 0x20 DUP3 ADD SWAP1 POP SWAP3 SWAP2 POP POP JUMP JUMPDEST PUSH32 0x496E76616C696420416464726573730000000000000000000000000000000000 PUSH0 DUP3 ADD MSTORE POP JUMP JUMPDEST PUSH0 PUSH2 0x8D9 PUSH1 0xF DUP4 PUSH2 0x895 JUMP JUMPDEST SWAP2 POP PUSH2 0x8E4 DUP3 PUSH2 0x8A5 JUMP JUMPDEST PUSH1 0x20 DUP3 ADD SWAP1 POP SWAP2 SWAP1 POP JUMP JUMPDEST PUSH0 PUSH1 0x20 DUP3 ADD SWAP1 POP DUP2 DUP2 SUB PUSH0 DUP4 ADD MSTORE PUSH2 0x906 DUP2 PUSH2 0x8CD JUMP JUMPDEST SWAP1 POP SWAP2 SWAP1 POP JUMP JUMPDEST PUSH0 PUSH2 0x917 DUP3 PUSH2 0x4B7 JUMP JUMPDEST SWAP2 POP PUSH2 0x922 DUP4 PUSH2 0x4B7 JUMP JUMPDEST SWAP3 POP DUP3 DUP3 ADD SWAP1 POP DUP1 DUP3 GT ISZERO PUSH2 0x93A JUMPI PUSH2 0x939 PUSH2 0x6AE JUMP JUMPDEST JUMPDEST SWAP3 SWAP2 POP POP JUMP JUMPDEST PUSH2 0x14FF DUP1 PUSH2 0x94D PUSH0 CODECOPY PUSH0 RETURN INVALID PUSH1 0x80 PUSH1 0x40 MSTORE CALLVALUE DUP1 ISZERO PUSH2 0xF JUMPI PUSH0 DUP1 REVERT JUMPDEST POP PUSH1 0x4 CALLDATASIZE LT PUSH2 0xB2 JUMPI PUSH0 CALLDATALOAD PUSH1 0xE0 SHR DUP1 PUSH4 0x5C975ABB GT PUSH2 0x6F JUMPI DUP1 PUSH4 0x5C975ABB EQ PUSH2 0x178 JUMPI DUP1 PUSH4 0x8456CB59 EQ PUSH2 0x182 JUMPI DUP1 PUSH4 0x8DA5CB5B EQ PUSH2 0x1A0 JUMPI DUP1 PUSH4 0x95D89B41 EQ PUSH2 0x1BE JUMPI DUP1 PUSH4 0xA9059CBB EQ PUSH2 0x1DC JUMPI DUP1 PUSH4 0xF08782FC EQ PUSH2 0x20C JUMPI PUSH2 0xB2 JUMP JUMPDEST DUP1 PUSH4 0x61A46A9 EQ PUSH2 0xB6 JUMPI DUP1 PUSH4 0x6FDDE03 EQ PUSH2 0xC0 JUMPI DUP1 PUSH4 0x95EA7B3 EQ PUSH2 0xDE JUMPI DUP1 PUSH4 0x18160DDD EQ PUSH2 0x10E JUMPI DUP1 PUSH4 0x23B872DD EQ PUSH2 0x12C JUMPI DUP1 PUSH4 0x42966C68 EQ PUSH2 0x15C JUMPI JUMPDEST PUSH0 DUP1 REVERT JUMPDEST PUSH2 0xBE PUSH2 0x22A JUMP JUMPDEST STOP JUMPDEST PUSH2 0xC8 PUSH2 0x2D5 JUMP JUMPDEST PUSH1 0x40 MLOAD PUSH2 0xD5 SWAP2 SWAP1 PUSH2 0xDDA JUMP JUMPDEST PUSH1 0x40 MLOAD DUP1 SWAP2 SUB SWAP1 RETURN JUMPDEST PUSH2 0xF8 PUSH1 0x4 DUP1 CALLDATASIZE SUB DUP2 ADD SWAP1 PUSH2 0xF3 SWAP2 SWAP1 PUSH2 0xE8B JUMP JUMPDEST PUSH2 0x360 JUMP JUMPDEST PUSH1 0x40 MLOAD PUSH2 0x105 SWAP2 SWAP1 PUSH2 0xEE3 JUMP JUMPDEST PUSH1 0x40 MLOAD DUP1 SWAP2 SUB SWAP1 RETURN JUMPDEST PUSH2 0x116 PUSH2 0x3E8 JUMP JUMPDEST PUSH1 0x40 MLOAD PUSH2 0x123 SWAP2 SWAP1 PUSH2 0xF0B JUMP JUMPDEST PUSH1 0x40 MLOAD DUP1 SWAP2 SUB SWAP1 RETURN JUMPDEST PUSH2 0x146 PUSH1 0x4 DUP1 CALLDATASIZE SUB DUP2 ADD SWAP1 PUSH2 0x141 SWAP2 SWAP1 PUSH2 0xF24 JUMP JUMPDEST PUSH2 0x3EE JUMP JUMPDEST PUSH1 0x40 MLOAD PUSH2 0x153 SWAP2 SWAP1 PUSH2 0xEE3 JUMP JUMPDEST PUSH1 0x40 MLOAD DUP1 SWAP2 SUB SWAP1 RETURN JUMPDEST PUSH2 0x176 PUSH1 0x4 DUP1 CALLDATASIZE SUB DUP2 ADD SWAP1 PUSH2 0x171 SWAP2 SWAP1 PUSH2 0xF74 JUMP JUMPDEST PUSH2 0x819 JUMP JUMPDEST STOP JUMPDEST PUSH2 0x180 PUSH2 0x907 JUMP JUMPDEST STOP JUMPDEST PUSH2 0x18A PUSH2 0x9B3 JUMP JUMPDEST PUSH1 0x40 MLOAD PUSH2 0x197 SWAP2 SWAP1 PUSH2 0xEE3 JUMP JUMPDEST PUSH1 0x40 MLOAD DUP1 SWAP2 SUB SWAP1 RETURN JUMPDEST PUSH2 0x1A8 PUSH2 0x9C6 JUMP JUMPDEST PUSH1 0x40 MLOAD PUSH2 0x1B5 SWAP2 SWAP1 PUSH2 0xFAE JUMP JUMPDEST PUSH1 0x40 MLOAD DUP1 SWAP2 SUB SWAP1 RETURN JUMPDEST PUSH2 0x1C6 PUSH2 0x9EB JUMP JUMPDEST PUSH1 0x40 MLOAD PUSH2 0x1D3 SWAP2 SWAP1 PUSH2 0xDDA JUMP JUMPDEST PUSH1 0x40 MLOAD DUP1 SWAP2 SUB SWAP1 RETURN JUMPDEST PUSH2 0x1F6 PUSH1 0x4 DUP1 CALLDATASIZE SUB DUP2 ADD SWAP1 PUSH2 0x1F1 SWAP2 SWAP1 PUSH2 0xE8B JUMP JUMPDEST PUSH2 0xA77 JUMP JUMPDEST PUSH1 0x40 MLOAD PUSH2 0x203 SWAP2 SWAP1 PUSH2 0xEE3 JUMP JUMPDEST PUSH1 0x40 MLOAD DUP1 SWAP2 SUB SWAP1 RETURN JUMPDEST PUSH2 0x214 PUSH2 0xD58 JUMP JUMPDEST PUSH1 0x40 MLOAD PUSH2 0x221 SWAP2 SWAP1 PUSH2 0xFE2 JUMP JUMPDEST PUSH1 0x40 MLOAD DUP1 SWAP2 SUB SWAP1 RETURN JUMPDEST PUSH1 0x4 PUSH0 SWAP1 SLOAD SWAP1 PUSH2 0x100 EXP SWAP1 DIV PUSH20 0xFFFFFFFFFFFFFFFFFFFFFFFFFFFFFFFFFFFFFFFF AND PUSH20 0xFFFFFFFFFFFFFFFFFFFFFFFFFFFFFFFFFFFFFFFF AND CALLER PUSH20 0xFFFFFFFFFFFFFFFFFFFFFFFFFFFFFFFFFFFFFFFF AND EQ PUSH2 0x2B9 JUMPI PUSH1 0x40 MLOAD PUSH32 0x8C379A000000000000000000000000000000000000000000000000000000000 DUP2 MSTORE PUSH1 0x4 ADD PUSH2 0x2B0 SWAP1 PUSH2 0x1045 JUMP JUMPDEST PUSH1 0x40 MLOAD DUP1 SWAP2 SUB SWAP1 REVERT JUMPDEST PUSH0 PUSH1 0x4 PUSH1 0x14 PUSH2 0x100 EXP DUP2 SLOAD DUP2 PUSH1 0xFF MUL NOT AND SWAP1 DUP4 ISZERO ISZERO MUL OR SWAP1 SSTORE POP JUMP JUMPDEST PUSH0 DUP1 SLOAD PUSH2 0x2E1 SWAP1 PUSH2 0x1090 JUMP JUMPDEST DUP1 PUSH1 0x1F ADD PUSH1 0x20 DUP1 SWAP2 DIV MUL PUSH1 0x20 ADD PUSH1 0x40 MLOAD SWAP1 DUP2 ADD PUSH1 0x40 MSTORE DUP1 SWAP3 SWAP2 SWAP1 DUP2 DUP2 MSTORE PUSH1 0x20 ADD DUP3 DUP1 SLOAD PUSH2 0x30D SWAP1 PUSH2 0x1090 JUMP JUMPDEST DUP1 ISZERO PUSH2 0x358 JUMPI DUP1 PUSH1 0x1F LT PUSH2 0x32F JUMPI PUSH2 0x100 DUP1 DUP4 SLOAD DIV MUL DUP4 MSTORE SWAP2 PUSH1 0x20 ADD SWAP2 PUSH2 0x358 JUMP JUMPDEST DUP3 ADD SWAP2 SWAP1 PUSH0 MSTORE PUSH1 0x20 PUSH0 KECCAK256 SWAP1 JUMPDEST DUP2 SLOAD DUP2 MSTORE SWAP1 PUSH1 0x1 ADD SWAP1 PUSH1 0x20 ADD DUP1 DUP4 GT PUSH2 0x33B JUMPI DUP3 SWAP1 SUB PUSH1 0x1F AND DUP3 ADD SWAP2 JUMPDEST POP POP POP POP POP DUP2 JUMP JUMPDEST PUSH0 DUP2 PUSH1 0x6 PUSH0 CALLER PUSH20 0xFFFFFFFFFFFFFFFFFFFFFFFFFFFFFFFFFFFFFFFF AND PUSH20 0xFFFFFFFFFFFFFFFFFFFFFFFFFFFFFFFFFFFFFFFF AND DUP2 MSTORE PUSH1 0x20 ADD SWAP1 DUP2 MSTORE PUSH1 0x20 ADD PUSH0 KECCAK256 PUSH0 DUP6 PUSH20 0xFFFFFFFFFFFFFFFFFFFFFFFFFFFFFFFFFFFFFFFF AND PUSH20 0xFFFFFFFFFFFFFFFFFFFFFFFFFFFFFFFFFFFFFFFF AND DUP2 MSTORE PUSH1 0x20 ADD SWAP1 DUP2 MSTORE PUSH1 0x20 ADD PUSH0 KECCAK256 DUP2 SWAP1 SSTORE POP PUSH1 0x1 SWAP1 POP SWAP3 SWAP2 POP POP JUMP JUMPDEST PUSH1 0x3 SLOAD DUP2 JUMP JUMPDEST PUSH0 PUSH1 0x4 PUSH1 0x14 SWAP1 SLOAD SWAP1 PUSH2 0x100 EXP SWAP1 DIV PUSH1 0xFF AND ISZERO PUSH2 0x43F JUMPI PUSH1 0x40 MLOAD PUSH32 0x8C379A000000000000000000000000000000000000000000000000000000000 DUP2 MSTORE PUSH1 0x4 ADD PUSH2 0x436 SWAP1 PUSH2 0x110A JUMP JUMPDEST PUSH1 0x40 MLOAD DUP1 SWAP2 SUB SWAP1 REVERT JUMPDEST PUSH0 PUSH20 0xFFFFFFFFFFFFFFFFFFFFFFFFFFFFFFFFFFFFFFFF AND DUP4 PUSH20 0xFFFFFFFFFFFFFFFFFFFFFFFFFFFFFFFFFFFFFFFF AND SUB PUSH2 0x4AD JUMPI PUSH1 0x40 MLOAD PUSH32 0x8C379A000000000000000000000000000000000000000000000000000000000 DUP2 MSTORE PUSH1 0x4 ADD PUSH2 0x4A4 SWAP1 PUSH2 0x1172 JUMP JUMPDEST PUSH1 0x40 MLOAD DUP1 SWAP2 SUB SWAP1 REVERT JUMPDEST DUP2 PUSH1 0x5 PUSH0 DUP7 PUSH20 0xFFFFFFFFFFFFFFFFFFFFFFFFFFFFFFFFFFFFFFFF AND PUSH20 0xFFFFFFFFFFFFFFFFFFFFFFFFFFFFFFFFFFFFFFFF AND DUP2 MSTORE PUSH1 0x20 ADD SWAP1 DUP2 MSTORE PUSH1 0x20 ADD PUSH0 KECCAK256 SLOAD LT ISZERO PUSH2 0x52D JUMPI PUSH1 0x40 MLOAD PUSH32 0x8C379A000000000000000000000000000000000000000000000000000000000 DUP2 MSTORE PUSH1 0x4 ADD PUSH2 0x524 SWAP1 PUSH2 0x11DA JUMP JUMPDEST PUSH1 0x40 MLOAD DUP1 SWAP2 SUB SWAP1 REVERT JUMPDEST DUP2 PUSH1 0x6 PUSH0 DUP7 PUSH20 0xFFFFFFFFFFFFFFFFFFFFFFFFFFFFFFFFFFFFFFFF AND PUSH20 0xFFFFFFFFFFFFFFFFFFFFFFFFFFFFFFFFFFFFFFFF AND DUP2 MSTORE PUSH1 0x20 ADD SWAP1 DUP2 MSTORE PUSH1 0x20 ADD PUSH0 KECCAK256 PUSH0 DUP6 PUSH20 0xFFFFFFFFFFFFFFFFFFFFFFFFFFFFFFFFFFFFFFFF AND PUSH20 0xFFFFFFFFFFFFFFFFFFFFFFFFFFFFFFFFFFFFFFFF AND DUP2 MSTORE PUSH1 0x20 ADD SWAP1 DUP2 MSTORE PUSH1 0x20 ADD PUSH0 KECCAK256 SLOAD LT ISZERO PUSH2 0x5E8 JUMPI PUSH1 0x40 MLOAD PUSH32 0x8C379A000000000000000000000000000000000000000000000000000000000 DUP2 MSTORE PUSH1 0x4 ADD PUSH2 0x5DF SWAP1 PUSH2 0x1242 JUMP JUMPDEST PUSH1 0x40 MLOAD DUP1 SWAP2 SUB SWAP1 REVERT JUMPDEST PUSH1 0x32 PUSH1 0x3 SLOAD PUSH2 0x5F7 SWAP2 SWAP1 PUSH2 0x12BA JUMP JUMPDEST DUP3 GT ISZERO PUSH2 0x639 JUMPI PUSH1 0x40 MLOAD PUSH32 0x8C379A000000000000000000000000000000000000000000000000000000000 DUP2 MSTORE PUSH1 0x4 ADD PUSH2 0x630 SWAP1 PUSH2 0x1334 JUMP JUMPDEST PUSH1 0x40 MLOAD DUP1 SWAP2 SUB SWAP1 REVERT JUMPDEST PUSH0 PUSH1 0x64 PUSH1 0x2 DUP5 PUSH2 0x649 SWAP2 SWAP1 PUSH2 0x1352 JUMP JUMPDEST PUSH2 0x653 SWAP2 SWAP1 PUSH2 0x12BA JUMP JUMPDEST SWAP1 POP PUSH0 DUP2 DUP5 PUSH2 0x662 SWAP2 SWAP1 PUSH2 0x1393 JUMP JUMPDEST SWAP1 POP DUP4 PUSH1 0x5 PUSH0 DUP9 PUSH20 0xFFFFFFFFFFFFFFFFFFFFFFFFFFFFFFFFFFFFFFFF AND PUSH20 0xFFFFFFFFFFFFFFFFFFFFFFFFFFFFFFFFFFFFFFFF AND DUP2 MSTORE PUSH1 0x20 ADD SWAP1 DUP2 MSTORE PUSH1 0x20 ADD PUSH0 KECCAK256 PUSH0 DUP3 DUP3 SLOAD PUSH2 0x6B0 SWAP2 SWAP1 PUSH2 0x1393 JUMP JUMPDEST SWAP3 POP POP DUP2 SWAP1 SSTORE POP DUP4 PUSH1 0x6 PUSH0 DUP9 PUSH20 0xFFFFFFFFFFFFFFFFFFFFFFFFFFFFFFFFFFFFFFFF AND PUSH20 0xFFFFFFFFFFFFFFFFFFFFFFFFFFFFFFFFFFFFFFFF AND DUP2 MSTORE PUSH1 0x20 ADD SWAP1 DUP2 MSTORE PUSH1 0x20 ADD PUSH0 KECCAK256 PUSH0 CALLER PUSH20 0xFFFFFFFFFFFFFFFFFFFFFFFFFFFFFFFFFFFFFFFF AND PUSH20 0xFFFFFFFFFFFFFFFFFFFFFFFFFFFFFFFFFFFFFFFF AND DUP2 MSTORE PUSH1 0x20 ADD SWAP1 DUP2 MSTORE PUSH1 0x20 ADD PUSH0 KECCAK256 PUSH0 DUP3 DUP3 SLOAD PUSH2 0x73E SWAP2 SWAP1 PUSH2 0x13C6 JUMP JUMPDEST SWAP3 POP POP DUP2 SWAP1 SSTORE POP DUP1 PUSH1 0x5 PUSH0 DUP8 PUSH20 0xFFFFFFFFFFFFFFFFFFFFFFFFFFFFFFFFFFFFFFFF AND PUSH20 0xFFFFFFFFFFFFFFFFFFFFFFFFFFFFFFFFFFFFFFFF AND DUP2 MSTORE PUSH1 0x20 ADD SWAP1 DUP2 MSTORE PUSH1 0x20 ADD PUSH0 KECCAK256 PUSH0 DUP3 DUP3 SLOAD PUSH2 0x791 SWAP2 SWAP1 PUSH2 0x13C6 JUMP JUMPDEST SWAP3 POP POP DUP2 SWAP1 SSTORE POP DUP2 PUSH1 0x5 PUSH0 PUSH1 0x4 PUSH0 SWAP1 SLOAD SWAP1 PUSH2 0x100 EXP SWAP1 DIV PUSH20 0xFFFFFFFFFFFFFFFFFFFFFFFFFFFFFFFFFFFFFFFF AND PUSH20 0xFFFFFFFFFFFFFFFFFFFFFFFFFFFFFFFFFFFFFFFF AND PUSH20 0xFFFFFFFFFFFFFFFFFFFFFFFFFFFFFFFFFFFFFFFF AND DUP2 MSTORE PUSH1 0x20 ADD SWAP1 DUP2 MSTORE PUSH1 0x20 ADD PUSH0 KECCAK256 PUSH0 DUP3 DUP3 SLOAD PUSH2 0x805 SWAP2 SWAP1 PUSH2 0x13C6 JUMP JUMPDEST SWAP3 POP POP DUP2 SWAP1 SSTORE POP PUSH1 0x1 SWAP3 POP POP POP SWAP4 SWAP3 POP POP POP JUMP JUMPDEST DUP1 PUSH1 0x5 PUSH0 CALLER PUSH20 0xFFFFFFFFFFFFFFFFFFFFFFFFFFFFFFFFFFFFFFFF AND PUSH20 0xFFFFFFFFFFFFFFFFFFFFFFFFFFFFFFFFFFFFFFFF AND DUP2 MSTORE PUSH1 0x20 ADD SWAP1 DUP2 MSTORE PUSH1 0x20 ADD PUSH0 KECCAK256 SLOAD LT ISZERO PUSH2 0x899 JUMPI PUSH1 0x40 MLOAD PUSH32 0x8C379A000000000000000000000000000000000000000000000000000000000 DUP2 MSTORE PUSH1 0x4 ADD PUSH2 0x890 SWAP1 PUSH2 0x1443 JUMP JUMPDEST PUSH1 0x40 MLOAD DUP1 SWAP2 SUB SWAP1 REVERT JUMPDEST DUP1 PUSH1 0x5 PUSH0 CALLER PUSH20 0xFFFFFFFFFFFFFFFFFFFFFFFFFFFFFFFFFFFFFFFF AND PUSH20 0xFFFFFFFFFFFFFFFFFFFFFFFFFFFFFFFFFFFFFFFF AND DUP2 MSTORE PUSH1 0x20 ADD SWAP1 DUP2 MSTORE PUSH1 0x20 ADD PUSH0 KECCAK256 PUSH0 DUP3 DUP3 SLOAD PUSH2 0x8E5 SWAP2 SWAP1 PUSH2 0x1393 JUMP JUMPDEST SWAP3 POP POP DUP2 SWAP1 SSTORE POP DUP1 PUSH1 0x3 PUSH0 DUP3 DUP3 SLOAD PUSH2 0x8FD SWAP2 SWAP1 PUSH2 0x1393 JUMP JUMPDEST SWAP3 POP POP DUP2 SWAP1 SSTORE POP POP JUMP JUMPDEST PUSH1 0x4 PUSH0 SWAP1 SLOAD SWAP1 PUSH2 0x100 EXP SWAP1 DIV PUSH20 0xFFFFFFFFFFFFFFFFFFFFFFFFFFFFFFFFFFFFFFFF AND PUSH20 0xFFFFFFFFFFFFFFFFFFFFFFFFFFFFFFFFFFFFFFFF AND CALLER PUSH20 0xFFFFFFFFFFFFFFFFFFFFFFFFFFFFFFFFFFFFFFFF AND EQ PUSH2 0x996 JUMPI PUSH1 0x40 MLOAD PUSH32 0x8C379A000000000000000000000000000000000000000000000000000000000 DUP2 MSTORE PUSH1 0x4 ADD PUSH2 0x98D SWAP1 PUSH2 0x1045 JUMP JUMPDEST PUSH1 0x40 MLOAD DUP1 SWAP2 SUB SWAP1 REVERT JUMPDEST PUSH1 0x1 PUSH1 0x4 PUSH1 0x14 PUSH2 0x100 EXP DUP2 SLOAD DUP2 PUSH1 0xFF MUL NOT AND SWAP1 DUP4 ISZERO ISZERO MUL OR SWAP1 SSTORE POP JUMP JUMPDEST PUSH1 0x4 PUSH1 0x14 SWAP1 SLOAD SWAP1 PUSH2 0x100 EXP SWAP1 DIV PUSH1 0xFF AND DUP2 JUMP JUMPDEST PUSH1 0x4 PUSH0 SWAP1 SLOAD SWAP1 PUSH2 0x100 EXP SWAP1 DIV PUSH20 0xFFFFFFFFFFFFFFFFFFFFFFFFFFFFFFFFFFFFFFFF AND DUP2 JUMP JUMPDEST PUSH1 0x1 DUP1 SLOAD PUSH2 0x9F8 SWAP1 PUSH2 0x1090 JUMP JUMPDEST DUP1 PUSH1 0x1F ADD PUSH1 0x20 DUP1 SWAP2 DIV MUL PUSH1 0x20 ADD PUSH1 0x40 MLOAD SWAP1 DUP2 ADD PUSH1 0x40 MSTORE DUP1 SWAP3 SWAP2 SWAP1 DUP2 DUP2 MSTORE PUSH1 0x20 ADD DUP3 DUP1 SLOAD PUSH2 0xA24 SWAP1 PUSH2 0x1090 JUMP JUMPDEST DUP1 ISZERO PUSH2 0xA6F JUMPI DUP1 PUSH1 0x1F LT PUSH2 0xA46 JUMPI PUSH2 0x100 DUP1 DUP4 SLOAD DIV MUL DUP4 MSTORE SWAP2 PUSH1 0x20 ADD SWAP2 PUSH2 0xA6F JUMP JUMPDEST DUP3 ADD SWAP2 SWAP1 PUSH0 MSTORE PUSH1 0x20 PUSH0 KECCAK256 SWAP1 JUMPDEST DUP2 SLOAD DUP2 MSTORE SWAP1 PUSH1 0x1 ADD SWAP1 PUSH1 0x20 ADD DUP1 DUP4 GT PUSH2 0xA52 JUMPI DUP3 SWAP1 SUB PUSH1 0x1F AND DUP3 ADD SWAP2 JUMPDEST POP POP POP POP POP DUP2 JUMP JUMPDEST PUSH0 PUSH1 0x4 PUSH1 0x14 SWAP1 SLOAD SWAP1 PUSH2 0x100 EXP SWAP1 DIV PUSH1 0xFF AND ISZERO PUSH2 0xAC8 JUMPI PUSH1 0x40 MLOAD PUSH32 0x8C379A000000000000000000000000000000000000000000000000000000000 DUP2 MSTORE PUSH1 0x4 ADD PUSH2 0xABF SWAP1 PUSH2 0x110A JUMP JUMPDEST PUSH1 0x40 MLOAD DUP1 SWAP2 SUB SWAP1 REVERT JUMPDEST PUSH0 PUSH20 0xFFFFFFFFFFFFFFFFFFFFFFFFFFFFFFFFFFFFFFFF AND DUP4 PUSH20 0xFFFFFFFFFFFFFFFFFFFFFFFFFFFFFFFFFFFFFFFF AND SUB PUSH2 0xB36 JUMPI PUSH1 0x40 MLOAD PUSH32 0x8C379A000000000000000000000000000000000000000000000000000000000 DUP2 MSTORE PUSH1 0x4 ADD PUSH2 0xB2D SWAP1 PUSH2 0x1172 JUMP JUMPDEST PUSH1 0x40 MLOAD DUP1 SWAP2 SUB SWAP1 REVERT JUMPDEST DUP2 PUSH1 0x5 PUSH0 CALLER PUSH20 0xFFFFFFFFFFFFFFFFFFFFFFFFFFFFFFFFFFFFFFFF AND PUSH20 0xFFFFFFFFFFFFFFFFFFFFFFFFFFFFFFFFFFFFFFFF AND DUP2 MSTORE PUSH1 0x20 ADD SWAP1 DUP2 MSTORE PUSH1 0x20 ADD PUSH0 KECCAK256 SLOAD LT ISZERO PUSH2 0xBB6 JUMPI PUSH1 0x40 MLOAD PUSH32 0x8C379A000000000000000000000000000000000000000000000000000000000 DUP2 MSTORE PUSH1 0x4 ADD PUSH2 0xBAD SWAP1 PUSH2 0x11DA JUMP JUMPDEST PUSH1 0x40 MLOAD DUP1 SWAP2 SUB SWAP1 REVERT JUMPDEST PUSH1 0x32 PUSH1 0x3 SLOAD PUSH2 0xBC5 SWAP2 SWAP1 PUSH2 0x12BA JUMP JUMPDEST DUP3 GT ISZERO PUSH2 0xC07 JUMPI PUSH1 0x40 MLOAD PUSH32 0x8C379A000000000000000000000000000000000000000000000000000000000 DUP2 MSTORE PUSH1 0x4 ADD PUSH2 0xBFE SWAP1 PUSH2 0x14AB JUMP JUMPDEST PUSH1 0x40 MLOAD DUP1 SWAP2 SUB SWAP1 REVERT JUMPDEST PUSH0 PUSH1 0x64 PUSH1 0x2 DUP5 PUSH2 0xC17 SWAP2 SWAP1 PUSH2 0x1352 JUMP JUMPDEST PUSH2 0xC21 SWAP2 SWAP1 PUSH2 0x12BA JUMP JUMPDEST SWAP1 POP PUSH0 DUP2 DUP5 PUSH2 0xC30 SWAP2 SWAP1 PUSH2 0x1393 JUMP JUMPDEST SWAP1 POP DUP4 PUSH1 0x5 PUSH0 CALLER PUSH20 0xFFFFFFFFFFFFFFFFFFFFFFFFFFFFFFFFFFFFFFFF AND PUSH20 0xFFFFFFFFFFFFFFFFFFFFFFFFFFFFFFFFFFFFFFFF AND DUP2 MSTORE PUSH1 0x20 ADD SWAP1 DUP2 MSTORE PUSH1 0x20 ADD PUSH0 KECCAK256 PUSH0 DUP3 DUP3 SLOAD PUSH2 0xC7E SWAP2 SWAP1 PUSH2 0x1393 JUMP JUMPDEST SWAP3 POP POP DUP2 SWAP1 SSTORE POP DUP1 PUSH1 0x5 PUSH0 DUP8 PUSH20 0xFFFFFFFFFFFFFFFFFFFFFFFFFFFFFFFFFFFFFFFF AND PUSH20 0xFFFFFFFFFFFFFFFFFFFFFFFFFFFFFFFFFFFFFFFF AND DUP2 MSTORE PUSH1 0x20 ADD SWAP1 DUP2 MSTORE PUSH1 0x20 ADD PUSH0 KECCAK256 PUSH0 DUP3 DUP3 SLOAD PUSH2 0xCD1 SWAP2 SWAP1 PUSH2 0x13C6 JUMP JUMPDEST SWAP3 POP POP DUP2 SWAP1 SSTORE POP DUP2 PUSH1 0x5 PUSH0 PUSH1 0x4 PUSH0 SWAP1 SLOAD SWAP1 PUSH2 0x100 EXP SWAP1 DIV PUSH20 0xFFFFFFFFFFFFFFFFFFFFFFFFFFFFFFFFFFFFFFFF AND PUSH20 0xFFFFFFFFFFFFFFFFFFFFFFFFFFFFFFFFFFFFFFFF AND PUSH20 0xFFFFFFFFFFFFFFFFFFFFFFFFFFFFFFFFFFFFFFFF AND DUP2 MSTORE PUSH1 0x20 ADD SWAP1 DUP2 MSTORE PUSH1 0x20 ADD PUSH0 KECCAK256 PUSH0 DUP3 DUP3 SLOAD PUSH2 0xD45 SWAP2 SWAP1 PUSH2 0x13C6 JUMP JUMPDEST SWAP3 POP POP DUP2 SWAP1 SSTORE POP PUSH1 0x1 SWAP3 POP POP POP SWAP3 SWAP2 POP POP JUMP JUMPDEST PUSH1 0x2 PUSH0 SWAP1 SLOAD SWAP1 PUSH2 0x100 EXP SWAP1 DIV PUSH1 0xFF AND DUP2 JUMP JUMPDEST PUSH0 DUP2 MLOAD SWAP1 POP SWAP2 SWAP1 POP JUMP JUMPDEST PUSH0 DUP3 DUP3 MSTORE PUSH1 0x20 DUP3 ADD SWAP1 POP SWAP3 SWAP2 POP POP JUMP JUMPDEST DUP3 DUP2 DUP4 MCOPY PUSH0 DUP4 DUP4 ADD MSTORE POP POP POP JUMP JUMPDEST PUSH0 PUSH1 0x1F NOT PUSH1 0x1F DUP4 ADD AND SWAP1 POP SWAP2 SWAP1 POP JUMP JUMPDEST PUSH0 PUSH2 0xDAC DUP3 PUSH2 0xD6A JUMP JUMPDEST PUSH2 0xDB6 DUP2 DUP6 PUSH2 0xD74 JUMP JUMPDEST SWAP4 POP PUSH2 0xDC6 DUP2 DUP6 PUSH1 0x20 DUP7 ADD PUSH2 0xD84 JUMP JUMPDEST PUSH2 0xDCF DUP2 PUSH2 0xD92 JUMP JUMPDEST DUP5 ADD SWAP2 POP POP SWAP3 SWAP2 POP POP JUMP JUMPDEST PUSH0 PUSH1 0x20 DUP3 ADD SWAP1 POP DUP2 DUP2 SUB PUSH0 DUP4 ADD MSTORE PUSH2 0xDF2 DUP2 DUP5 PUSH2 0xDA2 JUMP JUMPDEST SWAP1 POP SWAP3 SWAP2 POP POP JUMP JUMPDEST PUSH0 DUP1 REVERT JUMPDEST PUSH0 PUSH20 0xFFFFFFFFFFFFFFFFFFFFFFFFFFFFFFFFFFFFFFFF DUP3 AND SWAP1 POP SWAP2 SWAP1 POP JUMP JUMPDEST PUSH0 PUSH2 0xE27 DUP3 PUSH2 0xDFE JUMP JUMPDEST SWAP1 POP SWAP2 SWAP1 POP JUMP JUMPDEST PUSH2 0xE37 DUP2 PUSH2 0xE1D JUMP JUMPDEST DUP2 EQ PUSH2 0xE41 JUMPI PUSH0 DUP1 REVERT JUMPDEST POP JUMP JUMPDEST PUSH0 DUP2 CALLDATALOAD SWAP1 POP PUSH2 0xE52 DUP2 PUSH2 0xE2E JUMP JUMPDEST SWAP3 SWAP2 POP POP JUMP JUMPDEST PUSH0 DUP2 SWAP1 POP SWAP2 SWAP1 POP JUMP JUMPDEST PUSH2 0xE6A DUP2 PUSH2 0xE58 JUMP JUMPDEST DUP2 EQ PUSH2 0xE74 JUMPI PUSH0 DUP1 REVERT JUMPDEST POP JUMP JUMPDEST PUSH0 DUP2 CALLDATALOAD SWAP1 POP PUSH2 0xE85 DUP2 PUSH2 0xE61 JUMP JUMPDEST SWAP3 SWAP2 POP POP JUMP JUMPDEST PUSH0 DUP1 PUSH1 0x40 DUP4 DUP6 SUB SLT ISZERO PUSH2 0xEA1 JUMPI PUSH2 0xEA0 PUSH2 0xDFA JUMP JUMPDEST JUMPDEST PUSH0 PUSH2 0xEAE DUP6 DUP3 DUP7 ADD PUSH2 0xE44 JUMP JUMPDEST SWAP3 POP POP PUSH1 0x20 PUSH2 0xEBF DUP6 DUP3 DUP7 ADD PUSH2 0xE77 JUMP JUMPDEST SWAP2 POP POP SWAP3 POP SWAP3 SWAP1 POP JUMP JUMPDEST PUSH0 DUP2 ISZERO ISZERO SWAP1 POP SWAP2 SWAP1 POP JUMP JUMPDEST PUSH2 0xEDD DUP2 PUSH2 0xEC9 JUMP JUMPDEST DUP3 MSTORE POP POP JUMP JUMPDEST PUSH0 PUSH1 0x20 DUP3 ADD SWAP1 POP PUSH2 0xEF6 PUSH0 DUP4 ADD DUP5 PUSH2 0xED4 JUMP JUMPDEST SWAP3 SWAP2 POP POP JUMP JUMPDEST PUSH2 0xF05 DUP2 PUSH2 0xE58 JUMP JUMPDEST DUP3 MSTORE POP POP JUMP JUMPDEST PUSH0 PUSH1 0x20 DUP3 ADD SWAP1 POP PUSH2 0xF1E PUSH0 DUP4 ADD DUP5 PUSH2 0xEFC JUMP JUMPDEST SWAP3 SWAP2 POP POP JUMP JUMPDEST PUSH0 DUP1 PUSH0 PUSH1 0x60 DUP5 DUP7 SUB SLT ISZERO PUSH2 0xF3B JUMPI PUSH2 0xF3A PUSH2 0xDFA JUMP JUMPDEST JUMPDEST PUSH0 PUSH2 0xF48 DUP7 DUP3 DUP8 ADD PUSH2 0xE44 JUMP JUMPDEST SWAP4 POP POP PUSH1 0x20 PUSH2 0xF59 DUP7 DUP3 DUP8 ADD PUSH2 0xE44 JUMP JUMPDEST SWAP3 POP POP PUSH1 0x40 PUSH2 0xF6A DUP7 DUP3 DUP8 ADD PUSH2 0xE77 JUMP JUMPDEST SWAP2 POP POP SWAP3 POP SWAP3 POP SWAP3 JUMP JUMPDEST PUSH0 PUSH1 0x20 DUP3 DUP5 SUB SLT ISZERO PUSH2 0xF89 JUMPI PUSH2 0xF88 PUSH2 0xDFA JUMP JUMPDEST JUMPDEST PUSH0 PUSH2 0xF96 DUP5 DUP3 DUP6 ADD PUSH2 0xE77 JUMP JUMPDEST SWAP2 POP POP SWAP3 SWAP2 POP POP JUMP JUMPDEST PUSH2 0xFA8 DUP2 PUSH2 0xE1D JUMP JUMPDEST DUP3 MSTORE POP POP JUMP JUMPDEST PUSH0 PUSH1 0x20 DUP3 ADD SWAP1 POP PUSH2 0xFC1 PUSH0 DUP4 ADD DUP5 PUSH2 0xF9F JUMP JUMPDEST SWAP3 SWAP2 POP POP JUMP JUMPDEST PUSH0 PUSH1 0xFF DUP3 AND SWAP1 POP SWAP2 SWAP1 POP JUMP JUMPDEST PUSH2 0xFDC DUP2 PUSH2 0xFC7 JUMP JUMPDEST DUP3 MSTORE POP POP JUMP JUMPDEST PUSH0 PUSH1 0x20 DUP3 ADD SWAP1 POP PUSH2 0xFF5 PUSH0 DUP4 ADD DUP5 PUSH2 0xFD3 JUMP JUMPDEST SWAP3 SWAP2 POP POP JUMP JUMPDEST PUSH32 0x596F7520617265206E6F7420746865206F776E65720000000000000000000000 PUSH0 DUP3 ADD MSTORE POP JUMP JUMPDEST PUSH0 PUSH2 0x102F PUSH1 0x15 DUP4 PUSH2 0xD74 JUMP JUMPDEST SWAP2 POP PUSH2 0x103A DUP3 PUSH2 0xFFB JUMP JUMPDEST PUSH1 0x20 DUP3 ADD SWAP1 POP SWAP2 SWAP1 POP JUMP JUMPDEST PUSH0 PUSH1 0x20 DUP3 ADD SWAP1 POP DUP2 DUP2 SUB PUSH0 DUP4 ADD MSTORE PUSH2 0x105C DUP2 PUSH2 0x1023 JUMP JUMPDEST SWAP1 POP SWAP2 SWAP1 POP JUMP JUMPDEST PUSH32 0x4E487B7100000000000000000000000000000000000000000000000000000000 PUSH0 MSTORE PUSH1 0x22 PUSH1 0x4 MSTORE PUSH1 0x24 PUSH0 REVERT JUMPDEST PUSH0 PUSH1 0x2 DUP3 DIV SWAP1 POP PUSH1 0x1 DUP3 AND DUP1 PUSH2 0x10A7 JUMPI PUSH1 0x7F DUP3 AND SWAP2 POP JUMPDEST PUSH1 0x20 DUP3 LT DUP2 SUB PUSH2 0x10BA JUMPI PUSH2 0x10B9 PUSH2 0x1063 JUMP JUMPDEST JUMPDEST POP SWAP2 SWAP1 POP JUMP JUMPDEST PUSH32 0x5472616E73666572206172652070617573656400000000000000000000000000 PUSH0 DUP3 ADD MSTORE POP JUMP JUMPDEST PUSH0 PUSH2 0x10F4 PUSH1 0x13 DUP4 PUSH2 0xD74 JUMP JUMPDEST SWAP2 POP PUSH2 0x10FF DUP3 PUSH2 0x10C0 JUMP JUMPDEST PUSH1 0x20 DUP3 ADD SWAP1 POP SWAP2 SWAP1 POP JUMP JUMPDEST PUSH0 PUSH1 0x20 DUP3 ADD SWAP1 POP DUP2 DUP2 SUB PUSH0 DUP4 ADD MSTORE PUSH2 0x1121 DUP2 PUSH2 0x10E8 JUMP JUMPDEST SWAP1 POP SWAP2 SWAP1 POP JUMP JUMPDEST PUSH32 0x496E76616C696420416464726573730000000000000000000000000000000000 PUSH0 DUP3 ADD MSTORE POP JUMP JUMPDEST PUSH0 PUSH2 0x115C PUSH1 0xF DUP4 PUSH2 0xD74 JUMP JUMPDEST SWAP2 POP PUSH2 0x1167 DUP3 PUSH2 0x1128 JUMP JUMPDEST PUSH1 0x20 DUP3 ADD SWAP1 POP SWAP2 SWAP1 POP JUMP JUMPDEST PUSH0 PUSH1 0x20 DUP3 ADD SWAP1 POP DUP2 DUP2 SUB PUSH0 DUP4 ADD MSTORE PUSH2 0x1189 DUP2 PUSH2 0x1150 JUMP JUMPDEST SWAP1 POP SWAP2 SWAP1 POP JUMP JUMPDEST PUSH32 0x496E73756666696369656E742042616C616E6365000000000000000000000000 PUSH0 DUP3 ADD MSTORE POP JUMP JUMPDEST PUSH0 PUSH2 0x11C4 PUSH1 0x14 DUP4 PUSH2 0xD74 JUMP JUMPDEST SWAP2 POP PUSH2 0x11CF DUP3 PUSH2 0x1190 JUMP JUMPDEST PUSH1 0x20 DUP3 ADD SWAP1 POP SWAP2 SWAP1 POP JUMP JUMPDEST PUSH0 PUSH1 0x20 DUP3 ADD SWAP1 POP DUP2 DUP2 SUB PUSH0 DUP4 ADD MSTORE PUSH2 0x11F1 DUP2 PUSH2 0x11B8 JUMP JUMPDEST SWAP1 POP SWAP2 SWAP1 POP JUMP JUMPDEST PUSH32 0x416C6C6F77616E63652045786365656465640000000000000000000000000000 PUSH0 DUP3 ADD MSTORE POP JUMP JUMPDEST PUSH0 PUSH2 0x122C PUSH1 0x12 DUP4 PUSH2 0xD74 JUMP JUMPDEST SWAP2 POP PUSH2 0x1237 DUP3 PUSH2 0x11F8 JUMP JUMPDEST PUSH1 0x20 DUP3 ADD SWAP1 POP SWAP2 SWAP1 POP JUMP JUMPDEST PUSH0 PUSH1 0x20 DUP3 ADD SWAP1 POP DUP2 DUP2 SUB PUSH0 DUP4 ADD MSTORE PUSH2 0x1259 DUP2 PUSH2 0x1220 JUMP JUMPDEST SWAP1 POP SWAP2 SWAP1 POP JUMP JUMPDEST PUSH32 0x4E487B7100000000000000000000000000000000000000000000000000000000 PUSH0 MSTORE PUSH1 0x12 PUSH1 0x4 MSTORE PUSH1 0x24 PUSH0 REVERT JUMPDEST PUSH32 0x4E487B7100000000000000000000000000000000000000000000000000000000 PUSH0 MSTORE PUSH1 0x11 PUSH1 0x4 MSTORE PUSH1 0x24 PUSH0 REVERT JUMPDEST PUSH0 PUSH2 0x12C4 DUP3 PUSH2 0xE58 JUMP JUMPDEST SWAP2 POP PUSH2 0x12CF DUP4 PUSH2 0xE58 JUMP JUMPDEST SWAP3 POP DUP3 PUSH2 0x12DF JUMPI PUSH2 0x12DE PUSH2 0x1260 JUMP JUMPDEST JUMPDEST DUP3 DUP3 DIV SWAP1 POP SWAP3 SWAP2 POP POP JUMP JUMPDEST PUSH32 0x416E74692D5768616C653A204D617820322520706572205472616E7366657200 PUSH0 DUP3 ADD MSTORE POP JUMP JUMPDEST PUSH0 PUSH2 0x131E PUSH1 0x1F DUP4 PUSH2 0xD74 JUMP JUMPDEST SWAP2 POP PUSH2 0x1329 DUP3 PUSH2 0x12EA JUMP JUMPDEST PUSH1 0x20 DUP3 ADD SWAP1 POP SWAP2 SWAP1 POP JUMP JUMPDEST PUSH0 PUSH1 0x20 DUP3 ADD SWAP1 POP DUP2 DUP2 SUB PUSH0 DUP4 ADD MSTORE PUSH2 0x134B DUP2 PUSH2 0x1312 JUMP JUMPDEST SWAP1 POP SWAP2 SWAP1 POP JUMP JUMPDEST PUSH0 PUSH2 0x135C DUP3 PUSH2 0xE58 JUMP JUMPDEST SWAP2 POP PUSH2 0x1367 DUP4 PUSH2 0xE58 JUMP JUMPDEST SWAP3 POP DUP3 DUP3 MUL PUSH2 0x1375 DUP2 PUSH2 0xE58 JUMP JUMPDEST SWAP2 POP DUP3 DUP3 DIV DUP5 EQ DUP4 ISZERO OR PUSH2 0x138C JUMPI PUSH2 0x138B PUSH2 0x128D JUMP JUMPDEST JUMPDEST POP SWAP3 SWAP2 POP POP JUMP JUMPDEST PUSH0 PUSH2 0x139D DUP3 PUSH2 0xE58 JUMP JUMPDEST SWAP2 POP PUSH2 0x13A8 DUP4 PUSH2 0xE58 JUMP JUMPDEST SWAP3 POP DUP3 DUP3 SUB SWAP1 POP DUP2 DUP2 GT ISZERO PUSH2 0x13C0 JUMPI PUSH2 0x13BF PUSH2 0x128D JUMP JUMPDEST JUMPDEST SWAP3 SWAP2 POP POP JUMP JUMPDEST PUSH0 PUSH2 0x13D0 DUP3 PUSH2 0xE58 JUMP JUMPDEST SWAP2 POP PUSH2 0x13DB DUP4 PUSH2 0xE58 JUMP JUMPDEST SWAP3 POP DUP3 DUP3 ADD SWAP1 POP DUP1 DUP3 GT ISZERO PUSH2 0x13F3 JUMPI PUSH2 0x13F2 PUSH2 0x128D JUMP JUMPDEST JUMPDEST SWAP3 SWAP2 POP POP JUMP JUMPDEST PUSH32 0x4E6F7420456E6F75676820546F6B656E00000000000000000000000000000000 PUSH0 DUP3 ADD MSTORE POP JUMP JUMPDEST PUSH0 PUSH2 0x142D PUSH1 0x10 DUP4 PUSH2 0xD74 JUMP JUMPDEST SWAP2 POP PUSH2 0x1438 DUP3 PUSH2 0x13F9 JUMP JUMPDEST PUSH1 0x20 DUP3 ADD SWAP1 POP SWAP2 SWAP1 POP JUMP JUMPDEST PUSH0 PUSH1 0x20 DUP3 ADD SWAP1 POP DUP2 DUP2 SUB PUSH0 DUP4 ADD MSTORE PUSH2 0x145A DUP2 PUSH2 0x1421 JUMP JUMPDEST SWAP1 POP SWAP2 SWAP1 POP JUMP JUMPDEST PUSH32 0x416E7469207768616C653A204D617820322520706572207472616E7366657200 PUSH0 DUP3 ADD MSTORE POP JUMP JUMPDEST PUSH0 PUSH2 0x1495 PUSH1 0x1F DUP4 PUSH2 0xD74 JUMP JUMPDEST SWAP2 POP PUSH2 0x14A0 DUP3 PUSH2 0x1461 JUMP JUMPDEST PUSH1 0x20 DUP3 ADD SWAP1 POP SWAP2 SWAP1 POP JUMP JUMPDEST PUSH0 PUSH1 0x20 DUP3 ADD SWAP1 POP DUP2 DUP2 SUB PUSH0 DUP4 ADD MSTORE PUSH2 0x14C2 DUP2 PUSH2 0x1489 JUMP JUMPDEST SWAP1 POP SWAP2 SWAP1 POP JUMP INVALID LOG2 PUSH5 0x6970667358 0x22 SLT KECCAK256 TLOAD PUSH4 0x720B341F 0x22 0xAD 0xE1 PUSH5 0xC220A602CE PUSH1 0x9 0xAF PC MLOAD DUP5 DUP9 0xEC REVERT 0xC5 0xC9 0xDD BLOBBASEFEE 0xB8 0xE2 PC 0xD8 PUSH5 0x736F6C6343 STOP ADDMOD BYTE STOP CALLER "
				},
				"gasEstimates": {
					"creation": {
						"codeDepositCost": "1075000",
						"executionCost": "infinite",
						"totalCost": "infinite"
					},
					"external": {
						"approve(address,uint256)": "23152",
						"burn(uint256)": "infinite",
						"decimels()": "2576",
						"name()": "infinite",
						"owner()": "2552",
						"pause()": "2539",
						"paused()": "26629",
						"symbol()": "infinite",
						"totalSupply()": "2492",
						"transfer(address,uint256)": "infinite",
						"transferFrom(address,address,uint256)": "infinite",
						"unPaused()": "26629"
					},
					"internal": {
						"_mint(address,uint256)": "infinite"
					}
				},
				"methodIdentifiers": {
					"approve(address,uint256)": "095ea7b3",
					"burn(uint256)": "42966c68",
					"decimels()": "f08782fc",
					"name()": "06fdde03",
					"owner()": "8da5cb5b",
					"pause()": "8456cb59",
					"paused()": "5c975abb",
					"symbol()": "95d89b41",
					"totalSupply()": "18160ddd",
					"transfer(address,uint256)": "a9059cbb",
					"transferFrom(address,address,uint256)": "23b872dd",
					"unPaused()": "061a46a9"
				}
			},
			"storageLayout": {
				"storage": [
					{
						"astId": 3,
						"contract": "TOKEN/GalaxyToken.sol:GalaxyToken",
						"label": "name",
						"offset": 0,
						"slot": "0",
						"type": "t_string_storage"
					},
					{
						"astId": 5,
						"contract": "TOKEN/GalaxyToken.sol:GalaxyToken",
						"label": "symbol",
						"offset": 0,
						"slot": "1",
						"type": "t_string_storage"
					},
					{
						"astId": 7,
						"contract": "TOKEN/GalaxyToken.sol:GalaxyToken",
						"label": "decimels",
						"offset": 0,
						"slot": "2",
						"type": "t_uint8"
					},
					{
						"astId": 9,
						"contract": "TOKEN/GalaxyToken.sol:GalaxyToken",
						"label": "totalSupply",
						"offset": 0,
						"slot": "3",
						"type": "t_uint256"
					},
					{
						"astId": 11,
						"contract": "TOKEN/GalaxyToken.sol:GalaxyToken",
						"label": "owner",
						"offset": 0,
						"slot": "4",
						"type": "t_address"
					},
					{
						"astId": 13,
						"contract": "TOKEN/GalaxyToken.sol:GalaxyToken",
						"label": "pause",
						"offset": 20,
						"slot": "4",
						"type": "t_bool"
					},
					{
						"astId": 17,
						"contract": "TOKEN/GalaxyToken.sol:GalaxyToken",
						"label": "balances",
						"offset": 0,
						"slot": "5",
						"type": "t_mapping(t_address,t_uint256)"
					},
					{
						"astId": 23,
						"contract": "TOKEN/GalaxyToken.sol:GalaxyToken",
						"label": "allowance",
						"offset": 0,
						"slot": "6",
						"type": "t_mapping(t_address,t_mapping(t_address,t_uint256))"
					}
				],
				"types": {
					"t_address": {
						"encoding": "inplace",
						"label": "address",
						"numberOfBytes": "20"
					},
					"t_bool": {
						"encoding": "inplace",
						"label": "bool",
						"numberOfBytes": "1"
					},
					"t_mapping(t_address,t_mapping(t_address,t_uint256))": {
						"encoding": "mapping",
						"key": "t_address",
						"label": "mapping(address => mapping(address => uint256))",
						"numberOfBytes": "32",
						"value": "t_mapping(t_address,t_uint256)"
					},
					"t_mapping(t_address,t_uint256)": {
						"encoding": "mapping",
						"key": "t_address",
						"label": "mapping(address => uint256)",
						"numberOfBytes": "32",
						"value": "t_uint256"
					},
					"t_string_storage": {
						"encoding": "bytes",
						"label": "string",
						"numberOfBytes": "32"
					},
					"t_uint256": {
						"encoding": "inplace",
						"label": "uint256",
						"numberOfBytes": "32"
					},
					"t_uint8": {
						"encoding": "inplace",
						"label": "uint8",
						"numberOfBytes": "1"
					}
				}
			},
			"userdoc": {
				"kind": "user",
				"methods": {},
				"version": 1
			}
		}
	}
}