{
	"Re-Ency/ReEncy.sol": {
		"ReentrancyVulnerable": {
			"abi": [
				{
					"inputs": [
						{
							"internalType": "address",
							"name": "",
							"type": "address"
						}
					],
					"name": "balances",
					"outputs": [
						{
							"internalType": "uint256",
							"name": "",
							"type": "uint256"
						}
					],
					"stateMutability": "view",
					"type": "function"
				},
				{
					"inputs": [],
					"name": "deposit",
					"outputs": [],
					"stateMutability": "payable",
					"type": "function"
				},
				{
					"inputs": [],
					"name": "getBalance",
					"outputs": [
						{
							"internalType": "uint256",
							"name": "",
							"type": "uint256"
						}
					],
					"stateMutability": "view",
					"type": "function"
				},
				{
					"inputs": [],
					"name": "withdraw",
					"outputs": [],
					"stateMutability": "nonpayable",
					"type": "function"
				}
			],
			"devdoc": {
				"kind": "dev",
				"methods": {},
				"version": 1
			},
			"evm": {
				"assembly": "    /* \"Re-Ency/ReEncy.sol\":58:677  contract ReentrancyVulnerable {... */\n  mstore(0x40, 0x80)\n  callvalue\n  dup1\n  iszero\n  tag_1\n  jumpi\n  revert(0x00, 0x00)\ntag_1:\n  pop\n  dataSize(sub_0)\n  dup1\n  dataOffset(sub_0)\n  0x00\n  codecopy\n  0x00\n  return\nstop\n\nsub_0: assembly {\n        /* \"Re-Ency/ReEncy.sol\":58:677  contract ReentrancyVulnerable {... */\n      mstore(0x40, 0x80)\n      jumpi(tag_1, lt(calldatasize, 0x04))\n      shr(0xe0, calldataload(0x00))\n      dup1\n      0x12065fe0\n      eq\n      tag_2\n      jumpi\n      dup1\n      0x27e235e3\n      eq\n      tag_3\n      jumpi\n      dup1\n      0x3ccfd60b\n      eq\n      tag_4\n      jumpi\n      dup1\n      0xd0e30db0\n      eq\n      tag_5\n      jumpi\n    tag_1:\n      revert(0x00, 0x00)\n        /* \"Re-Ency/ReEncy.sol\":578:675  function getBalance() public view returns (uint256) {... */\n    tag_2:\n      callvalue\n      dup1\n      iszero\n      tag_6\n      jumpi\n      revert(0x00, 0x00)\n    tag_6:\n      pop\n      tag_7\n      tag_8\n      jump\t// in\n    tag_7:\n      mload(0x40)\n      tag_9\n      swap2\n      swap1\n      tag_10\n      jump\t// in\n    tag_9:\n      mload(0x40)\n      dup1\n      swap2\n      sub\n      swap1\n      return\n        /* \"Re-Ency/ReEncy.sol\":94:137  mapping(address => uint256) public balances */\n    tag_3:\n      callvalue\n      dup1\n      iszero\n      tag_11\n      jumpi\n      revert(0x00, 0x00)\n    tag_11:\n      pop\n      tag_12\n      0x04\n      dup1\n      calldatasize\n      sub\n      dup2\n      add\n      swap1\n      tag_13\n      swap2\n      swap1\n      tag_14\n      jump\t// in\n    tag_13:\n      tag_15\n      jump\t// in\n    tag_12:\n      mload(0x40)\n      tag_16\n      swap2\n      swap1\n      tag_10\n      jump\t// in\n    tag_16:\n      mload(0x40)\n      dup1\n      swap2\n      sub\n      swap1\n      return\n        /* \"Re-Ency/ReEncy.sol\":282:544  function withdraw() public {... */\n    tag_4:\n      callvalue\n      dup1\n      iszero\n      tag_17\n      jumpi\n      revert(0x00, 0x00)\n    tag_17:\n      pop\n      tag_18\n      tag_19\n      jump\t// in\n    tag_18:\n      stop\n        /* \"Re-Ency/ReEncy.sol\":165:249  function deposit() public payable {... */\n    tag_5:\n      tag_20\n      tag_21\n      jump\t// in\n    tag_20:\n      stop\n        /* \"Re-Ency/ReEncy.sol\":578:675  function getBalance() public view returns (uint256) {... */\n    tag_8:\n        /* \"Re-Ency/ReEncy.sol\":621:628  uint256 */\n      0x00\n        /* \"Re-Ency/ReEncy.sol\":647:668  address(this).balance */\n      selfbalance\n        /* \"Re-Ency/ReEncy.sol\":640:668  return address(this).balance */\n      swap1\n      pop\n        /* \"Re-Ency/ReEncy.sol\":578:675  function getBalance() public view returns (uint256) {... */\n      swap1\n      jump\t// out\n        /* \"Re-Ency/ReEncy.sol\":94:137  mapping(address => uint256) public balances */\n    tag_15:\n      mstore(0x20, 0x00)\n      dup1\n      0x00\n      mstore\n      keccak256(0x00, 0x40)\n      0x00\n      swap2\n      pop\n      swap1\n      pop\n      sload\n      dup2\n      jump\t// out\n        /* \"Re-Ency/ReEncy.sol\":282:544  function withdraw() public {... */\n    tag_19:\n        /* \"Re-Ency/ReEncy.sol\":319:330  uint amount */\n      0x00\n        /* \"Re-Ency/ReEncy.sol\":333:341  balances */\n      0x00\n        /* \"Re-Ency/ReEncy.sol\":333:353  balances[msg.sender] */\n      0x00\n        /* \"Re-Ency/ReEncy.sol\":342:352  msg.sender */\n      caller\n        /* \"Re-Ency/ReEncy.sol\":333:353  balances[msg.sender] */\n      0xffffffffffffffffffffffffffffffffffffffff\n      and\n      0xffffffffffffffffffffffffffffffffffffffff\n      and\n      dup2\n      mstore\n      0x20\n      add\n      swap1\n      dup2\n      mstore\n      0x20\n      add\n      0x00\n      keccak256\n      sload\n        /* \"Re-Ency/ReEncy.sol\":319:353  uint amount = balances[msg.sender] */\n      swap1\n      pop\n        /* \"Re-Ency/ReEncy.sol\":380:381  0 */\n      0x00\n        /* \"Re-Ency/ReEncy.sol\":371:377  amount */\n      dup2\n        /* \"Re-Ency/ReEncy.sol\":371:381  amount > 0 */\n      gt\n        /* \"Re-Ency/ReEncy.sol\":363:396  require(amount > 0, \"No balance\") */\n      tag_24\n      jumpi\n      mload(0x40)\n      0x08c379a000000000000000000000000000000000000000000000000000000000\n      dup2\n      mstore\n      0x04\n      add\n      tag_25\n      swap1\n      tag_26\n      jump\t// in\n    tag_25:\n      mload(0x40)\n      dup1\n      swap2\n      sub\n      swap1\n      revert\n    tag_24:\n        /* \"Re-Ency/ReEncy.sol\":429:430  0 */\n      0x00\n        /* \"Re-Ency/ReEncy.sol\":406:414  balances */\n      0x00\n        /* \"Re-Ency/ReEncy.sol\":406:426  balances[msg.sender] */\n      0x00\n        /* \"Re-Ency/ReEncy.sol\":415:425  msg.sender */\n      caller\n        /* \"Re-Ency/ReEncy.sol\":406:426  balances[msg.sender] */\n      0xffffffffffffffffffffffffffffffffffffffff\n      and\n      0xffffffffffffffffffffffffffffffffffffffff\n      and\n      dup2\n      mstore\n      0x20\n      add\n      swap1\n      dup2\n      mstore\n      0x20\n      add\n      0x00\n      keccak256\n        /* \"Re-Ency/ReEncy.sol\":406:430  balances[msg.sender] = 0 */\n      dup2\n      swap1\n      sstore\n      pop\n        /* \"Re-Ency/ReEncy.sol\":441:450  bool sent */\n      0x00\n        /* \"Re-Ency/ReEncy.sol\":456:466  msg.sender */\n      caller\n        /* \"Re-Ency/ReEncy.sol\":456:471  msg.sender.call */\n      0xffffffffffffffffffffffffffffffffffffffff\n      and\n        /* \"Re-Ency/ReEncy.sol\":479:485  amount */\n      dup3\n        /* \"Re-Ency/ReEncy.sol\":456:490  msg.sender.call{value: amount}(\"\") */\n      mload(0x40)\n      tag_27\n      swap1\n      tag_28\n      jump\t// in\n    tag_27:\n      0x00\n      mload(0x40)\n      dup1\n      dup4\n      sub\n      dup2\n      dup6\n      dup8\n      gas\n      call\n      swap3\n      pop\n      pop\n      pop\n      returndatasize\n      dup1\n      0x00\n      dup2\n      eq\n      tag_31\n      jumpi\n      mload(0x40)\n      swap2\n      pop\n      and(add(returndatasize, 0x3f), not(0x1f))\n      dup3\n      add\n      0x40\n      mstore\n      returndatasize\n      dup3\n      mstore\n      returndatasize\n      0x00\n      0x20\n      dup5\n      add\n      returndatacopy\n      jump(tag_30)\n    tag_31:\n      0x60\n      swap2\n      pop\n    tag_30:\n      pop\n        /* \"Re-Ency/ReEncy.sol\":440:490  (bool sent, ) = msg.sender.call{value: amount}(\"\") */\n      pop\n      swap1\n      pop\n        /* \"Re-Ency/ReEncy.sol\":508:512  sent */\n      dup1\n        /* \"Re-Ency/ReEncy.sol\":500:537  require(sent, \"Failed to send Ether\") */\n      tag_32\n      jumpi\n      mload(0x40)\n      0x08c379a000000000000000000000000000000000000000000000000000000000\n      dup2\n      mstore\n      0x04\n      add\n      tag_33\n      swap1\n      tag_34\n      jump\t// in\n    tag_33:\n      mload(0x40)\n      dup1\n      swap2\n      sub\n      swap1\n      revert\n    tag_32:\n        /* \"Re-Ency/ReEncy.sol\":309:544  {... */\n      pop\n      pop\n        /* \"Re-Ency/ReEncy.sol\":282:544  function withdraw() public {... */\n      jump\t// out\n        /* \"Re-Ency/ReEncy.sol\":165:249  function deposit() public payable {... */\n    tag_21:\n        /* \"Re-Ency/ReEncy.sol\":233:242  msg.value */\n      callvalue\n        /* \"Re-Ency/ReEncy.sol\":209:217  balances */\n      0x00\n        /* \"Re-Ency/ReEncy.sol\":209:229  balances[msg.sender] */\n      0x00\n        /* \"Re-Ency/ReEncy.sol\":218:228  msg.sender */\n      caller\n        /* \"Re-Ency/ReEncy.sol\":209:229  balances[msg.sender] */\n      0xffffffffffffffffffffffffffffffffffffffff\n      and\n      0xffffffffffffffffffffffffffffffffffffffff\n      and\n      dup2\n      mstore\n      0x20\n      add\n      swap1\n      dup2\n      mstore\n      0x20\n      add\n      0x00\n      keccak256\n      0x00\n        /* \"Re-Ency/ReEncy.sol\":209:242  balances[msg.sender] += msg.value */\n      dup3\n      dup3\n      sload\n      tag_36\n      swap2\n      swap1\n      tag_37\n      jump\t// in\n    tag_36:\n      swap3\n      pop\n      pop\n      dup2\n      swap1\n      sstore\n      pop\n        /* \"Re-Ency/ReEncy.sol\":165:249  function deposit() public payable {... */\n      jump\t// out\n        /* \"#utility.yul\":7:84   */\n    tag_38:\n        /* \"#utility.yul\":44:51   */\n      0x00\n        /* \"#utility.yul\":73:78   */\n      dup2\n        /* \"#utility.yul\":62:78   */\n      swap1\n      pop\n        /* \"#utility.yul\":7:84   */\n      swap2\n      swap1\n      pop\n      jump\t// out\n        /* \"#utility.yul\":90:208   */\n    tag_39:\n        /* \"#utility.yul\":177:201   */\n      tag_59\n        /* \"#utility.yul\":195:200   */\n      dup2\n        /* \"#utility.yul\":177:201   */\n      tag_38\n      jump\t// in\n    tag_59:\n        /* \"#utility.yul\":172:175   */\n      dup3\n        /* \"#utility.yul\":165:202   */\n      mstore\n        /* \"#utility.yul\":90:208   */\n      pop\n      pop\n      jump\t// out\n        /* \"#utility.yul\":214:436   */\n    tag_10:\n        /* \"#utility.yul\":307:311   */\n      0x00\n        /* \"#utility.yul\":345:347   */\n      0x20\n        /* \"#utility.yul\":334:343   */\n      dup3\n        /* \"#utility.yul\":330:348   */\n      add\n        /* \"#utility.yul\":322:348   */\n      swap1\n      pop\n        /* \"#utility.yul\":358:429   */\n      tag_61\n        /* \"#utility.yul\":426:427   */\n      0x00\n        /* \"#utility.yul\":415:424   */\n      dup4\n        /* \"#utility.yul\":411:428   */\n      add\n        /* \"#utility.yul\":402:408   */\n      dup5\n        /* \"#utility.yul\":358:429   */\n      tag_39\n      jump\t// in\n    tag_61:\n        /* \"#utility.yul\":214:436   */\n      swap3\n      swap2\n      pop\n      pop\n      jump\t// out\n        /* \"#utility.yul\":523:640   */\n    tag_41:\n        /* \"#utility.yul\":632:633   */\n      0x00\n        /* \"#utility.yul\":629:630   */\n      0x00\n        /* \"#utility.yul\":622:634   */\n      revert\n        /* \"#utility.yul\":769:895   */\n    tag_43:\n        /* \"#utility.yul\":806:813   */\n      0x00\n        /* \"#utility.yul\":846:888   */\n      0xffffffffffffffffffffffffffffffffffffffff\n        /* \"#utility.yul\":839:844   */\n      dup3\n        /* \"#utility.yul\":835:889   */\n      and\n        /* \"#utility.yul\":824:889   */\n      swap1\n      pop\n        /* \"#utility.yul\":769:895   */\n      swap2\n      swap1\n      pop\n      jump\t// out\n        /* \"#utility.yul\":901:997   */\n    tag_44:\n        /* \"#utility.yul\":938:945   */\n      0x00\n        /* \"#utility.yul\":967:991   */\n      tag_67\n        /* \"#utility.yul\":985:990   */\n      dup3\n        /* \"#utility.yul\":967:991   */\n      tag_43\n      jump\t// in\n    tag_67:\n        /* \"#utility.yul\":956:991   */\n      swap1\n      pop\n        /* \"#utility.yul\":901:997   */\n      swap2\n      swap1\n      pop\n      jump\t// out\n        /* \"#utility.yul\":1003:1125   */\n    tag_45:\n        /* \"#utility.yul\":1076:1100   */\n      tag_69\n        /* \"#utility.yul\":1094:1099   */\n      dup2\n        /* \"#utility.yul\":1076:1100   */\n      tag_44\n      jump\t// in\n    tag_69:\n        /* \"#utility.yul\":1069:1074   */\n      dup2\n        /* \"#utility.yul\":1066:1101   */\n      eq\n        /* \"#utility.yul\":1056:1119   */\n      tag_70\n      jumpi\n        /* \"#utility.yul\":1115:1116   */\n      0x00\n        /* \"#utility.yul\":1112:1113   */\n      0x00\n        /* \"#utility.yul\":1105:1117   */\n      revert\n        /* \"#utility.yul\":1056:1119   */\n    tag_70:\n        /* \"#utility.yul\":1003:1125   */\n      pop\n      jump\t// out\n        /* \"#utility.yul\":1131:1270   */\n    tag_46:\n        /* \"#utility.yul\":1177:1182   */\n      0x00\n        /* \"#utility.yul\":1215:1221   */\n      dup2\n        /* \"#utility.yul\":1202:1222   */\n      calldataload\n        /* \"#utility.yul\":1193:1222   */\n      swap1\n      pop\n        /* \"#utility.yul\":1231:1264   */\n      tag_72\n        /* \"#utility.yul\":1258:1263   */\n      dup2\n        /* \"#utility.yul\":1231:1264   */\n      tag_45\n      jump\t// in\n    tag_72:\n        /* \"#utility.yul\":1131:1270   */\n      swap3\n      swap2\n      pop\n      pop\n      jump\t// out\n        /* \"#utility.yul\":1276:1605   */\n    tag_14:\n        /* \"#utility.yul\":1335:1341   */\n      0x00\n        /* \"#utility.yul\":1384:1386   */\n      0x20\n        /* \"#utility.yul\":1372:1381   */\n      dup3\n        /* \"#utility.yul\":1363:1370   */\n      dup5\n        /* \"#utility.yul\":1359:1382   */\n      sub\n        /* \"#utility.yul\":1355:1387   */\n      slt\n        /* \"#utility.yul\":1352:1471   */\n      iszero\n      tag_74\n      jumpi\n        /* \"#utility.yul\":1390:1469   */\n      tag_75\n      tag_41\n      jump\t// in\n    tag_75:\n        /* \"#utility.yul\":1352:1471   */\n    tag_74:\n        /* \"#utility.yul\":1510:1511   */\n      0x00\n        /* \"#utility.yul\":1535:1588   */\n      tag_76\n        /* \"#utility.yul\":1580:1587   */\n      dup5\n        /* \"#utility.yul\":1571:1577   */\n      dup3\n        /* \"#utility.yul\":1560:1569   */\n      dup6\n        /* \"#utility.yul\":1556:1578   */\n      add\n        /* \"#utility.yul\":1535:1588   */\n      tag_46\n      jump\t// in\n    tag_76:\n        /* \"#utility.yul\":1525:1588   */\n      swap2\n      pop\n        /* \"#utility.yul\":1481:1598   */\n      pop\n        /* \"#utility.yul\":1276:1605   */\n      swap3\n      swap2\n      pop\n      pop\n      jump\t// out\n        /* \"#utility.yul\":1611:1780   */\n    tag_47:\n        /* \"#utility.yul\":1695:1706   */\n      0x00\n        /* \"#utility.yul\":1729:1735   */\n      dup3\n        /* \"#utility.yul\":1724:1727   */\n      dup3\n        /* \"#utility.yul\":1717:1736   */\n      mstore\n        /* \"#utility.yul\":1769:1773   */\n      0x20\n        /* \"#utility.yul\":1764:1767   */\n      dup3\n        /* \"#utility.yul\":1760:1774   */\n      add\n        /* \"#utility.yul\":1745:1774   */\n      swap1\n      pop\n        /* \"#utility.yul\":1611:1780   */\n      swap3\n      swap2\n      pop\n      pop\n      jump\t// out\n        /* \"#utility.yul\":1786:1946   */\n    tag_48:\n        /* \"#utility.yul\":1926:1938   */\n      0x4e6f2062616c616e636500000000000000000000000000000000000000000000\n        /* \"#utility.yul\":1922:1923   */\n      0x00\n        /* \"#utility.yul\":1914:1920   */\n      dup3\n        /* \"#utility.yul\":1910:1924   */\n      add\n        /* \"#utility.yul\":1903:1939   */\n      mstore\n        /* \"#utility.yul\":1786:1946   */\n      pop\n      jump\t// out\n        /* \"#utility.yul\":1952:2318   */\n    tag_49:\n        /* \"#utility.yul\":2094:2097   */\n      0x00\n        /* \"#utility.yul\":2115:2182   */\n      tag_80\n        /* \"#utility.yul\":2179:2181   */\n      0x0a\n        /* \"#utility.yul\":2174:2177   */\n      dup4\n        /* \"#utility.yul\":2115:2182   */\n      tag_47\n      jump\t// in\n    tag_80:\n        /* \"#utility.yul\":2108:2182   */\n      swap2\n      pop\n        /* \"#utility.yul\":2191:2284   */\n      tag_81\n        /* \"#utility.yul\":2280:2283   */\n      dup3\n        /* \"#utility.yul\":2191:2284   */\n      tag_48\n      jump\t// in\n    tag_81:\n        /* \"#utility.yul\":2309:2311   */\n      0x20\n        /* \"#utility.yul\":2304:2307   */\n      dup3\n        /* \"#utility.yul\":2300:2312   */\n      add\n        /* \"#utility.yul\":2293:2312   */\n      swap1\n      pop\n        /* \"#utility.yul\":1952:2318   */\n      swap2\n      swap1\n      pop\n      jump\t// out\n        /* \"#utility.yul\":2324:2743   */\n    tag_26:\n        /* \"#utility.yul\":2490:2494   */\n      0x00\n        /* \"#utility.yul\":2528:2530   */\n      0x20\n        /* \"#utility.yul\":2517:2526   */\n      dup3\n        /* \"#utility.yul\":2513:2531   */\n      add\n        /* \"#utility.yul\":2505:2531   */\n      swap1\n      pop\n        /* \"#utility.yul\":2577:2586   */\n      dup2\n        /* \"#utility.yul\":2571:2575   */\n      dup2\n        /* \"#utility.yul\":2567:2587   */\n      sub\n        /* \"#utility.yul\":2563:2564   */\n      0x00\n        /* \"#utility.yul\":2552:2561   */\n      dup4\n        /* \"#utility.yul\":2548:2565   */\n      add\n        /* \"#utility.yul\":2541:2588   */\n      mstore\n        /* \"#utility.yul\":2605:2736   */\n      tag_83\n        /* \"#utility.yul\":2731:2735   */\n      dup2\n        /* \"#utility.yul\":2605:2736   */\n      tag_49\n      jump\t// in\n    tag_83:\n        /* \"#utility.yul\":2597:2736   */\n      swap1\n      pop\n        /* \"#utility.yul\":2324:2743   */\n      swap2\n      swap1\n      pop\n      jump\t// out\n        /* \"#utility.yul\":2749:2896   */\n    tag_50:\n        /* \"#utility.yul\":2850:2861   */\n      0x00\n        /* \"#utility.yul\":2887:2890   */\n      dup2\n        /* \"#utility.yul\":2872:2890   */\n      swap1\n      pop\n        /* \"#utility.yul\":2749:2896   */\n      swap3\n      swap2\n      pop\n      pop\n      jump\t// out\n        /* \"#utility.yul\":2902:3016   */\n    tag_51:\n      pop\n      jump\t// out\n        /* \"#utility.yul\":3022:3420   */\n    tag_52:\n        /* \"#utility.yul\":3181:3184   */\n      0x00\n        /* \"#utility.yul\":3202:3285   */\n      tag_87\n        /* \"#utility.yul\":3283:3284   */\n      0x00\n        /* \"#utility.yul\":3278:3281   */\n      dup4\n        /* \"#utility.yul\":3202:3285   */\n      tag_50\n      jump\t// in\n    tag_87:\n        /* \"#utility.yul\":3195:3285   */\n      swap2\n      pop\n        /* \"#utility.yul\":3294:3387   */\n      tag_88\n        /* \"#utility.yul\":3383:3386   */\n      dup3\n        /* \"#utility.yul\":3294:3387   */\n      tag_51\n      jump\t// in\n    tag_88:\n        /* \"#utility.yul\":3412:3413   */\n      0x00\n        /* \"#utility.yul\":3407:3410   */\n      dup3\n        /* \"#utility.yul\":3403:3414   */\n      add\n        /* \"#utility.yul\":3396:3414   */\n      swap1\n      pop\n        /* \"#utility.yul\":3022:3420   */\n      swap2\n      swap1\n      pop\n      jump\t// out\n        /* \"#utility.yul\":3426:3805   */\n    tag_28:\n        /* \"#utility.yul\":3610:3613   */\n      0x00\n        /* \"#utility.yul\":3632:3779   */\n      tag_90\n        /* \"#utility.yul\":3775:3778   */\n      dup3\n        /* \"#utility.yul\":3632:3779   */\n      tag_52\n      jump\t// in\n    tag_90:\n        /* \"#utility.yul\":3625:3779   */\n      swap2\n      pop\n        /* \"#utility.yul\":3796:3799   */\n      dup2\n        /* \"#utility.yul\":3789:3799   */\n      swap1\n      pop\n        /* \"#utility.yul\":3426:3805   */\n      swap2\n      swap1\n      pop\n      jump\t// out\n        /* \"#utility.yul\":3811:3981   */\n    tag_53:\n        /* \"#utility.yul\":3951:3973   */\n      0x4661696c656420746f2073656e64204574686572000000000000000000000000\n        /* \"#utility.yul\":3947:3948   */\n      0x00\n        /* \"#utility.yul\":3939:3945   */\n      dup3\n        /* \"#utility.yul\":3935:3949   */\n      add\n        /* \"#utility.yul\":3928:3974   */\n      mstore\n        /* \"#utility.yul\":3811:3981   */\n      pop\n      jump\t// out\n        /* \"#utility.yul\":3987:4353   */\n    tag_54:\n        /* \"#utility.yul\":4129:4132   */\n      0x00\n        /* \"#utility.yul\":4150:4217   */\n      tag_93\n        /* \"#utility.yul\":4214:4216   */\n      0x14\n        /* \"#utility.yul\":4209:4212   */\n      dup4\n        /* \"#utility.yul\":4150:4217   */\n      tag_47\n      jump\t// in\n    tag_93:\n        /* \"#utility.yul\":4143:4217   */\n      swap2\n      pop\n        /* \"#utility.yul\":4226:4319   */\n      tag_94\n        /* \"#utility.yul\":4315:4318   */\n      dup3\n        /* \"#utility.yul\":4226:4319   */\n      tag_53\n      jump\t// in\n    tag_94:\n        /* \"#utility.yul\":4344:4346   */\n      0x20\n        /* \"#utility.yul\":4339:4342   */\n      dup3\n        /* \"#utility.yul\":4335:4347   */\n      add\n        /* \"#utility.yul\":4328:4347   */\n      swap1\n      pop\n        /* \"#utility.yul\":3987:4353   */\n      swap2\n      swap1\n      pop\n      jump\t// out\n        /* \"#utility.yul\":4359:4778   */\n    tag_34:\n        /* \"#utility.yul\":4525:4529   */\n      0x00\n        /* \"#utility.yul\":4563:4565   */\n      0x20\n        /* \"#utility.yul\":4552:4561   */\n      dup3\n        /* \"#utility.yul\":4548:4566   */\n      add\n        /* \"#utility.yul\":4540:4566   */\n      swap1\n      pop\n        /* \"#utility.yul\":4612:4621   */\n      dup2\n        /* \"#utility.yul\":4606:4610   */\n      dup2\n        /* \"#utility.yul\":4602:4622   */\n      sub\n        /* \"#utility.yul\":4598:4599   */\n      0x00\n        /* \"#utility.yul\":4587:4596   */\n      dup4\n        /* \"#utility.yul\":4583:4600   */\n      add\n        /* \"#utility.yul\":4576:4623   */\n      mstore\n        /* \"#utility.yul\":4640:4771   */\n      tag_96\n        /* \"#utility.yul\":4766:4770   */\n      dup2\n        /* \"#utility.yul\":4640:4771   */\n      tag_54\n      jump\t// in\n    tag_96:\n        /* \"#utility.yul\":4632:4771   */\n      swap1\n      pop\n        /* \"#utility.yul\":4359:4778   */\n      swap2\n      swap1\n      pop\n      jump\t// out\n        /* \"#utility.yul\":4784:4964   */\n    tag_55:\n        /* \"#utility.yul\":4832:4909   */\n      0x4e487b7100000000000000000000000000000000000000000000000000000000\n        /* \"#utility.yul\":4829:4830   */\n      0x00\n        /* \"#utility.yul\":4822:4910   */\n      mstore\n        /* \"#utility.yul\":4929:4933   */\n      0x11\n        /* \"#utility.yul\":4926:4927   */\n      0x04\n        /* \"#utility.yul\":4919:4934   */\n      mstore\n        /* \"#utility.yul\":4953:4957   */\n      0x24\n        /* \"#utility.yul\":4950:4951   */\n      0x00\n        /* \"#utility.yul\":4943:4958   */\n      revert\n        /* \"#utility.yul\":4970:5161   */\n    tag_37:\n        /* \"#utility.yul\":5010:5013   */\n      0x00\n        /* \"#utility.yul\":5029:5049   */\n      tag_99\n        /* \"#utility.yul\":5047:5048   */\n      dup3\n        /* \"#utility.yul\":5029:5049   */\n      tag_38\n      jump\t// in\n    tag_99:\n        /* \"#utility.yul\":5024:5049   */\n      swap2\n      pop\n        /* \"#utility.yul\":5063:5083   */\n      tag_100\n        /* \"#utility.yul\":5081:5082   */\n      dup4\n        /* \"#utility.yul\":5063:5083   */\n      tag_38\n      jump\t// in\n    tag_100:\n        /* \"#utility.yul\":5058:5083   */\n      swap3\n      pop\n        /* \"#utility.yul\":5106:5107   */\n      dup3\n        /* \"#utility.yul\":5103:5104   */\n      dup3\n        /* \"#utility.yul\":5099:5108   */\n      add\n        /* \"#utility.yul\":5092:5108   */\n      swap1\n      pop\n        /* \"#utility.yul\":5127:5130   */\n      dup1\n        /* \"#utility.yul\":5124:5125   */\n      dup3\n        /* \"#utility.yul\":5121:5131   */\n      gt\n        /* \"#utility.yul\":5118:5154   */\n      iszero\n      tag_101\n      jumpi\n        /* \"#utility.yul\":5134:5152   */\n      tag_102\n      tag_55\n      jump\t// in\n    tag_102:\n        /* \"#utility.yul\":5118:5154   */\n    tag_101:\n        /* \"#utility.yul\":4970:5161   */\n      swap3\n      swap2\n      pop\n      pop\n      jump\t// out\n\n    auxdata: 0xa264697066735822122047b1987530a1fa9e9a9b3e31dc6d31244d6b21cf9f571eb506feb43e7e114a3464736f6c634300081d0033\n}\n",
				"bytecode": {
					"linkReferences": {},
					"object": "6080604052348015600e575f5ffd5b506105178061001c5f395ff3fe60806040526004361061003e575f3560e01c806312065fe01461004257806327e235e31461006c5780633ccfd60b146100a8578063d0e30db0146100be575b5f5ffd5b34801561004d575f5ffd5b506100566100c8565b60405161006391906102be565b60405180910390f35b348015610077575f5ffd5b50610092600480360381019061008d9190610335565b6100cf565b60405161009f91906102be565b60405180910390f35b3480156100b3575f5ffd5b506100bc6100e3565b005b6100c6610252565b005b5f47905090565b5f602052805f5260405f205f915090505481565b5f5f5f3373ffffffffffffffffffffffffffffffffffffffff1673ffffffffffffffffffffffffffffffffffffffff1681526020019081526020015f205490505f8111610165576040517f08c379a000000000000000000000000000000000000000000000000000000000815260040161015c906103ba565b60405180910390fd5b5f5f5f3373ffffffffffffffffffffffffffffffffffffffff1673ffffffffffffffffffffffffffffffffffffffff1681526020019081526020015f20819055505f3373ffffffffffffffffffffffffffffffffffffffff16826040516101cb90610405565b5f6040518083038185875af1925050503d805f8114610205576040519150601f19603f3d011682016040523d82523d5f602084013e61020a565b606091505b505090508061024e576040517f08c379a000000000000000000000000000000000000000000000000000000000815260040161024590610463565b60405180910390fd5b5050565b345f5f3373ffffffffffffffffffffffffffffffffffffffff1673ffffffffffffffffffffffffffffffffffffffff1681526020019081526020015f205f82825461029d91906104ae565b92505081905550565b5f819050919050565b6102b8816102a6565b82525050565b5f6020820190506102d15f8301846102af565b92915050565b5f5ffd5b5f73ffffffffffffffffffffffffffffffffffffffff82169050919050565b5f610304826102db565b9050919050565b610314816102fa565b811461031e575f5ffd5b50565b5f8135905061032f8161030b565b92915050565b5f6020828403121561034a576103496102d7565b5b5f61035784828501610321565b91505092915050565b5f82825260208201905092915050565b7f4e6f2062616c616e6365000000000000000000000000000000000000000000005f82015250565b5f6103a4600a83610360565b91506103af82610370565b602082019050919050565b5f6020820190508181035f8301526103d181610398565b9050919050565b5f81905092915050565b50565b5f6103f05f836103d8565b91506103fb826103e2565b5f82019050919050565b5f61040f826103e5565b9150819050919050565b7f4661696c656420746f2073656e642045746865720000000000000000000000005f82015250565b5f61044d601483610360565b915061045882610419565b602082019050919050565b5f6020820190508181035f83015261047a81610441565b9050919050565b7f4e487b71000000000000000000000000000000000000000000000000000000005f52601160045260245ffd5b5f6104b8826102a6565b91506104c3836102a6565b92508282019050808211156104db576104da610481565b5b9291505056fea264697066735822122047b1987530a1fa9e9a9b3e31dc6d31244d6b21cf9f571eb506feb43e7e114a3464736f6c634300081d0033",
					"opcodes": "PUSH1 0x80 PUSH1 0x40 MSTORE CALLVALUE DUP1 ISZERO PUSH1 0xE JUMPI PUSH0 PUSH0 REVERT JUMPDEST POP PUSH2 0x517 DUP1 PUSH2 0x1C PUSH0 CODECOPY PUSH0 RETURN INVALID PUSH1 0x80 PUSH1 0x40 MSTORE PUSH1 0x4 CALLDATASIZE LT PUSH2 0x3E JUMPI PUSH0 CALLDATALOAD PUSH1 0xE0 SHR DUP1 PUSH4 0x12065FE0 EQ PUSH2 0x42 JUMPI DUP1 PUSH4 0x27E235E3 EQ PUSH2 0x6C JUMPI DUP1 PUSH4 0x3CCFD60B EQ PUSH2 0xA8 JUMPI DUP1 PUSH4 0xD0E30DB0 EQ PUSH2 0xBE JUMPI JUMPDEST PUSH0 PUSH0 REVERT JUMPDEST CALLVALUE DUP1 ISZERO PUSH2 0x4D JUMPI PUSH0 PUSH0 REVERT JUMPDEST POP PUSH2 0x56 PUSH2 0xC8 JUMP JUMPDEST PUSH1 0x40 MLOAD PUSH2 0x63 SWAP2 SWAP1 PUSH2 0x2BE JUMP JUMPDEST PUSH1 0x40 MLOAD DUP1 SWAP2 SUB SWAP1 RETURN JUMPDEST CALLVALUE DUP1 ISZERO PUSH2 0x77 JUMPI PUSH0 PUSH0 REVERT JUMPDEST POP PUSH2 0x92 PUSH1 0x4 DUP1 CALLDATASIZE SUB DUP2 ADD SWAP1 PUSH2 0x8D SWAP2 SWAP1 PUSH2 0x335 JUMP JUMPDEST PUSH2 0xCF JUMP JUMPDEST PUSH1 0x40 MLOAD PUSH2 0x9F SWAP2 SWAP1 PUSH2 0x2BE JUMP JUMPDEST PUSH1 0x40 MLOAD DUP1 SWAP2 SUB SWAP1 RETURN JUMPDEST CALLVALUE DUP1 ISZERO PUSH2 0xB3 JUMPI PUSH0 PUSH0 REVERT JUMPDEST POP PUSH2 0xBC PUSH2 0xE3 JUMP JUMPDEST STOP JUMPDEST PUSH2 0xC6 PUSH2 0x252 JUMP JUMPDEST STOP JUMPDEST PUSH0 SELFBALANCE SWAP1 POP SWAP1 JUMP JUMPDEST PUSH0 PUSH1 0x20 MSTORE DUP1 PUSH0 MSTORE PUSH1 0x40 PUSH0 KECCAK256 PUSH0 SWAP2 POP SWAP1 POP SLOAD DUP2 JUMP JUMPDEST PUSH0 PUSH0 PUSH0 CALLER PUSH20 0xFFFFFFFFFFFFFFFFFFFFFFFFFFFFFFFFFFFFFFFF AND PUSH20 0xFFFFFFFFFFFFFFFFFFFFFFFFFFFFFFFFFFFFFFFF AND DUP2 MSTORE PUSH1 0x20 ADD SWAP1 DUP2 MSTORE PUSH1 0x20 ADD PUSH0 KECCAK256 SLOAD SWAP1 POP PUSH0 DUP2 GT PUSH2 0x165 JUMPI PUSH1 0x40 MLOAD PUSH32 0x8C379A000000000000000000000000000000000000000000000000000000000 DUP2 MSTORE PUSH1 0x4 ADD PUSH2 0x15C SWAP1 PUSH2 0x3BA JUMP JUMPDEST PUSH1 0x40 MLOAD DUP1 SWAP2 SUB SWAP1 REVERT JUMPDEST PUSH0 PUSH0 PUSH0 CALLER PUSH20 0xFFFFFFFFFFFFFFFFFFFFFFFFFFFFFFFFFFFFFFFF AND PUSH20 0xFFFFFFFFFFFFFFFFFFFFFFFFFFFFFFFFFFFFFFFF AND DUP2 MSTORE PUSH1 0x20 ADD SWAP1 DUP2 MSTORE PUSH1 0x20 ADD PUSH0 KECCAK256 DUP2 SWAP1 SSTORE POP PUSH0 CALLER PUSH20 0xFFFFFFFFFFFFFFFFFFFFFFFFFFFFFFFFFFFFFFFF AND DUP3 PUSH1 0x40 MLOAD PUSH2 0x1CB SWAP1 PUSH2 0x405 JUMP JUMPDEST PUSH0 PUSH1 0x40 MLOAD DUP1 DUP4 SUB DUP2 DUP6 DUP8 GAS CALL SWAP3 POP POP POP RETURNDATASIZE DUP1 PUSH0 DUP2 EQ PUSH2 0x205 JUMPI PUSH1 0x40 MLOAD SWAP2 POP PUSH1 0x1F NOT PUSH1 0x3F RETURNDATASIZE ADD AND DUP3 ADD PUSH1 0x40 MSTORE RETURNDATASIZE DUP3 MSTORE RETURNDATASIZE PUSH0 PUSH1 0x20 DUP5 ADD RETURNDATACOPY PUSH2 0x20A JUMP JUMPDEST PUSH1 0x60 SWAP2 POP JUMPDEST POP POP SWAP1 POP DUP1 PUSH2 0x24E JUMPI PUSH1 0x40 MLOAD PUSH32 0x8C379A000000000000000000000000000000000000000000000000000000000 DUP2 MSTORE PUSH1 0x4 ADD PUSH2 0x245 SWAP1 PUSH2 0x463 JUMP JUMPDEST PUSH1 0x40 MLOAD DUP1 SWAP2 SUB SWAP1 REVERT JUMPDEST POP POP JUMP JUMPDEST CALLVALUE PUSH0 PUSH0 CALLER PUSH20 0xFFFFFFFFFFFFFFFFFFFFFFFFFFFFFFFFFFFFFFFF AND PUSH20 0xFFFFFFFFFFFFFFFFFFFFFFFFFFFFFFFFFFFFFFFF AND DUP2 MSTORE PUSH1 0x20 ADD SWAP1 DUP2 MSTORE PUSH1 0x20 ADD PUSH0 KECCAK256 PUSH0 DUP3 DUP3 SLOAD PUSH2 0x29D SWAP2 SWAP1 PUSH2 0x4AE JUMP JUMPDEST SWAP3 POP POP DUP2 SWAP1 SSTORE POP JUMP JUMPDEST PUSH0 DUP2 SWAP1 POP SWAP2 SWAP1 POP JUMP JUMPDEST PUSH2 0x2B8 DUP2 PUSH2 0x2A6 JUMP JUMPDEST DUP3 MSTORE POP POP JUMP JUMPDEST PUSH0 PUSH1 0x20 DUP3 ADD SWAP1 POP PUSH2 0x2D1 PUSH0 DUP4 ADD DUP5 PUSH2 0x2AF JUMP JUMPDEST SWAP3 SWAP2 POP POP JUMP JUMPDEST PUSH0 PUSH0 REVERT JUMPDEST PUSH0 PUSH20 0xFFFFFFFFFFFFFFFFFFFFFFFFFFFFFFFFFFFFFFFF DUP3 AND SWAP1 POP SWAP2 SWAP1 POP JUMP JUMPDEST PUSH0 PUSH2 0x304 DUP3 PUSH2 0x2DB JUMP JUMPDEST SWAP1 POP SWAP2 SWAP1 POP JUMP JUMPDEST PUSH2 0x314 DUP2 PUSH2 0x2FA JUMP JUMPDEST DUP2 EQ PUSH2 0x31E JUMPI PUSH0 PUSH0 REVERT JUMPDEST POP JUMP JUMPDEST PUSH0 DUP2 CALLDATALOAD SWAP1 POP PUSH2 0x32F DUP2 PUSH2 0x30B JUMP JUMPDEST SWAP3 SWAP2 POP POP JUMP JUMPDEST PUSH0 PUSH1 0x20 DUP3 DUP5 SUB SLT ISZERO PUSH2 0x34A JUMPI PUSH2 0x349 PUSH2 0x2D7 JUMP JUMPDEST JUMPDEST PUSH0 PUSH2 0x357 DUP5 DUP3 DUP6 ADD PUSH2 0x321 JUMP JUMPDEST SWAP2 POP POP SWAP3 SWAP2 POP POP JUMP JUMPDEST PUSH0 DUP3 DUP3 MSTORE PUSH1 0x20 DUP3 ADD SWAP1 POP SWAP3 SWAP2 POP POP JUMP JUMPDEST PUSH32 0x4E6F2062616C616E636500000000000000000000000000000000000000000000 PUSH0 DUP3 ADD MSTORE POP JUMP JUMPDEST PUSH0 PUSH2 0x3A4 PUSH1 0xA DUP4 PUSH2 0x360 JUMP JUMPDEST SWAP2 POP PUSH2 0x3AF DUP3 PUSH2 0x370 JUMP JUMPDEST PUSH1 0x20 DUP3 ADD SWAP1 POP SWAP2 SWAP1 POP JUMP JUMPDEST PUSH0 PUSH1 0x20 DUP3 ADD SWAP1 POP DUP2 DUP2 SUB PUSH0 DUP4 ADD MSTORE PUSH2 0x3D1 DUP2 PUSH2 0x398 JUMP JUMPDEST SWAP1 POP SWAP2 SWAP1 POP JUMP JUMPDEST PUSH0 DUP2 SWAP1 POP SWAP3 SWAP2 POP POP JUMP JUMPDEST POP JUMP JUMPDEST PUSH0 PUSH2 0x3F0 PUSH0 DUP4 PUSH2 0x3D8 JUMP JUMPDEST SWAP2 POP PUSH2 0x3FB DUP3 PUSH2 0x3E2 JUMP JUMPDEST PUSH0 DUP3 ADD SWAP1 POP SWAP2 SWAP1 POP JUMP JUMPDEST PUSH0 PUSH2 0x40F DUP3 PUSH2 0x3E5 JUMP JUMPDEST SWAP2 POP DUP2 SWAP1 POP SWAP2 SWAP1 POP JUMP JUMPDEST PUSH32 0x4661696C656420746F2073656E64204574686572000000000000000000000000 PUSH0 DUP3 ADD MSTORE POP JUMP JUMPDEST PUSH0 PUSH2 0x44D PUSH1 0x14 DUP4 PUSH2 0x360 JUMP JUMPDEST SWAP2 POP PUSH2 0x458 DUP3 PUSH2 0x419 JUMP JUMPDEST PUSH1 0x20 DUP3 ADD SWAP1 POP SWAP2 SWAP1 POP JUMP JUMPDEST PUSH0 PUSH1 0x20 DUP3 ADD SWAP1 POP DUP2 DUP2 SUB PUSH0 DUP4 ADD MSTORE PUSH2 0x47A DUP2 PUSH2 0x441 JUMP JUMPDEST SWAP1 POP SWAP2 SWAP1 POP JUMP JUMPDEST PUSH32 0x4E487B7100000000000000000000000000000000000000000000000000000000 PUSH0 MSTORE PUSH1 0x11 PUSH1 0x4 MSTORE PUSH1 0x24 PUSH0 REVERT JUMPDEST PUSH0 PUSH2 0x4B8 DUP3 PUSH2 0x2A6 JUMP JUMPDEST SWAP2 POP PUSH2 0x4C3 DUP4 PUSH2 0x2A6 JUMP JUMPDEST SWAP3 POP DUP3 DUP3 ADD SWAP1 POP DUP1 DUP3 GT ISZERO PUSH2 0x4DB JUMPI PUSH2 0x4DA PUSH2 0x481 JUMP JUMPDEST JUMPDEST SWAP3 SWAP2 POP POP JUMP INVALID LOG2 PUSH5 0x6970667358 0x22 SLT KECCAK256 SELFBALANCE 0xB1 SWAP9 PUSH22 0x30A1FA9E9A9B3E31DC6D31244D6B21CF9F571EB506FE 0xB4 RETURNDATACOPY PUSH31 0x114A3464736F6C634300081D00330000000000000000000000000000000000 "
				},
				"gasEstimates": {
					"creation": {
						"codeDepositCost": "260600",
						"executionCost": "298",
						"totalCost": "260898"
					},
					"external": {
						"balances(address)": "2801",
						"deposit()": "infinite",
						"getBalance()": "312",
						"withdraw()": "infinite"
					}
				},
				"methodIdentifiers": {
					"balances(address)": "27e235e3",
					"deposit()": "d0e30db0",
					"getBalance()": "12065fe0",
					"withdraw()": "3ccfd60b"
				}
			},
			"storageLayout": {
				"storage": [
					{
						"astId": 5,
						"contract": "Re-Ency/ReEncy.sol:ReentrancyVulnerable",
						"label": "balances",
						"offset": 0,
						"slot": "0",
						"type": "t_mapping(t_address,t_uint256)"
					}
				],
				"types": {
					"t_address": {
						"encoding": "inplace",
						"label": "address",
						"numberOfBytes": "20"
					},
					"t_mapping(t_address,t_uint256)": {
						"encoding": "mapping",
						"key": "t_address",
						"label": "mapping(address => uint256)",
						"numberOfBytes": "32",
						"value": "t_uint256"
					},
					"t_uint256": {
						"encoding": "inplace",
						"label": "uint256",
						"numberOfBytes": "32"
					}
				}
			},
			"userdoc": {
				"kind": "user",
				"methods": {},
				"version": 1
			}
		}
	}
}