{
	"NewLearning/StructPrac.sol": {
		"structPrac": {
			"abi": [
				{
					"inputs": [
						{
							"internalType": "address",
							"name": "account",
							"type": "address"
						},
						{
							"internalType": "string",
							"name": "name",
							"type": "string"
						},
						{
							"internalType": "uint256",
							"name": "roll",
							"type": "uint256"
						},
						{
							"internalType": "uint256",
							"name": "grade",
							"type": "uint256"
						}
					],
					"name": "addStudent",
					"outputs": [
						{
							"internalType": "bool",
							"name": "",
							"type": "bool"
						}
					],
					"stateMutability": "nonpayable",
					"type": "function"
				}
			],
			"devdoc": {
				"kind": "dev",
				"methods": {},
				"version": 1
			},
			"evm": {
				"assembly": "    /* \"NewLearning/StructPrac.sol\":61:471  contract structPrac{... */\n  mstore(0x40, 0x80)\n  callvalue\n  dup1\n  iszero\n  tag_1\n  jumpi\n  revert(0x00, 0x00)\ntag_1:\n  pop\n  dataSize(sub_0)\n  dup1\n  dataOffset(sub_0)\n  0x00\n  codecopy\n  0x00\n  return\nstop\n\nsub_0: assembly {\n        /* \"NewLearning/StructPrac.sol\":61:471  contract structPrac{... */\n      mstore(0x40, 0x80)\n      callvalue\n      dup1\n      iszero\n      tag_1\n      jumpi\n      revert(0x00, 0x00)\n    tag_1:\n      pop\n      jumpi(tag_2, lt(calldatasize, 0x04))\n      shr(0xe0, calldataload(0x00))\n      dup1\n      0xe34b30ca\n      eq\n      tag_3\n      jumpi\n    tag_2:\n      revert(0x00, 0x00)\n        /* \"NewLearning/StructPrac.sol\":275:468  function addStudent(address account, string calldata name, uint256 roll, uint256 grade) public returns(bool){... */\n    tag_3:\n      tag_4\n      0x04\n      dup1\n      calldatasize\n      sub\n      dup2\n      add\n      swap1\n      tag_5\n      swap2\n      swap1\n      tag_6\n      jump\t// in\n    tag_5:\n      tag_7\n      jump\t// in\n    tag_4:\n      mload(0x40)\n      tag_8\n      swap2\n      swap1\n      tag_9\n      jump\t// in\n    tag_8:\n      mload(0x40)\n      dup1\n      swap2\n      sub\n      swap1\n      return\n    tag_7:\n        /* \"NewLearning/StructPrac.sol\":378:382  bool */\n      0x00\n        /* \"NewLearning/StructPrac.sol\":414:438  Student(name,roll,grade) */\n      mload(0x40)\n      dup1\n      0x60\n      add\n      0x40\n      mstore\n      dup1\n        /* \"NewLearning/StructPrac.sol\":422:426  name */\n      dup7\n      dup7\n        /* \"NewLearning/StructPrac.sol\":414:438  Student(name,roll,grade) */\n      dup1\n      dup1\n      0x1f\n      add\n      0x20\n      dup1\n      swap2\n      div\n      mul\n      0x20\n      add\n      mload(0x40)\n      swap1\n      dup2\n      add\n      0x40\n      mstore\n      dup1\n      swap4\n      swap3\n      swap2\n      swap1\n      dup2\n      dup2\n      mstore\n      0x20\n      add\n      dup4\n      dup4\n      dup1\n      dup3\n      dup5\n      calldatacopy\n      0x00\n      dup2\n      dup5\n      add\n      mstore\n      not(0x1f)\n      0x1f\n      dup3\n      add\n      and\n      swap1\n      pop\n      dup1\n      dup4\n      add\n      swap3\n      pop\n      pop\n      pop\n      pop\n      pop\n      pop\n      pop\n      dup2\n      mstore\n      0x20\n      add\n        /* \"NewLearning/StructPrac.sol\":427:431  roll */\n      dup5\n        /* \"NewLearning/StructPrac.sol\":414:438  Student(name,roll,grade) */\n      dup2\n      mstore\n      0x20\n      add\n        /* \"NewLearning/StructPrac.sol\":432:437  grade */\n      dup4\n        /* \"NewLearning/StructPrac.sol\":414:438  Student(name,roll,grade) */\n      dup2\n      mstore\n      pop\n        /* \"NewLearning/StructPrac.sol\":394:402  Students */\n      0x01\n        /* \"NewLearning/StructPrac.sol\":394:411  Students[account] */\n      0x00\n        /* \"NewLearning/StructPrac.sol\":403:410  account */\n      dup9\n        /* \"NewLearning/StructPrac.sol\":394:411  Students[account] */\n      0xffffffffffffffffffffffffffffffffffffffff\n      and\n      0xffffffffffffffffffffffffffffffffffffffff\n      and\n      dup2\n      mstore\n      0x20\n      add\n      swap1\n      dup2\n      mstore\n      0x20\n      add\n      0x00\n      keccak256\n        /* \"NewLearning/StructPrac.sol\":394:438  Students[account] = Student(name,roll,grade) */\n      0x00\n      dup3\n      add\n      mload\n      dup2\n      0x00\n      add\n      swap1\n      dup2\n      tag_11\n      swap2\n      swap1\n      tag_12\n      jump\t// in\n    tag_11:\n      pop\n      0x20\n      dup3\n      add\n      mload\n      dup2\n      0x01\n      add\n      sstore\n      0x40\n      dup3\n      add\n      mload\n      dup2\n      0x02\n      add\n      sstore\n      swap1\n      pop\n      pop\n        /* \"NewLearning/StructPrac.sol\":456:460  true */\n      0x01\n        /* \"NewLearning/StructPrac.sol\":449:460  return true */\n      swap1\n      pop\n        /* \"NewLearning/StructPrac.sol\":275:468  function addStudent(address account, string calldata name, uint256 roll, uint256 grade) public returns(bool){... */\n      swap6\n      swap5\n      pop\n      pop\n      pop\n      pop\n      pop\n      jump\t// out\n        /* \"#utility.yul\":88:205   */\n    tag_14:\n        /* \"#utility.yul\":197:198   */\n      0x00\n        /* \"#utility.yul\":194:195   */\n      0x00\n        /* \"#utility.yul\":187:199   */\n      revert\n        /* \"#utility.yul\":211:328   */\n    tag_15:\n        /* \"#utility.yul\":320:321   */\n      0x00\n        /* \"#utility.yul\":317:318   */\n      0x00\n        /* \"#utility.yul\":310:322   */\n      revert\n        /* \"#utility.yul\":334:460   */\n    tag_16:\n        /* \"#utility.yul\":371:378   */\n      0x00\n        /* \"#utility.yul\":411:453   */\n      0xffffffffffffffffffffffffffffffffffffffff\n        /* \"#utility.yul\":404:409   */\n      dup3\n        /* \"#utility.yul\":400:454   */\n      and\n        /* \"#utility.yul\":389:454   */\n      swap1\n      pop\n        /* \"#utility.yul\":334:460   */\n      swap2\n      swap1\n      pop\n      jump\t// out\n        /* \"#utility.yul\":466:562   */\n    tag_17:\n        /* \"#utility.yul\":503:510   */\n      0x00\n        /* \"#utility.yul\":532:556   */\n      tag_54\n        /* \"#utility.yul\":550:555   */\n      dup3\n        /* \"#utility.yul\":532:556   */\n      tag_16\n      jump\t// in\n    tag_54:\n        /* \"#utility.yul\":521:556   */\n      swap1\n      pop\n        /* \"#utility.yul\":466:562   */\n      swap2\n      swap1\n      pop\n      jump\t// out\n        /* \"#utility.yul\":568:690   */\n    tag_18:\n        /* \"#utility.yul\":641:665   */\n      tag_56\n        /* \"#utility.yul\":659:664   */\n      dup2\n        /* \"#utility.yul\":641:665   */\n      tag_17\n      jump\t// in\n    tag_56:\n        /* \"#utility.yul\":634:639   */\n      dup2\n        /* \"#utility.yul\":631:666   */\n      eq\n        /* \"#utility.yul\":621:684   */\n      tag_57\n      jumpi\n        /* \"#utility.yul\":680:681   */\n      0x00\n        /* \"#utility.yul\":677:678   */\n      0x00\n        /* \"#utility.yul\":670:682   */\n      revert\n        /* \"#utility.yul\":621:684   */\n    tag_57:\n        /* \"#utility.yul\":568:690   */\n      pop\n      jump\t// out\n        /* \"#utility.yul\":696:835   */\n    tag_19:\n        /* \"#utility.yul\":742:747   */\n      0x00\n        /* \"#utility.yul\":780:786   */\n      dup2\n        /* \"#utility.yul\":767:787   */\n      calldataload\n        /* \"#utility.yul\":758:787   */\n      swap1\n      pop\n        /* \"#utility.yul\":796:829   */\n      tag_59\n        /* \"#utility.yul\":823:828   */\n      dup2\n        /* \"#utility.yul\":796:829   */\n      tag_18\n      jump\t// in\n    tag_59:\n        /* \"#utility.yul\":696:835   */\n      swap3\n      swap2\n      pop\n      pop\n      jump\t// out\n        /* \"#utility.yul\":841:958   */\n    tag_20:\n        /* \"#utility.yul\":950:951   */\n      0x00\n        /* \"#utility.yul\":947:948   */\n      0x00\n        /* \"#utility.yul\":940:952   */\n      revert\n        /* \"#utility.yul\":964:1081   */\n    tag_21:\n        /* \"#utility.yul\":1073:1074   */\n      0x00\n        /* \"#utility.yul\":1070:1071   */\n      0x00\n        /* \"#utility.yul\":1063:1075   */\n      revert\n        /* \"#utility.yul\":1087:1204   */\n    tag_22:\n        /* \"#utility.yul\":1196:1197   */\n      0x00\n        /* \"#utility.yul\":1193:1194   */\n      0x00\n        /* \"#utility.yul\":1186:1198   */\n      revert\n        /* \"#utility.yul\":1224:1777   */\n    tag_23:\n        /* \"#utility.yul\":1282:1290   */\n      0x00\n        /* \"#utility.yul\":1292:1298   */\n      0x00\n        /* \"#utility.yul\":1342:1345   */\n      dup4\n        /* \"#utility.yul\":1335:1339   */\n      0x1f\n        /* \"#utility.yul\":1327:1333   */\n      dup5\n        /* \"#utility.yul\":1323:1340   */\n      add\n        /* \"#utility.yul\":1319:1346   */\n      slt\n        /* \"#utility.yul\":1309:1431   */\n      tag_64\n      jumpi\n        /* \"#utility.yul\":1350:1429   */\n      tag_65\n      tag_20\n      jump\t// in\n    tag_65:\n        /* \"#utility.yul\":1309:1431   */\n    tag_64:\n        /* \"#utility.yul\":1463:1469   */\n      dup3\n        /* \"#utility.yul\":1450:1470   */\n      calldataload\n        /* \"#utility.yul\":1440:1470   */\n      swap1\n      pop\n        /* \"#utility.yul\":1493:1511   */\n      0xffffffffffffffff\n        /* \"#utility.yul\":1485:1491   */\n      dup2\n        /* \"#utility.yul\":1482:1512   */\n      gt\n        /* \"#utility.yul\":1479:1596   */\n      iszero\n      tag_66\n      jumpi\n        /* \"#utility.yul\":1515:1594   */\n      tag_67\n      tag_21\n      jump\t// in\n    tag_67:\n        /* \"#utility.yul\":1479:1596   */\n    tag_66:\n        /* \"#utility.yul\":1629:1633   */\n      0x20\n        /* \"#utility.yul\":1621:1627   */\n      dup4\n        /* \"#utility.yul\":1617:1634   */\n      add\n        /* \"#utility.yul\":1605:1634   */\n      swap2\n      pop\n        /* \"#utility.yul\":1683:1686   */\n      dup4\n        /* \"#utility.yul\":1675:1679   */\n      0x01\n        /* \"#utility.yul\":1667:1673   */\n      dup3\n        /* \"#utility.yul\":1663:1680   */\n      mul\n        /* \"#utility.yul\":1653:1661   */\n      dup4\n        /* \"#utility.yul\":1649:1681   */\n      add\n        /* \"#utility.yul\":1646:1687   */\n      gt\n        /* \"#utility.yul\":1643:1771   */\n      iszero\n      tag_68\n      jumpi\n        /* \"#utility.yul\":1690:1769   */\n      tag_69\n      tag_22\n      jump\t// in\n    tag_69:\n        /* \"#utility.yul\":1643:1771   */\n    tag_68:\n        /* \"#utility.yul\":1224:1777   */\n      swap3\n      pop\n      swap3\n      swap1\n      pop\n      jump\t// out\n        /* \"#utility.yul\":1783:1860   */\n    tag_24:\n        /* \"#utility.yul\":1820:1827   */\n      0x00\n        /* \"#utility.yul\":1849:1854   */\n      dup2\n        /* \"#utility.yul\":1838:1854   */\n      swap1\n      pop\n        /* \"#utility.yul\":1783:1860   */\n      swap2\n      swap1\n      pop\n      jump\t// out\n        /* \"#utility.yul\":1866:1988   */\n    tag_25:\n        /* \"#utility.yul\":1939:1963   */\n      tag_72\n        /* \"#utility.yul\":1957:1962   */\n      dup2\n        /* \"#utility.yul\":1939:1963   */\n      tag_24\n      jump\t// in\n    tag_72:\n        /* \"#utility.yul\":1932:1937   */\n      dup2\n        /* \"#utility.yul\":1929:1964   */\n      eq\n        /* \"#utility.yul\":1919:1982   */\n      tag_73\n      jumpi\n        /* \"#utility.yul\":1978:1979   */\n      0x00\n        /* \"#utility.yul\":1975:1976   */\n      0x00\n        /* \"#utility.yul\":1968:1980   */\n      revert\n        /* \"#utility.yul\":1919:1982   */\n    tag_73:\n        /* \"#utility.yul\":1866:1988   */\n      pop\n      jump\t// out\n        /* \"#utility.yul\":1994:2133   */\n    tag_26:\n        /* \"#utility.yul\":2040:2045   */\n      0x00\n        /* \"#utility.yul\":2078:2084   */\n      dup2\n        /* \"#utility.yul\":2065:2085   */\n      calldataload\n        /* \"#utility.yul\":2056:2085   */\n      swap1\n      pop\n        /* \"#utility.yul\":2094:2127   */\n      tag_75\n        /* \"#utility.yul\":2121:2126   */\n      dup2\n        /* \"#utility.yul\":2094:2127   */\n      tag_25\n      jump\t// in\n    tag_75:\n        /* \"#utility.yul\":1994:2133   */\n      swap3\n      swap2\n      pop\n      pop\n      jump\t// out\n        /* \"#utility.yul\":2139:3104   */\n    tag_6:\n        /* \"#utility.yul\":2237:2243   */\n      0x00\n        /* \"#utility.yul\":2245:2251   */\n      0x00\n        /* \"#utility.yul\":2253:2259   */\n      0x00\n        /* \"#utility.yul\":2261:2267   */\n      0x00\n        /* \"#utility.yul\":2269:2275   */\n      0x00\n        /* \"#utility.yul\":2318:2321   */\n      0x80\n        /* \"#utility.yul\":2306:2315   */\n      dup7\n        /* \"#utility.yul\":2297:2304   */\n      dup9\n        /* \"#utility.yul\":2293:2316   */\n      sub\n        /* \"#utility.yul\":2289:2322   */\n      slt\n        /* \"#utility.yul\":2286:2406   */\n      iszero\n      tag_77\n      jumpi\n        /* \"#utility.yul\":2325:2404   */\n      tag_78\n      tag_14\n      jump\t// in\n    tag_78:\n        /* \"#utility.yul\":2286:2406   */\n    tag_77:\n        /* \"#utility.yul\":2445:2446   */\n      0x00\n        /* \"#utility.yul\":2470:2523   */\n      tag_79\n        /* \"#utility.yul\":2515:2522   */\n      dup9\n        /* \"#utility.yul\":2506:2512   */\n      dup3\n        /* \"#utility.yul\":2495:2504   */\n      dup10\n        /* \"#utility.yul\":2491:2513   */\n      add\n        /* \"#utility.yul\":2470:2523   */\n      tag_19\n      jump\t// in\n    tag_79:\n        /* \"#utility.yul\":2460:2523   */\n      swap6\n      pop\n        /* \"#utility.yul\":2416:2533   */\n      pop\n        /* \"#utility.yul\":2600:2602   */\n      0x20\n        /* \"#utility.yul\":2589:2598   */\n      dup7\n        /* \"#utility.yul\":2585:2603   */\n      add\n        /* \"#utility.yul\":2572:2604   */\n      calldataload\n        /* \"#utility.yul\":2631:2649   */\n      0xffffffffffffffff\n        /* \"#utility.yul\":2623:2629   */\n      dup2\n        /* \"#utility.yul\":2620:2650   */\n      gt\n        /* \"#utility.yul\":2617:2734   */\n      iszero\n      tag_80\n      jumpi\n        /* \"#utility.yul\":2653:2732   */\n      tag_81\n      tag_15\n      jump\t// in\n    tag_81:\n        /* \"#utility.yul\":2617:2734   */\n    tag_80:\n        /* \"#utility.yul\":2766:2831   */\n      tag_82\n        /* \"#utility.yul\":2823:2830   */\n      dup9\n        /* \"#utility.yul\":2814:2820   */\n      dup3\n        /* \"#utility.yul\":2803:2812   */\n      dup10\n        /* \"#utility.yul\":2799:2821   */\n      add\n        /* \"#utility.yul\":2766:2831   */\n      tag_23\n      jump\t// in\n    tag_82:\n        /* \"#utility.yul\":2748:2831   */\n      swap5\n      pop\n      swap5\n      pop\n        /* \"#utility.yul\":2543:2841   */\n      pop\n        /* \"#utility.yul\":2880:2882   */\n      0x40\n        /* \"#utility.yul\":2906:2959   */\n      tag_83\n        /* \"#utility.yul\":2951:2958   */\n      dup9\n        /* \"#utility.yul\":2942:2948   */\n      dup3\n        /* \"#utility.yul\":2931:2940   */\n      dup10\n        /* \"#utility.yul\":2927:2949   */\n      add\n        /* \"#utility.yul\":2906:2959   */\n      tag_26\n      jump\t// in\n    tag_83:\n        /* \"#utility.yul\":2896:2959   */\n      swap3\n      pop\n        /* \"#utility.yul\":2851:2969   */\n      pop\n        /* \"#utility.yul\":3008:3010   */\n      0x60\n        /* \"#utility.yul\":3034:3087   */\n      tag_84\n        /* \"#utility.yul\":3079:3086   */\n      dup9\n        /* \"#utility.yul\":3070:3076   */\n      dup3\n        /* \"#utility.yul\":3059:3068   */\n      dup10\n        /* \"#utility.yul\":3055:3077   */\n      add\n        /* \"#utility.yul\":3034:3087   */\n      tag_26\n      jump\t// in\n    tag_84:\n        /* \"#utility.yul\":3024:3087   */\n      swap2\n      pop\n        /* \"#utility.yul\":2979:3097   */\n      pop\n        /* \"#utility.yul\":2139:3104   */\n      swap3\n      swap6\n      pop\n      swap3\n      swap6\n      swap1\n      swap4\n      pop\n      jump\t// out\n        /* \"#utility.yul\":3110:3200   */\n    tag_27:\n        /* \"#utility.yul\":3144:3151   */\n      0x00\n        /* \"#utility.yul\":3187:3192   */\n      dup2\n        /* \"#utility.yul\":3180:3193   */\n      iszero\n        /* \"#utility.yul\":3173:3194   */\n      iszero\n        /* \"#utility.yul\":3162:3194   */\n      swap1\n      pop\n        /* \"#utility.yul\":3110:3200   */\n      swap2\n      swap1\n      pop\n      jump\t// out\n        /* \"#utility.yul\":3206:3315   */\n    tag_28:\n        /* \"#utility.yul\":3287:3308   */\n      tag_87\n        /* \"#utility.yul\":3302:3307   */\n      dup2\n        /* \"#utility.yul\":3287:3308   */\n      tag_27\n      jump\t// in\n    tag_87:\n        /* \"#utility.yul\":3282:3285   */\n      dup3\n        /* \"#utility.yul\":3275:3309   */\n      mstore\n        /* \"#utility.yul\":3206:3315   */\n      pop\n      pop\n      jump\t// out\n        /* \"#utility.yul\":3321:3531   */\n    tag_9:\n        /* \"#utility.yul\":3408:3412   */\n      0x00\n        /* \"#utility.yul\":3446:3448   */\n      0x20\n        /* \"#utility.yul\":3435:3444   */\n      dup3\n        /* \"#utility.yul\":3431:3449   */\n      add\n        /* \"#utility.yul\":3423:3449   */\n      swap1\n      pop\n        /* \"#utility.yul\":3459:3524   */\n      tag_89\n        /* \"#utility.yul\":3521:3522   */\n      0x00\n        /* \"#utility.yul\":3510:3519   */\n      dup4\n        /* \"#utility.yul\":3506:3523   */\n      add\n        /* \"#utility.yul\":3497:3503   */\n      dup5\n        /* \"#utility.yul\":3459:3524   */\n      tag_28\n      jump\t// in\n    tag_89:\n        /* \"#utility.yul\":3321:3531   */\n      swap3\n      swap2\n      pop\n      pop\n      jump\t// out\n        /* \"#utility.yul\":3537:3636   */\n    tag_29:\n        /* \"#utility.yul\":3589:3595   */\n      0x00\n        /* \"#utility.yul\":3623:3628   */\n      dup2\n        /* \"#utility.yul\":3617:3629   */\n      mload\n        /* \"#utility.yul\":3607:3629   */\n      swap1\n      pop\n        /* \"#utility.yul\":3537:3636   */\n      swap2\n      swap1\n      pop\n      jump\t// out\n        /* \"#utility.yul\":3642:3822   */\n    tag_30:\n        /* \"#utility.yul\":3690:3767   */\n      0x4e487b7100000000000000000000000000000000000000000000000000000000\n        /* \"#utility.yul\":3687:3688   */\n      0x00\n        /* \"#utility.yul\":3680:3768   */\n      mstore\n        /* \"#utility.yul\":3787:3791   */\n      0x41\n        /* \"#utility.yul\":3784:3785   */\n      0x04\n        /* \"#utility.yul\":3777:3792   */\n      mstore\n        /* \"#utility.yul\":3811:3815   */\n      0x24\n        /* \"#utility.yul\":3808:3809   */\n      0x00\n        /* \"#utility.yul\":3801:3816   */\n      revert\n        /* \"#utility.yul\":3828:4008   */\n    tag_31:\n        /* \"#utility.yul\":3876:3953   */\n      0x4e487b7100000000000000000000000000000000000000000000000000000000\n        /* \"#utility.yul\":3873:3874   */\n      0x00\n        /* \"#utility.yul\":3866:3954   */\n      mstore\n        /* \"#utility.yul\":3973:3977   */\n      0x22\n        /* \"#utility.yul\":3970:3971   */\n      0x04\n        /* \"#utility.yul\":3963:3978   */\n      mstore\n        /* \"#utility.yul\":3997:4001   */\n      0x24\n        /* \"#utility.yul\":3994:3995   */\n      0x00\n        /* \"#utility.yul\":3987:4002   */\n      revert\n        /* \"#utility.yul\":4014:4334   */\n    tag_32:\n        /* \"#utility.yul\":4058:4064   */\n      0x00\n        /* \"#utility.yul\":4095:4096   */\n      0x02\n        /* \"#utility.yul\":4089:4093   */\n      dup3\n        /* \"#utility.yul\":4085:4097   */\n      div\n        /* \"#utility.yul\":4075:4097   */\n      swap1\n      pop\n        /* \"#utility.yul\":4142:4143   */\n      0x01\n        /* \"#utility.yul\":4136:4140   */\n      dup3\n        /* \"#utility.yul\":4132:4144   */\n      and\n        /* \"#utility.yul\":4163:4181   */\n      dup1\n        /* \"#utility.yul\":4153:4234   */\n      tag_94\n      jumpi\n        /* \"#utility.yul\":4219:4223   */\n      0x7f\n        /* \"#utility.yul\":4211:4217   */\n      dup3\n        /* \"#utility.yul\":4207:4224   */\n      and\n        /* \"#utility.yul\":4197:4224   */\n      swap2\n      pop\n        /* \"#utility.yul\":4153:4234   */\n    tag_94:\n        /* \"#utility.yul\":4281:4283   */\n      0x20\n        /* \"#utility.yul\":4273:4279   */\n      dup3\n        /* \"#utility.yul\":4270:4284   */\n      lt\n        /* \"#utility.yul\":4250:4268   */\n      dup2\n        /* \"#utility.yul\":4247:4285   */\n      sub\n        /* \"#utility.yul\":4244:4328   */\n      tag_95\n      jumpi\n        /* \"#utility.yul\":4300:4318   */\n      tag_96\n      tag_31\n      jump\t// in\n    tag_96:\n        /* \"#utility.yul\":4244:4328   */\n    tag_95:\n        /* \"#utility.yul\":4065:4334   */\n      pop\n        /* \"#utility.yul\":4014:4334   */\n      swap2\n      swap1\n      pop\n      jump\t// out\n        /* \"#utility.yul\":4340:4481   */\n    tag_33:\n        /* \"#utility.yul\":4389:4393   */\n      0x00\n        /* \"#utility.yul\":4412:4415   */\n      dup2\n        /* \"#utility.yul\":4404:4415   */\n      swap1\n      pop\n        /* \"#utility.yul\":4435:4438   */\n      dup2\n        /* \"#utility.yul\":4432:4433   */\n      0x00\n        /* \"#utility.yul\":4425:4439   */\n      mstore\n        /* \"#utility.yul\":4469:4473   */\n      0x20\n        /* \"#utility.yul\":4466:4467   */\n      0x00\n        /* \"#utility.yul\":4456:4474   */\n      keccak256\n        /* \"#utility.yul\":4448:4474   */\n      swap1\n      pop\n        /* \"#utility.yul\":4340:4481   */\n      swap2\n      swap1\n      pop\n      jump\t// out\n        /* \"#utility.yul\":4487:4580   */\n    tag_34:\n        /* \"#utility.yul\":4524:4530   */\n      0x00\n        /* \"#utility.yul\":4571:4573   */\n      0x20\n        /* \"#utility.yul\":4566:4568   */\n      0x1f\n        /* \"#utility.yul\":4559:4564   */\n      dup4\n        /* \"#utility.yul\":4555:4569   */\n      add\n        /* \"#utility.yul\":4551:4574   */\n      div\n        /* \"#utility.yul\":4541:4574   */\n      swap1\n      pop\n        /* \"#utility.yul\":4487:4580   */\n      swap2\n      swap1\n      pop\n      jump\t// out\n        /* \"#utility.yul\":4586:4693   */\n    tag_35:\n        /* \"#utility.yul\":4630:4638   */\n      0x00\n        /* \"#utility.yul\":4680:4685   */\n      dup3\n        /* \"#utility.yul\":4674:4678   */\n      dup3\n        /* \"#utility.yul\":4670:4686   */\n      shl\n        /* \"#utility.yul\":4649:4686   */\n      swap1\n      pop\n        /* \"#utility.yul\":4586:4693   */\n      swap3\n      swap2\n      pop\n      pop\n      jump\t// out\n        /* \"#utility.yul\":4699:5092   */\n    tag_36:\n        /* \"#utility.yul\":4768:4774   */\n      0x00\n        /* \"#utility.yul\":4818:4819   */\n      0x08\n        /* \"#utility.yul\":4806:4816   */\n      dup4\n        /* \"#utility.yul\":4802:4820   */\n      mul\n        /* \"#utility.yul\":4841:4938   */\n      tag_101\n        /* \"#utility.yul\":4871:4937   */\n      0xffffffffffffffffffffffffffffffffffffffffffffffffffffffffffffffff\n        /* \"#utility.yul\":4860:4869   */\n      dup3\n        /* \"#utility.yul\":4841:4938   */\n      tag_35\n      jump\t// in\n    tag_101:\n        /* \"#utility.yul\":4959:4998   */\n      tag_102\n        /* \"#utility.yul\":4989:4997   */\n      dup7\n        /* \"#utility.yul\":4978:4987   */\n      dup4\n        /* \"#utility.yul\":4959:4998   */\n      tag_35\n      jump\t// in\n    tag_102:\n        /* \"#utility.yul\":4947:4998   */\n      swap6\n      pop\n        /* \"#utility.yul\":5031:5035   */\n      dup1\n        /* \"#utility.yul\":5027:5036   */\n      not\n        /* \"#utility.yul\":5020:5025   */\n      dup5\n        /* \"#utility.yul\":5016:5037   */\n      and\n        /* \"#utility.yul\":5007:5037   */\n      swap4\n      pop\n        /* \"#utility.yul\":5080:5084   */\n      dup1\n        /* \"#utility.yul\":5070:5078   */\n      dup7\n        /* \"#utility.yul\":5066:5085   */\n      and\n        /* \"#utility.yul\":5059:5064   */\n      dup5\n        /* \"#utility.yul\":5056:5086   */\n      or\n        /* \"#utility.yul\":5046:5086   */\n      swap3\n      pop\n        /* \"#utility.yul\":4775:5092   */\n      pop\n      pop\n        /* \"#utility.yul\":4699:5092   */\n      swap4\n      swap3\n      pop\n      pop\n      pop\n      jump\t// out\n        /* \"#utility.yul\":5098:5158   */\n    tag_37:\n        /* \"#utility.yul\":5126:5129   */\n      0x00\n        /* \"#utility.yul\":5147:5152   */\n      dup2\n        /* \"#utility.yul\":5140:5152   */\n      swap1\n      pop\n        /* \"#utility.yul\":5098:5158   */\n      swap2\n      swap1\n      pop\n      jump\t// out\n        /* \"#utility.yul\":5164:5306   */\n    tag_38:\n        /* \"#utility.yul\":5214:5223   */\n      0x00\n        /* \"#utility.yul\":5247:5300   */\n      tag_105\n        /* \"#utility.yul\":5265:5299   */\n      tag_106\n        /* \"#utility.yul\":5274:5298   */\n      tag_107\n        /* \"#utility.yul\":5292:5297   */\n      dup5\n        /* \"#utility.yul\":5274:5298   */\n      tag_24\n      jump\t// in\n    tag_107:\n        /* \"#utility.yul\":5265:5299   */\n      tag_37\n      jump\t// in\n    tag_106:\n        /* \"#utility.yul\":5247:5300   */\n      tag_24\n      jump\t// in\n    tag_105:\n        /* \"#utility.yul\":5234:5300   */\n      swap1\n      pop\n        /* \"#utility.yul\":5164:5306   */\n      swap2\n      swap1\n      pop\n      jump\t// out\n        /* \"#utility.yul\":5312:5387   */\n    tag_39:\n        /* \"#utility.yul\":5355:5358   */\n      0x00\n        /* \"#utility.yul\":5376:5381   */\n      dup2\n        /* \"#utility.yul\":5369:5381   */\n      swap1\n      pop\n        /* \"#utility.yul\":5312:5387   */\n      swap2\n      swap1\n      pop\n      jump\t// out\n        /* \"#utility.yul\":5393:5662   */\n    tag_40:\n        /* \"#utility.yul\":5503:5542   */\n      tag_110\n        /* \"#utility.yul\":5534:5541   */\n      dup4\n        /* \"#utility.yul\":5503:5542   */\n      tag_38\n      jump\t// in\n    tag_110:\n        /* \"#utility.yul\":5564:5655   */\n      tag_111\n        /* \"#utility.yul\":5613:5654   */\n      tag_112\n        /* \"#utility.yul\":5637:5653   */\n      dup3\n        /* \"#utility.yul\":5613:5654   */\n      tag_39\n      jump\t// in\n    tag_112:\n        /* \"#utility.yul\":5605:5611   */\n      dup5\n        /* \"#utility.yul\":5598:5602   */\n      dup5\n        /* \"#utility.yul\":5592:5603   */\n      sload\n        /* \"#utility.yul\":5564:5655   */\n      tag_36\n      jump\t// in\n    tag_111:\n        /* \"#utility.yul\":5558:5562   */\n      dup3\n        /* \"#utility.yul\":5551:5656   */\n      sstore\n        /* \"#utility.yul\":5469:5662   */\n      pop\n        /* \"#utility.yul\":5393:5662   */\n      pop\n      pop\n      pop\n      jump\t// out\n        /* \"#utility.yul\":5668:5741   */\n    tag_41:\n        /* \"#utility.yul\":5713:5716   */\n      0x00\n        /* \"#utility.yul\":5734:5735   */\n      0x00\n        /* \"#utility.yul\":5727:5735   */\n      swap1\n      pop\n        /* \"#utility.yul\":5668:5741   */\n      swap1\n      jump\t// out\n        /* \"#utility.yul\":5747:5936   */\n    tag_42:\n        /* \"#utility.yul\":5824:5856   */\n      tag_115\n      tag_41\n      jump\t// in\n    tag_115:\n        /* \"#utility.yul\":5865:5930   */\n      tag_116\n        /* \"#utility.yul\":5923:5929   */\n      dup2\n        /* \"#utility.yul\":5915:5921   */\n      dup5\n        /* \"#utility.yul\":5909:5913   */\n      dup5\n        /* \"#utility.yul\":5865:5930   */\n      tag_40\n      jump\t// in\n    tag_116:\n        /* \"#utility.yul\":5800:5936   */\n      pop\n        /* \"#utility.yul\":5747:5936   */\n      pop\n      pop\n      jump\t// out\n        /* \"#utility.yul\":5942:6128   */\n    tag_43:\n        /* \"#utility.yul\":6002:6122   */\n    tag_118:\n        /* \"#utility.yul\":6019:6022   */\n      dup2\n        /* \"#utility.yul\":6012:6017   */\n      dup2\n        /* \"#utility.yul\":6009:6023   */\n      lt\n        /* \"#utility.yul\":6002:6122   */\n      iszero\n      tag_120\n      jumpi\n        /* \"#utility.yul\":6073:6112   */\n      tag_121\n        /* \"#utility.yul\":6110:6111   */\n      0x00\n        /* \"#utility.yul\":6103:6108   */\n      dup3\n        /* \"#utility.yul\":6073:6112   */\n      tag_42\n      jump\t// in\n    tag_121:\n        /* \"#utility.yul\":6046:6047   */\n      0x01\n        /* \"#utility.yul\":6039:6044   */\n      dup2\n        /* \"#utility.yul\":6035:6048   */\n      add\n        /* \"#utility.yul\":6026:6048   */\n      swap1\n      pop\n        /* \"#utility.yul\":6002:6122   */\n      jump(tag_118)\n    tag_120:\n        /* \"#utility.yul\":5942:6128   */\n      pop\n      pop\n      jump\t// out\n        /* \"#utility.yul\":6134:6677   */\n    tag_44:\n        /* \"#utility.yul\":6235:6237   */\n      0x1f\n        /* \"#utility.yul\":6230:6233   */\n      dup3\n        /* \"#utility.yul\":6227:6238   */\n      gt\n        /* \"#utility.yul\":6224:6670   */\n      iszero\n      tag_123\n      jumpi\n        /* \"#utility.yul\":6269:6307   */\n      tag_124\n        /* \"#utility.yul\":6301:6306   */\n      dup2\n        /* \"#utility.yul\":6269:6307   */\n      tag_33\n      jump\t// in\n    tag_124:\n        /* \"#utility.yul\":6353:6382   */\n      tag_125\n        /* \"#utility.yul\":6371:6381   */\n      dup5\n        /* \"#utility.yul\":6353:6382   */\n      tag_34\n      jump\t// in\n    tag_125:\n        /* \"#utility.yul\":6343:6351   */\n      dup2\n        /* \"#utility.yul\":6339:6383   */\n      add\n        /* \"#utility.yul\":6536:6538   */\n      0x20\n        /* \"#utility.yul\":6524:6534   */\n      dup6\n        /* \"#utility.yul\":6521:6539   */\n      lt\n        /* \"#utility.yul\":6518:6567   */\n      iszero\n      tag_126\n      jumpi\n        /* \"#utility.yul\":6557:6565   */\n      dup2\n        /* \"#utility.yul\":6542:6565   */\n      swap1\n      pop\n        /* \"#utility.yul\":6518:6567   */\n    tag_126:\n        /* \"#utility.yul\":6580:6660   */\n      tag_127\n        /* \"#utility.yul\":6636:6658   */\n      tag_128\n        /* \"#utility.yul\":6654:6657   */\n      dup6\n        /* \"#utility.yul\":6636:6658   */\n      tag_34\n      jump\t// in\n    tag_128:\n        /* \"#utility.yul\":6626:6634   */\n      dup4\n        /* \"#utility.yul\":6622:6659   */\n      add\n        /* \"#utility.yul\":6609:6620   */\n      dup3\n        /* \"#utility.yul\":6580:6660   */\n      tag_43\n      jump\t// in\n    tag_127:\n        /* \"#utility.yul\":6239:6670   */\n      pop\n      pop\n        /* \"#utility.yul\":6224:6670   */\n    tag_123:\n        /* \"#utility.yul\":6134:6677   */\n      pop\n      pop\n      pop\n      jump\t// out\n        /* \"#utility.yul\":6683:6800   */\n    tag_45:\n        /* \"#utility.yul\":6737:6745   */\n      0x00\n        /* \"#utility.yul\":6787:6792   */\n      dup3\n        /* \"#utility.yul\":6781:6785   */\n      dup3\n        /* \"#utility.yul\":6777:6793   */\n      shr\n        /* \"#utility.yul\":6756:6793   */\n      swap1\n      pop\n        /* \"#utility.yul\":6683:6800   */\n      swap3\n      swap2\n      pop\n      pop\n      jump\t// out\n        /* \"#utility.yul\":6806:6975   */\n    tag_46:\n        /* \"#utility.yul\":6850:6856   */\n      0x00\n        /* \"#utility.yul\":6883:6934   */\n      tag_131\n        /* \"#utility.yul\":6931:6932   */\n      0x00\n        /* \"#utility.yul\":6927:6933   */\n      not\n        /* \"#utility.yul\":6919:6924   */\n      dup5\n        /* \"#utility.yul\":6916:6917   */\n      0x08\n        /* \"#utility.yul\":6912:6925   */\n      mul\n        /* \"#utility.yul\":6883:6934   */\n      tag_45\n      jump\t// in\n    tag_131:\n        /* \"#utility.yul\":6879:6935   */\n      not\n        /* \"#utility.yul\":6964:6968   */\n      dup1\n        /* \"#utility.yul\":6958:6962   */\n      dup4\n        /* \"#utility.yul\":6954:6969   */\n      and\n        /* \"#utility.yul\":6944:6969   */\n      swap2\n      pop\n        /* \"#utility.yul\":6857:6975   */\n      pop\n        /* \"#utility.yul\":6806:6975   */\n      swap3\n      swap2\n      pop\n      pop\n      jump\t// out\n        /* \"#utility.yul\":6980:7275   */\n    tag_47:\n        /* \"#utility.yul\":7056:7060   */\n      0x00\n        /* \"#utility.yul\":7202:7231   */\n      tag_133\n        /* \"#utility.yul\":7227:7230   */\n      dup4\n        /* \"#utility.yul\":7221:7225   */\n      dup4\n        /* \"#utility.yul\":7202:7231   */\n      tag_46\n      jump\t// in\n    tag_133:\n        /* \"#utility.yul\":7194:7231   */\n      swap2\n      pop\n        /* \"#utility.yul\":7264:7267   */\n      dup3\n        /* \"#utility.yul\":7261:7262   */\n      0x02\n        /* \"#utility.yul\":7257:7268   */\n      mul\n        /* \"#utility.yul\":7251:7255   */\n      dup3\n        /* \"#utility.yul\":7248:7269   */\n      or\n        /* \"#utility.yul\":7240:7269   */\n      swap1\n      pop\n        /* \"#utility.yul\":6980:7275   */\n      swap3\n      swap2\n      pop\n      pop\n      jump\t// out\n        /* \"#utility.yul\":7280:8675   */\n    tag_12:\n        /* \"#utility.yul\":7397:7434   */\n      tag_135\n        /* \"#utility.yul\":7430:7433   */\n      dup3\n        /* \"#utility.yul\":7397:7434   */\n      tag_29\n      jump\t// in\n    tag_135:\n        /* \"#utility.yul\":7499:7517   */\n      0xffffffffffffffff\n        /* \"#utility.yul\":7491:7497   */\n      dup2\n        /* \"#utility.yul\":7488:7518   */\n      gt\n        /* \"#utility.yul\":7485:7541   */\n      iszero\n      tag_136\n      jumpi\n        /* \"#utility.yul\":7521:7539   */\n      tag_137\n      tag_30\n      jump\t// in\n    tag_137:\n        /* \"#utility.yul\":7485:7541   */\n    tag_136:\n        /* \"#utility.yul\":7565:7603   */\n      tag_138\n        /* \"#utility.yul\":7597:7601   */\n      dup3\n        /* \"#utility.yul\":7591:7602   */\n      sload\n        /* \"#utility.yul\":7565:7603   */\n      tag_32\n      jump\t// in\n    tag_138:\n        /* \"#utility.yul\":7650:7717   */\n      tag_139\n        /* \"#utility.yul\":7710:7716   */\n      dup3\n        /* \"#utility.yul\":7702:7708   */\n      dup3\n        /* \"#utility.yul\":7696:7700   */\n      dup6\n        /* \"#utility.yul\":7650:7717   */\n      tag_44\n      jump\t// in\n    tag_139:\n        /* \"#utility.yul\":7744:7745   */\n      0x00\n        /* \"#utility.yul\":7768:7772   */\n      0x20\n        /* \"#utility.yul\":7755:7772   */\n      swap1\n      pop\n        /* \"#utility.yul\":7800:7802   */\n      0x1f\n        /* \"#utility.yul\":7792:7798   */\n      dup4\n        /* \"#utility.yul\":7789:7803   */\n      gt\n        /* \"#utility.yul\":7817:7818   */\n      0x01\n        /* \"#utility.yul\":7812:8430   */\n      dup2\n      eq\n      tag_141\n      jumpi\n        /* \"#utility.yul\":8474:8475   */\n      0x00\n        /* \"#utility.yul\":8491:8497   */\n      dup5\n        /* \"#utility.yul\":8488:8565   */\n      iszero\n      tag_142\n      jumpi\n        /* \"#utility.yul\":8540:8549   */\n      dup3\n        /* \"#utility.yul\":8535:8538   */\n      dup8\n        /* \"#utility.yul\":8531:8550   */\n      add\n        /* \"#utility.yul\":8525:8551   */\n      mload\n        /* \"#utility.yul\":8516:8551   */\n      swap1\n      pop\n        /* \"#utility.yul\":8488:8565   */\n    tag_142:\n        /* \"#utility.yul\":8591:8658   */\n      tag_143\n        /* \"#utility.yul\":8651:8657   */\n      dup6\n        /* \"#utility.yul\":8644:8649   */\n      dup3\n        /* \"#utility.yul\":8591:8658   */\n      tag_47\n      jump\t// in\n    tag_143:\n        /* \"#utility.yul\":8585:8589   */\n      dup7\n        /* \"#utility.yul\":8578:8659   */\n      sstore\n        /* \"#utility.yul\":8447:8669   */\n      pop\n        /* \"#utility.yul\":7782:8669   */\n      jump(tag_140)\n        /* \"#utility.yul\":7812:8430   */\n    tag_141:\n        /* \"#utility.yul\":7864:7868   */\n      0x1f\n        /* \"#utility.yul\":7860:7869   */\n      not\n        /* \"#utility.yul\":7852:7858   */\n      dup5\n        /* \"#utility.yul\":7848:7870   */\n      and\n        /* \"#utility.yul\":7898:7935   */\n      tag_144\n        /* \"#utility.yul\":7930:7934   */\n      dup7\n        /* \"#utility.yul\":7898:7935   */\n      tag_33\n      jump\t// in\n    tag_144:\n        /* \"#utility.yul\":7957:7958   */\n      0x00\n        /* \"#utility.yul\":7971:8179   */\n    tag_145:\n        /* \"#utility.yul\":7985:7992   */\n      dup3\n        /* \"#utility.yul\":7982:7983   */\n      dup2\n        /* \"#utility.yul\":7979:7993   */\n      lt\n        /* \"#utility.yul\":7971:8179   */\n      iszero\n      tag_147\n      jumpi\n        /* \"#utility.yul\":8064:8073   */\n      dup5\n        /* \"#utility.yul\":8059:8062   */\n      dup10\n        /* \"#utility.yul\":8055:8074   */\n      add\n        /* \"#utility.yul\":8049:8075   */\n      mload\n        /* \"#utility.yul\":8041:8047   */\n      dup3\n        /* \"#utility.yul\":8034:8076   */\n      sstore\n        /* \"#utility.yul\":8115:8116   */\n      0x01\n        /* \"#utility.yul\":8107:8113   */\n      dup3\n        /* \"#utility.yul\":8103:8117   */\n      add\n        /* \"#utility.yul\":8093:8117   */\n      swap2\n      pop\n        /* \"#utility.yul\":8162:8164   */\n      0x20\n        /* \"#utility.yul\":8151:8160   */\n      dup6\n        /* \"#utility.yul\":8147:8165   */\n      add\n        /* \"#utility.yul\":8134:8165   */\n      swap5\n      pop\n        /* \"#utility.yul\":8008:8012   */\n      0x20\n        /* \"#utility.yul\":8005:8006   */\n      dup2\n        /* \"#utility.yul\":8001:8013   */\n      add\n        /* \"#utility.yul\":7996:8013   */\n      swap1\n      pop\n        /* \"#utility.yul\":7971:8179   */\n      jump(tag_145)\n    tag_147:\n        /* \"#utility.yul\":8207:8213   */\n      dup7\n        /* \"#utility.yul\":8198:8205   */\n      dup4\n        /* \"#utility.yul\":8195:8214   */\n      lt\n        /* \"#utility.yul\":8192:8371   */\n      iszero\n      tag_148\n      jumpi\n        /* \"#utility.yul\":8265:8274   */\n      dup5\n        /* \"#utility.yul\":8260:8263   */\n      dup10\n        /* \"#utility.yul\":8256:8275   */\n      add\n        /* \"#utility.yul\":8250:8276   */\n      mload\n        /* \"#utility.yul\":8308:8356   */\n      tag_149\n        /* \"#utility.yul\":8350:8354   */\n      0x1f\n        /* \"#utility.yul\":8342:8348   */\n      dup10\n        /* \"#utility.yul\":8338:8355   */\n      and\n        /* \"#utility.yul\":8327:8336   */\n      dup3\n        /* \"#utility.yul\":8308:8356   */\n      tag_46\n      jump\t// in\n    tag_149:\n        /* \"#utility.yul\":8300:8306   */\n      dup4\n        /* \"#utility.yul\":8293:8357   */\n      sstore\n        /* \"#utility.yul\":8215:8371   */\n      pop\n        /* \"#utility.yul\":8192:8371   */\n    tag_148:\n        /* \"#utility.yul\":8417:8418   */\n      0x01\n        /* \"#utility.yul\":8413:8414   */\n      0x02\n        /* \"#utility.yul\":8405:8411   */\n      dup9\n        /* \"#utility.yul\":8401:8415   */\n      mul\n        /* \"#utility.yul\":8397:8419   */\n      add\n        /* \"#utility.yul\":8391:8395   */\n      dup9\n        /* \"#utility.yul\":8384:8420   */\n      sstore\n        /* \"#utility.yul\":7819:8430   */\n      pop\n      pop\n      pop\n        /* \"#utility.yul\":7782:8669   */\n    tag_140:\n      pop\n        /* \"#utility.yul\":7372:8675   */\n      pop\n      pop\n      pop\n        /* \"#utility.yul\":7280:8675   */\n      pop\n      pop\n      jump\t// out\n\n    auxdata: 0xa2646970667358221220740bde4597a8ed3b0f271630e3a38b90a8fe58245d1a9f53cef80a65cf44f35a64736f6c634300081d0033\n}\n",
				"bytecode": {
					"linkReferences": {},
					"object": "6080604052348015600e575f5ffd5b506106178061001c5f395ff3fe608060405234801561000f575f5ffd5b5060043610610029575f3560e01c8063e34b30ca1461002d575b5f5ffd5b61004760048036038101906100429190610227565b61005d565b60405161005491906102c5565b60405180910390f35b5f604051806060016040528086868080601f0160208091040260200160405190810160405280939291908181526020018383808284375f81840152601f19601f8201169050808301925050505050505081526020018481526020018381525060015f8873ffffffffffffffffffffffffffffffffffffffff1673ffffffffffffffffffffffffffffffffffffffff1681526020019081526020015f205f820151815f01908161010c9190610512565b5060208201518160010155604082015181600201559050506001905095945050505050565b5f5ffd5b5f5ffd5b5f73ffffffffffffffffffffffffffffffffffffffff82169050919050565b5f61016282610139565b9050919050565b61017281610158565b811461017c575f5ffd5b50565b5f8135905061018d81610169565b92915050565b5f5ffd5b5f5ffd5b5f5ffd5b5f5f83601f8401126101b4576101b3610193565b5b8235905067ffffffffffffffff8111156101d1576101d0610197565b5b6020830191508360018202830111156101ed576101ec61019b565b5b9250929050565b5f819050919050565b610206816101f4565b8114610210575f5ffd5b50565b5f81359050610221816101fd565b92915050565b5f5f5f5f5f608086880312156102405761023f610131565b5b5f61024d8882890161017f565b955050602086013567ffffffffffffffff81111561026e5761026d610135565b5b61027a8882890161019f565b9450945050604061028d88828901610213565b925050606061029e88828901610213565b9150509295509295909350565b5f8115159050919050565b6102bf816102ab565b82525050565b5f6020820190506102d85f8301846102b6565b92915050565b5f81519050919050565b7f4e487b71000000000000000000000000000000000000000000000000000000005f52604160045260245ffd5b7f4e487b71000000000000000000000000000000000000000000000000000000005f52602260045260245ffd5b5f600282049050600182168061035957607f821691505b60208210810361036c5761036b610315565b5b50919050565b5f819050815f5260205f209050919050565b5f6020601f8301049050919050565b5f82821b905092915050565b5f600883026103ce7fffffffffffffffffffffffffffffffffffffffffffffffffffffffffffffffff82610393565b6103d88683610393565b95508019841693508086168417925050509392505050565b5f819050919050565b5f61041361040e610409846101f4565b6103f0565b6101f4565b9050919050565b5f819050919050565b61042c836103f9565b6104406104388261041a565b84845461039f565b825550505050565b5f5f905090565b610457610448565b610462818484610423565b505050565b5b818110156104855761047a5f8261044f565b600181019050610468565b5050565b601f8211156104ca5761049b81610372565b6104a484610384565b810160208510156104b3578190505b6104c76104bf85610384565b830182610467565b50505b505050565b5f82821c905092915050565b5f6104ea5f19846008026104cf565b1980831691505092915050565b5f61050283836104db565b9150826002028217905092915050565b61051b826102de565b67ffffffffffffffff811115610534576105336102e8565b5b61053e8254610342565b610549828285610489565b5f60209050601f83116001811461057a575f8415610568578287015190505b61057285826104f7565b8655506105d9565b601f19841661058886610372565b5f5b828110156105af5784890151825560018201915060208501945060208101905061058a565b868310156105cc57848901516105c8601f8916826104db565b8355505b6001600288020188555050505b50505050505056fea2646970667358221220740bde4597a8ed3b0f271630e3a38b90a8fe58245d1a9f53cef80a65cf44f35a64736f6c634300081d0033",
					"opcodes": "PUSH1 0x80 PUSH1 0x40 MSTORE CALLVALUE DUP1 ISZERO PUSH1 0xE JUMPI PUSH0 PUSH0 REVERT JUMPDEST POP PUSH2 0x617 DUP1 PUSH2 0x1C PUSH0 CODECOPY PUSH0 RETURN INVALID PUSH1 0x80 PUSH1 0x40 MSTORE CALLVALUE DUP1 ISZERO PUSH2 0xF JUMPI PUSH0 PUSH0 REVERT JUMPDEST POP PUSH1 0x4 CALLDATASIZE LT PUSH2 0x29 JUMPI PUSH0 CALLDATALOAD PUSH1 0xE0 SHR DUP1 PUSH4 0xE34B30CA EQ PUSH2 0x2D JUMPI JUMPDEST PUSH0 PUSH0 REVERT JUMPDEST PUSH2 0x47 PUSH1 0x4 DUP1 CALLDATASIZE SUB DUP2 ADD SWAP1 PUSH2 0x42 SWAP2 SWAP1 PUSH2 0x227 JUMP JUMPDEST PUSH2 0x5D JUMP JUMPDEST PUSH1 0x40 MLOAD PUSH2 0x54 SWAP2 SWAP1 PUSH2 0x2C5 JUMP JUMPDEST PUSH1 0x40 MLOAD DUP1 SWAP2 SUB SWAP1 RETURN JUMPDEST PUSH0 PUSH1 0x40 MLOAD DUP1 PUSH1 0x60 ADD PUSH1 0x40 MSTORE DUP1 DUP7 DUP7 DUP1 DUP1 PUSH1 0x1F ADD PUSH1 0x20 DUP1 SWAP2 DIV MUL PUSH1 0x20 ADD PUSH1 0x40 MLOAD SWAP1 DUP2 ADD PUSH1 0x40 MSTORE DUP1 SWAP4 SWAP3 SWAP2 SWAP1 DUP2 DUP2 MSTORE PUSH1 0x20 ADD DUP4 DUP4 DUP1 DUP3 DUP5 CALLDATACOPY PUSH0 DUP2 DUP5 ADD MSTORE PUSH1 0x1F NOT PUSH1 0x1F DUP3 ADD AND SWAP1 POP DUP1 DUP4 ADD SWAP3 POP POP POP POP POP POP POP DUP2 MSTORE PUSH1 0x20 ADD DUP5 DUP2 MSTORE PUSH1 0x20 ADD DUP4 DUP2 MSTORE POP PUSH1 0x1 PUSH0 DUP9 PUSH20 0xFFFFFFFFFFFFFFFFFFFFFFFFFFFFFFFFFFFFFFFF AND PUSH20 0xFFFFFFFFFFFFFFFFFFFFFFFFFFFFFFFFFFFFFFFF AND DUP2 MSTORE PUSH1 0x20 ADD SWAP1 DUP2 MSTORE PUSH1 0x20 ADD PUSH0 KECCAK256 PUSH0 DUP3 ADD MLOAD DUP2 PUSH0 ADD SWAP1 DUP2 PUSH2 0x10C SWAP2 SWAP1 PUSH2 0x512 JUMP JUMPDEST POP PUSH1 0x20 DUP3 ADD MLOAD DUP2 PUSH1 0x1 ADD SSTORE PUSH1 0x40 DUP3 ADD MLOAD DUP2 PUSH1 0x2 ADD SSTORE SWAP1 POP POP PUSH1 0x1 SWAP1 POP SWAP6 SWAP5 POP POP POP POP POP JUMP JUMPDEST PUSH0 PUSH0 REVERT JUMPDEST PUSH0 PUSH0 REVERT JUMPDEST PUSH0 PUSH20 0xFFFFFFFFFFFFFFFFFFFFFFFFFFFFFFFFFFFFFFFF DUP3 AND SWAP1 POP SWAP2 SWAP1 POP JUMP JUMPDEST PUSH0 PUSH2 0x162 DUP3 PUSH2 0x139 JUMP JUMPDEST SWAP1 POP SWAP2 SWAP1 POP JUMP JUMPDEST PUSH2 0x172 DUP2 PUSH2 0x158 JUMP JUMPDEST DUP2 EQ PUSH2 0x17C JUMPI PUSH0 PUSH0 REVERT JUMPDEST POP JUMP JUMPDEST PUSH0 DUP2 CALLDATALOAD SWAP1 POP PUSH2 0x18D DUP2 PUSH2 0x169 JUMP JUMPDEST SWAP3 SWAP2 POP POP JUMP JUMPDEST PUSH0 PUSH0 REVERT JUMPDEST PUSH0 PUSH0 REVERT JUMPDEST PUSH0 PUSH0 REVERT JUMPDEST PUSH0 PUSH0 DUP4 PUSH1 0x1F DUP5 ADD SLT PUSH2 0x1B4 JUMPI PUSH2 0x1B3 PUSH2 0x193 JUMP JUMPDEST JUMPDEST DUP3 CALLDATALOAD SWAP1 POP PUSH8 0xFFFFFFFFFFFFFFFF DUP2 GT ISZERO PUSH2 0x1D1 JUMPI PUSH2 0x1D0 PUSH2 0x197 JUMP JUMPDEST JUMPDEST PUSH1 0x20 DUP4 ADD SWAP2 POP DUP4 PUSH1 0x1 DUP3 MUL DUP4 ADD GT ISZERO PUSH2 0x1ED JUMPI PUSH2 0x1EC PUSH2 0x19B JUMP JUMPDEST JUMPDEST SWAP3 POP SWAP3 SWAP1 POP JUMP JUMPDEST PUSH0 DUP2 SWAP1 POP SWAP2 SWAP1 POP JUMP JUMPDEST PUSH2 0x206 DUP2 PUSH2 0x1F4 JUMP JUMPDEST DUP2 EQ PUSH2 0x210 JUMPI PUSH0 PUSH0 REVERT JUMPDEST POP JUMP JUMPDEST PUSH0 DUP2 CALLDATALOAD SWAP1 POP PUSH2 0x221 DUP2 PUSH2 0x1FD JUMP JUMPDEST SWAP3 SWAP2 POP POP JUMP JUMPDEST PUSH0 PUSH0 PUSH0 PUSH0 PUSH0 PUSH1 0x80 DUP7 DUP9 SUB SLT ISZERO PUSH2 0x240 JUMPI PUSH2 0x23F PUSH2 0x131 JUMP JUMPDEST JUMPDEST PUSH0 PUSH2 0x24D DUP9 DUP3 DUP10 ADD PUSH2 0x17F JUMP JUMPDEST SWAP6 POP POP PUSH1 0x20 DUP7 ADD CALLDATALOAD PUSH8 0xFFFFFFFFFFFFFFFF DUP2 GT ISZERO PUSH2 0x26E JUMPI PUSH2 0x26D PUSH2 0x135 JUMP JUMPDEST JUMPDEST PUSH2 0x27A DUP9 DUP3 DUP10 ADD PUSH2 0x19F JUMP JUMPDEST SWAP5 POP SWAP5 POP POP PUSH1 0x40 PUSH2 0x28D DUP9 DUP3 DUP10 ADD PUSH2 0x213 JUMP JUMPDEST SWAP3 POP POP PUSH1 0x60 PUSH2 0x29E DUP9 DUP3 DUP10 ADD PUSH2 0x213 JUMP JUMPDEST SWAP2 POP POP SWAP3 SWAP6 POP SWAP3 SWAP6 SWAP1 SWAP4 POP JUMP JUMPDEST PUSH0 DUP2 ISZERO ISZERO SWAP1 POP SWAP2 SWAP1 POP JUMP JUMPDEST PUSH2 0x2BF DUP2 PUSH2 0x2AB JUMP JUMPDEST DUP3 MSTORE POP POP JUMP JUMPDEST PUSH0 PUSH1 0x20 DUP3 ADD SWAP1 POP PUSH2 0x2D8 PUSH0 DUP4 ADD DUP5 PUSH2 0x2B6 JUMP JUMPDEST SWAP3 SWAP2 POP POP JUMP JUMPDEST PUSH0 DUP2 MLOAD SWAP1 POP SWAP2 SWAP1 POP JUMP JUMPDEST PUSH32 0x4E487B7100000000000000000000000000000000000000000000000000000000 PUSH0 MSTORE PUSH1 0x41 PUSH1 0x4 MSTORE PUSH1 0x24 PUSH0 REVERT JUMPDEST PUSH32 0x4E487B7100000000000000000000000000000000000000000000000000000000 PUSH0 MSTORE PUSH1 0x22 PUSH1 0x4 MSTORE PUSH1 0x24 PUSH0 REVERT JUMPDEST PUSH0 PUSH1 0x2 DUP3 DIV SWAP1 POP PUSH1 0x1 DUP3 AND DUP1 PUSH2 0x359 JUMPI PUSH1 0x7F DUP3 AND SWAP2 POP JUMPDEST PUSH1 0x20 DUP3 LT DUP2 SUB PUSH2 0x36C JUMPI PUSH2 0x36B PUSH2 0x315 JUMP JUMPDEST JUMPDEST POP SWAP2 SWAP1 POP JUMP JUMPDEST PUSH0 DUP2 SWAP1 POP DUP2 PUSH0 MSTORE PUSH1 0x20 PUSH0 KECCAK256 SWAP1 POP SWAP2 SWAP1 POP JUMP JUMPDEST PUSH0 PUSH1 0x20 PUSH1 0x1F DUP4 ADD DIV SWAP1 POP SWAP2 SWAP1 POP JUMP JUMPDEST PUSH0 DUP3 DUP3 SHL SWAP1 POP SWAP3 SWAP2 POP POP JUMP JUMPDEST PUSH0 PUSH1 0x8 DUP4 MUL PUSH2 0x3CE PUSH32 0xFFFFFFFFFFFFFFFFFFFFFFFFFFFFFFFFFFFFFFFFFFFFFFFFFFFFFFFFFFFFFFFF DUP3 PUSH2 0x393 JUMP JUMPDEST PUSH2 0x3D8 DUP7 DUP4 PUSH2 0x393 JUMP JUMPDEST SWAP6 POP DUP1 NOT DUP5 AND SWAP4 POP DUP1 DUP7 AND DUP5 OR SWAP3 POP POP POP SWAP4 SWAP3 POP POP POP JUMP JUMPDEST PUSH0 DUP2 SWAP1 POP SWAP2 SWAP1 POP JUMP JUMPDEST PUSH0 PUSH2 0x413 PUSH2 0x40E PUSH2 0x409 DUP5 PUSH2 0x1F4 JUMP JUMPDEST PUSH2 0x3F0 JUMP JUMPDEST PUSH2 0x1F4 JUMP JUMPDEST SWAP1 POP SWAP2 SWAP1 POP JUMP JUMPDEST PUSH0 DUP2 SWAP1 POP SWAP2 SWAP1 POP JUMP JUMPDEST PUSH2 0x42C DUP4 PUSH2 0x3F9 JUMP JUMPDEST PUSH2 0x440 PUSH2 0x438 DUP3 PUSH2 0x41A JUMP JUMPDEST DUP5 DUP5 SLOAD PUSH2 0x39F JUMP JUMPDEST DUP3 SSTORE POP POP POP POP JUMP JUMPDEST PUSH0 PUSH0 SWAP1 POP SWAP1 JUMP JUMPDEST PUSH2 0x457 PUSH2 0x448 JUMP JUMPDEST PUSH2 0x462 DUP2 DUP5 DUP5 PUSH2 0x423 JUMP JUMPDEST POP POP POP JUMP JUMPDEST JUMPDEST DUP2 DUP2 LT ISZERO PUSH2 0x485 JUMPI PUSH2 0x47A PUSH0 DUP3 PUSH2 0x44F JUMP JUMPDEST PUSH1 0x1 DUP2 ADD SWAP1 POP PUSH2 0x468 JUMP JUMPDEST POP POP JUMP JUMPDEST PUSH1 0x1F DUP3 GT ISZERO PUSH2 0x4CA JUMPI PUSH2 0x49B DUP2 PUSH2 0x372 JUMP JUMPDEST PUSH2 0x4A4 DUP5 PUSH2 0x384 JUMP JUMPDEST DUP2 ADD PUSH1 0x20 DUP6 LT ISZERO PUSH2 0x4B3 JUMPI DUP2 SWAP1 POP JUMPDEST PUSH2 0x4C7 PUSH2 0x4BF DUP6 PUSH2 0x384 JUMP JUMPDEST DUP4 ADD DUP3 PUSH2 0x467 JUMP JUMPDEST POP POP JUMPDEST POP POP POP JUMP JUMPDEST PUSH0 DUP3 DUP3 SHR SWAP1 POP SWAP3 SWAP2 POP POP JUMP JUMPDEST PUSH0 PUSH2 0x4EA PUSH0 NOT DUP5 PUSH1 0x8 MUL PUSH2 0x4CF JUMP JUMPDEST NOT DUP1 DUP4 AND SWAP2 POP POP SWAP3 SWAP2 POP POP JUMP JUMPDEST PUSH0 PUSH2 0x502 DUP4 DUP4 PUSH2 0x4DB JUMP JUMPDEST SWAP2 POP DUP3 PUSH1 0x2 MUL DUP3 OR SWAP1 POP SWAP3 SWAP2 POP POP JUMP JUMPDEST PUSH2 0x51B DUP3 PUSH2 0x2DE JUMP JUMPDEST PUSH8 0xFFFFFFFFFFFFFFFF DUP2 GT ISZERO PUSH2 0x534 JUMPI PUSH2 0x533 PUSH2 0x2E8 JUMP JUMPDEST JUMPDEST PUSH2 0x53E DUP3 SLOAD PUSH2 0x342 JUMP JUMPDEST PUSH2 0x549 DUP3 DUP3 DUP6 PUSH2 0x489 JUMP JUMPDEST PUSH0 PUSH1 0x20 SWAP1 POP PUSH1 0x1F DUP4 GT PUSH1 0x1 DUP2 EQ PUSH2 0x57A JUMPI PUSH0 DUP5 ISZERO PUSH2 0x568 JUMPI DUP3 DUP8 ADD MLOAD SWAP1 POP JUMPDEST PUSH2 0x572 DUP6 DUP3 PUSH2 0x4F7 JUMP JUMPDEST DUP7 SSTORE POP PUSH2 0x5D9 JUMP JUMPDEST PUSH1 0x1F NOT DUP5 AND PUSH2 0x588 DUP7 PUSH2 0x372 JUMP JUMPDEST PUSH0 JUMPDEST DUP3 DUP2 LT ISZERO PUSH2 0x5AF JUMPI DUP5 DUP10 ADD MLOAD DUP3 SSTORE PUSH1 0x1 DUP3 ADD SWAP2 POP PUSH1 0x20 DUP6 ADD SWAP5 POP PUSH1 0x20 DUP2 ADD SWAP1 POP PUSH2 0x58A JUMP JUMPDEST DUP7 DUP4 LT ISZERO PUSH2 0x5CC JUMPI DUP5 DUP10 ADD MLOAD PUSH2 0x5C8 PUSH1 0x1F DUP10 AND DUP3 PUSH2 0x4DB JUMP JUMPDEST DUP4 SSTORE POP JUMPDEST PUSH1 0x1 PUSH1 0x2 DUP9 MUL ADD DUP9 SSTORE POP POP POP JUMPDEST POP POP POP POP POP POP JUMP INVALID LOG2 PUSH5 0x6970667358 0x22 SLT KECCAK256 PUSH21 0xBDE4597A8ED3B0F271630E3A38B90A8FE58245D1A SWAP16 MSTORE8 0xCE EXTCALL EXP PUSH6 0xCF44F35A6473 PUSH16 0x6C634300081D00330000000000000000 "
				},
				"gasEstimates": {
					"creation": {
						"codeDepositCost": "311800",
						"executionCost": "347",
						"totalCost": "312147"
					},
					"external": {
						"addStudent(address,string,uint256,uint256)": "infinite"
					}
				},
				"methodIdentifiers": {
					"addStudent(address,string,uint256,uint256)": "e34b30ca"
				}
			},
			"storageLayout": {
				"storage": [
					{
						"astId": 12,
						"contract": "NewLearning/StructPrac.sol:structPrac",
						"label": "students",
						"offset": 0,
						"slot": "0",
						"type": "t_array(t_struct(Student)8_storage)dyn_storage"
					},
					{
						"astId": 17,
						"contract": "NewLearning/StructPrac.sol:structPrac",
						"label": "Students",
						"offset": 0,
						"slot": "1",
						"type": "t_mapping(t_address,t_struct(Student)8_storage)"
					}
				],
				"types": {
					"t_address": {
						"encoding": "inplace",
						"label": "address",
						"numberOfBytes": "20"
					},
					"t_array(t_struct(Student)8_storage)dyn_storage": {
						"base": "t_struct(Student)8_storage",
						"encoding": "dynamic_array",
						"label": "struct structPrac.Student[]",
						"numberOfBytes": "32"
					},
					"t_mapping(t_address,t_struct(Student)8_storage)": {
						"encoding": "mapping",
						"key": "t_address",
						"label": "mapping(address => struct structPrac.Student)",
						"numberOfBytes": "32",
						"value": "t_struct(Student)8_storage"
					},
					"t_string_storage": {
						"encoding": "bytes",
						"label": "string",
						"numberOfBytes": "32"
					},
					"t_struct(Student)8_storage": {
						"encoding": "inplace",
						"label": "struct structPrac.Student",
						"members": [
							{
								"astId": 3,
								"contract": "NewLearning/StructPrac.sol:structPrac",
								"label": "name",
								"offset": 0,
								"slot": "0",
								"type": "t_string_storage"
							},
							{
								"astId": 5,
								"contract": "NewLearning/StructPrac.sol:structPrac",
								"label": "roll",
								"offset": 0,
								"slot": "1",
								"type": "t_uint256"
							},
							{
								"astId": 7,
								"contract": "NewLearning/StructPrac.sol:structPrac",
								"label": "grade",
								"offset": 0,
								"slot": "2",
								"type": "t_uint256"
							}
						],
						"numberOfBytes": "96"
					},
					"t_uint256": {
						"encoding": "inplace",
						"label": "uint256",
						"numberOfBytes": "32"
					}
				}
			},
			"userdoc": {
				"kind": "user",
				"methods": {},
				"version": 1
			}
		}
	}
}