{
	"NewLearning/enum.sol": {
		"Voting": {
			"abi": [
				{
					"inputs": [
						{
							"internalType": "address",
							"name": "_add",
							"type": "address"
						}
					],
					"name": "Votestart",
					"outputs": [
						{
							"internalType": "bool",
							"name": "",
							"type": "bool"
						}
					],
					"stateMutability": "nonpayable",
					"type": "function"
				},
				{
					"inputs": [
						{
							"internalType": "address",
							"name": "_add",
							"type": "address"
						},
						{
							"internalType": "string",
							"name": "name",
							"type": "string"
						}
					],
					"name": "addCandidate",
					"outputs": [
						{
							"internalType": "bool",
							"name": "",
							"type": "bool"
						}
					],
					"stateMutability": "nonpayable",
					"type": "function"
				},
				{
					"inputs": [
						{
							"internalType": "uint8",
							"name": "_status",
							"type": "uint8"
						}
					],
					"name": "setStatus",
					"outputs": [],
					"stateMutability": "nonpayable",
					"type": "function"
				},
				{
					"inputs": [],
					"name": "status",
					"outputs": [
						{
							"internalType": "enum Voting.Status",
							"name": "",
							"type": "uint8"
						}
					],
					"stateMutability": "view",
					"type": "function"
				},
				{
					"inputs": [
						{
							"internalType": "address",
							"name": "_add",
							"type": "address"
						}
					],
					"name": "voteCountForCan",
					"outputs": [
						{
							"internalType": "uint256",
							"name": "",
							"type": "uint256"
						}
					],
					"stateMutability": "view",
					"type": "function"
				}
			],
			"devdoc": {
				"kind": "dev",
				"methods": {},
				"version": 1
			},
			"evm": {
				"assembly": "    /* \"NewLearning/enum.sol\":61:1455  contract Voting{... */\n  mstore(0x40, 0x80)\n  callvalue\n  dup1\n  iszero\n  tag_1\n  jumpi\n  revert(0x00, 0x00)\ntag_1:\n  pop\n  dataSize(sub_0)\n  dup1\n  dataOffset(sub_0)\n  0x00\n  codecopy\n  0x00\n  return\nstop\n\nsub_0: assembly {\n        /* \"NewLearning/enum.sol\":61:1455  contract Voting{... */\n      mstore(0x40, 0x80)\n      callvalue\n      dup1\n      iszero\n      tag_1\n      jumpi\n      revert(0x00, 0x00)\n    tag_1:\n      pop\n      jumpi(tag_2, lt(calldatasize, 0x04))\n      shr(0xe0, calldataload(0x00))\n      dup1\n      0x0dcc6535\n      eq\n      tag_3\n      jumpi\n      dup1\n      0x200d2ed2\n      eq\n      tag_4\n      jumpi\n      dup1\n      0x2e49d78b\n      eq\n      tag_5\n      jumpi\n      dup1\n      0x9a594f06\n      eq\n      tag_6\n      jumpi\n      dup1\n      0xcebfbd32\n      eq\n      tag_7\n      jumpi\n    tag_2:\n      revert(0x00, 0x00)\n        /* \"NewLearning/enum.sol\":1327:1450  function voteCountForCan(address _add) public view End returns(uint256){... */\n    tag_3:\n      tag_8\n      0x04\n      dup1\n      calldatasize\n      sub\n      dup2\n      add\n      swap1\n      tag_9\n      swap2\n      swap1\n      tag_10\n      jump\t// in\n    tag_9:\n      tag_11\n      jump\t// in\n    tag_8:\n      mload(0x40)\n      tag_12\n      swap2\n      swap1\n      tag_13\n      jump\t// in\n    tag_12:\n      mload(0x40)\n      dup1\n      swap2\n      sub\n      swap1\n      return\n        /* \"NewLearning/enum.sol\":211:231  Status public status */\n    tag_4:\n      tag_14\n      tag_15\n      jump\t// in\n    tag_14:\n      mload(0x40)\n      tag_16\n      swap2\n      swap1\n      tag_17\n      jump\t// in\n    tag_16:\n      mload(0x40)\n      dup1\n      swap2\n      sub\n      swap1\n      return\n        /* \"NewLearning/enum.sol\":394:478  function setStatus(uint8 _status) public {... */\n    tag_5:\n      tag_18\n      0x04\n      dup1\n      calldatasize\n      sub\n      dup2\n      add\n      swap1\n      tag_19\n      swap2\n      swap1\n      tag_20\n      jump\t// in\n    tag_19:\n      tag_21\n      jump\t// in\n    tag_18:\n      stop\n        /* \"NewLearning/enum.sol\":703:1078  function addCandidate(address _add, string memory name) public Ongoing End returns(bool){... */\n    tag_6:\n      tag_22\n      0x04\n      dup1\n      calldatasize\n      sub\n      dup2\n      add\n      swap1\n      tag_23\n      swap2\n      swap1\n      tag_24\n      jump\t// in\n    tag_23:\n      tag_25\n      jump\t// in\n    tag_22:\n      mload(0x40)\n      tag_26\n      swap2\n      swap1\n      tag_27\n      jump\t// in\n    tag_26:\n      mload(0x40)\n      dup1\n      swap2\n      sub\n      swap1\n      return\n        /* \"NewLearning/enum.sol\":1086:1319  function Votestart(address _add) public Ongoing End returns(bool){... */\n    tag_7:\n      tag_28\n      0x04\n      dup1\n      calldatasize\n      sub\n      dup2\n      add\n      swap1\n      tag_29\n      swap2\n      swap1\n      tag_10\n      jump\t// in\n    tag_29:\n      tag_30\n      jump\t// in\n    tag_28:\n      mload(0x40)\n      tag_31\n      swap2\n      swap1\n      tag_27\n      jump\t// in\n    tag_31:\n      mload(0x40)\n      dup1\n      swap2\n      sub\n      swap1\n      return\n        /* \"NewLearning/enum.sol\":1327:1450  function voteCountForCan(address _add) public view End returns(uint256){... */\n    tag_11:\n        /* \"NewLearning/enum.sol\":1390:1397  uint256 */\n      0x00\n        /* \"NewLearning/enum.sol\":646:658  Status.Ended */\n      0x02\n        /* \"NewLearning/enum.sol\":636:658  status != Status.Ended */\n      dup1\n      dup2\n      gt\n      iszero\n      tag_33\n      jumpi\n      tag_34\n      tag_35\n      jump\t// in\n    tag_34:\n    tag_33:\n        /* \"NewLearning/enum.sol\":636:642  status */\n      0x00\n      0x00\n      swap1\n      sload\n      swap1\n      0x0100\n      exp\n      swap1\n      div\n      0xff\n      and\n        /* \"NewLearning/enum.sol\":636:658  status != Status.Ended */\n      0x02\n      dup2\n      gt\n      iszero\n      tag_36\n      jumpi\n      tag_37\n      tag_35\n      jump\t// in\n    tag_37:\n    tag_36:\n      sub\n        /* \"NewLearning/enum.sol\":628:675  require(status != Status.Ended,\"Already Ended\") */\n      tag_38\n      jumpi\n      mload(0x40)\n      0x08c379a000000000000000000000000000000000000000000000000000000000\n      dup2\n      mstore\n      0x04\n      add\n      tag_39\n      swap1\n      tag_40\n      jump\t// in\n    tag_39:\n      mload(0x40)\n      dup1\n      swap2\n      sub\n      swap1\n      revert\n    tag_38:\n        /* \"NewLearning/enum.sol\":1416:1426  candidates */\n      0x01\n        /* \"NewLearning/enum.sol\":1416:1432  candidates[_add] */\n      0x00\n        /* \"NewLearning/enum.sol\":1427:1431  _add */\n      dup4\n        /* \"NewLearning/enum.sol\":1416:1432  candidates[_add] */\n      0xffffffffffffffffffffffffffffffffffffffff\n      and\n      0xffffffffffffffffffffffffffffffffffffffff\n      and\n      dup2\n      mstore\n      0x20\n      add\n      swap1\n      dup2\n      mstore\n      0x20\n      add\n      0x00\n      keccak256\n        /* \"NewLearning/enum.sol\":1416:1442  candidates[_add].voteCount */\n      0x01\n      add\n      sload\n        /* \"NewLearning/enum.sol\":1409:1442  return candidates[_add].voteCount */\n      swap1\n      pop\n        /* \"NewLearning/enum.sol\":1327:1450  function voteCountForCan(address _add) public view End returns(uint256){... */\n      swap2\n      swap1\n      pop\n      jump\t// out\n        /* \"NewLearning/enum.sol\":211:231  Status public status */\n    tag_15:\n      0x00\n      0x00\n      swap1\n      sload\n      swap1\n      0x0100\n      exp\n      swap1\n      div\n      0xff\n      and\n      dup2\n      jump\t// out\n        /* \"NewLearning/enum.sol\":394:478  function setStatus(uint8 _status) public {... */\n    tag_21:\n        /* \"NewLearning/enum.sol\":462:469  _status */\n      dup1\n        /* \"NewLearning/enum.sol\":455:470  Status(_status) */\n      0xff\n      and\n      0x02\n      dup2\n      gt\n      iszero\n      tag_43\n      jumpi\n      tag_44\n      tag_35\n      jump\t// in\n    tag_44:\n    tag_43:\n        /* \"NewLearning/enum.sol\":446:452  status */\n      0x00\n      0x00\n        /* \"NewLearning/enum.sol\":446:470  status = Status(_status) */\n      0x0100\n      exp\n      dup2\n      sload\n      dup2\n      0xff\n      mul\n      not\n      and\n      swap1\n      dup4\n      0x02\n      dup2\n      gt\n      iszero\n      tag_45\n      jumpi\n      tag_46\n      tag_35\n      jump\t// in\n    tag_46:\n    tag_45:\n      mul\n      or\n      swap1\n      sstore\n      pop\n        /* \"NewLearning/enum.sol\":394:478  function setStatus(uint8 _status) public {... */\n      pop\n      jump\t// out\n        /* \"NewLearning/enum.sol\":703:1078  function addCandidate(address _add, string memory name) public Ongoing End returns(bool){... */\n    tag_25:\n        /* \"NewLearning/enum.sol\":786:790  bool */\n      0x00\n        /* \"NewLearning/enum.sol\":533:547  Status.ongoing */\n      0x01\n        /* \"NewLearning/enum.sol\":523:547  status == Status.ongoing */\n      0x02\n      dup2\n      gt\n      iszero\n      tag_48\n      jumpi\n      tag_49\n      tag_35\n      jump\t// in\n    tag_49:\n    tag_48:\n        /* \"NewLearning/enum.sol\":523:529  status */\n      0x00\n      0x00\n      swap1\n      sload\n      swap1\n      0x0100\n      exp\n      swap1\n      div\n      0xff\n      and\n        /* \"NewLearning/enum.sol\":523:547  status == Status.ongoing */\n      0x02\n      dup2\n      gt\n      iszero\n      tag_50\n      jumpi\n      tag_51\n      tag_35\n      jump\t// in\n    tag_51:\n    tag_50:\n      eq\n        /* \"NewLearning/enum.sol\":515:575  require(status == Status.ongoing,\"You have to Start Voting\") */\n      tag_52\n      jumpi\n      mload(0x40)\n      0x08c379a000000000000000000000000000000000000000000000000000000000\n      dup2\n      mstore\n      0x04\n      add\n      tag_53\n      swap1\n      tag_54\n      jump\t// in\n    tag_53:\n      mload(0x40)\n      dup1\n      swap2\n      sub\n      swap1\n      revert\n    tag_52:\n        /* \"NewLearning/enum.sol\":646:658  Status.Ended */\n      0x02\n        /* \"NewLearning/enum.sol\":636:658  status != Status.Ended */\n      dup1\n      dup2\n      gt\n      iszero\n      tag_56\n      jumpi\n      tag_57\n      tag_35\n      jump\t// in\n    tag_57:\n    tag_56:\n        /* \"NewLearning/enum.sol\":636:642  status */\n      0x00\n      0x00\n      swap1\n      sload\n      swap1\n      0x0100\n      exp\n      swap1\n      div\n      0xff\n      and\n        /* \"NewLearning/enum.sol\":636:658  status != Status.Ended */\n      0x02\n      dup2\n      gt\n      iszero\n      tag_58\n      jumpi\n      tag_59\n      tag_35\n      jump\t// in\n    tag_59:\n    tag_58:\n      sub\n        /* \"NewLearning/enum.sol\":628:675  require(status != Status.Ended,\"Already Ended\") */\n      tag_60\n      jumpi\n      mload(0x40)\n      0x08c379a000000000000000000000000000000000000000000000000000000000\n      dup2\n      mstore\n      0x04\n      add\n      tag_61\n      swap1\n      tag_40\n      jump\t// in\n    tag_61:\n      mload(0x40)\n      dup1\n      swap2\n      sub\n      swap1\n      revert\n    tag_60:\n        /* \"NewLearning/enum.sol\":811:819  sameName */\n      0x03\n        /* \"NewLearning/enum.sol\":820:824  name */\n      dup3\n        /* \"NewLearning/enum.sol\":811:825  sameName[name] */\n      mload(0x40)\n      tag_63\n      swap2\n      swap1\n      tag_64\n      jump\t// in\n    tag_63:\n      swap1\n      dup2\n      mstore\n      0x20\n      add\n      mload(0x40)\n      dup1\n      swap2\n      sub\n      swap1\n      keccak256\n      0x00\n      swap1\n      sload\n      swap1\n      0x0100\n      exp\n      swap1\n      div\n      0xff\n      and\n        /* \"NewLearning/enum.sol\":810:825  !sameName[name] */\n      iszero\n        /* \"NewLearning/enum.sol\":802:853  require(!sameName[name],\"name should be different\") */\n      tag_65\n      jumpi\n      mload(0x40)\n      0x08c379a000000000000000000000000000000000000000000000000000000000\n      dup2\n      mstore\n      0x04\n      add\n      tag_66\n      swap1\n      tag_67\n      jump\t// in\n    tag_66:\n      mload(0x40)\n      dup1\n      swap2\n      sub\n      swap1\n      revert\n    tag_65:\n        /* \"NewLearning/enum.sol\":911:912  0 */\n      0x00\n        /* \"NewLearning/enum.sol\":878:888  candidates */\n      0x01\n        /* \"NewLearning/enum.sol\":878:894  candidates[_add] */\n      0x00\n        /* \"NewLearning/enum.sol\":889:893  _add */\n      dup6\n        /* \"NewLearning/enum.sol\":878:894  candidates[_add] */\n      0xffffffffffffffffffffffffffffffffffffffff\n      and\n      0xffffffffffffffffffffffffffffffffffffffff\n      and\n      dup2\n      mstore\n      0x20\n      add\n      swap1\n      dup2\n      mstore\n      0x20\n      add\n      0x00\n      keccak256\n        /* \"NewLearning/enum.sol\":878:899  candidates[_add].name */\n      0x00\n      add\n        /* \"NewLearning/enum.sol\":872:907  bytes(candidates[_add].name).length */\n      dup1\n      sload\n      tag_68\n      swap1\n      tag_69\n      jump\t// in\n    tag_68:\n      swap1\n      pop\n        /* \"NewLearning/enum.sol\":872:912  bytes(candidates[_add].name).length == 0 */\n      eq\n        /* \"NewLearning/enum.sol\":864:957  require(bytes(candidates[_add].name).length == 0,\"Candidate can't add with the same Address\") */\n      tag_70\n      jumpi\n      mload(0x40)\n      0x08c379a000000000000000000000000000000000000000000000000000000000\n      dup2\n      mstore\n      0x04\n      add\n      tag_71\n      swap1\n      tag_72\n      jump\t// in\n    tag_71:\n      mload(0x40)\n      dup1\n      swap2\n      sub\n      swap1\n      revert\n    tag_70:\n        /* \"NewLearning/enum.sol\":997:1014  Candidate(name,0) */\n      mload(0x40)\n      dup1\n      0x40\n      add\n      0x40\n      mstore\n      dup1\n        /* \"NewLearning/enum.sol\":1007:1011  name */\n      dup4\n        /* \"NewLearning/enum.sol\":997:1014  Candidate(name,0) */\n      dup2\n      mstore\n      0x20\n      add\n        /* \"NewLearning/enum.sol\":1012:1013  0 */\n      0x00\n        /* \"NewLearning/enum.sol\":997:1014  Candidate(name,0) */\n      dup2\n      mstore\n      pop\n        /* \"NewLearning/enum.sol\":978:988  candidates */\n      0x01\n        /* \"NewLearning/enum.sol\":978:994  candidates[_add] */\n      0x00\n        /* \"NewLearning/enum.sol\":989:993  _add */\n      dup6\n        /* \"NewLearning/enum.sol\":978:994  candidates[_add] */\n      0xffffffffffffffffffffffffffffffffffffffff\n      and\n      0xffffffffffffffffffffffffffffffffffffffff\n      and\n      dup2\n      mstore\n      0x20\n      add\n      swap1\n      dup2\n      mstore\n      0x20\n      add\n      0x00\n      keccak256\n        /* \"NewLearning/enum.sol\":978:1014  candidates[_add] = Candidate(name,0) */\n      0x00\n      dup3\n      add\n      mload\n      dup2\n      0x00\n      add\n      swap1\n      dup2\n      tag_73\n      swap2\n      swap1\n      tag_74\n      jump\t// in\n    tag_73:\n      pop\n      0x20\n      dup3\n      add\n      mload\n      dup2\n      0x01\n      add\n      sstore\n      swap1\n      pop\n      pop\n        /* \"NewLearning/enum.sol\":1042:1046  true */\n      0x01\n        /* \"NewLearning/enum.sol\":1025:1033  sameName */\n      0x03\n        /* \"NewLearning/enum.sol\":1034:1038  name */\n      dup4\n        /* \"NewLearning/enum.sol\":1025:1039  sameName[name] */\n      mload(0x40)\n      tag_75\n      swap2\n      swap1\n      tag_64\n      jump\t// in\n    tag_75:\n      swap1\n      dup2\n      mstore\n      0x20\n      add\n      mload(0x40)\n      dup1\n      swap2\n      sub\n      swap1\n      keccak256\n      0x00\n        /* \"NewLearning/enum.sol\":1025:1046  sameName[name] = true */\n      0x0100\n      exp\n      dup2\n      sload\n      dup2\n      0xff\n      mul\n      not\n      and\n      swap1\n      dup4\n      iszero\n      iszero\n      mul\n      or\n      swap1\n      sstore\n      pop\n        /* \"NewLearning/enum.sol\":1066:1070  true */\n      0x01\n        /* \"NewLearning/enum.sol\":1059:1070  return true */\n      swap1\n      pop\n        /* \"NewLearning/enum.sol\":703:1078  function addCandidate(address _add, string memory name) public Ongoing End returns(bool){... */\n      swap3\n      swap2\n      pop\n      pop\n      jump\t// out\n        /* \"NewLearning/enum.sol\":1086:1319  function Votestart(address _add) public Ongoing End returns(bool){... */\n    tag_30:\n        /* \"NewLearning/enum.sol\":1146:1150  bool */\n      0x00\n        /* \"NewLearning/enum.sol\":533:547  Status.ongoing */\n      0x01\n        /* \"NewLearning/enum.sol\":523:547  status == Status.ongoing */\n      0x02\n      dup2\n      gt\n      iszero\n      tag_77\n      jumpi\n      tag_78\n      tag_35\n      jump\t// in\n    tag_78:\n    tag_77:\n        /* \"NewLearning/enum.sol\":523:529  status */\n      0x00\n      0x00\n      swap1\n      sload\n      swap1\n      0x0100\n      exp\n      swap1\n      div\n      0xff\n      and\n        /* \"NewLearning/enum.sol\":523:547  status == Status.ongoing */\n      0x02\n      dup2\n      gt\n      iszero\n      tag_79\n      jumpi\n      tag_80\n      tag_35\n      jump\t// in\n    tag_80:\n    tag_79:\n      eq\n        /* \"NewLearning/enum.sol\":515:575  require(status == Status.ongoing,\"You have to Start Voting\") */\n      tag_81\n      jumpi\n      mload(0x40)\n      0x08c379a000000000000000000000000000000000000000000000000000000000\n      dup2\n      mstore\n      0x04\n      add\n      tag_82\n      swap1\n      tag_54\n      jump\t// in\n    tag_82:\n      mload(0x40)\n      dup1\n      swap2\n      sub\n      swap1\n      revert\n    tag_81:\n        /* \"NewLearning/enum.sol\":646:658  Status.Ended */\n      0x02\n        /* \"NewLearning/enum.sol\":636:658  status != Status.Ended */\n      dup1\n      dup2\n      gt\n      iszero\n      tag_84\n      jumpi\n      tag_85\n      tag_35\n      jump\t// in\n    tag_85:\n    tag_84:\n        /* \"NewLearning/enum.sol\":636:642  status */\n      0x00\n      0x00\n      swap1\n      sload\n      swap1\n      0x0100\n      exp\n      swap1\n      div\n      0xff\n      and\n        /* \"NewLearning/enum.sol\":636:658  status != Status.Ended */\n      0x02\n      dup2\n      gt\n      iszero\n      tag_86\n      jumpi\n      tag_87\n      tag_35\n      jump\t// in\n    tag_87:\n    tag_86:\n      sub\n        /* \"NewLearning/enum.sol\":628:675  require(status != Status.Ended,\"Already Ended\") */\n      tag_88\n      jumpi\n      mload(0x40)\n      0x08c379a000000000000000000000000000000000000000000000000000000000\n      dup2\n      mstore\n      0x04\n      add\n      tag_89\n      swap1\n      tag_40\n      jump\t// in\n    tag_89:\n      mload(0x40)\n      dup1\n      swap2\n      sub\n      swap1\n      revert\n    tag_88:\n        /* \"NewLearning/enum.sol\":1171:1179  hasVoted */\n      0x02\n        /* \"NewLearning/enum.sol\":1171:1191  hasVoted[msg.sender] */\n      0x00\n        /* \"NewLearning/enum.sol\":1180:1190  msg.sender */\n      caller\n        /* \"NewLearning/enum.sol\":1171:1191  hasVoted[msg.sender] */\n      0xffffffffffffffffffffffffffffffffffffffff\n      and\n      0xffffffffffffffffffffffffffffffffffffffff\n      and\n      dup2\n      mstore\n      0x20\n      add\n      swap1\n      dup2\n      mstore\n      0x20\n      add\n      0x00\n      keccak256\n      0x00\n      swap1\n      sload\n      swap1\n      0x0100\n      exp\n      swap1\n      div\n      0xff\n      and\n        /* \"NewLearning/enum.sol\":1170:1191  !hasVoted[msg.sender] */\n      iszero\n        /* \"NewLearning/enum.sol\":1162:1208  require(!hasVoted[msg.sender],\"Already Voted\") */\n      tag_91\n      jumpi\n      mload(0x40)\n      0x08c379a000000000000000000000000000000000000000000000000000000000\n      dup2\n      mstore\n      0x04\n      add\n      tag_92\n      swap1\n      tag_93\n      jump\t// in\n    tag_92:\n      mload(0x40)\n      dup1\n      swap2\n      sub\n      swap1\n      revert\n    tag_91:\n        /* \"NewLearning/enum.sol\":1221:1231  candidates */\n      0x01\n        /* \"NewLearning/enum.sol\":1221:1237  candidates[_add] */\n      0x00\n        /* \"NewLearning/enum.sol\":1232:1236  _add */\n      dup4\n        /* \"NewLearning/enum.sol\":1221:1237  candidates[_add] */\n      0xffffffffffffffffffffffffffffffffffffffff\n      and\n      0xffffffffffffffffffffffffffffffffffffffff\n      and\n      dup2\n      mstore\n      0x20\n      add\n      swap1\n      dup2\n      mstore\n      0x20\n      add\n      0x00\n      keccak256\n        /* \"NewLearning/enum.sol\":1221:1247  candidates[_add].voteCount */\n      0x01\n      add\n      0x00\n        /* \"NewLearning/enum.sol\":1221:1249  candidates[_add].voteCount++ */\n      dup2\n      sload\n      dup1\n      swap3\n      swap2\n      swap1\n      tag_94\n      swap1\n      tag_95\n      jump\t// in\n    tag_94:\n      swap2\n      swap1\n      pop\n      sstore\n      pop\n        /* \"NewLearning/enum.sol\":1283:1287  true */\n      0x01\n        /* \"NewLearning/enum.sol\":1260:1268  hasVoted */\n      0x02\n        /* \"NewLearning/enum.sol\":1260:1280  hasVoted[msg.sender] */\n      0x00\n        /* \"NewLearning/enum.sol\":1269:1279  msg.sender */\n      caller\n        /* \"NewLearning/enum.sol\":1260:1280  hasVoted[msg.sender] */\n      0xffffffffffffffffffffffffffffffffffffffff\n      and\n      0xffffffffffffffffffffffffffffffffffffffff\n      and\n      dup2\n      mstore\n      0x20\n      add\n      swap1\n      dup2\n      mstore\n      0x20\n      add\n      0x00\n      keccak256\n      0x00\n        /* \"NewLearning/enum.sol\":1260:1287  hasVoted[msg.sender] = true */\n      0x0100\n      exp\n      dup2\n      sload\n      dup2\n      0xff\n      mul\n      not\n      and\n      swap1\n      dup4\n      iszero\n      iszero\n      mul\n      or\n      swap1\n      sstore\n      pop\n        /* \"NewLearning/enum.sol\":1307:1311  true */\n      0x01\n        /* \"NewLearning/enum.sol\":1300:1311  return true */\n      swap1\n      pop\n        /* \"NewLearning/enum.sol\":1086:1319  function Votestart(address _add) public Ongoing End returns(bool){... */\n      swap2\n      swap1\n      pop\n      jump\t// out\n        /* \"#utility.yul\":7:82   */\n    tag_96:\n        /* \"#utility.yul\":40:46   */\n      0x00\n        /* \"#utility.yul\":73:75   */\n      0x40\n        /* \"#utility.yul\":67:76   */\n      mload\n        /* \"#utility.yul\":57:76   */\n      swap1\n      pop\n        /* \"#utility.yul\":7:82   */\n      swap1\n      jump\t// out\n        /* \"#utility.yul\":88:205   */\n    tag_97:\n        /* \"#utility.yul\":197:198   */\n      0x00\n        /* \"#utility.yul\":194:195   */\n      0x00\n        /* \"#utility.yul\":187:199   */\n      revert\n        /* \"#utility.yul\":211:328   */\n    tag_98:\n        /* \"#utility.yul\":320:321   */\n      0x00\n        /* \"#utility.yul\":317:318   */\n      0x00\n        /* \"#utility.yul\":310:322   */\n      revert\n        /* \"#utility.yul\":334:460   */\n    tag_99:\n        /* \"#utility.yul\":371:378   */\n      0x00\n        /* \"#utility.yul\":411:453   */\n      0xffffffffffffffffffffffffffffffffffffffff\n        /* \"#utility.yul\":404:409   */\n      dup3\n        /* \"#utility.yul\":400:454   */\n      and\n        /* \"#utility.yul\":389:454   */\n      swap1\n      pop\n        /* \"#utility.yul\":334:460   */\n      swap2\n      swap1\n      pop\n      jump\t// out\n        /* \"#utility.yul\":466:562   */\n    tag_100:\n        /* \"#utility.yul\":503:510   */\n      0x00\n        /* \"#utility.yul\":532:556   */\n      tag_162\n        /* \"#utility.yul\":550:555   */\n      dup3\n        /* \"#utility.yul\":532:556   */\n      tag_99\n      jump\t// in\n    tag_162:\n        /* \"#utility.yul\":521:556   */\n      swap1\n      pop\n        /* \"#utility.yul\":466:562   */\n      swap2\n      swap1\n      pop\n      jump\t// out\n        /* \"#utility.yul\":568:690   */\n    tag_101:\n        /* \"#utility.yul\":641:665   */\n      tag_164\n        /* \"#utility.yul\":659:664   */\n      dup2\n        /* \"#utility.yul\":641:665   */\n      tag_100\n      jump\t// in\n    tag_164:\n        /* \"#utility.yul\":634:639   */\n      dup2\n        /* \"#utility.yul\":631:666   */\n      eq\n        /* \"#utility.yul\":621:684   */\n      tag_165\n      jumpi\n        /* \"#utility.yul\":680:681   */\n      0x00\n        /* \"#utility.yul\":677:678   */\n      0x00\n        /* \"#utility.yul\":670:682   */\n      revert\n        /* \"#utility.yul\":621:684   */\n    tag_165:\n        /* \"#utility.yul\":568:690   */\n      pop\n      jump\t// out\n        /* \"#utility.yul\":696:835   */\n    tag_102:\n        /* \"#utility.yul\":742:747   */\n      0x00\n        /* \"#utility.yul\":780:786   */\n      dup2\n        /* \"#utility.yul\":767:787   */\n      calldataload\n        /* \"#utility.yul\":758:787   */\n      swap1\n      pop\n        /* \"#utility.yul\":796:829   */\n      tag_167\n        /* \"#utility.yul\":823:828   */\n      dup2\n        /* \"#utility.yul\":796:829   */\n      tag_101\n      jump\t// in\n    tag_167:\n        /* \"#utility.yul\":696:835   */\n      swap3\n      swap2\n      pop\n      pop\n      jump\t// out\n        /* \"#utility.yul\":841:1170   */\n    tag_10:\n        /* \"#utility.yul\":900:906   */\n      0x00\n        /* \"#utility.yul\":949:951   */\n      0x20\n        /* \"#utility.yul\":937:946   */\n      dup3\n        /* \"#utility.yul\":928:935   */\n      dup5\n        /* \"#utility.yul\":924:947   */\n      sub\n        /* \"#utility.yul\":920:952   */\n      slt\n        /* \"#utility.yul\":917:1036   */\n      iszero\n      tag_169\n      jumpi\n        /* \"#utility.yul\":955:1034   */\n      tag_170\n      tag_97\n      jump\t// in\n    tag_170:\n        /* \"#utility.yul\":917:1036   */\n    tag_169:\n        /* \"#utility.yul\":1075:1076   */\n      0x00\n        /* \"#utility.yul\":1100:1153   */\n      tag_171\n        /* \"#utility.yul\":1145:1152   */\n      dup5\n        /* \"#utility.yul\":1136:1142   */\n      dup3\n        /* \"#utility.yul\":1125:1134   */\n      dup6\n        /* \"#utility.yul\":1121:1143   */\n      add\n        /* \"#utility.yul\":1100:1153   */\n      tag_102\n      jump\t// in\n    tag_171:\n        /* \"#utility.yul\":1090:1153   */\n      swap2\n      pop\n        /* \"#utility.yul\":1046:1163   */\n      pop\n        /* \"#utility.yul\":841:1170   */\n      swap3\n      swap2\n      pop\n      pop\n      jump\t// out\n        /* \"#utility.yul\":1176:1253   */\n    tag_103:\n        /* \"#utility.yul\":1213:1220   */\n      0x00\n        /* \"#utility.yul\":1242:1247   */\n      dup2\n        /* \"#utility.yul\":1231:1247   */\n      swap1\n      pop\n        /* \"#utility.yul\":1176:1253   */\n      swap2\n      swap1\n      pop\n      jump\t// out\n        /* \"#utility.yul\":1259:1377   */\n    tag_104:\n        /* \"#utility.yul\":1346:1370   */\n      tag_174\n        /* \"#utility.yul\":1364:1369   */\n      dup2\n        /* \"#utility.yul\":1346:1370   */\n      tag_103\n      jump\t// in\n    tag_174:\n        /* \"#utility.yul\":1341:1344   */\n      dup3\n        /* \"#utility.yul\":1334:1371   */\n      mstore\n        /* \"#utility.yul\":1259:1377   */\n      pop\n      pop\n      jump\t// out\n        /* \"#utility.yul\":1383:1605   */\n    tag_13:\n        /* \"#utility.yul\":1476:1480   */\n      0x00\n        /* \"#utility.yul\":1514:1516   */\n      0x20\n        /* \"#utility.yul\":1503:1512   */\n      dup3\n        /* \"#utility.yul\":1499:1517   */\n      add\n        /* \"#utility.yul\":1491:1517   */\n      swap1\n      pop\n        /* \"#utility.yul\":1527:1598   */\n      tag_176\n        /* \"#utility.yul\":1595:1596   */\n      0x00\n        /* \"#utility.yul\":1584:1593   */\n      dup4\n        /* \"#utility.yul\":1580:1597   */\n      add\n        /* \"#utility.yul\":1571:1577   */\n      dup5\n        /* \"#utility.yul\":1527:1598   */\n      tag_104\n      jump\t// in\n    tag_176:\n        /* \"#utility.yul\":1383:1605   */\n      swap3\n      swap2\n      pop\n      pop\n      jump\t// out\n        /* \"#utility.yul\":1611:1791   */\n    tag_35:\n        /* \"#utility.yul\":1659:1736   */\n      0x4e487b7100000000000000000000000000000000000000000000000000000000\n        /* \"#utility.yul\":1656:1657   */\n      0x00\n        /* \"#utility.yul\":1649:1737   */\n      mstore\n        /* \"#utility.yul\":1756:1760   */\n      0x21\n        /* \"#utility.yul\":1753:1754   */\n      0x04\n        /* \"#utility.yul\":1746:1761   */\n      mstore\n        /* \"#utility.yul\":1780:1784   */\n      0x24\n        /* \"#utility.yul\":1777:1778   */\n      0x00\n        /* \"#utility.yul\":1770:1785   */\n      revert\n        /* \"#utility.yul\":1797:1910   */\n    tag_105:\n        /* \"#utility.yul\":1878:1879   */\n      0x03\n        /* \"#utility.yul\":1871:1876   */\n      dup2\n        /* \"#utility.yul\":1868:1880   */\n      lt\n        /* \"#utility.yul\":1858:1904   */\n      tag_179\n      jumpi\n        /* \"#utility.yul\":1884:1902   */\n      tag_180\n      tag_35\n      jump\t// in\n    tag_180:\n        /* \"#utility.yul\":1858:1904   */\n    tag_179:\n        /* \"#utility.yul\":1797:1910   */\n      pop\n      jump\t// out\n        /* \"#utility.yul\":1916:2043   */\n    tag_106:\n        /* \"#utility.yul\":1961:1968   */\n      0x00\n        /* \"#utility.yul\":1990:1995   */\n      dup2\n        /* \"#utility.yul\":1979:1995   */\n      swap1\n      pop\n        /* \"#utility.yul\":1996:2037   */\n      tag_182\n        /* \"#utility.yul\":2031:2036   */\n      dup3\n        /* \"#utility.yul\":1996:2037   */\n      tag_105\n      jump\t// in\n    tag_182:\n        /* \"#utility.yul\":1916:2043   */\n      swap2\n      swap1\n      pop\n      jump\t// out\n        /* \"#utility.yul\":2049:2176   */\n    tag_107:\n        /* \"#utility.yul\":2105:2114   */\n      0x00\n        /* \"#utility.yul\":2138:2170   */\n      tag_184\n        /* \"#utility.yul\":2164:2169   */\n      dup3\n        /* \"#utility.yul\":2138:2170   */\n      tag_106\n      jump\t// in\n    tag_184:\n        /* \"#utility.yul\":2125:2170   */\n      swap1\n      pop\n        /* \"#utility.yul\":2049:2176   */\n      swap2\n      swap1\n      pop\n      jump\t// out\n        /* \"#utility.yul\":2182:2325   */\n    tag_108:\n        /* \"#utility.yul\":2275:2318   */\n      tag_186\n        /* \"#utility.yul\":2312:2317   */\n      dup2\n        /* \"#utility.yul\":2275:2318   */\n      tag_107\n      jump\t// in\n    tag_186:\n        /* \"#utility.yul\":2270:2273   */\n      dup3\n        /* \"#utility.yul\":2263:2319   */\n      mstore\n        /* \"#utility.yul\":2182:2325   */\n      pop\n      pop\n      jump\t// out\n        /* \"#utility.yul\":2331:2565   */\n    tag_17:\n        /* \"#utility.yul\":2430:2434   */\n      0x00\n        /* \"#utility.yul\":2468:2470   */\n      0x20\n        /* \"#utility.yul\":2457:2466   */\n      dup3\n        /* \"#utility.yul\":2453:2471   */\n      add\n        /* \"#utility.yul\":2445:2471   */\n      swap1\n      pop\n        /* \"#utility.yul\":2481:2558   */\n      tag_188\n        /* \"#utility.yul\":2555:2556   */\n      0x00\n        /* \"#utility.yul\":2544:2553   */\n      dup4\n        /* \"#utility.yul\":2540:2557   */\n      add\n        /* \"#utility.yul\":2531:2537   */\n      dup5\n        /* \"#utility.yul\":2481:2558   */\n      tag_108\n      jump\t// in\n    tag_188:\n        /* \"#utility.yul\":2331:2565   */\n      swap3\n      swap2\n      pop\n      pop\n      jump\t// out\n        /* \"#utility.yul\":2571:2657   */\n    tag_109:\n        /* \"#utility.yul\":2606:2613   */\n      0x00\n        /* \"#utility.yul\":2646:2650   */\n      0xff\n        /* \"#utility.yul\":2639:2644   */\n      dup3\n        /* \"#utility.yul\":2635:2651   */\n      and\n        /* \"#utility.yul\":2624:2651   */\n      swap1\n      pop\n        /* \"#utility.yul\":2571:2657   */\n      swap2\n      swap1\n      pop\n      jump\t// out\n        /* \"#utility.yul\":2663:2781   */\n    tag_110:\n        /* \"#utility.yul\":2734:2756   */\n      tag_191\n        /* \"#utility.yul\":2750:2755   */\n      dup2\n        /* \"#utility.yul\":2734:2756   */\n      tag_109\n      jump\t// in\n    tag_191:\n        /* \"#utility.yul\":2727:2732   */\n      dup2\n        /* \"#utility.yul\":2724:2757   */\n      eq\n        /* \"#utility.yul\":2714:2775   */\n      tag_192\n      jumpi\n        /* \"#utility.yul\":2771:2772   */\n      0x00\n        /* \"#utility.yul\":2768:2769   */\n      0x00\n        /* \"#utility.yul\":2761:2773   */\n      revert\n        /* \"#utility.yul\":2714:2775   */\n    tag_192:\n        /* \"#utility.yul\":2663:2781   */\n      pop\n      jump\t// out\n        /* \"#utility.yul\":2787:2922   */\n    tag_111:\n        /* \"#utility.yul\":2831:2836   */\n      0x00\n        /* \"#utility.yul\":2869:2875   */\n      dup2\n        /* \"#utility.yul\":2856:2876   */\n      calldataload\n        /* \"#utility.yul\":2847:2876   */\n      swap1\n      pop\n        /* \"#utility.yul\":2885:2916   */\n      tag_194\n        /* \"#utility.yul\":2910:2915   */\n      dup2\n        /* \"#utility.yul\":2885:2916   */\n      tag_110\n      jump\t// in\n    tag_194:\n        /* \"#utility.yul\":2787:2922   */\n      swap3\n      swap2\n      pop\n      pop\n      jump\t// out\n        /* \"#utility.yul\":2928:3253   */\n    tag_20:\n        /* \"#utility.yul\":2985:2991   */\n      0x00\n        /* \"#utility.yul\":3034:3036   */\n      0x20\n        /* \"#utility.yul\":3022:3031   */\n      dup3\n        /* \"#utility.yul\":3013:3020   */\n      dup5\n        /* \"#utility.yul\":3009:3032   */\n      sub\n        /* \"#utility.yul\":3005:3037   */\n      slt\n        /* \"#utility.yul\":3002:3121   */\n      iszero\n      tag_196\n      jumpi\n        /* \"#utility.yul\":3040:3119   */\n      tag_197\n      tag_97\n      jump\t// in\n    tag_197:\n        /* \"#utility.yul\":3002:3121   */\n    tag_196:\n        /* \"#utility.yul\":3160:3161   */\n      0x00\n        /* \"#utility.yul\":3185:3236   */\n      tag_198\n        /* \"#utility.yul\":3228:3235   */\n      dup5\n        /* \"#utility.yul\":3219:3225   */\n      dup3\n        /* \"#utility.yul\":3208:3217   */\n      dup6\n        /* \"#utility.yul\":3204:3226   */\n      add\n        /* \"#utility.yul\":3185:3236   */\n      tag_111\n      jump\t// in\n    tag_198:\n        /* \"#utility.yul\":3175:3236   */\n      swap2\n      pop\n        /* \"#utility.yul\":3131:3246   */\n      pop\n        /* \"#utility.yul\":2928:3253   */\n      swap3\n      swap2\n      pop\n      pop\n      jump\t// out\n        /* \"#utility.yul\":3259:3376   */\n    tag_112:\n        /* \"#utility.yul\":3368:3369   */\n      0x00\n        /* \"#utility.yul\":3365:3366   */\n      0x00\n        /* \"#utility.yul\":3358:3370   */\n      revert\n        /* \"#utility.yul\":3382:3499   */\n    tag_113:\n        /* \"#utility.yul\":3491:3492   */\n      0x00\n        /* \"#utility.yul\":3488:3489   */\n      0x00\n        /* \"#utility.yul\":3481:3493   */\n      revert\n        /* \"#utility.yul\":3505:3607   */\n    tag_114:\n        /* \"#utility.yul\":3546:3552   */\n      0x00\n        /* \"#utility.yul\":3597:3599   */\n      0x1f\n        /* \"#utility.yul\":3593:3600   */\n      not\n        /* \"#utility.yul\":3588:3590   */\n      0x1f\n        /* \"#utility.yul\":3581:3586   */\n      dup4\n        /* \"#utility.yul\":3577:3591   */\n      add\n        /* \"#utility.yul\":3573:3601   */\n      and\n        /* \"#utility.yul\":3563:3601   */\n      swap1\n      pop\n        /* \"#utility.yul\":3505:3607   */\n      swap2\n      swap1\n      pop\n      jump\t// out\n        /* \"#utility.yul\":3613:3793   */\n    tag_115:\n        /* \"#utility.yul\":3661:3738   */\n      0x4e487b7100000000000000000000000000000000000000000000000000000000\n        /* \"#utility.yul\":3658:3659   */\n      0x00\n        /* \"#utility.yul\":3651:3739   */\n      mstore\n        /* \"#utility.yul\":3758:3762   */\n      0x41\n        /* \"#utility.yul\":3755:3756   */\n      0x04\n        /* \"#utility.yul\":3748:3763   */\n      mstore\n        /* \"#utility.yul\":3782:3786   */\n      0x24\n        /* \"#utility.yul\":3779:3780   */\n      0x00\n        /* \"#utility.yul\":3772:3787   */\n      revert\n        /* \"#utility.yul\":3799:4080   */\n    tag_116:\n        /* \"#utility.yul\":3882:3909   */\n      tag_204\n        /* \"#utility.yul\":3904:3908   */\n      dup3\n        /* \"#utility.yul\":3882:3909   */\n      tag_114\n      jump\t// in\n    tag_204:\n        /* \"#utility.yul\":3874:3880   */\n      dup2\n        /* \"#utility.yul\":3870:3910   */\n      add\n        /* \"#utility.yul\":4012:4018   */\n      dup2\n        /* \"#utility.yul\":4000:4010   */\n      dup2\n        /* \"#utility.yul\":3997:4019   */\n      lt\n        /* \"#utility.yul\":3976:3994   */\n      0xffffffffffffffff\n        /* \"#utility.yul\":3964:3974   */\n      dup3\n        /* \"#utility.yul\":3961:3995   */\n      gt\n        /* \"#utility.yul\":3958:4020   */\n      or\n        /* \"#utility.yul\":3955:4043   */\n      iszero\n      tag_205\n      jumpi\n        /* \"#utility.yul\":4023:4041   */\n      tag_206\n      tag_115\n      jump\t// in\n    tag_206:\n        /* \"#utility.yul\":3955:4043   */\n    tag_205:\n        /* \"#utility.yul\":4063:4073   */\n      dup1\n        /* \"#utility.yul\":4059:4061   */\n      0x40\n        /* \"#utility.yul\":4052:4074   */\n      mstore\n        /* \"#utility.yul\":3842:4080   */\n      pop\n        /* \"#utility.yul\":3799:4080   */\n      pop\n      pop\n      jump\t// out\n        /* \"#utility.yul\":4086:4215   */\n    tag_117:\n        /* \"#utility.yul\":4120:4126   */\n      0x00\n        /* \"#utility.yul\":4147:4167   */\n      tag_208\n      tag_96\n      jump\t// in\n    tag_208:\n        /* \"#utility.yul\":4137:4167   */\n      swap1\n      pop\n        /* \"#utility.yul\":4176:4209   */\n      tag_209\n        /* \"#utility.yul\":4204:4208   */\n      dup3\n        /* \"#utility.yul\":4196:4202   */\n      dup3\n        /* \"#utility.yul\":4176:4209   */\n      tag_116\n      jump\t// in\n    tag_209:\n        /* \"#utility.yul\":4086:4215   */\n      swap2\n      swap1\n      pop\n      jump\t// out\n        /* \"#utility.yul\":4221:4529   */\n    tag_118:\n        /* \"#utility.yul\":4283:4287   */\n      0x00\n        /* \"#utility.yul\":4373:4391   */\n      0xffffffffffffffff\n        /* \"#utility.yul\":4365:4371   */\n      dup3\n        /* \"#utility.yul\":4362:4392   */\n      gt\n        /* \"#utility.yul\":4359:4415   */\n      iszero\n      tag_211\n      jumpi\n        /* \"#utility.yul\":4395:4413   */\n      tag_212\n      tag_115\n      jump\t// in\n    tag_212:\n        /* \"#utility.yul\":4359:4415   */\n    tag_211:\n        /* \"#utility.yul\":4433:4462   */\n      tag_213\n        /* \"#utility.yul\":4455:4461   */\n      dup3\n        /* \"#utility.yul\":4433:4462   */\n      tag_114\n      jump\t// in\n    tag_213:\n        /* \"#utility.yul\":4425:4462   */\n      swap1\n      pop\n        /* \"#utility.yul\":4517:4521   */\n      0x20\n        /* \"#utility.yul\":4511:4515   */\n      dup2\n        /* \"#utility.yul\":4507:4522   */\n      add\n        /* \"#utility.yul\":4499:4522   */\n      swap1\n      pop\n        /* \"#utility.yul\":4221:4529   */\n      swap2\n      swap1\n      pop\n      jump\t// out\n        /* \"#utility.yul\":4535:4683   */\n    tag_119:\n        /* \"#utility.yul\":4633:4639   */\n      dup3\n        /* \"#utility.yul\":4628:4631   */\n      dup2\n        /* \"#utility.yul\":4623:4626   */\n      dup4\n        /* \"#utility.yul\":4610:4640   */\n      calldatacopy\n        /* \"#utility.yul\":4674:4675   */\n      0x00\n        /* \"#utility.yul\":4665:4671   */\n      dup4\n        /* \"#utility.yul\":4660:4663   */\n      dup4\n        /* \"#utility.yul\":4656:4672   */\n      add\n        /* \"#utility.yul\":4649:4676   */\n      mstore\n        /* \"#utility.yul\":4535:4683   */\n      pop\n      pop\n      pop\n      jump\t// out\n        /* \"#utility.yul\":4689:5114   */\n    tag_120:\n        /* \"#utility.yul\":4767:4772   */\n      0x00\n        /* \"#utility.yul\":4792:4858   */\n      tag_216\n        /* \"#utility.yul\":4808:4857   */\n      tag_217\n        /* \"#utility.yul\":4850:4856   */\n      dup5\n        /* \"#utility.yul\":4808:4857   */\n      tag_118\n      jump\t// in\n    tag_217:\n        /* \"#utility.yul\":4792:4858   */\n      tag_117\n      jump\t// in\n    tag_216:\n        /* \"#utility.yul\":4783:4858   */\n      swap1\n      pop\n        /* \"#utility.yul\":4881:4887   */\n      dup3\n        /* \"#utility.yul\":4874:4879   */\n      dup2\n        /* \"#utility.yul\":4867:4888   */\n      mstore\n        /* \"#utility.yul\":4919:4923   */\n      0x20\n        /* \"#utility.yul\":4912:4917   */\n      dup2\n        /* \"#utility.yul\":4908:4924   */\n      add\n        /* \"#utility.yul\":4957:4960   */\n      dup5\n        /* \"#utility.yul\":4948:4954   */\n      dup5\n        /* \"#utility.yul\":4943:4946   */\n      dup5\n        /* \"#utility.yul\":4939:4955   */\n      add\n        /* \"#utility.yul\":4936:4961   */\n      gt\n        /* \"#utility.yul\":4933:5045   */\n      iszero\n      tag_218\n      jumpi\n        /* \"#utility.yul\":4964:5043   */\n      tag_219\n      tag_113\n      jump\t// in\n    tag_219:\n        /* \"#utility.yul\":4933:5045   */\n    tag_218:\n        /* \"#utility.yul\":5054:5108   */\n      tag_220\n        /* \"#utility.yul\":5101:5107   */\n      dup5\n        /* \"#utility.yul\":5096:5099   */\n      dup3\n        /* \"#utility.yul\":5091:5094   */\n      dup6\n        /* \"#utility.yul\":5054:5108   */\n      tag_119\n      jump\t// in\n    tag_220:\n        /* \"#utility.yul\":4773:5114   */\n      pop\n        /* \"#utility.yul\":4689:5114   */\n      swap4\n      swap3\n      pop\n      pop\n      pop\n      jump\t// out\n        /* \"#utility.yul\":5134:5474   */\n    tag_121:\n        /* \"#utility.yul\":5190:5195   */\n      0x00\n        /* \"#utility.yul\":5239:5242   */\n      dup3\n        /* \"#utility.yul\":5232:5236   */\n      0x1f\n        /* \"#utility.yul\":5224:5230   */\n      dup4\n        /* \"#utility.yul\":5220:5237   */\n      add\n        /* \"#utility.yul\":5216:5243   */\n      slt\n        /* \"#utility.yul\":5206:5328   */\n      tag_222\n      jumpi\n        /* \"#utility.yul\":5247:5326   */\n      tag_223\n      tag_112\n      jump\t// in\n    tag_223:\n        /* \"#utility.yul\":5206:5328   */\n    tag_222:\n        /* \"#utility.yul\":5364:5370   */\n      dup2\n        /* \"#utility.yul\":5351:5371   */\n      calldataload\n        /* \"#utility.yul\":5389:5468   */\n      tag_224\n        /* \"#utility.yul\":5464:5467   */\n      dup5\n        /* \"#utility.yul\":5456:5462   */\n      dup3\n        /* \"#utility.yul\":5449:5453   */\n      0x20\n        /* \"#utility.yul\":5441:5447   */\n      dup7\n        /* \"#utility.yul\":5437:5454   */\n      add\n        /* \"#utility.yul\":5389:5468   */\n      tag_120\n      jump\t// in\n    tag_224:\n        /* \"#utility.yul\":5380:5468   */\n      swap2\n      pop\n        /* \"#utility.yul\":5196:5474   */\n      pop\n        /* \"#utility.yul\":5134:5474   */\n      swap3\n      swap2\n      pop\n      pop\n      jump\t// out\n        /* \"#utility.yul\":5480:6134   */\n    tag_24:\n        /* \"#utility.yul\":5558:5564   */\n      0x00\n        /* \"#utility.yul\":5566:5572   */\n      0x00\n        /* \"#utility.yul\":5615:5617   */\n      0x40\n        /* \"#utility.yul\":5603:5612   */\n      dup4\n        /* \"#utility.yul\":5594:5601   */\n      dup6\n        /* \"#utility.yul\":5590:5613   */\n      sub\n        /* \"#utility.yul\":5586:5618   */\n      slt\n        /* \"#utility.yul\":5583:5702   */\n      iszero\n      tag_226\n      jumpi\n        /* \"#utility.yul\":5621:5700   */\n      tag_227\n      tag_97\n      jump\t// in\n    tag_227:\n        /* \"#utility.yul\":5583:5702   */\n    tag_226:\n        /* \"#utility.yul\":5741:5742   */\n      0x00\n        /* \"#utility.yul\":5766:5819   */\n      tag_228\n        /* \"#utility.yul\":5811:5818   */\n      dup6\n        /* \"#utility.yul\":5802:5808   */\n      dup3\n        /* \"#utility.yul\":5791:5800   */\n      dup7\n        /* \"#utility.yul\":5787:5809   */\n      add\n        /* \"#utility.yul\":5766:5819   */\n      tag_102\n      jump\t// in\n    tag_228:\n        /* \"#utility.yul\":5756:5819   */\n      swap3\n      pop\n        /* \"#utility.yul\":5712:5829   */\n      pop\n        /* \"#utility.yul\":5896:5898   */\n      0x20\n        /* \"#utility.yul\":5885:5894   */\n      dup4\n        /* \"#utility.yul\":5881:5899   */\n      add\n        /* \"#utility.yul\":5868:5900   */\n      calldataload\n        /* \"#utility.yul\":5927:5945   */\n      0xffffffffffffffff\n        /* \"#utility.yul\":5919:5925   */\n      dup2\n        /* \"#utility.yul\":5916:5946   */\n      gt\n        /* \"#utility.yul\":5913:6030   */\n      iszero\n      tag_229\n      jumpi\n        /* \"#utility.yul\":5949:6028   */\n      tag_230\n      tag_98\n      jump\t// in\n    tag_230:\n        /* \"#utility.yul\":5913:6030   */\n    tag_229:\n        /* \"#utility.yul\":6054:6117   */\n      tag_231\n        /* \"#utility.yul\":6109:6116   */\n      dup6\n        /* \"#utility.yul\":6100:6106   */\n      dup3\n        /* \"#utility.yul\":6089:6098   */\n      dup7\n        /* \"#utility.yul\":6085:6107   */\n      add\n        /* \"#utility.yul\":6054:6117   */\n      tag_121\n      jump\t// in\n    tag_231:\n        /* \"#utility.yul\":6044:6117   */\n      swap2\n      pop\n        /* \"#utility.yul\":5839:6127   */\n      pop\n        /* \"#utility.yul\":5480:6134   */\n      swap3\n      pop\n      swap3\n      swap1\n      pop\n      jump\t// out\n        /* \"#utility.yul\":6140:6230   */\n    tag_122:\n        /* \"#utility.yul\":6174:6181   */\n      0x00\n        /* \"#utility.yul\":6217:6222   */\n      dup2\n        /* \"#utility.yul\":6210:6223   */\n      iszero\n        /* \"#utility.yul\":6203:6224   */\n      iszero\n        /* \"#utility.yul\":6192:6224   */\n      swap1\n      pop\n        /* \"#utility.yul\":6140:6230   */\n      swap2\n      swap1\n      pop\n      jump\t// out\n        /* \"#utility.yul\":6236:6345   */\n    tag_123:\n        /* \"#utility.yul\":6317:6338   */\n      tag_234\n        /* \"#utility.yul\":6332:6337   */\n      dup2\n        /* \"#utility.yul\":6317:6338   */\n      tag_122\n      jump\t// in\n    tag_234:\n        /* \"#utility.yul\":6312:6315   */\n      dup3\n        /* \"#utility.yul\":6305:6339   */\n      mstore\n        /* \"#utility.yul\":6236:6345   */\n      pop\n      pop\n      jump\t// out\n        /* \"#utility.yul\":6351:6561   */\n    tag_27:\n        /* \"#utility.yul\":6438:6442   */\n      0x00\n        /* \"#utility.yul\":6476:6478   */\n      0x20\n        /* \"#utility.yul\":6465:6474   */\n      dup3\n        /* \"#utility.yul\":6461:6479   */\n      add\n        /* \"#utility.yul\":6453:6479   */\n      swap1\n      pop\n        /* \"#utility.yul\":6489:6554   */\n      tag_236\n        /* \"#utility.yul\":6551:6552   */\n      0x00\n        /* \"#utility.yul\":6540:6549   */\n      dup4\n        /* \"#utility.yul\":6536:6553   */\n      add\n        /* \"#utility.yul\":6527:6533   */\n      dup5\n        /* \"#utility.yul\":6489:6554   */\n      tag_123\n      jump\t// in\n    tag_236:\n        /* \"#utility.yul\":6351:6561   */\n      swap3\n      swap2\n      pop\n      pop\n      jump\t// out\n        /* \"#utility.yul\":6567:6736   */\n    tag_124:\n        /* \"#utility.yul\":6651:6662   */\n      0x00\n        /* \"#utility.yul\":6685:6691   */\n      dup3\n        /* \"#utility.yul\":6680:6683   */\n      dup3\n        /* \"#utility.yul\":6673:6692   */\n      mstore\n        /* \"#utility.yul\":6725:6729   */\n      0x20\n        /* \"#utility.yul\":6720:6723   */\n      dup3\n        /* \"#utility.yul\":6716:6730   */\n      add\n        /* \"#utility.yul\":6701:6730   */\n      swap1\n      pop\n        /* \"#utility.yul\":6567:6736   */\n      swap3\n      swap2\n      pop\n      pop\n      jump\t// out\n        /* \"#utility.yul\":6742:6905   */\n    tag_125:\n        /* \"#utility.yul\":6882:6897   */\n      0x416c726561647920456e64656400000000000000000000000000000000000000\n        /* \"#utility.yul\":6878:6879   */\n      0x00\n        /* \"#utility.yul\":6870:6876   */\n      dup3\n        /* \"#utility.yul\":6866:6880   */\n      add\n        /* \"#utility.yul\":6859:6898   */\n      mstore\n        /* \"#utility.yul\":6742:6905   */\n      pop\n      jump\t// out\n        /* \"#utility.yul\":6911:7277   */\n    tag_126:\n        /* \"#utility.yul\":7053:7056   */\n      0x00\n        /* \"#utility.yul\":7074:7141   */\n      tag_240\n        /* \"#utility.yul\":7138:7140   */\n      0x0d\n        /* \"#utility.yul\":7133:7136   */\n      dup4\n        /* \"#utility.yul\":7074:7141   */\n      tag_124\n      jump\t// in\n    tag_240:\n        /* \"#utility.yul\":7067:7141   */\n      swap2\n      pop\n        /* \"#utility.yul\":7150:7243   */\n      tag_241\n        /* \"#utility.yul\":7239:7242   */\n      dup3\n        /* \"#utility.yul\":7150:7243   */\n      tag_125\n      jump\t// in\n    tag_241:\n        /* \"#utility.yul\":7268:7270   */\n      0x20\n        /* \"#utility.yul\":7263:7266   */\n      dup3\n        /* \"#utility.yul\":7259:7271   */\n      add\n        /* \"#utility.yul\":7252:7271   */\n      swap1\n      pop\n        /* \"#utility.yul\":6911:7277   */\n      swap2\n      swap1\n      pop\n      jump\t// out\n        /* \"#utility.yul\":7283:7702   */\n    tag_40:\n        /* \"#utility.yul\":7449:7453   */\n      0x00\n        /* \"#utility.yul\":7487:7489   */\n      0x20\n        /* \"#utility.yul\":7476:7485   */\n      dup3\n        /* \"#utility.yul\":7472:7490   */\n      add\n        /* \"#utility.yul\":7464:7490   */\n      swap1\n      pop\n        /* \"#utility.yul\":7536:7545   */\n      dup2\n        /* \"#utility.yul\":7530:7534   */\n      dup2\n        /* \"#utility.yul\":7526:7546   */\n      sub\n        /* \"#utility.yul\":7522:7523   */\n      0x00\n        /* \"#utility.yul\":7511:7520   */\n      dup4\n        /* \"#utility.yul\":7507:7524   */\n      add\n        /* \"#utility.yul\":7500:7547   */\n      mstore\n        /* \"#utility.yul\":7564:7695   */\n      tag_243\n        /* \"#utility.yul\":7690:7694   */\n      dup2\n        /* \"#utility.yul\":7564:7695   */\n      tag_126\n      jump\t// in\n    tag_243:\n        /* \"#utility.yul\":7556:7695   */\n      swap1\n      pop\n        /* \"#utility.yul\":7283:7702   */\n      swap2\n      swap1\n      pop\n      jump\t// out\n        /* \"#utility.yul\":7708:7882   */\n    tag_127:\n        /* \"#utility.yul\":7848:7874   */\n      0x596f75206861766520746f20537461727420566f74696e670000000000000000\n        /* \"#utility.yul\":7844:7845   */\n      0x00\n        /* \"#utility.yul\":7836:7842   */\n      dup3\n        /* \"#utility.yul\":7832:7846   */\n      add\n        /* \"#utility.yul\":7825:7875   */\n      mstore\n        /* \"#utility.yul\":7708:7882   */\n      pop\n      jump\t// out\n        /* \"#utility.yul\":7888:8254   */\n    tag_128:\n        /* \"#utility.yul\":8030:8033   */\n      0x00\n        /* \"#utility.yul\":8051:8118   */\n      tag_246\n        /* \"#utility.yul\":8115:8117   */\n      0x18\n        /* \"#utility.yul\":8110:8113   */\n      dup4\n        /* \"#utility.yul\":8051:8118   */\n      tag_124\n      jump\t// in\n    tag_246:\n        /* \"#utility.yul\":8044:8118   */\n      swap2\n      pop\n        /* \"#utility.yul\":8127:8220   */\n      tag_247\n        /* \"#utility.yul\":8216:8219   */\n      dup3\n        /* \"#utility.yul\":8127:8220   */\n      tag_127\n      jump\t// in\n    tag_247:\n        /* \"#utility.yul\":8245:8247   */\n      0x20\n        /* \"#utility.yul\":8240:8243   */\n      dup3\n        /* \"#utility.yul\":8236:8248   */\n      add\n        /* \"#utility.yul\":8229:8248   */\n      swap1\n      pop\n        /* \"#utility.yul\":7888:8254   */\n      swap2\n      swap1\n      pop\n      jump\t// out\n        /* \"#utility.yul\":8260:8679   */\n    tag_54:\n        /* \"#utility.yul\":8426:8430   */\n      0x00\n        /* \"#utility.yul\":8464:8466   */\n      0x20\n        /* \"#utility.yul\":8453:8462   */\n      dup3\n        /* \"#utility.yul\":8449:8467   */\n      add\n        /* \"#utility.yul\":8441:8467   */\n      swap1\n      pop\n        /* \"#utility.yul\":8513:8522   */\n      dup2\n        /* \"#utility.yul\":8507:8511   */\n      dup2\n        /* \"#utility.yul\":8503:8523   */\n      sub\n        /* \"#utility.yul\":8499:8500   */\n      0x00\n        /* \"#utility.yul\":8488:8497   */\n      dup4\n        /* \"#utility.yul\":8484:8501   */\n      add\n        /* \"#utility.yul\":8477:8524   */\n      mstore\n        /* \"#utility.yul\":8541:8672   */\n      tag_249\n        /* \"#utility.yul\":8667:8671   */\n      dup2\n        /* \"#utility.yul\":8541:8672   */\n      tag_128\n      jump\t// in\n    tag_249:\n        /* \"#utility.yul\":8533:8672   */\n      swap1\n      pop\n        /* \"#utility.yul\":8260:8679   */\n      swap2\n      swap1\n      pop\n      jump\t// out\n        /* \"#utility.yul\":8685:8784   */\n    tag_129:\n        /* \"#utility.yul\":8737:8743   */\n      0x00\n        /* \"#utility.yul\":8771:8776   */\n      dup2\n        /* \"#utility.yul\":8765:8777   */\n      mload\n        /* \"#utility.yul\":8755:8777   */\n      swap1\n      pop\n        /* \"#utility.yul\":8685:8784   */\n      swap2\n      swap1\n      pop\n      jump\t// out\n        /* \"#utility.yul\":8790:8938   */\n    tag_130:\n        /* \"#utility.yul\":8892:8903   */\n      0x00\n        /* \"#utility.yul\":8929:8932   */\n      dup2\n        /* \"#utility.yul\":8914:8932   */\n      swap1\n      pop\n        /* \"#utility.yul\":8790:8938   */\n      swap3\n      swap2\n      pop\n      pop\n      jump\t// out\n        /* \"#utility.yul\":8944:9083   */\n    tag_131:\n        /* \"#utility.yul\":9033:9039   */\n      dup3\n        /* \"#utility.yul\":9028:9031   */\n      dup2\n        /* \"#utility.yul\":9023:9026   */\n      dup4\n        /* \"#utility.yul\":9017:9040   */\n      mcopy\n        /* \"#utility.yul\":9074:9075   */\n      0x00\n        /* \"#utility.yul\":9065:9071   */\n      dup4\n        /* \"#utility.yul\":9060:9063   */\n      dup4\n        /* \"#utility.yul\":9056:9072   */\n      add\n        /* \"#utility.yul\":9049:9076   */\n      mstore\n        /* \"#utility.yul\":8944:9083   */\n      pop\n      pop\n      pop\n      jump\t// out\n        /* \"#utility.yul\":9089:9479   */\n    tag_132:\n        /* \"#utility.yul\":9195:9198   */\n      0x00\n        /* \"#utility.yul\":9223:9262   */\n      tag_254\n        /* \"#utility.yul\":9256:9261   */\n      dup3\n        /* \"#utility.yul\":9223:9262   */\n      tag_129\n      jump\t// in\n    tag_254:\n        /* \"#utility.yul\":9278:9367   */\n      tag_255\n        /* \"#utility.yul\":9360:9366   */\n      dup2\n        /* \"#utility.yul\":9355:9358   */\n      dup6\n        /* \"#utility.yul\":9278:9367   */\n      tag_130\n      jump\t// in\n    tag_255:\n        /* \"#utility.yul\":9271:9367   */\n      swap4\n      pop\n        /* \"#utility.yul\":9376:9441   */\n      tag_256\n        /* \"#utility.yul\":9434:9440   */\n      dup2\n        /* \"#utility.yul\":9429:9432   */\n      dup6\n        /* \"#utility.yul\":9422:9426   */\n      0x20\n        /* \"#utility.yul\":9415:9420   */\n      dup7\n        /* \"#utility.yul\":9411:9427   */\n      add\n        /* \"#utility.yul\":9376:9441   */\n      tag_131\n      jump\t// in\n    tag_256:\n        /* \"#utility.yul\":9466:9472   */\n      dup1\n        /* \"#utility.yul\":9461:9464   */\n      dup5\n        /* \"#utility.yul\":9457:9473   */\n      add\n        /* \"#utility.yul\":9450:9473   */\n      swap2\n      pop\n        /* \"#utility.yul\":9199:9479   */\n      pop\n        /* \"#utility.yul\":9089:9479   */\n      swap3\n      swap2\n      pop\n      pop\n      jump\t// out\n        /* \"#utility.yul\":9485:9760   */\n    tag_64:\n        /* \"#utility.yul\":9617:9620   */\n      0x00\n        /* \"#utility.yul\":9639:9734   */\n      tag_258\n        /* \"#utility.yul\":9730:9733   */\n      dup3\n        /* \"#utility.yul\":9721:9727   */\n      dup5\n        /* \"#utility.yul\":9639:9734   */\n      tag_132\n      jump\t// in\n    tag_258:\n        /* \"#utility.yul\":9632:9734   */\n      swap2\n      pop\n        /* \"#utility.yul\":9751:9754   */\n      dup2\n        /* \"#utility.yul\":9744:9754   */\n      swap1\n      pop\n        /* \"#utility.yul\":9485:9760   */\n      swap3\n      swap2\n      pop\n      pop\n      jump\t// out\n        /* \"#utility.yul\":9766:9940   */\n    tag_133:\n        /* \"#utility.yul\":9906:9932   */\n      0x6e616d652073686f756c6420626520646966666572656e740000000000000000\n        /* \"#utility.yul\":9902:9903   */\n      0x00\n        /* \"#utility.yul\":9894:9900   */\n      dup3\n        /* \"#utility.yul\":9890:9904   */\n      add\n        /* \"#utility.yul\":9883:9933   */\n      mstore\n        /* \"#utility.yul\":9766:9940   */\n      pop\n      jump\t// out\n        /* \"#utility.yul\":9946:10312   */\n    tag_134:\n        /* \"#utility.yul\":10088:10091   */\n      0x00\n        /* \"#utility.yul\":10109:10176   */\n      tag_261\n        /* \"#utility.yul\":10173:10175   */\n      0x18\n        /* \"#utility.yul\":10168:10171   */\n      dup4\n        /* \"#utility.yul\":10109:10176   */\n      tag_124\n      jump\t// in\n    tag_261:\n        /* \"#utility.yul\":10102:10176   */\n      swap2\n      pop\n        /* \"#utility.yul\":10185:10278   */\n      tag_262\n        /* \"#utility.yul\":10274:10277   */\n      dup3\n        /* \"#utility.yul\":10185:10278   */\n      tag_133\n      jump\t// in\n    tag_262:\n        /* \"#utility.yul\":10303:10305   */\n      0x20\n        /* \"#utility.yul\":10298:10301   */\n      dup3\n        /* \"#utility.yul\":10294:10306   */\n      add\n        /* \"#utility.yul\":10287:10306   */\n      swap1\n      pop\n        /* \"#utility.yul\":9946:10312   */\n      swap2\n      swap1\n      pop\n      jump\t// out\n        /* \"#utility.yul\":10318:10737   */\n    tag_67:\n        /* \"#utility.yul\":10484:10488   */\n      0x00\n        /* \"#utility.yul\":10522:10524   */\n      0x20\n        /* \"#utility.yul\":10511:10520   */\n      dup3\n        /* \"#utility.yul\":10507:10525   */\n      add\n        /* \"#utility.yul\":10499:10525   */\n      swap1\n      pop\n        /* \"#utility.yul\":10571:10580   */\n      dup2\n        /* \"#utility.yul\":10565:10569   */\n      dup2\n        /* \"#utility.yul\":10561:10581   */\n      sub\n        /* \"#utility.yul\":10557:10558   */\n      0x00\n        /* \"#utility.yul\":10546:10555   */\n      dup4\n        /* \"#utility.yul\":10542:10559   */\n      add\n        /* \"#utility.yul\":10535:10582   */\n      mstore\n        /* \"#utility.yul\":10599:10730   */\n      tag_264\n        /* \"#utility.yul\":10725:10729   */\n      dup2\n        /* \"#utility.yul\":10599:10730   */\n      tag_134\n      jump\t// in\n    tag_264:\n        /* \"#utility.yul\":10591:10730   */\n      swap1\n      pop\n        /* \"#utility.yul\":10318:10737   */\n      swap2\n      swap1\n      pop\n      jump\t// out\n        /* \"#utility.yul\":10743:10923   */\n    tag_135:\n        /* \"#utility.yul\":10791:10868   */\n      0x4e487b7100000000000000000000000000000000000000000000000000000000\n        /* \"#utility.yul\":10788:10789   */\n      0x00\n        /* \"#utility.yul\":10781:10869   */\n      mstore\n        /* \"#utility.yul\":10888:10892   */\n      0x22\n        /* \"#utility.yul\":10885:10886   */\n      0x04\n        /* \"#utility.yul\":10878:10893   */\n      mstore\n        /* \"#utility.yul\":10912:10916   */\n      0x24\n        /* \"#utility.yul\":10909:10910   */\n      0x00\n        /* \"#utility.yul\":10902:10917   */\n      revert\n        /* \"#utility.yul\":10929:11249   */\n    tag_69:\n        /* \"#utility.yul\":10973:10979   */\n      0x00\n        /* \"#utility.yul\":11010:11011   */\n      0x02\n        /* \"#utility.yul\":11004:11008   */\n      dup3\n        /* \"#utility.yul\":11000:11012   */\n      div\n        /* \"#utility.yul\":10990:11012   */\n      swap1\n      pop\n        /* \"#utility.yul\":11057:11058   */\n      0x01\n        /* \"#utility.yul\":11051:11055   */\n      dup3\n        /* \"#utility.yul\":11047:11059   */\n      and\n        /* \"#utility.yul\":11078:11096   */\n      dup1\n        /* \"#utility.yul\":11068:11149   */\n      tag_267\n      jumpi\n        /* \"#utility.yul\":11134:11138   */\n      0x7f\n        /* \"#utility.yul\":11126:11132   */\n      dup3\n        /* \"#utility.yul\":11122:11139   */\n      and\n        /* \"#utility.yul\":11112:11139   */\n      swap2\n      pop\n        /* \"#utility.yul\":11068:11149   */\n    tag_267:\n        /* \"#utility.yul\":11196:11198   */\n      0x20\n        /* \"#utility.yul\":11188:11194   */\n      dup3\n        /* \"#utility.yul\":11185:11199   */\n      lt\n        /* \"#utility.yul\":11165:11183   */\n      dup2\n        /* \"#utility.yul\":11162:11200   */\n      sub\n        /* \"#utility.yul\":11159:11243   */\n      tag_268\n      jumpi\n        /* \"#utility.yul\":11215:11233   */\n      tag_269\n      tag_135\n      jump\t// in\n    tag_269:\n        /* \"#utility.yul\":11159:11243   */\n    tag_268:\n        /* \"#utility.yul\":10980:11249   */\n      pop\n        /* \"#utility.yul\":10929:11249   */\n      swap2\n      swap1\n      pop\n      jump\t// out\n        /* \"#utility.yul\":11255:11483   */\n    tag_136:\n        /* \"#utility.yul\":11395:11429   */\n      0x43616e6469646174652063616e2774206164642077697468207468652073616d\n        /* \"#utility.yul\":11391:11392   */\n      0x00\n        /* \"#utility.yul\":11383:11389   */\n      dup3\n        /* \"#utility.yul\":11379:11393   */\n      add\n        /* \"#utility.yul\":11372:11430   */\n      mstore\n        /* \"#utility.yul\":11464:11475   */\n      0x6520416464726573730000000000000000000000000000000000000000000000\n        /* \"#utility.yul\":11459:11461   */\n      0x20\n        /* \"#utility.yul\":11451:11457   */\n      dup3\n        /* \"#utility.yul\":11447:11462   */\n      add\n        /* \"#utility.yul\":11440:11476   */\n      mstore\n        /* \"#utility.yul\":11255:11483   */\n      pop\n      jump\t// out\n        /* \"#utility.yul\":11489:11855   */\n    tag_137:\n        /* \"#utility.yul\":11631:11634   */\n      0x00\n        /* \"#utility.yul\":11652:11719   */\n      tag_272\n        /* \"#utility.yul\":11716:11718   */\n      0x29\n        /* \"#utility.yul\":11711:11714   */\n      dup4\n        /* \"#utility.yul\":11652:11719   */\n      tag_124\n      jump\t// in\n    tag_272:\n        /* \"#utility.yul\":11645:11719   */\n      swap2\n      pop\n        /* \"#utility.yul\":11728:11821   */\n      tag_273\n        /* \"#utility.yul\":11817:11820   */\n      dup3\n        /* \"#utility.yul\":11728:11821   */\n      tag_136\n      jump\t// in\n    tag_273:\n        /* \"#utility.yul\":11846:11848   */\n      0x40\n        /* \"#utility.yul\":11841:11844   */\n      dup3\n        /* \"#utility.yul\":11837:11849   */\n      add\n        /* \"#utility.yul\":11830:11849   */\n      swap1\n      pop\n        /* \"#utility.yul\":11489:11855   */\n      swap2\n      swap1\n      pop\n      jump\t// out\n        /* \"#utility.yul\":11861:12280   */\n    tag_72:\n        /* \"#utility.yul\":12027:12031   */\n      0x00\n        /* \"#utility.yul\":12065:12067   */\n      0x20\n        /* \"#utility.yul\":12054:12063   */\n      dup3\n        /* \"#utility.yul\":12050:12068   */\n      add\n        /* \"#utility.yul\":12042:12068   */\n      swap1\n      pop\n        /* \"#utility.yul\":12114:12123   */\n      dup2\n        /* \"#utility.yul\":12108:12112   */\n      dup2\n        /* \"#utility.yul\":12104:12124   */\n      sub\n        /* \"#utility.yul\":12100:12101   */\n      0x00\n        /* \"#utility.yul\":12089:12098   */\n      dup4\n        /* \"#utility.yul\":12085:12102   */\n      add\n        /* \"#utility.yul\":12078:12125   */\n      mstore\n        /* \"#utility.yul\":12142:12273   */\n      tag_275\n        /* \"#utility.yul\":12268:12272   */\n      dup2\n        /* \"#utility.yul\":12142:12273   */\n      tag_137\n      jump\t// in\n    tag_275:\n        /* \"#utility.yul\":12134:12273   */\n      swap1\n      pop\n        /* \"#utility.yul\":11861:12280   */\n      swap2\n      swap1\n      pop\n      jump\t// out\n        /* \"#utility.yul\":12286:12427   */\n    tag_138:\n        /* \"#utility.yul\":12335:12339   */\n      0x00\n        /* \"#utility.yul\":12358:12361   */\n      dup2\n        /* \"#utility.yul\":12350:12361   */\n      swap1\n      pop\n        /* \"#utility.yul\":12381:12384   */\n      dup2\n        /* \"#utility.yul\":12378:12379   */\n      0x00\n        /* \"#utility.yul\":12371:12385   */\n      mstore\n        /* \"#utility.yul\":12415:12419   */\n      0x20\n        /* \"#utility.yul\":12412:12413   */\n      0x00\n        /* \"#utility.yul\":12402:12420   */\n      keccak256\n        /* \"#utility.yul\":12394:12420   */\n      swap1\n      pop\n        /* \"#utility.yul\":12286:12427   */\n      swap2\n      swap1\n      pop\n      jump\t// out\n        /* \"#utility.yul\":12433:12526   */\n    tag_139:\n        /* \"#utility.yul\":12470:12476   */\n      0x00\n        /* \"#utility.yul\":12517:12519   */\n      0x20\n        /* \"#utility.yul\":12512:12514   */\n      0x1f\n        /* \"#utility.yul\":12505:12510   */\n      dup4\n        /* \"#utility.yul\":12501:12515   */\n      add\n        /* \"#utility.yul\":12497:12520   */\n      div\n        /* \"#utility.yul\":12487:12520   */\n      swap1\n      pop\n        /* \"#utility.yul\":12433:12526   */\n      swap2\n      swap1\n      pop\n      jump\t// out\n        /* \"#utility.yul\":12532:12639   */\n    tag_140:\n        /* \"#utility.yul\":12576:12584   */\n      0x00\n        /* \"#utility.yul\":12626:12631   */\n      dup3\n        /* \"#utility.yul\":12620:12624   */\n      dup3\n        /* \"#utility.yul\":12616:12632   */\n      shl\n        /* \"#utility.yul\":12595:12632   */\n      swap1\n      pop\n        /* \"#utility.yul\":12532:12639   */\n      swap3\n      swap2\n      pop\n      pop\n      jump\t// out\n        /* \"#utility.yul\":12645:13038   */\n    tag_141:\n        /* \"#utility.yul\":12714:12720   */\n      0x00\n        /* \"#utility.yul\":12764:12765   */\n      0x08\n        /* \"#utility.yul\":12752:12762   */\n      dup4\n        /* \"#utility.yul\":12748:12766   */\n      mul\n        /* \"#utility.yul\":12787:12884   */\n      tag_280\n        /* \"#utility.yul\":12817:12883   */\n      0xffffffffffffffffffffffffffffffffffffffffffffffffffffffffffffffff\n        /* \"#utility.yul\":12806:12815   */\n      dup3\n        /* \"#utility.yul\":12787:12884   */\n      tag_140\n      jump\t// in\n    tag_280:\n        /* \"#utility.yul\":12905:12944   */\n      tag_281\n        /* \"#utility.yul\":12935:12943   */\n      dup7\n        /* \"#utility.yul\":12924:12933   */\n      dup4\n        /* \"#utility.yul\":12905:12944   */\n      tag_140\n      jump\t// in\n    tag_281:\n        /* \"#utility.yul\":12893:12944   */\n      swap6\n      pop\n        /* \"#utility.yul\":12977:12981   */\n      dup1\n        /* \"#utility.yul\":12973:12982   */\n      not\n        /* \"#utility.yul\":12966:12971   */\n      dup5\n        /* \"#utility.yul\":12962:12983   */\n      and\n        /* \"#utility.yul\":12953:12983   */\n      swap4\n      pop\n        /* \"#utility.yul\":13026:13030   */\n      dup1\n        /* \"#utility.yul\":13016:13024   */\n      dup7\n        /* \"#utility.yul\":13012:13031   */\n      and\n        /* \"#utility.yul\":13005:13010   */\n      dup5\n        /* \"#utility.yul\":13002:13032   */\n      or\n        /* \"#utility.yul\":12992:13032   */\n      swap3\n      pop\n        /* \"#utility.yul\":12721:13038   */\n      pop\n      pop\n        /* \"#utility.yul\":12645:13038   */\n      swap4\n      swap3\n      pop\n      pop\n      pop\n      jump\t// out\n        /* \"#utility.yul\":13044:13104   */\n    tag_142:\n        /* \"#utility.yul\":13072:13075   */\n      0x00\n        /* \"#utility.yul\":13093:13098   */\n      dup2\n        /* \"#utility.yul\":13086:13098   */\n      swap1\n      pop\n        /* \"#utility.yul\":13044:13104   */\n      swap2\n      swap1\n      pop\n      jump\t// out\n        /* \"#utility.yul\":13110:13252   */\n    tag_143:\n        /* \"#utility.yul\":13160:13169   */\n      0x00\n        /* \"#utility.yul\":13193:13246   */\n      tag_284\n        /* \"#utility.yul\":13211:13245   */\n      tag_285\n        /* \"#utility.yul\":13220:13244   */\n      tag_286\n        /* \"#utility.yul\":13238:13243   */\n      dup5\n        /* \"#utility.yul\":13220:13244   */\n      tag_103\n      jump\t// in\n    tag_286:\n        /* \"#utility.yul\":13211:13245   */\n      tag_142\n      jump\t// in\n    tag_285:\n        /* \"#utility.yul\":13193:13246   */\n      tag_103\n      jump\t// in\n    tag_284:\n        /* \"#utility.yul\":13180:13246   */\n      swap1\n      pop\n        /* \"#utility.yul\":13110:13252   */\n      swap2\n      swap1\n      pop\n      jump\t// out\n        /* \"#utility.yul\":13258:13333   */\n    tag_144:\n        /* \"#utility.yul\":13301:13304   */\n      0x00\n        /* \"#utility.yul\":13322:13327   */\n      dup2\n        /* \"#utility.yul\":13315:13327   */\n      swap1\n      pop\n        /* \"#utility.yul\":13258:13333   */\n      swap2\n      swap1\n      pop\n      jump\t// out\n        /* \"#utility.yul\":13339:13608   */\n    tag_145:\n        /* \"#utility.yul\":13449:13488   */\n      tag_289\n        /* \"#utility.yul\":13480:13487   */\n      dup4\n        /* \"#utility.yul\":13449:13488   */\n      tag_143\n      jump\t// in\n    tag_289:\n        /* \"#utility.yul\":13510:13601   */\n      tag_290\n        /* \"#utility.yul\":13559:13600   */\n      tag_291\n        /* \"#utility.yul\":13583:13599   */\n      dup3\n        /* \"#utility.yul\":13559:13600   */\n      tag_144\n      jump\t// in\n    tag_291:\n        /* \"#utility.yul\":13551:13557   */\n      dup5\n        /* \"#utility.yul\":13544:13548   */\n      dup5\n        /* \"#utility.yul\":13538:13549   */\n      sload\n        /* \"#utility.yul\":13510:13601   */\n      tag_141\n      jump\t// in\n    tag_290:\n        /* \"#utility.yul\":13504:13508   */\n      dup3\n        /* \"#utility.yul\":13497:13602   */\n      sstore\n        /* \"#utility.yul\":13415:13608   */\n      pop\n        /* \"#utility.yul\":13339:13608   */\n      pop\n      pop\n      pop\n      jump\t// out\n        /* \"#utility.yul\":13614:13687   */\n    tag_146:\n        /* \"#utility.yul\":13659:13662   */\n      0x00\n        /* \"#utility.yul\":13680:13681   */\n      0x00\n        /* \"#utility.yul\":13673:13681   */\n      swap1\n      pop\n        /* \"#utility.yul\":13614:13687   */\n      swap1\n      jump\t// out\n        /* \"#utility.yul\":13693:13882   */\n    tag_147:\n        /* \"#utility.yul\":13770:13802   */\n      tag_294\n      tag_146\n      jump\t// in\n    tag_294:\n        /* \"#utility.yul\":13811:13876   */\n      tag_295\n        /* \"#utility.yul\":13869:13875   */\n      dup2\n        /* \"#utility.yul\":13861:13867   */\n      dup5\n        /* \"#utility.yul\":13855:13859   */\n      dup5\n        /* \"#utility.yul\":13811:13876   */\n      tag_145\n      jump\t// in\n    tag_295:\n        /* \"#utility.yul\":13746:13882   */\n      pop\n        /* \"#utility.yul\":13693:13882   */\n      pop\n      pop\n      jump\t// out\n        /* \"#utility.yul\":13888:14074   */\n    tag_148:\n        /* \"#utility.yul\":13948:14068   */\n    tag_297:\n        /* \"#utility.yul\":13965:13968   */\n      dup2\n        /* \"#utility.yul\":13958:13963   */\n      dup2\n        /* \"#utility.yul\":13955:13969   */\n      lt\n        /* \"#utility.yul\":13948:14068   */\n      iszero\n      tag_299\n      jumpi\n        /* \"#utility.yul\":14019:14058   */\n      tag_300\n        /* \"#utility.yul\":14056:14057   */\n      0x00\n        /* \"#utility.yul\":14049:14054   */\n      dup3\n        /* \"#utility.yul\":14019:14058   */\n      tag_147\n      jump\t// in\n    tag_300:\n        /* \"#utility.yul\":13992:13993   */\n      0x01\n        /* \"#utility.yul\":13985:13990   */\n      dup2\n        /* \"#utility.yul\":13981:13994   */\n      add\n        /* \"#utility.yul\":13972:13994   */\n      swap1\n      pop\n        /* \"#utility.yul\":13948:14068   */\n      jump(tag_297)\n    tag_299:\n        /* \"#utility.yul\":13888:14074   */\n      pop\n      pop\n      jump\t// out\n        /* \"#utility.yul\":14080:14623   */\n    tag_149:\n        /* \"#utility.yul\":14181:14183   */\n      0x1f\n        /* \"#utility.yul\":14176:14179   */\n      dup3\n        /* \"#utility.yul\":14173:14184   */\n      gt\n        /* \"#utility.yul\":14170:14616   */\n      iszero\n      tag_302\n      jumpi\n        /* \"#utility.yul\":14215:14253   */\n      tag_303\n        /* \"#utility.yul\":14247:14252   */\n      dup2\n        /* \"#utility.yul\":14215:14253   */\n      tag_138\n      jump\t// in\n    tag_303:\n        /* \"#utility.yul\":14299:14328   */\n      tag_304\n        /* \"#utility.yul\":14317:14327   */\n      dup5\n        /* \"#utility.yul\":14299:14328   */\n      tag_139\n      jump\t// in\n    tag_304:\n        /* \"#utility.yul\":14289:14297   */\n      dup2\n        /* \"#utility.yul\":14285:14329   */\n      add\n        /* \"#utility.yul\":14482:14484   */\n      0x20\n        /* \"#utility.yul\":14470:14480   */\n      dup6\n        /* \"#utility.yul\":14467:14485   */\n      lt\n        /* \"#utility.yul\":14464:14513   */\n      iszero\n      tag_305\n      jumpi\n        /* \"#utility.yul\":14503:14511   */\n      dup2\n        /* \"#utility.yul\":14488:14511   */\n      swap1\n      pop\n        /* \"#utility.yul\":14464:14513   */\n    tag_305:\n        /* \"#utility.yul\":14526:14606   */\n      tag_306\n        /* \"#utility.yul\":14582:14604   */\n      tag_307\n        /* \"#utility.yul\":14600:14603   */\n      dup6\n        /* \"#utility.yul\":14582:14604   */\n      tag_139\n      jump\t// in\n    tag_307:\n        /* \"#utility.yul\":14572:14580   */\n      dup4\n        /* \"#utility.yul\":14568:14605   */\n      add\n        /* \"#utility.yul\":14555:14566   */\n      dup3\n        /* \"#utility.yul\":14526:14606   */\n      tag_148\n      jump\t// in\n    tag_306:\n        /* \"#utility.yul\":14185:14616   */\n      pop\n      pop\n        /* \"#utility.yul\":14170:14616   */\n    tag_302:\n        /* \"#utility.yul\":14080:14623   */\n      pop\n      pop\n      pop\n      jump\t// out\n        /* \"#utility.yul\":14629:14746   */\n    tag_150:\n        /* \"#utility.yul\":14683:14691   */\n      0x00\n        /* \"#utility.yul\":14733:14738   */\n      dup3\n        /* \"#utility.yul\":14727:14731   */\n      dup3\n        /* \"#utility.yul\":14723:14739   */\n      shr\n        /* \"#utility.yul\":14702:14739   */\n      swap1\n      pop\n        /* \"#utility.yul\":14629:14746   */\n      swap3\n      swap2\n      pop\n      pop\n      jump\t// out\n        /* \"#utility.yul\":14752:14921   */\n    tag_151:\n        /* \"#utility.yul\":14796:14802   */\n      0x00\n        /* \"#utility.yul\":14829:14880   */\n      tag_310\n        /* \"#utility.yul\":14877:14878   */\n      0x00\n        /* \"#utility.yul\":14873:14879   */\n      not\n        /* \"#utility.yul\":14865:14870   */\n      dup5\n        /* \"#utility.yul\":14862:14863   */\n      0x08\n        /* \"#utility.yul\":14858:14871   */\n      mul\n        /* \"#utility.yul\":14829:14880   */\n      tag_150\n      jump\t// in\n    tag_310:\n        /* \"#utility.yul\":14825:14881   */\n      not\n        /* \"#utility.yul\":14910:14914   */\n      dup1\n        /* \"#utility.yul\":14904:14908   */\n      dup4\n        /* \"#utility.yul\":14900:14915   */\n      and\n        /* \"#utility.yul\":14890:14915   */\n      swap2\n      pop\n        /* \"#utility.yul\":14803:14921   */\n      pop\n        /* \"#utility.yul\":14752:14921   */\n      swap3\n      swap2\n      pop\n      pop\n      jump\t// out\n        /* \"#utility.yul\":14926:15221   */\n    tag_152:\n        /* \"#utility.yul\":15002:15006   */\n      0x00\n        /* \"#utility.yul\":15148:15177   */\n      tag_312\n        /* \"#utility.yul\":15173:15176   */\n      dup4\n        /* \"#utility.yul\":15167:15171   */\n      dup4\n        /* \"#utility.yul\":15148:15177   */\n      tag_151\n      jump\t// in\n    tag_312:\n        /* \"#utility.yul\":15140:15177   */\n      swap2\n      pop\n        /* \"#utility.yul\":15210:15213   */\n      dup3\n        /* \"#utility.yul\":15207:15208   */\n      0x02\n        /* \"#utility.yul\":15203:15214   */\n      mul\n        /* \"#utility.yul\":15197:15201   */\n      dup3\n        /* \"#utility.yul\":15194:15215   */\n      or\n        /* \"#utility.yul\":15186:15215   */\n      swap1\n      pop\n        /* \"#utility.yul\":14926:15221   */\n      swap3\n      swap2\n      pop\n      pop\n      jump\t// out\n        /* \"#utility.yul\":15226:16621   */\n    tag_74:\n        /* \"#utility.yul\":15343:15380   */\n      tag_314\n        /* \"#utility.yul\":15376:15379   */\n      dup3\n        /* \"#utility.yul\":15343:15380   */\n      tag_129\n      jump\t// in\n    tag_314:\n        /* \"#utility.yul\":15445:15463   */\n      0xffffffffffffffff\n        /* \"#utility.yul\":15437:15443   */\n      dup2\n        /* \"#utility.yul\":15434:15464   */\n      gt\n        /* \"#utility.yul\":15431:15487   */\n      iszero\n      tag_315\n      jumpi\n        /* \"#utility.yul\":15467:15485   */\n      tag_316\n      tag_115\n      jump\t// in\n    tag_316:\n        /* \"#utility.yul\":15431:15487   */\n    tag_315:\n        /* \"#utility.yul\":15511:15549   */\n      tag_317\n        /* \"#utility.yul\":15543:15547   */\n      dup3\n        /* \"#utility.yul\":15537:15548   */\n      sload\n        /* \"#utility.yul\":15511:15549   */\n      tag_69\n      jump\t// in\n    tag_317:\n        /* \"#utility.yul\":15596:15663   */\n      tag_318\n        /* \"#utility.yul\":15656:15662   */\n      dup3\n        /* \"#utility.yul\":15648:15654   */\n      dup3\n        /* \"#utility.yul\":15642:15646   */\n      dup6\n        /* \"#utility.yul\":15596:15663   */\n      tag_149\n      jump\t// in\n    tag_318:\n        /* \"#utility.yul\":15690:15691   */\n      0x00\n        /* \"#utility.yul\":15714:15718   */\n      0x20\n        /* \"#utility.yul\":15701:15718   */\n      swap1\n      pop\n        /* \"#utility.yul\":15746:15748   */\n      0x1f\n        /* \"#utility.yul\":15738:15744   */\n      dup4\n        /* \"#utility.yul\":15735:15749   */\n      gt\n        /* \"#utility.yul\":15763:15764   */\n      0x01\n        /* \"#utility.yul\":15758:16376   */\n      dup2\n      eq\n      tag_320\n      jumpi\n        /* \"#utility.yul\":16420:16421   */\n      0x00\n        /* \"#utility.yul\":16437:16443   */\n      dup5\n        /* \"#utility.yul\":16434:16511   */\n      iszero\n      tag_321\n      jumpi\n        /* \"#utility.yul\":16486:16495   */\n      dup3\n        /* \"#utility.yul\":16481:16484   */\n      dup8\n        /* \"#utility.yul\":16477:16496   */\n      add\n        /* \"#utility.yul\":16471:16497   */\n      mload\n        /* \"#utility.yul\":16462:16497   */\n      swap1\n      pop\n        /* \"#utility.yul\":16434:16511   */\n    tag_321:\n        /* \"#utility.yul\":16537:16604   */\n      tag_322\n        /* \"#utility.yul\":16597:16603   */\n      dup6\n        /* \"#utility.yul\":16590:16595   */\n      dup3\n        /* \"#utility.yul\":16537:16604   */\n      tag_152\n      jump\t// in\n    tag_322:\n        /* \"#utility.yul\":16531:16535   */\n      dup7\n        /* \"#utility.yul\":16524:16605   */\n      sstore\n        /* \"#utility.yul\":16393:16615   */\n      pop\n        /* \"#utility.yul\":15728:16615   */\n      jump(tag_319)\n        /* \"#utility.yul\":15758:16376   */\n    tag_320:\n        /* \"#utility.yul\":15810:15814   */\n      0x1f\n        /* \"#utility.yul\":15806:15815   */\n      not\n        /* \"#utility.yul\":15798:15804   */\n      dup5\n        /* \"#utility.yul\":15794:15816   */\n      and\n        /* \"#utility.yul\":15844:15881   */\n      tag_323\n        /* \"#utility.yul\":15876:15880   */\n      dup7\n        /* \"#utility.yul\":15844:15881   */\n      tag_138\n      jump\t// in\n    tag_323:\n        /* \"#utility.yul\":15903:15904   */\n      0x00\n        /* \"#utility.yul\":15917:16125   */\n    tag_324:\n        /* \"#utility.yul\":15931:15938   */\n      dup3\n        /* \"#utility.yul\":15928:15929   */\n      dup2\n        /* \"#utility.yul\":15925:15939   */\n      lt\n        /* \"#utility.yul\":15917:16125   */\n      iszero\n      tag_326\n      jumpi\n        /* \"#utility.yul\":16010:16019   */\n      dup5\n        /* \"#utility.yul\":16005:16008   */\n      dup10\n        /* \"#utility.yul\":16001:16020   */\n      add\n        /* \"#utility.yul\":15995:16021   */\n      mload\n        /* \"#utility.yul\":15987:15993   */\n      dup3\n        /* \"#utility.yul\":15980:16022   */\n      sstore\n        /* \"#utility.yul\":16061:16062   */\n      0x01\n        /* \"#utility.yul\":16053:16059   */\n      dup3\n        /* \"#utility.yul\":16049:16063   */\n      add\n        /* \"#utility.yul\":16039:16063   */\n      swap2\n      pop\n        /* \"#utility.yul\":16108:16110   */\n      0x20\n        /* \"#utility.yul\":16097:16106   */\n      dup6\n        /* \"#utility.yul\":16093:16111   */\n      add\n        /* \"#utility.yul\":16080:16111   */\n      swap5\n      pop\n        /* \"#utility.yul\":15954:15958   */\n      0x20\n        /* \"#utility.yul\":15951:15952   */\n      dup2\n        /* \"#utility.yul\":15947:15959   */\n      add\n        /* \"#utility.yul\":15942:15959   */\n      swap1\n      pop\n        /* \"#utility.yul\":15917:16125   */\n      jump(tag_324)\n    tag_326:\n        /* \"#utility.yul\":16153:16159   */\n      dup7\n        /* \"#utility.yul\":16144:16151   */\n      dup4\n        /* \"#utility.yul\":16141:16160   */\n      lt\n        /* \"#utility.yul\":16138:16317   */\n      iszero\n      tag_327\n      jumpi\n        /* \"#utility.yul\":16211:16220   */\n      dup5\n        /* \"#utility.yul\":16206:16209   */\n      dup10\n        /* \"#utility.yul\":16202:16221   */\n      add\n        /* \"#utility.yul\":16196:16222   */\n      mload\n        /* \"#utility.yul\":16254:16302   */\n      tag_328\n        /* \"#utility.yul\":16296:16300   */\n      0x1f\n        /* \"#utility.yul\":16288:16294   */\n      dup10\n        /* \"#utility.yul\":16284:16301   */\n      and\n        /* \"#utility.yul\":16273:16282   */\n      dup3\n        /* \"#utility.yul\":16254:16302   */\n      tag_151\n      jump\t// in\n    tag_328:\n        /* \"#utility.yul\":16246:16252   */\n      dup4\n        /* \"#utility.yul\":16239:16303   */\n      sstore\n        /* \"#utility.yul\":16161:16317   */\n      pop\n        /* \"#utility.yul\":16138:16317   */\n    tag_327:\n        /* \"#utility.yul\":16363:16364   */\n      0x01\n        /* \"#utility.yul\":16359:16360   */\n      0x02\n        /* \"#utility.yul\":16351:16357   */\n      dup9\n        /* \"#utility.yul\":16347:16361   */\n      mul\n        /* \"#utility.yul\":16343:16365   */\n      add\n        /* \"#utility.yul\":16337:16341   */\n      dup9\n        /* \"#utility.yul\":16330:16366   */\n      sstore\n        /* \"#utility.yul\":15765:16376   */\n      pop\n      pop\n      pop\n        /* \"#utility.yul\":15728:16615   */\n    tag_319:\n      pop\n        /* \"#utility.yul\":15318:16621   */\n      pop\n      pop\n      pop\n        /* \"#utility.yul\":15226:16621   */\n      pop\n      pop\n      jump\t// out\n        /* \"#utility.yul\":16627:16790   */\n    tag_153:\n        /* \"#utility.yul\":16767:16782   */\n      0x416c726561647920566f74656400000000000000000000000000000000000000\n        /* \"#utility.yul\":16763:16764   */\n      0x00\n        /* \"#utility.yul\":16755:16761   */\n      dup3\n        /* \"#utility.yul\":16751:16765   */\n      add\n        /* \"#utility.yul\":16744:16783   */\n      mstore\n        /* \"#utility.yul\":16627:16790   */\n      pop\n      jump\t// out\n        /* \"#utility.yul\":16796:17162   */\n    tag_154:\n        /* \"#utility.yul\":16938:16941   */\n      0x00\n        /* \"#utility.yul\":16959:17026   */\n      tag_331\n        /* \"#utility.yul\":17023:17025   */\n      0x0d\n        /* \"#utility.yul\":17018:17021   */\n      dup4\n        /* \"#utility.yul\":16959:17026   */\n      tag_124\n      jump\t// in\n    tag_331:\n        /* \"#utility.yul\":16952:17026   */\n      swap2\n      pop\n        /* \"#utility.yul\":17035:17128   */\n      tag_332\n        /* \"#utility.yul\":17124:17127   */\n      dup3\n        /* \"#utility.yul\":17035:17128   */\n      tag_153\n      jump\t// in\n    tag_332:\n        /* \"#utility.yul\":17153:17155   */\n      0x20\n        /* \"#utility.yul\":17148:17151   */\n      dup3\n        /* \"#utility.yul\":17144:17156   */\n      add\n        /* \"#utility.yul\":17137:17156   */\n      swap1\n      pop\n        /* \"#utility.yul\":16796:17162   */\n      swap2\n      swap1\n      pop\n      jump\t// out\n        /* \"#utility.yul\":17168:17587   */\n    tag_93:\n        /* \"#utility.yul\":17334:17338   */\n      0x00\n        /* \"#utility.yul\":17372:17374   */\n      0x20\n        /* \"#utility.yul\":17361:17370   */\n      dup3\n        /* \"#utility.yul\":17357:17375   */\n      add\n        /* \"#utility.yul\":17349:17375   */\n      swap1\n      pop\n        /* \"#utility.yul\":17421:17430   */\n      dup2\n        /* \"#utility.yul\":17415:17419   */\n      dup2\n        /* \"#utility.yul\":17411:17431   */\n      sub\n        /* \"#utility.yul\":17407:17408   */\n      0x00\n        /* \"#utility.yul\":17396:17405   */\n      dup4\n        /* \"#utility.yul\":17392:17409   */\n      add\n        /* \"#utility.yul\":17385:17432   */\n      mstore\n        /* \"#utility.yul\":17449:17580   */\n      tag_334\n        /* \"#utility.yul\":17575:17579   */\n      dup2\n        /* \"#utility.yul\":17449:17580   */\n      tag_154\n      jump\t// in\n    tag_334:\n        /* \"#utility.yul\":17441:17580   */\n      swap1\n      pop\n        /* \"#utility.yul\":17168:17587   */\n      swap2\n      swap1\n      pop\n      jump\t// out\n        /* \"#utility.yul\":17593:17773   */\n    tag_155:\n        /* \"#utility.yul\":17641:17718   */\n      0x4e487b7100000000000000000000000000000000000000000000000000000000\n        /* \"#utility.yul\":17638:17639   */\n      0x00\n        /* \"#utility.yul\":17631:17719   */\n      mstore\n        /* \"#utility.yul\":17738:17742   */\n      0x11\n        /* \"#utility.yul\":17735:17736   */\n      0x04\n        /* \"#utility.yul\":17728:17743   */\n      mstore\n        /* \"#utility.yul\":17762:17766   */\n      0x24\n        /* \"#utility.yul\":17759:17760   */\n      0x00\n        /* \"#utility.yul\":17752:17767   */\n      revert\n        /* \"#utility.yul\":17779:18012   */\n    tag_95:\n        /* \"#utility.yul\":17818:17821   */\n      0x00\n        /* \"#utility.yul\":17841:17865   */\n      tag_337\n        /* \"#utility.yul\":17859:17864   */\n      dup3\n        /* \"#utility.yul\":17841:17865   */\n      tag_103\n      jump\t// in\n    tag_337:\n        /* \"#utility.yul\":17832:17865   */\n      swap2\n      pop\n        /* \"#utility.yul\":17887:17953   */\n      0xffffffffffffffffffffffffffffffffffffffffffffffffffffffffffffffff\n        /* \"#utility.yul\":17880:17885   */\n      dup3\n        /* \"#utility.yul\":17877:17954   */\n      sub\n        /* \"#utility.yul\":17874:17977   */\n      tag_338\n      jumpi\n        /* \"#utility.yul\":17957:17975   */\n      tag_339\n      tag_155\n      jump\t// in\n    tag_339:\n        /* \"#utility.yul\":17874:17977   */\n    tag_338:\n        /* \"#utility.yul\":18004:18005   */\n      0x01\n        /* \"#utility.yul\":17997:18002   */\n      dup3\n        /* \"#utility.yul\":17993:18006   */\n      add\n        /* \"#utility.yul\":17986:18006   */\n      swap1\n      pop\n        /* \"#utility.yul\":17779:18012   */\n      swap2\n      swap1\n      pop\n      jump\t// out\n\n    auxdata: 0xa2646970667358221220d7e3c057bfa6720af661a8967fb883cebca129b63f4866ac23534c0c5622d36264736f6c634300081d0033\n}\n",
				"bytecode": {
					"linkReferences": {},
					"object": "6080604052348015600e575f5ffd5b506110818061001c5f395ff3fe608060405234801561000f575f5ffd5b5060043610610055575f3560e01c80630dcc653514610059578063200d2ed2146100895780632e49d78b146100a75780639a594f06146100c3578063cebfbd32146100f3575b5f5ffd5b610073600480360381019061006e9190610753565b610123565b6040516100809190610796565b60405180910390f35b6100916101df565b60405161009e9190610822565b60405180910390f35b6100c160048036038101906100bc9190610871565b6101f0565b005b6100dd60048036038101906100d891906109d8565b610230565b6040516100ea9190610a4c565b60405180910390f35b61010d60048036038101906101089190610753565b6104c3565b60405161011a9190610a4c565b60405180910390f35b5f600280811115610137576101366107af565b5b5f5f9054906101000a900460ff166002811115610157576101566107af565b5b03610197576040517f08c379a000000000000000000000000000000000000000000000000000000000815260040161018e90610abf565b60405180910390fd5b60015f8373ffffffffffffffffffffffffffffffffffffffff1673ffffffffffffffffffffffffffffffffffffffff1681526020019081526020015f20600101549050919050565b5f5f9054906101000a900460ff1681565b8060ff166002811115610206576102056107af565b5b5f5f6101000a81548160ff02191690836002811115610228576102276107af565b5b021790555050565b5f60016002811115610245576102446107af565b5b5f5f9054906101000a900460ff166002811115610265576102646107af565b5b146102a5576040517f08c379a000000000000000000000000000000000000000000000000000000000815260040161029c90610b27565b60405180910390fd5b6002808111156102b8576102b76107af565b5b5f5f9054906101000a900460ff1660028111156102d8576102d76107af565b5b03610318576040517f08c379a000000000000000000000000000000000000000000000000000000000815260040161030f90610abf565b60405180910390fd5b6003826040516103289190610b97565b90815260200160405180910390205f9054906101000a900460ff1615610383576040517f08c379a000000000000000000000000000000000000000000000000000000000815260040161037a90610bf7565b60405180910390fd5b5f60015f8573ffffffffffffffffffffffffffffffffffffffff1673ffffffffffffffffffffffffffffffffffffffff1681526020019081526020015f205f0180546103ce90610c42565b905014610410576040517f08c379a000000000000000000000000000000000000000000000000000000000815260040161040790610ce2565b60405180910390fd5b60405180604001604052808381526020015f81525060015f8573ffffffffffffffffffffffffffffffffffffffff1673ffffffffffffffffffffffffffffffffffffffff1681526020019081526020015f205f820151815f0190816104759190610ea0565b506020820151816001015590505060016003836040516104959190610b97565b90815260200160405180910390205f6101000a81548160ff0219169083151502179055506001905092915050565b5f600160028111156104d8576104d76107af565b5b5f5f9054906101000a900460ff1660028111156104f8576104f76107af565b5b14610538576040517f08c379a000000000000000000000000000000000000000000000000000000000815260040161052f90610b27565b60405180910390fd5b60028081111561054b5761054a6107af565b5b5f5f9054906101000a900460ff16600281111561056b5761056a6107af565b5b036105ab576040517f08c379a00000000000000000000000000000000000000000000000000000000081526004016105a290610abf565b60405180910390fd5b60025f3373ffffffffffffffffffffffffffffffffffffffff1673ffffffffffffffffffffffffffffffffffffffff1681526020019081526020015f205f9054906101000a900460ff1615610635576040517f08c379a000000000000000000000000000000000000000000000000000000000815260040161062c90610fb9565b60405180910390fd5b60015f8373ffffffffffffffffffffffffffffffffffffffff1673ffffffffffffffffffffffffffffffffffffffff1681526020019081526020015f206001015f81548092919061068590611004565b9190505550600160025f3373ffffffffffffffffffffffffffffffffffffffff1673ffffffffffffffffffffffffffffffffffffffff1681526020019081526020015f205f6101000a81548160ff02191690831515021790555060019050919050565b5f604051905090565b5f5ffd5b5f5ffd5b5f73ffffffffffffffffffffffffffffffffffffffff82169050919050565b5f610722826106f9565b9050919050565b61073281610718565b811461073c575f5ffd5b50565b5f8135905061074d81610729565b92915050565b5f60208284031215610768576107676106f1565b5b5f6107758482850161073f565b91505092915050565b5f819050919050565b6107908161077e565b82525050565b5f6020820190506107a95f830184610787565b92915050565b7f4e487b71000000000000000000000000000000000000000000000000000000005f52602160045260245ffd5b600381106107ed576107ec6107af565b5b50565b5f8190506107fd826107dc565b919050565b5f61080c826107f0565b9050919050565b61081c81610802565b82525050565b5f6020820190506108355f830184610813565b92915050565b5f60ff82169050919050565b6108508161083b565b811461085a575f5ffd5b50565b5f8135905061086b81610847565b92915050565b5f60208284031215610886576108856106f1565b5b5f6108938482850161085d565b91505092915050565b5f5ffd5b5f5ffd5b5f601f19601f8301169050919050565b7f4e487b71000000000000000000000000000000000000000000000000000000005f52604160045260245ffd5b6108ea826108a4565b810181811067ffffffffffffffff82111715610909576109086108b4565b5b80604052505050565b5f61091b6106e8565b905061092782826108e1565b919050565b5f67ffffffffffffffff821115610946576109456108b4565b5b61094f826108a4565b9050602081019050919050565b828183375f83830152505050565b5f61097c6109778461092c565b610912565b905082815260208101848484011115610998576109976108a0565b5b6109a384828561095c565b509392505050565b5f82601f8301126109bf576109be61089c565b5b81356109cf84826020860161096a565b91505092915050565b5f5f604083850312156109ee576109ed6106f1565b5b5f6109fb8582860161073f565b925050602083013567ffffffffffffffff811115610a1c57610a1b6106f5565b5b610a28858286016109ab565b9150509250929050565b5f8115159050919050565b610a4681610a32565b82525050565b5f602082019050610a5f5f830184610a3d565b92915050565b5f82825260208201905092915050565b7f416c726561647920456e646564000000000000000000000000000000000000005f82015250565b5f610aa9600d83610a65565b9150610ab482610a75565b602082019050919050565b5f6020820190508181035f830152610ad681610a9d565b9050919050565b7f596f75206861766520746f20537461727420566f74696e6700000000000000005f82015250565b5f610b11601883610a65565b9150610b1c82610add565b602082019050919050565b5f6020820190508181035f830152610b3e81610b05565b9050919050565b5f81519050919050565b5f81905092915050565b8281835e5f83830152505050565b5f610b7182610b45565b610b7b8185610b4f565b9350610b8b818560208601610b59565b80840191505092915050565b5f610ba28284610b67565b915081905092915050565b7f6e616d652073686f756c6420626520646966666572656e7400000000000000005f82015250565b5f610be1601883610a65565b9150610bec82610bad565b602082019050919050565b5f6020820190508181035f830152610c0e81610bd5565b9050919050565b7f4e487b71000000000000000000000000000000000000000000000000000000005f52602260045260245ffd5b5f6002820490506001821680610c5957607f821691505b602082108103610c6c57610c6b610c15565b5b50919050565b7f43616e6469646174652063616e2774206164642077697468207468652073616d5f8201527f6520416464726573730000000000000000000000000000000000000000000000602082015250565b5f610ccc602983610a65565b9150610cd782610c72565b604082019050919050565b5f6020820190508181035f830152610cf981610cc0565b9050919050565b5f819050815f5260205f209050919050565b5f6020601f8301049050919050565b5f82821b905092915050565b5f60088302610d5c7fffffffffffffffffffffffffffffffffffffffffffffffffffffffffffffffff82610d21565b610d668683610d21565b95508019841693508086168417925050509392505050565b5f819050919050565b5f610da1610d9c610d978461077e565b610d7e565b61077e565b9050919050565b5f819050919050565b610dba83610d87565b610dce610dc682610da8565b848454610d2d565b825550505050565b5f5f905090565b610de5610dd6565b610df0818484610db1565b505050565b5b81811015610e1357610e085f82610ddd565b600181019050610df6565b5050565b601f821115610e5857610e2981610d00565b610e3284610d12565b81016020851015610e41578190505b610e55610e4d85610d12565b830182610df5565b50505b505050565b5f82821c905092915050565b5f610e785f1984600802610e5d565b1980831691505092915050565b5f610e908383610e69565b9150826002028217905092915050565b610ea982610b45565b67ffffffffffffffff811115610ec257610ec16108b4565b5b610ecc8254610c42565b610ed7828285610e17565b5f60209050601f831160018114610f08575f8415610ef6578287015190505b610f008582610e85565b865550610f67565b601f198416610f1686610d00565b5f5b82811015610f3d57848901518255600182019150602085019450602081019050610f18565b86831015610f5a5784890151610f56601f891682610e69565b8355505b6001600288020188555050505b505050505050565b7f416c726561647920566f746564000000000000000000000000000000000000005f82015250565b5f610fa3600d83610a65565b9150610fae82610f6f565b602082019050919050565b5f6020820190508181035f830152610fd081610f97565b9050919050565b7f4e487b71000000000000000000000000000000000000000000000000000000005f52601160045260245ffd5b5f61100e8261077e565b91507fffffffffffffffffffffffffffffffffffffffffffffffffffffffffffffffff82036110405761103f610fd7565b5b60018201905091905056fea2646970667358221220d7e3c057bfa6720af661a8967fb883cebca129b63f4866ac23534c0c5622d36264736f6c634300081d0033",
					"opcodes": "PUSH1 0x80 PUSH1 0x40 MSTORE CALLVALUE DUP1 ISZERO PUSH1 0xE JUMPI PUSH0 PUSH0 REVERT JUMPDEST POP PUSH2 0x1081 DUP1 PUSH2 0x1C PUSH0 CODECOPY PUSH0 RETURN INVALID PUSH1 0x80 PUSH1 0x40 MSTORE CALLVALUE DUP1 ISZERO PUSH2 0xF JUMPI PUSH0 PUSH0 REVERT JUMPDEST POP PUSH1 0x4 CALLDATASIZE LT PUSH2 0x55 JUMPI PUSH0 CALLDATALOAD PUSH1 0xE0 SHR DUP1 PUSH4 0xDCC6535 EQ PUSH2 0x59 JUMPI DUP1 PUSH4 0x200D2ED2 EQ PUSH2 0x89 JUMPI DUP1 PUSH4 0x2E49D78B EQ PUSH2 0xA7 JUMPI DUP1 PUSH4 0x9A594F06 EQ PUSH2 0xC3 JUMPI DUP1 PUSH4 0xCEBFBD32 EQ PUSH2 0xF3 JUMPI JUMPDEST PUSH0 PUSH0 REVERT JUMPDEST PUSH2 0x73 PUSH1 0x4 DUP1 CALLDATASIZE SUB DUP2 ADD SWAP1 PUSH2 0x6E SWAP2 SWAP1 PUSH2 0x753 JUMP JUMPDEST PUSH2 0x123 JUMP JUMPDEST PUSH1 0x40 MLOAD PUSH2 0x80 SWAP2 SWAP1 PUSH2 0x796 JUMP JUMPDEST PUSH1 0x40 MLOAD DUP1 SWAP2 SUB SWAP1 RETURN JUMPDEST PUSH2 0x91 PUSH2 0x1DF JUMP JUMPDEST PUSH1 0x40 MLOAD PUSH2 0x9E SWAP2 SWAP1 PUSH2 0x822 JUMP JUMPDEST PUSH1 0x40 MLOAD DUP1 SWAP2 SUB SWAP1 RETURN JUMPDEST PUSH2 0xC1 PUSH1 0x4 DUP1 CALLDATASIZE SUB DUP2 ADD SWAP1 PUSH2 0xBC SWAP2 SWAP1 PUSH2 0x871 JUMP JUMPDEST PUSH2 0x1F0 JUMP JUMPDEST STOP JUMPDEST PUSH2 0xDD PUSH1 0x4 DUP1 CALLDATASIZE SUB DUP2 ADD SWAP1 PUSH2 0xD8 SWAP2 SWAP1 PUSH2 0x9D8 JUMP JUMPDEST PUSH2 0x230 JUMP JUMPDEST PUSH1 0x40 MLOAD PUSH2 0xEA SWAP2 SWAP1 PUSH2 0xA4C JUMP JUMPDEST PUSH1 0x40 MLOAD DUP1 SWAP2 SUB SWAP1 RETURN JUMPDEST PUSH2 0x10D PUSH1 0x4 DUP1 CALLDATASIZE SUB DUP2 ADD SWAP1 PUSH2 0x108 SWAP2 SWAP1 PUSH2 0x753 JUMP JUMPDEST PUSH2 0x4C3 JUMP JUMPDEST PUSH1 0x40 MLOAD PUSH2 0x11A SWAP2 SWAP1 PUSH2 0xA4C JUMP JUMPDEST PUSH1 0x40 MLOAD DUP1 SWAP2 SUB SWAP1 RETURN JUMPDEST PUSH0 PUSH1 0x2 DUP1 DUP2 GT ISZERO PUSH2 0x137 JUMPI PUSH2 0x136 PUSH2 0x7AF JUMP JUMPDEST JUMPDEST PUSH0 PUSH0 SWAP1 SLOAD SWAP1 PUSH2 0x100 EXP SWAP1 DIV PUSH1 0xFF AND PUSH1 0x2 DUP2 GT ISZERO PUSH2 0x157 JUMPI PUSH2 0x156 PUSH2 0x7AF JUMP JUMPDEST JUMPDEST SUB PUSH2 0x197 JUMPI PUSH1 0x40 MLOAD PUSH32 0x8C379A000000000000000000000000000000000000000000000000000000000 DUP2 MSTORE PUSH1 0x4 ADD PUSH2 0x18E SWAP1 PUSH2 0xABF JUMP JUMPDEST PUSH1 0x40 MLOAD DUP1 SWAP2 SUB SWAP1 REVERT JUMPDEST PUSH1 0x1 PUSH0 DUP4 PUSH20 0xFFFFFFFFFFFFFFFFFFFFFFFFFFFFFFFFFFFFFFFF AND PUSH20 0xFFFFFFFFFFFFFFFFFFFFFFFFFFFFFFFFFFFFFFFF AND DUP2 MSTORE PUSH1 0x20 ADD SWAP1 DUP2 MSTORE PUSH1 0x20 ADD PUSH0 KECCAK256 PUSH1 0x1 ADD SLOAD SWAP1 POP SWAP2 SWAP1 POP JUMP JUMPDEST PUSH0 PUSH0 SWAP1 SLOAD SWAP1 PUSH2 0x100 EXP SWAP1 DIV PUSH1 0xFF AND DUP2 JUMP JUMPDEST DUP1 PUSH1 0xFF AND PUSH1 0x2 DUP2 GT ISZERO PUSH2 0x206 JUMPI PUSH2 0x205 PUSH2 0x7AF JUMP JUMPDEST JUMPDEST PUSH0 PUSH0 PUSH2 0x100 EXP DUP2 SLOAD DUP2 PUSH1 0xFF MUL NOT AND SWAP1 DUP4 PUSH1 0x2 DUP2 GT ISZERO PUSH2 0x228 JUMPI PUSH2 0x227 PUSH2 0x7AF JUMP JUMPDEST JUMPDEST MUL OR SWAP1 SSTORE POP POP JUMP JUMPDEST PUSH0 PUSH1 0x1 PUSH1 0x2 DUP2 GT ISZERO PUSH2 0x245 JUMPI PUSH2 0x244 PUSH2 0x7AF JUMP JUMPDEST JUMPDEST PUSH0 PUSH0 SWAP1 SLOAD SWAP1 PUSH2 0x100 EXP SWAP1 DIV PUSH1 0xFF AND PUSH1 0x2 DUP2 GT ISZERO PUSH2 0x265 JUMPI PUSH2 0x264 PUSH2 0x7AF JUMP JUMPDEST JUMPDEST EQ PUSH2 0x2A5 JUMPI PUSH1 0x40 MLOAD PUSH32 0x8C379A000000000000000000000000000000000000000000000000000000000 DUP2 MSTORE PUSH1 0x4 ADD PUSH2 0x29C SWAP1 PUSH2 0xB27 JUMP JUMPDEST PUSH1 0x40 MLOAD DUP1 SWAP2 SUB SWAP1 REVERT JUMPDEST PUSH1 0x2 DUP1 DUP2 GT ISZERO PUSH2 0x2B8 JUMPI PUSH2 0x2B7 PUSH2 0x7AF JUMP JUMPDEST JUMPDEST PUSH0 PUSH0 SWAP1 SLOAD SWAP1 PUSH2 0x100 EXP SWAP1 DIV PUSH1 0xFF AND PUSH1 0x2 DUP2 GT ISZERO PUSH2 0x2D8 JUMPI PUSH2 0x2D7 PUSH2 0x7AF JUMP JUMPDEST JUMPDEST SUB PUSH2 0x318 JUMPI PUSH1 0x40 MLOAD PUSH32 0x8C379A000000000000000000000000000000000000000000000000000000000 DUP2 MSTORE PUSH1 0x4 ADD PUSH2 0x30F SWAP1 PUSH2 0xABF JUMP JUMPDEST PUSH1 0x40 MLOAD DUP1 SWAP2 SUB SWAP1 REVERT JUMPDEST PUSH1 0x3 DUP3 PUSH1 0x40 MLOAD PUSH2 0x328 SWAP2 SWAP1 PUSH2 0xB97 JUMP JUMPDEST SWAP1 DUP2 MSTORE PUSH1 0x20 ADD PUSH1 0x40 MLOAD DUP1 SWAP2 SUB SWAP1 KECCAK256 PUSH0 SWAP1 SLOAD SWAP1 PUSH2 0x100 EXP SWAP1 DIV PUSH1 0xFF AND ISZERO PUSH2 0x383 JUMPI PUSH1 0x40 MLOAD PUSH32 0x8C379A000000000000000000000000000000000000000000000000000000000 DUP2 MSTORE PUSH1 0x4 ADD PUSH2 0x37A SWAP1 PUSH2 0xBF7 JUMP JUMPDEST PUSH1 0x40 MLOAD DUP1 SWAP2 SUB SWAP1 REVERT JUMPDEST PUSH0 PUSH1 0x1 PUSH0 DUP6 PUSH20 0xFFFFFFFFFFFFFFFFFFFFFFFFFFFFFFFFFFFFFFFF AND PUSH20 0xFFFFFFFFFFFFFFFFFFFFFFFFFFFFFFFFFFFFFFFF AND DUP2 MSTORE PUSH1 0x20 ADD SWAP1 DUP2 MSTORE PUSH1 0x20 ADD PUSH0 KECCAK256 PUSH0 ADD DUP1 SLOAD PUSH2 0x3CE SWAP1 PUSH2 0xC42 JUMP JUMPDEST SWAP1 POP EQ PUSH2 0x410 JUMPI PUSH1 0x40 MLOAD PUSH32 0x8C379A000000000000000000000000000000000000000000000000000000000 DUP2 MSTORE PUSH1 0x4 ADD PUSH2 0x407 SWAP1 PUSH2 0xCE2 JUMP JUMPDEST PUSH1 0x40 MLOAD DUP1 SWAP2 SUB SWAP1 REVERT JUMPDEST PUSH1 0x40 MLOAD DUP1 PUSH1 0x40 ADD PUSH1 0x40 MSTORE DUP1 DUP4 DUP2 MSTORE PUSH1 0x20 ADD PUSH0 DUP2 MSTORE POP PUSH1 0x1 PUSH0 DUP6 PUSH20 0xFFFFFFFFFFFFFFFFFFFFFFFFFFFFFFFFFFFFFFFF AND PUSH20 0xFFFFFFFFFFFFFFFFFFFFFFFFFFFFFFFFFFFFFFFF AND DUP2 MSTORE PUSH1 0x20 ADD SWAP1 DUP2 MSTORE PUSH1 0x20 ADD PUSH0 KECCAK256 PUSH0 DUP3 ADD MLOAD DUP2 PUSH0 ADD SWAP1 DUP2 PUSH2 0x475 SWAP2 SWAP1 PUSH2 0xEA0 JUMP JUMPDEST POP PUSH1 0x20 DUP3 ADD MLOAD DUP2 PUSH1 0x1 ADD SSTORE SWAP1 POP POP PUSH1 0x1 PUSH1 0x3 DUP4 PUSH1 0x40 MLOAD PUSH2 0x495 SWAP2 SWAP1 PUSH2 0xB97 JUMP JUMPDEST SWAP1 DUP2 MSTORE PUSH1 0x20 ADD PUSH1 0x40 MLOAD DUP1 SWAP2 SUB SWAP1 KECCAK256 PUSH0 PUSH2 0x100 EXP DUP2 SLOAD DUP2 PUSH1 0xFF MUL NOT AND SWAP1 DUP4 ISZERO ISZERO MUL OR SWAP1 SSTORE POP PUSH1 0x1 SWAP1 POP SWAP3 SWAP2 POP POP JUMP JUMPDEST PUSH0 PUSH1 0x1 PUSH1 0x2 DUP2 GT ISZERO PUSH2 0x4D8 JUMPI PUSH2 0x4D7 PUSH2 0x7AF JUMP JUMPDEST JUMPDEST PUSH0 PUSH0 SWAP1 SLOAD SWAP1 PUSH2 0x100 EXP SWAP1 DIV PUSH1 0xFF AND PUSH1 0x2 DUP2 GT ISZERO PUSH2 0x4F8 JUMPI PUSH2 0x4F7 PUSH2 0x7AF JUMP JUMPDEST JUMPDEST EQ PUSH2 0x538 JUMPI PUSH1 0x40 MLOAD PUSH32 0x8C379A000000000000000000000000000000000000000000000000000000000 DUP2 MSTORE PUSH1 0x4 ADD PUSH2 0x52F SWAP1 PUSH2 0xB27 JUMP JUMPDEST PUSH1 0x40 MLOAD DUP1 SWAP2 SUB SWAP1 REVERT JUMPDEST PUSH1 0x2 DUP1 DUP2 GT ISZERO PUSH2 0x54B JUMPI PUSH2 0x54A PUSH2 0x7AF JUMP JUMPDEST JUMPDEST PUSH0 PUSH0 SWAP1 SLOAD SWAP1 PUSH2 0x100 EXP SWAP1 DIV PUSH1 0xFF AND PUSH1 0x2 DUP2 GT ISZERO PUSH2 0x56B JUMPI PUSH2 0x56A PUSH2 0x7AF JUMP JUMPDEST JUMPDEST SUB PUSH2 0x5AB JUMPI PUSH1 0x40 MLOAD PUSH32 0x8C379A000000000000000000000000000000000000000000000000000000000 DUP2 MSTORE PUSH1 0x4 ADD PUSH2 0x5A2 SWAP1 PUSH2 0xABF JUMP JUMPDEST PUSH1 0x40 MLOAD DUP1 SWAP2 SUB SWAP1 REVERT JUMPDEST PUSH1 0x2 PUSH0 CALLER PUSH20 0xFFFFFFFFFFFFFFFFFFFFFFFFFFFFFFFFFFFFFFFF AND PUSH20 0xFFFFFFFFFFFFFFFFFFFFFFFFFFFFFFFFFFFFFFFF AND DUP2 MSTORE PUSH1 0x20 ADD SWAP1 DUP2 MSTORE PUSH1 0x20 ADD PUSH0 KECCAK256 PUSH0 SWAP1 SLOAD SWAP1 PUSH2 0x100 EXP SWAP1 DIV PUSH1 0xFF AND ISZERO PUSH2 0x635 JUMPI PUSH1 0x40 MLOAD PUSH32 0x8C379A000000000000000000000000000000000000000000000000000000000 DUP2 MSTORE PUSH1 0x4 ADD PUSH2 0x62C SWAP1 PUSH2 0xFB9 JUMP JUMPDEST PUSH1 0x40 MLOAD DUP1 SWAP2 SUB SWAP1 REVERT JUMPDEST PUSH1 0x1 PUSH0 DUP4 PUSH20 0xFFFFFFFFFFFFFFFFFFFFFFFFFFFFFFFFFFFFFFFF AND PUSH20 0xFFFFFFFFFFFFFFFFFFFFFFFFFFFFFFFFFFFFFFFF AND DUP2 MSTORE PUSH1 0x20 ADD SWAP1 DUP2 MSTORE PUSH1 0x20 ADD PUSH0 KECCAK256 PUSH1 0x1 ADD PUSH0 DUP2 SLOAD DUP1 SWAP3 SWAP2 SWAP1 PUSH2 0x685 SWAP1 PUSH2 0x1004 JUMP JUMPDEST SWAP2 SWAP1 POP SSTORE POP PUSH1 0x1 PUSH1 0x2 PUSH0 CALLER PUSH20 0xFFFFFFFFFFFFFFFFFFFFFFFFFFFFFFFFFFFFFFFF AND PUSH20 0xFFFFFFFFFFFFFFFFFFFFFFFFFFFFFFFFFFFFFFFF AND DUP2 MSTORE PUSH1 0x20 ADD SWAP1 DUP2 MSTORE PUSH1 0x20 ADD PUSH0 KECCAK256 PUSH0 PUSH2 0x100 EXP DUP2 SLOAD DUP2 PUSH1 0xFF MUL NOT AND SWAP1 DUP4 ISZERO ISZERO MUL OR SWAP1 SSTORE POP PUSH1 0x1 SWAP1 POP SWAP2 SWAP1 POP JUMP JUMPDEST PUSH0 PUSH1 0x40 MLOAD SWAP1 POP SWAP1 JUMP JUMPDEST PUSH0 PUSH0 REVERT JUMPDEST PUSH0 PUSH0 REVERT JUMPDEST PUSH0 PUSH20 0xFFFFFFFFFFFFFFFFFFFFFFFFFFFFFFFFFFFFFFFF DUP3 AND SWAP1 POP SWAP2 SWAP1 POP JUMP JUMPDEST PUSH0 PUSH2 0x722 DUP3 PUSH2 0x6F9 JUMP JUMPDEST SWAP1 POP SWAP2 SWAP1 POP JUMP JUMPDEST PUSH2 0x732 DUP2 PUSH2 0x718 JUMP JUMPDEST DUP2 EQ PUSH2 0x73C JUMPI PUSH0 PUSH0 REVERT JUMPDEST POP JUMP JUMPDEST PUSH0 DUP2 CALLDATALOAD SWAP1 POP PUSH2 0x74D DUP2 PUSH2 0x729 JUMP JUMPDEST SWAP3 SWAP2 POP POP JUMP JUMPDEST PUSH0 PUSH1 0x20 DUP3 DUP5 SUB SLT ISZERO PUSH2 0x768 JUMPI PUSH2 0x767 PUSH2 0x6F1 JUMP JUMPDEST JUMPDEST PUSH0 PUSH2 0x775 DUP5 DUP3 DUP6 ADD PUSH2 0x73F JUMP JUMPDEST SWAP2 POP POP SWAP3 SWAP2 POP POP JUMP JUMPDEST PUSH0 DUP2 SWAP1 POP SWAP2 SWAP1 POP JUMP JUMPDEST PUSH2 0x790 DUP2 PUSH2 0x77E JUMP JUMPDEST DUP3 MSTORE POP POP JUMP JUMPDEST PUSH0 PUSH1 0x20 DUP3 ADD SWAP1 POP PUSH2 0x7A9 PUSH0 DUP4 ADD DUP5 PUSH2 0x787 JUMP JUMPDEST SWAP3 SWAP2 POP POP JUMP JUMPDEST PUSH32 0x4E487B7100000000000000000000000000000000000000000000000000000000 PUSH0 MSTORE PUSH1 0x21 PUSH1 0x4 MSTORE PUSH1 0x24 PUSH0 REVERT JUMPDEST PUSH1 0x3 DUP2 LT PUSH2 0x7ED JUMPI PUSH2 0x7EC PUSH2 0x7AF JUMP JUMPDEST JUMPDEST POP JUMP JUMPDEST PUSH0 DUP2 SWAP1 POP PUSH2 0x7FD DUP3 PUSH2 0x7DC JUMP JUMPDEST SWAP2 SWAP1 POP JUMP JUMPDEST PUSH0 PUSH2 0x80C DUP3 PUSH2 0x7F0 JUMP JUMPDEST SWAP1 POP SWAP2 SWAP1 POP JUMP JUMPDEST PUSH2 0x81C DUP2 PUSH2 0x802 JUMP JUMPDEST DUP3 MSTORE POP POP JUMP JUMPDEST PUSH0 PUSH1 0x20 DUP3 ADD SWAP1 POP PUSH2 0x835 PUSH0 DUP4 ADD DUP5 PUSH2 0x813 JUMP JUMPDEST SWAP3 SWAP2 POP POP JUMP JUMPDEST PUSH0 PUSH1 0xFF DUP3 AND SWAP1 POP SWAP2 SWAP1 POP JUMP JUMPDEST PUSH2 0x850 DUP2 PUSH2 0x83B JUMP JUMPDEST DUP2 EQ PUSH2 0x85A JUMPI PUSH0 PUSH0 REVERT JUMPDEST POP JUMP JUMPDEST PUSH0 DUP2 CALLDATALOAD SWAP1 POP PUSH2 0x86B DUP2 PUSH2 0x847 JUMP JUMPDEST SWAP3 SWAP2 POP POP JUMP JUMPDEST PUSH0 PUSH1 0x20 DUP3 DUP5 SUB SLT ISZERO PUSH2 0x886 JUMPI PUSH2 0x885 PUSH2 0x6F1 JUMP JUMPDEST JUMPDEST PUSH0 PUSH2 0x893 DUP5 DUP3 DUP6 ADD PUSH2 0x85D JUMP JUMPDEST SWAP2 POP POP SWAP3 SWAP2 POP POP JUMP JUMPDEST PUSH0 PUSH0 REVERT JUMPDEST PUSH0 PUSH0 REVERT JUMPDEST PUSH0 PUSH1 0x1F NOT PUSH1 0x1F DUP4 ADD AND SWAP1 POP SWAP2 SWAP1 POP JUMP JUMPDEST PUSH32 0x4E487B7100000000000000000000000000000000000000000000000000000000 PUSH0 MSTORE PUSH1 0x41 PUSH1 0x4 MSTORE PUSH1 0x24 PUSH0 REVERT JUMPDEST PUSH2 0x8EA DUP3 PUSH2 0x8A4 JUMP JUMPDEST DUP2 ADD DUP2 DUP2 LT PUSH8 0xFFFFFFFFFFFFFFFF DUP3 GT OR ISZERO PUSH2 0x909 JUMPI PUSH2 0x908 PUSH2 0x8B4 JUMP JUMPDEST JUMPDEST DUP1 PUSH1 0x40 MSTORE POP POP POP JUMP JUMPDEST PUSH0 PUSH2 0x91B PUSH2 0x6E8 JUMP JUMPDEST SWAP1 POP PUSH2 0x927 DUP3 DUP3 PUSH2 0x8E1 JUMP JUMPDEST SWAP2 SWAP1 POP JUMP JUMPDEST PUSH0 PUSH8 0xFFFFFFFFFFFFFFFF DUP3 GT ISZERO PUSH2 0x946 JUMPI PUSH2 0x945 PUSH2 0x8B4 JUMP JUMPDEST JUMPDEST PUSH2 0x94F DUP3 PUSH2 0x8A4 JUMP JUMPDEST SWAP1 POP PUSH1 0x20 DUP2 ADD SWAP1 POP SWAP2 SWAP1 POP JUMP JUMPDEST DUP3 DUP2 DUP4 CALLDATACOPY PUSH0 DUP4 DUP4 ADD MSTORE POP POP POP JUMP JUMPDEST PUSH0 PUSH2 0x97C PUSH2 0x977 DUP5 PUSH2 0x92C JUMP JUMPDEST PUSH2 0x912 JUMP JUMPDEST SWAP1 POP DUP3 DUP2 MSTORE PUSH1 0x20 DUP2 ADD DUP5 DUP5 DUP5 ADD GT ISZERO PUSH2 0x998 JUMPI PUSH2 0x997 PUSH2 0x8A0 JUMP JUMPDEST JUMPDEST PUSH2 0x9A3 DUP5 DUP3 DUP6 PUSH2 0x95C JUMP JUMPDEST POP SWAP4 SWAP3 POP POP POP JUMP JUMPDEST PUSH0 DUP3 PUSH1 0x1F DUP4 ADD SLT PUSH2 0x9BF JUMPI PUSH2 0x9BE PUSH2 0x89C JUMP JUMPDEST JUMPDEST DUP2 CALLDATALOAD PUSH2 0x9CF DUP5 DUP3 PUSH1 0x20 DUP7 ADD PUSH2 0x96A JUMP JUMPDEST SWAP2 POP POP SWAP3 SWAP2 POP POP JUMP JUMPDEST PUSH0 PUSH0 PUSH1 0x40 DUP4 DUP6 SUB SLT ISZERO PUSH2 0x9EE JUMPI PUSH2 0x9ED PUSH2 0x6F1 JUMP JUMPDEST JUMPDEST PUSH0 PUSH2 0x9FB DUP6 DUP3 DUP7 ADD PUSH2 0x73F JUMP JUMPDEST SWAP3 POP POP PUSH1 0x20 DUP4 ADD CALLDATALOAD PUSH8 0xFFFFFFFFFFFFFFFF DUP2 GT ISZERO PUSH2 0xA1C JUMPI PUSH2 0xA1B PUSH2 0x6F5 JUMP JUMPDEST JUMPDEST PUSH2 0xA28 DUP6 DUP3 DUP7 ADD PUSH2 0x9AB JUMP JUMPDEST SWAP2 POP POP SWAP3 POP SWAP3 SWAP1 POP JUMP JUMPDEST PUSH0 DUP2 ISZERO ISZERO SWAP1 POP SWAP2 SWAP1 POP JUMP JUMPDEST PUSH2 0xA46 DUP2 PUSH2 0xA32 JUMP JUMPDEST DUP3 MSTORE POP POP JUMP JUMPDEST PUSH0 PUSH1 0x20 DUP3 ADD SWAP1 POP PUSH2 0xA5F PUSH0 DUP4 ADD DUP5 PUSH2 0xA3D JUMP JUMPDEST SWAP3 SWAP2 POP POP JUMP JUMPDEST PUSH0 DUP3 DUP3 MSTORE PUSH1 0x20 DUP3 ADD SWAP1 POP SWAP3 SWAP2 POP POP JUMP JUMPDEST PUSH32 0x416C726561647920456E64656400000000000000000000000000000000000000 PUSH0 DUP3 ADD MSTORE POP JUMP JUMPDEST PUSH0 PUSH2 0xAA9 PUSH1 0xD DUP4 PUSH2 0xA65 JUMP JUMPDEST SWAP2 POP PUSH2 0xAB4 DUP3 PUSH2 0xA75 JUMP JUMPDEST PUSH1 0x20 DUP3 ADD SWAP1 POP SWAP2 SWAP1 POP JUMP JUMPDEST PUSH0 PUSH1 0x20 DUP3 ADD SWAP1 POP DUP2 DUP2 SUB PUSH0 DUP4 ADD MSTORE PUSH2 0xAD6 DUP2 PUSH2 0xA9D JUMP JUMPDEST SWAP1 POP SWAP2 SWAP1 POP JUMP JUMPDEST PUSH32 0x596F75206861766520746F20537461727420566F74696E670000000000000000 PUSH0 DUP3 ADD MSTORE POP JUMP JUMPDEST PUSH0 PUSH2 0xB11 PUSH1 0x18 DUP4 PUSH2 0xA65 JUMP JUMPDEST SWAP2 POP PUSH2 0xB1C DUP3 PUSH2 0xADD JUMP JUMPDEST PUSH1 0x20 DUP3 ADD SWAP1 POP SWAP2 SWAP1 POP JUMP JUMPDEST PUSH0 PUSH1 0x20 DUP3 ADD SWAP1 POP DUP2 DUP2 SUB PUSH0 DUP4 ADD MSTORE PUSH2 0xB3E DUP2 PUSH2 0xB05 JUMP JUMPDEST SWAP1 POP SWAP2 SWAP1 POP JUMP JUMPDEST PUSH0 DUP2 MLOAD SWAP1 POP SWAP2 SWAP1 POP JUMP JUMPDEST PUSH0 DUP2 SWAP1 POP SWAP3 SWAP2 POP POP JUMP JUMPDEST DUP3 DUP2 DUP4 MCOPY PUSH0 DUP4 DUP4 ADD MSTORE POP POP POP JUMP JUMPDEST PUSH0 PUSH2 0xB71 DUP3 PUSH2 0xB45 JUMP JUMPDEST PUSH2 0xB7B DUP2 DUP6 PUSH2 0xB4F JUMP JUMPDEST SWAP4 POP PUSH2 0xB8B DUP2 DUP6 PUSH1 0x20 DUP7 ADD PUSH2 0xB59 JUMP JUMPDEST DUP1 DUP5 ADD SWAP2 POP POP SWAP3 SWAP2 POP POP JUMP JUMPDEST PUSH0 PUSH2 0xBA2 DUP3 DUP5 PUSH2 0xB67 JUMP JUMPDEST SWAP2 POP DUP2 SWAP1 POP SWAP3 SWAP2 POP POP JUMP JUMPDEST PUSH32 0x6E616D652073686F756C6420626520646966666572656E740000000000000000 PUSH0 DUP3 ADD MSTORE POP JUMP JUMPDEST PUSH0 PUSH2 0xBE1 PUSH1 0x18 DUP4 PUSH2 0xA65 JUMP JUMPDEST SWAP2 POP PUSH2 0xBEC DUP3 PUSH2 0xBAD JUMP JUMPDEST PUSH1 0x20 DUP3 ADD SWAP1 POP SWAP2 SWAP1 POP JUMP JUMPDEST PUSH0 PUSH1 0x20 DUP3 ADD SWAP1 POP DUP2 DUP2 SUB PUSH0 DUP4 ADD MSTORE PUSH2 0xC0E DUP2 PUSH2 0xBD5 JUMP JUMPDEST SWAP1 POP SWAP2 SWAP1 POP JUMP JUMPDEST PUSH32 0x4E487B7100000000000000000000000000000000000000000000000000000000 PUSH0 MSTORE PUSH1 0x22 PUSH1 0x4 MSTORE PUSH1 0x24 PUSH0 REVERT JUMPDEST PUSH0 PUSH1 0x2 DUP3 DIV SWAP1 POP PUSH1 0x1 DUP3 AND DUP1 PUSH2 0xC59 JUMPI PUSH1 0x7F DUP3 AND SWAP2 POP JUMPDEST PUSH1 0x20 DUP3 LT DUP2 SUB PUSH2 0xC6C JUMPI PUSH2 0xC6B PUSH2 0xC15 JUMP JUMPDEST JUMPDEST POP SWAP2 SWAP1 POP JUMP JUMPDEST PUSH32 0x43616E6469646174652063616E2774206164642077697468207468652073616D PUSH0 DUP3 ADD MSTORE PUSH32 0x6520416464726573730000000000000000000000000000000000000000000000 PUSH1 0x20 DUP3 ADD MSTORE POP JUMP JUMPDEST PUSH0 PUSH2 0xCCC PUSH1 0x29 DUP4 PUSH2 0xA65 JUMP JUMPDEST SWAP2 POP PUSH2 0xCD7 DUP3 PUSH2 0xC72 JUMP JUMPDEST PUSH1 0x40 DUP3 ADD SWAP1 POP SWAP2 SWAP1 POP JUMP JUMPDEST PUSH0 PUSH1 0x20 DUP3 ADD SWAP1 POP DUP2 DUP2 SUB PUSH0 DUP4 ADD MSTORE PUSH2 0xCF9 DUP2 PUSH2 0xCC0 JUMP JUMPDEST SWAP1 POP SWAP2 SWAP1 POP JUMP JUMPDEST PUSH0 DUP2 SWAP1 POP DUP2 PUSH0 MSTORE PUSH1 0x20 PUSH0 KECCAK256 SWAP1 POP SWAP2 SWAP1 POP JUMP JUMPDEST PUSH0 PUSH1 0x20 PUSH1 0x1F DUP4 ADD DIV SWAP1 POP SWAP2 SWAP1 POP JUMP JUMPDEST PUSH0 DUP3 DUP3 SHL SWAP1 POP SWAP3 SWAP2 POP POP JUMP JUMPDEST PUSH0 PUSH1 0x8 DUP4 MUL PUSH2 0xD5C PUSH32 0xFFFFFFFFFFFFFFFFFFFFFFFFFFFFFFFFFFFFFFFFFFFFFFFFFFFFFFFFFFFFFFFF DUP3 PUSH2 0xD21 JUMP JUMPDEST PUSH2 0xD66 DUP7 DUP4 PUSH2 0xD21 JUMP JUMPDEST SWAP6 POP DUP1 NOT DUP5 AND SWAP4 POP DUP1 DUP7 AND DUP5 OR SWAP3 POP POP POP SWAP4 SWAP3 POP POP POP JUMP JUMPDEST PUSH0 DUP2 SWAP1 POP SWAP2 SWAP1 POP JUMP JUMPDEST PUSH0 PUSH2 0xDA1 PUSH2 0xD9C PUSH2 0xD97 DUP5 PUSH2 0x77E JUMP JUMPDEST PUSH2 0xD7E JUMP JUMPDEST PUSH2 0x77E JUMP JUMPDEST SWAP1 POP SWAP2 SWAP1 POP JUMP JUMPDEST PUSH0 DUP2 SWAP1 POP SWAP2 SWAP1 POP JUMP JUMPDEST PUSH2 0xDBA DUP4 PUSH2 0xD87 JUMP JUMPDEST PUSH2 0xDCE PUSH2 0xDC6 DUP3 PUSH2 0xDA8 JUMP JUMPDEST DUP5 DUP5 SLOAD PUSH2 0xD2D JUMP JUMPDEST DUP3 SSTORE POP POP POP POP JUMP JUMPDEST PUSH0 PUSH0 SWAP1 POP SWAP1 JUMP JUMPDEST PUSH2 0xDE5 PUSH2 0xDD6 JUMP JUMPDEST PUSH2 0xDF0 DUP2 DUP5 DUP5 PUSH2 0xDB1 JUMP JUMPDEST POP POP POP JUMP JUMPDEST JUMPDEST DUP2 DUP2 LT ISZERO PUSH2 0xE13 JUMPI PUSH2 0xE08 PUSH0 DUP3 PUSH2 0xDDD JUMP JUMPDEST PUSH1 0x1 DUP2 ADD SWAP1 POP PUSH2 0xDF6 JUMP JUMPDEST POP POP JUMP JUMPDEST PUSH1 0x1F DUP3 GT ISZERO PUSH2 0xE58 JUMPI PUSH2 0xE29 DUP2 PUSH2 0xD00 JUMP JUMPDEST PUSH2 0xE32 DUP5 PUSH2 0xD12 JUMP JUMPDEST DUP2 ADD PUSH1 0x20 DUP6 LT ISZERO PUSH2 0xE41 JUMPI DUP2 SWAP1 POP JUMPDEST PUSH2 0xE55 PUSH2 0xE4D DUP6 PUSH2 0xD12 JUMP JUMPDEST DUP4 ADD DUP3 PUSH2 0xDF5 JUMP JUMPDEST POP POP JUMPDEST POP POP POP JUMP JUMPDEST PUSH0 DUP3 DUP3 SHR SWAP1 POP SWAP3 SWAP2 POP POP JUMP JUMPDEST PUSH0 PUSH2 0xE78 PUSH0 NOT DUP5 PUSH1 0x8 MUL PUSH2 0xE5D JUMP JUMPDEST NOT DUP1 DUP4 AND SWAP2 POP POP SWAP3 SWAP2 POP POP JUMP JUMPDEST PUSH0 PUSH2 0xE90 DUP4 DUP4 PUSH2 0xE69 JUMP JUMPDEST SWAP2 POP DUP3 PUSH1 0x2 MUL DUP3 OR SWAP1 POP SWAP3 SWAP2 POP POP JUMP JUMPDEST PUSH2 0xEA9 DUP3 PUSH2 0xB45 JUMP JUMPDEST PUSH8 0xFFFFFFFFFFFFFFFF DUP2 GT ISZERO PUSH2 0xEC2 JUMPI PUSH2 0xEC1 PUSH2 0x8B4 JUMP JUMPDEST JUMPDEST PUSH2 0xECC DUP3 SLOAD PUSH2 0xC42 JUMP JUMPDEST PUSH2 0xED7 DUP3 DUP3 DUP6 PUSH2 0xE17 JUMP JUMPDEST PUSH0 PUSH1 0x20 SWAP1 POP PUSH1 0x1F DUP4 GT PUSH1 0x1 DUP2 EQ PUSH2 0xF08 JUMPI PUSH0 DUP5 ISZERO PUSH2 0xEF6 JUMPI DUP3 DUP8 ADD MLOAD SWAP1 POP JUMPDEST PUSH2 0xF00 DUP6 DUP3 PUSH2 0xE85 JUMP JUMPDEST DUP7 SSTORE POP PUSH2 0xF67 JUMP JUMPDEST PUSH1 0x1F NOT DUP5 AND PUSH2 0xF16 DUP7 PUSH2 0xD00 JUMP JUMPDEST PUSH0 JUMPDEST DUP3 DUP2 LT ISZERO PUSH2 0xF3D JUMPI DUP5 DUP10 ADD MLOAD DUP3 SSTORE PUSH1 0x1 DUP3 ADD SWAP2 POP PUSH1 0x20 DUP6 ADD SWAP5 POP PUSH1 0x20 DUP2 ADD SWAP1 POP PUSH2 0xF18 JUMP JUMPDEST DUP7 DUP4 LT ISZERO PUSH2 0xF5A JUMPI DUP5 DUP10 ADD MLOAD PUSH2 0xF56 PUSH1 0x1F DUP10 AND DUP3 PUSH2 0xE69 JUMP JUMPDEST DUP4 SSTORE POP JUMPDEST PUSH1 0x1 PUSH1 0x2 DUP9 MUL ADD DUP9 SSTORE POP POP POP JUMPDEST POP POP POP POP POP POP JUMP JUMPDEST PUSH32 0x416C726561647920566F74656400000000000000000000000000000000000000 PUSH0 DUP3 ADD MSTORE POP JUMP JUMPDEST PUSH0 PUSH2 0xFA3 PUSH1 0xD DUP4 PUSH2 0xA65 JUMP JUMPDEST SWAP2 POP PUSH2 0xFAE DUP3 PUSH2 0xF6F JUMP JUMPDEST PUSH1 0x20 DUP3 ADD SWAP1 POP SWAP2 SWAP1 POP JUMP JUMPDEST PUSH0 PUSH1 0x20 DUP3 ADD SWAP1 POP DUP2 DUP2 SUB PUSH0 DUP4 ADD MSTORE PUSH2 0xFD0 DUP2 PUSH2 0xF97 JUMP JUMPDEST SWAP1 POP SWAP2 SWAP1 POP JUMP JUMPDEST PUSH32 0x4E487B7100000000000000000000000000000000000000000000000000000000 PUSH0 MSTORE PUSH1 0x11 PUSH1 0x4 MSTORE PUSH1 0x24 PUSH0 REVERT JUMPDEST PUSH0 PUSH2 0x100E DUP3 PUSH2 0x77E JUMP JUMPDEST SWAP2 POP PUSH32 0xFFFFFFFFFFFFFFFFFFFFFFFFFFFFFFFFFFFFFFFFFFFFFFFFFFFFFFFFFFFFFFFF DUP3 SUB PUSH2 0x1040 JUMPI PUSH2 0x103F PUSH2 0xFD7 JUMP JUMPDEST JUMPDEST PUSH1 0x1 DUP3 ADD SWAP1 POP SWAP2 SWAP1 POP JUMP INVALID LOG2 PUSH5 0x6970667358 0x22 SLT KECCAK256 0xD7 CALLF 0xC057 0xBF 0xA6 PUSH19 0xAF661A8967FB883CEBCA129B63F4866AC2353 0x4C 0xC JUMP 0x22 0xD3 PUSH3 0x64736F PUSH13 0x634300081D0033000000000000 "
				},
				"gasEstimates": {
					"creation": {
						"codeDepositCost": "845000",
						"executionCost": "881",
						"totalCost": "845881"
					},
					"external": {
						"Votestart(address)": "56174",
						"addCandidate(address,string)": "infinite",
						"setStatus(uint8)": "24746",
						"status()": "2553",
						"voteCountForCan(address)": "5022"
					}
				},
				"methodIdentifiers": {
					"Votestart(address)": "cebfbd32",
					"addCandidate(address,string)": "9a594f06",
					"setStatus(uint8)": "2e49d78b",
					"status()": "200d2ed2",
					"voteCountForCan(address)": "0dcc6535"
				}
			},
			"storageLayout": {
				"storage": [
					{
						"astId": 13,
						"contract": "NewLearning/enum.sol:Voting",
						"label": "status",
						"offset": 0,
						"slot": "0",
						"type": "t_enum(Status)5"
					},
					{
						"astId": 18,
						"contract": "NewLearning/enum.sol:Voting",
						"label": "candidates",
						"offset": 0,
						"slot": "1",
						"type": "t_mapping(t_address,t_struct(Candidate)10_storage)"
					},
					{
						"astId": 22,
						"contract": "NewLearning/enum.sol:Voting",
						"label": "hasVoted",
						"offset": 0,
						"slot": "2",
						"type": "t_mapping(t_address,t_bool)"
					},
					{
						"astId": 26,
						"contract": "NewLearning/enum.sol:Voting",
						"label": "sameName",
						"offset": 0,
						"slot": "3",
						"type": "t_mapping(t_string_memory_ptr,t_bool)"
					}
				],
				"types": {
					"t_address": {
						"encoding": "inplace",
						"label": "address",
						"numberOfBytes": "20"
					},
					"t_bool": {
						"encoding": "inplace",
						"label": "bool",
						"numberOfBytes": "1"
					},
					"t_enum(Status)5": {
						"encoding": "inplace",
						"label": "enum Voting.Status",
						"numberOfBytes": "1"
					},
					"t_mapping(t_address,t_bool)": {
						"encoding": "mapping",
						"key": "t_address",
						"label": "mapping(address => bool)",
						"numberOfBytes": "32",
						"value": "t_bool"
					},
					"t_mapping(t_address,t_struct(Candidate)10_storage)": {
						"encoding": "mapping",
						"key": "t_address",
						"label": "mapping(address => struct Voting.Candidate)",
						"numberOfBytes": "32",
						"value": "t_struct(Candidate)10_storage"
					},
					"t_mapping(t_string_memory_ptr,t_bool)": {
						"encoding": "mapping",
						"key": "t_string_memory_ptr",
						"label": "mapping(string => bool)",
						"numberOfBytes": "32",
						"value": "t_bool"
					},
					"t_string_memory_ptr": {
						"encoding": "bytes",
						"label": "string",
						"numberOfBytes": "32"
					},
					"t_string_storage": {
						"encoding": "bytes",
						"label": "string",
						"numberOfBytes": "32"
					},
					"t_struct(Candidate)10_storage": {
						"encoding": "inplace",
						"label": "struct Voting.Candidate",
						"members": [
							{
								"astId": 7,
								"contract": "NewLearning/enum.sol:Voting",
								"label": "name",
								"offset": 0,
								"slot": "0",
								"type": "t_string_storage"
							},
							{
								"astId": 9,
								"contract": "NewLearning/enum.sol:Voting",
								"label": "voteCount",
								"offset": 0,
								"slot": "1",
								"type": "t_uint256"
							}
						],
						"numberOfBytes": "64"
					},
					"t_uint256": {
						"encoding": "inplace",
						"label": "uint256",
						"numberOfBytes": "32"
					}
				}
			},
			"userdoc": {
				"kind": "user",
				"methods": {},
				"version": 1
			}
		}
	}
}