{
	"NewLearning/First.sol": {
		"First": {
			"abi": [
				{
					"inputs": [],
					"name": "add",
					"outputs": [
						{
							"internalType": "int256",
							"name": "",
							"type": "int256"
						}
					],
					"stateMutability": "view",
					"type": "function"
				},
				{
					"inputs": [],
					"name": "age",
					"outputs": [
						{
							"internalType": "uint256",
							"name": "",
							"type": "uint256"
						}
					],
					"stateMutability": "view",
					"type": "function"
				},
				{
					"inputs": [],
					"name": "book",
					"outputs": [
						{
							"internalType": "string",
							"name": "title",
							"type": "string"
						},
						{
							"internalType": "string",
							"name": "author",
							"type": "string"
						},
						{
							"internalType": "uint256",
							"name": "price",
							"type": "uint256"
						}
					],
					"stateMutability": "view",
					"type": "function"
				},
				{
					"inputs": [],
					"name": "getAddress",
					"outputs": [
						{
							"internalType": "address",
							"name": "",
							"type": "address"
						}
					],
					"stateMutability": "view",
					"type": "function"
				},
				{
					"inputs": [],
					"name": "isMember",
					"outputs": [
						{
							"internalType": "bool",
							"name": "",
							"type": "bool"
						}
					],
					"stateMutability": "view",
					"type": "function"
				},
				{
					"inputs": [],
					"name": "name",
					"outputs": [
						{
							"internalType": "string",
							"name": "",
							"type": "string"
						}
					],
					"stateMutability": "view",
					"type": "function"
				},
				{
					"inputs": [],
					"name": "vote",
					"outputs": [
						{
							"internalType": "enum First.VoteStatus",
							"name": "",
							"type": "uint8"
						}
					],
					"stateMutability": "view",
					"type": "function"
				}
			],
			"devdoc": {
				"kind": "dev",
				"methods": {},
				"version": 1
			},
			"evm": {
				"assembly": "    /* \"NewLearning/First.sol\":61:796  contract First{... */\n  mstore(0x40, 0x80)\n    /* \"NewLearning/First.sol\":216:248  Book(\"Mojai Moja\",\"Razibul\",100) */\n  mload(0x40)\n  dup1\n  0x60\n  add\n  0x40\n  mstore\n  dup1\n  mload(0x40)\n  dup1\n  0x40\n  add\n  0x40\n  mstore\n  dup1\n  0x0a\n  dup2\n  mstore\n  0x20\n  add\n  0x4d6f6a6169204d6f6a6100000000000000000000000000000000000000000000\n  dup2\n  mstore\n  pop\n  dup2\n  mstore\n  0x20\n  add\n  mload(0x40)\n  dup1\n  0x40\n  add\n  0x40\n  mstore\n  dup1\n  0x07\n  dup2\n  mstore\n  0x20\n  add\n  0x52617a6962756c00000000000000000000000000000000000000000000000000\n  dup2\n  mstore\n  pop\n  dup2\n  mstore\n  0x20\n  add\n    /* \"NewLearning/First.sol\":244:247  100 */\n  0x64\n    /* \"NewLearning/First.sol\":216:248  Book(\"Mojai Moja\",\"Razibul\",100) */\n  dup2\n  mstore\n  pop\n    /* \"NewLearning/First.sol\":197:248  Book public book = Book(\"Mojai Moja\",\"Razibul\",100) */\n  0x00\n  0x00\n  dup3\n  add\n  mload\n  dup2\n  0x00\n  add\n  swap1\n  dup2\n  tag_1\n  swap2\n  swap1\n  tag_2\n  jump\t// in\ntag_1:\n  pop\n  0x20\n  dup3\n  add\n  mload\n  dup2\n  0x01\n  add\n  swap1\n  dup2\n  tag_3\n  swap2\n  swap1\n  tag_2\n  jump\t// in\ntag_3:\n  pop\n  0x40\n  dup3\n  add\n  mload\n  dup2\n  0x02\n  add\n  sstore\n  pop\n  pop\n    /* \"NewLearning/First.sol\":277:307  string public name = \"Razibul\" */\n  mload(0x40)\n  dup1\n  0x40\n  add\n  0x40\n  mstore\n  dup1\n  0x07\n  dup2\n  mstore\n  0x20\n  add\n  0x52617a6962756c00000000000000000000000000000000000000000000000000\n  dup2\n  mstore\n  pop\n  0x03\n  swap1\n  dup2\n  tag_4\n  swap2\n  swap1\n  tag_2\n  jump\t// in\ntag_4:\n  pop\n    /* \"NewLearning/First.sol\":335:337  22 */\n  0x16\n    /* \"NewLearning/First.sol\":314:337  uint256 public age = 22 */\n  0x04\n  sstore\n    /* \"NewLearning/First.sol\":367:371  true */\n  0x01\n    /* \"NewLearning/First.sol\":344:371  bool public isMember = true */\n  0x05\n  exp(0x0100, 0x00)\n  dup2\n  sload\n  dup2\n  0xff\n  mul\n  not\n  and\n  swap1\n  dup4\n  iszero\n  iszero\n  mul\n  or\n  swap1\n  sstore\n  pop\n    /* \"NewLearning/First.sol\":479:495  VoteStatus.Voted */\n  0x01\n    /* \"NewLearning/First.sol\":454:495  VoteStatus public vote = VoteStatus.Voted */\n  0x05\n  exp(0x0100, 0x01)\n  dup2\n  sload\n  dup2\n  0xff\n  mul\n  not\n  and\n  swap1\n  dup4\n  0x02\n  dup2\n  gt\n  iszero\n  tag_5\n  jumpi\n  tag_6\n  tag_7\n  jump\t// in\ntag_6:\ntag_5:\n  mul\n  or\n  swap1\n  sstore\n  pop\n    /* \"NewLearning/First.sol\":537:540  100 */\n  0x64\n    /* \"NewLearning/First.sol\":524:540  int profit = 100 */\n  0x06\n  sstore\n    /* \"NewLearning/First.sol\":558:561  -50 */\n  0xffffffffffffffffffffffffffffffffffffffffffffffffffffffffffffffce\n    /* \"NewLearning/First.sol\":547:561  int loss = -50 */\n  0x07\n  sstore\n    /* \"NewLearning/First.sol\":692:702  msg.sender */\n  caller\n    /* \"NewLearning/First.sol\":676:702  address owner = msg.sender */\n  0x08\n  exp(0x0100, 0x00)\n  dup2\n  sload\n  dup2\n  0xffffffffffffffffffffffffffffffffffffffff\n  mul\n  not\n  and\n  swap1\n  dup4\n  0xffffffffffffffffffffffffffffffffffffffff\n  and\n  mul\n  or\n  swap1\n  sstore\n  pop\n    /* \"NewLearning/First.sol\":61:796  contract First{... */\n  callvalue\n  dup1\n  iszero\n  tag_8\n  jumpi\n  revert(0x00, 0x00)\ntag_8:\n  pop\n  jump(tag_9)\n    /* \"#utility.yul\":7:106   */\ntag_10:\n    /* \"#utility.yul\":59:65   */\n  0x00\n    /* \"#utility.yul\":93:98   */\n  dup2\n    /* \"#utility.yul\":87:99   */\n  mload\n    /* \"#utility.yul\":77:99   */\n  swap1\n  pop\n    /* \"#utility.yul\":7:106   */\n  swap2\n  swap1\n  pop\n  jump\t// out\n    /* \"#utility.yul\":112:292   */\ntag_11:\n    /* \"#utility.yul\":160:237   */\n  0x4e487b7100000000000000000000000000000000000000000000000000000000\n    /* \"#utility.yul\":157:158   */\n  0x00\n    /* \"#utility.yul\":150:238   */\n  mstore\n    /* \"#utility.yul\":257:261   */\n  0x41\n    /* \"#utility.yul\":254:255   */\n  0x04\n    /* \"#utility.yul\":247:262   */\n  mstore\n    /* \"#utility.yul\":281:285   */\n  0x24\n    /* \"#utility.yul\":278:279   */\n  0x00\n    /* \"#utility.yul\":271:286   */\n  revert\n    /* \"#utility.yul\":298:478   */\ntag_12:\n    /* \"#utility.yul\":346:423   */\n  0x4e487b7100000000000000000000000000000000000000000000000000000000\n    /* \"#utility.yul\":343:344   */\n  0x00\n    /* \"#utility.yul\":336:424   */\n  mstore\n    /* \"#utility.yul\":443:447   */\n  0x22\n    /* \"#utility.yul\":440:441   */\n  0x04\n    /* \"#utility.yul\":433:448   */\n  mstore\n    /* \"#utility.yul\":467:471   */\n  0x24\n    /* \"#utility.yul\":464:465   */\n  0x00\n    /* \"#utility.yul\":457:472   */\n  revert\n    /* \"#utility.yul\":484:804   */\ntag_13:\n    /* \"#utility.yul\":528:534   */\n  0x00\n    /* \"#utility.yul\":565:566   */\n  0x02\n    /* \"#utility.yul\":559:563   */\n  dup3\n    /* \"#utility.yul\":555:567   */\n  div\n    /* \"#utility.yul\":545:567   */\n  swap1\n  pop\n    /* \"#utility.yul\":612:613   */\n  0x01\n    /* \"#utility.yul\":606:610   */\n  dup3\n    /* \"#utility.yul\":602:614   */\n  and\n    /* \"#utility.yul\":633:651   */\n  dup1\n    /* \"#utility.yul\":623:704   */\n  tag_35\n  jumpi\n    /* \"#utility.yul\":689:693   */\n  0x7f\n    /* \"#utility.yul\":681:687   */\n  dup3\n    /* \"#utility.yul\":677:694   */\n  and\n    /* \"#utility.yul\":667:694   */\n  swap2\n  pop\n    /* \"#utility.yul\":623:704   */\ntag_35:\n    /* \"#utility.yul\":751:753   */\n  0x20\n    /* \"#utility.yul\":743:749   */\n  dup3\n    /* \"#utility.yul\":740:754   */\n  lt\n    /* \"#utility.yul\":720:738   */\n  dup2\n    /* \"#utility.yul\":717:755   */\n  sub\n    /* \"#utility.yul\":714:798   */\n  tag_36\n  jumpi\n    /* \"#utility.yul\":770:788   */\n  tag_37\n  tag_12\n  jump\t// in\ntag_37:\n    /* \"#utility.yul\":714:798   */\ntag_36:\n    /* \"#utility.yul\":535:804   */\n  pop\n    /* \"#utility.yul\":484:804   */\n  swap2\n  swap1\n  pop\n  jump\t// out\n    /* \"#utility.yul\":810:951   */\ntag_14:\n    /* \"#utility.yul\":859:863   */\n  0x00\n    /* \"#utility.yul\":882:885   */\n  dup2\n    /* \"#utility.yul\":874:885   */\n  swap1\n  pop\n    /* \"#utility.yul\":905:908   */\n  dup2\n    /* \"#utility.yul\":902:903   */\n  0x00\n    /* \"#utility.yul\":895:909   */\n  mstore\n    /* \"#utility.yul\":939:943   */\n  0x20\n    /* \"#utility.yul\":936:937   */\n  0x00\n    /* \"#utility.yul\":926:944   */\n  keccak256\n    /* \"#utility.yul\":918:944   */\n  swap1\n  pop\n    /* \"#utility.yul\":810:951   */\n  swap2\n  swap1\n  pop\n  jump\t// out\n    /* \"#utility.yul\":957:1050   */\ntag_15:\n    /* \"#utility.yul\":994:1000   */\n  0x00\n    /* \"#utility.yul\":1041:1043   */\n  0x20\n    /* \"#utility.yul\":1036:1038   */\n  0x1f\n    /* \"#utility.yul\":1029:1034   */\n  dup4\n    /* \"#utility.yul\":1025:1039   */\n  add\n    /* \"#utility.yul\":1021:1044   */\n  div\n    /* \"#utility.yul\":1011:1044   */\n  swap1\n  pop\n    /* \"#utility.yul\":957:1050   */\n  swap2\n  swap1\n  pop\n  jump\t// out\n    /* \"#utility.yul\":1056:1163   */\ntag_16:\n    /* \"#utility.yul\":1100:1108   */\n  0x00\n    /* \"#utility.yul\":1150:1155   */\n  dup3\n    /* \"#utility.yul\":1144:1148   */\n  dup3\n    /* \"#utility.yul\":1140:1156   */\n  shl\n    /* \"#utility.yul\":1119:1156   */\n  swap1\n  pop\n    /* \"#utility.yul\":1056:1163   */\n  swap3\n  swap2\n  pop\n  pop\n  jump\t// out\n    /* \"#utility.yul\":1169:1562   */\ntag_17:\n    /* \"#utility.yul\":1238:1244   */\n  0x00\n    /* \"#utility.yul\":1288:1289   */\n  0x08\n    /* \"#utility.yul\":1276:1286   */\n  dup4\n    /* \"#utility.yul\":1272:1290   */\n  mul\n    /* \"#utility.yul\":1311:1408   */\n  tag_42\n    /* \"#utility.yul\":1341:1407   */\n  0xffffffffffffffffffffffffffffffffffffffffffffffffffffffffffffffff\n    /* \"#utility.yul\":1330:1339   */\n  dup3\n    /* \"#utility.yul\":1311:1408   */\n  tag_16\n  jump\t// in\ntag_42:\n    /* \"#utility.yul\":1429:1468   */\n  tag_43\n    /* \"#utility.yul\":1459:1467   */\n  dup7\n    /* \"#utility.yul\":1448:1457   */\n  dup4\n    /* \"#utility.yul\":1429:1468   */\n  tag_16\n  jump\t// in\ntag_43:\n    /* \"#utility.yul\":1417:1468   */\n  swap6\n  pop\n    /* \"#utility.yul\":1501:1505   */\n  dup1\n    /* \"#utility.yul\":1497:1506   */\n  not\n    /* \"#utility.yul\":1490:1495   */\n  dup5\n    /* \"#utility.yul\":1486:1507   */\n  and\n    /* \"#utility.yul\":1477:1507   */\n  swap4\n  pop\n    /* \"#utility.yul\":1550:1554   */\n  dup1\n    /* \"#utility.yul\":1540:1548   */\n  dup7\n    /* \"#utility.yul\":1536:1555   */\n  and\n    /* \"#utility.yul\":1529:1534   */\n  dup5\n    /* \"#utility.yul\":1526:1556   */\n  or\n    /* \"#utility.yul\":1516:1556   */\n  swap3\n  pop\n    /* \"#utility.yul\":1245:1562   */\n  pop\n  pop\n    /* \"#utility.yul\":1169:1562   */\n  swap4\n  swap3\n  pop\n  pop\n  pop\n  jump\t// out\n    /* \"#utility.yul\":1568:1645   */\ntag_18:\n    /* \"#utility.yul\":1605:1612   */\n  0x00\n    /* \"#utility.yul\":1634:1639   */\n  dup2\n    /* \"#utility.yul\":1623:1639   */\n  swap1\n  pop\n    /* \"#utility.yul\":1568:1645   */\n  swap2\n  swap1\n  pop\n  jump\t// out\n    /* \"#utility.yul\":1651:1711   */\ntag_19:\n    /* \"#utility.yul\":1679:1682   */\n  0x00\n    /* \"#utility.yul\":1700:1705   */\n  dup2\n    /* \"#utility.yul\":1693:1705   */\n  swap1\n  pop\n    /* \"#utility.yul\":1651:1711   */\n  swap2\n  swap1\n  pop\n  jump\t// out\n    /* \"#utility.yul\":1717:1859   */\ntag_20:\n    /* \"#utility.yul\":1767:1776   */\n  0x00\n    /* \"#utility.yul\":1800:1853   */\n  tag_47\n    /* \"#utility.yul\":1818:1852   */\n  tag_48\n    /* \"#utility.yul\":1827:1851   */\n  tag_49\n    /* \"#utility.yul\":1845:1850   */\n  dup5\n    /* \"#utility.yul\":1827:1851   */\n  tag_18\n  jump\t// in\ntag_49:\n    /* \"#utility.yul\":1818:1852   */\n  tag_19\n  jump\t// in\ntag_48:\n    /* \"#utility.yul\":1800:1853   */\n  tag_18\n  jump\t// in\ntag_47:\n    /* \"#utility.yul\":1787:1853   */\n  swap1\n  pop\n    /* \"#utility.yul\":1717:1859   */\n  swap2\n  swap1\n  pop\n  jump\t// out\n    /* \"#utility.yul\":1865:1940   */\ntag_21:\n    /* \"#utility.yul\":1908:1911   */\n  0x00\n    /* \"#utility.yul\":1929:1934   */\n  dup2\n    /* \"#utility.yul\":1922:1934   */\n  swap1\n  pop\n    /* \"#utility.yul\":1865:1940   */\n  swap2\n  swap1\n  pop\n  jump\t// out\n    /* \"#utility.yul\":1946:2215   */\ntag_22:\n    /* \"#utility.yul\":2056:2095   */\n  tag_52\n    /* \"#utility.yul\":2087:2094   */\n  dup4\n    /* \"#utility.yul\":2056:2095   */\n  tag_20\n  jump\t// in\ntag_52:\n    /* \"#utility.yul\":2117:2208   */\n  tag_53\n    /* \"#utility.yul\":2166:2207   */\n  tag_54\n    /* \"#utility.yul\":2190:2206   */\n  dup3\n    /* \"#utility.yul\":2166:2207   */\n  tag_21\n  jump\t// in\ntag_54:\n    /* \"#utility.yul\":2158:2164   */\n  dup5\n    /* \"#utility.yul\":2151:2155   */\n  dup5\n    /* \"#utility.yul\":2145:2156   */\n  sload\n    /* \"#utility.yul\":2117:2208   */\n  tag_17\n  jump\t// in\ntag_53:\n    /* \"#utility.yul\":2111:2115   */\n  dup3\n    /* \"#utility.yul\":2104:2209   */\n  sstore\n    /* \"#utility.yul\":2022:2215   */\n  pop\n    /* \"#utility.yul\":1946:2215   */\n  pop\n  pop\n  pop\n  jump\t// out\n    /* \"#utility.yul\":2221:2294   */\ntag_23:\n    /* \"#utility.yul\":2266:2269   */\n  0x00\n    /* \"#utility.yul\":2287:2288   */\n  0x00\n    /* \"#utility.yul\":2280:2288   */\n  swap1\n  pop\n    /* \"#utility.yul\":2221:2294   */\n  swap1\n  jump\t// out\n    /* \"#utility.yul\":2300:2489   */\ntag_24:\n    /* \"#utility.yul\":2377:2409   */\n  tag_57\n  tag_23\n  jump\t// in\ntag_57:\n    /* \"#utility.yul\":2418:2483   */\n  tag_58\n    /* \"#utility.yul\":2476:2482   */\n  dup2\n    /* \"#utility.yul\":2468:2474   */\n  dup5\n    /* \"#utility.yul\":2462:2466   */\n  dup5\n    /* \"#utility.yul\":2418:2483   */\n  tag_22\n  jump\t// in\ntag_58:\n    /* \"#utility.yul\":2353:2489   */\n  pop\n    /* \"#utility.yul\":2300:2489   */\n  pop\n  pop\n  jump\t// out\n    /* \"#utility.yul\":2495:2681   */\ntag_25:\n    /* \"#utility.yul\":2555:2675   */\ntag_60:\n    /* \"#utility.yul\":2572:2575   */\n  dup2\n    /* \"#utility.yul\":2565:2570   */\n  dup2\n    /* \"#utility.yul\":2562:2576   */\n  lt\n    /* \"#utility.yul\":2555:2675   */\n  iszero\n  tag_62\n  jumpi\n    /* \"#utility.yul\":2626:2665   */\n  tag_63\n    /* \"#utility.yul\":2663:2664   */\n  0x00\n    /* \"#utility.yul\":2656:2661   */\n  dup3\n    /* \"#utility.yul\":2626:2665   */\n  tag_24\n  jump\t// in\ntag_63:\n    /* \"#utility.yul\":2599:2600   */\n  0x01\n    /* \"#utility.yul\":2592:2597   */\n  dup2\n    /* \"#utility.yul\":2588:2601   */\n  add\n    /* \"#utility.yul\":2579:2601   */\n  swap1\n  pop\n    /* \"#utility.yul\":2555:2675   */\n  jump(tag_60)\ntag_62:\n    /* \"#utility.yul\":2495:2681   */\n  pop\n  pop\n  jump\t// out\n    /* \"#utility.yul\":2687:3230   */\ntag_26:\n    /* \"#utility.yul\":2788:2790   */\n  0x1f\n    /* \"#utility.yul\":2783:2786   */\n  dup3\n    /* \"#utility.yul\":2780:2791   */\n  gt\n    /* \"#utility.yul\":2777:3223   */\n  iszero\n  tag_65\n  jumpi\n    /* \"#utility.yul\":2822:2860   */\n  tag_66\n    /* \"#utility.yul\":2854:2859   */\n  dup2\n    /* \"#utility.yul\":2822:2860   */\n  tag_14\n  jump\t// in\ntag_66:\n    /* \"#utility.yul\":2906:2935   */\n  tag_67\n    /* \"#utility.yul\":2924:2934   */\n  dup5\n    /* \"#utility.yul\":2906:2935   */\n  tag_15\n  jump\t// in\ntag_67:\n    /* \"#utility.yul\":2896:2904   */\n  dup2\n    /* \"#utility.yul\":2892:2936   */\n  add\n    /* \"#utility.yul\":3089:3091   */\n  0x20\n    /* \"#utility.yul\":3077:3087   */\n  dup6\n    /* \"#utility.yul\":3074:3092   */\n  lt\n    /* \"#utility.yul\":3071:3120   */\n  iszero\n  tag_68\n  jumpi\n    /* \"#utility.yul\":3110:3118   */\n  dup2\n    /* \"#utility.yul\":3095:3118   */\n  swap1\n  pop\n    /* \"#utility.yul\":3071:3120   */\ntag_68:\n    /* \"#utility.yul\":3133:3213   */\n  tag_69\n    /* \"#utility.yul\":3189:3211   */\n  tag_70\n    /* \"#utility.yul\":3207:3210   */\n  dup6\n    /* \"#utility.yul\":3189:3211   */\n  tag_15\n  jump\t// in\ntag_70:\n    /* \"#utility.yul\":3179:3187   */\n  dup4\n    /* \"#utility.yul\":3175:3212   */\n  add\n    /* \"#utility.yul\":3162:3173   */\n  dup3\n    /* \"#utility.yul\":3133:3213   */\n  tag_25\n  jump\t// in\ntag_69:\n    /* \"#utility.yul\":2792:3223   */\n  pop\n  pop\n    /* \"#utility.yul\":2777:3223   */\ntag_65:\n    /* \"#utility.yul\":2687:3230   */\n  pop\n  pop\n  pop\n  jump\t// out\n    /* \"#utility.yul\":3236:3353   */\ntag_27:\n    /* \"#utility.yul\":3290:3298   */\n  0x00\n    /* \"#utility.yul\":3340:3345   */\n  dup3\n    /* \"#utility.yul\":3334:3338   */\n  dup3\n    /* \"#utility.yul\":3330:3346   */\n  shr\n    /* \"#utility.yul\":3309:3346   */\n  swap1\n  pop\n    /* \"#utility.yul\":3236:3353   */\n  swap3\n  swap2\n  pop\n  pop\n  jump\t// out\n    /* \"#utility.yul\":3359:3528   */\ntag_28:\n    /* \"#utility.yul\":3403:3409   */\n  0x00\n    /* \"#utility.yul\":3436:3487   */\n  tag_73\n    /* \"#utility.yul\":3484:3485   */\n  0x00\n    /* \"#utility.yul\":3480:3486   */\n  not\n    /* \"#utility.yul\":3472:3477   */\n  dup5\n    /* \"#utility.yul\":3469:3470   */\n  0x08\n    /* \"#utility.yul\":3465:3478   */\n  mul\n    /* \"#utility.yul\":3436:3487   */\n  tag_27\n  jump\t// in\ntag_73:\n    /* \"#utility.yul\":3432:3488   */\n  not\n    /* \"#utility.yul\":3517:3521   */\n  dup1\n    /* \"#utility.yul\":3511:3515   */\n  dup4\n    /* \"#utility.yul\":3507:3522   */\n  and\n    /* \"#utility.yul\":3497:3522   */\n  swap2\n  pop\n    /* \"#utility.yul\":3410:3528   */\n  pop\n    /* \"#utility.yul\":3359:3528   */\n  swap3\n  swap2\n  pop\n  pop\n  jump\t// out\n    /* \"#utility.yul\":3533:3828   */\ntag_29:\n    /* \"#utility.yul\":3609:3613   */\n  0x00\n    /* \"#utility.yul\":3755:3784   */\n  tag_75\n    /* \"#utility.yul\":3780:3783   */\n  dup4\n    /* \"#utility.yul\":3774:3778   */\n  dup4\n    /* \"#utility.yul\":3755:3784   */\n  tag_28\n  jump\t// in\ntag_75:\n    /* \"#utility.yul\":3747:3784   */\n  swap2\n  pop\n    /* \"#utility.yul\":3817:3820   */\n  dup3\n    /* \"#utility.yul\":3814:3815   */\n  0x02\n    /* \"#utility.yul\":3810:3821   */\n  mul\n    /* \"#utility.yul\":3804:3808   */\n  dup3\n    /* \"#utility.yul\":3801:3822   */\n  or\n    /* \"#utility.yul\":3793:3822   */\n  swap1\n  pop\n    /* \"#utility.yul\":3533:3828   */\n  swap3\n  swap2\n  pop\n  pop\n  jump\t// out\n    /* \"#utility.yul\":3833:5228   */\ntag_2:\n    /* \"#utility.yul\":3950:3987   */\n  tag_77\n    /* \"#utility.yul\":3983:3986   */\n  dup3\n    /* \"#utility.yul\":3950:3987   */\n  tag_10\n  jump\t// in\ntag_77:\n    /* \"#utility.yul\":4052:4070   */\n  0xffffffffffffffff\n    /* \"#utility.yul\":4044:4050   */\n  dup2\n    /* \"#utility.yul\":4041:4071   */\n  gt\n    /* \"#utility.yul\":4038:4094   */\n  iszero\n  tag_78\n  jumpi\n    /* \"#utility.yul\":4074:4092   */\n  tag_79\n  tag_11\n  jump\t// in\ntag_79:\n    /* \"#utility.yul\":4038:4094   */\ntag_78:\n    /* \"#utility.yul\":4118:4156   */\n  tag_80\n    /* \"#utility.yul\":4150:4154   */\n  dup3\n    /* \"#utility.yul\":4144:4155   */\n  sload\n    /* \"#utility.yul\":4118:4156   */\n  tag_13\n  jump\t// in\ntag_80:\n    /* \"#utility.yul\":4203:4270   */\n  tag_81\n    /* \"#utility.yul\":4263:4269   */\n  dup3\n    /* \"#utility.yul\":4255:4261   */\n  dup3\n    /* \"#utility.yul\":4249:4253   */\n  dup6\n    /* \"#utility.yul\":4203:4270   */\n  tag_26\n  jump\t// in\ntag_81:\n    /* \"#utility.yul\":4297:4298   */\n  0x00\n    /* \"#utility.yul\":4321:4325   */\n  0x20\n    /* \"#utility.yul\":4308:4325   */\n  swap1\n  pop\n    /* \"#utility.yul\":4353:4355   */\n  0x1f\n    /* \"#utility.yul\":4345:4351   */\n  dup4\n    /* \"#utility.yul\":4342:4356   */\n  gt\n    /* \"#utility.yul\":4370:4371   */\n  0x01\n    /* \"#utility.yul\":4365:4983   */\n  dup2\n  eq\n  tag_83\n  jumpi\n    /* \"#utility.yul\":5027:5028   */\n  0x00\n    /* \"#utility.yul\":5044:5050   */\n  dup5\n    /* \"#utility.yul\":5041:5118   */\n  iszero\n  tag_84\n  jumpi\n    /* \"#utility.yul\":5093:5102   */\n  dup3\n    /* \"#utility.yul\":5088:5091   */\n  dup8\n    /* \"#utility.yul\":5084:5103   */\n  add\n    /* \"#utility.yul\":5078:5104   */\n  mload\n    /* \"#utility.yul\":5069:5104   */\n  swap1\n  pop\n    /* \"#utility.yul\":5041:5118   */\ntag_84:\n    /* \"#utility.yul\":5144:5211   */\n  tag_85\n    /* \"#utility.yul\":5204:5210   */\n  dup6\n    /* \"#utility.yul\":5197:5202   */\n  dup3\n    /* \"#utility.yul\":5144:5211   */\n  tag_29\n  jump\t// in\ntag_85:\n    /* \"#utility.yul\":5138:5142   */\n  dup7\n    /* \"#utility.yul\":5131:5212   */\n  sstore\n    /* \"#utility.yul\":5000:5222   */\n  pop\n    /* \"#utility.yul\":4335:5222   */\n  jump(tag_82)\n    /* \"#utility.yul\":4365:4983   */\ntag_83:\n    /* \"#utility.yul\":4417:4421   */\n  0x1f\n    /* \"#utility.yul\":4413:4422   */\n  not\n    /* \"#utility.yul\":4405:4411   */\n  dup5\n    /* \"#utility.yul\":4401:4423   */\n  and\n    /* \"#utility.yul\":4451:4488   */\n  tag_86\n    /* \"#utility.yul\":4483:4487   */\n  dup7\n    /* \"#utility.yul\":4451:4488   */\n  tag_14\n  jump\t// in\ntag_86:\n    /* \"#utility.yul\":4510:4511   */\n  0x00\n    /* \"#utility.yul\":4524:4732   */\ntag_87:\n    /* \"#utility.yul\":4538:4545   */\n  dup3\n    /* \"#utility.yul\":4535:4536   */\n  dup2\n    /* \"#utility.yul\":4532:4546   */\n  lt\n    /* \"#utility.yul\":4524:4732   */\n  iszero\n  tag_89\n  jumpi\n    /* \"#utility.yul\":4617:4626   */\n  dup5\n    /* \"#utility.yul\":4612:4615   */\n  dup10\n    /* \"#utility.yul\":4608:4627   */\n  add\n    /* \"#utility.yul\":4602:4628   */\n  mload\n    /* \"#utility.yul\":4594:4600   */\n  dup3\n    /* \"#utility.yul\":4587:4629   */\n  sstore\n    /* \"#utility.yul\":4668:4669   */\n  0x01\n    /* \"#utility.yul\":4660:4666   */\n  dup3\n    /* \"#utility.yul\":4656:4670   */\n  add\n    /* \"#utility.yul\":4646:4670   */\n  swap2\n  pop\n    /* \"#utility.yul\":4715:4717   */\n  0x20\n    /* \"#utility.yul\":4704:4713   */\n  dup6\n    /* \"#utility.yul\":4700:4718   */\n  add\n    /* \"#utility.yul\":4687:4718   */\n  swap5\n  pop\n    /* \"#utility.yul\":4561:4565   */\n  0x20\n    /* \"#utility.yul\":4558:4559   */\n  dup2\n    /* \"#utility.yul\":4554:4566   */\n  add\n    /* \"#utility.yul\":4549:4566   */\n  swap1\n  pop\n    /* \"#utility.yul\":4524:4732   */\n  jump(tag_87)\ntag_89:\n    /* \"#utility.yul\":4760:4766   */\n  dup7\n    /* \"#utility.yul\":4751:4758   */\n  dup4\n    /* \"#utility.yul\":4748:4767   */\n  lt\n    /* \"#utility.yul\":4745:4924   */\n  iszero\n  tag_90\n  jumpi\n    /* \"#utility.yul\":4818:4827   */\n  dup5\n    /* \"#utility.yul\":4813:4816   */\n  dup10\n    /* \"#utility.yul\":4809:4828   */\n  add\n    /* \"#utility.yul\":4803:4829   */\n  mload\n    /* \"#utility.yul\":4861:4909   */\n  tag_91\n    /* \"#utility.yul\":4903:4907   */\n  0x1f\n    /* \"#utility.yul\":4895:4901   */\n  dup10\n    /* \"#utility.yul\":4891:4908   */\n  and\n    /* \"#utility.yul\":4880:4889   */\n  dup3\n    /* \"#utility.yul\":4861:4909   */\n  tag_28\n  jump\t// in\ntag_91:\n    /* \"#utility.yul\":4853:4859   */\n  dup4\n    /* \"#utility.yul\":4846:4910   */\n  sstore\n    /* \"#utility.yul\":4768:4924   */\n  pop\n    /* \"#utility.yul\":4745:4924   */\ntag_90:\n    /* \"#utility.yul\":4970:4971   */\n  0x01\n    /* \"#utility.yul\":4966:4967   */\n  0x02\n    /* \"#utility.yul\":4958:4964   */\n  dup9\n    /* \"#utility.yul\":4954:4968   */\n  mul\n    /* \"#utility.yul\":4950:4972   */\n  add\n    /* \"#utility.yul\":4944:4948   */\n  dup9\n    /* \"#utility.yul\":4937:4973   */\n  sstore\n    /* \"#utility.yul\":4372:4983   */\n  pop\n  pop\n  pop\n    /* \"#utility.yul\":4335:5222   */\ntag_82:\n  pop\n    /* \"#utility.yul\":3925:5228   */\n  pop\n  pop\n  pop\n    /* \"#utility.yul\":3833:5228   */\n  pop\n  pop\n  jump\t// out\n    /* \"#utility.yul\":5234:5414   */\ntag_7:\n    /* \"#utility.yul\":5282:5359   */\n  0x4e487b7100000000000000000000000000000000000000000000000000000000\n    /* \"#utility.yul\":5279:5280   */\n  0x00\n    /* \"#utility.yul\":5272:5360   */\n  mstore\n    /* \"#utility.yul\":5379:5383   */\n  0x21\n    /* \"#utility.yul\":5376:5377   */\n  0x04\n    /* \"#utility.yul\":5369:5384   */\n  mstore\n    /* \"#utility.yul\":5403:5407   */\n  0x24\n    /* \"#utility.yul\":5400:5401   */\n  0x00\n    /* \"#utility.yul\":5393:5408   */\n  revert\n    /* \"NewLearning/First.sol\":61:796  contract First{... */\ntag_9:\n  dataSize(sub_0)\n  dup1\n  dataOffset(sub_0)\n  0x00\n  codecopy\n  0x00\n  return\nstop\n\nsub_0: assembly {\n        /* \"NewLearning/First.sol\":61:796  contract First{... */\n      mstore(0x40, 0x80)\n      callvalue\n      dup1\n      iszero\n      tag_1\n      jumpi\n      revert(0x00, 0x00)\n    tag_1:\n      pop\n      jumpi(tag_2, lt(calldatasize, 0x04))\n      shr(0xe0, calldataload(0x00))\n      dup1\n      0x38cc4831\n      gt\n      tag_10\n      jumpi\n      dup1\n      0x38cc4831\n      eq\n      tag_6\n      jumpi\n      dup1\n      0x4f2be91f\n      eq\n      tag_7\n      jumpi\n      dup1\n      0x632a9a52\n      eq\n      tag_8\n      jumpi\n      dup1\n      0xd02982cf\n      eq\n      tag_9\n      jumpi\n      jump(tag_2)\n    tag_10:\n      dup1\n      0x05a8da72\n      eq\n      tag_3\n      jumpi\n      dup1\n      0x06fdde03\n      eq\n      tag_4\n      jumpi\n      dup1\n      0x262a9dff\n      eq\n      tag_5\n      jumpi\n    tag_2:\n      revert(0x00, 0x00)\n        /* \"NewLearning/First.sol\":197:248  Book public book = Book(\"Mojai Moja\",\"Razibul\",100) */\n    tag_3:\n      tag_11\n      tag_12\n      jump\t// in\n    tag_11:\n      mload(0x40)\n      tag_13\n      swap4\n      swap3\n      swap2\n      swap1\n      tag_14\n      jump\t// in\n    tag_13:\n      mload(0x40)\n      dup1\n      swap2\n      sub\n      swap1\n      return\n        /* \"NewLearning/First.sol\":277:307  string public name = \"Razibul\" */\n    tag_4:\n      tag_15\n      tag_16\n      jump\t// in\n    tag_15:\n      mload(0x40)\n      tag_17\n      swap2\n      swap1\n      tag_18\n      jump\t// in\n    tag_17:\n      mload(0x40)\n      dup1\n      swap2\n      sub\n      swap1\n      return\n        /* \"NewLearning/First.sol\":314:337  uint256 public age = 22 */\n    tag_5:\n      tag_19\n      tag_20\n      jump\t// in\n    tag_19:\n      mload(0x40)\n      tag_21\n      swap2\n      swap1\n      tag_22\n      jump\t// in\n    tag_21:\n      mload(0x40)\n      dup1\n      swap2\n      sub\n      swap1\n      return\n        /* \"NewLearning/First.sol\":711:793  function getAddress() public view returns(address) {... */\n    tag_6:\n      tag_23\n      tag_24\n      jump\t// in\n    tag_23:\n      mload(0x40)\n      tag_25\n      swap2\n      swap1\n      tag_26\n      jump\t// in\n    tag_25:\n      mload(0x40)\n      dup1\n      swap2\n      sub\n      swap1\n      return\n        /* \"NewLearning/First.sol\":570:648  function add() public view returns(int){... */\n    tag_7:\n      tag_27\n      tag_28\n      jump\t// in\n    tag_27:\n      mload(0x40)\n      tag_29\n      swap2\n      swap1\n      tag_30\n      jump\t// in\n    tag_29:\n      mload(0x40)\n      dup1\n      swap2\n      sub\n      swap1\n      return\n        /* \"NewLearning/First.sol\":454:495  VoteStatus public vote = VoteStatus.Voted */\n    tag_8:\n      tag_31\n      tag_32\n      jump\t// in\n    tag_31:\n      mload(0x40)\n      tag_33\n      swap2\n      swap1\n      tag_34\n      jump\t// in\n    tag_33:\n      mload(0x40)\n      dup1\n      swap2\n      sub\n      swap1\n      return\n        /* \"NewLearning/First.sol\":344:371  bool public isMember = true */\n    tag_9:\n      tag_35\n      tag_36\n      jump\t// in\n    tag_35:\n      mload(0x40)\n      tag_37\n      swap2\n      swap1\n      tag_38\n      jump\t// in\n    tag_37:\n      mload(0x40)\n      dup1\n      swap2\n      sub\n      swap1\n      return\n        /* \"NewLearning/First.sol\":197:248  Book public book = Book(\"Mojai Moja\",\"Razibul\",100) */\n    tag_12:\n      0x00\n      dup1\n      0x00\n      add\n      dup1\n      sload\n      tag_39\n      swap1\n      tag_40\n      jump\t// in\n    tag_39:\n      dup1\n      0x1f\n      add\n      0x20\n      dup1\n      swap2\n      div\n      mul\n      0x20\n      add\n      mload(0x40)\n      swap1\n      dup2\n      add\n      0x40\n      mstore\n      dup1\n      swap3\n      swap2\n      swap1\n      dup2\n      dup2\n      mstore\n      0x20\n      add\n      dup3\n      dup1\n      sload\n      tag_41\n      swap1\n      tag_40\n      jump\t// in\n    tag_41:\n      dup1\n      iszero\n      tag_42\n      jumpi\n      dup1\n      0x1f\n      lt\n      tag_43\n      jumpi\n      0x0100\n      dup1\n      dup4\n      sload\n      div\n      mul\n      dup4\n      mstore\n      swap2\n      0x20\n      add\n      swap2\n      jump(tag_42)\n    tag_43:\n      dup3\n      add\n      swap2\n      swap1\n      0x00\n      mstore\n      keccak256(0x00, 0x20)\n      swap1\n    tag_44:\n      dup2\n      sload\n      dup2\n      mstore\n      swap1\n      0x01\n      add\n      swap1\n      0x20\n      add\n      dup1\n      dup4\n      gt\n      tag_44\n      jumpi\n      dup3\n      swap1\n      sub\n      0x1f\n      and\n      dup3\n      add\n      swap2\n    tag_42:\n      pop\n      pop\n      pop\n      pop\n      pop\n      swap1\n      dup1\n      0x01\n      add\n      dup1\n      sload\n      tag_45\n      swap1\n      tag_40\n      jump\t// in\n    tag_45:\n      dup1\n      0x1f\n      add\n      0x20\n      dup1\n      swap2\n      div\n      mul\n      0x20\n      add\n      mload(0x40)\n      swap1\n      dup2\n      add\n      0x40\n      mstore\n      dup1\n      swap3\n      swap2\n      swap1\n      dup2\n      dup2\n      mstore\n      0x20\n      add\n      dup3\n      dup1\n      sload\n      tag_46\n      swap1\n      tag_40\n      jump\t// in\n    tag_46:\n      dup1\n      iszero\n      tag_47\n      jumpi\n      dup1\n      0x1f\n      lt\n      tag_48\n      jumpi\n      0x0100\n      dup1\n      dup4\n      sload\n      div\n      mul\n      dup4\n      mstore\n      swap2\n      0x20\n      add\n      swap2\n      jump(tag_47)\n    tag_48:\n      dup3\n      add\n      swap2\n      swap1\n      0x00\n      mstore\n      keccak256(0x00, 0x20)\n      swap1\n    tag_49:\n      dup2\n      sload\n      dup2\n      mstore\n      swap1\n      0x01\n      add\n      swap1\n      0x20\n      add\n      dup1\n      dup4\n      gt\n      tag_49\n      jumpi\n      dup3\n      swap1\n      sub\n      0x1f\n      and\n      dup3\n      add\n      swap2\n    tag_47:\n      pop\n      pop\n      pop\n      pop\n      pop\n      swap1\n      dup1\n      0x02\n      add\n      sload\n      swap1\n      pop\n      dup4\n      jump\t// out\n        /* \"NewLearning/First.sol\":277:307  string public name = \"Razibul\" */\n    tag_16:\n      0x03\n      dup1\n      sload\n      tag_50\n      swap1\n      tag_40\n      jump\t// in\n    tag_50:\n      dup1\n      0x1f\n      add\n      0x20\n      dup1\n      swap2\n      div\n      mul\n      0x20\n      add\n      mload(0x40)\n      swap1\n      dup2\n      add\n      0x40\n      mstore\n      dup1\n      swap3\n      swap2\n      swap1\n      dup2\n      dup2\n      mstore\n      0x20\n      add\n      dup3\n      dup1\n      sload\n      tag_51\n      swap1\n      tag_40\n      jump\t// in\n    tag_51:\n      dup1\n      iszero\n      tag_52\n      jumpi\n      dup1\n      0x1f\n      lt\n      tag_53\n      jumpi\n      0x0100\n      dup1\n      dup4\n      sload\n      div\n      mul\n      dup4\n      mstore\n      swap2\n      0x20\n      add\n      swap2\n      jump(tag_52)\n    tag_53:\n      dup3\n      add\n      swap2\n      swap1\n      0x00\n      mstore\n      keccak256(0x00, 0x20)\n      swap1\n    tag_54:\n      dup2\n      sload\n      dup2\n      mstore\n      swap1\n      0x01\n      add\n      swap1\n      0x20\n      add\n      dup1\n      dup4\n      gt\n      tag_54\n      jumpi\n      dup3\n      swap1\n      sub\n      0x1f\n      and\n      dup3\n      add\n      swap2\n    tag_52:\n      pop\n      pop\n      pop\n      pop\n      pop\n      dup2\n      jump\t// out\n        /* \"NewLearning/First.sol\":314:337  uint256 public age = 22 */\n    tag_20:\n      sload(0x04)\n      dup2\n      jump\t// out\n        /* \"NewLearning/First.sol\":711:793  function getAddress() public view returns(address) {... */\n    tag_24:\n        /* \"NewLearning/First.sol\":753:760  address */\n      0x00\n        /* \"NewLearning/First.sol\":780:785  owner */\n      0x08\n      0x00\n      swap1\n      sload\n      swap1\n      0x0100\n      exp\n      swap1\n      div\n      0xffffffffffffffffffffffffffffffffffffffff\n      and\n        /* \"NewLearning/First.sol\":773:785  return owner */\n      swap1\n      pop\n        /* \"NewLearning/First.sol\":711:793  function getAddress() public view returns(address) {... */\n      swap1\n      jump\t// out\n        /* \"NewLearning/First.sol\":570:648  function add() public view returns(int){... */\n    tag_28:\n        /* \"NewLearning/First.sol\":605:608  int */\n      0x00\n        /* \"NewLearning/First.sol\":636:640  loss */\n      sload(0x07)\n        /* \"NewLearning/First.sol\":627:633  profit */\n      sload(0x06)\n        /* \"NewLearning/First.sol\":627:640  profit + loss */\n      tag_57\n      swap2\n      swap1\n      tag_58\n      jump\t// in\n    tag_57:\n        /* \"NewLearning/First.sol\":620:640  return profit + loss */\n      swap1\n      pop\n        /* \"NewLearning/First.sol\":570:648  function add() public view returns(int){... */\n      swap1\n      jump\t// out\n        /* \"NewLearning/First.sol\":454:495  VoteStatus public vote = VoteStatus.Voted */\n    tag_32:\n      0x05\n      0x01\n      swap1\n      sload\n      swap1\n      0x0100\n      exp\n      swap1\n      div\n      0xff\n      and\n      dup2\n      jump\t// out\n        /* \"NewLearning/First.sol\":344:371  bool public isMember = true */\n    tag_36:\n      0x05\n      0x00\n      swap1\n      sload\n      swap1\n      0x0100\n      exp\n      swap1\n      div\n      0xff\n      and\n      dup2\n      jump\t// out\n        /* \"#utility.yul\":7:106   */\n    tag_59:\n        /* \"#utility.yul\":59:65   */\n      0x00\n        /* \"#utility.yul\":93:98   */\n      dup2\n        /* \"#utility.yul\":87:99   */\n      mload\n        /* \"#utility.yul\":77:99   */\n      swap1\n      pop\n        /* \"#utility.yul\":7:106   */\n      swap2\n      swap1\n      pop\n      jump\t// out\n        /* \"#utility.yul\":112:281   */\n    tag_60:\n        /* \"#utility.yul\":196:207   */\n      0x00\n        /* \"#utility.yul\":230:236   */\n      dup3\n        /* \"#utility.yul\":225:228   */\n      dup3\n        /* \"#utility.yul\":218:237   */\n      mstore\n        /* \"#utility.yul\":270:274   */\n      0x20\n        /* \"#utility.yul\":265:268   */\n      dup3\n        /* \"#utility.yul\":261:275   */\n      add\n        /* \"#utility.yul\":246:275   */\n      swap1\n      pop\n        /* \"#utility.yul\":112:281   */\n      swap3\n      swap2\n      pop\n      pop\n      jump\t// out\n        /* \"#utility.yul\":287:426   */\n    tag_61:\n        /* \"#utility.yul\":376:382   */\n      dup3\n        /* \"#utility.yul\":371:374   */\n      dup2\n        /* \"#utility.yul\":366:369   */\n      dup4\n        /* \"#utility.yul\":360:383   */\n      mcopy\n        /* \"#utility.yul\":417:418   */\n      0x00\n        /* \"#utility.yul\":408:414   */\n      dup4\n        /* \"#utility.yul\":403:406   */\n      dup4\n        /* \"#utility.yul\":399:415   */\n      add\n        /* \"#utility.yul\":392:419   */\n      mstore\n        /* \"#utility.yul\":287:426   */\n      pop\n      pop\n      pop\n      jump\t// out\n        /* \"#utility.yul\":432:534   */\n    tag_62:\n        /* \"#utility.yul\":473:479   */\n      0x00\n        /* \"#utility.yul\":524:526   */\n      0x1f\n        /* \"#utility.yul\":520:527   */\n      not\n        /* \"#utility.yul\":515:517   */\n      0x1f\n        /* \"#utility.yul\":508:513   */\n      dup4\n        /* \"#utility.yul\":504:518   */\n      add\n        /* \"#utility.yul\":500:528   */\n      and\n        /* \"#utility.yul\":490:528   */\n      swap1\n      pop\n        /* \"#utility.yul\":432:534   */\n      swap2\n      swap1\n      pop\n      jump\t// out\n        /* \"#utility.yul\":540:917   */\n    tag_63:\n        /* \"#utility.yul\":628:631   */\n      0x00\n        /* \"#utility.yul\":656:695   */\n      tag_86\n        /* \"#utility.yul\":689:694   */\n      dup3\n        /* \"#utility.yul\":656:695   */\n      tag_59\n      jump\t// in\n    tag_86:\n        /* \"#utility.yul\":711:782   */\n      tag_87\n        /* \"#utility.yul\":775:781   */\n      dup2\n        /* \"#utility.yul\":770:773   */\n      dup6\n        /* \"#utility.yul\":711:782   */\n      tag_60\n      jump\t// in\n    tag_87:\n        /* \"#utility.yul\":704:782   */\n      swap4\n      pop\n        /* \"#utility.yul\":791:856   */\n      tag_88\n        /* \"#utility.yul\":849:855   */\n      dup2\n        /* \"#utility.yul\":844:847   */\n      dup6\n        /* \"#utility.yul\":837:841   */\n      0x20\n        /* \"#utility.yul\":830:835   */\n      dup7\n        /* \"#utility.yul\":826:842   */\n      add\n        /* \"#utility.yul\":791:856   */\n      tag_61\n      jump\t// in\n    tag_88:\n        /* \"#utility.yul\":881:910   */\n      tag_89\n        /* \"#utility.yul\":903:909   */\n      dup2\n        /* \"#utility.yul\":881:910   */\n      tag_62\n      jump\t// in\n    tag_89:\n        /* \"#utility.yul\":876:879   */\n      dup5\n        /* \"#utility.yul\":872:911   */\n      add\n        /* \"#utility.yul\":865:911   */\n      swap2\n      pop\n        /* \"#utility.yul\":632:917   */\n      pop\n        /* \"#utility.yul\":540:917   */\n      swap3\n      swap2\n      pop\n      pop\n      jump\t// out\n        /* \"#utility.yul\":923:1000   */\n    tag_64:\n        /* \"#utility.yul\":960:967   */\n      0x00\n        /* \"#utility.yul\":989:994   */\n      dup2\n        /* \"#utility.yul\":978:994   */\n      swap1\n      pop\n        /* \"#utility.yul\":923:1000   */\n      swap2\n      swap1\n      pop\n      jump\t// out\n        /* \"#utility.yul\":1006:1124   */\n    tag_65:\n        /* \"#utility.yul\":1093:1117   */\n      tag_92\n        /* \"#utility.yul\":1111:1116   */\n      dup2\n        /* \"#utility.yul\":1093:1117   */\n      tag_64\n      jump\t// in\n    tag_92:\n        /* \"#utility.yul\":1088:1091   */\n      dup3\n        /* \"#utility.yul\":1081:1118   */\n      mstore\n        /* \"#utility.yul\":1006:1124   */\n      pop\n      pop\n      jump\t// out\n        /* \"#utility.yul\":1130:1754   */\n    tag_14:\n        /* \"#utility.yul\":1319:1323   */\n      0x00\n        /* \"#utility.yul\":1357:1359   */\n      0x60\n        /* \"#utility.yul\":1346:1355   */\n      dup3\n        /* \"#utility.yul\":1342:1360   */\n      add\n        /* \"#utility.yul\":1334:1360   */\n      swap1\n      pop\n        /* \"#utility.yul\":1406:1415   */\n      dup2\n        /* \"#utility.yul\":1400:1404   */\n      dup2\n        /* \"#utility.yul\":1396:1416   */\n      sub\n        /* \"#utility.yul\":1392:1393   */\n      0x00\n        /* \"#utility.yul\":1381:1390   */\n      dup4\n        /* \"#utility.yul\":1377:1394   */\n      add\n        /* \"#utility.yul\":1370:1417   */\n      mstore\n        /* \"#utility.yul\":1434:1512   */\n      tag_94\n        /* \"#utility.yul\":1507:1511   */\n      dup2\n        /* \"#utility.yul\":1498:1504   */\n      dup7\n        /* \"#utility.yul\":1434:1512   */\n      tag_63\n      jump\t// in\n    tag_94:\n        /* \"#utility.yul\":1426:1512   */\n      swap1\n      pop\n        /* \"#utility.yul\":1559:1568   */\n      dup2\n        /* \"#utility.yul\":1553:1557   */\n      dup2\n        /* \"#utility.yul\":1549:1569   */\n      sub\n        /* \"#utility.yul\":1544:1546   */\n      0x20\n        /* \"#utility.yul\":1533:1542   */\n      dup4\n        /* \"#utility.yul\":1529:1547   */\n      add\n        /* \"#utility.yul\":1522:1570   */\n      mstore\n        /* \"#utility.yul\":1587:1665   */\n      tag_95\n        /* \"#utility.yul\":1660:1664   */\n      dup2\n        /* \"#utility.yul\":1651:1657   */\n      dup6\n        /* \"#utility.yul\":1587:1665   */\n      tag_63\n      jump\t// in\n    tag_95:\n        /* \"#utility.yul\":1579:1665   */\n      swap1\n      pop\n        /* \"#utility.yul\":1675:1747   */\n      tag_96\n        /* \"#utility.yul\":1743:1745   */\n      0x40\n        /* \"#utility.yul\":1732:1741   */\n      dup4\n        /* \"#utility.yul\":1728:1746   */\n      add\n        /* \"#utility.yul\":1719:1725   */\n      dup5\n        /* \"#utility.yul\":1675:1747   */\n      tag_65\n      jump\t// in\n    tag_96:\n        /* \"#utility.yul\":1130:1754   */\n      swap5\n      swap4\n      pop\n      pop\n      pop\n      pop\n      jump\t// out\n        /* \"#utility.yul\":1760:2073   */\n    tag_18:\n        /* \"#utility.yul\":1873:1877   */\n      0x00\n        /* \"#utility.yul\":1911:1913   */\n      0x20\n        /* \"#utility.yul\":1900:1909   */\n      dup3\n        /* \"#utility.yul\":1896:1914   */\n      add\n        /* \"#utility.yul\":1888:1914   */\n      swap1\n      pop\n        /* \"#utility.yul\":1960:1969   */\n      dup2\n        /* \"#utility.yul\":1954:1958   */\n      dup2\n        /* \"#utility.yul\":1950:1970   */\n      sub\n        /* \"#utility.yul\":1946:1947   */\n      0x00\n        /* \"#utility.yul\":1935:1944   */\n      dup4\n        /* \"#utility.yul\":1931:1948   */\n      add\n        /* \"#utility.yul\":1924:1971   */\n      mstore\n        /* \"#utility.yul\":1988:2066   */\n      tag_98\n        /* \"#utility.yul\":2061:2065   */\n      dup2\n        /* \"#utility.yul\":2052:2058   */\n      dup5\n        /* \"#utility.yul\":1988:2066   */\n      tag_63\n      jump\t// in\n    tag_98:\n        /* \"#utility.yul\":1980:2066   */\n      swap1\n      pop\n        /* \"#utility.yul\":1760:2073   */\n      swap3\n      swap2\n      pop\n      pop\n      jump\t// out\n        /* \"#utility.yul\":2079:2301   */\n    tag_22:\n        /* \"#utility.yul\":2172:2176   */\n      0x00\n        /* \"#utility.yul\":2210:2212   */\n      0x20\n        /* \"#utility.yul\":2199:2208   */\n      dup3\n        /* \"#utility.yul\":2195:2213   */\n      add\n        /* \"#utility.yul\":2187:2213   */\n      swap1\n      pop\n        /* \"#utility.yul\":2223:2294   */\n      tag_100\n        /* \"#utility.yul\":2291:2292   */\n      0x00\n        /* \"#utility.yul\":2280:2289   */\n      dup4\n        /* \"#utility.yul\":2276:2293   */\n      add\n        /* \"#utility.yul\":2267:2273   */\n      dup5\n        /* \"#utility.yul\":2223:2294   */\n      tag_65\n      jump\t// in\n    tag_100:\n        /* \"#utility.yul\":2079:2301   */\n      swap3\n      swap2\n      pop\n      pop\n      jump\t// out\n        /* \"#utility.yul\":2307:2433   */\n    tag_66:\n        /* \"#utility.yul\":2344:2351   */\n      0x00\n        /* \"#utility.yul\":2384:2426   */\n      0xffffffffffffffffffffffffffffffffffffffff\n        /* \"#utility.yul\":2377:2382   */\n      dup3\n        /* \"#utility.yul\":2373:2427   */\n      and\n        /* \"#utility.yul\":2362:2427   */\n      swap1\n      pop\n        /* \"#utility.yul\":2307:2433   */\n      swap2\n      swap1\n      pop\n      jump\t// out\n        /* \"#utility.yul\":2439:2535   */\n    tag_67:\n        /* \"#utility.yul\":2476:2483   */\n      0x00\n        /* \"#utility.yul\":2505:2529   */\n      tag_103\n        /* \"#utility.yul\":2523:2528   */\n      dup3\n        /* \"#utility.yul\":2505:2529   */\n      tag_66\n      jump\t// in\n    tag_103:\n        /* \"#utility.yul\":2494:2529   */\n      swap1\n      pop\n        /* \"#utility.yul\":2439:2535   */\n      swap2\n      swap1\n      pop\n      jump\t// out\n        /* \"#utility.yul\":2541:2659   */\n    tag_68:\n        /* \"#utility.yul\":2628:2652   */\n      tag_105\n        /* \"#utility.yul\":2646:2651   */\n      dup2\n        /* \"#utility.yul\":2628:2652   */\n      tag_67\n      jump\t// in\n    tag_105:\n        /* \"#utility.yul\":2623:2626   */\n      dup3\n        /* \"#utility.yul\":2616:2653   */\n      mstore\n        /* \"#utility.yul\":2541:2659   */\n      pop\n      pop\n      jump\t// out\n        /* \"#utility.yul\":2665:2887   */\n    tag_26:\n        /* \"#utility.yul\":2758:2762   */\n      0x00\n        /* \"#utility.yul\":2796:2798   */\n      0x20\n        /* \"#utility.yul\":2785:2794   */\n      dup3\n        /* \"#utility.yul\":2781:2799   */\n      add\n        /* \"#utility.yul\":2773:2799   */\n      swap1\n      pop\n        /* \"#utility.yul\":2809:2880   */\n      tag_107\n        /* \"#utility.yul\":2877:2878   */\n      0x00\n        /* \"#utility.yul\":2866:2875   */\n      dup4\n        /* \"#utility.yul\":2862:2879   */\n      add\n        /* \"#utility.yul\":2853:2859   */\n      dup5\n        /* \"#utility.yul\":2809:2880   */\n      tag_68\n      jump\t// in\n    tag_107:\n        /* \"#utility.yul\":2665:2887   */\n      swap3\n      swap2\n      pop\n      pop\n      jump\t// out\n        /* \"#utility.yul\":2893:2969   */\n    tag_69:\n        /* \"#utility.yul\":2929:2936   */\n      0x00\n        /* \"#utility.yul\":2958:2963   */\n      dup2\n        /* \"#utility.yul\":2947:2963   */\n      swap1\n      pop\n        /* \"#utility.yul\":2893:2969   */\n      swap2\n      swap1\n      pop\n      jump\t// out\n        /* \"#utility.yul\":2975:3090   */\n    tag_70:\n        /* \"#utility.yul\":3060:3083   */\n      tag_110\n        /* \"#utility.yul\":3077:3082   */\n      dup2\n        /* \"#utility.yul\":3060:3083   */\n      tag_69\n      jump\t// in\n    tag_110:\n        /* \"#utility.yul\":3055:3058   */\n      dup3\n        /* \"#utility.yul\":3048:3084   */\n      mstore\n        /* \"#utility.yul\":2975:3090   */\n      pop\n      pop\n      jump\t// out\n        /* \"#utility.yul\":3096:3314   */\n    tag_30:\n        /* \"#utility.yul\":3187:3191   */\n      0x00\n        /* \"#utility.yul\":3225:3227   */\n      0x20\n        /* \"#utility.yul\":3214:3223   */\n      dup3\n        /* \"#utility.yul\":3210:3228   */\n      add\n        /* \"#utility.yul\":3202:3228   */\n      swap1\n      pop\n        /* \"#utility.yul\":3238:3307   */\n      tag_112\n        /* \"#utility.yul\":3304:3305   */\n      0x00\n        /* \"#utility.yul\":3293:3302   */\n      dup4\n        /* \"#utility.yul\":3289:3306   */\n      add\n        /* \"#utility.yul\":3280:3286   */\n      dup5\n        /* \"#utility.yul\":3238:3307   */\n      tag_70\n      jump\t// in\n    tag_112:\n        /* \"#utility.yul\":3096:3314   */\n      swap3\n      swap2\n      pop\n      pop\n      jump\t// out\n        /* \"#utility.yul\":3320:3500   */\n    tag_71:\n        /* \"#utility.yul\":3368:3445   */\n      0x4e487b7100000000000000000000000000000000000000000000000000000000\n        /* \"#utility.yul\":3365:3366   */\n      0x00\n        /* \"#utility.yul\":3358:3446   */\n      mstore\n        /* \"#utility.yul\":3465:3469   */\n      0x21\n        /* \"#utility.yul\":3462:3463   */\n      0x04\n        /* \"#utility.yul\":3455:3470   */\n      mstore\n        /* \"#utility.yul\":3489:3493   */\n      0x24\n        /* \"#utility.yul\":3486:3487   */\n      0x00\n        /* \"#utility.yul\":3479:3494   */\n      revert\n        /* \"#utility.yul\":3506:3624   */\n    tag_72:\n        /* \"#utility.yul\":3592:3593   */\n      0x03\n        /* \"#utility.yul\":3585:3590   */\n      dup2\n        /* \"#utility.yul\":3582:3594   */\n      lt\n        /* \"#utility.yul\":3572:3618   */\n      tag_115\n      jumpi\n        /* \"#utility.yul\":3598:3616   */\n      tag_116\n      tag_71\n      jump\t// in\n    tag_116:\n        /* \"#utility.yul\":3572:3618   */\n    tag_115:\n        /* \"#utility.yul\":3506:3624   */\n      pop\n      jump\t// out\n        /* \"#utility.yul\":3630:3767   */\n    tag_73:\n        /* \"#utility.yul\":3680:3687   */\n      0x00\n        /* \"#utility.yul\":3709:3714   */\n      dup2\n        /* \"#utility.yul\":3698:3714   */\n      swap1\n      pop\n        /* \"#utility.yul\":3715:3761   */\n      tag_118\n        /* \"#utility.yul\":3755:3760   */\n      dup3\n        /* \"#utility.yul\":3715:3761   */\n      tag_72\n      jump\t// in\n    tag_118:\n        /* \"#utility.yul\":3630:3767   */\n      swap2\n      swap1\n      pop\n      jump\t// out\n        /* \"#utility.yul\":3773:3910   */\n    tag_74:\n        /* \"#utility.yul\":3834:3843   */\n      0x00\n        /* \"#utility.yul\":3867:3904   */\n      tag_120\n        /* \"#utility.yul\":3898:3903   */\n      dup3\n        /* \"#utility.yul\":3867:3904   */\n      tag_73\n      jump\t// in\n    tag_120:\n        /* \"#utility.yul\":3854:3904   */\n      swap1\n      pop\n        /* \"#utility.yul\":3773:3910   */\n      swap2\n      swap1\n      pop\n      jump\t// out\n        /* \"#utility.yul\":3916:4069   */\n    tag_75:\n        /* \"#utility.yul\":4014:4062   */\n      tag_122\n        /* \"#utility.yul\":4056:4061   */\n      dup2\n        /* \"#utility.yul\":4014:4062   */\n      tag_74\n      jump\t// in\n    tag_122:\n        /* \"#utility.yul\":4009:4012   */\n      dup3\n        /* \"#utility.yul\":4002:4063   */\n      mstore\n        /* \"#utility.yul\":3916:4069   */\n      pop\n      pop\n      jump\t// out\n        /* \"#utility.yul\":4075:4319   */\n    tag_34:\n        /* \"#utility.yul\":4179:4183   */\n      0x00\n        /* \"#utility.yul\":4217:4219   */\n      0x20\n        /* \"#utility.yul\":4206:4215   */\n      dup3\n        /* \"#utility.yul\":4202:4220   */\n      add\n        /* \"#utility.yul\":4194:4220   */\n      swap1\n      pop\n        /* \"#utility.yul\":4230:4312   */\n      tag_124\n        /* \"#utility.yul\":4309:4310   */\n      0x00\n        /* \"#utility.yul\":4298:4307   */\n      dup4\n        /* \"#utility.yul\":4294:4311   */\n      add\n        /* \"#utility.yul\":4285:4291   */\n      dup5\n        /* \"#utility.yul\":4230:4312   */\n      tag_75\n      jump\t// in\n    tag_124:\n        /* \"#utility.yul\":4075:4319   */\n      swap3\n      swap2\n      pop\n      pop\n      jump\t// out\n        /* \"#utility.yul\":4325:4415   */\n    tag_76:\n        /* \"#utility.yul\":4359:4366   */\n      0x00\n        /* \"#utility.yul\":4402:4407   */\n      dup2\n        /* \"#utility.yul\":4395:4408   */\n      iszero\n        /* \"#utility.yul\":4388:4409   */\n      iszero\n        /* \"#utility.yul\":4377:4409   */\n      swap1\n      pop\n        /* \"#utility.yul\":4325:4415   */\n      swap2\n      swap1\n      pop\n      jump\t// out\n        /* \"#utility.yul\":4421:4530   */\n    tag_77:\n        /* \"#utility.yul\":4502:4523   */\n      tag_127\n        /* \"#utility.yul\":4517:4522   */\n      dup2\n        /* \"#utility.yul\":4502:4523   */\n      tag_76\n      jump\t// in\n    tag_127:\n        /* \"#utility.yul\":4497:4500   */\n      dup3\n        /* \"#utility.yul\":4490:4524   */\n      mstore\n        /* \"#utility.yul\":4421:4530   */\n      pop\n      pop\n      jump\t// out\n        /* \"#utility.yul\":4536:4746   */\n    tag_38:\n        /* \"#utility.yul\":4623:4627   */\n      0x00\n        /* \"#utility.yul\":4661:4663   */\n      0x20\n        /* \"#utility.yul\":4650:4659   */\n      dup3\n        /* \"#utility.yul\":4646:4664   */\n      add\n        /* \"#utility.yul\":4638:4664   */\n      swap1\n      pop\n        /* \"#utility.yul\":4674:4739   */\n      tag_129\n        /* \"#utility.yul\":4736:4737   */\n      0x00\n        /* \"#utility.yul\":4725:4734   */\n      dup4\n        /* \"#utility.yul\":4721:4738   */\n      add\n        /* \"#utility.yul\":4712:4718   */\n      dup5\n        /* \"#utility.yul\":4674:4739   */\n      tag_77\n      jump\t// in\n    tag_129:\n        /* \"#utility.yul\":4536:4746   */\n      swap3\n      swap2\n      pop\n      pop\n      jump\t// out\n        /* \"#utility.yul\":4752:4932   */\n    tag_78:\n        /* \"#utility.yul\":4800:4877   */\n      0x4e487b7100000000000000000000000000000000000000000000000000000000\n        /* \"#utility.yul\":4797:4798   */\n      0x00\n        /* \"#utility.yul\":4790:4878   */\n      mstore\n        /* \"#utility.yul\":4897:4901   */\n      0x22\n        /* \"#utility.yul\":4894:4895   */\n      0x04\n        /* \"#utility.yul\":4887:4902   */\n      mstore\n        /* \"#utility.yul\":4921:4925   */\n      0x24\n        /* \"#utility.yul\":4918:4919   */\n      0x00\n        /* \"#utility.yul\":4911:4926   */\n      revert\n        /* \"#utility.yul\":4938:5258   */\n    tag_40:\n        /* \"#utility.yul\":4982:4988   */\n      0x00\n        /* \"#utility.yul\":5019:5020   */\n      0x02\n        /* \"#utility.yul\":5013:5017   */\n      dup3\n        /* \"#utility.yul\":5009:5021   */\n      div\n        /* \"#utility.yul\":4999:5021   */\n      swap1\n      pop\n        /* \"#utility.yul\":5066:5067   */\n      0x01\n        /* \"#utility.yul\":5060:5064   */\n      dup3\n        /* \"#utility.yul\":5056:5068   */\n      and\n        /* \"#utility.yul\":5087:5105   */\n      dup1\n        /* \"#utility.yul\":5077:5158   */\n      tag_132\n      jumpi\n        /* \"#utility.yul\":5143:5147   */\n      0x7f\n        /* \"#utility.yul\":5135:5141   */\n      dup3\n        /* \"#utility.yul\":5131:5148   */\n      and\n        /* \"#utility.yul\":5121:5148   */\n      swap2\n      pop\n        /* \"#utility.yul\":5077:5158   */\n    tag_132:\n        /* \"#utility.yul\":5205:5207   */\n      0x20\n        /* \"#utility.yul\":5197:5203   */\n      dup3\n        /* \"#utility.yul\":5194:5208   */\n      lt\n        /* \"#utility.yul\":5174:5192   */\n      dup2\n        /* \"#utility.yul\":5171:5209   */\n      sub\n        /* \"#utility.yul\":5168:5252   */\n      tag_133\n      jumpi\n        /* \"#utility.yul\":5224:5242   */\n      tag_134\n      tag_78\n      jump\t// in\n    tag_134:\n        /* \"#utility.yul\":5168:5252   */\n    tag_133:\n        /* \"#utility.yul\":4989:5258   */\n      pop\n        /* \"#utility.yul\":4938:5258   */\n      swap2\n      swap1\n      pop\n      jump\t// out\n        /* \"#utility.yul\":5264:5444   */\n    tag_79:\n        /* \"#utility.yul\":5312:5389   */\n      0x4e487b7100000000000000000000000000000000000000000000000000000000\n        /* \"#utility.yul\":5309:5310   */\n      0x00\n        /* \"#utility.yul\":5302:5390   */\n      mstore\n        /* \"#utility.yul\":5409:5413   */\n      0x11\n        /* \"#utility.yul\":5406:5407   */\n      0x04\n        /* \"#utility.yul\":5399:5414   */\n      mstore\n        /* \"#utility.yul\":5433:5437   */\n      0x24\n        /* \"#utility.yul\":5430:5431   */\n      0x00\n        /* \"#utility.yul\":5423:5438   */\n      revert\n        /* \"#utility.yul\":5450:5825   */\n    tag_58:\n        /* \"#utility.yul\":5489:5492   */\n      0x00\n        /* \"#utility.yul\":5508:5527   */\n      tag_137\n        /* \"#utility.yul\":5525:5526   */\n      dup3\n        /* \"#utility.yul\":5508:5527   */\n      tag_69\n      jump\t// in\n    tag_137:\n        /* \"#utility.yul\":5503:5527   */\n      swap2\n      pop\n        /* \"#utility.yul\":5541:5560   */\n      tag_138\n        /* \"#utility.yul\":5558:5559   */\n      dup4\n        /* \"#utility.yul\":5541:5560   */\n      tag_69\n      jump\t// in\n    tag_138:\n        /* \"#utility.yul\":5536:5560   */\n      swap3\n      pop\n        /* \"#utility.yul\":5583:5584   */\n      dup3\n        /* \"#utility.yul\":5580:5581   */\n      dup3\n        /* \"#utility.yul\":5576:5585   */\n      add\n        /* \"#utility.yul\":5569:5585   */\n      swap1\n      pop\n        /* \"#utility.yul\":5781:5782   */\n      dup3\n        /* \"#utility.yul\":5776:5779   */\n      dup2\n        /* \"#utility.yul\":5772:5783   */\n      slt\n        /* \"#utility.yul\":5765:5784   */\n      iszero\n        /* \"#utility.yul\":5761:5762   */\n      0x00\n        /* \"#utility.yul\":5758:5759   */\n      dup4\n        /* \"#utility.yul\":5754:5763   */\n      slt\n        /* \"#utility.yul\":5750:5785   */\n      and\n        /* \"#utility.yul\":5733:5734   */\n      dup4\n        /* \"#utility.yul\":5728:5731   */\n      dup3\n        /* \"#utility.yul\":5724:5735   */\n      slt\n        /* \"#utility.yul\":5719:5720   */\n      0x00\n        /* \"#utility.yul\":5716:5717   */\n      dup5\n        /* \"#utility.yul\":5712:5721   */\n      slt\n        /* \"#utility.yul\":5705:5722   */\n      iszero\n        /* \"#utility.yul\":5701:5736   */\n      and\n        /* \"#utility.yul\":5685:5795   */\n      or\n        /* \"#utility.yul\":5682:5818   */\n      iszero\n      tag_139\n      jumpi\n        /* \"#utility.yul\":5798:5816   */\n      tag_140\n      tag_79\n      jump\t// in\n    tag_140:\n        /* \"#utility.yul\":5682:5818   */\n    tag_139:\n        /* \"#utility.yul\":5450:5825   */\n      swap3\n      swap2\n      pop\n      pop\n      jump\t// out\n\n    auxdata: 0xa2646970667358221220a0f06f93ebdb7eff6b391e976e9a7b755491e0f96a5ef55caf0a97e6102b5b0e64736f6c634300081d0033\n}\n",
				"bytecode": {
					"linkReferences": {},
					"object": "608060405260405180606001604052806040518060400160405280600a81526020017f4d6f6a6169204d6f6a610000000000000000000000000000000000000000000081525081526020016040518060400160405280600781526020017f52617a6962756c00000000000000000000000000000000000000000000000000815250815260200160648152505f5f820151815f01908161009e9190610407565b5060208201518160010190816100b49190610407565b506040820151816002015550506040518060400160405280600781526020017f52617a6962756c00000000000000000000000000000000000000000000000000815250600390816101059190610407565b506016600455600160055f6101000a81548160ff0219169083151502179055506001600560016101000a81548160ff0219169083600281111561014b5761014a6104d6565b5b021790555060646006557fffffffffffffffffffffffffffffffffffffffffffffffffffffffffffffffce6007553360085f6101000a81548173ffffffffffffffffffffffffffffffffffffffff021916908373ffffffffffffffffffffffffffffffffffffffff1602179055503480156101c4575f5ffd5b50610503565b5f81519050919050565b7f4e487b71000000000000000000000000000000000000000000000000000000005f52604160045260245ffd5b7f4e487b71000000000000000000000000000000000000000000000000000000005f52602260045260245ffd5b5f600282049050600182168061024557607f821691505b60208210810361025857610257610201565b5b50919050565b5f819050815f5260205f209050919050565b5f6020601f8301049050919050565b5f82821b905092915050565b5f600883026102ba7fffffffffffffffffffffffffffffffffffffffffffffffffffffffffffffffff8261027f565b6102c4868361027f565b95508019841693508086168417925050509392505050565b5f819050919050565b5f819050919050565b5f6103086103036102fe846102dc565b6102e5565b6102dc565b9050919050565b5f819050919050565b610321836102ee565b61033561032d8261030f565b84845461028b565b825550505050565b5f5f905090565b61034c61033d565b610357818484610318565b505050565b5b8181101561037a5761036f5f82610344565b60018101905061035d565b5050565b601f8211156103bf576103908161025e565b61039984610270565b810160208510156103a8578190505b6103bc6103b485610270565b83018261035c565b50505b505050565b5f82821c905092915050565b5f6103df5f19846008026103c4565b1980831691505092915050565b5f6103f783836103d0565b9150826002028217905092915050565b610410826101ca565b67ffffffffffffffff811115610429576104286101d4565b5b610433825461022e565b61043e82828561037e565b5f60209050601f83116001811461046f575f841561045d578287015190505b61046785826103ec565b8655506104ce565b601f19841661047d8661025e565b5f5b828110156104a45784890151825560018201915060208501945060208101905061047f565b868310156104c157848901516104bd601f8916826103d0565b8355505b6001600288020188555050505b505050505050565b7f4e487b71000000000000000000000000000000000000000000000000000000005f52602160045260245ffd5b6106b7806105105f395ff3fe608060405234801561000f575f5ffd5b506004361061007b575f3560e01c806338cc48311161005957806338cc4831146100db5780634f2be91f146100f9578063632a9a5214610117578063d02982cf146101355761007b565b806305a8da721461007f57806306fdde031461009f578063262a9dff146100bd575b5f5ffd5b610087610153565b604051610096939291906103f2565b60405180910390f35b6100a7610275565b6040516100b49190610435565b60405180910390f35b6100c5610301565b6040516100d29190610455565b60405180910390f35b6100e3610307565b6040516100f091906104ad565b60405180910390f35b61010161032f565b60405161010e91906104de565b60405180910390f35b61011f610345565b60405161012c919061056a565b60405180910390f35b61013d610358565b60405161014a919061059d565b60405180910390f35b5f805f018054610162906105e3565b80601f016020809104026020016040519081016040528092919081815260200182805461018e906105e3565b80156101d95780601f106101b0576101008083540402835291602001916101d9565b820191905f5260205f20905b8154815290600101906020018083116101bc57829003601f168201915b5050505050908060010180546101ee906105e3565b80601f016020809104026020016040519081016040528092919081815260200182805461021a906105e3565b80156102655780601f1061023c57610100808354040283529160200191610265565b820191905f5260205f20905b81548152906001019060200180831161024857829003601f168201915b5050505050908060020154905083565b60038054610282906105e3565b80601f01602080910402602001604051908101604052809291908181526020018280546102ae906105e3565b80156102f95780601f106102d0576101008083540402835291602001916102f9565b820191905f5260205f20905b8154815290600101906020018083116102dc57829003601f168201915b505050505081565b60045481565b5f60085f9054906101000a900473ffffffffffffffffffffffffffffffffffffffff16905090565b5f6007546006546103409190610640565b905090565b600560019054906101000a900460ff1681565b60055f9054906101000a900460ff1681565b5f81519050919050565b5f82825260208201905092915050565b8281835e5f83830152505050565b5f601f19601f8301169050919050565b5f6103ac8261036a565b6103b68185610374565b93506103c6818560208601610384565b6103cf81610392565b840191505092915050565b5f819050919050565b6103ec816103da565b82525050565b5f6060820190508181035f83015261040a81866103a2565b9050818103602083015261041e81856103a2565b905061042d60408301846103e3565b949350505050565b5f6020820190508181035f83015261044d81846103a2565b905092915050565b5f6020820190506104685f8301846103e3565b92915050565b5f73ffffffffffffffffffffffffffffffffffffffff82169050919050565b5f6104978261046e565b9050919050565b6104a78161048d565b82525050565b5f6020820190506104c05f83018461049e565b92915050565b5f819050919050565b6104d8816104c6565b82525050565b5f6020820190506104f15f8301846104cf565b92915050565b7f4e487b71000000000000000000000000000000000000000000000000000000005f52602160045260245ffd5b60038110610535576105346104f7565b5b50565b5f81905061054582610524565b919050565b5f61055482610538565b9050919050565b6105648161054a565b82525050565b5f60208201905061057d5f83018461055b565b92915050565b5f8115159050919050565b61059781610583565b82525050565b5f6020820190506105b05f83018461058e565b92915050565b7f4e487b71000000000000000000000000000000000000000000000000000000005f52602260045260245ffd5b5f60028204905060018216806105fa57607f821691505b60208210810361060d5761060c6105b6565b5b50919050565b7f4e487b71000000000000000000000000000000000000000000000000000000005f52601160045260245ffd5b5f61064a826104c6565b9150610655836104c6565b92508282019050828112155f8312168382125f84121516171561067b5761067a610613565b5b9291505056fea2646970667358221220a0f06f93ebdb7eff6b391e976e9a7b755491e0f96a5ef55caf0a97e6102b5b0e64736f6c634300081d0033",
					"opcodes": "PUSH1 0x80 PUSH1 0x40 MSTORE PUSH1 0x40 MLOAD DUP1 PUSH1 0x60 ADD PUSH1 0x40 MSTORE DUP1 PUSH1 0x40 MLOAD DUP1 PUSH1 0x40 ADD PUSH1 0x40 MSTORE DUP1 PUSH1 0xA DUP2 MSTORE PUSH1 0x20 ADD PUSH32 0x4D6F6A6169204D6F6A6100000000000000000000000000000000000000000000 DUP2 MSTORE POP DUP2 MSTORE PUSH1 0x20 ADD PUSH1 0x40 MLOAD DUP1 PUSH1 0x40 ADD PUSH1 0x40 MSTORE DUP1 PUSH1 0x7 DUP2 MSTORE PUSH1 0x20 ADD PUSH32 0x52617A6962756C00000000000000000000000000000000000000000000000000 DUP2 MSTORE POP DUP2 MSTORE PUSH1 0x20 ADD PUSH1 0x64 DUP2 MSTORE POP PUSH0 PUSH0 DUP3 ADD MLOAD DUP2 PUSH0 ADD SWAP1 DUP2 PUSH2 0x9E SWAP2 SWAP1 PUSH2 0x407 JUMP JUMPDEST POP PUSH1 0x20 DUP3 ADD MLOAD DUP2 PUSH1 0x1 ADD SWAP1 DUP2 PUSH2 0xB4 SWAP2 SWAP1 PUSH2 0x407 JUMP JUMPDEST POP PUSH1 0x40 DUP3 ADD MLOAD DUP2 PUSH1 0x2 ADD SSTORE POP POP PUSH1 0x40 MLOAD DUP1 PUSH1 0x40 ADD PUSH1 0x40 MSTORE DUP1 PUSH1 0x7 DUP2 MSTORE PUSH1 0x20 ADD PUSH32 0x52617A6962756C00000000000000000000000000000000000000000000000000 DUP2 MSTORE POP PUSH1 0x3 SWAP1 DUP2 PUSH2 0x105 SWAP2 SWAP1 PUSH2 0x407 JUMP JUMPDEST POP PUSH1 0x16 PUSH1 0x4 SSTORE PUSH1 0x1 PUSH1 0x5 PUSH0 PUSH2 0x100 EXP DUP2 SLOAD DUP2 PUSH1 0xFF MUL NOT AND SWAP1 DUP4 ISZERO ISZERO MUL OR SWAP1 SSTORE POP PUSH1 0x1 PUSH1 0x5 PUSH1 0x1 PUSH2 0x100 EXP DUP2 SLOAD DUP2 PUSH1 0xFF MUL NOT AND SWAP1 DUP4 PUSH1 0x2 DUP2 GT ISZERO PUSH2 0x14B JUMPI PUSH2 0x14A PUSH2 0x4D6 JUMP JUMPDEST JUMPDEST MUL OR SWAP1 SSTORE POP PUSH1 0x64 PUSH1 0x6 SSTORE PUSH32 0xFFFFFFFFFFFFFFFFFFFFFFFFFFFFFFFFFFFFFFFFFFFFFFFFFFFFFFFFFFFFFFCE PUSH1 0x7 SSTORE CALLER PUSH1 0x8 PUSH0 PUSH2 0x100 EXP DUP2 SLOAD DUP2 PUSH20 0xFFFFFFFFFFFFFFFFFFFFFFFFFFFFFFFFFFFFFFFF MUL NOT AND SWAP1 DUP4 PUSH20 0xFFFFFFFFFFFFFFFFFFFFFFFFFFFFFFFFFFFFFFFF AND MUL OR SWAP1 SSTORE POP CALLVALUE DUP1 ISZERO PUSH2 0x1C4 JUMPI PUSH0 PUSH0 REVERT JUMPDEST POP PUSH2 0x503 JUMP JUMPDEST PUSH0 DUP2 MLOAD SWAP1 POP SWAP2 SWAP1 POP JUMP JUMPDEST PUSH32 0x4E487B7100000000000000000000000000000000000000000000000000000000 PUSH0 MSTORE PUSH1 0x41 PUSH1 0x4 MSTORE PUSH1 0x24 PUSH0 REVERT JUMPDEST PUSH32 0x4E487B7100000000000000000000000000000000000000000000000000000000 PUSH0 MSTORE PUSH1 0x22 PUSH1 0x4 MSTORE PUSH1 0x24 PUSH0 REVERT JUMPDEST PUSH0 PUSH1 0x2 DUP3 DIV SWAP1 POP PUSH1 0x1 DUP3 AND DUP1 PUSH2 0x245 JUMPI PUSH1 0x7F DUP3 AND SWAP2 POP JUMPDEST PUSH1 0x20 DUP3 LT DUP2 SUB PUSH2 0x258 JUMPI PUSH2 0x257 PUSH2 0x201 JUMP JUMPDEST JUMPDEST POP SWAP2 SWAP1 POP JUMP JUMPDEST PUSH0 DUP2 SWAP1 POP DUP2 PUSH0 MSTORE PUSH1 0x20 PUSH0 KECCAK256 SWAP1 POP SWAP2 SWAP1 POP JUMP JUMPDEST PUSH0 PUSH1 0x20 PUSH1 0x1F DUP4 ADD DIV SWAP1 POP SWAP2 SWAP1 POP JUMP JUMPDEST PUSH0 DUP3 DUP3 SHL SWAP1 POP SWAP3 SWAP2 POP POP JUMP JUMPDEST PUSH0 PUSH1 0x8 DUP4 MUL PUSH2 0x2BA PUSH32 0xFFFFFFFFFFFFFFFFFFFFFFFFFFFFFFFFFFFFFFFFFFFFFFFFFFFFFFFFFFFFFFFF DUP3 PUSH2 0x27F JUMP JUMPDEST PUSH2 0x2C4 DUP7 DUP4 PUSH2 0x27F JUMP JUMPDEST SWAP6 POP DUP1 NOT DUP5 AND SWAP4 POP DUP1 DUP7 AND DUP5 OR SWAP3 POP POP POP SWAP4 SWAP3 POP POP POP JUMP JUMPDEST PUSH0 DUP2 SWAP1 POP SWAP2 SWAP1 POP JUMP JUMPDEST PUSH0 DUP2 SWAP1 POP SWAP2 SWAP1 POP JUMP JUMPDEST PUSH0 PUSH2 0x308 PUSH2 0x303 PUSH2 0x2FE DUP5 PUSH2 0x2DC JUMP JUMPDEST PUSH2 0x2E5 JUMP JUMPDEST PUSH2 0x2DC JUMP JUMPDEST SWAP1 POP SWAP2 SWAP1 POP JUMP JUMPDEST PUSH0 DUP2 SWAP1 POP SWAP2 SWAP1 POP JUMP JUMPDEST PUSH2 0x321 DUP4 PUSH2 0x2EE JUMP JUMPDEST PUSH2 0x335 PUSH2 0x32D DUP3 PUSH2 0x30F JUMP JUMPDEST DUP5 DUP5 SLOAD PUSH2 0x28B JUMP JUMPDEST DUP3 SSTORE POP POP POP POP JUMP JUMPDEST PUSH0 PUSH0 SWAP1 POP SWAP1 JUMP JUMPDEST PUSH2 0x34C PUSH2 0x33D JUMP JUMPDEST PUSH2 0x357 DUP2 DUP5 DUP5 PUSH2 0x318 JUMP JUMPDEST POP POP POP JUMP JUMPDEST JUMPDEST DUP2 DUP2 LT ISZERO PUSH2 0x37A JUMPI PUSH2 0x36F PUSH0 DUP3 PUSH2 0x344 JUMP JUMPDEST PUSH1 0x1 DUP2 ADD SWAP1 POP PUSH2 0x35D JUMP JUMPDEST POP POP JUMP JUMPDEST PUSH1 0x1F DUP3 GT ISZERO PUSH2 0x3BF JUMPI PUSH2 0x390 DUP2 PUSH2 0x25E JUMP JUMPDEST PUSH2 0x399 DUP5 PUSH2 0x270 JUMP JUMPDEST DUP2 ADD PUSH1 0x20 DUP6 LT ISZERO PUSH2 0x3A8 JUMPI DUP2 SWAP1 POP JUMPDEST PUSH2 0x3BC PUSH2 0x3B4 DUP6 PUSH2 0x270 JUMP JUMPDEST DUP4 ADD DUP3 PUSH2 0x35C JUMP JUMPDEST POP POP JUMPDEST POP POP POP JUMP JUMPDEST PUSH0 DUP3 DUP3 SHR SWAP1 POP SWAP3 SWAP2 POP POP JUMP JUMPDEST PUSH0 PUSH2 0x3DF PUSH0 NOT DUP5 PUSH1 0x8 MUL PUSH2 0x3C4 JUMP JUMPDEST NOT DUP1 DUP4 AND SWAP2 POP POP SWAP3 SWAP2 POP POP JUMP JUMPDEST PUSH0 PUSH2 0x3F7 DUP4 DUP4 PUSH2 0x3D0 JUMP JUMPDEST SWAP2 POP DUP3 PUSH1 0x2 MUL DUP3 OR SWAP1 POP SWAP3 SWAP2 POP POP JUMP JUMPDEST PUSH2 0x410 DUP3 PUSH2 0x1CA JUMP JUMPDEST PUSH8 0xFFFFFFFFFFFFFFFF DUP2 GT ISZERO PUSH2 0x429 JUMPI PUSH2 0x428 PUSH2 0x1D4 JUMP JUMPDEST JUMPDEST PUSH2 0x433 DUP3 SLOAD PUSH2 0x22E JUMP JUMPDEST PUSH2 0x43E DUP3 DUP3 DUP6 PUSH2 0x37E JUMP JUMPDEST PUSH0 PUSH1 0x20 SWAP1 POP PUSH1 0x1F DUP4 GT PUSH1 0x1 DUP2 EQ PUSH2 0x46F JUMPI PUSH0 DUP5 ISZERO PUSH2 0x45D JUMPI DUP3 DUP8 ADD MLOAD SWAP1 POP JUMPDEST PUSH2 0x467 DUP6 DUP3 PUSH2 0x3EC JUMP JUMPDEST DUP7 SSTORE POP PUSH2 0x4CE JUMP JUMPDEST PUSH1 0x1F NOT DUP5 AND PUSH2 0x47D DUP7 PUSH2 0x25E JUMP JUMPDEST PUSH0 JUMPDEST DUP3 DUP2 LT ISZERO PUSH2 0x4A4 JUMPI DUP5 DUP10 ADD MLOAD DUP3 SSTORE PUSH1 0x1 DUP3 ADD SWAP2 POP PUSH1 0x20 DUP6 ADD SWAP5 POP PUSH1 0x20 DUP2 ADD SWAP1 POP PUSH2 0x47F JUMP JUMPDEST DUP7 DUP4 LT ISZERO PUSH2 0x4C1 JUMPI DUP5 DUP10 ADD MLOAD PUSH2 0x4BD PUSH1 0x1F DUP10 AND DUP3 PUSH2 0x3D0 JUMP JUMPDEST DUP4 SSTORE POP JUMPDEST PUSH1 0x1 PUSH1 0x2 DUP9 MUL ADD DUP9 SSTORE POP POP POP JUMPDEST POP POP POP POP POP POP JUMP JUMPDEST PUSH32 0x4E487B7100000000000000000000000000000000000000000000000000000000 PUSH0 MSTORE PUSH1 0x21 PUSH1 0x4 MSTORE PUSH1 0x24 PUSH0 REVERT JUMPDEST PUSH2 0x6B7 DUP1 PUSH2 0x510 PUSH0 CODECOPY PUSH0 RETURN INVALID PUSH1 0x80 PUSH1 0x40 MSTORE CALLVALUE DUP1 ISZERO PUSH2 0xF JUMPI PUSH0 PUSH0 REVERT JUMPDEST POP PUSH1 0x4 CALLDATASIZE LT PUSH2 0x7B JUMPI PUSH0 CALLDATALOAD PUSH1 0xE0 SHR DUP1 PUSH4 0x38CC4831 GT PUSH2 0x59 JUMPI DUP1 PUSH4 0x38CC4831 EQ PUSH2 0xDB JUMPI DUP1 PUSH4 0x4F2BE91F EQ PUSH2 0xF9 JUMPI DUP1 PUSH4 0x632A9A52 EQ PUSH2 0x117 JUMPI DUP1 PUSH4 0xD02982CF EQ PUSH2 0x135 JUMPI PUSH2 0x7B JUMP JUMPDEST DUP1 PUSH4 0x5A8DA72 EQ PUSH2 0x7F JUMPI DUP1 PUSH4 0x6FDDE03 EQ PUSH2 0x9F JUMPI DUP1 PUSH4 0x262A9DFF EQ PUSH2 0xBD JUMPI JUMPDEST PUSH0 PUSH0 REVERT JUMPDEST PUSH2 0x87 PUSH2 0x153 JUMP JUMPDEST PUSH1 0x40 MLOAD PUSH2 0x96 SWAP4 SWAP3 SWAP2 SWAP1 PUSH2 0x3F2 JUMP JUMPDEST PUSH1 0x40 MLOAD DUP1 SWAP2 SUB SWAP1 RETURN JUMPDEST PUSH2 0xA7 PUSH2 0x275 JUMP JUMPDEST PUSH1 0x40 MLOAD PUSH2 0xB4 SWAP2 SWAP1 PUSH2 0x435 JUMP JUMPDEST PUSH1 0x40 MLOAD DUP1 SWAP2 SUB SWAP1 RETURN JUMPDEST PUSH2 0xC5 PUSH2 0x301 JUMP JUMPDEST PUSH1 0x40 MLOAD PUSH2 0xD2 SWAP2 SWAP1 PUSH2 0x455 JUMP JUMPDEST PUSH1 0x40 MLOAD DUP1 SWAP2 SUB SWAP1 RETURN JUMPDEST PUSH2 0xE3 PUSH2 0x307 JUMP JUMPDEST PUSH1 0x40 MLOAD PUSH2 0xF0 SWAP2 SWAP1 PUSH2 0x4AD JUMP JUMPDEST PUSH1 0x40 MLOAD DUP1 SWAP2 SUB SWAP1 RETURN JUMPDEST PUSH2 0x101 PUSH2 0x32F JUMP JUMPDEST PUSH1 0x40 MLOAD PUSH2 0x10E SWAP2 SWAP1 PUSH2 0x4DE JUMP JUMPDEST PUSH1 0x40 MLOAD DUP1 SWAP2 SUB SWAP1 RETURN JUMPDEST PUSH2 0x11F PUSH2 0x345 JUMP JUMPDEST PUSH1 0x40 MLOAD PUSH2 0x12C SWAP2 SWAP1 PUSH2 0x56A JUMP JUMPDEST PUSH1 0x40 MLOAD DUP1 SWAP2 SUB SWAP1 RETURN JUMPDEST PUSH2 0x13D PUSH2 0x358 JUMP JUMPDEST PUSH1 0x40 MLOAD PUSH2 0x14A SWAP2 SWAP1 PUSH2 0x59D JUMP JUMPDEST PUSH1 0x40 MLOAD DUP1 SWAP2 SUB SWAP1 RETURN JUMPDEST PUSH0 DUP1 PUSH0 ADD DUP1 SLOAD PUSH2 0x162 SWAP1 PUSH2 0x5E3 JUMP JUMPDEST DUP1 PUSH1 0x1F ADD PUSH1 0x20 DUP1 SWAP2 DIV MUL PUSH1 0x20 ADD PUSH1 0x40 MLOAD SWAP1 DUP2 ADD PUSH1 0x40 MSTORE DUP1 SWAP3 SWAP2 SWAP1 DUP2 DUP2 MSTORE PUSH1 0x20 ADD DUP3 DUP1 SLOAD PUSH2 0x18E SWAP1 PUSH2 0x5E3 JUMP JUMPDEST DUP1 ISZERO PUSH2 0x1D9 JUMPI DUP1 PUSH1 0x1F LT PUSH2 0x1B0 JUMPI PUSH2 0x100 DUP1 DUP4 SLOAD DIV MUL DUP4 MSTORE SWAP2 PUSH1 0x20 ADD SWAP2 PUSH2 0x1D9 JUMP JUMPDEST DUP3 ADD SWAP2 SWAP1 PUSH0 MSTORE PUSH1 0x20 PUSH0 KECCAK256 SWAP1 JUMPDEST DUP2 SLOAD DUP2 MSTORE SWAP1 PUSH1 0x1 ADD SWAP1 PUSH1 0x20 ADD DUP1 DUP4 GT PUSH2 0x1BC JUMPI DUP3 SWAP1 SUB PUSH1 0x1F AND DUP3 ADD SWAP2 JUMPDEST POP POP POP POP POP SWAP1 DUP1 PUSH1 0x1 ADD DUP1 SLOAD PUSH2 0x1EE SWAP1 PUSH2 0x5E3 JUMP JUMPDEST DUP1 PUSH1 0x1F ADD PUSH1 0x20 DUP1 SWAP2 DIV MUL PUSH1 0x20 ADD PUSH1 0x40 MLOAD SWAP1 DUP2 ADD PUSH1 0x40 MSTORE DUP1 SWAP3 SWAP2 SWAP1 DUP2 DUP2 MSTORE PUSH1 0x20 ADD DUP3 DUP1 SLOAD PUSH2 0x21A SWAP1 PUSH2 0x5E3 JUMP JUMPDEST DUP1 ISZERO PUSH2 0x265 JUMPI DUP1 PUSH1 0x1F LT PUSH2 0x23C JUMPI PUSH2 0x100 DUP1 DUP4 SLOAD DIV MUL DUP4 MSTORE SWAP2 PUSH1 0x20 ADD SWAP2 PUSH2 0x265 JUMP JUMPDEST DUP3 ADD SWAP2 SWAP1 PUSH0 MSTORE PUSH1 0x20 PUSH0 KECCAK256 SWAP1 JUMPDEST DUP2 SLOAD DUP2 MSTORE SWAP1 PUSH1 0x1 ADD SWAP1 PUSH1 0x20 ADD DUP1 DUP4 GT PUSH2 0x248 JUMPI DUP3 SWAP1 SUB PUSH1 0x1F AND DUP3 ADD SWAP2 JUMPDEST POP POP POP POP POP SWAP1 DUP1 PUSH1 0x2 ADD SLOAD SWAP1 POP DUP4 JUMP JUMPDEST PUSH1 0x3 DUP1 SLOAD PUSH2 0x282 SWAP1 PUSH2 0x5E3 JUMP JUMPDEST DUP1 PUSH1 0x1F ADD PUSH1 0x20 DUP1 SWAP2 DIV MUL PUSH1 0x20 ADD PUSH1 0x40 MLOAD SWAP1 DUP2 ADD PUSH1 0x40 MSTORE DUP1 SWAP3 SWAP2 SWAP1 DUP2 DUP2 MSTORE PUSH1 0x20 ADD DUP3 DUP1 SLOAD PUSH2 0x2AE SWAP1 PUSH2 0x5E3 JUMP JUMPDEST DUP1 ISZERO PUSH2 0x2F9 JUMPI DUP1 PUSH1 0x1F LT PUSH2 0x2D0 JUMPI PUSH2 0x100 DUP1 DUP4 SLOAD DIV MUL DUP4 MSTORE SWAP2 PUSH1 0x20 ADD SWAP2 PUSH2 0x2F9 JUMP JUMPDEST DUP3 ADD SWAP2 SWAP1 PUSH0 MSTORE PUSH1 0x20 PUSH0 KECCAK256 SWAP1 JUMPDEST DUP2 SLOAD DUP2 MSTORE SWAP1 PUSH1 0x1 ADD SWAP1 PUSH1 0x20 ADD DUP1 DUP4 GT PUSH2 0x2DC JUMPI DUP3 SWAP1 SUB PUSH1 0x1F AND DUP3 ADD SWAP2 JUMPDEST POP POP POP POP POP DUP2 JUMP JUMPDEST PUSH1 0x4 SLOAD DUP2 JUMP JUMPDEST PUSH0 PUSH1 0x8 PUSH0 SWAP1 SLOAD SWAP1 PUSH2 0x100 EXP SWAP1 DIV PUSH20 0xFFFFFFFFFFFFFFFFFFFFFFFFFFFFFFFFFFFFFFFF AND SWAP1 POP SWAP1 JUMP JUMPDEST PUSH0 PUSH1 0x7 SLOAD PUSH1 0x6 SLOAD PUSH2 0x340 SWAP2 SWAP1 PUSH2 0x640 JUMP JUMPDEST SWAP1 POP SWAP1 JUMP JUMPDEST PUSH1 0x5 PUSH1 0x1 SWAP1 SLOAD SWAP1 PUSH2 0x100 EXP SWAP1 DIV PUSH1 0xFF AND DUP2 JUMP JUMPDEST PUSH1 0x5 PUSH0 SWAP1 SLOAD SWAP1 PUSH2 0x100 EXP SWAP1 DIV PUSH1 0xFF AND DUP2 JUMP JUMPDEST PUSH0 DUP2 MLOAD SWAP1 POP SWAP2 SWAP1 POP JUMP JUMPDEST PUSH0 DUP3 DUP3 MSTORE PUSH1 0x20 DUP3 ADD SWAP1 POP SWAP3 SWAP2 POP POP JUMP JUMPDEST DUP3 DUP2 DUP4 MCOPY PUSH0 DUP4 DUP4 ADD MSTORE POP POP POP JUMP JUMPDEST PUSH0 PUSH1 0x1F NOT PUSH1 0x1F DUP4 ADD AND SWAP1 POP SWAP2 SWAP1 POP JUMP JUMPDEST PUSH0 PUSH2 0x3AC DUP3 PUSH2 0x36A JUMP JUMPDEST PUSH2 0x3B6 DUP2 DUP6 PUSH2 0x374 JUMP JUMPDEST SWAP4 POP PUSH2 0x3C6 DUP2 DUP6 PUSH1 0x20 DUP7 ADD PUSH2 0x384 JUMP JUMPDEST PUSH2 0x3CF DUP2 PUSH2 0x392 JUMP JUMPDEST DUP5 ADD SWAP2 POP POP SWAP3 SWAP2 POP POP JUMP JUMPDEST PUSH0 DUP2 SWAP1 POP SWAP2 SWAP1 POP JUMP JUMPDEST PUSH2 0x3EC DUP2 PUSH2 0x3DA JUMP JUMPDEST DUP3 MSTORE POP POP JUMP JUMPDEST PUSH0 PUSH1 0x60 DUP3 ADD SWAP1 POP DUP2 DUP2 SUB PUSH0 DUP4 ADD MSTORE PUSH2 0x40A DUP2 DUP7 PUSH2 0x3A2 JUMP JUMPDEST SWAP1 POP DUP2 DUP2 SUB PUSH1 0x20 DUP4 ADD MSTORE PUSH2 0x41E DUP2 DUP6 PUSH2 0x3A2 JUMP JUMPDEST SWAP1 POP PUSH2 0x42D PUSH1 0x40 DUP4 ADD DUP5 PUSH2 0x3E3 JUMP JUMPDEST SWAP5 SWAP4 POP POP POP POP JUMP JUMPDEST PUSH0 PUSH1 0x20 DUP3 ADD SWAP1 POP DUP2 DUP2 SUB PUSH0 DUP4 ADD MSTORE PUSH2 0x44D DUP2 DUP5 PUSH2 0x3A2 JUMP JUMPDEST SWAP1 POP SWAP3 SWAP2 POP POP JUMP JUMPDEST PUSH0 PUSH1 0x20 DUP3 ADD SWAP1 POP PUSH2 0x468 PUSH0 DUP4 ADD DUP5 PUSH2 0x3E3 JUMP JUMPDEST SWAP3 SWAP2 POP POP JUMP JUMPDEST PUSH0 PUSH20 0xFFFFFFFFFFFFFFFFFFFFFFFFFFFFFFFFFFFFFFFF DUP3 AND SWAP1 POP SWAP2 SWAP1 POP JUMP JUMPDEST PUSH0 PUSH2 0x497 DUP3 PUSH2 0x46E JUMP JUMPDEST SWAP1 POP SWAP2 SWAP1 POP JUMP JUMPDEST PUSH2 0x4A7 DUP2 PUSH2 0x48D JUMP JUMPDEST DUP3 MSTORE POP POP JUMP JUMPDEST PUSH0 PUSH1 0x20 DUP3 ADD SWAP1 POP PUSH2 0x4C0 PUSH0 DUP4 ADD DUP5 PUSH2 0x49E JUMP JUMPDEST SWAP3 SWAP2 POP POP JUMP JUMPDEST PUSH0 DUP2 SWAP1 POP SWAP2 SWAP1 POP JUMP JUMPDEST PUSH2 0x4D8 DUP2 PUSH2 0x4C6 JUMP JUMPDEST DUP3 MSTORE POP POP JUMP JUMPDEST PUSH0 PUSH1 0x20 DUP3 ADD SWAP1 POP PUSH2 0x4F1 PUSH0 DUP4 ADD DUP5 PUSH2 0x4CF JUMP JUMPDEST SWAP3 SWAP2 POP POP JUMP JUMPDEST PUSH32 0x4E487B7100000000000000000000000000000000000000000000000000000000 PUSH0 MSTORE PUSH1 0x21 PUSH1 0x4 MSTORE PUSH1 0x24 PUSH0 REVERT JUMPDEST PUSH1 0x3 DUP2 LT PUSH2 0x535 JUMPI PUSH2 0x534 PUSH2 0x4F7 JUMP JUMPDEST JUMPDEST POP JUMP JUMPDEST PUSH0 DUP2 SWAP1 POP PUSH2 0x545 DUP3 PUSH2 0x524 JUMP JUMPDEST SWAP2 SWAP1 POP JUMP JUMPDEST PUSH0 PUSH2 0x554 DUP3 PUSH2 0x538 JUMP JUMPDEST SWAP1 POP SWAP2 SWAP1 POP JUMP JUMPDEST PUSH2 0x564 DUP2 PUSH2 0x54A JUMP JUMPDEST DUP3 MSTORE POP POP JUMP JUMPDEST PUSH0 PUSH1 0x20 DUP3 ADD SWAP1 POP PUSH2 0x57D PUSH0 DUP4 ADD DUP5 PUSH2 0x55B JUMP JUMPDEST SWAP3 SWAP2 POP POP JUMP JUMPDEST PUSH0 DUP2 ISZERO ISZERO SWAP1 POP SWAP2 SWAP1 POP JUMP JUMPDEST PUSH2 0x597 DUP2 PUSH2 0x583 JUMP JUMPDEST DUP3 MSTORE POP POP JUMP JUMPDEST PUSH0 PUSH1 0x20 DUP3 ADD SWAP1 POP PUSH2 0x5B0 PUSH0 DUP4 ADD DUP5 PUSH2 0x58E JUMP JUMPDEST SWAP3 SWAP2 POP POP JUMP JUMPDEST PUSH32 0x4E487B7100000000000000000000000000000000000000000000000000000000 PUSH0 MSTORE PUSH1 0x22 PUSH1 0x4 MSTORE PUSH1 0x24 PUSH0 REVERT JUMPDEST PUSH0 PUSH1 0x2 DUP3 DIV SWAP1 POP PUSH1 0x1 DUP3 AND DUP1 PUSH2 0x5FA JUMPI PUSH1 0x7F DUP3 AND SWAP2 POP JUMPDEST PUSH1 0x20 DUP3 LT DUP2 SUB PUSH2 0x60D JUMPI PUSH2 0x60C PUSH2 0x5B6 JUMP JUMPDEST JUMPDEST POP SWAP2 SWAP1 POP JUMP JUMPDEST PUSH32 0x4E487B7100000000000000000000000000000000000000000000000000000000 PUSH0 MSTORE PUSH1 0x11 PUSH1 0x4 MSTORE PUSH1 0x24 PUSH0 REVERT JUMPDEST PUSH0 PUSH2 0x64A DUP3 PUSH2 0x4C6 JUMP JUMPDEST SWAP2 POP PUSH2 0x655 DUP4 PUSH2 0x4C6 JUMP JUMPDEST SWAP3 POP DUP3 DUP3 ADD SWAP1 POP DUP3 DUP2 SLT ISZERO PUSH0 DUP4 SLT AND DUP4 DUP3 SLT PUSH0 DUP5 SLT ISZERO AND OR ISZERO PUSH2 0x67B JUMPI PUSH2 0x67A PUSH2 0x613 JUMP JUMPDEST JUMPDEST SWAP3 SWAP2 POP POP JUMP INVALID LOG2 PUSH5 0x6970667358 0x22 SLT KECCAK256 LOG0 CREATE PUSH16 0x93EBDB7EFF6B391E976E9A7B755491E0 EXTDELEGATECALL PUSH11 0x5EF55CAF0A97E6102B5B0E PUSH5 0x736F6C6343 STOP ADDMOD SAR STOP CALLER "
				},
				"gasEstimates": {
					"creation": {
						"codeDepositCost": "343800",
						"executionCost": "infinite",
						"totalCost": "infinite"
					},
					"external": {
						"add()": "infinite",
						"age()": "2470",
						"book()": "infinite",
						"getAddress()": "2515",
						"isMember()": "2532",
						"name()": "infinite",
						"vote()": "2649"
					}
				},
				"methodIdentifiers": {
					"add()": "4f2be91f",
					"age()": "262a9dff",
					"book()": "05a8da72",
					"getAddress()": "38cc4831",
					"isMember()": "d02982cf",
					"name()": "06fdde03",
					"vote()": "632a9a52"
				}
			},
			"storageLayout": {
				"storage": [
					{
						"astId": 16,
						"contract": "NewLearning/First.sol:First",
						"label": "book",
						"offset": 0,
						"slot": "0",
						"type": "t_struct(Book)8_storage"
					},
					{
						"astId": 19,
						"contract": "NewLearning/First.sol:First",
						"label": "name",
						"offset": 0,
						"slot": "3",
						"type": "t_string_storage"
					},
					{
						"astId": 22,
						"contract": "NewLearning/First.sol:First",
						"label": "age",
						"offset": 0,
						"slot": "4",
						"type": "t_uint256"
					},
					{
						"astId": 25,
						"contract": "NewLearning/First.sol:First",
						"label": "isMember",
						"offset": 0,
						"slot": "5",
						"type": "t_bool"
					},
					{
						"astId": 34,
						"contract": "NewLearning/First.sol:First",
						"label": "vote",
						"offset": 1,
						"slot": "5",
						"type": "t_enum(VoteStatus)29"
					},
					{
						"astId": 37,
						"contract": "NewLearning/First.sol:First",
						"label": "profit",
						"offset": 0,
						"slot": "6",
						"type": "t_int256"
					},
					{
						"astId": 41,
						"contract": "NewLearning/First.sol:First",
						"label": "loss",
						"offset": 0,
						"slot": "7",
						"type": "t_int256"
					},
					{
						"astId": 55,
						"contract": "NewLearning/First.sol:First",
						"label": "owner",
						"offset": 0,
						"slot": "8",
						"type": "t_address"
					}
				],
				"types": {
					"t_address": {
						"encoding": "inplace",
						"label": "address",
						"numberOfBytes": "20"
					},
					"t_bool": {
						"encoding": "inplace",
						"label": "bool",
						"numberOfBytes": "1"
					},
					"t_enum(VoteStatus)29": {
						"encoding": "inplace",
						"label": "enum First.VoteStatus",
						"numberOfBytes": "1"
					},
					"t_int256": {
						"encoding": "inplace",
						"label": "int256",
						"numberOfBytes": "32"
					},
					"t_string_storage": {
						"encoding": "bytes",
						"label": "string",
						"numberOfBytes": "32"
					},
					"t_struct(Book)8_storage": {
						"encoding": "inplace",
						"label": "struct First.Book",
						"members": [
							{
								"astId": 3,
								"contract": "NewLearning/First.sol:First",
								"label": "title",
								"offset": 0,
								"slot": "0",
								"type": "t_string_storage"
							},
							{
								"astId": 5,
								"contract": "NewLearning/First.sol:First",
								"label": "author",
								"offset": 0,
								"slot": "1",
								"type": "t_string_storage"
							},
							{
								"astId": 7,
								"contract": "NewLearning/First.sol:First",
								"label": "price",
								"offset": 0,
								"slot": "2",
								"type": "t_uint256"
							}
						],
						"numberOfBytes": "96"
					},
					"t_uint256": {
						"encoding": "inplace",
						"label": "uint256",
						"numberOfBytes": "32"
					}
				}
			},
			"userdoc": {
				"kind": "user",
				"methods": {},
				"version": 1
			}
		}
	}
}