{
	"NewLearning/ACS.sol": {
		"AccessControl": {
			"abi": [
				{
					"inputs": [],
					"stateMutability": "nonpayable",
					"type": "constructor"
				},
				{
					"inputs": [],
					"name": "AdminCheck",
					"outputs": [
						{
							"internalType": "string",
							"name": "",
							"type": "string"
						}
					],
					"stateMutability": "view",
					"type": "function"
				},
				{
					"inputs": [],
					"name": "OwnerCheck",
					"outputs": [
						{
							"internalType": "string",
							"name": "",
							"type": "string"
						}
					],
					"stateMutability": "view",
					"type": "function"
				},
				{
					"inputs": [
						{
							"internalType": "address",
							"name": "_add",
							"type": "address"
						}
					],
					"name": "checkStatus",
					"outputs": [
						{
							"internalType": "enum AccessControl.Role",
							"name": "",
							"type": "uint8"
						}
					],
					"stateMutability": "view",
					"type": "function"
				},
				{
					"inputs": [],
					"name": "everyOne",
					"outputs": [
						{
							"internalType": "string",
							"name": "",
							"type": "string"
						}
					],
					"stateMutability": "pure",
					"type": "function"
				},
				{
					"inputs": [
						{
							"internalType": "address",
							"name": "_address",
							"type": "address"
						},
						{
							"internalType": "enum AccessControl.Role",
							"name": "_role",
							"type": "uint8"
						}
					],
					"name": "setRole",
					"outputs": [],
					"stateMutability": "nonpayable",
					"type": "function"
				},
				{
					"inputs": [],
					"name": "userCheck",
					"outputs": [
						{
							"internalType": "string",
							"name": "",
							"type": "string"
						}
					],
					"stateMutability": "view",
					"type": "function"
				}
			],
			"devdoc": {
				"kind": "dev",
				"methods": {},
				"version": 1
			},
			"evm": {
				"assembly": "    /* \"NewLearning/ACS.sol\":58:1400  contract AccessControl {... */\n  mstore(0x40, 0x80)\n    /* \"NewLearning/ACS.sol\":646:735  constructor() {... */\n  callvalue\n  dup1\n  iszero\n  tag_1\n  jumpi\n  revert(0x00, 0x00)\ntag_1:\n  pop\n    /* \"NewLearning/ACS.sol\":678:688  msg.sender */\n  caller\n    /* \"NewLearning/ACS.sol\":670:675  owner */\n  0x00\n  0x00\n    /* \"NewLearning/ACS.sol\":670:688  owner = msg.sender */\n  0x0100\n  exp\n  dup2\n  sload\n  dup2\n  0xffffffffffffffffffffffffffffffffffffffff\n  mul\n  not\n  and\n  swap1\n  dup4\n  0xffffffffffffffffffffffffffffffffffffffff\n  and\n  mul\n  or\n  swap1\n  sstore\n  pop\n    /* \"NewLearning/ACS.sol\":718:728  Role.Admin */\n  0x02\n    /* \"NewLearning/ACS.sol\":698:703  roles */\n  0x01\n    /* \"NewLearning/ACS.sol\":698:715  roles[msg.sender] */\n  0x00\n    /* \"NewLearning/ACS.sol\":704:714  msg.sender */\n  caller\n    /* \"NewLearning/ACS.sol\":698:715  roles[msg.sender] */\n  0xffffffffffffffffffffffffffffffffffffffff\n  and\n  0xffffffffffffffffffffffffffffffffffffffff\n  and\n  dup2\n  mstore\n  0x20\n  add\n  swap1\n  dup2\n  mstore\n  0x20\n  add\n  0x00\n  keccak256\n  0x00\n    /* \"NewLearning/ACS.sol\":698:728  roles[msg.sender] = Role.Admin */\n  0x0100\n  exp\n  dup2\n  sload\n  dup2\n  0xff\n  mul\n  not\n  and\n  swap1\n  dup4\n  0x02\n  dup2\n  gt\n  iszero\n  tag_4\n  jumpi\n  tag_5\n  tag_6\n  jump\t// in\ntag_5:\ntag_4:\n  mul\n  or\n  swap1\n  sstore\n  pop\n    /* \"NewLearning/ACS.sol\":58:1400  contract AccessControl {... */\n  jump(tag_7)\n    /* \"#utility.yul\":7:187   */\ntag_6:\n    /* \"#utility.yul\":55:132   */\n  0x4e487b7100000000000000000000000000000000000000000000000000000000\n    /* \"#utility.yul\":52:53   */\n  0x00\n    /* \"#utility.yul\":45:133   */\n  mstore\n    /* \"#utility.yul\":152:156   */\n  0x21\n    /* \"#utility.yul\":149:150   */\n  0x04\n    /* \"#utility.yul\":142:157   */\n  mstore\n    /* \"#utility.yul\":176:180   */\n  0x24\n    /* \"#utility.yul\":173:174   */\n  0x00\n    /* \"#utility.yul\":166:181   */\n  revert\n    /* \"NewLearning/ACS.sol\":58:1400  contract AccessControl {... */\ntag_7:\n  dataSize(sub_0)\n  dup1\n  dataOffset(sub_0)\n  0x00\n  codecopy\n  0x00\n  return\nstop\n\nsub_0: assembly {\n        /* \"NewLearning/ACS.sol\":58:1400  contract AccessControl {... */\n      mstore(0x40, 0x80)\n      callvalue\n      dup1\n      iszero\n      tag_1\n      jumpi\n      revert(0x00, 0x00)\n    tag_1:\n      pop\n      jumpi(tag_2, lt(calldatasize, 0x04))\n      shr(0xe0, calldataload(0x00))\n      dup1\n      0x340190ec\n      eq\n      tag_3\n      jumpi\n      dup1\n      0x571c3e60\n      eq\n      tag_4\n      jumpi\n      dup1\n      0x6d9a26e2\n      eq\n      tag_5\n      jumpi\n      dup1\n      0x988c7057\n      eq\n      tag_6\n      jumpi\n      dup1\n      0x9fb21cba\n      eq\n      tag_7\n      jumpi\n      dup1\n      0xfec408c1\n      eq\n      tag_8\n      jumpi\n    tag_2:\n      revert(0x00, 0x00)\n        /* \"NewLearning/ACS.sol\":1301:1398  function checkStatus(address _add) public view returns (Role) {... */\n    tag_3:\n      tag_9\n      0x04\n      dup1\n      calldatasize\n      sub\n      dup2\n      add\n      swap1\n      tag_10\n      swap2\n      swap1\n      tag_11\n      jump\t// in\n    tag_10:\n      tag_12\n      jump\t// in\n    tag_9:\n      mload(0x40)\n      tag_13\n      swap2\n      swap1\n      tag_14\n      jump\t// in\n    tag_13:\n      mload(0x40)\n      dup1\n      swap2\n      sub\n      swap1\n      return\n        /* \"NewLearning/ACS.sol\":741:845  function setRole(address _address, Role _role) public onlyAdmin {... */\n    tag_4:\n      tag_15\n      0x04\n      dup1\n      calldatasize\n      sub\n      dup2\n      add\n      swap1\n      tag_16\n      swap2\n      swap1\n      tag_17\n      jump\t// in\n    tag_16:\n      tag_18\n      jump\t// in\n    tag_15:\n      stop\n        /* \"NewLearning/ACS.sol\":851:955  function AdminCheck() public view onlyAdmin returns (string memory) {... */\n    tag_5:\n      tag_19\n      tag_20\n      jump\t// in\n    tag_19:\n      mload(0x40)\n      tag_21\n      swap2\n      swap1\n      tag_22\n      jump\t// in\n    tag_21:\n      mload(0x40)\n      dup1\n      swap2\n      sub\n      swap1\n      return\n        /* \"NewLearning/ACS.sol\":1193:1295  function everyOne() public pure returns (string memory) {... */\n    tag_6:\n      tag_23\n      tag_24\n      jump\t// in\n    tag_23:\n      mload(0x40)\n      tag_25\n      swap2\n      swap1\n      tag_22\n      jump\t// in\n    tag_25:\n      mload(0x40)\n      dup1\n      swap2\n      sub\n      swap1\n      return\n        /* \"NewLearning/ACS.sol\":961:1072  function OwnerCheck() public view onlyOwer returns (string memory) {... */\n    tag_7:\n      tag_26\n      tag_27\n      jump\t// in\n    tag_26:\n      mload(0x40)\n      tag_28\n      swap2\n      swap1\n      tag_22\n      jump\t// in\n    tag_28:\n      mload(0x40)\n      dup1\n      swap2\n      sub\n      swap1\n      return\n        /* \"NewLearning/ACS.sol\":1078:1187  function userCheck() public view onlyUser returns (string memory) {... */\n    tag_8:\n      tag_29\n      tag_30\n      jump\t// in\n    tag_29:\n      mload(0x40)\n      tag_31\n      swap2\n      swap1\n      tag_22\n      jump\t// in\n    tag_31:\n      mload(0x40)\n      dup1\n      swap2\n      sub\n      swap1\n      return\n        /* \"NewLearning/ACS.sol\":1301:1398  function checkStatus(address _add) public view returns (Role) {... */\n    tag_12:\n        /* \"NewLearning/ACS.sol\":1357:1361  Role */\n      0x00\n        /* \"NewLearning/ACS.sol\":1380:1385  roles */\n      0x01\n        /* \"NewLearning/ACS.sol\":1380:1391  roles[_add] */\n      0x00\n        /* \"NewLearning/ACS.sol\":1386:1390  _add */\n      dup4\n        /* \"NewLearning/ACS.sol\":1380:1391  roles[_add] */\n      0xffffffffffffffffffffffffffffffffffffffff\n      and\n      0xffffffffffffffffffffffffffffffffffffffff\n      and\n      dup2\n      mstore\n      0x20\n      add\n      swap1\n      dup2\n      mstore\n      0x20\n      add\n      0x00\n      keccak256\n      0x00\n      swap1\n      sload\n      swap1\n      0x0100\n      exp\n      swap1\n      div\n      0xff\n      and\n        /* \"NewLearning/ACS.sol\":1373:1391  return roles[_add] */\n      swap1\n      pop\n        /* \"NewLearning/ACS.sol\":1301:1398  function checkStatus(address _add) public view returns (Role) {... */\n      swap2\n      swap1\n      pop\n      jump\t// out\n        /* \"NewLearning/ACS.sol\":741:845  function setRole(address _address, Role _role) public onlyAdmin {... */\n    tag_18:\n        /* \"NewLearning/ACS.sol\":298:308  Role.Admin */\n      0x02\n        /* \"NewLearning/ACS.sol\":277:308  roles[msg.sender] == Role.Admin */\n      dup1\n      dup2\n      gt\n      iszero\n      tag_34\n      jumpi\n      tag_35\n      tag_36\n      jump\t// in\n    tag_35:\n    tag_34:\n        /* \"NewLearning/ACS.sol\":277:282  roles */\n      0x01\n        /* \"NewLearning/ACS.sol\":277:294  roles[msg.sender] */\n      0x00\n        /* \"NewLearning/ACS.sol\":283:293  msg.sender */\n      caller\n        /* \"NewLearning/ACS.sol\":277:294  roles[msg.sender] */\n      0xffffffffffffffffffffffffffffffffffffffff\n      and\n      0xffffffffffffffffffffffffffffffffffffffff\n      and\n      dup2\n      mstore\n      0x20\n      add\n      swap1\n      dup2\n      mstore\n      0x20\n      add\n      0x00\n      keccak256\n      0x00\n      swap1\n      sload\n      swap1\n      0x0100\n      exp\n      swap1\n      div\n      0xff\n      and\n        /* \"NewLearning/ACS.sol\":277:308  roles[msg.sender] == Role.Admin */\n      0x02\n      dup2\n      gt\n      iszero\n      tag_37\n      jumpi\n      tag_38\n      tag_36\n      jump\t// in\n    tag_38:\n    tag_37:\n      eq\n        /* \"NewLearning/ACS.sol\":256:380  require(... */\n      tag_39\n      jumpi\n      mload(0x40)\n      0x08c379a000000000000000000000000000000000000000000000000000000000\n      dup2\n      mstore\n      0x04\n      add\n      tag_40\n      swap1\n      tag_41\n      jump\t// in\n    tag_40:\n      mload(0x40)\n      dup1\n      swap2\n      sub\n      swap1\n      revert\n    tag_39:\n        /* \"NewLearning/ACS.sol\":833:838  _role */\n      dup1\n        /* \"NewLearning/ACS.sol\":815:820  roles */\n      0x01\n        /* \"NewLearning/ACS.sol\":815:830  roles[_address] */\n      0x00\n        /* \"NewLearning/ACS.sol\":821:829  _address */\n      dup5\n        /* \"NewLearning/ACS.sol\":815:830  roles[_address] */\n      0xffffffffffffffffffffffffffffffffffffffff\n      and\n      0xffffffffffffffffffffffffffffffffffffffff\n      and\n      dup2\n      mstore\n      0x20\n      add\n      swap1\n      dup2\n      mstore\n      0x20\n      add\n      0x00\n      keccak256\n      0x00\n        /* \"NewLearning/ACS.sol\":815:838  roles[_address] = _role */\n      0x0100\n      exp\n      dup2\n      sload\n      dup2\n      0xff\n      mul\n      not\n      and\n      swap1\n      dup4\n      0x02\n      dup2\n      gt\n      iszero\n      tag_43\n      jumpi\n      tag_44\n      tag_36\n      jump\t// in\n    tag_44:\n    tag_43:\n      mul\n      or\n      swap1\n      sstore\n      pop\n        /* \"NewLearning/ACS.sol\":741:845  function setRole(address _address, Role _role) public onlyAdmin {... */\n      pop\n      pop\n      jump\t// out\n        /* \"NewLearning/ACS.sol\":851:955  function AdminCheck() public view onlyAdmin returns (string memory) {... */\n    tag_20:\n        /* \"NewLearning/ACS.sol\":904:917  string memory */\n      0x60\n        /* \"NewLearning/ACS.sol\":298:308  Role.Admin */\n      0x02\n        /* \"NewLearning/ACS.sol\":277:308  roles[msg.sender] == Role.Admin */\n      dup1\n      dup2\n      gt\n      iszero\n      tag_46\n      jumpi\n      tag_47\n      tag_36\n      jump\t// in\n    tag_47:\n    tag_46:\n        /* \"NewLearning/ACS.sol\":277:282  roles */\n      0x01\n        /* \"NewLearning/ACS.sol\":277:294  roles[msg.sender] */\n      0x00\n        /* \"NewLearning/ACS.sol\":283:293  msg.sender */\n      caller\n        /* \"NewLearning/ACS.sol\":277:294  roles[msg.sender] */\n      0xffffffffffffffffffffffffffffffffffffffff\n      and\n      0xffffffffffffffffffffffffffffffffffffffff\n      and\n      dup2\n      mstore\n      0x20\n      add\n      swap1\n      dup2\n      mstore\n      0x20\n      add\n      0x00\n      keccak256\n      0x00\n      swap1\n      sload\n      swap1\n      0x0100\n      exp\n      swap1\n      div\n      0xff\n      and\n        /* \"NewLearning/ACS.sol\":277:308  roles[msg.sender] == Role.Admin */\n      0x02\n      dup2\n      gt\n      iszero\n      tag_48\n      jumpi\n      tag_49\n      tag_36\n      jump\t// in\n    tag_49:\n    tag_48:\n      eq\n        /* \"NewLearning/ACS.sol\":256:380  require(... */\n      tag_50\n      jumpi\n      mload(0x40)\n      0x08c379a000000000000000000000000000000000000000000000000000000000\n      dup2\n      mstore\n      0x04\n      add\n      tag_51\n      swap1\n      tag_41\n      jump\t// in\n    tag_51:\n      mload(0x40)\n      dup1\n      swap2\n      sub\n      swap1\n      revert\n    tag_50:\n        /* \"NewLearning/ACS.sol\":929:948  return \"Only Admin\" */\n      mload(0x40)\n      dup1\n      0x40\n      add\n      0x40\n      mstore\n      dup1\n      0x0a\n      dup2\n      mstore\n      0x20\n      add\n      0x4f6e6c792041646d696e00000000000000000000000000000000000000000000\n      dup2\n      mstore\n      pop\n      swap1\n      pop\n        /* \"NewLearning/ACS.sol\":851:955  function AdminCheck() public view onlyAdmin returns (string memory) {... */\n      swap1\n      jump\t// out\n        /* \"NewLearning/ACS.sol\":1193:1295  function everyOne() public pure returns (string memory) {... */\n    tag_24:\n        /* \"NewLearning/ACS.sol\":1234:1247  string memory */\n      0x60\n        /* \"NewLearning/ACS.sol\":1259:1288  return \"This is for everyOne\" */\n      mload(0x40)\n      dup1\n      0x40\n      add\n      0x40\n      mstore\n      dup1\n      0x14\n      dup2\n      mstore\n      0x20\n      add\n      0x5468697320697320666f722065766572794f6e65000000000000000000000000\n      dup2\n      mstore\n      pop\n      swap1\n      pop\n        /* \"NewLearning/ACS.sol\":1193:1295  function everyOne() public pure returns (string memory) {... */\n      swap1\n      jump\t// out\n        /* \"NewLearning/ACS.sol\":961:1072  function OwnerCheck() public view onlyOwer returns (string memory) {... */\n    tag_27:\n        /* \"NewLearning/ACS.sol\":1013:1026  string memory */\n      0x60\n        /* \"NewLearning/ACS.sol\":574:579  owner */\n      0x00\n      0x00\n      swap1\n      sload\n      swap1\n      0x0100\n      exp\n      swap1\n      div\n      0xffffffffffffffffffffffffffffffffffffffff\n      and\n        /* \"NewLearning/ACS.sol\":560:579  msg.sender == owner */\n      0xffffffffffffffffffffffffffffffffffffffff\n      and\n        /* \"NewLearning/ACS.sol\":560:570  msg.sender */\n      caller\n        /* \"NewLearning/ACS.sol\":560:579  msg.sender == owner */\n      0xffffffffffffffffffffffffffffffffffffffff\n      and\n      eq\n        /* \"NewLearning/ACS.sol\":552:622  require(msg.sender == owner, \"You are not the owner of this contract\") */\n      tag_55\n      jumpi\n      mload(0x40)\n      0x08c379a000000000000000000000000000000000000000000000000000000000\n      dup2\n      mstore\n      0x04\n      add\n      tag_56\n      swap1\n      tag_57\n      jump\t// in\n    tag_56:\n      mload(0x40)\n      dup1\n      swap2\n      sub\n      swap1\n      revert\n    tag_55:\n        /* \"NewLearning/ACS.sol\":1038:1065  return \"This is only owner\" */\n      mload(0x40)\n      dup1\n      0x40\n      add\n      0x40\n      mstore\n      dup1\n      0x12\n      dup2\n      mstore\n      0x20\n      add\n      0x54686973206973206f6e6c79206f776e65720000000000000000000000000000\n      dup2\n      mstore\n      pop\n      swap1\n      pop\n        /* \"NewLearning/ACS.sol\":961:1072  function OwnerCheck() public view onlyOwer returns (string memory) {... */\n      swap1\n      jump\t// out\n        /* \"NewLearning/ACS.sol\":1078:1187  function userCheck() public view onlyUser returns (string memory) {... */\n    tag_30:\n        /* \"NewLearning/ACS.sol\":1129:1142  string memory */\n      0x60\n        /* \"NewLearning/ACS.sol\":463:472  Role.User */\n      0x01\n        /* \"NewLearning/ACS.sol\":442:472  roles[msg.sender] == Role.User */\n      0x02\n      dup2\n      gt\n      iszero\n      tag_60\n      jumpi\n      tag_61\n      tag_36\n      jump\t// in\n    tag_61:\n    tag_60:\n        /* \"NewLearning/ACS.sol\":442:447  roles */\n      0x01\n        /* \"NewLearning/ACS.sol\":442:459  roles[msg.sender] */\n      0x00\n        /* \"NewLearning/ACS.sol\":448:458  msg.sender */\n      caller\n        /* \"NewLearning/ACS.sol\":442:459  roles[msg.sender] */\n      0xffffffffffffffffffffffffffffffffffffffff\n      and\n      0xffffffffffffffffffffffffffffffffffffffff\n      and\n      dup2\n      mstore\n      0x20\n      add\n      swap1\n      dup2\n      mstore\n      0x20\n      add\n      0x00\n      keccak256\n      0x00\n      swap1\n      sload\n      swap1\n      0x0100\n      exp\n      swap1\n      div\n      0xff\n      and\n        /* \"NewLearning/ACS.sol\":442:472  roles[msg.sender] == Role.User */\n      0x02\n      dup2\n      gt\n      iszero\n      tag_62\n      jumpi\n      tag_63\n      tag_36\n      jump\t// in\n    tag_63:\n    tag_62:\n      eq\n        /* \"NewLearning/ACS.sol\":434:498  require(roles[msg.sender] == Role.User, \"Only User can do this\") */\n      tag_64\n      jumpi\n      mload(0x40)\n      0x08c379a000000000000000000000000000000000000000000000000000000000\n      dup2\n      mstore\n      0x04\n      add\n      tag_65\n      swap1\n      tag_66\n      jump\t// in\n    tag_65:\n      mload(0x40)\n      dup1\n      swap2\n      sub\n      swap1\n      revert\n    tag_64:\n        /* \"NewLearning/ACS.sol\":1154:1180  return \"This is for Users\" */\n      mload(0x40)\n      dup1\n      0x40\n      add\n      0x40\n      mstore\n      dup1\n      0x11\n      dup2\n      mstore\n      0x20\n      add\n      0x5468697320697320666f72205573657273000000000000000000000000000000\n      dup2\n      mstore\n      pop\n      swap1\n      pop\n        /* \"NewLearning/ACS.sol\":1078:1187  function userCheck() public view onlyUser returns (string memory) {... */\n      swap1\n      jump\t// out\n        /* \"#utility.yul\":88:205   */\n    tag_69:\n        /* \"#utility.yul\":197:198   */\n      0x00\n        /* \"#utility.yul\":194:195   */\n      0x00\n        /* \"#utility.yul\":187:199   */\n      revert\n        /* \"#utility.yul\":334:460   */\n    tag_71:\n        /* \"#utility.yul\":371:378   */\n      0x00\n        /* \"#utility.yul\":411:453   */\n      0xffffffffffffffffffffffffffffffffffffffff\n        /* \"#utility.yul\":404:409   */\n      dup3\n        /* \"#utility.yul\":400:454   */\n      and\n        /* \"#utility.yul\":389:454   */\n      swap1\n      pop\n        /* \"#utility.yul\":334:460   */\n      swap2\n      swap1\n      pop\n      jump\t// out\n        /* \"#utility.yul\":466:562   */\n    tag_72:\n        /* \"#utility.yul\":503:510   */\n      0x00\n        /* \"#utility.yul\":532:556   */\n      tag_98\n        /* \"#utility.yul\":550:555   */\n      dup3\n        /* \"#utility.yul\":532:556   */\n      tag_71\n      jump\t// in\n    tag_98:\n        /* \"#utility.yul\":521:556   */\n      swap1\n      pop\n        /* \"#utility.yul\":466:562   */\n      swap2\n      swap1\n      pop\n      jump\t// out\n        /* \"#utility.yul\":568:690   */\n    tag_73:\n        /* \"#utility.yul\":641:665   */\n      tag_100\n        /* \"#utility.yul\":659:664   */\n      dup2\n        /* \"#utility.yul\":641:665   */\n      tag_72\n      jump\t// in\n    tag_100:\n        /* \"#utility.yul\":634:639   */\n      dup2\n        /* \"#utility.yul\":631:666   */\n      eq\n        /* \"#utility.yul\":621:684   */\n      tag_101\n      jumpi\n        /* \"#utility.yul\":680:681   */\n      0x00\n        /* \"#utility.yul\":677:678   */\n      0x00\n        /* \"#utility.yul\":670:682   */\n      revert\n        /* \"#utility.yul\":621:684   */\n    tag_101:\n        /* \"#utility.yul\":568:690   */\n      pop\n      jump\t// out\n        /* \"#utility.yul\":696:835   */\n    tag_74:\n        /* \"#utility.yul\":742:747   */\n      0x00\n        /* \"#utility.yul\":780:786   */\n      dup2\n        /* \"#utility.yul\":767:787   */\n      calldataload\n        /* \"#utility.yul\":758:787   */\n      swap1\n      pop\n        /* \"#utility.yul\":796:829   */\n      tag_103\n        /* \"#utility.yul\":823:828   */\n      dup2\n        /* \"#utility.yul\":796:829   */\n      tag_73\n      jump\t// in\n    tag_103:\n        /* \"#utility.yul\":696:835   */\n      swap3\n      swap2\n      pop\n      pop\n      jump\t// out\n        /* \"#utility.yul\":841:1170   */\n    tag_11:\n        /* \"#utility.yul\":900:906   */\n      0x00\n        /* \"#utility.yul\":949:951   */\n      0x20\n        /* \"#utility.yul\":937:946   */\n      dup3\n        /* \"#utility.yul\":928:935   */\n      dup5\n        /* \"#utility.yul\":924:947   */\n      sub\n        /* \"#utility.yul\":920:952   */\n      slt\n        /* \"#utility.yul\":917:1036   */\n      iszero\n      tag_105\n      jumpi\n        /* \"#utility.yul\":955:1034   */\n      tag_106\n      tag_69\n      jump\t// in\n    tag_106:\n        /* \"#utility.yul\":917:1036   */\n    tag_105:\n        /* \"#utility.yul\":1075:1076   */\n      0x00\n        /* \"#utility.yul\":1100:1153   */\n      tag_107\n        /* \"#utility.yul\":1145:1152   */\n      dup5\n        /* \"#utility.yul\":1136:1142   */\n      dup3\n        /* \"#utility.yul\":1125:1134   */\n      dup6\n        /* \"#utility.yul\":1121:1143   */\n      add\n        /* \"#utility.yul\":1100:1153   */\n      tag_74\n      jump\t// in\n    tag_107:\n        /* \"#utility.yul\":1090:1153   */\n      swap2\n      pop\n        /* \"#utility.yul\":1046:1163   */\n      pop\n        /* \"#utility.yul\":841:1170   */\n      swap3\n      swap2\n      pop\n      pop\n      jump\t// out\n        /* \"#utility.yul\":1176:1356   */\n    tag_36:\n        /* \"#utility.yul\":1224:1301   */\n      0x4e487b7100000000000000000000000000000000000000000000000000000000\n        /* \"#utility.yul\":1221:1222   */\n      0x00\n        /* \"#utility.yul\":1214:1302   */\n      mstore\n        /* \"#utility.yul\":1321:1325   */\n      0x21\n        /* \"#utility.yul\":1318:1319   */\n      0x04\n        /* \"#utility.yul\":1311:1326   */\n      mstore\n        /* \"#utility.yul\":1345:1349   */\n      0x24\n        /* \"#utility.yul\":1342:1343   */\n      0x00\n        /* \"#utility.yul\":1335:1350   */\n      revert\n        /* \"#utility.yul\":1362:1473   */\n    tag_75:\n        /* \"#utility.yul\":1441:1442   */\n      0x03\n        /* \"#utility.yul\":1434:1439   */\n      dup2\n        /* \"#utility.yul\":1431:1443   */\n      lt\n        /* \"#utility.yul\":1421:1467   */\n      tag_110\n      jumpi\n        /* \"#utility.yul\":1447:1465   */\n      tag_111\n      tag_36\n      jump\t// in\n    tag_111:\n        /* \"#utility.yul\":1421:1467   */\n    tag_110:\n        /* \"#utility.yul\":1362:1473   */\n      pop\n      jump\t// out\n        /* \"#utility.yul\":1479:1602   */\n    tag_76:\n        /* \"#utility.yul\":1522:1529   */\n      0x00\n        /* \"#utility.yul\":1551:1556   */\n      dup2\n        /* \"#utility.yul\":1540:1556   */\n      swap1\n      pop\n        /* \"#utility.yul\":1557:1596   */\n      tag_113\n        /* \"#utility.yul\":1590:1595   */\n      dup3\n        /* \"#utility.yul\":1557:1596   */\n      tag_75\n      jump\t// in\n    tag_113:\n        /* \"#utility.yul\":1479:1602   */\n      swap2\n      swap1\n      pop\n      jump\t// out\n        /* \"#utility.yul\":1608:1731   */\n    tag_77:\n        /* \"#utility.yul\":1662:1671   */\n      0x00\n        /* \"#utility.yul\":1695:1725   */\n      tag_115\n        /* \"#utility.yul\":1719:1724   */\n      dup3\n        /* \"#utility.yul\":1695:1725   */\n      tag_76\n      jump\t// in\n    tag_115:\n        /* \"#utility.yul\":1682:1725   */\n      swap1\n      pop\n        /* \"#utility.yul\":1608:1731   */\n      swap2\n      swap1\n      pop\n      jump\t// out\n        /* \"#utility.yul\":1737:1876   */\n    tag_78:\n        /* \"#utility.yul\":1828:1869   */\n      tag_117\n        /* \"#utility.yul\":1863:1868   */\n      dup2\n        /* \"#utility.yul\":1828:1869   */\n      tag_77\n      jump\t// in\n    tag_117:\n        /* \"#utility.yul\":1823:1826   */\n      dup3\n        /* \"#utility.yul\":1816:1870   */\n      mstore\n        /* \"#utility.yul\":1737:1876   */\n      pop\n      pop\n      jump\t// out\n        /* \"#utility.yul\":1882:2112   */\n    tag_14:\n        /* \"#utility.yul\":1979:1983   */\n      0x00\n        /* \"#utility.yul\":2017:2019   */\n      0x20\n        /* \"#utility.yul\":2006:2015   */\n      dup3\n        /* \"#utility.yul\":2002:2020   */\n      add\n        /* \"#utility.yul\":1994:2020   */\n      swap1\n      pop\n        /* \"#utility.yul\":2030:2105   */\n      tag_119\n        /* \"#utility.yul\":2102:2103   */\n      0x00\n        /* \"#utility.yul\":2091:2100   */\n      dup4\n        /* \"#utility.yul\":2087:2104   */\n      add\n        /* \"#utility.yul\":2078:2084   */\n      dup5\n        /* \"#utility.yul\":2030:2105   */\n      tag_78\n      jump\t// in\n    tag_119:\n        /* \"#utility.yul\":1882:2112   */\n      swap3\n      swap2\n      pop\n      pop\n      jump\t// out\n        /* \"#utility.yul\":2118:2223   */\n    tag_79:\n        /* \"#utility.yul\":2197:2198   */\n      0x03\n        /* \"#utility.yul\":2190:2195   */\n      dup2\n        /* \"#utility.yul\":2187:2199   */\n      lt\n        /* \"#utility.yul\":2177:2217   */\n      tag_121\n      jumpi\n        /* \"#utility.yul\":2213:2214   */\n      0x00\n        /* \"#utility.yul\":2210:2211   */\n      0x00\n        /* \"#utility.yul\":2203:2215   */\n      revert\n        /* \"#utility.yul\":2177:2217   */\n    tag_121:\n        /* \"#utility.yul\":2118:2223   */\n      pop\n      jump\t// out\n        /* \"#utility.yul\":2229:2380   */\n    tag_80:\n        /* \"#utility.yul\":2281:2286   */\n      0x00\n        /* \"#utility.yul\":2319:2325   */\n      dup2\n        /* \"#utility.yul\":2306:2326   */\n      calldataload\n        /* \"#utility.yul\":2297:2326   */\n      swap1\n      pop\n        /* \"#utility.yul\":2335:2374   */\n      tag_123\n        /* \"#utility.yul\":2368:2373   */\n      dup2\n        /* \"#utility.yul\":2335:2374   */\n      tag_79\n      jump\t// in\n    tag_123:\n        /* \"#utility.yul\":2229:2380   */\n      swap3\n      swap2\n      pop\n      pop\n      jump\t// out\n        /* \"#utility.yul\":2386:2872   */\n    tag_17:\n        /* \"#utility.yul\":2460:2466   */\n      0x00\n        /* \"#utility.yul\":2468:2474   */\n      0x00\n        /* \"#utility.yul\":2517:2519   */\n      0x40\n        /* \"#utility.yul\":2505:2514   */\n      dup4\n        /* \"#utility.yul\":2496:2503   */\n      dup6\n        /* \"#utility.yul\":2492:2515   */\n      sub\n        /* \"#utility.yul\":2488:2520   */\n      slt\n        /* \"#utility.yul\":2485:2604   */\n      iszero\n      tag_125\n      jumpi\n        /* \"#utility.yul\":2523:2602   */\n      tag_126\n      tag_69\n      jump\t// in\n    tag_126:\n        /* \"#utility.yul\":2485:2604   */\n    tag_125:\n        /* \"#utility.yul\":2643:2644   */\n      0x00\n        /* \"#utility.yul\":2668:2721   */\n      tag_127\n        /* \"#utility.yul\":2713:2720   */\n      dup6\n        /* \"#utility.yul\":2704:2710   */\n      dup3\n        /* \"#utility.yul\":2693:2702   */\n      dup7\n        /* \"#utility.yul\":2689:2711   */\n      add\n        /* \"#utility.yul\":2668:2721   */\n      tag_74\n      jump\t// in\n    tag_127:\n        /* \"#utility.yul\":2658:2721   */\n      swap3\n      pop\n        /* \"#utility.yul\":2614:2731   */\n      pop\n        /* \"#utility.yul\":2770:2772   */\n      0x20\n        /* \"#utility.yul\":2796:2855   */\n      tag_128\n        /* \"#utility.yul\":2847:2854   */\n      dup6\n        /* \"#utility.yul\":2838:2844   */\n      dup3\n        /* \"#utility.yul\":2827:2836   */\n      dup7\n        /* \"#utility.yul\":2823:2845   */\n      add\n        /* \"#utility.yul\":2796:2855   */\n      tag_80\n      jump\t// in\n    tag_128:\n        /* \"#utility.yul\":2786:2855   */\n      swap2\n      pop\n        /* \"#utility.yul\":2741:2865   */\n      pop\n        /* \"#utility.yul\":2386:2872   */\n      swap3\n      pop\n      swap3\n      swap1\n      pop\n      jump\t// out\n        /* \"#utility.yul\":2878:2977   */\n    tag_81:\n        /* \"#utility.yul\":2930:2936   */\n      0x00\n        /* \"#utility.yul\":2964:2969   */\n      dup2\n        /* \"#utility.yul\":2958:2970   */\n      mload\n        /* \"#utility.yul\":2948:2970   */\n      swap1\n      pop\n        /* \"#utility.yul\":2878:2977   */\n      swap2\n      swap1\n      pop\n      jump\t// out\n        /* \"#utility.yul\":2983:3152   */\n    tag_82:\n        /* \"#utility.yul\":3067:3078   */\n      0x00\n        /* \"#utility.yul\":3101:3107   */\n      dup3\n        /* \"#utility.yul\":3096:3099   */\n      dup3\n        /* \"#utility.yul\":3089:3108   */\n      mstore\n        /* \"#utility.yul\":3141:3145   */\n      0x20\n        /* \"#utility.yul\":3136:3139   */\n      dup3\n        /* \"#utility.yul\":3132:3146   */\n      add\n        /* \"#utility.yul\":3117:3146   */\n      swap1\n      pop\n        /* \"#utility.yul\":2983:3152   */\n      swap3\n      swap2\n      pop\n      pop\n      jump\t// out\n        /* \"#utility.yul\":3158:3297   */\n    tag_83:\n        /* \"#utility.yul\":3247:3253   */\n      dup3\n        /* \"#utility.yul\":3242:3245   */\n      dup2\n        /* \"#utility.yul\":3237:3240   */\n      dup4\n        /* \"#utility.yul\":3231:3254   */\n      mcopy\n        /* \"#utility.yul\":3288:3289   */\n      0x00\n        /* \"#utility.yul\":3279:3285   */\n      dup4\n        /* \"#utility.yul\":3274:3277   */\n      dup4\n        /* \"#utility.yul\":3270:3286   */\n      add\n        /* \"#utility.yul\":3263:3290   */\n      mstore\n        /* \"#utility.yul\":3158:3297   */\n      pop\n      pop\n      pop\n      jump\t// out\n        /* \"#utility.yul\":3303:3405   */\n    tag_84:\n        /* \"#utility.yul\":3344:3350   */\n      0x00\n        /* \"#utility.yul\":3395:3397   */\n      0x1f\n        /* \"#utility.yul\":3391:3398   */\n      not\n        /* \"#utility.yul\":3386:3388   */\n      0x1f\n        /* \"#utility.yul\":3379:3384   */\n      dup4\n        /* \"#utility.yul\":3375:3389   */\n      add\n        /* \"#utility.yul\":3371:3399   */\n      and\n        /* \"#utility.yul\":3361:3399   */\n      swap1\n      pop\n        /* \"#utility.yul\":3303:3405   */\n      swap2\n      swap1\n      pop\n      jump\t// out\n        /* \"#utility.yul\":3411:3788   */\n    tag_85:\n        /* \"#utility.yul\":3499:3502   */\n      0x00\n        /* \"#utility.yul\":3527:3566   */\n      tag_134\n        /* \"#utility.yul\":3560:3565   */\n      dup3\n        /* \"#utility.yul\":3527:3566   */\n      tag_81\n      jump\t// in\n    tag_134:\n        /* \"#utility.yul\":3582:3653   */\n      tag_135\n        /* \"#utility.yul\":3646:3652   */\n      dup2\n        /* \"#utility.yul\":3641:3644   */\n      dup6\n        /* \"#utility.yul\":3582:3653   */\n      tag_82\n      jump\t// in\n    tag_135:\n        /* \"#utility.yul\":3575:3653   */\n      swap4\n      pop\n        /* \"#utility.yul\":3662:3727   */\n      tag_136\n        /* \"#utility.yul\":3720:3726   */\n      dup2\n        /* \"#utility.yul\":3715:3718   */\n      dup6\n        /* \"#utility.yul\":3708:3712   */\n      0x20\n        /* \"#utility.yul\":3701:3706   */\n      dup7\n        /* \"#utility.yul\":3697:3713   */\n      add\n        /* \"#utility.yul\":3662:3727   */\n      tag_83\n      jump\t// in\n    tag_136:\n        /* \"#utility.yul\":3752:3781   */\n      tag_137\n        /* \"#utility.yul\":3774:3780   */\n      dup2\n        /* \"#utility.yul\":3752:3781   */\n      tag_84\n      jump\t// in\n    tag_137:\n        /* \"#utility.yul\":3747:3750   */\n      dup5\n        /* \"#utility.yul\":3743:3782   */\n      add\n        /* \"#utility.yul\":3736:3782   */\n      swap2\n      pop\n        /* \"#utility.yul\":3503:3788   */\n      pop\n        /* \"#utility.yul\":3411:3788   */\n      swap3\n      swap2\n      pop\n      pop\n      jump\t// out\n        /* \"#utility.yul\":3794:4107   */\n    tag_22:\n        /* \"#utility.yul\":3907:3911   */\n      0x00\n        /* \"#utility.yul\":3945:3947   */\n      0x20\n        /* \"#utility.yul\":3934:3943   */\n      dup3\n        /* \"#utility.yul\":3930:3948   */\n      add\n        /* \"#utility.yul\":3922:3948   */\n      swap1\n      pop\n        /* \"#utility.yul\":3994:4003   */\n      dup2\n        /* \"#utility.yul\":3988:3992   */\n      dup2\n        /* \"#utility.yul\":3984:4004   */\n      sub\n        /* \"#utility.yul\":3980:3981   */\n      0x00\n        /* \"#utility.yul\":3969:3978   */\n      dup4\n        /* \"#utility.yul\":3965:3982   */\n      add\n        /* \"#utility.yul\":3958:4005   */\n      mstore\n        /* \"#utility.yul\":4022:4100   */\n      tag_139\n        /* \"#utility.yul\":4095:4099   */\n      dup2\n        /* \"#utility.yul\":4086:4092   */\n      dup5\n        /* \"#utility.yul\":4022:4100   */\n      tag_85\n      jump\t// in\n    tag_139:\n        /* \"#utility.yul\":4014:4100   */\n      swap1\n      pop\n        /* \"#utility.yul\":3794:4107   */\n      swap3\n      swap2\n      pop\n      pop\n      jump\t// out\n        /* \"#utility.yul\":4113:4346   */\n    tag_86:\n        /* \"#utility.yul\":4253:4287   */\n      0x596f7520617265206e6f74207468652061646d696e2c206f6e6c792061646d69\n        /* \"#utility.yul\":4249:4250   */\n      0x00\n        /* \"#utility.yul\":4241:4247   */\n      dup3\n        /* \"#utility.yul\":4237:4251   */\n      add\n        /* \"#utility.yul\":4230:4288   */\n      mstore\n        /* \"#utility.yul\":4322:4338   */\n      0x6e2063616e20646f20746869732e000000000000000000000000000000000000\n        /* \"#utility.yul\":4317:4319   */\n      0x20\n        /* \"#utility.yul\":4309:4315   */\n      dup3\n        /* \"#utility.yul\":4305:4320   */\n      add\n        /* \"#utility.yul\":4298:4339   */\n      mstore\n        /* \"#utility.yul\":4113:4346   */\n      pop\n      jump\t// out\n        /* \"#utility.yul\":4352:4718   */\n    tag_87:\n        /* \"#utility.yul\":4494:4497   */\n      0x00\n        /* \"#utility.yul\":4515:4582   */\n      tag_142\n        /* \"#utility.yul\":4579:4581   */\n      0x2e\n        /* \"#utility.yul\":4574:4577   */\n      dup4\n        /* \"#utility.yul\":4515:4582   */\n      tag_82\n      jump\t// in\n    tag_142:\n        /* \"#utility.yul\":4508:4582   */\n      swap2\n      pop\n        /* \"#utility.yul\":4591:4684   */\n      tag_143\n        /* \"#utility.yul\":4680:4683   */\n      dup3\n        /* \"#utility.yul\":4591:4684   */\n      tag_86\n      jump\t// in\n    tag_143:\n        /* \"#utility.yul\":4709:4711   */\n      0x40\n        /* \"#utility.yul\":4704:4707   */\n      dup3\n        /* \"#utility.yul\":4700:4712   */\n      add\n        /* \"#utility.yul\":4693:4712   */\n      swap1\n      pop\n        /* \"#utility.yul\":4352:4718   */\n      swap2\n      swap1\n      pop\n      jump\t// out\n        /* \"#utility.yul\":4724:5143   */\n    tag_41:\n        /* \"#utility.yul\":4890:4894   */\n      0x00\n        /* \"#utility.yul\":4928:4930   */\n      0x20\n        /* \"#utility.yul\":4917:4926   */\n      dup3\n        /* \"#utility.yul\":4913:4931   */\n      add\n        /* \"#utility.yul\":4905:4931   */\n      swap1\n      pop\n        /* \"#utility.yul\":4977:4986   */\n      dup2\n        /* \"#utility.yul\":4971:4975   */\n      dup2\n        /* \"#utility.yul\":4967:4987   */\n      sub\n        /* \"#utility.yul\":4963:4964   */\n      0x00\n        /* \"#utility.yul\":4952:4961   */\n      dup4\n        /* \"#utility.yul\":4948:4965   */\n      add\n        /* \"#utility.yul\":4941:4988   */\n      mstore\n        /* \"#utility.yul\":5005:5136   */\n      tag_145\n        /* \"#utility.yul\":5131:5135   */\n      dup2\n        /* \"#utility.yul\":5005:5136   */\n      tag_87\n      jump\t// in\n    tag_145:\n        /* \"#utility.yul\":4997:5136   */\n      swap1\n      pop\n        /* \"#utility.yul\":4724:5143   */\n      swap2\n      swap1\n      pop\n      jump\t// out\n        /* \"#utility.yul\":5149:5374   */\n    tag_88:\n        /* \"#utility.yul\":5289:5323   */\n      0x596f7520617265206e6f7420746865206f776e6572206f66207468697320636f\n        /* \"#utility.yul\":5285:5286   */\n      0x00\n        /* \"#utility.yul\":5277:5283   */\n      dup3\n        /* \"#utility.yul\":5273:5287   */\n      add\n        /* \"#utility.yul\":5266:5324   */\n      mstore\n        /* \"#utility.yul\":5358:5366   */\n      0x6e74726163740000000000000000000000000000000000000000000000000000\n        /* \"#utility.yul\":5353:5355   */\n      0x20\n        /* \"#utility.yul\":5345:5351   */\n      dup3\n        /* \"#utility.yul\":5341:5356   */\n      add\n        /* \"#utility.yul\":5334:5367   */\n      mstore\n        /* \"#utility.yul\":5149:5374   */\n      pop\n      jump\t// out\n        /* \"#utility.yul\":5380:5746   */\n    tag_89:\n        /* \"#utility.yul\":5522:5525   */\n      0x00\n        /* \"#utility.yul\":5543:5610   */\n      tag_148\n        /* \"#utility.yul\":5607:5609   */\n      0x26\n        /* \"#utility.yul\":5602:5605   */\n      dup4\n        /* \"#utility.yul\":5543:5610   */\n      tag_82\n      jump\t// in\n    tag_148:\n        /* \"#utility.yul\":5536:5610   */\n      swap2\n      pop\n        /* \"#utility.yul\":5619:5712   */\n      tag_149\n        /* \"#utility.yul\":5708:5711   */\n      dup3\n        /* \"#utility.yul\":5619:5712   */\n      tag_88\n      jump\t// in\n    tag_149:\n        /* \"#utility.yul\":5737:5739   */\n      0x40\n        /* \"#utility.yul\":5732:5735   */\n      dup3\n        /* \"#utility.yul\":5728:5740   */\n      add\n        /* \"#utility.yul\":5721:5740   */\n      swap1\n      pop\n        /* \"#utility.yul\":5380:5746   */\n      swap2\n      swap1\n      pop\n      jump\t// out\n        /* \"#utility.yul\":5752:6171   */\n    tag_57:\n        /* \"#utility.yul\":5918:5922   */\n      0x00\n        /* \"#utility.yul\":5956:5958   */\n      0x20\n        /* \"#utility.yul\":5945:5954   */\n      dup3\n        /* \"#utility.yul\":5941:5959   */\n      add\n        /* \"#utility.yul\":5933:5959   */\n      swap1\n      pop\n        /* \"#utility.yul\":6005:6014   */\n      dup2\n        /* \"#utility.yul\":5999:6003   */\n      dup2\n        /* \"#utility.yul\":5995:6015   */\n      sub\n        /* \"#utility.yul\":5991:5992   */\n      0x00\n        /* \"#utility.yul\":5980:5989   */\n      dup4\n        /* \"#utility.yul\":5976:5993   */\n      add\n        /* \"#utility.yul\":5969:6016   */\n      mstore\n        /* \"#utility.yul\":6033:6164   */\n      tag_151\n        /* \"#utility.yul\":6159:6163   */\n      dup2\n        /* \"#utility.yul\":6033:6164   */\n      tag_89\n      jump\t// in\n    tag_151:\n        /* \"#utility.yul\":6025:6164   */\n      swap1\n      pop\n        /* \"#utility.yul\":5752:6171   */\n      swap2\n      swap1\n      pop\n      jump\t// out\n        /* \"#utility.yul\":6177:6348   */\n    tag_90:\n        /* \"#utility.yul\":6317:6340   */\n      0x4f6e6c7920557365722063616e20646f20746869730000000000000000000000\n        /* \"#utility.yul\":6313:6314   */\n      0x00\n        /* \"#utility.yul\":6305:6311   */\n      dup3\n        /* \"#utility.yul\":6301:6315   */\n      add\n        /* \"#utility.yul\":6294:6341   */\n      mstore\n        /* \"#utility.yul\":6177:6348   */\n      pop\n      jump\t// out\n        /* \"#utility.yul\":6354:6720   */\n    tag_91:\n        /* \"#utility.yul\":6496:6499   */\n      0x00\n        /* \"#utility.yul\":6517:6584   */\n      tag_154\n        /* \"#utility.yul\":6581:6583   */\n      0x15\n        /* \"#utility.yul\":6576:6579   */\n      dup4\n        /* \"#utility.yul\":6517:6584   */\n      tag_82\n      jump\t// in\n    tag_154:\n        /* \"#utility.yul\":6510:6584   */\n      swap2\n      pop\n        /* \"#utility.yul\":6593:6686   */\n      tag_155\n        /* \"#utility.yul\":6682:6685   */\n      dup3\n        /* \"#utility.yul\":6593:6686   */\n      tag_90\n      jump\t// in\n    tag_155:\n        /* \"#utility.yul\":6711:6713   */\n      0x20\n        /* \"#utility.yul\":6706:6709   */\n      dup3\n        /* \"#utility.yul\":6702:6714   */\n      add\n        /* \"#utility.yul\":6695:6714   */\n      swap1\n      pop\n        /* \"#utility.yul\":6354:6720   */\n      swap2\n      swap1\n      pop\n      jump\t// out\n        /* \"#utility.yul\":6726:7145   */\n    tag_66:\n        /* \"#utility.yul\":6892:6896   */\n      0x00\n        /* \"#utility.yul\":6930:6932   */\n      0x20\n        /* \"#utility.yul\":6919:6928   */\n      dup3\n        /* \"#utility.yul\":6915:6933   */\n      add\n        /* \"#utility.yul\":6907:6933   */\n      swap1\n      pop\n        /* \"#utility.yul\":6979:6988   */\n      dup2\n        /* \"#utility.yul\":6973:6977   */\n      dup2\n        /* \"#utility.yul\":6969:6989   */\n      sub\n        /* \"#utility.yul\":6965:6966   */\n      0x00\n        /* \"#utility.yul\":6954:6963   */\n      dup4\n        /* \"#utility.yul\":6950:6967   */\n      add\n        /* \"#utility.yul\":6943:6990   */\n      mstore\n        /* \"#utility.yul\":7007:7138   */\n      tag_157\n        /* \"#utility.yul\":7133:7137   */\n      dup2\n        /* \"#utility.yul\":7007:7138   */\n      tag_91\n      jump\t// in\n    tag_157:\n        /* \"#utility.yul\":6999:7138   */\n      swap1\n      pop\n        /* \"#utility.yul\":6726:7145   */\n      swap2\n      swap1\n      pop\n      jump\t// out\n\n    auxdata: 0xa2646970667358221220e174ad5311b11a7ca2df1446eec542e38c01fd55fde059c66259b31c9357795b64736f6c634300081d0033\n}\n",
				"bytecode": {
					"linkReferences": {},
					"object": "6080604052348015600e575f5ffd5b50335f5f6101000a81548173ffffffffffffffffffffffffffffffffffffffff021916908373ffffffffffffffffffffffffffffffffffffffff160217905550600260015f3373ffffffffffffffffffffffffffffffffffffffff1673ffffffffffffffffffffffffffffffffffffffff1681526020019081526020015f205f6101000a81548160ff0219169083600281111560ab5760aa60b4565b5b021790555060e1565b7f4e487b71000000000000000000000000000000000000000000000000000000005f52602160045260245ffd5b610932806100ee5f395ff3fe608060405234801561000f575f5ffd5b5060043610610060575f3560e01c8063340190ec14610064578063571c3e60146100945780636d9a26e2146100b0578063988c7057146100ce5780639fb21cba146100ec578063fec408c11461010a575b5f5ffd5b61007e600480360381019061007991906105d0565b610128565b60405161008b919061066e565b60405180910390f35b6100ae60048036038101906100a991906106aa565b61017a565b005b6100b8610291565b6040516100c59190610758565b60405180910390f35b6100d661037d565b6040516100e39190610758565b60405180910390f35b6100f46103ba565b6040516101019190610758565b60405180910390f35b610112610485565b60405161011f9190610758565b60405180910390f35b5f60015f8373ffffffffffffffffffffffffffffffffffffffff1673ffffffffffffffffffffffffffffffffffffffff1681526020019081526020015f205f9054906101000a900460ff169050919050565b60028081111561018d5761018c6105fb565b5b60015f3373ffffffffffffffffffffffffffffffffffffffff1673ffffffffffffffffffffffffffffffffffffffff1681526020019081526020015f205f9054906101000a900460ff1660028111156101e9576101e86105fb565b5b14610229576040517f08c379a0000000000000000000000000000000000000000000000000000000008152600401610220906107e8565b60405180910390fd5b8060015f8473ffffffffffffffffffffffffffffffffffffffff1673ffffffffffffffffffffffffffffffffffffffff1681526020019081526020015f205f6101000a81548160ff02191690836002811115610288576102876105fb565b5b02179055505050565b60606002808111156102a6576102a56105fb565b5b60015f3373ffffffffffffffffffffffffffffffffffffffff1673ffffffffffffffffffffffffffffffffffffffff1681526020019081526020015f205f9054906101000a900460ff166002811115610302576103016105fb565b5b14610342576040517f08c379a0000000000000000000000000000000000000000000000000000000008152600401610339906107e8565b60405180910390fd5b6040518060400160405280600a81526020017f4f6e6c792041646d696e00000000000000000000000000000000000000000000815250905090565b60606040518060400160405280601481526020017f5468697320697320666f722065766572794f6e65000000000000000000000000815250905090565b60605f5f9054906101000a900473ffffffffffffffffffffffffffffffffffffffff1673ffffffffffffffffffffffffffffffffffffffff163373ffffffffffffffffffffffffffffffffffffffff161461044a576040517f08c379a000000000000000000000000000000000000000000000000000000000815260040161044190610876565b60405180910390fd5b6040518060400160405280601281526020017f54686973206973206f6e6c79206f776e65720000000000000000000000000000815250905090565b60606001600281111561049b5761049a6105fb565b5b60015f3373ffffffffffffffffffffffffffffffffffffffff1673ffffffffffffffffffffffffffffffffffffffff1681526020019081526020015f205f9054906101000a900460ff1660028111156104f7576104f66105fb565b5b14610537576040517f08c379a000000000000000000000000000000000000000000000000000000000815260040161052e906108de565b60405180910390fd5b6040518060400160405280601181526020017f5468697320697320666f72205573657273000000000000000000000000000000815250905090565b5f5ffd5b5f73ffffffffffffffffffffffffffffffffffffffff82169050919050565b5f61059f82610576565b9050919050565b6105af81610595565b81146105b9575f5ffd5b50565b5f813590506105ca816105a6565b92915050565b5f602082840312156105e5576105e4610572565b5b5f6105f2848285016105bc565b91505092915050565b7f4e487b71000000000000000000000000000000000000000000000000000000005f52602160045260245ffd5b60038110610639576106386105fb565b5b50565b5f81905061064982610628565b919050565b5f6106588261063c565b9050919050565b6106688161064e565b82525050565b5f6020820190506106815f83018461065f565b92915050565b60038110610693575f5ffd5b50565b5f813590506106a481610687565b92915050565b5f5f604083850312156106c0576106bf610572565b5b5f6106cd858286016105bc565b92505060206106de85828601610696565b9150509250929050565b5f81519050919050565b5f82825260208201905092915050565b8281835e5f83830152505050565b5f601f19601f8301169050919050565b5f61072a826106e8565b61073481856106f2565b9350610744818560208601610702565b61074d81610710565b840191505092915050565b5f6020820190508181035f8301526107708184610720565b905092915050565b7f596f7520617265206e6f74207468652061646d696e2c206f6e6c792061646d695f8201527f6e2063616e20646f20746869732e000000000000000000000000000000000000602082015250565b5f6107d2602e836106f2565b91506107dd82610778565b604082019050919050565b5f6020820190508181035f8301526107ff816107c6565b9050919050565b7f596f7520617265206e6f7420746865206f776e6572206f66207468697320636f5f8201527f6e74726163740000000000000000000000000000000000000000000000000000602082015250565b5f6108606026836106f2565b915061086b82610806565b604082019050919050565b5f6020820190508181035f83015261088d81610854565b9050919050565b7f4f6e6c7920557365722063616e20646f207468697300000000000000000000005f82015250565b5f6108c86015836106f2565b91506108d382610894565b602082019050919050565b5f6020820190508181035f8301526108f5816108bc565b905091905056fea2646970667358221220e174ad5311b11a7ca2df1446eec542e38c01fd55fde059c66259b31c9357795b64736f6c634300081d0033",
					"opcodes": "PUSH1 0x80 PUSH1 0x40 MSTORE CALLVALUE DUP1 ISZERO PUSH1 0xE JUMPI PUSH0 PUSH0 REVERT JUMPDEST POP CALLER PUSH0 PUSH0 PUSH2 0x100 EXP DUP2 SLOAD DUP2 PUSH20 0xFFFFFFFFFFFFFFFFFFFFFFFFFFFFFFFFFFFFFFFF MUL NOT AND SWAP1 DUP4 PUSH20 0xFFFFFFFFFFFFFFFFFFFFFFFFFFFFFFFFFFFFFFFF AND MUL OR SWAP1 SSTORE POP PUSH1 0x2 PUSH1 0x1 PUSH0 CALLER PUSH20 0xFFFFFFFFFFFFFFFFFFFFFFFFFFFFFFFFFFFFFFFF AND PUSH20 0xFFFFFFFFFFFFFFFFFFFFFFFFFFFFFFFFFFFFFFFF AND DUP2 MSTORE PUSH1 0x20 ADD SWAP1 DUP2 MSTORE PUSH1 0x20 ADD PUSH0 KECCAK256 PUSH0 PUSH2 0x100 EXP DUP2 SLOAD DUP2 PUSH1 0xFF MUL NOT AND SWAP1 DUP4 PUSH1 0x2 DUP2 GT ISZERO PUSH1 0xAB JUMPI PUSH1 0xAA PUSH1 0xB4 JUMP JUMPDEST JUMPDEST MUL OR SWAP1 SSTORE POP PUSH1 0xE1 JUMP JUMPDEST PUSH32 0x4E487B7100000000000000000000000000000000000000000000000000000000 PUSH0 MSTORE PUSH1 0x21 PUSH1 0x4 MSTORE PUSH1 0x24 PUSH0 REVERT JUMPDEST PUSH2 0x932 DUP1 PUSH2 0xEE PUSH0 CODECOPY PUSH0 RETURN INVALID PUSH1 0x80 PUSH1 0x40 MSTORE CALLVALUE DUP1 ISZERO PUSH2 0xF JUMPI PUSH0 PUSH0 REVERT JUMPDEST POP PUSH1 0x4 CALLDATASIZE LT PUSH2 0x60 JUMPI PUSH0 CALLDATALOAD PUSH1 0xE0 SHR DUP1 PUSH4 0x340190EC EQ PUSH2 0x64 JUMPI DUP1 PUSH4 0x571C3E60 EQ PUSH2 0x94 JUMPI DUP1 PUSH4 0x6D9A26E2 EQ PUSH2 0xB0 JUMPI DUP1 PUSH4 0x988C7057 EQ PUSH2 0xCE JUMPI DUP1 PUSH4 0x9FB21CBA EQ PUSH2 0xEC JUMPI DUP1 PUSH4 0xFEC408C1 EQ PUSH2 0x10A JUMPI JUMPDEST PUSH0 PUSH0 REVERT JUMPDEST PUSH2 0x7E PUSH1 0x4 DUP1 CALLDATASIZE SUB DUP2 ADD SWAP1 PUSH2 0x79 SWAP2 SWAP1 PUSH2 0x5D0 JUMP JUMPDEST PUSH2 0x128 JUMP JUMPDEST PUSH1 0x40 MLOAD PUSH2 0x8B SWAP2 SWAP1 PUSH2 0x66E JUMP JUMPDEST PUSH1 0x40 MLOAD DUP1 SWAP2 SUB SWAP1 RETURN JUMPDEST PUSH2 0xAE PUSH1 0x4 DUP1 CALLDATASIZE SUB DUP2 ADD SWAP1 PUSH2 0xA9 SWAP2 SWAP1 PUSH2 0x6AA JUMP JUMPDEST PUSH2 0x17A JUMP JUMPDEST STOP JUMPDEST PUSH2 0xB8 PUSH2 0x291 JUMP JUMPDEST PUSH1 0x40 MLOAD PUSH2 0xC5 SWAP2 SWAP1 PUSH2 0x758 JUMP JUMPDEST PUSH1 0x40 MLOAD DUP1 SWAP2 SUB SWAP1 RETURN JUMPDEST PUSH2 0xD6 PUSH2 0x37D JUMP JUMPDEST PUSH1 0x40 MLOAD PUSH2 0xE3 SWAP2 SWAP1 PUSH2 0x758 JUMP JUMPDEST PUSH1 0x40 MLOAD DUP1 SWAP2 SUB SWAP1 RETURN JUMPDEST PUSH2 0xF4 PUSH2 0x3BA JUMP JUMPDEST PUSH1 0x40 MLOAD PUSH2 0x101 SWAP2 SWAP1 PUSH2 0x758 JUMP JUMPDEST PUSH1 0x40 MLOAD DUP1 SWAP2 SUB SWAP1 RETURN JUMPDEST PUSH2 0x112 PUSH2 0x485 JUMP JUMPDEST PUSH1 0x40 MLOAD PUSH2 0x11F SWAP2 SWAP1 PUSH2 0x758 JUMP JUMPDEST PUSH1 0x40 MLOAD DUP1 SWAP2 SUB SWAP1 RETURN JUMPDEST PUSH0 PUSH1 0x1 PUSH0 DUP4 PUSH20 0xFFFFFFFFFFFFFFFFFFFFFFFFFFFFFFFFFFFFFFFF AND PUSH20 0xFFFFFFFFFFFFFFFFFFFFFFFFFFFFFFFFFFFFFFFF AND DUP2 MSTORE PUSH1 0x20 ADD SWAP1 DUP2 MSTORE PUSH1 0x20 ADD PUSH0 KECCAK256 PUSH0 SWAP1 SLOAD SWAP1 PUSH2 0x100 EXP SWAP1 DIV PUSH1 0xFF AND SWAP1 POP SWAP2 SWAP1 POP JUMP JUMPDEST PUSH1 0x2 DUP1 DUP2 GT ISZERO PUSH2 0x18D JUMPI PUSH2 0x18C PUSH2 0x5FB JUMP JUMPDEST JUMPDEST PUSH1 0x1 PUSH0 CALLER PUSH20 0xFFFFFFFFFFFFFFFFFFFFFFFFFFFFFFFFFFFFFFFF AND PUSH20 0xFFFFFFFFFFFFFFFFFFFFFFFFFFFFFFFFFFFFFFFF AND DUP2 MSTORE PUSH1 0x20 ADD SWAP1 DUP2 MSTORE PUSH1 0x20 ADD PUSH0 KECCAK256 PUSH0 SWAP1 SLOAD SWAP1 PUSH2 0x100 EXP SWAP1 DIV PUSH1 0xFF AND PUSH1 0x2 DUP2 GT ISZERO PUSH2 0x1E9 JUMPI PUSH2 0x1E8 PUSH2 0x5FB JUMP JUMPDEST JUMPDEST EQ PUSH2 0x229 JUMPI PUSH1 0x40 MLOAD PUSH32 0x8C379A000000000000000000000000000000000000000000000000000000000 DUP2 MSTORE PUSH1 0x4 ADD PUSH2 0x220 SWAP1 PUSH2 0x7E8 JUMP JUMPDEST PUSH1 0x40 MLOAD DUP1 SWAP2 SUB SWAP1 REVERT JUMPDEST DUP1 PUSH1 0x1 PUSH0 DUP5 PUSH20 0xFFFFFFFFFFFFFFFFFFFFFFFFFFFFFFFFFFFFFFFF AND PUSH20 0xFFFFFFFFFFFFFFFFFFFFFFFFFFFFFFFFFFFFFFFF AND DUP2 MSTORE PUSH1 0x20 ADD SWAP1 DUP2 MSTORE PUSH1 0x20 ADD PUSH0 KECCAK256 PUSH0 PUSH2 0x100 EXP DUP2 SLOAD DUP2 PUSH1 0xFF MUL NOT AND SWAP1 DUP4 PUSH1 0x2 DUP2 GT ISZERO PUSH2 0x288 JUMPI PUSH2 0x287 PUSH2 0x5FB JUMP JUMPDEST JUMPDEST MUL OR SWAP1 SSTORE POP POP POP JUMP JUMPDEST PUSH1 0x60 PUSH1 0x2 DUP1 DUP2 GT ISZERO PUSH2 0x2A6 JUMPI PUSH2 0x2A5 PUSH2 0x5FB JUMP JUMPDEST JUMPDEST PUSH1 0x1 PUSH0 CALLER PUSH20 0xFFFFFFFFFFFFFFFFFFFFFFFFFFFFFFFFFFFFFFFF AND PUSH20 0xFFFFFFFFFFFFFFFFFFFFFFFFFFFFFFFFFFFFFFFF AND DUP2 MSTORE PUSH1 0x20 ADD SWAP1 DUP2 MSTORE PUSH1 0x20 ADD PUSH0 KECCAK256 PUSH0 SWAP1 SLOAD SWAP1 PUSH2 0x100 EXP SWAP1 DIV PUSH1 0xFF AND PUSH1 0x2 DUP2 GT ISZERO PUSH2 0x302 JUMPI PUSH2 0x301 PUSH2 0x5FB JUMP JUMPDEST JUMPDEST EQ PUSH2 0x342 JUMPI PUSH1 0x40 MLOAD PUSH32 0x8C379A000000000000000000000000000000000000000000000000000000000 DUP2 MSTORE PUSH1 0x4 ADD PUSH2 0x339 SWAP1 PUSH2 0x7E8 JUMP JUMPDEST PUSH1 0x40 MLOAD DUP1 SWAP2 SUB SWAP1 REVERT JUMPDEST PUSH1 0x40 MLOAD DUP1 PUSH1 0x40 ADD PUSH1 0x40 MSTORE DUP1 PUSH1 0xA DUP2 MSTORE PUSH1 0x20 ADD PUSH32 0x4F6E6C792041646D696E00000000000000000000000000000000000000000000 DUP2 MSTORE POP SWAP1 POP SWAP1 JUMP JUMPDEST PUSH1 0x60 PUSH1 0x40 MLOAD DUP1 PUSH1 0x40 ADD PUSH1 0x40 MSTORE DUP1 PUSH1 0x14 DUP2 MSTORE PUSH1 0x20 ADD PUSH32 0x5468697320697320666F722065766572794F6E65000000000000000000000000 DUP2 MSTORE POP SWAP1 POP SWAP1 JUMP JUMPDEST PUSH1 0x60 PUSH0 PUSH0 SWAP1 SLOAD SWAP1 PUSH2 0x100 EXP SWAP1 DIV PUSH20 0xFFFFFFFFFFFFFFFFFFFFFFFFFFFFFFFFFFFFFFFF AND PUSH20 0xFFFFFFFFFFFFFFFFFFFFFFFFFFFFFFFFFFFFFFFF AND CALLER PUSH20 0xFFFFFFFFFFFFFFFFFFFFFFFFFFFFFFFFFFFFFFFF AND EQ PUSH2 0x44A JUMPI PUSH1 0x40 MLOAD PUSH32 0x8C379A000000000000000000000000000000000000000000000000000000000 DUP2 MSTORE PUSH1 0x4 ADD PUSH2 0x441 SWAP1 PUSH2 0x876 JUMP JUMPDEST PUSH1 0x40 MLOAD DUP1 SWAP2 SUB SWAP1 REVERT JUMPDEST PUSH1 0x40 MLOAD DUP1 PUSH1 0x40 ADD PUSH1 0x40 MSTORE DUP1 PUSH1 0x12 DUP2 MSTORE PUSH1 0x20 ADD PUSH32 0x54686973206973206F6E6C79206F776E65720000000000000000000000000000 DUP2 MSTORE POP SWAP1 POP SWAP1 JUMP JUMPDEST PUSH1 0x60 PUSH1 0x1 PUSH1 0x2 DUP2 GT ISZERO PUSH2 0x49B JUMPI PUSH2 0x49A PUSH2 0x5FB JUMP JUMPDEST JUMPDEST PUSH1 0x1 PUSH0 CALLER PUSH20 0xFFFFFFFFFFFFFFFFFFFFFFFFFFFFFFFFFFFFFFFF AND PUSH20 0xFFFFFFFFFFFFFFFFFFFFFFFFFFFFFFFFFFFFFFFF AND DUP2 MSTORE PUSH1 0x20 ADD SWAP1 DUP2 MSTORE PUSH1 0x20 ADD PUSH0 KECCAK256 PUSH0 SWAP1 SLOAD SWAP1 PUSH2 0x100 EXP SWAP1 DIV PUSH1 0xFF AND PUSH1 0x2 DUP2 GT ISZERO PUSH2 0x4F7 JUMPI PUSH2 0x4F6 PUSH2 0x5FB JUMP JUMPDEST JUMPDEST EQ PUSH2 0x537 JUMPI PUSH1 0x40 MLOAD PUSH32 0x8C379A000000000000000000000000000000000000000000000000000000000 DUP2 MSTORE PUSH1 0x4 ADD PUSH2 0x52E SWAP1 PUSH2 0x8DE JUMP JUMPDEST PUSH1 0x40 MLOAD DUP1 SWAP2 SUB SWAP1 REVERT JUMPDEST PUSH1 0x40 MLOAD DUP1 PUSH1 0x40 ADD PUSH1 0x40 MSTORE DUP1 PUSH1 0x11 DUP2 MSTORE PUSH1 0x20 ADD PUSH32 0x5468697320697320666F72205573657273000000000000000000000000000000 DUP2 MSTORE POP SWAP1 POP SWAP1 JUMP JUMPDEST PUSH0 PUSH0 REVERT JUMPDEST PUSH0 PUSH20 0xFFFFFFFFFFFFFFFFFFFFFFFFFFFFFFFFFFFFFFFF DUP3 AND SWAP1 POP SWAP2 SWAP1 POP JUMP JUMPDEST PUSH0 PUSH2 0x59F DUP3 PUSH2 0x576 JUMP JUMPDEST SWAP1 POP SWAP2 SWAP1 POP JUMP JUMPDEST PUSH2 0x5AF DUP2 PUSH2 0x595 JUMP JUMPDEST DUP2 EQ PUSH2 0x5B9 JUMPI PUSH0 PUSH0 REVERT JUMPDEST POP JUMP JUMPDEST PUSH0 DUP2 CALLDATALOAD SWAP1 POP PUSH2 0x5CA DUP2 PUSH2 0x5A6 JUMP JUMPDEST SWAP3 SWAP2 POP POP JUMP JUMPDEST PUSH0 PUSH1 0x20 DUP3 DUP5 SUB SLT ISZERO PUSH2 0x5E5 JUMPI PUSH2 0x5E4 PUSH2 0x572 JUMP JUMPDEST JUMPDEST PUSH0 PUSH2 0x5F2 DUP5 DUP3 DUP6 ADD PUSH2 0x5BC JUMP JUMPDEST SWAP2 POP POP SWAP3 SWAP2 POP POP JUMP JUMPDEST PUSH32 0x4E487B7100000000000000000000000000000000000000000000000000000000 PUSH0 MSTORE PUSH1 0x21 PUSH1 0x4 MSTORE PUSH1 0x24 PUSH0 REVERT JUMPDEST PUSH1 0x3 DUP2 LT PUSH2 0x639 JUMPI PUSH2 0x638 PUSH2 0x5FB JUMP JUMPDEST JUMPDEST POP JUMP JUMPDEST PUSH0 DUP2 SWAP1 POP PUSH2 0x649 DUP3 PUSH2 0x628 JUMP JUMPDEST SWAP2 SWAP1 POP JUMP JUMPDEST PUSH0 PUSH2 0x658 DUP3 PUSH2 0x63C JUMP JUMPDEST SWAP1 POP SWAP2 SWAP1 POP JUMP JUMPDEST PUSH2 0x668 DUP2 PUSH2 0x64E JUMP JUMPDEST DUP3 MSTORE POP POP JUMP JUMPDEST PUSH0 PUSH1 0x20 DUP3 ADD SWAP1 POP PUSH2 0x681 PUSH0 DUP4 ADD DUP5 PUSH2 0x65F JUMP JUMPDEST SWAP3 SWAP2 POP POP JUMP JUMPDEST PUSH1 0x3 DUP2 LT PUSH2 0x693 JUMPI PUSH0 PUSH0 REVERT JUMPDEST POP JUMP JUMPDEST PUSH0 DUP2 CALLDATALOAD SWAP1 POP PUSH2 0x6A4 DUP2 PUSH2 0x687 JUMP JUMPDEST SWAP3 SWAP2 POP POP JUMP JUMPDEST PUSH0 PUSH0 PUSH1 0x40 DUP4 DUP6 SUB SLT ISZERO PUSH2 0x6C0 JUMPI PUSH2 0x6BF PUSH2 0x572 JUMP JUMPDEST JUMPDEST PUSH0 PUSH2 0x6CD DUP6 DUP3 DUP7 ADD PUSH2 0x5BC JUMP JUMPDEST SWAP3 POP POP PUSH1 0x20 PUSH2 0x6DE DUP6 DUP3 DUP7 ADD PUSH2 0x696 JUMP JUMPDEST SWAP2 POP POP SWAP3 POP SWAP3 SWAP1 POP JUMP JUMPDEST PUSH0 DUP2 MLOAD SWAP1 POP SWAP2 SWAP1 POP JUMP JUMPDEST PUSH0 DUP3 DUP3 MSTORE PUSH1 0x20 DUP3 ADD SWAP1 POP SWAP3 SWAP2 POP POP JUMP JUMPDEST DUP3 DUP2 DUP4 MCOPY PUSH0 DUP4 DUP4 ADD MSTORE POP POP POP JUMP JUMPDEST PUSH0 PUSH1 0x1F NOT PUSH1 0x1F DUP4 ADD AND SWAP1 POP SWAP2 SWAP1 POP JUMP JUMPDEST PUSH0 PUSH2 0x72A DUP3 PUSH2 0x6E8 JUMP JUMPDEST PUSH2 0x734 DUP2 DUP6 PUSH2 0x6F2 JUMP JUMPDEST SWAP4 POP PUSH2 0x744 DUP2 DUP6 PUSH1 0x20 DUP7 ADD PUSH2 0x702 JUMP JUMPDEST PUSH2 0x74D DUP2 PUSH2 0x710 JUMP JUMPDEST DUP5 ADD SWAP2 POP POP SWAP3 SWAP2 POP POP JUMP JUMPDEST PUSH0 PUSH1 0x20 DUP3 ADD SWAP1 POP DUP2 DUP2 SUB PUSH0 DUP4 ADD MSTORE PUSH2 0x770 DUP2 DUP5 PUSH2 0x720 JUMP JUMPDEST SWAP1 POP SWAP3 SWAP2 POP POP JUMP JUMPDEST PUSH32 0x596F7520617265206E6F74207468652061646D696E2C206F6E6C792061646D69 PUSH0 DUP3 ADD MSTORE PUSH32 0x6E2063616E20646F20746869732E000000000000000000000000000000000000 PUSH1 0x20 DUP3 ADD MSTORE POP JUMP JUMPDEST PUSH0 PUSH2 0x7D2 PUSH1 0x2E DUP4 PUSH2 0x6F2 JUMP JUMPDEST SWAP2 POP PUSH2 0x7DD DUP3 PUSH2 0x778 JUMP JUMPDEST PUSH1 0x40 DUP3 ADD SWAP1 POP SWAP2 SWAP1 POP JUMP JUMPDEST PUSH0 PUSH1 0x20 DUP3 ADD SWAP1 POP DUP2 DUP2 SUB PUSH0 DUP4 ADD MSTORE PUSH2 0x7FF DUP2 PUSH2 0x7C6 JUMP JUMPDEST SWAP1 POP SWAP2 SWAP1 POP JUMP JUMPDEST PUSH32 0x596F7520617265206E6F7420746865206F776E6572206F66207468697320636F PUSH0 DUP3 ADD MSTORE PUSH32 0x6E74726163740000000000000000000000000000000000000000000000000000 PUSH1 0x20 DUP3 ADD MSTORE POP JUMP JUMPDEST PUSH0 PUSH2 0x860 PUSH1 0x26 DUP4 PUSH2 0x6F2 JUMP JUMPDEST SWAP2 POP PUSH2 0x86B DUP3 PUSH2 0x806 JUMP JUMPDEST PUSH1 0x40 DUP3 ADD SWAP1 POP SWAP2 SWAP1 POP JUMP JUMPDEST PUSH0 PUSH1 0x20 DUP3 ADD SWAP1 POP DUP2 DUP2 SUB PUSH0 DUP4 ADD MSTORE PUSH2 0x88D DUP2 PUSH2 0x854 JUMP JUMPDEST SWAP1 POP SWAP2 SWAP1 POP JUMP JUMPDEST PUSH32 0x4F6E6C7920557365722063616E20646F20746869730000000000000000000000 PUSH0 DUP3 ADD MSTORE POP JUMP JUMPDEST PUSH0 PUSH2 0x8C8 PUSH1 0x15 DUP4 PUSH2 0x6F2 JUMP JUMPDEST SWAP2 POP PUSH2 0x8D3 DUP3 PUSH2 0x894 JUMP JUMPDEST PUSH1 0x20 DUP3 ADD SWAP1 POP SWAP2 SWAP1 POP JUMP JUMPDEST PUSH0 PUSH1 0x20 DUP3 ADD SWAP1 POP DUP2 DUP2 SUB PUSH0 DUP4 ADD MSTORE PUSH2 0x8F5 DUP2 PUSH2 0x8BC JUMP JUMPDEST SWAP1 POP SWAP2 SWAP1 POP JUMP INVALID LOG2 PUSH5 0x6970667358 0x22 SLT KECCAK256 RJUMPI 0x74AD MSTORE8 GT 0xB1 BYTE PUSH29 0xA2DF1446EEC542E38C01FD55FDE059C66259B31C9357795B64736F6C63 NUMBER STOP ADDMOD SAR STOP CALLER "
				},
				"gasEstimates": {
					"creation": {
						"codeDepositCost": "470800",
						"executionCost": "49152",
						"totalCost": "519952"
					},
					"external": {
						"AdminCheck()": "infinite",
						"OwnerCheck()": "infinite",
						"checkStatus(address)": "2936",
						"everyOne()": "infinite",
						"setRole(address,uint8)": "27248",
						"userCheck()": "infinite"
					}
				},
				"methodIdentifiers": {
					"AdminCheck()": "6d9a26e2",
					"OwnerCheck()": "9fb21cba",
					"checkStatus(address)": "340190ec",
					"everyOne()": "988c7057",
					"setRole(address,uint8)": "571c3e60",
					"userCheck()": "fec408c1"
				}
			},
			"storageLayout": {
				"storage": [
					{
						"astId": 7,
						"contract": "NewLearning/ACS.sol:AccessControl",
						"label": "owner",
						"offset": 0,
						"slot": "0",
						"type": "t_address"
					},
					{
						"astId": 12,
						"contract": "NewLearning/ACS.sol:AccessControl",
						"label": "roles",
						"offset": 0,
						"slot": "1",
						"type": "t_mapping(t_address,t_enum(Role)5)"
					}
				],
				"types": {
					"t_address": {
						"encoding": "inplace",
						"label": "address",
						"numberOfBytes": "20"
					},
					"t_enum(Role)5": {
						"encoding": "inplace",
						"label": "enum AccessControl.Role",
						"numberOfBytes": "1"
					},
					"t_mapping(t_address,t_enum(Role)5)": {
						"encoding": "mapping",
						"key": "t_address",
						"label": "mapping(address => enum AccessControl.Role)",
						"numberOfBytes": "32",
						"value": "t_enum(Role)5"
					}
				}
			},
			"userdoc": {
				"kind": "user",
				"methods": {},
				"version": 1
			}
		}
	}
}