{
	"data": {
		"bytecode": {
			"linkReferences": {},
			"object": "60806040526040518060a001604052806040518060400160405280600181526020017f410000000000000000000000000000000000000000000000000000000000000081525081526020016040518060400160405280600181526020017f420000000000000000000000000000000000000000000000000000000000000081525081526020016040518060400160405280600181526020017f430000000000000000000000000000000000000000000000000000000000000081525081526020016040518060400160405280600181526020017f440000000000000000000000000000000000000000000000000000000000000081525081526020016040518060400160405280600181526020017f45000000000000000000000000000000000000000000000000000000000000008152508152505f906005610143929190610155565b5034801561014f575f5ffd5b50610528565b8260058101928215610190579160200282015b8281111561018f57825182908161017f9190610459565b5091602001919060010190610168565b5b50905061019d91906101a1565b5090565b5b808211156101c0575f81816101b791906101c4565b506001016101a2565b5090565b5080546101d090610280565b5f825580601f106101e157506101fe565b601f0160209004905f5260205f20908101906101fd9190610201565b5b50565b5b80821115610218575f815f905550600101610202565b5090565b5f81519050919050565b7f4e487b71000000000000000000000000000000000000000000000000000000005f52604160045260245ffd5b7f4e487b71000000000000000000000000000000000000000000000000000000005f52602260045260245ffd5b5f600282049050600182168061029757607f821691505b6020821081036102aa576102a9610253565b5b50919050565b5f819050815f5260205f209050919050565b5f6020601f8301049050919050565b5f82821b905092915050565b5f6008830261030c7fffffffffffffffffffffffffffffffffffffffffffffffffffffffffffffffff826102d1565b61031686836102d1565b95508019841693508086168417925050509392505050565b5f819050919050565b5f819050919050565b5f61035a6103556103508461032e565b610337565b61032e565b9050919050565b5f819050919050565b61037383610340565b61038761037f82610361565b8484546102dd565b825550505050565b5f5f905090565b61039e61038f565b6103a981848461036a565b505050565b5b818110156103cc576103c15f82610396565b6001810190506103af565b5050565b601f821115610411576103e2816102b0565b6103eb846102c2565b810160208510156103fa578190505b61040e610406856102c2565b8301826103ae565b50505b505050565b5f82821c905092915050565b5f6104315f1984600802610416565b1980831691505092915050565b5f6104498383610422565b9150826002028217905092915050565b6104628261021c565b67ffffffffffffffff81111561047b5761047a610226565b5b6104858254610280565b6104908282856103d0565b5f60209050601f8311600181146104c1575f84156104af578287015190505b6104b9858261043e565b865550610520565b601f1984166104cf866102b0565b5f5b828110156104f6578489015182556001820191506020850194506020810190506104d1565b86831015610513578489015161050f601f891682610422565b8355505b6001600288020188555050505b505050505050565b610c2e806105355f395ff3fe608060405234801561000f575f5ffd5b5060043610610055575f3560e01c806306ead22e1461005957806307bddbac1461008a578063404ebf6c146100a85780639a3f7419146100d8578063bed08038146100f4575b5f5ffd5b610073600480360381019061006e91906103ee565b610124565b604051610081929190610498565b60405180910390f35b6100926101d9565b60405161009f91906104c6565b60405180910390f35b6100c260048036038101906100bd91906103ee565b610235565b6040516100cf91906104df565b60405180910390f35b6100f260048036038101906100ed919061062b565b6102d3565b005b61010e600480360381019061010991906106bb565b610334565b60405161011b9190610700565b60405180910390f35b60068181548110610133575f80fd5b905f5260205f2090600202015f91509050805f01805461015290610746565b80601f016020809104026020016040519081016040528092919081815260200182805461017e90610746565b80156101c95780601f106101a0576101008083540402835291602001916101c9565b820191905f5260205f20905b8154815290600101906020018083116101ac57829003601f168201915b5050505050908060010154905082565b5f5f5f5f90505b5f81111561022d5781600582815481106101fd576101fc610776565b5b905f5260205f20015f82825461021391906107d0565b92505081905550808061022590610803565b9150506101e0565b508091505090565b5f8160058110610243575f80fd5b015f91509050805461025490610746565b80601f016020809104026020016040519081016040528092919081815260200182805461028090610746565b80156102cb5780601f106102a2576101008083540402835291602001916102cb565b820191905f5260205f20905b8154815290600101906020018083116102ae57829003601f168201915b505050505081565b6006604051806040016040528084815260200183815250908060018154018082558091505060019003905f5260205f2090600202015f909190919091505f820151815f01908161032391906109ea565b506020820151816001015550505050565b5f5f8260ff1690505b6001600561034b9190610ab9565b8110156103a0575f60018261036091906107d0565b6005811061037157610370610776565b5b015f826005811061038557610384610776565b5b0190816103929190610b13565b50808060010191505061033d565b5060019050919050565b5f604051905090565b5f5ffd5b5f5ffd5b5f819050919050565b6103cd816103bb565b81146103d7575f5ffd5b50565b5f813590506103e8816103c4565b92915050565b5f60208284031215610403576104026103b3565b5b5f610410848285016103da565b91505092915050565b5f81519050919050565b5f82825260208201905092915050565b8281835e5f83830152505050565b5f601f19601f8301169050919050565b5f61045b82610419565b6104658185610423565b9350610475818560208601610433565b61047e81610441565b840191505092915050565b610492816103bb565b82525050565b5f6040820190508181035f8301526104b08185610451565b90506104bf6020830184610489565b9392505050565b5f6020820190506104d95f830184610489565b92915050565b5f6020820190508181035f8301526104f78184610451565b905092915050565b5f5ffd5b5f5ffd5b7f4e487b71000000000000000000000000000000000000000000000000000000005f52604160045260245ffd5b61053d82610441565b810181811067ffffffffffffffff8211171561055c5761055b610507565b5b80604052505050565b5f61056e6103aa565b905061057a8282610534565b919050565b5f67ffffffffffffffff82111561059957610598610507565b5b6105a282610441565b9050602081019050919050565b828183375f83830152505050565b5f6105cf6105ca8461057f565b610565565b9050828152602081018484840111156105eb576105ea610503565b5b6105f68482856105af565b509392505050565b5f82601f830112610612576106116104ff565b5b81356106228482602086016105bd565b91505092915050565b5f5f60408385031215610641576106406103b3565b5b5f83013567ffffffffffffffff81111561065e5761065d6103b7565b5b61066a858286016105fe565b925050602061067b858286016103da565b9150509250929050565b5f60ff82169050919050565b61069a81610685565b81146106a4575f5ffd5b50565b5f813590506106b581610691565b92915050565b5f602082840312156106d0576106cf6103b3565b5b5f6106dd848285016106a7565b91505092915050565b5f8115159050919050565b6106fa816106e6565b82525050565b5f6020820190506107135f8301846106f1565b92915050565b7f4e487b71000000000000000000000000000000000000000000000000000000005f52602260045260245ffd5b5f600282049050600182168061075d57607f821691505b6020821081036107705761076f610719565b5b50919050565b7f4e487b71000000000000000000000000000000000000000000000000000000005f52603260045260245ffd5b7f4e487b71000000000000000000000000000000000000000000000000000000005f52601160045260245ffd5b5f6107da826103bb565b91506107e5836103bb565b92508282019050808211156107fd576107fc6107a3565b5b92915050565b5f61080d826103bb565b91507fffffffffffffffffffffffffffffffffffffffffffffffffffffffffffffffff820361083f5761083e6107a3565b5b600182019050919050565b5f819050815f5260205f209050919050565b5f6020601f8301049050919050565b5f82821b905092915050565b5f600883026108a67fffffffffffffffffffffffffffffffffffffffffffffffffffffffffffffffff8261086b565b6108b0868361086b565b95508019841693508086168417925050509392505050565b5f819050919050565b5f6108eb6108e66108e1846103bb565b6108c8565b6103bb565b9050919050565b5f819050919050565b610904836108d1565b610918610910826108f2565b848454610877565b825550505050565b5f5f905090565b61092f610920565b61093a8184846108fb565b505050565b5b8181101561095d576109525f82610927565b600181019050610940565b5050565b601f8211156109a2576109738161084a565b61097c8461085c565b8101602085101561098b578190505b61099f6109978561085c565b83018261093f565b50505b505050565b5f82821c905092915050565b5f6109c25f19846008026109a7565b1980831691505092915050565b5f6109da83836109b3565b9150826002028217905092915050565b6109f382610419565b67ffffffffffffffff811115610a0c57610a0b610507565b5b610a168254610746565b610a21828285610961565b5f60209050601f831160018114610a52575f8415610a40578287015190505b610a4a85826109cf565b865550610ab1565b601f198416610a608661084a565b5f5b82811015610a8757848901518255600182019150602085019450602081019050610a62565b86831015610aa45784890151610aa0601f8916826109b3565b8355505b6001600288020188555050505b505050505050565b5f610ac3826103bb565b9150610ace836103bb565b9250828203905081811115610ae657610ae56107a3565b5b92915050565b5f81549050610afa81610746565b9050919050565b5f819050815f5260205f209050919050565b818103610b21575050610bf6565b610b2a82610aec565b67ffffffffffffffff811115610b4357610b42610507565b5b610b4d8254610746565b610b58828285610961565b5f601f831160018114610b85575f8415610b73578287015490505b610b7d85826109cf565b865550610bef565b601f198416610b9387610b01565b9650610b9e8661084a565b5f5b82811015610bc557848901548255600182019150600185019450602081019050610ba0565b86831015610be25784890154610bde601f8916826109b3565b8355505b6001600288020188555050505b5050505050505b56fea264697066735822122083d4d1293a795601fe4ab2fb33c52bddbf6f18626db6f8e809351cc623d12d3b64736f6c634300081d0033",
			"opcodes": "PUSH1 0x80 PUSH1 0x40 MSTORE PUSH1 0x40 MLOAD DUP1 PUSH1 0xA0 ADD PUSH1 0x40 MSTORE DUP1 PUSH1 0x40 MLOAD DUP1 PUSH1 0x40 ADD PUSH1 0x40 MSTORE DUP1 PUSH1 0x1 DUP2 MSTORE PUSH1 0x20 ADD PUSH32 0x4100000000000000000000000000000000000000000000000000000000000000 DUP2 MSTORE POP DUP2 MSTORE PUSH1 0x20 ADD PUSH1 0x40 MLOAD DUP1 PUSH1 0x40 ADD PUSH1 0x40 MSTORE DUP1 PUSH1 0x1 DUP2 MSTORE PUSH1 0x20 ADD PUSH32 0x4200000000000000000000000000000000000000000000000000000000000000 DUP2 MSTORE POP DUP2 MSTORE PUSH1 0x20 ADD PUSH1 0x40 MLOAD DUP1 PUSH1 0x40 ADD PUSH1 0x40 MSTORE DUP1 PUSH1 0x1 DUP2 MSTORE PUSH1 0x20 ADD PUSH32 0x4300000000000000000000000000000000000000000000000000000000000000 DUP2 MSTORE POP DUP2 MSTORE PUSH1 0x20 ADD PUSH1 0x40 MLOAD DUP1 PUSH1 0x40 ADD PUSH1 0x40 MSTORE DUP1 PUSH1 0x1 DUP2 MSTORE PUSH1 0x20 ADD PUSH32 0x4400000000000000000000000000000000000000000000000000000000000000 DUP2 MSTORE POP DUP2 MSTORE PUSH1 0x20 ADD PUSH1 0x40 MLOAD DUP1 PUSH1 0x40 ADD PUSH1 0x40 MSTORE DUP1 PUSH1 0x1 DUP2 MSTORE PUSH1 0x20 ADD PUSH32 0x4500000000000000000000000000000000000000000000000000000000000000 DUP2 MSTORE POP DUP2 MSTORE POP PUSH0 SWAP1 PUSH1 0x5 PUSH2 0x143 SWAP3 SWAP2 SWAP1 PUSH2 0x155 JUMP JUMPDEST POP CALLVALUE DUP1 ISZERO PUSH2 0x14F JUMPI PUSH0 PUSH0 REVERT JUMPDEST POP PUSH2 0x528 JUMP JUMPDEST DUP3 PUSH1 0x5 DUP2 ADD SWAP3 DUP3 ISZERO PUSH2 0x190 JUMPI SWAP2 PUSH1 0x20 MUL DUP3 ADD JUMPDEST DUP3 DUP2 GT ISZERO PUSH2 0x18F JUMPI DUP3 MLOAD DUP3 SWAP1 DUP2 PUSH2 0x17F SWAP2 SWAP1 PUSH2 0x459 JUMP JUMPDEST POP SWAP2 PUSH1 0x20 ADD SWAP2 SWAP1 PUSH1 0x1 ADD SWAP1 PUSH2 0x168 JUMP JUMPDEST JUMPDEST POP SWAP1 POP PUSH2 0x19D SWAP2 SWAP1 PUSH2 0x1A1 JUMP JUMPDEST POP SWAP1 JUMP JUMPDEST JUMPDEST DUP1 DUP3 GT ISZERO PUSH2 0x1C0 JUMPI PUSH0 DUP2 DUP2 PUSH2 0x1B7 SWAP2 SWAP1 PUSH2 0x1C4 JUMP JUMPDEST POP PUSH1 0x1 ADD PUSH2 0x1A2 JUMP JUMPDEST POP SWAP1 JUMP JUMPDEST POP DUP1 SLOAD PUSH2 0x1D0 SWAP1 PUSH2 0x280 JUMP JUMPDEST PUSH0 DUP3 SSTORE DUP1 PUSH1 0x1F LT PUSH2 0x1E1 JUMPI POP PUSH2 0x1FE JUMP JUMPDEST PUSH1 0x1F ADD PUSH1 0x20 SWAP1 DIV SWAP1 PUSH0 MSTORE PUSH1 0x20 PUSH0 KECCAK256 SWAP1 DUP2 ADD SWAP1 PUSH2 0x1FD SWAP2 SWAP1 PUSH2 0x201 JUMP JUMPDEST JUMPDEST POP JUMP JUMPDEST JUMPDEST DUP1 DUP3 GT ISZERO PUSH2 0x218 JUMPI PUSH0 DUP2 PUSH0 SWAP1 SSTORE POP PUSH1 0x1 ADD PUSH2 0x202 JUMP JUMPDEST POP SWAP1 JUMP JUMPDEST PUSH0 DUP2 MLOAD SWAP1 POP SWAP2 SWAP1 POP JUMP JUMPDEST PUSH32 0x4E487B7100000000000000000000000000000000000000000000000000000000 PUSH0 MSTORE PUSH1 0x41 PUSH1 0x4 MSTORE PUSH1 0x24 PUSH0 REVERT JUMPDEST PUSH32 0x4E487B7100000000000000000000000000000000000000000000000000000000 PUSH0 MSTORE PUSH1 0x22 PUSH1 0x4 MSTORE PUSH1 0x24 PUSH0 REVERT JUMPDEST PUSH0 PUSH1 0x2 DUP3 DIV SWAP1 POP PUSH1 0x1 DUP3 AND DUP1 PUSH2 0x297 JUMPI PUSH1 0x7F DUP3 AND SWAP2 POP JUMPDEST PUSH1 0x20 DUP3 LT DUP2 SUB PUSH2 0x2AA JUMPI PUSH2 0x2A9 PUSH2 0x253 JUMP JUMPDEST JUMPDEST POP SWAP2 SWAP1 POP JUMP JUMPDEST PUSH0 DUP2 SWAP1 POP DUP2 PUSH0 MSTORE PUSH1 0x20 PUSH0 KECCAK256 SWAP1 POP SWAP2 SWAP1 POP JUMP JUMPDEST PUSH0 PUSH1 0x20 PUSH1 0x1F DUP4 ADD DIV SWAP1 POP SWAP2 SWAP1 POP JUMP JUMPDEST PUSH0 DUP3 DUP3 SHL SWAP1 POP SWAP3 SWAP2 POP POP JUMP JUMPDEST PUSH0 PUSH1 0x8 DUP4 MUL PUSH2 0x30C PUSH32 0xFFFFFFFFFFFFFFFFFFFFFFFFFFFFFFFFFFFFFFFFFFFFFFFFFFFFFFFFFFFFFFFF DUP3 PUSH2 0x2D1 JUMP JUMPDEST PUSH2 0x316 DUP7 DUP4 PUSH2 0x2D1 JUMP JUMPDEST SWAP6 POP DUP1 NOT DUP5 AND SWAP4 POP DUP1 DUP7 AND DUP5 OR SWAP3 POP POP POP SWAP4 SWAP3 POP POP POP JUMP JUMPDEST PUSH0 DUP2 SWAP1 POP SWAP2 SWAP1 POP JUMP JUMPDEST PUSH0 DUP2 SWAP1 POP SWAP2 SWAP1 POP JUMP JUMPDEST PUSH0 PUSH2 0x35A PUSH2 0x355 PUSH2 0x350 DUP5 PUSH2 0x32E JUMP JUMPDEST PUSH2 0x337 JUMP JUMPDEST PUSH2 0x32E JUMP JUMPDEST SWAP1 POP SWAP2 SWAP1 POP JUMP JUMPDEST PUSH0 DUP2 SWAP1 POP SWAP2 SWAP1 POP JUMP JUMPDEST PUSH2 0x373 DUP4 PUSH2 0x340 JUMP JUMPDEST PUSH2 0x387 PUSH2 0x37F DUP3 PUSH2 0x361 JUMP JUMPDEST DUP5 DUP5 SLOAD PUSH2 0x2DD JUMP JUMPDEST DUP3 SSTORE POP POP POP POP JUMP JUMPDEST PUSH0 PUSH0 SWAP1 POP SWAP1 JUMP JUMPDEST PUSH2 0x39E PUSH2 0x38F JUMP JUMPDEST PUSH2 0x3A9 DUP2 DUP5 DUP5 PUSH2 0x36A JUMP JUMPDEST POP POP POP JUMP JUMPDEST JUMPDEST DUP2 DUP2 LT ISZERO PUSH2 0x3CC JUMPI PUSH2 0x3C1 PUSH0 DUP3 PUSH2 0x396 JUMP JUMPDEST PUSH1 0x1 DUP2 ADD SWAP1 POP PUSH2 0x3AF JUMP JUMPDEST POP POP JUMP JUMPDEST PUSH1 0x1F DUP3 GT ISZERO PUSH2 0x411 JUMPI PUSH2 0x3E2 DUP2 PUSH2 0x2B0 JUMP JUMPDEST PUSH2 0x3EB DUP5 PUSH2 0x2C2 JUMP JUMPDEST DUP2 ADD PUSH1 0x20 DUP6 LT ISZERO PUSH2 0x3FA JUMPI DUP2 SWAP1 POP JUMPDEST PUSH2 0x40E PUSH2 0x406 DUP6 PUSH2 0x2C2 JUMP JUMPDEST DUP4 ADD DUP3 PUSH2 0x3AE JUMP JUMPDEST POP POP JUMPDEST POP POP POP JUMP JUMPDEST PUSH0 DUP3 DUP3 SHR SWAP1 POP SWAP3 SWAP2 POP POP JUMP JUMPDEST PUSH0 PUSH2 0x431 PUSH0 NOT DUP5 PUSH1 0x8 MUL PUSH2 0x416 JUMP JUMPDEST NOT DUP1 DUP4 AND SWAP2 POP POP SWAP3 SWAP2 POP POP JUMP JUMPDEST PUSH0 PUSH2 0x449 DUP4 DUP4 PUSH2 0x422 JUMP JUMPDEST SWAP2 POP DUP3 PUSH1 0x2 MUL DUP3 OR SWAP1 POP SWAP3 SWAP2 POP POP JUMP JUMPDEST PUSH2 0x462 DUP3 PUSH2 0x21C JUMP JUMPDEST PUSH8 0xFFFFFFFFFFFFFFFF DUP2 GT ISZERO PUSH2 0x47B JUMPI PUSH2 0x47A PUSH2 0x226 JUMP JUMPDEST JUMPDEST PUSH2 0x485 DUP3 SLOAD PUSH2 0x280 JUMP JUMPDEST PUSH2 0x490 DUP3 DUP3 DUP6 PUSH2 0x3D0 JUMP JUMPDEST PUSH0 PUSH1 0x20 SWAP1 POP PUSH1 0x1F DUP4 GT PUSH1 0x1 DUP2 EQ PUSH2 0x4C1 JUMPI PUSH0 DUP5 ISZERO PUSH2 0x4AF JUMPI DUP3 DUP8 ADD MLOAD SWAP1 POP JUMPDEST PUSH2 0x4B9 DUP6 DUP3 PUSH2 0x43E JUMP JUMPDEST DUP7 SSTORE POP PUSH2 0x520 JUMP JUMPDEST PUSH1 0x1F NOT DUP5 AND PUSH2 0x4CF DUP7 PUSH2 0x2B0 JUMP JUMPDEST PUSH0 JUMPDEST DUP3 DUP2 LT ISZERO PUSH2 0x4F6 JUMPI DUP5 DUP10 ADD MLOAD DUP3 SSTORE PUSH1 0x1 DUP3 ADD SWAP2 POP PUSH1 0x20 DUP6 ADD SWAP5 POP PUSH1 0x20 DUP2 ADD SWAP1 POP PUSH2 0x4D1 JUMP JUMPDEST DUP7 DUP4 LT ISZERO PUSH2 0x513 JUMPI DUP5 DUP10 ADD MLOAD PUSH2 0x50F PUSH1 0x1F DUP10 AND DUP3 PUSH2 0x422 JUMP JUMPDEST DUP4 SSTORE POP JUMPDEST PUSH1 0x1 PUSH1 0x2 DUP9 MUL ADD DUP9 SSTORE POP POP POP JUMPDEST POP POP POP POP POP POP JUMP JUMPDEST PUSH2 0xC2E DUP1 PUSH2 0x535 PUSH0 CODECOPY PUSH0 RETURN INVALID PUSH1 0x80 PUSH1 0x40 MSTORE CALLVALUE DUP1 ISZERO PUSH2 0xF JUMPI PUSH0 PUSH0 REVERT JUMPDEST POP PUSH1 0x4 CALLDATASIZE LT PUSH2 0x55 JUMPI PUSH0 CALLDATALOAD PUSH1 0xE0 SHR DUP1 PUSH4 0x6EAD22E EQ PUSH2 0x59 JUMPI DUP1 PUSH4 0x7BDDBAC EQ PUSH2 0x8A JUMPI DUP1 PUSH4 0x404EBF6C EQ PUSH2 0xA8 JUMPI DUP1 PUSH4 0x9A3F7419 EQ PUSH2 0xD8 JUMPI DUP1 PUSH4 0xBED08038 EQ PUSH2 0xF4 JUMPI JUMPDEST PUSH0 PUSH0 REVERT JUMPDEST PUSH2 0x73 PUSH1 0x4 DUP1 CALLDATASIZE SUB DUP2 ADD SWAP1 PUSH2 0x6E SWAP2 SWAP1 PUSH2 0x3EE JUMP JUMPDEST PUSH2 0x124 JUMP JUMPDEST PUSH1 0x40 MLOAD PUSH2 0x81 SWAP3 SWAP2 SWAP1 PUSH2 0x498 JUMP JUMPDEST PUSH1 0x40 MLOAD DUP1 SWAP2 SUB SWAP1 RETURN JUMPDEST PUSH2 0x92 PUSH2 0x1D9 JUMP JUMPDEST PUSH1 0x40 MLOAD PUSH2 0x9F SWAP2 SWAP1 PUSH2 0x4C6 JUMP JUMPDEST PUSH1 0x40 MLOAD DUP1 SWAP2 SUB SWAP1 RETURN JUMPDEST PUSH2 0xC2 PUSH1 0x4 DUP1 CALLDATASIZE SUB DUP2 ADD SWAP1 PUSH2 0xBD SWAP2 SWAP1 PUSH2 0x3EE JUMP JUMPDEST PUSH2 0x235 JUMP JUMPDEST PUSH1 0x40 MLOAD PUSH2 0xCF SWAP2 SWAP1 PUSH2 0x4DF JUMP JUMPDEST PUSH1 0x40 MLOAD DUP1 SWAP2 SUB SWAP1 RETURN JUMPDEST PUSH2 0xF2 PUSH1 0x4 DUP1 CALLDATASIZE SUB DUP2 ADD SWAP1 PUSH2 0xED SWAP2 SWAP1 PUSH2 0x62B JUMP JUMPDEST PUSH2 0x2D3 JUMP JUMPDEST STOP JUMPDEST PUSH2 0x10E PUSH1 0x4 DUP1 CALLDATASIZE SUB DUP2 ADD SWAP1 PUSH2 0x109 SWAP2 SWAP1 PUSH2 0x6BB JUMP JUMPDEST PUSH2 0x334 JUMP JUMPDEST PUSH1 0x40 MLOAD PUSH2 0x11B SWAP2 SWAP1 PUSH2 0x700 JUMP JUMPDEST PUSH1 0x40 MLOAD DUP1 SWAP2 SUB SWAP1 RETURN JUMPDEST PUSH1 0x6 DUP2 DUP2 SLOAD DUP2 LT PUSH2 0x133 JUMPI PUSH0 DUP1 REVERT JUMPDEST SWAP1 PUSH0 MSTORE PUSH1 0x20 PUSH0 KECCAK256 SWAP1 PUSH1 0x2 MUL ADD PUSH0 SWAP2 POP SWAP1 POP DUP1 PUSH0 ADD DUP1 SLOAD PUSH2 0x152 SWAP1 PUSH2 0x746 JUMP JUMPDEST DUP1 PUSH1 0x1F ADD PUSH1 0x20 DUP1 SWAP2 DIV MUL PUSH1 0x20 ADD PUSH1 0x40 MLOAD SWAP1 DUP2 ADD PUSH1 0x40 MSTORE DUP1 SWAP3 SWAP2 SWAP1 DUP2 DUP2 MSTORE PUSH1 0x20 ADD DUP3 DUP1 SLOAD PUSH2 0x17E SWAP1 PUSH2 0x746 JUMP JUMPDEST DUP1 ISZERO PUSH2 0x1C9 JUMPI DUP1 PUSH1 0x1F LT PUSH2 0x1A0 JUMPI PUSH2 0x100 DUP1 DUP4 SLOAD DIV MUL DUP4 MSTORE SWAP2 PUSH1 0x20 ADD SWAP2 PUSH2 0x1C9 JUMP JUMPDEST DUP3 ADD SWAP2 SWAP1 PUSH0 MSTORE PUSH1 0x20 PUSH0 KECCAK256 SWAP1 JUMPDEST DUP2 SLOAD DUP2 MSTORE SWAP1 PUSH1 0x1 ADD SWAP1 PUSH1 0x20 ADD DUP1 DUP4 GT PUSH2 0x1AC JUMPI DUP3 SWAP1 SUB PUSH1 0x1F AND DUP3 ADD SWAP2 JUMPDEST POP POP POP POP POP SWAP1 DUP1 PUSH1 0x1 ADD SLOAD SWAP1 POP DUP3 JUMP JUMPDEST PUSH0 PUSH0 PUSH0 PUSH0 SWAP1 POP JUMPDEST PUSH0 DUP2 GT ISZERO PUSH2 0x22D JUMPI DUP2 PUSH1 0x5 DUP3 DUP2 SLOAD DUP2 LT PUSH2 0x1FD JUMPI PUSH2 0x1FC PUSH2 0x776 JUMP JUMPDEST JUMPDEST SWAP1 PUSH0 MSTORE PUSH1 0x20 PUSH0 KECCAK256 ADD PUSH0 DUP3 DUP3 SLOAD PUSH2 0x213 SWAP2 SWAP1 PUSH2 0x7D0 JUMP JUMPDEST SWAP3 POP POP DUP2 SWAP1 SSTORE POP DUP1 DUP1 PUSH2 0x225 SWAP1 PUSH2 0x803 JUMP JUMPDEST SWAP2 POP POP PUSH2 0x1E0 JUMP JUMPDEST POP DUP1 SWAP2 POP POP SWAP1 JUMP JUMPDEST PUSH0 DUP2 PUSH1 0x5 DUP2 LT PUSH2 0x243 JUMPI PUSH0 DUP1 REVERT JUMPDEST ADD PUSH0 SWAP2 POP SWAP1 POP DUP1 SLOAD PUSH2 0x254 SWAP1 PUSH2 0x746 JUMP JUMPDEST DUP1 PUSH1 0x1F ADD PUSH1 0x20 DUP1 SWAP2 DIV MUL PUSH1 0x20 ADD PUSH1 0x40 MLOAD SWAP1 DUP2 ADD PUSH1 0x40 MSTORE DUP1 SWAP3 SWAP2 SWAP1 DUP2 DUP2 MSTORE PUSH1 0x20 ADD DUP3 DUP1 SLOAD PUSH2 0x280 SWAP1 PUSH2 0x746 JUMP JUMPDEST DUP1 ISZERO PUSH2 0x2CB JUMPI DUP1 PUSH1 0x1F LT PUSH2 0x2A2 JUMPI PUSH2 0x100 DUP1 DUP4 SLOAD DIV MUL DUP4 MSTORE SWAP2 PUSH1 0x20 ADD SWAP2 PUSH2 0x2CB JUMP JUMPDEST DUP3 ADD SWAP2 SWAP1 PUSH0 MSTORE PUSH1 0x20 PUSH0 KECCAK256 SWAP1 JUMPDEST DUP2 SLOAD DUP2 MSTORE SWAP1 PUSH1 0x1 ADD SWAP1 PUSH1 0x20 ADD DUP1 DUP4 GT PUSH2 0x2AE JUMPI DUP3 SWAP1 SUB PUSH1 0x1F AND DUP3 ADD SWAP2 JUMPDEST POP POP POP POP POP DUP2 JUMP JUMPDEST PUSH1 0x6 PUSH1 0x40 MLOAD DUP1 PUSH1 0x40 ADD PUSH1 0x40 MSTORE DUP1 DUP5 DUP2 MSTORE PUSH1 0x20 ADD DUP4 DUP2 MSTORE POP SWAP1 DUP1 PUSH1 0x1 DUP2 SLOAD ADD DUP1 DUP3 SSTORE DUP1 SWAP2 POP POP PUSH1 0x1 SWAP1 SUB SWAP1 PUSH0 MSTORE PUSH1 0x20 PUSH0 KECCAK256 SWAP1 PUSH1 0x2 MUL ADD PUSH0 SWAP1 SWAP2 SWAP1 SWAP2 SWAP1 SWAP2 POP PUSH0 DUP3 ADD MLOAD DUP2 PUSH0 ADD SWAP1 DUP2 PUSH2 0x323 SWAP2 SWAP1 PUSH2 0x9EA JUMP JUMPDEST POP PUSH1 0x20 DUP3 ADD MLOAD DUP2 PUSH1 0x1 ADD SSTORE POP POP POP POP JUMP JUMPDEST PUSH0 PUSH0 DUP3 PUSH1 0xFF AND SWAP1 POP JUMPDEST PUSH1 0x1 PUSH1 0x5 PUSH2 0x34B SWAP2 SWAP1 PUSH2 0xAB9 JUMP JUMPDEST DUP2 LT ISZERO PUSH2 0x3A0 JUMPI PUSH0 PUSH1 0x1 DUP3 PUSH2 0x360 SWAP2 SWAP1 PUSH2 0x7D0 JUMP JUMPDEST PUSH1 0x5 DUP2 LT PUSH2 0x371 JUMPI PUSH2 0x370 PUSH2 0x776 JUMP JUMPDEST JUMPDEST ADD PUSH0 DUP3 PUSH1 0x5 DUP2 LT PUSH2 0x385 JUMPI PUSH2 0x384 PUSH2 0x776 JUMP JUMPDEST JUMPDEST ADD SWAP1 DUP2 PUSH2 0x392 SWAP2 SWAP1 PUSH2 0xB13 JUMP JUMPDEST POP DUP1 DUP1 PUSH1 0x1 ADD SWAP2 POP POP PUSH2 0x33D JUMP JUMPDEST POP PUSH1 0x1 SWAP1 POP SWAP2 SWAP1 POP JUMP JUMPDEST PUSH0 PUSH1 0x40 MLOAD SWAP1 POP SWAP1 JUMP JUMPDEST PUSH0 PUSH0 REVERT JUMPDEST PUSH0 PUSH0 REVERT JUMPDEST PUSH0 DUP2 SWAP1 POP SWAP2 SWAP1 POP JUMP JUMPDEST PUSH2 0x3CD DUP2 PUSH2 0x3BB JUMP JUMPDEST DUP2 EQ PUSH2 0x3D7 JUMPI PUSH0 PUSH0 REVERT JUMPDEST POP JUMP JUMPDEST PUSH0 DUP2 CALLDATALOAD SWAP1 POP PUSH2 0x3E8 DUP2 PUSH2 0x3C4 JUMP JUMPDEST SWAP3 SWAP2 POP POP JUMP JUMPDEST PUSH0 PUSH1 0x20 DUP3 DUP5 SUB SLT ISZERO PUSH2 0x403 JUMPI PUSH2 0x402 PUSH2 0x3B3 JUMP JUMPDEST JUMPDEST PUSH0 PUSH2 0x410 DUP5 DUP3 DUP6 ADD PUSH2 0x3DA JUMP JUMPDEST SWAP2 POP POP SWAP3 SWAP2 POP POP JUMP JUMPDEST PUSH0 DUP2 MLOAD SWAP1 POP SWAP2 SWAP1 POP JUMP JUMPDEST PUSH0 DUP3 DUP3 MSTORE PUSH1 0x20 DUP3 ADD SWAP1 POP SWAP3 SWAP2 POP POP JUMP JUMPDEST DUP3 DUP2 DUP4 MCOPY PUSH0 DUP4 DUP4 ADD MSTORE POP POP POP JUMP JUMPDEST PUSH0 PUSH1 0x1F NOT PUSH1 0x1F DUP4 ADD AND SWAP1 POP SWAP2 SWAP1 POP JUMP JUMPDEST PUSH0 PUSH2 0x45B DUP3 PUSH2 0x419 JUMP JUMPDEST PUSH2 0x465 DUP2 DUP6 PUSH2 0x423 JUMP JUMPDEST SWAP4 POP PUSH2 0x475 DUP2 DUP6 PUSH1 0x20 DUP7 ADD PUSH2 0x433 JUMP JUMPDEST PUSH2 0x47E DUP2 PUSH2 0x441 JUMP JUMPDEST DUP5 ADD SWAP2 POP POP SWAP3 SWAP2 POP POP JUMP JUMPDEST PUSH2 0x492 DUP2 PUSH2 0x3BB JUMP JUMPDEST DUP3 MSTORE POP POP JUMP JUMPDEST PUSH0 PUSH1 0x40 DUP3 ADD SWAP1 POP DUP2 DUP2 SUB PUSH0 DUP4 ADD MSTORE PUSH2 0x4B0 DUP2 DUP6 PUSH2 0x451 JUMP JUMPDEST SWAP1 POP PUSH2 0x4BF PUSH1 0x20 DUP4 ADD DUP5 PUSH2 0x489 JUMP JUMPDEST SWAP4 SWAP3 POP POP POP JUMP JUMPDEST PUSH0 PUSH1 0x20 DUP3 ADD SWAP1 POP PUSH2 0x4D9 PUSH0 DUP4 ADD DUP5 PUSH2 0x489 JUMP JUMPDEST SWAP3 SWAP2 POP POP JUMP JUMPDEST PUSH0 PUSH1 0x20 DUP3 ADD SWAP1 POP DUP2 DUP2 SUB PUSH0 DUP4 ADD MSTORE PUSH2 0x4F7 DUP2 DUP5 PUSH2 0x451 JUMP JUMPDEST SWAP1 POP SWAP3 SWAP2 POP POP JUMP JUMPDEST PUSH0 PUSH0 REVERT JUMPDEST PUSH0 PUSH0 REVERT JUMPDEST PUSH32 0x4E487B7100000000000000000000000000000000000000000000000000000000 PUSH0 MSTORE PUSH1 0x41 PUSH1 0x4 MSTORE PUSH1 0x24 PUSH0 REVERT JUMPDEST PUSH2 0x53D DUP3 PUSH2 0x441 JUMP JUMPDEST DUP2 ADD DUP2 DUP2 LT PUSH8 0xFFFFFFFFFFFFFFFF DUP3 GT OR ISZERO PUSH2 0x55C JUMPI PUSH2 0x55B PUSH2 0x507 JUMP JUMPDEST JUMPDEST DUP1 PUSH1 0x40 MSTORE POP POP POP JUMP JUMPDEST PUSH0 PUSH2 0x56E PUSH2 0x3AA JUMP JUMPDEST SWAP1 POP PUSH2 0x57A DUP3 DUP3 PUSH2 0x534 JUMP JUMPDEST SWAP2 SWAP1 POP JUMP JUMPDEST PUSH0 PUSH8 0xFFFFFFFFFFFFFFFF DUP3 GT ISZERO PUSH2 0x599 JUMPI PUSH2 0x598 PUSH2 0x507 JUMP JUMPDEST JUMPDEST PUSH2 0x5A2 DUP3 PUSH2 0x441 JUMP JUMPDEST SWAP1 POP PUSH1 0x20 DUP2 ADD SWAP1 POP SWAP2 SWAP1 POP JUMP JUMPDEST DUP3 DUP2 DUP4 CALLDATACOPY PUSH0 DUP4 DUP4 ADD MSTORE POP POP POP JUMP JUMPDEST PUSH0 PUSH2 0x5CF PUSH2 0x5CA DUP5 PUSH2 0x57F JUMP JUMPDEST PUSH2 0x565 JUMP JUMPDEST SWAP1 POP DUP3 DUP2 MSTORE PUSH1 0x20 DUP2 ADD DUP5 DUP5 DUP5 ADD GT ISZERO PUSH2 0x5EB JUMPI PUSH2 0x5EA PUSH2 0x503 JUMP JUMPDEST JUMPDEST PUSH2 0x5F6 DUP5 DUP3 DUP6 PUSH2 0x5AF JUMP JUMPDEST POP SWAP4 SWAP3 POP POP POP JUMP JUMPDEST PUSH0 DUP3 PUSH1 0x1F DUP4 ADD SLT PUSH2 0x612 JUMPI PUSH2 0x611 PUSH2 0x4FF JUMP JUMPDEST JUMPDEST DUP2 CALLDATALOAD PUSH2 0x622 DUP5 DUP3 PUSH1 0x20 DUP7 ADD PUSH2 0x5BD JUMP JUMPDEST SWAP2 POP POP SWAP3 SWAP2 POP POP JUMP JUMPDEST PUSH0 PUSH0 PUSH1 0x40 DUP4 DUP6 SUB SLT ISZERO PUSH2 0x641 JUMPI PUSH2 0x640 PUSH2 0x3B3 JUMP JUMPDEST JUMPDEST PUSH0 DUP4 ADD CALLDATALOAD PUSH8 0xFFFFFFFFFFFFFFFF DUP2 GT ISZERO PUSH2 0x65E JUMPI PUSH2 0x65D PUSH2 0x3B7 JUMP JUMPDEST JUMPDEST PUSH2 0x66A DUP6 DUP3 DUP7 ADD PUSH2 0x5FE JUMP JUMPDEST SWAP3 POP POP PUSH1 0x20 PUSH2 0x67B DUP6 DUP3 DUP7 ADD PUSH2 0x3DA JUMP JUMPDEST SWAP2 POP POP SWAP3 POP SWAP3 SWAP1 POP JUMP JUMPDEST PUSH0 PUSH1 0xFF DUP3 AND SWAP1 POP SWAP2 SWAP1 POP JUMP JUMPDEST PUSH2 0x69A DUP2 PUSH2 0x685 JUMP JUMPDEST DUP2 EQ PUSH2 0x6A4 JUMPI PUSH0 PUSH0 REVERT JUMPDEST POP JUMP JUMPDEST PUSH0 DUP2 CALLDATALOAD SWAP1 POP PUSH2 0x6B5 DUP2 PUSH2 0x691 JUMP JUMPDEST SWAP3 SWAP2 POP POP JUMP JUMPDEST PUSH0 PUSH1 0x20 DUP3 DUP5 SUB SLT ISZERO PUSH2 0x6D0 JUMPI PUSH2 0x6CF PUSH2 0x3B3 JUMP JUMPDEST JUMPDEST PUSH0 PUSH2 0x6DD DUP5 DUP3 DUP6 ADD PUSH2 0x6A7 JUMP JUMPDEST SWAP2 POP POP SWAP3 SWAP2 POP POP JUMP JUMPDEST PUSH0 DUP2 ISZERO ISZERO SWAP1 POP SWAP2 SWAP1 POP JUMP JUMPDEST PUSH2 0x6FA DUP2 PUSH2 0x6E6 JUMP JUMPDEST DUP3 MSTORE POP POP JUMP JUMPDEST PUSH0 PUSH1 0x20 DUP3 ADD SWAP1 POP PUSH2 0x713 PUSH0 DUP4 ADD DUP5 PUSH2 0x6F1 JUMP JUMPDEST SWAP3 SWAP2 POP POP JUMP JUMPDEST PUSH32 0x4E487B7100000000000000000000000000000000000000000000000000000000 PUSH0 MSTORE PUSH1 0x22 PUSH1 0x4 MSTORE PUSH1 0x24 PUSH0 REVERT JUMPDEST PUSH0 PUSH1 0x2 DUP3 DIV SWAP1 POP PUSH1 0x1 DUP3 AND DUP1 PUSH2 0x75D JUMPI PUSH1 0x7F DUP3 AND SWAP2 POP JUMPDEST PUSH1 0x20 DUP3 LT DUP2 SUB PUSH2 0x770 JUMPI PUSH2 0x76F PUSH2 0x719 JUMP JUMPDEST JUMPDEST POP SWAP2 SWAP1 POP JUMP JUMPDEST PUSH32 0x4E487B7100000000000000000000000000000000000000000000000000000000 PUSH0 MSTORE PUSH1 0x32 PUSH1 0x4 MSTORE PUSH1 0x24 PUSH0 REVERT JUMPDEST PUSH32 0x4E487B7100000000000000000000000000000000000000000000000000000000 PUSH0 MSTORE PUSH1 0x11 PUSH1 0x4 MSTORE PUSH1 0x24 PUSH0 REVERT JUMPDEST PUSH0 PUSH2 0x7DA DUP3 PUSH2 0x3BB JUMP JUMPDEST SWAP2 POP PUSH2 0x7E5 DUP4 PUSH2 0x3BB JUMP JUMPDEST SWAP3 POP DUP3 DUP3 ADD SWAP1 POP DUP1 DUP3 GT ISZERO PUSH2 0x7FD JUMPI PUSH2 0x7FC PUSH2 0x7A3 JUMP JUMPDEST JUMPDEST SWAP3 SWAP2 POP POP JUMP JUMPDEST PUSH0 PUSH2 0x80D DUP3 PUSH2 0x3BB JUMP JUMPDEST SWAP2 POP PUSH32 0xFFFFFFFFFFFFFFFFFFFFFFFFFFFFFFFFFFFFFFFFFFFFFFFFFFFFFFFFFFFFFFFF DUP3 SUB PUSH2 0x83F JUMPI PUSH2 0x83E PUSH2 0x7A3 JUMP JUMPDEST JUMPDEST PUSH1 0x1 DUP3 ADD SWAP1 POP SWAP2 SWAP1 POP JUMP JUMPDEST PUSH0 DUP2 SWAP1 POP DUP2 PUSH0 MSTORE PUSH1 0x20 PUSH0 KECCAK256 SWAP1 POP SWAP2 SWAP1 POP JUMP JUMPDEST PUSH0 PUSH1 0x20 PUSH1 0x1F DUP4 ADD DIV SWAP1 POP SWAP2 SWAP1 POP JUMP JUMPDEST PUSH0 DUP3 DUP3 SHL SWAP1 POP SWAP3 SWAP2 POP POP JUMP JUMPDEST PUSH0 PUSH1 0x8 DUP4 MUL PUSH2 0x8A6 PUSH32 0xFFFFFFFFFFFFFFFFFFFFFFFFFFFFFFFFFFFFFFFFFFFFFFFFFFFFFFFFFFFFFFFF DUP3 PUSH2 0x86B JUMP JUMPDEST PUSH2 0x8B0 DUP7 DUP4 PUSH2 0x86B JUMP JUMPDEST SWAP6 POP DUP1 NOT DUP5 AND SWAP4 POP DUP1 DUP7 AND DUP5 OR SWAP3 POP POP POP SWAP4 SWAP3 POP POP POP JUMP JUMPDEST PUSH0 DUP2 SWAP1 POP SWAP2 SWAP1 POP JUMP JUMPDEST PUSH0 PUSH2 0x8EB PUSH2 0x8E6 PUSH2 0x8E1 DUP5 PUSH2 0x3BB JUMP JUMPDEST PUSH2 0x8C8 JUMP JUMPDEST PUSH2 0x3BB JUMP JUMPDEST SWAP1 POP SWAP2 SWAP1 POP JUMP JUMPDEST PUSH0 DUP2 SWAP1 POP SWAP2 SWAP1 POP JUMP JUMPDEST PUSH2 0x904 DUP4 PUSH2 0x8D1 JUMP JUMPDEST PUSH2 0x918 PUSH2 0x910 DUP3 PUSH2 0x8F2 JUMP JUMPDEST DUP5 DUP5 SLOAD PUSH2 0x877 JUMP JUMPDEST DUP3 SSTORE POP POP POP POP JUMP JUMPDEST PUSH0 PUSH0 SWAP1 POP SWAP1 JUMP JUMPDEST PUSH2 0x92F PUSH2 0x920 JUMP JUMPDEST PUSH2 0x93A DUP2 DUP5 DUP5 PUSH2 0x8FB JUMP JUMPDEST POP POP POP JUMP JUMPDEST JUMPDEST DUP2 DUP2 LT ISZERO PUSH2 0x95D JUMPI PUSH2 0x952 PUSH0 DUP3 PUSH2 0x927 JUMP JUMPDEST PUSH1 0x1 DUP2 ADD SWAP1 POP PUSH2 0x940 JUMP JUMPDEST POP POP JUMP JUMPDEST PUSH1 0x1F DUP3 GT ISZERO PUSH2 0x9A2 JUMPI PUSH2 0x973 DUP2 PUSH2 0x84A JUMP JUMPDEST PUSH2 0x97C DUP5 PUSH2 0x85C JUMP JUMPDEST DUP2 ADD PUSH1 0x20 DUP6 LT ISZERO PUSH2 0x98B JUMPI DUP2 SWAP1 POP JUMPDEST PUSH2 0x99F PUSH2 0x997 DUP6 PUSH2 0x85C JUMP JUMPDEST DUP4 ADD DUP3 PUSH2 0x93F JUMP JUMPDEST POP POP JUMPDEST POP POP POP JUMP JUMPDEST PUSH0 DUP3 DUP3 SHR SWAP1 POP SWAP3 SWAP2 POP POP JUMP JUMPDEST PUSH0 PUSH2 0x9C2 PUSH0 NOT DUP5 PUSH1 0x8 MUL PUSH2 0x9A7 JUMP JUMPDEST NOT DUP1 DUP4 AND SWAP2 POP POP SWAP3 SWAP2 POP POP JUMP JUMPDEST PUSH0 PUSH2 0x9DA DUP4 DUP4 PUSH2 0x9B3 JUMP JUMPDEST SWAP2 POP DUP3 PUSH1 0x2 MUL DUP3 OR SWAP1 POP SWAP3 SWAP2 POP POP JUMP JUMPDEST PUSH2 0x9F3 DUP3 PUSH2 0x419 JUMP JUMPDEST PUSH8 0xFFFFFFFFFFFFFFFF DUP2 GT ISZERO PUSH2 0xA0C JUMPI PUSH2 0xA0B PUSH2 0x507 JUMP JUMPDEST JUMPDEST PUSH2 0xA16 DUP3 SLOAD PUSH2 0x746 JUMP JUMPDEST PUSH2 0xA21 DUP3 DUP3 DUP6 PUSH2 0x961 JUMP JUMPDEST PUSH0 PUSH1 0x20 SWAP1 POP PUSH1 0x1F DUP4 GT PUSH1 0x1 DUP2 EQ PUSH2 0xA52 JUMPI PUSH0 DUP5 ISZERO PUSH2 0xA40 JUMPI DUP3 DUP8 ADD MLOAD SWAP1 POP JUMPDEST PUSH2 0xA4A DUP6 DUP3 PUSH2 0x9CF JUMP JUMPDEST DUP7 SSTORE POP PUSH2 0xAB1 JUMP JUMPDEST PUSH1 0x1F NOT DUP5 AND PUSH2 0xA60 DUP7 PUSH2 0x84A JUMP JUMPDEST PUSH0 JUMPDEST DUP3 DUP2 LT ISZERO PUSH2 0xA87 JUMPI DUP5 DUP10 ADD MLOAD DUP3 SSTORE PUSH1 0x1 DUP3 ADD SWAP2 POP PUSH1 0x20 DUP6 ADD SWAP5 POP PUSH1 0x20 DUP2 ADD SWAP1 POP PUSH2 0xA62 JUMP JUMPDEST DUP7 DUP4 LT ISZERO PUSH2 0xAA4 JUMPI DUP5 DUP10 ADD MLOAD PUSH2 0xAA0 PUSH1 0x1F DUP10 AND DUP3 PUSH2 0x9B3 JUMP JUMPDEST DUP4 SSTORE POP JUMPDEST PUSH1 0x1 PUSH1 0x2 DUP9 MUL ADD DUP9 SSTORE POP POP POP JUMPDEST POP POP POP POP POP POP JUMP JUMPDEST PUSH0 PUSH2 0xAC3 DUP3 PUSH2 0x3BB JUMP JUMPDEST SWAP2 POP PUSH2 0xACE DUP4 PUSH2 0x3BB JUMP JUMPDEST SWAP3 POP DUP3 DUP3 SUB SWAP1 POP DUP2 DUP2 GT ISZERO PUSH2 0xAE6 JUMPI PUSH2 0xAE5 PUSH2 0x7A3 JUMP JUMPDEST JUMPDEST SWAP3 SWAP2 POP POP JUMP JUMPDEST PUSH0 DUP2 SLOAD SWAP1 POP PUSH2 0xAFA DUP2 PUSH2 0x746 JUMP JUMPDEST SWAP1 POP SWAP2 SWAP1 POP JUMP JUMPDEST PUSH0 DUP2 SWAP1 POP DUP2 PUSH0 MSTORE PUSH1 0x20 PUSH0 KECCAK256 SWAP1 POP SWAP2 SWAP1 POP JUMP JUMPDEST DUP2 DUP2 SUB PUSH2 0xB21 JUMPI POP POP PUSH2 0xBF6 JUMP JUMPDEST PUSH2 0xB2A DUP3 PUSH2 0xAEC JUMP JUMPDEST PUSH8 0xFFFFFFFFFFFFFFFF DUP2 GT ISZERO PUSH2 0xB43 JUMPI PUSH2 0xB42 PUSH2 0x507 JUMP JUMPDEST JUMPDEST PUSH2 0xB4D DUP3 SLOAD PUSH2 0x746 JUMP JUMPDEST PUSH2 0xB58 DUP3 DUP3 DUP6 PUSH2 0x961 JUMP JUMPDEST PUSH0 PUSH1 0x1F DUP4 GT PUSH1 0x1 DUP2 EQ PUSH2 0xB85 JUMPI PUSH0 DUP5 ISZERO PUSH2 0xB73 JUMPI DUP3 DUP8 ADD SLOAD SWAP1 POP JUMPDEST PUSH2 0xB7D DUP6 DUP3 PUSH2 0x9CF JUMP JUMPDEST DUP7 SSTORE POP PUSH2 0xBEF JUMP JUMPDEST PUSH1 0x1F NOT DUP5 AND PUSH2 0xB93 DUP8 PUSH2 0xB01 JUMP JUMPDEST SWAP7 POP PUSH2 0xB9E DUP7 PUSH2 0x84A JUMP JUMPDEST PUSH0 JUMPDEST DUP3 DUP2 LT ISZERO PUSH2 0xBC5 JUMPI DUP5 DUP10 ADD SLOAD DUP3 SSTORE PUSH1 0x1 DUP3 ADD SWAP2 POP PUSH1 0x1 DUP6 ADD SWAP5 POP PUSH1 0x20 DUP2 ADD SWAP1 POP PUSH2 0xBA0 JUMP JUMPDEST DUP7 DUP4 LT ISZERO PUSH2 0xBE2 JUMPI DUP5 DUP10 ADD SLOAD PUSH2 0xBDE PUSH1 0x1F DUP10 AND DUP3 PUSH2 0x9B3 JUMP JUMPDEST DUP4 SSTORE POP JUMPDEST PUSH1 0x1 PUSH1 0x2 DUP9 MUL ADD DUP9 SSTORE POP POP POP JUMPDEST POP POP POP POP POP POP JUMPDEST JUMP INVALID LOG2 PUSH5 0x6970667358 0x22 SLT KECCAK256 DUP4 0xD4 DATALOADN 0x293A PUSH26 0x5601FE4AB2FB33C52BDDBF6F18626DB6F8E809351CC623D12D3B PUSH5 0x736F6C6343 STOP ADDMOD SAR STOP CALLER "
		},
		"gasEstimates": {
			"creation": {
				"codeDepositCost": "623600",
				"executionCost": "infinite",
				"totalCost": "infinite"
			},
			"external": {
				"addStud(string,uint256)": "infinite",
				"getAvarage()": "373",
				"movies(uint256)": "infinite",
				"removeElem(uint8)": "infinite",
				"students(uint256)": "infinite"
			}
		},
		"methodIdentifiers": {
			"addStud(string,uint256)": "9a3f7419",
			"getAvarage()": "07bddbac",
			"movies(uint256)": "404ebf6c",
			"removeElem(uint8)": "bed08038",
			"students(uint256)": "06ead22e"
		}
	},
	"abi": [
		{
			"inputs": [
				{
					"internalType": "string",
					"name": "name",
					"type": "string"
				},
				{
					"internalType": "uint256",
					"name": "age",
					"type": "uint256"
				}
			],
			"name": "addStud",
			"outputs": [],
			"stateMutability": "nonpayable",
			"type": "function"
		},
		{
			"inputs": [],
			"name": "getAvarage",
			"outputs": [
				{
					"internalType": "uint256",
					"name": "",
					"type": "uint256"
				}
			],
			"stateMutability": "nonpayable",
			"type": "function"
		},
		{
			"inputs": [
				{
					"internalType": "uint256",
					"name": "",
					"type": "uint256"
				}
			],
			"name": "movies",
			"outputs": [
				{
					"internalType": "string",
					"name": "",
					"type": "string"
				}
			],
			"stateMutability": "view",
			"type": "function"
		},
		{
			"inputs": [
				{
					"internalType": "uint8",
					"name": "index",
					"type": "uint8"
				}
			],
			"name": "removeElem",
			"outputs": [
				{
					"internalType": "bool",
					"name": "",
					"type": "bool"
				}
			],
			"stateMutability": "nonpayable",
			"type": "function"
		},
		{
			"inputs": [
				{
					"internalType": "uint256",
					"name": "",
					"type": "uint256"
				}
			],
			"name": "students",
			"outputs": [
				{
					"internalType": "string",
					"name": "name",
					"type": "string"
				},
				{
					"internalType": "uint256",
					"name": "age",
					"type": "uint256"
				}
			],
			"stateMutability": "view",
			"type": "function"
		}
	]
}