{
	"data": {
		"bytecode": {
			"linkReferences": {},
			"object": "6080604052348015600e575f5ffd5b506104348061001c5f395ff3fe608060405234801561000f575f5ffd5b5060043610610034575f3560e01c80630b3af7f9146100385780639649d98b14610054575b5f5ffd5b610052600480360381019061004d9190610246565b610072565b005b61005c61015b565b60405161006991906102e1565b60405180910390f35b5f8160ff16036100a9575f5f5f6101000a81548160ff0219169083600281111561009f5761009e610301565b5b0217905550610158565b60018160ff16036100e25760015f5f6101000a81548160ff021916908360028111156100d8576100d7610301565b5b0217905550610157565b60028160ff160361011b5760025f5f6101000a81548160ff0219169083600281111561011157610110610301565b5b0217905550610156565b6040517f08c379a000000000000000000000000000000000000000000000000000000000815260040161014d90610378565b60405180910390fd5b5b5b50565b60606001600281111561017157610170610301565b5b5f5f9054906101000a900460ff16600281111561019157610190610301565b5b146101d1576040517f08c379a00000000000000000000000000000000000000000000000000000000081526004016101c8906103e0565b60405180910390fd5b6040518060400160405280601581526020017f5468697320697320726573747269637420617265610000000000000000000000815250905090565b5f5ffd5b5f60ff82169050919050565b61022581610210565b811461022f575f5ffd5b50565b5f813590506102408161021c565b92915050565b5f6020828403121561025b5761025a61020c565b5b5f61026884828501610232565b91505092915050565b5f81519050919050565b5f82825260208201905092915050565b8281835e5f83830152505050565b5f601f19601f8301169050919050565b5f6102b382610271565b6102bd818561027b565b93506102cd81856020860161028b565b6102d681610299565b840191505092915050565b5f6020820190508181035f8301526102f981846102a9565b905092915050565b7f4e487b71000000000000000000000000000000000000000000000000000000005f52602160045260245ffd5b7f456e74657220636f6465206265747765656e203020746f2032000000000000005f82015250565b5f61036260198361027b565b915061036d8261032e565b602082019050919050565b5f6020820190508181035f83015261038f81610356565b9050919050565b7f54686973206973206e6f74206163746976652e000000000000000000000000005f82015250565b5f6103ca60138361027b565b91506103d582610396565b602082019050919050565b5f6020820190508181035f8301526103f7816103be565b905091905056fea26469706673582212203e92f3c7c584b37196f3fbda153d85eed50092e348258e057856350d5b3a6f2d64736f6c634300081d0033",
			"opcodes": "PUSH1 0x80 PUSH1 0x40 MSTORE CALLVALUE DUP1 ISZERO PUSH1 0xE JUMPI PUSH0 PUSH0 REVERT JUMPDEST POP PUSH2 0x434 DUP1 PUSH2 0x1C PUSH0 CODECOPY PUSH0 RETURN INVALID PUSH1 0x80 PUSH1 0x40 MSTORE CALLVALUE DUP1 ISZERO PUSH2 0xF JUMPI PUSH0 PUSH0 REVERT JUMPDEST POP PUSH1 0x4 CALLDATASIZE LT PUSH2 0x34 JUMPI PUSH0 CALLDATALOAD PUSH1 0xE0 SHR DUP1 PUSH4 0xB3AF7F9 EQ PUSH2 0x38 JUMPI DUP1 PUSH4 0x9649D98B EQ PUSH2 0x54 JUMPI JUMPDEST PUSH0 PUSH0 REVERT JUMPDEST PUSH2 0x52 PUSH1 0x4 DUP1 CALLDATASIZE SUB DUP2 ADD SWAP1 PUSH2 0x4D SWAP2 SWAP1 PUSH2 0x246 JUMP JUMPDEST PUSH2 0x72 JUMP JUMPDEST STOP JUMPDEST PUSH2 0x5C PUSH2 0x15B JUMP JUMPDEST PUSH1 0x40 MLOAD PUSH2 0x69 SWAP2 SWAP1 PUSH2 0x2E1 JUMP JUMPDEST PUSH1 0x40 MLOAD DUP1 SWAP2 SUB SWAP1 RETURN JUMPDEST PUSH0 DUP2 PUSH1 0xFF AND SUB PUSH2 0xA9 JUMPI PUSH0 PUSH0 PUSH0 PUSH2 0x100 EXP DUP2 SLOAD DUP2 PUSH1 0xFF MUL NOT AND SWAP1 DUP4 PUSH1 0x2 DUP2 GT ISZERO PUSH2 0x9F JUMPI PUSH2 0x9E PUSH2 0x301 JUMP JUMPDEST JUMPDEST MUL OR SWAP1 SSTORE POP PUSH2 0x158 JUMP JUMPDEST PUSH1 0x1 DUP2 PUSH1 0xFF AND SUB PUSH2 0xE2 JUMPI PUSH1 0x1 PUSH0 PUSH0 PUSH2 0x100 EXP DUP2 SLOAD DUP2 PUSH1 0xFF MUL NOT AND SWAP1 DUP4 PUSH1 0x2 DUP2 GT ISZERO PUSH2 0xD8 JUMPI PUSH2 0xD7 PUSH2 0x301 JUMP JUMPDEST JUMPDEST MUL OR SWAP1 SSTORE POP PUSH2 0x157 JUMP JUMPDEST PUSH1 0x2 DUP2 PUSH1 0xFF AND SUB PUSH2 0x11B JUMPI PUSH1 0x2 PUSH0 PUSH0 PUSH2 0x100 EXP DUP2 SLOAD DUP2 PUSH1 0xFF MUL NOT AND SWAP1 DUP4 PUSH1 0x2 DUP2 GT ISZERO PUSH2 0x111 JUMPI PUSH2 0x110 PUSH2 0x301 JUMP JUMPDEST JUMPDEST MUL OR SWAP1 SSTORE POP PUSH2 0x156 JUMP JUMPDEST PUSH1 0x40 MLOAD PUSH32 0x8C379A000000000000000000000000000000000000000000000000000000000 DUP2 MSTORE PUSH1 0x4 ADD PUSH2 0x14D SWAP1 PUSH2 0x378 JUMP JUMPDEST PUSH1 0x40 MLOAD DUP1 SWAP2 SUB SWAP1 REVERT JUMPDEST JUMPDEST JUMPDEST POP JUMP JUMPDEST PUSH1 0x60 PUSH1 0x1 PUSH1 0x2 DUP2 GT ISZERO PUSH2 0x171 JUMPI PUSH2 0x170 PUSH2 0x301 JUMP JUMPDEST JUMPDEST PUSH0 PUSH0 SWAP1 SLOAD SWAP1 PUSH2 0x100 EXP SWAP1 DIV PUSH1 0xFF AND PUSH1 0x2 DUP2 GT ISZERO PUSH2 0x191 JUMPI PUSH2 0x190 PUSH2 0x301 JUMP JUMPDEST JUMPDEST EQ PUSH2 0x1D1 JUMPI PUSH1 0x40 MLOAD PUSH32 0x8C379A000000000000000000000000000000000000000000000000000000000 DUP2 MSTORE PUSH1 0x4 ADD PUSH2 0x1C8 SWAP1 PUSH2 0x3E0 JUMP JUMPDEST PUSH1 0x40 MLOAD DUP1 SWAP2 SUB SWAP1 REVERT JUMPDEST PUSH1 0x40 MLOAD DUP1 PUSH1 0x40 ADD PUSH1 0x40 MSTORE DUP1 PUSH1 0x15 DUP2 MSTORE PUSH1 0x20 ADD PUSH32 0x5468697320697320726573747269637420617265610000000000000000000000 DUP2 MSTORE POP SWAP1 POP SWAP1 JUMP JUMPDEST PUSH0 PUSH0 REVERT JUMPDEST PUSH0 PUSH1 0xFF DUP3 AND SWAP1 POP SWAP2 SWAP1 POP JUMP JUMPDEST PUSH2 0x225 DUP2 PUSH2 0x210 JUMP JUMPDEST DUP2 EQ PUSH2 0x22F JUMPI PUSH0 PUSH0 REVERT JUMPDEST POP JUMP JUMPDEST PUSH0 DUP2 CALLDATALOAD SWAP1 POP PUSH2 0x240 DUP2 PUSH2 0x21C JUMP JUMPDEST SWAP3 SWAP2 POP POP JUMP JUMPDEST PUSH0 PUSH1 0x20 DUP3 DUP5 SUB SLT ISZERO PUSH2 0x25B JUMPI PUSH2 0x25A PUSH2 0x20C JUMP JUMPDEST JUMPDEST PUSH0 PUSH2 0x268 DUP5 DUP3 DUP6 ADD PUSH2 0x232 JUMP JUMPDEST SWAP2 POP POP SWAP3 SWAP2 POP POP JUMP JUMPDEST PUSH0 DUP2 MLOAD SWAP1 POP SWAP2 SWAP1 POP JUMP JUMPDEST PUSH0 DUP3 DUP3 MSTORE PUSH1 0x20 DUP3 ADD SWAP1 POP SWAP3 SWAP2 POP POP JUMP JUMPDEST DUP3 DUP2 DUP4 MCOPY PUSH0 DUP4 DUP4 ADD MSTORE POP POP POP JUMP JUMPDEST PUSH0 PUSH1 0x1F NOT PUSH1 0x1F DUP4 ADD AND SWAP1 POP SWAP2 SWAP1 POP JUMP JUMPDEST PUSH0 PUSH2 0x2B3 DUP3 PUSH2 0x271 JUMP JUMPDEST PUSH2 0x2BD DUP2 DUP6 PUSH2 0x27B JUMP JUMPDEST SWAP4 POP PUSH2 0x2CD DUP2 DUP6 PUSH1 0x20 DUP7 ADD PUSH2 0x28B JUMP JUMPDEST PUSH2 0x2D6 DUP2 PUSH2 0x299 JUMP JUMPDEST DUP5 ADD SWAP2 POP POP SWAP3 SWAP2 POP POP JUMP JUMPDEST PUSH0 PUSH1 0x20 DUP3 ADD SWAP1 POP DUP2 DUP2 SUB PUSH0 DUP4 ADD MSTORE PUSH2 0x2F9 DUP2 DUP5 PUSH2 0x2A9 JUMP JUMPDEST SWAP1 POP SWAP3 SWAP2 POP POP JUMP JUMPDEST PUSH32 0x4E487B7100000000000000000000000000000000000000000000000000000000 PUSH0 MSTORE PUSH1 0x21 PUSH1 0x4 MSTORE PUSH1 0x24 PUSH0 REVERT JUMPDEST PUSH32 0x456E74657220636F6465206265747765656E203020746F203200000000000000 PUSH0 DUP3 ADD MSTORE POP JUMP JUMPDEST PUSH0 PUSH2 0x362 PUSH1 0x19 DUP4 PUSH2 0x27B JUMP JUMPDEST SWAP2 POP PUSH2 0x36D DUP3 PUSH2 0x32E JUMP JUMPDEST PUSH1 0x20 DUP3 ADD SWAP1 POP SWAP2 SWAP1 POP JUMP JUMPDEST PUSH0 PUSH1 0x20 DUP3 ADD SWAP1 POP DUP2 DUP2 SUB PUSH0 DUP4 ADD MSTORE PUSH2 0x38F DUP2 PUSH2 0x356 JUMP JUMPDEST SWAP1 POP SWAP2 SWAP1 POP JUMP JUMPDEST PUSH32 0x54686973206973206E6F74206163746976652E00000000000000000000000000 PUSH0 DUP3 ADD MSTORE POP JUMP JUMPDEST PUSH0 PUSH2 0x3CA PUSH1 0x13 DUP4 PUSH2 0x27B JUMP JUMPDEST SWAP2 POP PUSH2 0x3D5 DUP3 PUSH2 0x396 JUMP JUMPDEST PUSH1 0x20 DUP3 ADD SWAP1 POP SWAP2 SWAP1 POP JUMP JUMPDEST PUSH0 PUSH1 0x20 DUP3 ADD SWAP1 POP DUP2 DUP2 SUB PUSH0 DUP4 ADD MSTORE PUSH2 0x3F7 DUP2 PUSH2 0x3BE JUMP JUMPDEST SWAP1 POP SWAP2 SWAP1 POP JUMP INVALID LOG2 PUSH5 0x6970667358 0x22 SLT KECCAK256 RETURNDATACOPY SWAP3 RETURN 0xC7 0xC5 DUP5 0xB3 PUSH18 0x96F3FBDA153D85EED50092E348258E057856 CALLDATALOAD 0xD JUMPDEST GASPRICE PUSH16 0x2D64736F6C634300081D003300000000 "
		},
		"gasEstimates": {
			"creation": {
				"codeDepositCost": "215200",
				"executionCost": "255",
				"totalCost": "215455"
			},
			"external": {
				"restrict()": "infinite",
				"updateStatus(uint8)": "24769"
			}
		},
		"methodIdentifiers": {
			"restrict()": "9649d98b",
			"updateStatus(uint8)": "0b3af7f9"
		}
	},
	"abi": [
		{
			"inputs": [],
			"name": "restrict",
			"outputs": [
				{
					"internalType": "string",
					"name": "",
					"type": "string"
				}
			],
			"stateMutability": "view",
			"type": "function"
		},
		{
			"inputs": [
				{
					"internalType": "uint8",
					"name": "code",
					"type": "uint8"
				}
			],
			"name": "updateStatus",
			"outputs": [],
			"stateMutability": "nonpayable",
			"type": "function"
		}
	]
}